{
    "contractName": "FutureConcertPoll",
    "abi": [
        {
            "inputs": [
                {
                    "internalType": "contract LoyaltyPoints",
                    "name": "_loyaltyPointsContract",
                    "type": "address"
                }
            ],
            "stateMutability": "nonpayable",
            "type": "constructor"
        },
        {
            "anonymous": false,
            "inputs": [
                {
                    "indexed": false,
                    "internalType": "uint256",
                    "name": "concertOptionId",
                    "type": "uint256"
                },
                {
                    "indexed": false,
                    "internalType": "string",
                    "name": "name",
                    "type": "string"
                },
                {
                    "indexed": false,
                    "internalType": "string",
                    "name": "venue",
                    "type": "string"
                },
                {
                    "indexed": false,
                    "internalType": "uint256",
                    "name": "date",
                    "type": "uint256"
                }
            ],
            "name": "ConcertOptionAdded",
            "type": "event"
        },
        {
            "anonymous": false,
            "inputs": [
                {
                    "indexed": false,
                    "internalType": "address",
                    "name": "voter",
                    "type": "address"
                },
                {
                    "indexed": false,
                    "internalType": "uint256",
                    "name": "concertOptionId",
                    "type": "uint256"
                },
                {
                    "indexed": false,
                    "internalType": "uint256",
                    "name": "points",
                    "type": "uint256"
                }
            ],
            "name": "VoteCasted",
            "type": "event"
        },
        {
            "inputs": [
                {
                    "internalType": "string",
                    "name": "name",
                    "type": "string"
                },
                {
                    "internalType": "string",
                    "name": "venue",
                    "type": "string"
                },
                {
                    "internalType": "uint256",
                    "name": "date",
                    "type": "uint256"
                }
            ],
            "name": "addConcertOption",
            "outputs": [],
            "stateMutability": "nonpayable",
            "type": "function"
        },
        {
            "inputs": [
                {
                    "internalType": "uint256",
                    "name": "concertOptionId",
                    "type": "uint256"
                },
                {
                    "internalType": "uint256",
                    "name": "points",
                    "type": "uint256"
                }
            ],
            "name": "castVote",
            "outputs": [],
            "stateMutability": "nonpayable",
            "type": "function"
        },
        {
            "inputs": [
                {
                    "internalType": "uint256",
                    "name": "",
                    "type": "uint256"
                }
            ],
            "name": "concertOptions",
            "outputs": [
                {
                    "internalType": "uint256",
                    "name": "concertOptionId",
                    "type": "uint256"
                },
                {
                    "internalType": "string",
                    "name": "concertName",
                    "type": "string"
                },
                {
                    "internalType": "string",
                    "name": "concertVenue",
                    "type": "string"
                },
                {
                    "internalType": "uint256",
                    "name": "concertDate",
                    "type": "uint256"
                }
            ],
            "stateMutability": "view",
            "type": "function"
        },
        {
            "inputs": [
                {
                    "internalType": "uint256",
                    "name": "",
                    "type": "uint256"
                }
            ],
            "name": "concertVotes",
            "outputs": [
                {
                    "internalType": "uint256",
                    "name": "",
                    "type": "uint256"
                }
            ],
            "stateMutability": "view",
            "type": "function"
        },
        {
            "inputs": [
                {
                    "internalType": "uint256",
                    "name": "concertOptionId",
                    "type": "uint256"
                }
            ],
            "name": "getTotalVotes",
            "outputs": [
                {
                    "internalType": "uint256",
                    "name": "",
                    "type": "uint256"
                }
            ],
            "stateMutability": "view",
            "type": "function"
        },
        {
            "inputs": [
                {
                    "internalType": "address",
                    "name": "user",
                    "type": "address"
                },
                {
                    "internalType": "uint256",
                    "name": "concertOptionId",
                    "type": "uint256"
                }
            ],
            "name": "getUserVotes",
            "outputs": [
                {
                    "internalType": "uint256",
                    "name": "",
                    "type": "uint256"
                }
            ],
            "stateMutability": "view",
            "type": "function"
        },
        {
            "inputs": [],
            "name": "loyaltyPointsContract",
            "outputs": [
                {
                    "internalType": "contract LoyaltyPoints",
                    "name": "",
                    "type": "address"
                }
            ],
            "stateMutability": "view",
            "type": "function"
        },
        {
            "inputs": [],
            "name": "maxVotesPerUser",
            "outputs": [
                {
                    "internalType": "uint256",
                    "name": "",
                    "type": "uint256"
                }
            ],
            "stateMutability": "view",
            "type": "function"
        },
        {
            "inputs": [
                {
                    "internalType": "address",
                    "name": "",
                    "type": "address"
                }
            ],
            "name": "userTotalVotes",
            "outputs": [
                {
                    "internalType": "uint256",
                    "name": "",
                    "type": "uint256"
                }
            ],
            "stateMutability": "view",
            "type": "function"
        },
        {
            "inputs": [
                {
                    "internalType": "address",
                    "name": "",
                    "type": "address"
                },
                {
                    "internalType": "uint256",
                    "name": "",
                    "type": "uint256"
                }
            ],
            "name": "userVotes",
            "outputs": [
                {
                    "internalType": "uint256",
                    "name": "",
                    "type": "uint256"
                }
            ],
            "stateMutability": "view",
            "type": "function"
        }
    ],
    "bytecode": "60806040526064600155600160025534801561001a57600080fd5b50604051610bae380380610bae8339810160408190526100399161005e565b600080546001600160a01b0319166001600160a01b039290921691909117905561008e565b60006020828403121561007057600080fd5b81516001600160a01b038116811461008757600080fd5b9392505050565b610b118061009d6000396000f3fe608060405234801561001057600080fd5b506004361061009e5760003560e01c80633546c8e7116100665780633546c8e714610156578063433a10341461017957806377166067146101825780638b3511f714610195578063932546b2146101c057600080fd5b80630fafe290146100a357806321bd7d4a146100d35780632c0a3f89146101015780632c5242a0146101165780632ce35e1114610136575b600080fd5b6000546100b6906001600160a01b031681565b6040516001600160a01b0390911681526020015b60405180910390f35b6100f36100e136600461071d565b60056020526000908152604090205481565b6040519081526020016100ca565b61011461010f36600461073f565b6101d3565b005b6100f3610124366004610761565b60046020526000908152604090205481565b6100f3610144366004610761565b60009081526004602052604090205490565b610169610164366004610761565b61046a565b6040516100ca94939291906107c0565b6100f360015481565b6100f36101903660046107fd565b6105a3565b6100f36101a33660046107fd565b600660209081526000928352604080842090915290825290205481565b6101146101ce3660046108ca565b6105ce565b600081116102285760405162461bcd60e51b815260206004820152601d60248201527f506f696e7473206d7573742062652067726561746572207468616e203000000060448201526064015b60405180910390fd5b6000805460405163ee204abb60e01b81523360048201526001600160a01b039091169063ee204abb90602401602060405180830381865afa158015610271573d6000803e3d6000fd5b505050506040513d601f19601f820116820180604052508101906102959190610937565b9050818110156102e75760405162461bcd60e51b815260206004820152601960248201527f4e6f7420656e6f756768206c6f79616c747920706f696e747300000000000000604482015260640161021f565b60015433600090815260056020526040902054610305908490610966565b11156103495760405162461bcd60e51b8152602060048201526013602482015272159bdd19481b1a5b5a5d08195e18d959591959606a1b604482015260640161021f565b600054604051637867be7560e01b8152336004820152602481018490526001600160a01b0390911690637867be7590604401600060405180830381600087803b15801561039557600080fd5b505af11580156103a9573d6000803e3d6000fd5b5050336000908152600660209081526040808320888452909152812080548694509092506103d8908490610966565b9091555050600083815260046020526040812080548492906103fb908490610966565b9091555050336000908152600560205260408120805484929061041f908490610966565b909155505060408051338152602081018590529081018390527fcb87df07b1c304492bd875a5c8b98672eca500939412809ea229afef1d7451889060600160405180910390a1505050565b6007602052600090815260409020805460018201805491929161048c90610979565b80601f01602080910402602001604051908101604052809291908181526020018280546104b890610979565b80156105055780601f106104da57610100808354040283529160200191610505565b820191906000526020600020905b8154815290600101906020018083116104e857829003601f168201915b50505050509080600201805461051a90610979565b80601f016020809104026020016040519081016040528092919081815260200182805461054690610979565b80156105935780601f1061056857610100808354040283529160200191610593565b820191906000526020600020905b81548152906001019060200180831161057657829003601f168201915b5050505050908060030154905084565b6001600160a01b03821660009081526006602090815260408083208484529091529020545b92915050565b6003546001600160a01b0316331461063b5760405162461bcd60e51b815260206004820152602a60248201527f4f6e6c7920746865206f7267616e697a65722063616e20706572666f726d20746044820152693434b99030b1ba34b7b760b11b606482015260840161021f565b604080516080810182526002548082526020808301878152838501879052606084018690526000928352600790915292902081518155915190919060018201906106859082610a02565b506040820151600282019061069a9082610a02565b50606082015181600301559050507fa14c2933ee581e9ab5971f0416e970edc9449b8e17da4307f44ed12178b863c06002548484846040516106df94939291906107c0565b60405180910390a1600280549060006106f783610ac2565b9190505550505050565b80356001600160a01b038116811461071857600080fd5b919050565b60006020828403121561072f57600080fd5b61073882610701565b9392505050565b6000806040838503121561075257600080fd5b50508035926020909101359150565b60006020828403121561077357600080fd5b5035919050565b6000815180845260005b818110156107a057602081850181015186830182015201610784565b506000602082860101526020601f19601f83011685010191505092915050565b8481526080602082015260006107d9608083018661077a565b82810360408401526107eb818661077a565b91505082606083015295945050505050565b6000806040838503121561081057600080fd5b61081983610701565b946020939093013593505050565b634e487b7160e01b600052604160045260246000fd5b600082601f83011261084e57600080fd5b813567ffffffffffffffff8082111561086957610869610827565b604051601f8301601f19908116603f0116810190828211818310171561089157610891610827565b816040528381528660208588010111156108aa57600080fd5b836020870160208301376000602085830101528094505050505092915050565b6000806000606084860312156108df57600080fd5b833567ffffffffffffffff808211156108f757600080fd5b6109038783880161083d565b9450602086013591508082111561091957600080fd5b506109268682870161083d565b925050604084013590509250925092565b60006020828403121561094957600080fd5b5051919050565b634e487b7160e01b600052601160045260246000fd5b808201808211156105c8576105c8610950565b600181811c9082168061098d57607f821691505b6020821081036109ad57634e487b7160e01b600052602260045260246000fd5b50919050565b601f8211156109fd57600081815260208120601f850160051c810160208610156109da5750805b601f850160051c820191505b818110156109f9578281556001016109e6565b5050505b505050565b815167ffffffffffffffff811115610a1c57610a1c610827565b610a3081610a2a8454610979565b846109b3565b602080601f831160018114610a655760008415610a4d5750858301515b600019600386901b1c1916600185901b1785556109f9565b600085815260208120601f198616915b82811015610a9457888601518255948401946001909101908401610a75565b5085821015610ab25787850151600019600388901b60f8161c191681555b5050505050600190811b01905550565b600060018201610ad457610ad4610950565b506001019056fea26469706673582212205f180941e866065707783ded01115d7e573b3d981d6b558cad10b790b02b78e164736f6c63430008130033",
    "sourcePath": "c:/Users/tngjo/OneDrive/Desktop/GitHub/IS4302-Decentralized-Event-Ticketing-System/contracts/FutureConcertPoll.sol",
    "compiler": {
        "name": "solc",
        "version": "0.8.19+commit.7dd6d404"
    },
    "functionHashes": {
        "addConcertOption(string,string,uint256)": "932546b2",
        "castVote(uint256,uint256)": "2c0a3f89",
        "concertOptions(uint256)": "3546c8e7",
        "concertVotes(uint256)": "2c5242a0",
        "getTotalVotes(uint256)": "2ce35e11",
        "getUserVotes(address,uint256)": "77166067",
        "loyaltyPointsContract()": "0fafe290",
        "maxVotesPerUser()": "433a1034",
        "userTotalVotes(address)": "21bd7d4a",
        "userVotes(address,uint256)": "8b3511f7"
    },
    "gasEstimates": {
        "creation": {
            "codeDepositCost": "566600",
            "executionCost": "infinite",
            "totalCost": "infinite"
        },
        "external": {
            "addConcertOption(string,string,uint256)": "infinite",
            "castVote(uint256,uint256)": "infinite",
            "concertOptions(uint256)": "infinite",
            "concertVotes(uint256)": "2505",
            "getTotalVotes(uint256)": "2527",
            "getUserVotes(address,uint256)": "2697",
            "loyaltyPointsContract()": "2327",
            "maxVotesPerUser()": "2317",
            "userTotalVotes(address)": "2542",
            "userVotes(address,uint256)": "2678"
        }
    }
}