{
  "contractName": "ERC20",
  "abi": [
    {
      "anonymous": false,
      "inputs": [
        {
          "indexed": true,
          "internalType": "address",
          "name": "owner",
          "type": "address"
        },
        {
          "indexed": true,
          "internalType": "address",
          "name": "spender",
          "type": "address"
        },
        {
          "indexed": false,
          "internalType": "uint256",
          "name": "value",
          "type": "uint256"
        }
      ],
      "name": "Approval",
      "type": "event"
    },
    {
      "anonymous": false,
      "inputs": [
        {
          "indexed": true,
          "internalType": "address",
          "name": "from",
          "type": "address"
        },
        {
          "indexed": false,
          "internalType": "uint256",
          "name": "amount",
          "type": "uint256"
        }
      ],
      "name": "Burn",
      "type": "event"
    },
    {
      "anonymous": false,
      "inputs": [
        {
          "indexed": true,
          "internalType": "address",
          "name": "to",
          "type": "address"
        },
        {
          "indexed": false,
          "internalType": "uint256",
          "name": "amount",
          "type": "uint256"
        }
      ],
      "name": "Mint",
      "type": "event"
    },
    {
      "anonymous": false,
      "inputs": [],
      "name": "MintFinished",
      "type": "event"
    },
    {
      "anonymous": false,
      "inputs": [
        {
          "indexed": true,
          "internalType": "address",
          "name": "from",
          "type": "address"
        },
        {
          "indexed": true,
          "internalType": "address",
          "name": "to",
          "type": "address"
        },
        {
          "indexed": false,
          "internalType": "uint256",
          "name": "value",
          "type": "uint256"
        }
      ],
      "name": "Transfer",
      "type": "event"
    },
    {
      "inputs": [],
      "name": "decimals",
      "outputs": [
        {
          "internalType": "uint8",
          "name": "",
          "type": "uint8"
        }
      ],
      "stateMutability": "view",
      "type": "function"
    },
    {
      "inputs": [],
      "name": "mintingFinished",
      "outputs": [
        {
          "internalType": "bool",
          "name": "",
          "type": "bool"
        }
      ],
      "stateMutability": "view",
      "type": "function"
    },
    {
      "inputs": [],
      "name": "name",
      "outputs": [
        {
          "internalType": "string",
          "name": "",
          "type": "string"
        }
      ],
      "stateMutability": "view",
      "type": "function"
    },
    {
      "inputs": [],
      "name": "owner",
      "outputs": [
        {
          "internalType": "address",
          "name": "",
          "type": "address"
        }
      ],
      "stateMutability": "view",
      "type": "function"
    },
    {
      "inputs": [],
      "name": "symbol",
      "outputs": [
        {
          "internalType": "string",
          "name": "",
          "type": "string"
        }
      ],
      "stateMutability": "view",
      "type": "function"
    },
    {
      "inputs": [
        {
          "internalType": "address",
          "name": "_owner",
          "type": "address"
        }
      ],
      "name": "balanceOf",
      "outputs": [
        {
          "internalType": "uint256",
          "name": "",
          "type": "uint256"
        }
      ],
      "stateMutability": "view",
      "type": "function"
    },
    {
      "inputs": [
        {
          "internalType": "address",
          "name": "_to",
          "type": "address"
        },
        {
          "internalType": "uint256",
          "name": "_value",
          "type": "uint256"
        }
      ],
      "name": "transfer",
      "outputs": [
        {
          "internalType": "bool",
          "name": "",
          "type": "bool"
        }
      ],
      "stateMutability": "nonpayable",
      "type": "function"
    },
    {
      "inputs": [
        {
          "internalType": "address",
          "name": "_to",
          "type": "address"
        },
        {
          "internalType": "uint256",
          "name": "_amount",
          "type": "uint256"
        }
      ],
      "name": "mint",
      "outputs": [
        {
          "internalType": "bool",
          "name": "",
          "type": "bool"
        }
      ],
      "stateMutability": "nonpayable",
      "type": "function"
    },
    {
      "inputs": [
        {
          "internalType": "address",
          "name": "_tokenOwner",
          "type": "address"
        },
        {
          "internalType": "uint256",
          "name": "_amount",
          "type": "uint256"
        }
      ],
      "name": "burn",
      "outputs": [
        {
          "internalType": "bool",
          "name": "",
          "type": "bool"
        }
      ],
      "stateMutability": "nonpayable",
      "type": "function"
    },
    {
      "inputs": [],
      "name": "getOwner",
      "outputs": [
        {
          "internalType": "address",
          "name": "",
          "type": "address"
        }
      ],
      "stateMutability": "view",
      "type": "function"
    }
  ],
  "bytecode": "0x608060405260008060006101000a81548160ff02191690831515021790555033600060016101000a81548173ffffffffffffffffffffffffffffffffffffffff021916908373ffffffffffffffffffffffffffffffffffffffff16021790555034801561006b57600080fd5b50610d558061007b6000396000f3fe608060405234801561001057600080fd5b506004361061009e5760003560e01c8063893d20e811610066578063893d20e81461015d5780638da5cb5b1461017b57806395d89b41146101995780639dc29fac146101b7578063a9059cbb146101e75761009e565b806305d2035b146100a357806306fdde03146100c1578063313ce567146100df57806340c10f19146100fd57806370a082311461012d575b600080fd5b6100ab610217565b6040516100b89190610af0565b60405180910390f35b6100c9610228565b6040516100d69190610b0b565b60405180910390f35b6100e7610261565b6040516100f49190610b68565b60405180910390f35b610117600480360381019061011291906109be565b610266565b6040516101249190610af0565b60405180910390f35b61014760048036038101906101429190610995565b610447565b6040516101549190610b4d565b60405180910390f35b610165610490565b6040516101729190610ad5565b60405180910390f35b6101836104b9565b6040516101909190610ad5565b60405180910390f35b6101a16104df565b6040516101ae9190610b0b565b60405180910390f35b6101d160048036038101906101cc91906109be565b610518565b6040516101de9190610af0565b60405180910390f35b61020160048036038101906101fc91906109be565b61067b565b60405161020e9190610af0565b60405180910390f35b60008054906101000a900460ff1681565b6040518060400160405280601281526020017f436f6e636572745469636b6574546f6b656e000000000000000000000000000081525081565b601281565b60008060019054906101000a900473ffffffffffffffffffffffffffffffffffffffff1673ffffffffffffffffffffffffffffffffffffffff163373ffffffffffffffffffffffffffffffffffffffff16146102c157600080fd5b60008054906101000a900460ff16156102d957600080fd5b6102ee826003546108d190919063ffffffff16565b60038190555061034682600260008673ffffffffffffffffffffffffffffffffffffffff1673ffffffffffffffffffffffffffffffffffffffff168152602001908152602001600020546108d190919063ffffffff16565b600260008573ffffffffffffffffffffffffffffffffffffffff1673ffffffffffffffffffffffffffffffffffffffff168152602001908152602001600020819055508273ffffffffffffffffffffffffffffffffffffffff167f0f6798a560793a54c3bcfe86a93cde1e73087d944c0ea20544137d4121396885836040516103cf9190610b4d565b60405180910390a28273ffffffffffffffffffffffffffffffffffffffff16600073ffffffffffffffffffffffffffffffffffffffff167fddf252ad1be2c89b69c2b068fc378daa952ba7f163c4a11628f55a4df523b3ef846040516104359190610b4d565b60405180910390a36001905092915050565b6000600260008373ffffffffffffffffffffffffffffffffffffffff1673ffffffffffffffffffffffffffffffffffffffff168152602001908152602001600020549050919050565b60008060019054906101000a900473ffffffffffffffffffffffffffffffffffffffff16905090565b600060019054906101000a900473ffffffffffffffffffffffffffffffffffffffff1681565b6040518060400160405280600381526020017f435454000000000000000000000000000000000000000000000000000000000081525081565b60008060019054906101000a900473ffffffffffffffffffffffffffffffffffffffff1673ffffffffffffffffffffffffffffffffffffffff163373ffffffffffffffffffffffffffffffffffffffff161461057357600080fd5b6105888260035461091e90919063ffffffff16565b6003819055506105e082600260008673ffffffffffffffffffffffffffffffffffffffff1673ffffffffffffffffffffffffffffffffffffffff1681526020019081526020016000205461091e90919063ffffffff16565b600260008573ffffffffffffffffffffffffffffffffffffffff1673ffffffffffffffffffffffffffffffffffffffff168152602001908152602001600020819055508273ffffffffffffffffffffffffffffffffffffffff167fcc16f5dbb4873280815c1ee09dbd06736cffcc184412cf7a71a0fdb75d397ca5836040516106699190610b4d565b60405180910390a26001905092915050565b60008073ffffffffffffffffffffffffffffffffffffffff168373ffffffffffffffffffffffffffffffffffffffff1614156106b657600080fd5b600260003273ffffffffffffffffffffffffffffffffffffffff1673ffffffffffffffffffffffffffffffffffffffff16815260200190815260200160002054821115610738576040517f08c379a000000000000000000000000000000000000000000000000000000000815260040161072f90610b2d565b60405180910390fd5b61078a82600260003273ffffffffffffffffffffffffffffffffffffffff1673ffffffffffffffffffffffffffffffffffffffff1681526020019081526020016000205461091e90919063ffffffff16565b600260003273ffffffffffffffffffffffffffffffffffffffff1673ffffffffffffffffffffffffffffffffffffffff1681526020019081526020016000208190555061081f82600260008673ffffffffffffffffffffffffffffffffffffffff1673ffffffffffffffffffffffffffffffffffffffff168152602001908152602001600020546108d190919063ffffffff16565b600260008573ffffffffffffffffffffffffffffffffffffffff1673ffffffffffffffffffffffffffffffffffffffff168152602001908152602001600020819055508273ffffffffffffffffffffffffffffffffffffffff163273ffffffffffffffffffffffffffffffffffffffff167fddf252ad1be2c89b69c2b068fc378daa952ba7f163c4a11628f55a4df523b3ef846040516108bf9190610b4d565b60405180910390a36001905092915050565b600081836108df9190610b9f565b905082811015610918577f4e487b7100000000000000000000000000000000000000000000000000000000600052600160045260246000fd5b92915050565b600082821115610957577f4e487b7100000000000000000000000000000000000000000000000000000000600052600160045260246000fd5b81836109639190610bf5565b905092915050565b60008135905061097a81610cf1565b92915050565b60008135905061098f81610d08565b92915050565b6000602082840312156109a757600080fd5b60006109b58482850161096b565b91505092915050565b600080604083850312156109d157600080fd5b60006109df8582860161096b565b92505060206109f085828601610980565b9150509250929050565b610a0381610c29565b82525050565b610a1281610c3b565b82525050565b6000610a2382610b83565b610a2d8185610b8e565b9350610a3d818560208601610c7e565b610a4681610ce0565b840191505092915050565b6000610a5e602683610b8e565b91507f6d73672e73656e64657220646f65736e2774206861766520656e6f756768206260008301527f616c616e636500000000000000000000000000000000000000000000000000006020830152604082019050919050565b610ac081610c67565b82525050565b610acf81610c71565b82525050565b6000602082019050610aea60008301846109fa565b92915050565b6000602082019050610b056000830184610a09565b92915050565b60006020820190508181036000830152610b258184610a18565b905092915050565b60006020820190508181036000830152610b4681610a51565b9050919050565b6000602082019050610b626000830184610ab7565b92915050565b6000602082019050610b7d6000830184610ac6565b92915050565b600081519050919050565b600082825260208201905092915050565b6000610baa82610c67565b9150610bb583610c67565b9250827fffffffffffffffffffffffffffffffffffffffffffffffffffffffffffffffff03821115610bea57610be9610cb1565b5b828201905092915050565b6000610c0082610c67565b9150610c0b83610c67565b925082821015610c1e57610c1d610cb1565b5b828203905092915050565b6000610c3482610c47565b9050919050565b60008115159050919050565b600073ffffffffffffffffffffffffffffffffffffffff82169050919050565b6000819050919050565b600060ff82169050919050565b60005b83811015610c9c578082015181840152602081019050610c81565b83811115610cab576000848401525b50505050565b7f4e487b7100000000000000000000000000000000000000000000000000000000600052601160045260246000fd5b6000601f19601f8301169050919050565b610cfa81610c29565b8114610d0557600080fd5b50565b610d1181610c67565b8114610d1c57600080fd5b5056fea2646970667358221220b4f7a6bba002365a3458d93ad4b6c71f1c077f176b8929680f4e191f857dc31a64736f6c63430008000033",
  "immutableReferences": {},
  "source": "// SPDX-License-Identifier: MIT \r\npragma solidity ^0.8.0;\r\n\r\n//first need to approve the address of spender \r\n// Check the allowance\r\n//Finally able to call transferFrom to transfer tokens\r\n\r\n/**\r\n * @title SafeMath\r\n * @dev Math operations with safety checks that throw on error\r\n */\r\nlibrary SafeMath {\r\n\r\n  /**\r\n  * @dev Multiplies two numbers, throws on overflow.\r\n  */\r\n  function mul(uint256 a, uint256 b) internal pure returns (uint256 c) {\r\n    if (a == 0) {\r\n      return 0;\r\n    }\r\n    c = a * b;\r\n    assert(c / a == b);\r\n    return c;\r\n  }\r\n\r\n  /**\r\n  * @dev Integer division of two numbers, truncating the quotient.\r\n  */\r\n  function div(uint256 a, uint256 b) internal pure returns (uint256) {\r\n    // assert(b > 0); // Solidity automatically throws when dividing by 0\r\n    // uint256 c = a / b;\r\n    // assert(a == b * c + a % b); // There is no case in which this doesn't hold\r\n    return a / b;\r\n  }\r\n\r\n  /**\r\n  * @dev Subtracts two numbers, throws on overflow (i.e. if subtrahend is greater than minuend).\r\n  */\r\n  function sub(uint256 a, uint256 b) internal pure returns (uint256) {\r\n    assert(b <= a);\r\n    return a - b;\r\n  }\r\n\r\n  /**\r\n  * @dev Adds two numbers, throws on overflow.\r\n  */\r\n  function add(uint256 a, uint256 b) internal pure returns (uint256 c) {\r\n    c = a + b;\r\n    assert(c >= a);\r\n    return c;\r\n  }\r\n}\r\n\r\ncontract ERC20 {\r\n    using SafeMath for uint256;\r\n    \r\n    bool public mintingFinished = false;\r\n    \r\n    address public owner = msg.sender;\r\n    \r\n    mapping (address => mapping (address => uint256)) internal allowed;\r\n    mapping(address => uint256) balances;\r\n    \r\n    \r\n    string public constant name = \"ConcertTicketToken\";\r\n    string public constant symbol = \"CTT\";\r\n    uint8 public constant decimals = 18;\r\n    uint256 totalSupply_;\r\n  \r\n    event Transfer(address indexed from, address indexed to, uint256 value);\r\n    event Approval(address indexed owner, address indexed spender, uint256 value);\r\n    event Mint(address indexed to, uint256 amount);\r\n    event Burn(address indexed from, uint256 amount);\r\n    event MintFinished();\r\n\r\n  \r\n    /**\r\n  * @dev Gets the balance of the specified address.\r\n  * @param _owner The address to query the the balance of.\r\n  * @return An uint256 representing the amount owned by the passed address.\r\n  */\r\n  function balanceOf(address _owner) public view returns (uint256) {\r\n    return balances[_owner];\r\n  }\r\n\r\n\r\n  /**\r\n  * @dev transfer token for a specified address\r\n  * @param _to The address to transfer to.\r\n  * @param _value The amount to be transferred.\r\n  */\r\n  function transfer(address _to, uint256 _value) public returns (bool) {\r\n    require(_to != address(0));\r\n    require(_value <= balances[tx.origin], \"msg.sender doesn't have enough balance\");\r\n\r\n    balances[tx.origin] = balances[tx.origin].sub(_value);\r\n    balances[_to] = balances[_to].add(_value);\r\n    emit Transfer(tx.origin, _to, _value);\r\n    return true;\r\n  }\r\n  \r\n    /**\r\n   * @dev Function to mint tokens\r\n   * @param _to The address that will receive the minted tokens.\r\n   * @param _amount The amount of tokens to mint.\r\n   * @return A boolean that indicates if the operation was successful.\r\n   */\r\n  function mint(address _to, uint256 _amount) onlyOwner canMint public returns (bool) {\r\n    totalSupply_ = totalSupply_.add(_amount);\r\n    balances[_to] = balances[_to].add(_amount);\r\n    emit Mint(_to, _amount);\r\n    emit Transfer(address(0), _to, _amount);\r\n    return true;\r\n  }\r\n\r\n  /**\r\n  * @dev Function to burn tokens\r\n  */\r\n  function burn(address _tokenOwner, uint256 _amount) onlyOwner public returns (bool) {\r\n    totalSupply_ = totalSupply_.sub(_amount);\r\n    balances[_tokenOwner] = balances[_tokenOwner].sub(_amount);\r\n    emit Burn(_tokenOwner, _amount);\r\n    return true;\r\n  }\r\n\r\n  \r\n  function getOwner() public view returns (address){\r\n      return owner;\r\n  }\r\n\r\n\r\n  \r\n  \r\n   modifier onlyOwner() {\r\n    require(msg.sender == owner);\r\n    _;\r\n  }\r\n  \r\n  \r\n  modifier canMint() {\r\n    require(!mintingFinished);\r\n    _;\r\n  }\r\n\r\n\r\n  /*\r\n  Functions that are no longer needed // ====MIDTERMS 2024====\r\n  *\r\n\r\n\r\n  // /**\r\n  //  * @dev Function to stop minting new tokens.\r\n  //  * @return True if the operation was successful.\r\n  //  */\r\n  // function finishMinting() onlyOwner canMint public returns (bool) {\r\n  //   mintingFinished = true;\r\n  //   emit MintFinished();\r\n  //   return true;\r\n  // }\r\n\r\n\r\n  // /**\r\n  //  * @dev Transfer tokens from one address to another\r\n  //  * @param _from address The address which you want to send tokens from\r\n  //  * @param _to address The address which you want to transfer to\r\n  //  * @param _value uint256 the amount of tokens to be transferred\r\n  //  */\r\n  // function transferFrom(address _from, address _to, uint256 _value) public returns (bool) {\r\n  //   require(_to != address(0));\r\n  //   require(_value <= balances[_from], \"From doesn't have enough balance\");\r\n  //   require(_value <= allowed[_from][tx.origin], \"Not allowed to spend this much\");\r\n\r\n  //   balances[_from] = balances[_from].sub(_value);\r\n  //   balances[_to] = balances[_to].add(_value);\r\n  //   allowed[_from][tx.origin] = allowed[_from][tx.origin].sub(_value);\r\n  //   emit Transfer(_from, _to, _value);\r\n  //   return true;\r\n  // }\r\n\r\n  // /**\r\n  //  * @dev Approve the passed address to spend the specified amount of tokens on behalf of msg.sender.\r\n  //  *\r\n  //  * Beware that changing an allowance with this method brings the risk that someone may use both the old\r\n  //  * and the new allowance by unfortunate transaction ordering. One possible solution to mitigate this\r\n  //  * race condition is to first reduce the spender's allowance to 0 and set the desired value afterwards:\r\n  //  * https://github.com/ethereum/EIPs/issues/20#issuecomment-263524729\r\n  //  * @param _spender The address which will spend the funds.\r\n  //  * @param _value The amount of tokens to be spent.\r\n  //  */\r\n  // function approve(address _spender, uint256 _value) public returns (bool) {\r\n  //   allowed[msg.sender][_spender] = _value;\r\n  //   emit Approval(msg.sender, _spender, _value);\r\n  //   return true;\r\n  // }\r\n\r\n  // /**\r\n  //  * @dev Function to check the amount of tokens that an owner allowed to a spender.\r\n  //  * @param _owner address The address which owns the funds.\r\n  //  * @param _spender address The address which will spend the funds.\r\n  //  * @return A uint256 specifying the amount of tokens still available for the spender.\r\n  //  */\r\n  // function allowance(address _owner, address _spender) public view returns (uint256) {\r\n  //   return allowed[_owner][_spender];\r\n  // }\r\n\r\n\r\n  // /**\r\n  // * @dev total number of tokens in existence\r\n  // */\r\n  // function totalSupply() public view returns (uint256) {\r\n  //   return totalSupply_;\r\n  // }\r\n}",
  "sourcePath": "C:\\Users\\tngjo\\OneDrive\\Desktop\\GitHub\\IS4302-Decentralized-Event-Ticketing-System\\contracts\\ERC20.sol",
  "compiler": {
    "name": "solc",
    "version": "0.8.0+commit.c7dfd78e.Emscripten.clang"
  },
  "schemaVersion": "3.4.16",
  "updatedAt": "2024-04-04T09:51:40.379Z",
  "devdoc": {
    "kind": "dev",
    "methods": {
      "balanceOf(address)": {
        "details": "Gets the balance of the specified address.",
        "params": {
          "_owner": "The address to query the the balance of."
        },
        "returns": {
          "_0": "An uint256 representing the amount owned by the passed address."
        }
      },
      "burn(address,uint256)": {
        "details": "Function to burn tokens"
      },
      "mint(address,uint256)": {
        "details": "Function to mint tokens",
        "params": {
          "_amount": "The amount of tokens to mint.",
          "_to": "The address that will receive the minted tokens."
        },
        "returns": {
          "_0": "A boolean that indicates if the operation was successful."
        }
      },
      "transfer(address,uint256)": {
        "details": "transfer token for a specified address",
        "params": {
          "_to": "The address to transfer to.",
          "_value": "The amount to be transferred."
        }
      }
    },
    "version": 1
  },
  "userdoc": {
    "kind": "user",
    "methods": {},
    "version": 1
  }
}