{
  "contractName": "EventVoting",
  "abi": [
    {
      "inputs": [
        {
          "internalType": "address",
          "name": "_ticketContract",
          "type": "address"
        }
      ],
      "stateMutability": "nonpayable",
      "type": "constructor"
    },
    {
      "anonymous": false,
      "inputs": [
        {
          "indexed": true,
          "internalType": "uint256",
          "name": "pollId",
          "type": "uint256"
        }
      ],
      "name": "PollClosed",
      "type": "event"
    },
    {
      "anonymous": false,
      "inputs": [
        {
          "indexed": true,
          "internalType": "uint256",
          "name": "pollId",
          "type": "uint256"
        },
        {
          "indexed": true,
          "internalType": "uint256",
          "name": "concertId",
          "type": "uint256"
        },
        {
          "indexed": false,
          "internalType": "string",
          "name": "question",
          "type": "string"
        }
      ],
      "name": "PollCreated",
      "type": "event"
    },
    {
      "anonymous": false,
      "inputs": [
        {
          "indexed": true,
          "internalType": "uint256",
          "name": "pollId",
          "type": "uint256"
        },
        {
          "indexed": true,
          "internalType": "uint256",
          "name": "ticketId",
          "type": "uint256"
        },
        {
          "indexed": false,
          "internalType": "uint256",
          "name": "optionId",
          "type": "uint256"
        }
      ],
      "name": "Voted",
      "type": "event"
    },
    {
      "inputs": [
        {
          "internalType": "uint256",
          "name": "",
          "type": "uint256"
        }
      ],
      "name": "concertToPoll",
      "outputs": [
        {
          "internalType": "uint256",
          "name": "",
          "type": "uint256"
        }
      ],
      "stateMutability": "view",
      "type": "function"
    },
    {
      "inputs": [],
      "name": "pollCounter",
      "outputs": [
        {
          "internalType": "uint256",
          "name": "",
          "type": "uint256"
        }
      ],
      "stateMutability": "view",
      "type": "function"
    },
    {
      "inputs": [
        {
          "internalType": "uint256",
          "name": "",
          "type": "uint256"
        }
      ],
      "name": "polls",
      "outputs": [
        {
          "internalType": "uint256",
          "name": "pollId",
          "type": "uint256"
        },
        {
          "internalType": "uint256",
          "name": "concertId",
          "type": "uint256"
        },
        {
          "internalType": "string",
          "name": "question",
          "type": "string"
        },
        {
          "internalType": "uint256",
          "name": "totalVotes",
          "type": "uint256"
        },
        {
          "internalType": "bool",
          "name": "isOpen",
          "type": "bool"
        }
      ],
      "stateMutability": "view",
      "type": "function"
    },
    {
      "inputs": [],
      "name": "ticketContract",
      "outputs": [
        {
          "internalType": "contract Ticket",
          "name": "",
          "type": "address"
        }
      ],
      "stateMutability": "view",
      "type": "function"
    },
    {
      "inputs": [
        {
          "internalType": "uint256",
          "name": "_concertId",
          "type": "uint256"
        },
        {
          "internalType": "string",
          "name": "_question",
          "type": "string"
        },
        {
          "internalType": "string[]",
          "name": "_options",
          "type": "string[]"
        }
      ],
      "name": "createPoll",
      "outputs": [],
      "stateMutability": "nonpayable",
      "type": "function"
    },
    {
      "inputs": [
        {
          "internalType": "uint256",
          "name": "_ticketId",
          "type": "uint256"
        },
        {
          "internalType": "uint256",
          "name": "_pollId",
          "type": "uint256"
        },
        {
          "internalType": "uint256",
          "name": "_optionId",
          "type": "uint256"
        }
      ],
      "name": "vote",
      "outputs": [],
      "stateMutability": "nonpayable",
      "type": "function"
    },
    {
      "inputs": [
        {
          "internalType": "uint256",
          "name": "_pollId",
          "type": "uint256"
        }
      ],
      "name": "closePoll",
      "outputs": [],
      "stateMutability": "nonpayable",
      "type": "function"
    },
    {
      "inputs": [
        {
          "internalType": "uint256",
          "name": "_pollId",
          "type": "uint256"
        },
        {
          "internalType": "uint256",
          "name": "_optionId",
          "type": "uint256"
        }
      ],
      "name": "getVotesForOption",
      "outputs": [
        {
          "internalType": "uint256",
          "name": "",
          "type": "uint256"
        }
      ],
      "stateMutability": "view",
      "type": "function"
    },
    {
      "inputs": [
        {
          "internalType": "uint256",
          "name": "_pollId",
          "type": "uint256"
        }
      ],
      "name": "isPollOpen",
      "outputs": [
        {
          "internalType": "bool",
          "name": "",
          "type": "bool"
        }
      ],
      "stateMutability": "view",
      "type": "function"
    },
    {
      "inputs": [
        {
          "internalType": "uint256",
          "name": "_pollId",
          "type": "uint256"
        }
      ],
      "name": "getPollDetails",
      "outputs": [
        {
          "internalType": "uint256",
          "name": "",
          "type": "uint256"
        },
        {
          "internalType": "string",
          "name": "",
          "type": "string"
        },
        {
          "internalType": "string[]",
          "name": "",
          "type": "string[]"
        },
        {
          "internalType": "uint256[]",
          "name": "",
          "type": "uint256[]"
        }
      ],
      "stateMutability": "view",
      "type": "function"
    }
  ],
  "bytecode": "0x60806040523480156200001157600080fd5b5060405162001b3438038062001b34833981810160405281019062000037919062000096565b80600260006101000a81548173ffffffffffffffffffffffffffffffffffffffff021916908373ffffffffffffffffffffffffffffffffffffffff1602179055505062000110565b6000815190506200009081620000f6565b92915050565b600060208284031215620000a957600080fd5b6000620000b9848285016200007f565b91505092915050565b6000620000cf82620000d6565b9050919050565b600073ffffffffffffffffffffffffffffffffffffffff82169050919050565b6200010181620000c2565b81146200010d57600080fd5b50565b611a1480620001206000396000f3fe608060405234801561001057600080fd5b506004361061009e5760003560e01c80639534e637116100665780639534e637146101595780639a0040e414610175578063ac2f0074146101a8578063d02eed38146101dc578063ddbfb588146101fa5761009e565b80630c9ef9a2146100a357806358a86e1d146100bf578063695c8102146100dd578063894c9b311461010d5780638a6655d61461013d575b600080fd5b6100bd60048036038101906100b891906110f2565b61022a565b005b6100c7610421565b6040516100d4919061152a565b60405180910390f35b6100f760048036038101906100f291906110a0565b610447565b6040516101049190611607565b60405180910390f35b610127600480360381019061012291906110a0565b61045f565b604051610134919061150f565b60405180910390f35b610157600480360381019061015291906111ad565b61048b565b005b610173600480360381019061016e91906110a0565b6108f7565b005b61018f600480360381019061018a91906110a0565b61099b565b60405161019f9493929190611622565b60405180910390f35b6101c260048036038101906101bd91906110a0565b610d6c565b6040516101d395949392919061167c565b60405180910390f35b6101e4610e37565b6040516101f19190611607565b60405180910390f35b610214600480360381019061020f9190611171565b610e3d565b6040516102219190611607565b60405180910390f35b60015460008060015481526020019081526020016000206000018190555082600080600154815260200190815260200160002060010181905550816000806001548152602001908152602001600020600201908051906020019061028f929190610ea6565b5060005b815181101561037e57600080600154815260200190815260200160002060040160405180606001604052808381526020018484815181106102fd577f4e487b7100000000000000000000000000000000000000000000000000000000600052603260045260246000fd5b602002602001015181526020016000815250908060018154018082558091505060019003906000526020600020906003020160009091909190915060008201518160000155602082015181600101908051906020019061035e929190610ea6565b506040820151816002015550508080610376906118d0565b915050610293565b506001600080600154815260200190815260200160002060060160006101000a81548160ff0219169083151502179055506001546003600085815260200190815260200160002081905550826001547f87b11e68a16f482c7abcd786b549381647901857698ac775bffbbb09975fccdf846040516103fc9190611545565b60405180910390a360016000815480929190610417906118d0565b9190505550505050565b600260009054906101000a900473ffffffffffffffffffffffffffffffffffffffff1681565b60036020528060005260406000206000915090505481565b600080600083815260200190815260200160002060060160009054906101000a900460ff169050919050565b8160015481106104d0576040517f08c379a00000000000000000000000000000000000000000000000000000000081526004016104c7906115e7565b60405180910390fd5b83836000600281111561050c577f4e487b7100000000000000000000000000000000000000000000000000000000600052602160045260246000fd5b600260009054906101000a900473ffffffffffffffffffffffffffffffffffffffff1673ffffffffffffffffffffffffffffffffffffffff16636482db3f846040518263ffffffff1660e01b81526004016105679190611607565b60206040518083038186803b15801561057f57600080fd5b505afa158015610593573d6000803e3d6000fd5b505050506040513d601f19601f820116820180604052508101906105b79190611077565b60028111156105ef577f4e487b7100000000000000000000000000000000000000000000000000000000600052602160045260246000fd5b1461062f576040517f08c379a000000000000000000000000000000000000000000000000000000000815260040161062690611567565b60405180910390fd5b60008082815260200190815260200160002060060160009054906101000a900460ff16610691576040517f08c379a0000000000000000000000000000000000000000000000000000000008152600401610688906115c7565b60405180910390fd5b6000808681526020019081526020016000206004018054905084106106eb576040517f08c379a00000000000000000000000000000000000000000000000000000000081526004016106e290611587565b60405180910390fd5b600260009054906101000a900473ffffffffffffffffffffffffffffffffffffffff1673ffffffffffffffffffffffffffffffffffffffff166386db5b23876040518263ffffffff1660e01b81526004016107469190611607565b60206040518083038186803b15801561075e57600080fd5b505afa158015610772573d6000803e3d6000fd5b505050506040513d601f19601f8201168201806040525081019061079691906110c9565b60008087815260200190815260200160002060010154146107ec576040517f08c379a00000000000000000000000000000000000000000000000000000000081526004016107e3906115a7565b60405180910390fd5b836000808781526020019081526020016000206003016000888152602001908152602001600020819055506000808681526020019081526020016000206004018481548110610864577f4e487b7100000000000000000000000000000000000000000000000000000000600052603260045260246000fd5b90600052602060002090600302016002016000815480929190610886906118d0565b919050555060008086815260200190815260200160002060050160008154809291906108b1906118d0565b919050555085857f5fe8f1cc066896edbe87bedf2e870c54f6311a7d6668c860949e2e1224a0955e866040516108e79190611607565b60405180910390a3505050505050565b80600154811061093c576040517f08c379a0000000000000000000000000000000000000000000000000000000008152600401610933906115e7565b60405180910390fd5b600080600084815260200190815260200160002060060160006101000a81548160ff021916908315150217905550817f703c67c157a1afb7d386ce5212ee88bf0a690bca998060e9595ebdfd747100ce60405160405180910390a25050565b600060608060606000806000878152602001908152602001600020600101549050600080600088815260200190815260200160002060020180546109de9061189e565b80601f0160208091040260200160405190810160405280929190818152602001828054610a0a9061189e565b8015610a575780601f10610a2c57610100808354040283529160200191610a57565b820191906000526020600020905b815481529060010190602001808311610a3a57829003601f168201915b50505050509050600080600089815260200190815260200160002060040180549050905060008167ffffffffffffffff811115610abd577f4e487b7100000000000000000000000000000000000000000000000000000000600052604160045260246000fd5b604051908082528060200260200182016040528015610af057816020015b6060815260200190600190039081610adb5790505b50905060008267ffffffffffffffff811115610b35577f4e487b7100000000000000000000000000000000000000000000000000000000600052604160045260246000fd5b604051908082528060200260200182016040528015610b635781602001602082028036833780820191505090505b50905060005b83811015610d53576000808c81526020019081526020016000206004018181548110610bbe577f4e487b7100000000000000000000000000000000000000000000000000000000600052603260045260246000fd5b90600052602060002090600302016001018054610bda9061189e565b80601f0160208091040260200160405190810160405280929190818152602001828054610c069061189e565b8015610c535780601f10610c2857610100808354040283529160200191610c53565b820191906000526020600020905b815481529060010190602001808311610c3657829003601f168201915b5050505050838281518110610c91577f4e487b7100000000000000000000000000000000000000000000000000000000600052603260045260246000fd5b60200260200101819052506000808c81526020019081526020016000206004018181548110610ce9577f4e487b7100000000000000000000000000000000000000000000000000000000600052603260045260246000fd5b906000526020600020906003020160020154828281518110610d34577f4e487b7100000000000000000000000000000000000000000000000000000000600052603260045260246000fd5b6020026020010181815250508080610d4b906118d0565b915050610b69565b5084848383985098509850985050505050509193509193565b6000602052806000526040600020600091509050806000015490806001015490806002018054610d9b9061189e565b80601f0160208091040260200160405190810160405280929190818152602001828054610dc79061189e565b8015610e145780601f10610de957610100808354040283529160200191610e14565b820191906000526020600020905b815481529060010190602001808311610df757829003601f168201915b5050505050908060050154908060060160009054906101000a900460ff16905085565b60015481565b60008060008481526020019081526020016000206004018281548110610e8c577f4e487b7100000000000000000000000000000000000000000000000000000000600052603260045260246000fd5b906000526020600020906003020160020154905092915050565b828054610eb29061189e565b90600052602060002090601f016020900481019282610ed45760008555610f1b565b82601f10610eed57805160ff1916838001178555610f1b565b82800160010185558215610f1b579182015b82811115610f1a578251825591602001919060010190610eff565b5b509050610f289190610f2c565b5090565b5b80821115610f45576000816000905550600101610f2d565b5090565b6000610f5c610f5784611707565b6116d6565b9050808382526020820190508260005b85811015610f9c5781358501610f828882611023565b845260208401935060208301925050600181019050610f6c565b5050509392505050565b6000610fb9610fb484611733565b6116d6565b905082815260208101848484011115610fd157600080fd5b610fdc84828561185c565b509392505050565b600082601f830112610ff557600080fd5b8135611005848260208601610f49565b91505092915050565b60008151905061101d816119b7565b92915050565b600082601f83011261103457600080fd5b8135611044848260208601610fa6565b91505092915050565b60008135905061105c816119c7565b92915050565b600081519050611071816119c7565b92915050565b60006020828403121561108957600080fd5b60006110978482850161100e565b91505092915050565b6000602082840312156110b257600080fd5b60006110c08482850161104d565b91505092915050565b6000602082840312156110db57600080fd5b60006110e984828501611062565b91505092915050565b60008060006060848603121561110757600080fd5b60006111158682870161104d565b935050602084013567ffffffffffffffff81111561113257600080fd5b61113e86828701611023565b925050604084013567ffffffffffffffff81111561115b57600080fd5b61116786828701610fe4565b9150509250925092565b6000806040838503121561118457600080fd5b60006111928582860161104d565b92505060206111a38582860161104d565b9150509250929050565b6000806000606084860312156111c257600080fd5b60006111d08682870161104d565b93505060206111e18682870161104d565b92505060406111f28682870161104d565b9150509250925092565b60006112088383611319565b905092915050565b600061121c83836114f1565b60208301905092915050565b600061123382611783565b61123d81856117be565b93508360208202850161124f85611763565b8060005b8581101561128b578484038952815161126c85826111fc565b9450611277836117a4565b925060208a01995050600181019050611253565b50829750879550505050505092915050565b60006112a88261178e565b6112b281856117cf565b93506112bd83611773565b8060005b838110156112ee5781516112d58882611210565b97506112e0836117b1565b9250506001810190506112c1565b5085935050505092915050565b61130481611802565b82525050565b61131381611838565b82525050565b600061132482611799565b61132e81856117e0565b935061133e81856020860161186b565b611347816119a6565b840191505092915050565b600061135d82611799565b61136781856117f1565b935061137781856020860161186b565b611380816119a6565b840191505092915050565b60006113986023836117f1565b91507f4f6e6c7920616374697665207469636b657420686f6c646572732063616e207660008301527f6f746500000000000000000000000000000000000000000000000000000000006020830152604082019050919050565b60006113fe6011836117f1565b91507f496e76616c6964206f7074696f6e2049440000000000000000000000000000006000830152602082019050919050565b600061143e6020836117f1565b91507f5469636b65742073686f756c64206265206f662073616d6520436f6e636572746000830152602082019050919050565b600061147e600e836117f1565b91507f506f6c6c20697320636c6f7365640000000000000000000000000000000000006000830152602082019050919050565b60006114be6014836117f1565b91507f506f6c6c204944206973206e6f742076616c69640000000000000000000000006000830152602082019050919050565b6114fa8161182e565b82525050565b6115098161182e565b82525050565b600060208201905061152460008301846112fb565b92915050565b600060208201905061153f600083018461130a565b92915050565b6000602082019050818103600083015261155f8184611352565b905092915050565b600060208201905081810360008301526115808161138b565b9050919050565b600060208201905081810360008301526115a0816113f1565b9050919050565b600060208201905081810360008301526115c081611431565b9050919050565b600060208201905081810360008301526115e081611471565b9050919050565b60006020820190508181036000830152611600816114b1565b9050919050565b600060208201905061161c6000830184611500565b92915050565b60006080820190506116376000830187611500565b81810360208301526116498186611352565b9050818103604083015261165d8185611228565b90508181036060830152611671818461129d565b905095945050505050565b600060a0820190506116916000830188611500565b61169e6020830187611500565b81810360408301526116b08186611352565b90506116bf6060830185611500565b6116cc60808301846112fb565b9695505050505050565b6000604051905081810181811067ffffffffffffffff821117156116fd576116fc611977565b5b8060405250919050565b600067ffffffffffffffff82111561172257611721611977565b5b602082029050602081019050919050565b600067ffffffffffffffff82111561174e5761174d611977565b5b601f19601f8301169050602081019050919050565b6000819050602082019050919050565b6000819050602082019050919050565b600081519050919050565b600081519050919050565b600081519050919050565b6000602082019050919050565b6000602082019050919050565b600082825260208201905092915050565b600082825260208201905092915050565b600082825260208201905092915050565b600082825260208201905092915050565b60008115159050919050565b600073ffffffffffffffffffffffffffffffffffffffff82169050919050565b6000819050919050565b60006118438261184a565b9050919050565b60006118558261180e565b9050919050565b82818337600083830152505050565b60005b8381101561188957808201518184015260208101905061186e565b83811115611898576000848401525b50505050565b600060028204905060018216806118b657607f821691505b602082108114156118ca576118c9611948565b5b50919050565b60006118db8261182e565b91507fffffffffffffffffffffffffffffffffffffffffffffffffffffffffffffffff82141561190e5761190d611919565b5b600182019050919050565b7f4e487b7100000000000000000000000000000000000000000000000000000000600052601160045260246000fd5b7f4e487b7100000000000000000000000000000000000000000000000000000000600052602260045260246000fd5b7f4e487b7100000000000000000000000000000000000000000000000000000000600052604160045260246000fd5b6000601f19601f8301169050919050565b600381106119c457600080fd5b50565b6119d08161182e565b81146119db57600080fd5b5056fea2646970667358221220cf87c24e8d16342a2cfb2b9207b02749cbbf5ee451f6e48d096a44d7b71776ea64736f6c63430008000033",
  "immutableReferences": {},
  "source": "// SPDX-License-Identifier: MIT\r\npragma solidity ^0.8.0;\r\n\r\nimport \"./Ticket.sol\";\r\n\r\ncontract EventVoting {\r\n    // Structure to represent a poll option\r\n    struct PollOption {\r\n        uint256 optionId;\r\n        string optionText;\r\n        uint256 votes;\r\n    }\r\n\r\n    // Structure to represent a poll\r\n    struct Poll {\r\n        uint256 pollId;\r\n        uint256 concertId; // Added concertId\r\n        string question;\r\n        mapping(uint256 => uint256) ticketVotes; // Mapping of ticketId to selected optionId\r\n        PollOption[] options;\r\n        uint256 totalVotes;\r\n        bool isOpen;\r\n    }\r\n\r\n    mapping(uint256 => Poll) public polls;\r\n    uint256 public pollCounter;\r\n    Ticket public ticketContract;\r\n\r\n    // Mapping to connect concertId to pollId\r\n    mapping(uint256 => uint256) public concertToPoll;\r\n\r\n    event PollCreated(\r\n        uint256 indexed pollId,\r\n        uint256 indexed concertId,\r\n        string question\r\n    );\r\n    event Voted(\r\n        uint256 indexed pollId,\r\n        uint256 indexed ticketId,\r\n        uint256 optionId\r\n    );\r\n    event PollClosed(uint256 indexed pollId);\r\n\r\n    constructor(address _ticketContract) {\r\n        ticketContract = Ticket(_ticketContract);\r\n    }\r\n\r\n    modifier isActiveTicketAndOpenPoll(uint256 _ticketId, uint256 _pollId) {\r\n        require(\r\n            ticketContract.getTicketState(_ticketId) ==\r\n                Ticket.TicketState.Active,\r\n            \"Only active ticket holders can vote\"\r\n        );\r\n        require(polls[_pollId].isOpen, \"Poll is closed\");\r\n        _;\r\n    }\r\n\r\n    modifier isValidPoll(uint256 _pollId) {\r\n        require(_pollId < pollCounter, \"Poll ID is not valid\");\r\n        _;\r\n    }\r\n\r\n    // Function to create a new poll with multiple options\r\n    function createPoll(\r\n        uint256 _concertId,\r\n        string memory _question,\r\n        string[] memory _options\r\n    ) public {\r\n        polls[pollCounter].pollId = pollCounter;\r\n        polls[pollCounter].concertId = _concertId; // Connect poll to concert\r\n        polls[pollCounter].question = _question;\r\n        for (uint256 i = 0; i < _options.length; i++) {\r\n            polls[pollCounter].options.push(\r\n                PollOption({optionId: i, optionText: _options[i], votes: 0})\r\n            );\r\n        }\r\n        polls[pollCounter].isOpen = true;\r\n\r\n        // Connect concertId to pollId\r\n        concertToPoll[_concertId] = pollCounter;\r\n\r\n        emit PollCreated(pollCounter, _concertId, _question);\r\n        pollCounter++;\r\n    }\r\n\r\n    // Function for ticket holders to vote on a poll option\r\n    function vote(\r\n        uint256 _ticketId,\r\n        uint256 _pollId,\r\n        uint256 _optionId\r\n    )\r\n        public\r\n        isValidPoll(_pollId)\r\n        isActiveTicketAndOpenPoll(_ticketId, _pollId)\r\n    {\r\n        require(_optionId < polls[_pollId].options.length, \"Invalid option ID\");\r\n        require(\r\n            polls[_pollId].concertId == ticketContract.getConcertId(_ticketId),\r\n            \"Ticket should be of same Concert\"\r\n        );\r\n\r\n        polls[_pollId].ticketVotes[_ticketId] = _optionId;\r\n        polls[_pollId].options[_optionId].votes++;\r\n        polls[_pollId].totalVotes++;\r\n        emit Voted(_pollId, _ticketId, _optionId);\r\n    }\r\n\r\n    // Function to close a poll\r\n    function closePoll(uint256 _pollId) public isValidPoll(_pollId) {\r\n        polls[_pollId].isOpen = false;\r\n        emit PollClosed(_pollId);\r\n    }\r\n\r\n    // Function to get the number of votes for a specific option in a poll\r\n    function getVotesForOption(\r\n        uint256 _pollId,\r\n        uint256 _optionId\r\n    ) public view returns (uint256) {\r\n        return polls[_pollId].options[_optionId].votes;\r\n    }\r\n\r\n    // Function to check if a poll is open\r\n    function isPollOpen(uint256 _pollId) public view returns (bool) {\r\n        return polls[_pollId].isOpen;\r\n    }\r\n\r\n    // Function to retrieve poll details including options\r\n    function getPollDetails(\r\n        uint256 _pollId\r\n    )\r\n        public\r\n        view\r\n        returns (uint256, string memory, string[] memory, uint256[] memory)\r\n    {\r\n        uint256 concertId = polls[_pollId].concertId; // Retrieve concertId\r\n        string memory question = polls[_pollId].question;\r\n        uint256 optionsCount = polls[_pollId].options.length;\r\n        string[] memory optionsText = new string[](optionsCount);\r\n        uint256[] memory votes = new uint256[](optionsCount);\r\n\r\n        for (uint256 i = 0; i < optionsCount; i++) {\r\n            optionsText[i] = polls[_pollId].options[i].optionText;\r\n            votes[i] = polls[_pollId].options[i].votes;\r\n        }\r\n\r\n        return (concertId, question, optionsText, votes);\r\n    }\r\n}\r\n",
  "sourcePath": "C:\\Users\\tngjo\\OneDrive\\Desktop\\GitHub\\IS4302-Decentralized-Event-Ticketing-System\\contracts\\EventVoting.sol",
  "compiler": {
    "name": "solc",
    "version": "0.8.0+commit.c7dfd78e.Emscripten.clang"
  },
  "schemaVersion": "3.4.16",
  "updatedAt": "2024-04-04T07:03:38.348Z",
  "devdoc": {
    "kind": "dev",
    "methods": {},
    "version": 1
  },
  "userdoc": {
    "kind": "user",
    "methods": {},
    "version": 1
  }
}