{
  "contractName": "FutureConcertPoll",
  "abi": [
    {
      "inputs": [
        {
          "internalType": "contract LoyaltyPoints",
          "name": "_loyaltyPointsContract",
          "type": "address"
        }
      ],
      "stateMutability": "nonpayable",
      "type": "constructor"
    },
    {
      "anonymous": false,
      "inputs": [
        {
          "indexed": false,
          "internalType": "address",
          "name": "voter",
          "type": "address"
        },
        {
          "indexed": false,
          "internalType": "uint256",
          "name": "concertOptionId",
          "type": "uint256"
        },
        {
          "indexed": false,
          "internalType": "uint256",
          "name": "points",
          "type": "uint256"
        }
      ],
      "name": "VoteCasted",
      "type": "event"
    },
    {
      "inputs": [
        {
          "internalType": "uint256",
          "name": "",
          "type": "uint256"
        }
      ],
      "name": "concertVotes",
      "outputs": [
        {
          "internalType": "uint256",
          "name": "",
          "type": "uint256"
        }
      ],
      "stateMutability": "view",
      "type": "function"
    },
    {
      "inputs": [],
      "name": "loyaltyPointsContract",
      "outputs": [
        {
          "internalType": "contract LoyaltyPoints",
          "name": "",
          "type": "address"
        }
      ],
      "stateMutability": "view",
      "type": "function"
    },
    {
      "inputs": [
        {
          "internalType": "address",
          "name": "",
          "type": "address"
        },
        {
          "internalType": "uint256",
          "name": "",
          "type": "uint256"
        }
      ],
      "name": "userVotes",
      "outputs": [
        {
          "internalType": "uint256",
          "name": "",
          "type": "uint256"
        }
      ],
      "stateMutability": "view",
      "type": "function"
    },
    {
      "inputs": [
        {
          "internalType": "uint256",
          "name": "concertOptionId",
          "type": "uint256"
        },
        {
          "internalType": "uint256",
          "name": "points",
          "type": "uint256"
        }
      ],
      "name": "castVote",
      "outputs": [],
      "stateMutability": "nonpayable",
      "type": "function"
    },
    {
      "inputs": [
        {
          "internalType": "uint256",
          "name": "concertOptionId",
          "type": "uint256"
        }
      ],
      "name": "getTotalVotes",
      "outputs": [
        {
          "internalType": "uint256",
          "name": "",
          "type": "uint256"
        }
      ],
      "stateMutability": "view",
      "type": "function"
    },
    {
      "inputs": [
        {
          "internalType": "address",
          "name": "user",
          "type": "address"
        },
        {
          "internalType": "uint256",
          "name": "concertOptionId",
          "type": "uint256"
        }
      ],
      "name": "getUserVotes",
      "outputs": [
        {
          "internalType": "uint256",
          "name": "",
          "type": "uint256"
        }
      ],
      "stateMutability": "view",
      "type": "function"
    }
  ],
  "bytecode": "0x608060405234801561001057600080fd5b506040516109ed3803806109ed8339818101604052810190610032919061008d565b806000806101000a81548173ffffffffffffffffffffffffffffffffffffffff021916908373ffffffffffffffffffffffffffffffffffffffff16021790555050610111565b600081519050610087816100fa565b92915050565b60006020828403121561009f57600080fd5b60006100ad84828501610078565b91505092915050565b60006100c1826100da565b9050919050565b60006100d3826100b6565b9050919050565b600073ffffffffffffffffffffffffffffffffffffffff82169050919050565b610103816100c8565b811461010e57600080fd5b50565b6108cd806101206000396000f3fe608060405234801561001057600080fd5b50600436106100625760003560e01c80630fafe290146100675780632c0a3f89146100855780632c5242a0146100a15780632ce35e11146100d157806377166067146101015780638b3511f714610131575b600080fd5b61006f610161565b60405161007c91906106fd565b60405180910390f35b61009f600480360381019061009a9190610599565b610185565b005b6100bb60048036038101906100b69190610547565b610417565b6040516100c89190610758565b60405180910390f35b6100eb60048036038101906100e69190610547565b61042f565b6040516100f89190610758565b60405180910390f35b61011b6004803603810190610116919061050b565b61044c565b6040516101289190610758565b60405180910390f35b61014b6004803603810190610146919061050b565b6104a7565b6040516101589190610758565b60405180910390f35b60008054906101000a900473ffffffffffffffffffffffffffffffffffffffff1681565b600081116101c8576040517f08c379a00000000000000000000000000000000000000000000000000000000081526004016101bf90610718565b60405180910390fd5b60008060009054906101000a900473ffffffffffffffffffffffffffffffffffffffff1673ffffffffffffffffffffffffffffffffffffffff1663ee204abb336040518263ffffffff1660e01b81526004016102249190610682565b60206040518083038186803b15801561023c57600080fd5b505afa158015610250573d6000803e3d6000fd5b505050506040513d601f19601f820116820180604052508101906102749190610570565b9050818110156102b9576040517f08c379a00000000000000000000000000000000000000000000000000000000081526004016102b090610738565b60405180910390fd5b60008054906101000a900473ffffffffffffffffffffffffffffffffffffffff1673ffffffffffffffffffffffffffffffffffffffff16637867be7533846040518363ffffffff1660e01b815260040161031492919061069d565b600060405180830381600087803b15801561032e57600080fd5b505af1158015610342573d6000803e3d6000fd5b5050505081600260003373ffffffffffffffffffffffffffffffffffffffff1673ffffffffffffffffffffffffffffffffffffffff168152602001908152602001600020600085815260200190815260200160002060008282546103a69190610784565b92505081905550816001600085815260200190815260200160002060008282546103d09190610784565b925050819055507fcb87df07b1c304492bd875a5c8b98672eca500939412809ea229afef1d74518833848460405161040a939291906106c6565b60405180910390a1505050565b60016020528060005260406000206000915090505481565b600060016000838152602001908152602001600020549050919050565b6000600260008473ffffffffffffffffffffffffffffffffffffffff1673ffffffffffffffffffffffffffffffffffffffff168152602001908152602001600020600083815260200190815260200160002054905092915050565b6002602052816000526040600020602052806000526040600020600091509150505481565b6000813590506104db81610869565b92915050565b6000813590506104f081610880565b92915050565b60008151905061050581610880565b92915050565b6000806040838503121561051e57600080fd5b600061052c858286016104cc565b925050602061053d858286016104e1565b9150509250929050565b60006020828403121561055957600080fd5b6000610567848285016104e1565b91505092915050565b60006020828403121561058257600080fd5b6000610590848285016104f6565b91505092915050565b600080604083850312156105ac57600080fd5b60006105ba858286016104e1565b92505060206105cb858286016104e1565b9150509250929050565b6105de816107da565b82525050565b6105ed81610816565b82525050565b6000610600601d83610773565b91507f506f696e7473206d7573742062652067726561746572207468616e20300000006000830152602082019050919050565b6000610640601983610773565b91507f4e6f7420656e6f756768206c6f79616c747920706f696e7473000000000000006000830152602082019050919050565b61067c8161080c565b82525050565b600060208201905061069760008301846105d5565b92915050565b60006040820190506106b260008301856105d5565b6106bf6020830184610673565b9392505050565b60006060820190506106db60008301866105d5565b6106e86020830185610673565b6106f56040830184610673565b949350505050565b600060208201905061071260008301846105e4565b92915050565b60006020820190508181036000830152610731816105f3565b9050919050565b6000602082019050818103600083015261075181610633565b9050919050565b600060208201905061076d6000830184610673565b92915050565b600082825260208201905092915050565b600061078f8261080c565b915061079a8361080c565b9250827fffffffffffffffffffffffffffffffffffffffffffffffffffffffffffffffff038211156107cf576107ce61083a565b5b828201905092915050565b60006107e5826107ec565b9050919050565b600073ffffffffffffffffffffffffffffffffffffffff82169050919050565b6000819050919050565b600061082182610828565b9050919050565b6000610833826107ec565b9050919050565b7f4e487b7100000000000000000000000000000000000000000000000000000000600052601160045260246000fd5b610872816107da565b811461087d57600080fd5b50565b6108898161080c565b811461089457600080fd5b5056fea2646970667358221220cbe898532f6faf18af82f4c7965e6504c6a5c2f612c7a5807cf047e0e61d6e9964736f6c63430008000033",
  "immutableReferences": {},
  "source": "// SPDX-License-Identifier: MIT\r\npragma solidity ^0.8.0;\r\n\r\nimport \"./LoyaltyPoints.sol\";\r\n\r\n//Allowed to vote for the future artists/concerts\r\n//Takes in loyalty points and allow them to decide how many loyalty points they want to use\r\n\r\ncontract FutureConcertPoll {\r\n    LoyaltyPoints public loyaltyPointsContract;\r\n\r\n    // Mapping of concert option IDs to their vote counts\r\n    mapping(uint256 => uint256) public concertVotes;\r\n\r\n    // Mapping of user votes (user address => (concert option ID => points spent))\r\n    mapping(address => mapping(uint256 => uint256)) public userVotes;\r\n\r\n    event VoteCasted(address voter, uint256 concertOptionId, uint256 points);\r\n\r\n    constructor(LoyaltyPoints _loyaltyPointsContract) {\r\n        loyaltyPointsContract = _loyaltyPointsContract;\r\n    }\r\n\r\n    // Function for users to cast votes\r\n    function castVote(uint256 concertOptionId, uint256 points) external {\r\n        require(points > 0, \"Points must be greater than 0\");\r\n        // Ensure the user has enough loyalty points to cast this vote\r\n        uint256 userPoints = loyaltyPointsContract.getPoints(msg.sender);\r\n        require(userPoints >= points, \"Not enough loyalty points\");\r\n\r\n        // Deduct points from the user's loyalty points balance\r\n        loyaltyPointsContract.subtractLoyaltyPoints(msg.sender, points);\r\n\r\n        // Record the user's vote\r\n        userVotes[msg.sender][concertOptionId] += points;\r\n        concertVotes[concertOptionId] += points;\r\n\r\n        emit VoteCasted(msg.sender, concertOptionId, points);\r\n    }\r\n\r\n    // Function to check the total votes for a concert option\r\n    function getTotalVotes(uint256 concertOptionId) public view returns (uint256) {\r\n        return concertVotes[concertOptionId];\r\n    }\r\n\r\n    // Function to check the votes casted by a user for a concert option\r\n    function getUserVotes(address user, uint256 concertOptionId) public view returns (uint256) {\r\n        return userVotes[user][concertOptionId];\r\n    }\r\n}\r\n",
  "sourcePath": "C:\\Users\\tngjo\\OneDrive\\Desktop\\GitHub\\IS4302-Decentralized-Event-Ticketing-System\\contracts\\FutureConcertPoll.sol",
  "compiler": {
    "name": "solc",
    "version": "0.8.0+commit.c7dfd78e.Emscripten.clang"
  },
  "schemaVersion": "3.4.16",
  "updatedAt": "2024-04-04T11:57:30.988Z",
  "devdoc": {
    "kind": "dev",
    "methods": {},
    "version": 1
  },
  "userdoc": {
    "kind": "user",
    "methods": {},
    "version": 1
  }
}