{
  "contractName": "LoyaltyPoints",
  "abi": [
    {
      "inputs": [],
      "stateMutability": "nonpayable",
      "type": "constructor"
    },
    {
      "anonymous": false,
      "inputs": [
        {
          "indexed": true,
          "internalType": "address",
          "name": "user",
          "type": "address"
        },
        {
          "indexed": false,
          "internalType": "uint256",
          "name": "points",
          "type": "uint256"
        }
      ],
      "name": "LoyaltyPointsAdded",
      "type": "event"
    },
    {
      "anonymous": false,
      "inputs": [
        {
          "indexed": true,
          "internalType": "address",
          "name": "user",
          "type": "address"
        },
        {
          "indexed": false,
          "internalType": "uint256",
          "name": "points",
          "type": "uint256"
        }
      ],
      "name": "LoyaltyPointsSet",
      "type": "event"
    },
    {
      "anonymous": false,
      "inputs": [
        {
          "indexed": true,
          "internalType": "address",
          "name": "user",
          "type": "address"
        },
        {
          "indexed": false,
          "internalType": "uint256",
          "name": "points",
          "type": "uint256"
        }
      ],
      "name": "LoyaltyPointsSubtracted",
      "type": "event"
    },
    {
      "inputs": [],
      "name": "futureConcertPollAddress",
      "outputs": [
        {
          "internalType": "address",
          "name": "",
          "type": "address"
        }
      ],
      "stateMutability": "view",
      "type": "function"
    },
    {
      "inputs": [
        {
          "internalType": "address",
          "name": "",
          "type": "address"
        }
      ],
      "name": "lpBalances",
      "outputs": [
        {
          "internalType": "uint256",
          "name": "",
          "type": "uint256"
        }
      ],
      "stateMutability": "view",
      "type": "function"
    },
    {
      "inputs": [],
      "name": "presaleMarketAddress",
      "outputs": [
        {
          "internalType": "address",
          "name": "",
          "type": "address"
        }
      ],
      "stateMutability": "view",
      "type": "function"
    },
    {
      "inputs": [],
      "name": "ticketMarketAddress",
      "outputs": [
        {
          "internalType": "address",
          "name": "",
          "type": "address"
        }
      ],
      "stateMutability": "view",
      "type": "function"
    },
    {
      "inputs": [
        {
          "internalType": "address",
          "name": "_presaleMarketAddress",
          "type": "address"
        }
      ],
      "name": "setPresaleMarketAddress",
      "outputs": [],
      "stateMutability": "nonpayable",
      "type": "function"
    },
    {
      "inputs": [
        {
          "internalType": "address",
          "name": "_ticketMarketAddress",
          "type": "address"
        }
      ],
      "name": "setTicketMarketAddress",
      "outputs": [],
      "stateMutability": "nonpayable",
      "type": "function"
    },
    {
      "inputs": [
        {
          "internalType": "address",
          "name": "_futureConcertPollAddress",
          "type": "address"
        }
      ],
      "name": "setFutureConcertPollAddress",
      "outputs": [],
      "stateMutability": "nonpayable",
      "type": "function"
    },
    {
      "inputs": [
        {
          "internalType": "address",
          "name": "user",
          "type": "address"
        },
        {
          "internalType": "uint256",
          "name": "points",
          "type": "uint256"
        }
      ],
      "name": "addLoyaltyPoints",
      "outputs": [],
      "stateMutability": "nonpayable",
      "type": "function"
    },
    {
      "inputs": [
        {
          "internalType": "address",
          "name": "user",
          "type": "address"
        },
        {
          "internalType": "uint256",
          "name": "points",
          "type": "uint256"
        }
      ],
      "name": "subtractLoyaltyPoints",
      "outputs": [],
      "stateMutability": "nonpayable",
      "type": "function"
    },
    {
      "inputs": [
        {
          "internalType": "address",
          "name": "user",
          "type": "address"
        },
        {
          "internalType": "uint256",
          "name": "points",
          "type": "uint256"
        }
      ],
      "name": "setPoints",
      "outputs": [],
      "stateMutability": "nonpayable",
      "type": "function"
    },
    {
      "inputs": [
        {
          "internalType": "address",
          "name": "user",
          "type": "address"
        }
      ],
      "name": "getPoints",
      "outputs": [
        {
          "internalType": "uint256",
          "name": "",
          "type": "uint256"
        }
      ],
      "stateMutability": "view",
      "type": "function"
    }
  ],
  "bytecode": "0x608060405234801561001057600080fd5b5033600160006101000a81548173ffffffffffffffffffffffffffffffffffffffff021916908373ffffffffffffffffffffffffffffffffffffffff160217905550610f15806100616000396000f3fe608060405234801561001057600080fd5b50600436106100a95760003560e01c80637867be75116100715780637867be7514610154578063cb8aaae314610170578063e78622f01461018c578063ee204abb146101a8578063f7f37850146101d8578063fe18a430146101f4576100a9565b80630b65092d146100ae5780631143e6c7146100de5780633bc007a8146100fc57806342f00dbf146101185780635b73c13114610136575b600080fd5b6100c860048036038101906100c39190610bac565b610210565b6040516100d59190610d90565b60405180910390f35b6100e6610228565b6040516100f39190610d15565b60405180910390f35b61011660048036038101906101119190610bd5565b61024e565b005b610120610373565b60405161012d9190610d15565b60405180910390f35b61013e610399565b60405161014b9190610d15565b60405180910390f35b61016e60048036038101906101699190610bd5565b6103bf565b005b61018a60048036038101906101859190610bac565b61067f565b005b6101a660048036038101906101a19190610bd5565b610753565b005b6101c260048036038101906101bd9190610bac565b610992565b6040516101cf9190610d90565b60405180910390f35b6101f260048036038101906101ed9190610bac565b6109da565b005b61020e60048036038101906102099190610bac565b610aae565b005b60006020528060005260406000206000915090505481565b600460009054906101000a900473ffffffffffffffffffffffffffffffffffffffff1681565b600160009054906101000a900473ffffffffffffffffffffffffffffffffffffffff1673ffffffffffffffffffffffffffffffffffffffff163373ffffffffffffffffffffffffffffffffffffffff16146102de576040517f08c379a00000000000000000000000000000000000000000000000000000000081526004016102d590610d70565b60405180910390fd5b806000808473ffffffffffffffffffffffffffffffffffffffff1673ffffffffffffffffffffffffffffffffffffffff168152602001908152602001600020819055508173ffffffffffffffffffffffffffffffffffffffff167f8756e7a2d6fe0cf5c6ff1a991b464a6e2ce8eeae29785f0d0a2217d68fe1d628826040516103679190610d90565b60405180910390a25050565b600360009054906101000a900473ffffffffffffffffffffffffffffffffffffffff1681565b600260009054906101000a900473ffffffffffffffffffffffffffffffffffffffff1681565b600160009054906101000a900473ffffffffffffffffffffffffffffffffffffffff1673ffffffffffffffffffffffffffffffffffffffff163373ffffffffffffffffffffffffffffffffffffffff1614806104685750600260009054906101000a900473ffffffffffffffffffffffffffffffffffffffff1673ffffffffffffffffffffffffffffffffffffffff163373ffffffffffffffffffffffffffffffffffffffff16145b806104c05750600360009054906101000a900473ffffffffffffffffffffffffffffffffffffffff1673ffffffffffffffffffffffffffffffffffffffff163373ffffffffffffffffffffffffffffffffffffffff16145b806105185750600460009054906101000a900473ffffffffffffffffffffffffffffffffffffffff1673ffffffffffffffffffffffffffffffffffffffff163373ffffffffffffffffffffffffffffffffffffffff16145b610557576040517f08c379a000000000000000000000000000000000000000000000000000000000815260040161054e90610d30565b60405180910390fd5b806000808473ffffffffffffffffffffffffffffffffffffffff1673ffffffffffffffffffffffffffffffffffffffff1681526020019081526020016000205410156105d8576040517f08c379a00000000000000000000000000000000000000000000000000000000081526004016105cf90610d50565b60405180910390fd5b806000808473ffffffffffffffffffffffffffffffffffffffff1673ffffffffffffffffffffffffffffffffffffffff16815260200190815260200160002060008282546106269190610e12565b925050819055508173ffffffffffffffffffffffffffffffffffffffff167fb76f40d10bbc436817730ef0dfae2ab17f73d375ef785b5080198967ed3614f9826040516106739190610d90565b60405180910390a25050565b600160009054906101000a900473ffffffffffffffffffffffffffffffffffffffff1673ffffffffffffffffffffffffffffffffffffffff163373ffffffffffffffffffffffffffffffffffffffff161461070f576040517f08c379a000000000000000000000000000000000000000000000000000000000815260040161070690610d70565b60405180910390fd5b80600460006101000a81548173ffffffffffffffffffffffffffffffffffffffff021916908373ffffffffffffffffffffffffffffffffffffffff16021790555050565b600160009054906101000a900473ffffffffffffffffffffffffffffffffffffffff1673ffffffffffffffffffffffffffffffffffffffff163373ffffffffffffffffffffffffffffffffffffffff1614806107fc5750600260009054906101000a900473ffffffffffffffffffffffffffffffffffffffff1673ffffffffffffffffffffffffffffffffffffffff163373ffffffffffffffffffffffffffffffffffffffff16145b806108545750600360009054906101000a900473ffffffffffffffffffffffffffffffffffffffff1673ffffffffffffffffffffffffffffffffffffffff163373ffffffffffffffffffffffffffffffffffffffff16145b806108ac5750600460009054906101000a900473ffffffffffffffffffffffffffffffffffffffff1673ffffffffffffffffffffffffffffffffffffffff163373ffffffffffffffffffffffffffffffffffffffff16145b6108eb576040517f08c379a00000000000000000000000000000000000000000000000000000000081526004016108e290610d30565b60405180910390fd5b806000808473ffffffffffffffffffffffffffffffffffffffff1673ffffffffffffffffffffffffffffffffffffffff16815260200190815260200160002060008282546109399190610dbc565b925050819055508173ffffffffffffffffffffffffffffffffffffffff167fb2a023484df80a89f6add7acfba71534e4f54c5854289a005605693fc7c81e6b826040516109869190610d90565b60405180910390a25050565b60008060008373ffffffffffffffffffffffffffffffffffffffff1673ffffffffffffffffffffffffffffffffffffffff168152602001908152602001600020549050919050565b600160009054906101000a900473ffffffffffffffffffffffffffffffffffffffff1673ffffffffffffffffffffffffffffffffffffffff163373ffffffffffffffffffffffffffffffffffffffff1614610a6a576040517f08c379a0000000000000000000000000000000000000000000000000000000008152600401610a6190610d70565b60405180910390fd5b80600360006101000a81548173ffffffffffffffffffffffffffffffffffffffff021916908373ffffffffffffffffffffffffffffffffffffffff16021790555050565b600160009054906101000a900473ffffffffffffffffffffffffffffffffffffffff1673ffffffffffffffffffffffffffffffffffffffff163373ffffffffffffffffffffffffffffffffffffffff1614610b3e576040517f08c379a0000000000000000000000000000000000000000000000000000000008152600401610b3590610d70565b60405180910390fd5b80600260006101000a81548173ffffffffffffffffffffffffffffffffffffffff021916908373ffffffffffffffffffffffffffffffffffffffff16021790555050565b600081359050610b9181610eb1565b92915050565b600081359050610ba681610ec8565b92915050565b600060208284031215610bbe57600080fd5b6000610bcc84828501610b82565b91505092915050565b60008060408385031215610be857600080fd5b6000610bf685828601610b82565b9250506020610c0785828601610b97565b9150509250929050565b610c1a81610e46565b82525050565b6000610c2d600c83610dab565b91507f556e617574686f72697a656400000000000000000000000000000000000000006000830152602082019050919050565b6000610c6d601583610dab565b91507f496e73756666696369656e742062616c616e63652e00000000000000000000006000830152602082019050919050565b6000610cad602683610dab565b91507f4f6e6c792074686520636f6e7472616374206f776e65722063616e2063616c6c60008301527f20746869732e00000000000000000000000000000000000000000000000000006020830152604082019050919050565b610d0f81610e78565b82525050565b6000602082019050610d2a6000830184610c11565b92915050565b60006020820190508181036000830152610d4981610c20565b9050919050565b60006020820190508181036000830152610d6981610c60565b9050919050565b60006020820190508181036000830152610d8981610ca0565b9050919050565b6000602082019050610da56000830184610d06565b92915050565b600082825260208201905092915050565b6000610dc782610e78565b9150610dd283610e78565b9250827fffffffffffffffffffffffffffffffffffffffffffffffffffffffffffffffff03821115610e0757610e06610e82565b5b828201905092915050565b6000610e1d82610e78565b9150610e2883610e78565b925082821015610e3b57610e3a610e82565b5b828203905092915050565b6000610e5182610e58565b9050919050565b600073ffffffffffffffffffffffffffffffffffffffff82169050919050565b6000819050919050565b7f4e487b7100000000000000000000000000000000000000000000000000000000600052601160045260246000fd5b610eba81610e46565b8114610ec557600080fd5b50565b610ed181610e78565b8114610edc57600080fd5b5056fea264697066735822122003492581dc92c87988f3c68243392ffa2e8d399212b119be2f2ae5234f2c205964736f6c63430008000033",
  "immutableReferences": {},
  "source": "// SPDX-License-Identifier: MIT\r\npragma solidity ^0.8.0;\r\n\r\ncontract LoyaltyPoints {\r\n    mapping(address => uint256) public lpBalances;\r\n\r\n    address owner;\r\n    address public presaleMarketAddress; // Allow presaleMartet to be an authorised caller\r\n    address public ticketMarketAddress; // Allow ticketMarket to be an authorised caller\r\n    address public futureConcertPollAddress; // Allow futureConcertPoll to be an authorised caller\r\n\r\n    event LoyaltyPointsAdded(address indexed user, uint256 points);\r\n    event LoyaltyPointsSubtracted(address indexed user, uint256 points);\r\n    event LoyaltyPointsSet(address indexed user, uint256 points);\r\n\r\n    modifier onlyOwner() {\r\n        require(msg.sender == owner, \"Only the contract owner can call this.\");\r\n        _;\r\n    }\r\n\r\n    modifier onlyAuthorisedCallers() {\r\n        //the Authroised callers include\r\n        //the owner, presaleMarketAddress, ticketMarketAddress and futureConcertPollAddress\r\n        require(\r\n            msg.sender == owner ||\r\n                msg.sender == presaleMarketAddress ||\r\n                msg.sender == ticketMarketAddress ||\r\n                msg.sender == futureConcertPollAddress,\r\n            \"Unauthorized\"\r\n        );\r\n        _;\r\n    }\r\n\r\n    constructor() {\r\n        owner = msg.sender;\r\n    }\r\n\r\n    function setPresaleMarketAddress(\r\n        address _presaleMarketAddress\r\n    ) external onlyOwner {\r\n        presaleMarketAddress = _presaleMarketAddress;\r\n    }\r\n\r\n    function setTicketMarketAddress(\r\n        address _ticketMarketAddress\r\n    ) external onlyOwner {\r\n        ticketMarketAddress = _ticketMarketAddress;\r\n    }\r\n\r\n    function setFutureConcertPollAddress(\r\n        address _futureConcertPollAddress\r\n    ) external onlyOwner {\r\n        futureConcertPollAddress = _futureConcertPollAddress;\r\n    }\r\n\r\n    function addLoyaltyPoints(\r\n        address user,\r\n        uint256 points\r\n    ) public onlyAuthorisedCallers {\r\n        lpBalances[user] += points;\r\n        emit LoyaltyPointsAdded(user, points);\r\n    }\r\n\r\n    function subtractLoyaltyPoints(\r\n        address user,\r\n        uint256 points\r\n    ) public onlyAuthorisedCallers {\r\n        require(lpBalances[user] >= points, \"Insufficient balance.\");\r\n        lpBalances[user] -= points;\r\n        emit LoyaltyPointsSubtracted(user, points);\r\n    }\r\n\r\n    // Other loyalty points management functions as needed\r\n\r\n    // Getter functions\r\n\r\n    function setPoints(address user, uint256 points) public onlyOwner {\r\n        lpBalances[user] = points;\r\n        emit LoyaltyPointsSet(user, points);\r\n    }\r\n    function getPoints(address user) public view returns (uint256) {\r\n        return lpBalances[user];\r\n    }\r\n}\r\n",
  "sourcePath": "C:\\Users\\tngjo\\OneDrive\\Desktop\\GitHub\\IS4302-Decentralized-Event-Ticketing-System\\contracts\\LoyaltyPoints.sol",
  "compiler": {
    "name": "solc",
    "version": "0.8.0+commit.c7dfd78e.Emscripten.clang"
  },
  "schemaVersion": "3.4.16",
  "updatedAt": "2024-04-04T11:57:30.995Z",
  "devdoc": {
    "kind": "dev",
    "methods": {},
    "version": 1
  },
  "userdoc": {
    "kind": "user",
    "methods": {},
    "version": 1
  }
}