{
  "contractName": "LoyaltyPoints",
  "abi": [
    {
      "inputs": [],
      "stateMutability": "nonpayable",
      "type": "constructor"
    },
    {
      "anonymous": false,
      "inputs": [
        {
          "indexed": true,
          "internalType": "address",
          "name": "user",
          "type": "address"
        },
        {
          "indexed": false,
          "internalType": "uint256",
          "name": "points",
          "type": "uint256"
        }
      ],
      "name": "LoyaltyPointsAdded",
      "type": "event"
    },
    {
      "anonymous": false,
      "inputs": [
        {
          "indexed": true,
          "internalType": "address",
          "name": "user",
          "type": "address"
        },
        {
          "indexed": false,
          "internalType": "uint256",
          "name": "points",
          "type": "uint256"
        }
      ],
      "name": "LoyaltyPointsSet",
      "type": "event"
    },
    {
      "anonymous": false,
      "inputs": [
        {
          "indexed": true,
          "internalType": "address",
          "name": "user",
          "type": "address"
        },
        {
          "indexed": false,
          "internalType": "uint256",
          "name": "points",
          "type": "uint256"
        }
      ],
      "name": "LoyaltyPointsSubtracted",
      "type": "event"
    },
    {
      "inputs": [
        {
          "internalType": "address",
          "name": "",
          "type": "address"
        }
      ],
      "name": "lpBalances",
      "outputs": [
        {
          "internalType": "uint256",
          "name": "",
          "type": "uint256"
        }
      ],
      "stateMutability": "view",
      "type": "function"
    },
    {
      "inputs": [],
      "name": "presaleMarketAddress",
      "outputs": [
        {
          "internalType": "address",
          "name": "",
          "type": "address"
        }
      ],
      "stateMutability": "view",
      "type": "function"
    },
    {
      "inputs": [
        {
          "internalType": "address",
          "name": "_presaleMarketAddress",
          "type": "address"
        }
      ],
      "name": "setPresaleMarketAddress",
      "outputs": [],
      "stateMutability": "nonpayable",
      "type": "function"
    },
    {
      "inputs": [
        {
          "internalType": "address",
          "name": "user",
          "type": "address"
        },
        {
          "internalType": "uint256",
          "name": "points",
          "type": "uint256"
        }
      ],
      "name": "addLoyaltyPoints",
      "outputs": [],
      "stateMutability": "nonpayable",
      "type": "function"
    },
    {
      "inputs": [
        {
          "internalType": "address",
          "name": "user",
          "type": "address"
        },
        {
          "internalType": "uint256",
          "name": "points",
          "type": "uint256"
        }
      ],
      "name": "subtractLoyaltyPoints",
      "outputs": [],
      "stateMutability": "nonpayable",
      "type": "function"
    },
    {
      "inputs": [
        {
          "internalType": "address",
          "name": "user",
          "type": "address"
        },
        {
          "internalType": "uint256",
          "name": "points",
          "type": "uint256"
        }
      ],
      "name": "setPoints",
      "outputs": [],
      "stateMutability": "nonpayable",
      "type": "function"
    },
    {
      "inputs": [
        {
          "internalType": "address",
          "name": "user",
          "type": "address"
        }
      ],
      "name": "getPoints",
      "outputs": [
        {
          "internalType": "uint256",
          "name": "",
          "type": "uint256"
        }
      ],
      "stateMutability": "view",
      "type": "function"
    }
  ],
  "bytecode": "0x608060405234801561001057600080fd5b5033600160006101000a81548173ffffffffffffffffffffffffffffffffffffffff021916908373ffffffffffffffffffffffffffffffffffffffff160217905550610ac9806100616000396000f3fe608060405234801561001057600080fd5b506004361061007d5760003560e01c80637867be751161005b5780637867be75146100ec578063e78622f014610108578063ee204abb14610124578063fe18a430146101545761007d565b80630b65092d146100825780633bc007a8146100b25780635b73c131146100ce575b600080fd5b61009c60048036038101906100979190610760565b610170565b6040516100a99190610944565b60405180910390f35b6100cc60048036038101906100c79190610789565b610188565b005b6100d66102ad565b6040516100e391906108c9565b60405180910390f35b61010660048036038101906101019190610789565b6102d3565b005b610122600480360381019061011d9190610789565b61048b565b005b61013e60048036038101906101399190610760565b61061a565b60405161014b9190610944565b60405180910390f35b61016e60048036038101906101699190610760565b610662565b005b60006020528060005260406000206000915090505481565b600160009054906101000a900473ffffffffffffffffffffffffffffffffffffffff1673ffffffffffffffffffffffffffffffffffffffff163373ffffffffffffffffffffffffffffffffffffffff1614610218576040517f08c379a000000000000000000000000000000000000000000000000000000000815260040161020f90610924565b60405180910390fd5b806000808473ffffffffffffffffffffffffffffffffffffffff1673ffffffffffffffffffffffffffffffffffffffff168152602001908152602001600020819055508173ffffffffffffffffffffffffffffffffffffffff167f8756e7a2d6fe0cf5c6ff1a991b464a6e2ce8eeae29785f0d0a2217d68fe1d628826040516102a19190610944565b60405180910390a25050565b600260009054906101000a900473ffffffffffffffffffffffffffffffffffffffff1681565b600160009054906101000a900473ffffffffffffffffffffffffffffffffffffffff1673ffffffffffffffffffffffffffffffffffffffff163373ffffffffffffffffffffffffffffffffffffffff1614610363576040517f08c379a000000000000000000000000000000000000000000000000000000000815260040161035a90610924565b60405180910390fd5b806000808473ffffffffffffffffffffffffffffffffffffffff1673ffffffffffffffffffffffffffffffffffffffff1681526020019081526020016000205410156103e4576040517f08c379a00000000000000000000000000000000000000000000000000000000081526004016103db90610904565b60405180910390fd5b806000808473ffffffffffffffffffffffffffffffffffffffff1673ffffffffffffffffffffffffffffffffffffffff168152602001908152602001600020600082825461043291906109c6565b925050819055508173ffffffffffffffffffffffffffffffffffffffff167fb76f40d10bbc436817730ef0dfae2ab17f73d375ef785b5080198967ed3614f98260405161047f9190610944565b60405180910390a25050565b600160009054906101000a900473ffffffffffffffffffffffffffffffffffffffff1673ffffffffffffffffffffffffffffffffffffffff163373ffffffffffffffffffffffffffffffffffffffff1614806105345750600260009054906101000a900473ffffffffffffffffffffffffffffffffffffffff1673ffffffffffffffffffffffffffffffffffffffff163373ffffffffffffffffffffffffffffffffffffffff16145b610573576040517f08c379a000000000000000000000000000000000000000000000000000000000815260040161056a906108e4565b60405180910390fd5b806000808473ffffffffffffffffffffffffffffffffffffffff1673ffffffffffffffffffffffffffffffffffffffff16815260200190815260200160002060008282546105c19190610970565b925050819055508173ffffffffffffffffffffffffffffffffffffffff167fb2a023484df80a89f6add7acfba71534e4f54c5854289a005605693fc7c81e6b8260405161060e9190610944565b60405180910390a25050565b60008060008373ffffffffffffffffffffffffffffffffffffffff1673ffffffffffffffffffffffffffffffffffffffff168152602001908152602001600020549050919050565b600160009054906101000a900473ffffffffffffffffffffffffffffffffffffffff1673ffffffffffffffffffffffffffffffffffffffff163373ffffffffffffffffffffffffffffffffffffffff16146106f2576040517f08c379a00000000000000000000000000000000000000000000000000000000081526004016106e990610924565b60405180910390fd5b80600260006101000a81548173ffffffffffffffffffffffffffffffffffffffff021916908373ffffffffffffffffffffffffffffffffffffffff16021790555050565b60008135905061074581610a65565b92915050565b60008135905061075a81610a7c565b92915050565b60006020828403121561077257600080fd5b600061078084828501610736565b91505092915050565b6000806040838503121561079c57600080fd5b60006107aa85828601610736565b92505060206107bb8582860161074b565b9150509250929050565b6107ce816109fa565b82525050565b60006107e1600c8361095f565b91507f556e617574686f72697a656400000000000000000000000000000000000000006000830152602082019050919050565b600061082160158361095f565b91507f496e73756666696369656e742062616c616e63652e00000000000000000000006000830152602082019050919050565b600061086160268361095f565b91507f4f6e6c792074686520636f6e7472616374206f776e65722063616e2063616c6c60008301527f20746869732e00000000000000000000000000000000000000000000000000006020830152604082019050919050565b6108c381610a2c565b82525050565b60006020820190506108de60008301846107c5565b92915050565b600060208201905081810360008301526108fd816107d4565b9050919050565b6000602082019050818103600083015261091d81610814565b9050919050565b6000602082019050818103600083015261093d81610854565b9050919050565b600060208201905061095960008301846108ba565b92915050565b600082825260208201905092915050565b600061097b82610a2c565b915061098683610a2c565b9250827fffffffffffffffffffffffffffffffffffffffffffffffffffffffffffffffff038211156109bb576109ba610a36565b5b828201905092915050565b60006109d182610a2c565b91506109dc83610a2c565b9250828210156109ef576109ee610a36565b5b828203905092915050565b6000610a0582610a0c565b9050919050565b600073ffffffffffffffffffffffffffffffffffffffff82169050919050565b6000819050919050565b7f4e487b7100000000000000000000000000000000000000000000000000000000600052601160045260246000fd5b610a6e816109fa565b8114610a7957600080fd5b50565b610a8581610a2c565b8114610a9057600080fd5b5056fea26469706673582212201633bcea747f8604a93588ef698e814e69918f3786dd4685ce877d6dd2d606f264736f6c63430008000033",
  "immutableReferences": {},
  "source": "// SPDX-License-Identifier: MIT\r\npragma solidity ^0.8.0;\r\n\r\ncontract LoyaltyPoints {\r\n    mapping(address => uint256) public lpBalances;\r\n\r\n    address owner;\r\n    address public presaleMarketAddress; // Allow presaleMartet to be an authorised caller\r\n\r\n    event LoyaltyPointsAdded(address indexed user, uint256 points);\r\n    event LoyaltyPointsSubtracted(address indexed user, uint256 points);\r\n    event LoyaltyPointsSet(address indexed user, uint256 points);\r\n\r\n    modifier onlyOwner() {\r\n        require(msg.sender == owner, \"Only the contract owner can call this.\");\r\n        _;\r\n    }\r\n\r\n    modifier onlyPresaleMarketOrOwner() {\r\n        require(\r\n            msg.sender == owner || msg.sender == presaleMarketAddress,\r\n            \"Unauthorized\"\r\n        );\r\n        _;\r\n    }\r\n\r\n    constructor() {\r\n        owner = msg.sender;\r\n    }\r\n\r\n    function setPresaleMarketAddress(\r\n        address _presaleMarketAddress\r\n    ) external onlyOwner {\r\n        presaleMarketAddress = _presaleMarketAddress;\r\n    }\r\n\r\n    function addLoyaltyPoints(address user, uint256 points) public onlyPresaleMarketOrOwner  {\r\n        lpBalances[user] += points;\r\n        emit LoyaltyPointsAdded(user, points);\r\n    }\r\n\r\n    function subtractLoyaltyPoints(\r\n        address user,\r\n        uint256 points\r\n    ) public onlyOwner {\r\n        require(lpBalances[user] >= points, \"Insufficient balance.\");\r\n        lpBalances[user] -= points;\r\n        emit LoyaltyPointsSubtracted(user, points);\r\n    }\r\n\r\n    // Other loyalty points management functions as needed\r\n\r\n    //getter functions\r\n\r\n    function setPoints(address user, uint256 points) public onlyOwner {\r\n        lpBalances[user] = points;\r\n        emit LoyaltyPointsSet(user, points);\r\n    }\r\n    function getPoints(address user) public view returns (uint256) {\r\n        return lpBalances[user];\r\n    }\r\n}\r\n",
  "sourcePath": "C:\\Users\\tngjo\\OneDrive\\Desktop\\GitHub\\IS4302-Decentralized-Event-Ticketing-System\\contracts\\LoyaltyPoints.sol",
  "compiler": {
    "name": "solc",
    "version": "0.8.0+commit.c7dfd78e.Emscripten.clang"
  },
  "schemaVersion": "3.4.16",
  "updatedAt": "2024-04-04T07:03:38.360Z",
  "devdoc": {
    "kind": "dev",
    "methods": {},
    "version": 1
  },
  "userdoc": {
    "kind": "user",
    "methods": {},
    "version": 1
  }
}