{
  "contractName": "LoyaltyPoints",
  "abi": [
    {
      "inputs": [],
      "stateMutability": "nonpayable",
      "type": "constructor"
    },
    {
      "anonymous": false,
      "inputs": [
        {
          "indexed": true,
          "internalType": "address",
          "name": "user",
          "type": "address"
        },
        {
          "indexed": false,
          "internalType": "uint256",
          "name": "points",
          "type": "uint256"
        }
      ],
      "name": "LoyaltyPointsAdded",
      "type": "event"
    },
    {
      "anonymous": false,
      "inputs": [
        {
          "indexed": true,
          "internalType": "address",
          "name": "user",
          "type": "address"
        },
        {
          "indexed": false,
          "internalType": "uint256",
          "name": "points",
          "type": "uint256"
        }
      ],
      "name": "LoyaltyPointsSubtracted",
      "type": "event"
    },
    {
      "inputs": [
        {
          "internalType": "address",
          "name": "",
          "type": "address"
        }
      ],
      "name": "lpBalances",
      "outputs": [
        {
          "internalType": "uint256",
          "name": "",
          "type": "uint256"
        }
      ],
      "stateMutability": "view",
      "type": "function",
      "constant": true
    },
    {
      "inputs": [
        {
          "internalType": "address",
          "name": "user",
          "type": "address"
        },
        {
          "internalType": "uint256",
          "name": "points",
          "type": "uint256"
        }
      ],
      "name": "addLoyaltyPoints",
      "outputs": [],
      "stateMutability": "nonpayable",
      "type": "function"
    },
    {
      "inputs": [
        {
          "internalType": "address",
          "name": "user",
          "type": "address"
        },
        {
          "internalType": "uint256",
          "name": "points",
          "type": "uint256"
        }
      ],
      "name": "subtractLoyaltyPoints",
      "outputs": [],
      "stateMutability": "nonpayable",
      "type": "function"
    }
  ],
  "bytecode": "0x608060405234801561001057600080fd5b5033600160006101000a81548173ffffffffffffffffffffffffffffffffffffffff021916908373ffffffffffffffffffffffffffffffffffffffff1602179055506106be806100616000396000f3fe608060405234801561001057600080fd5b50600436106100415760003560e01c80630b65092d146100465780637867be7514610076578063e78622f014610092575b600080fd5b610060600480360381019061005b91906103df565b6100ae565b60405161006d9190610539565b60405180910390f35b610090600480360381019061008b9190610408565b6100c6565b005b6100ac60048036038101906100a79190610408565b61027e565b005b60006020528060005260406000206000915090505481565b600160009054906101000a900473ffffffffffffffffffffffffffffffffffffffff1673ffffffffffffffffffffffffffffffffffffffff163373ffffffffffffffffffffffffffffffffffffffff1614610156576040517f08c379a000000000000000000000000000000000000000000000000000000000815260040161014d90610519565b60405180910390fd5b806000808473ffffffffffffffffffffffffffffffffffffffff1673ffffffffffffffffffffffffffffffffffffffff1681526020019081526020016000205410156101d7576040517f08c379a00000000000000000000000000000000000000000000000000000000081526004016101ce906104f9565b60405180910390fd5b806000808473ffffffffffffffffffffffffffffffffffffffff1673ffffffffffffffffffffffffffffffffffffffff168152602001908152602001600020600082825461022591906105bb565b925050819055508173ffffffffffffffffffffffffffffffffffffffff167fb76f40d10bbc436817730ef0dfae2ab17f73d375ef785b5080198967ed3614f9826040516102729190610539565b60405180910390a25050565b600160009054906101000a900473ffffffffffffffffffffffffffffffffffffffff1673ffffffffffffffffffffffffffffffffffffffff163373ffffffffffffffffffffffffffffffffffffffff161461030e576040517f08c379a000000000000000000000000000000000000000000000000000000000815260040161030590610519565b60405180910390fd5b806000808473ffffffffffffffffffffffffffffffffffffffff1673ffffffffffffffffffffffffffffffffffffffff168152602001908152602001600020600082825461035c9190610565565b925050819055508173ffffffffffffffffffffffffffffffffffffffff167fb2a023484df80a89f6add7acfba71534e4f54c5854289a005605693fc7c81e6b826040516103a99190610539565b60405180910390a25050565b6000813590506103c48161065a565b92915050565b6000813590506103d981610671565b92915050565b6000602082840312156103f157600080fd5b60006103ff848285016103b5565b91505092915050565b6000806040838503121561041b57600080fd5b6000610429858286016103b5565b925050602061043a858286016103ca565b9150509250929050565b6000610451601583610554565b91507f496e73756666696369656e742062616c616e63652e00000000000000000000006000830152602082019050919050565b6000610491602683610554565b91507f4f6e6c792074686520636f6e7472616374206f776e65722063616e2063616c6c60008301527f20746869732e00000000000000000000000000000000000000000000000000006020830152604082019050919050565b6104f381610621565b82525050565b6000602082019050818103600083015261051281610444565b9050919050565b6000602082019050818103600083015261053281610484565b9050919050565b600060208201905061054e60008301846104ea565b92915050565b600082825260208201905092915050565b600061057082610621565b915061057b83610621565b9250827fffffffffffffffffffffffffffffffffffffffffffffffffffffffffffffffff038211156105b0576105af61062b565b5b828201905092915050565b60006105c682610621565b91506105d183610621565b9250828210156105e4576105e361062b565b5b828203905092915050565b60006105fa82610601565b9050919050565b600073ffffffffffffffffffffffffffffffffffffffff82169050919050565b6000819050919050565b7f4e487b7100000000000000000000000000000000000000000000000000000000600052601160045260246000fd5b610663816105ef565b811461066e57600080fd5b50565b61067a81610621565b811461068557600080fd5b5056fea2646970667358221220bed78292c6f0478056414b1e9000e01e91f525dffdd70b6bcec9259b906dcbc664736f6c63430008000033",
  "immutableReferences": {},
  "source": "// SPDX-License-Identifier: MIT\r\npragma solidity ^0.8.0;\r\n\r\ncontract LoyaltyPoints {\r\n    mapping(address => uint256) public lpBalances;\r\n\r\n    address owner;\r\n\r\n    event LoyaltyPointsAdded(address indexed user, uint256 points);\r\n    event LoyaltyPointsSubtracted(address indexed user, uint256 points);\r\n\r\n    modifier onlyOwner() {\r\n        require(msg.sender == owner, \"Only the contract owner can call this.\");\r\n        _;\r\n    }\r\n\r\n    constructor() {\r\n        owner = msg.sender;\r\n    }\r\n\r\n    function addLoyaltyPoints(address user, uint256 points) public onlyOwner {\r\n        lpBalances[user] += points;\r\n        emit LoyaltyPointsAdded(user, points);\r\n    }\r\n\r\n    function subtractLoyaltyPoints(\r\n        address user,\r\n        uint256 points\r\n    ) public onlyOwner {\r\n        require(lpBalances[user] >= points, \"Insufficient balance.\");\r\n        lpBalances[user] -= points;\r\n        emit LoyaltyPointsSubtracted(user, points);\r\n    }\r\n\r\n    // Other loyalty points management functions as needed\r\n}\r\n",
  "sourcePath": "C:\\Users\\hp\\Desktop\\IS4302\\Decentralized-Event-Ticketing-System\\IS4302-Decentralized-Event-Ticketing-System\\contracts\\LoyaltyPoints.sol",
  "compiler": {
    "name": "solc",
    "version": "0.8.0+commit.c7dfd78e.Emscripten.clang"
  },
  "schemaVersion": "3.4.16",
  "updatedAt": "2024-03-20T14:02:10.554Z",
  "networkType": "ethereum",
  "devdoc": {
    "kind": "dev",
    "methods": {},
    "version": 1
  },
  "userdoc": {
    "kind": "user",
    "methods": {},
    "version": 1
  }
}