{
  "contractName": "LoyaltyPoints",
  "abi": [
    {
      "inputs": [],
      "stateMutability": "nonpayable",
      "type": "constructor"
    },
    {
      "anonymous": false,
      "inputs": [
        {
          "indexed": true,
          "internalType": "address",
          "name": "user",
          "type": "address"
        },
        {
          "indexed": false,
          "internalType": "uint256",
          "name": "points",
          "type": "uint256"
        }
      ],
      "name": "LoyaltyPointsAdded",
      "type": "event"
    },
    {
      "anonymous": false,
      "inputs": [
        {
          "indexed": true,
          "internalType": "address",
          "name": "user",
          "type": "address"
        },
        {
          "indexed": false,
          "internalType": "uint256",
          "name": "points",
          "type": "uint256"
        }
      ],
      "name": "LoyaltyPointsSet",
      "type": "event"
    },
    {
      "anonymous": false,
      "inputs": [
        {
          "indexed": true,
          "internalType": "address",
          "name": "user",
          "type": "address"
        },
        {
          "indexed": false,
          "internalType": "uint256",
          "name": "points",
          "type": "uint256"
        }
      ],
      "name": "LoyaltyPointsSubtracted",
      "type": "event"
    },
    {
      "inputs": [
        {
          "internalType": "address",
          "name": "",
          "type": "address"
        }
      ],
      "name": "lpBalances",
      "outputs": [
        {
          "internalType": "uint256",
          "name": "",
          "type": "uint256"
        }
      ],
      "stateMutability": "view",
      "type": "function",
      "constant": true
    },
    {
      "inputs": [
        {
          "internalType": "address",
          "name": "user",
          "type": "address"
        },
        {
          "internalType": "uint256",
          "name": "points",
          "type": "uint256"
        }
      ],
      "name": "addLoyaltyPoints",
      "outputs": [],
      "stateMutability": "nonpayable",
      "type": "function"
    },
    {
      "inputs": [
        {
          "internalType": "address",
          "name": "user",
          "type": "address"
        },
        {
          "internalType": "uint256",
          "name": "points",
          "type": "uint256"
        }
      ],
      "name": "subtractLoyaltyPoints",
      "outputs": [],
      "stateMutability": "nonpayable",
      "type": "function"
    },
    {
      "inputs": [
        {
          "internalType": "address",
          "name": "user",
          "type": "address"
        },
        {
          "internalType": "uint256",
          "name": "points",
          "type": "uint256"
        }
      ],
      "name": "setPoints",
      "outputs": [],
      "stateMutability": "nonpayable",
      "type": "function"
    },
    {
      "inputs": [
        {
          "internalType": "address",
          "name": "user",
          "type": "address"
        }
      ],
      "name": "getPoints",
      "outputs": [
        {
          "internalType": "uint256",
          "name": "",
          "type": "uint256"
        }
      ],
      "stateMutability": "view",
      "type": "function",
      "constant": true
    }
  ],
  "bytecode": "0x608060405234801561001057600080fd5b5033600160006101000a81548173ffffffffffffffffffffffffffffffffffffffff021916908373ffffffffffffffffffffffffffffffffffffffff16021790555061088d806100616000396000f3fe608060405234801561001057600080fd5b50600436106100575760003560e01c80630b65092d1461005c5780633bc007a81461008c5780637867be75146100a8578063e78622f0146100c4578063ee204abb146100e0575b600080fd5b610076600480360381019061007191906105ae565b610110565b6040516100839190610708565b60405180910390f35b6100a660048036038101906100a191906105d7565b610128565b005b6100c260048036038101906100bd91906105d7565b61024d565b005b6100de60048036038101906100d991906105d7565b610405565b005b6100fa60048036038101906100f591906105ae565b61053c565b6040516101079190610708565b60405180910390f35b60006020528060005260406000206000915090505481565b600160009054906101000a900473ffffffffffffffffffffffffffffffffffffffff1673ffffffffffffffffffffffffffffffffffffffff163373ffffffffffffffffffffffffffffffffffffffff16146101b8576040517f08c379a00000000000000000000000000000000000000000000000000000000081526004016101af906106e8565b60405180910390fd5b806000808473ffffffffffffffffffffffffffffffffffffffff1673ffffffffffffffffffffffffffffffffffffffff168152602001908152602001600020819055508173ffffffffffffffffffffffffffffffffffffffff167f8756e7a2d6fe0cf5c6ff1a991b464a6e2ce8eeae29785f0d0a2217d68fe1d628826040516102419190610708565b60405180910390a25050565b600160009054906101000a900473ffffffffffffffffffffffffffffffffffffffff1673ffffffffffffffffffffffffffffffffffffffff163373ffffffffffffffffffffffffffffffffffffffff16146102dd576040517f08c379a00000000000000000000000000000000000000000000000000000000081526004016102d4906106e8565b60405180910390fd5b806000808473ffffffffffffffffffffffffffffffffffffffff1673ffffffffffffffffffffffffffffffffffffffff16815260200190815260200160002054101561035e576040517f08c379a0000000000000000000000000000000000000000000000000000000008152600401610355906106c8565b60405180910390fd5b806000808473ffffffffffffffffffffffffffffffffffffffff1673ffffffffffffffffffffffffffffffffffffffff16815260200190815260200160002060008282546103ac919061078a565b925050819055508173ffffffffffffffffffffffffffffffffffffffff167fb76f40d10bbc436817730ef0dfae2ab17f73d375ef785b5080198967ed3614f9826040516103f99190610708565b60405180910390a25050565b600160009054906101000a900473ffffffffffffffffffffffffffffffffffffffff1673ffffffffffffffffffffffffffffffffffffffff163373ffffffffffffffffffffffffffffffffffffffff1614610495576040517f08c379a000000000000000000000000000000000000000000000000000000000815260040161048c906106e8565b60405180910390fd5b806000808473ffffffffffffffffffffffffffffffffffffffff1673ffffffffffffffffffffffffffffffffffffffff16815260200190815260200160002060008282546104e39190610734565b925050819055508173ffffffffffffffffffffffffffffffffffffffff167fb2a023484df80a89f6add7acfba71534e4f54c5854289a005605693fc7c81e6b826040516105309190610708565b60405180910390a25050565b60008060008373ffffffffffffffffffffffffffffffffffffffff1673ffffffffffffffffffffffffffffffffffffffff168152602001908152602001600020549050919050565b60008135905061059381610829565b92915050565b6000813590506105a881610840565b92915050565b6000602082840312156105c057600080fd5b60006105ce84828501610584565b91505092915050565b600080604083850312156105ea57600080fd5b60006105f885828601610584565b925050602061060985828601610599565b9150509250929050565b6000610620601583610723565b91507f496e73756666696369656e742062616c616e63652e00000000000000000000006000830152602082019050919050565b6000610660602683610723565b91507f4f6e6c792074686520636f6e7472616374206f776e65722063616e2063616c6c60008301527f20746869732e00000000000000000000000000000000000000000000000000006020830152604082019050919050565b6106c2816107f0565b82525050565b600060208201905081810360008301526106e181610613565b9050919050565b6000602082019050818103600083015261070181610653565b9050919050565b600060208201905061071d60008301846106b9565b92915050565b600082825260208201905092915050565b600061073f826107f0565b915061074a836107f0565b9250827fffffffffffffffffffffffffffffffffffffffffffffffffffffffffffffffff0382111561077f5761077e6107fa565b5b828201905092915050565b6000610795826107f0565b91506107a0836107f0565b9250828210156107b3576107b26107fa565b5b828203905092915050565b60006107c9826107d0565b9050919050565b600073ffffffffffffffffffffffffffffffffffffffff82169050919050565b6000819050919050565b7f4e487b7100000000000000000000000000000000000000000000000000000000600052601160045260246000fd5b610832816107be565b811461083d57600080fd5b50565b610849816107f0565b811461085457600080fd5b5056fea2646970667358221220a146acd44bf7bc8beb6084b86db7933614e1c088b83110864a48c86a5e59600d64736f6c63430008000033",
  "immutableReferences": {},
  "source": "// SPDX-License-Identifier: MIT\r\npragma solidity ^0.8.0;\r\n\r\ncontract LoyaltyPoints {\r\n    mapping(address => uint256) public lpBalances;\r\n\r\n    address owner;\r\n\r\n    event LoyaltyPointsAdded(address indexed user, uint256 points);\r\n    event LoyaltyPointsSubtracted(address indexed user, uint256 points);\r\n    event LoyaltyPointsSet(address indexed user, uint256 points);\r\n\r\n    modifier onlyOwner() {\r\n        require(msg.sender == owner, \"Only the contract owner can call this.\");\r\n        _;\r\n    }\r\n\r\n    constructor() {\r\n        owner = msg.sender;\r\n    }\r\n\r\n    function addLoyaltyPoints(address user, uint256 points) public onlyOwner {\r\n        lpBalances[user] += points;\r\n        emit LoyaltyPointsAdded(user, points);\r\n    }\r\n\r\n    function subtractLoyaltyPoints(\r\n        address user,\r\n        uint256 points\r\n    ) public onlyOwner {\r\n        require(lpBalances[user] >= points, \"Insufficient balance.\");\r\n        lpBalances[user] -= points;\r\n        emit LoyaltyPointsSubtracted(user, points);\r\n    }\r\n\r\n    // Other loyalty points management functions as needed\r\n\r\n    //getter functions\r\n\r\n    function setPoints(address user, uint256 points) public onlyOwner {\r\n        lpBalances[user] = points;\r\n        emit LoyaltyPointsSet(user, points);\r\n    }\r\n    function getPoints(address user) public view returns (uint256) {\r\n        return lpBalances[user];\r\n    }\r\n}\r\n",
  "sourcePath": "C:\\Users\\tngjo\\OneDrive\\Desktop\\GitHub\\IS4302-Decentralized-Event-Ticketing-System\\contracts\\LoyaltyPoints.sol",
  "compiler": {
    "name": "solc",
    "version": "0.8.0+commit.c7dfd78e.Emscripten.clang"
  },
  "schemaVersion": "3.4.16",
  "updatedAt": "2024-03-21T06:59:51.304Z",
  "networkType": "ethereum",
  "devdoc": {
    "kind": "dev",
    "methods": {},
    "version": 1
  },
  "userdoc": {
    "kind": "user",
    "methods": {},
    "version": 1
  }
}