{
  "contractName": "LoyaltyPoints",
  "abi": [
    {
      "inputs": [],
      "stateMutability": "nonpayable",
      "type": "constructor"
    },
    {
      "anonymous": false,
      "inputs": [
        {
          "indexed": true,
          "internalType": "address",
          "name": "user",
          "type": "address"
        },
        {
          "indexed": false,
          "internalType": "uint256",
          "name": "points",
          "type": "uint256"
        }
      ],
      "name": "LoyaltyPointsAdded",
      "type": "event"
    },
    {
      "anonymous": false,
      "inputs": [
        {
          "indexed": true,
          "internalType": "address",
          "name": "user",
          "type": "address"
        },
        {
          "indexed": false,
          "internalType": "uint256",
          "name": "points",
          "type": "uint256"
        }
      ],
      "name": "LoyaltyPointsSet",
      "type": "event"
    },
    {
      "anonymous": false,
      "inputs": [
        {
          "indexed": true,
          "internalType": "address",
          "name": "user",
          "type": "address"
        },
        {
          "indexed": false,
          "internalType": "uint256",
          "name": "points",
          "type": "uint256"
        }
      ],
      "name": "LoyaltyPointsSubtracted",
      "type": "event"
    },
    {
      "inputs": [
        {
          "internalType": "address",
          "name": "",
          "type": "address"
        }
      ],
      "name": "lpBalances",
      "outputs": [
        {
          "internalType": "uint256",
          "name": "",
          "type": "uint256"
        }
      ],
      "stateMutability": "view",
      "type": "function"
    },
    {
      "inputs": [],
      "name": "presaleMarketAddress",
      "outputs": [
        {
          "internalType": "address",
          "name": "",
          "type": "address"
        }
      ],
      "stateMutability": "view",
      "type": "function"
    },
    {
      "inputs": [],
      "name": "ticketMarketAddress",
      "outputs": [
        {
          "internalType": "address",
          "name": "",
          "type": "address"
        }
      ],
      "stateMutability": "view",
      "type": "function"
    },
    {
      "inputs": [
        {
          "internalType": "address",
          "name": "_presaleMarketAddress",
          "type": "address"
        }
      ],
      "name": "setPresaleMarketAddress",
      "outputs": [],
      "stateMutability": "nonpayable",
      "type": "function"
    },
    {
      "inputs": [
        {
          "internalType": "address",
          "name": "_ticketMarketAddress",
          "type": "address"
        }
      ],
      "name": "setTicketMarketAddress",
      "outputs": [],
      "stateMutability": "nonpayable",
      "type": "function"
    },
    {
      "inputs": [
        {
          "internalType": "address",
          "name": "user",
          "type": "address"
        },
        {
          "internalType": "uint256",
          "name": "points",
          "type": "uint256"
        }
      ],
      "name": "addLoyaltyPoints",
      "outputs": [],
      "stateMutability": "nonpayable",
      "type": "function"
    },
    {
      "inputs": [
        {
          "internalType": "address",
          "name": "user",
          "type": "address"
        },
        {
          "internalType": "uint256",
          "name": "points",
          "type": "uint256"
        }
      ],
      "name": "subtractLoyaltyPoints",
      "outputs": [],
      "stateMutability": "nonpayable",
      "type": "function"
    },
    {
      "inputs": [
        {
          "internalType": "address",
          "name": "user",
          "type": "address"
        },
        {
          "internalType": "uint256",
          "name": "points",
          "type": "uint256"
        }
      ],
      "name": "setPoints",
      "outputs": [],
      "stateMutability": "nonpayable",
      "type": "function"
    },
    {
      "inputs": [
        {
          "internalType": "address",
          "name": "user",
          "type": "address"
        }
      ],
      "name": "getPoints",
      "outputs": [
        {
          "internalType": "uint256",
          "name": "",
          "type": "uint256"
        }
      ],
      "stateMutability": "view",
      "type": "function"
    }
  ],
  "bytecode": "0x608060405234801561001057600080fd5b5033600160006101000a81548173ffffffffffffffffffffffffffffffffffffffff021916908373ffffffffffffffffffffffffffffffffffffffff160217905550610c6b806100616000396000f3fe608060405234801561001057600080fd5b50600436106100935760003560e01c80637867be75116100665780637867be7514610120578063e78622f01461013c578063ee204abb14610158578063f7f3785014610188578063fe18a430146101a457610093565b80630b65092d146100985780633bc007a8146100c857806342f00dbf146100e45780635b73c13114610102575b600080fd5b6100b260048036038101906100ad9190610902565b6101c0565b6040516100bf9190610ae6565b60405180910390f35b6100e260048036038101906100dd919061092b565b6101d8565b005b6100ec6102fd565b6040516100f99190610a6b565b60405180910390f35b61010a610323565b6040516101179190610a6b565b60405180910390f35b61013a6004803603810190610135919061092b565b610349565b005b6101566004803603810190610151919061092b565b610501565b005b610172600480360381019061016d9190610902565b6106e8565b60405161017f9190610ae6565b60405180910390f35b6101a2600480360381019061019d9190610902565b610730565b005b6101be60048036038101906101b99190610902565b610804565b005b60006020528060005260406000206000915090505481565b600160009054906101000a900473ffffffffffffffffffffffffffffffffffffffff1673ffffffffffffffffffffffffffffffffffffffff163373ffffffffffffffffffffffffffffffffffffffff1614610268576040517f08c379a000000000000000000000000000000000000000000000000000000000815260040161025f90610ac6565b60405180910390fd5b806000808473ffffffffffffffffffffffffffffffffffffffff1673ffffffffffffffffffffffffffffffffffffffff168152602001908152602001600020819055508173ffffffffffffffffffffffffffffffffffffffff167f8756e7a2d6fe0cf5c6ff1a991b464a6e2ce8eeae29785f0d0a2217d68fe1d628826040516102f19190610ae6565b60405180910390a25050565b600360009054906101000a900473ffffffffffffffffffffffffffffffffffffffff1681565b600260009054906101000a900473ffffffffffffffffffffffffffffffffffffffff1681565b600160009054906101000a900473ffffffffffffffffffffffffffffffffffffffff1673ffffffffffffffffffffffffffffffffffffffff163373ffffffffffffffffffffffffffffffffffffffff16146103d9576040517f08c379a00000000000000000000000000000000000000000000000000000000081526004016103d090610ac6565b60405180910390fd5b806000808473ffffffffffffffffffffffffffffffffffffffff1673ffffffffffffffffffffffffffffffffffffffff16815260200190815260200160002054101561045a576040517f08c379a000000000000000000000000000000000000000000000000000000000815260040161045190610aa6565b60405180910390fd5b806000808473ffffffffffffffffffffffffffffffffffffffff1673ffffffffffffffffffffffffffffffffffffffff16815260200190815260200160002060008282546104a89190610b68565b925050819055508173ffffffffffffffffffffffffffffffffffffffff167fb76f40d10bbc436817730ef0dfae2ab17f73d375ef785b5080198967ed3614f9826040516104f59190610ae6565b60405180910390a25050565b600160009054906101000a900473ffffffffffffffffffffffffffffffffffffffff1673ffffffffffffffffffffffffffffffffffffffff163373ffffffffffffffffffffffffffffffffffffffff1614806105aa5750600260009054906101000a900473ffffffffffffffffffffffffffffffffffffffff1673ffffffffffffffffffffffffffffffffffffffff163373ffffffffffffffffffffffffffffffffffffffff16145b806106025750600360009054906101000a900473ffffffffffffffffffffffffffffffffffffffff1673ffffffffffffffffffffffffffffffffffffffff163373ffffffffffffffffffffffffffffffffffffffff16145b610641576040517f08c379a000000000000000000000000000000000000000000000000000000000815260040161063890610a86565b60405180910390fd5b806000808473ffffffffffffffffffffffffffffffffffffffff1673ffffffffffffffffffffffffffffffffffffffff168152602001908152602001600020600082825461068f9190610b12565b925050819055508173ffffffffffffffffffffffffffffffffffffffff167fb2a023484df80a89f6add7acfba71534e4f54c5854289a005605693fc7c81e6b826040516106dc9190610ae6565b60405180910390a25050565b60008060008373ffffffffffffffffffffffffffffffffffffffff1673ffffffffffffffffffffffffffffffffffffffff168152602001908152602001600020549050919050565b600160009054906101000a900473ffffffffffffffffffffffffffffffffffffffff1673ffffffffffffffffffffffffffffffffffffffff163373ffffffffffffffffffffffffffffffffffffffff16146107c0576040517f08c379a00000000000000000000000000000000000000000000000000000000081526004016107b790610ac6565b60405180910390fd5b80600360006101000a81548173ffffffffffffffffffffffffffffffffffffffff021916908373ffffffffffffffffffffffffffffffffffffffff16021790555050565b600160009054906101000a900473ffffffffffffffffffffffffffffffffffffffff1673ffffffffffffffffffffffffffffffffffffffff163373ffffffffffffffffffffffffffffffffffffffff1614610894576040517f08c379a000000000000000000000000000000000000000000000000000000000815260040161088b90610ac6565b60405180910390fd5b80600260006101000a81548173ffffffffffffffffffffffffffffffffffffffff021916908373ffffffffffffffffffffffffffffffffffffffff16021790555050565b6000813590506108e781610c07565b92915050565b6000813590506108fc81610c1e565b92915050565b60006020828403121561091457600080fd5b6000610922848285016108d8565b91505092915050565b6000806040838503121561093e57600080fd5b600061094c858286016108d8565b925050602061095d858286016108ed565b9150509250929050565b61097081610b9c565b82525050565b6000610983600c83610b01565b91507f556e617574686f72697a656400000000000000000000000000000000000000006000830152602082019050919050565b60006109c3601583610b01565b91507f496e73756666696369656e742062616c616e63652e00000000000000000000006000830152602082019050919050565b6000610a03602683610b01565b91507f4f6e6c792074686520636f6e7472616374206f776e65722063616e2063616c6c60008301527f20746869732e00000000000000000000000000000000000000000000000000006020830152604082019050919050565b610a6581610bce565b82525050565b6000602082019050610a806000830184610967565b92915050565b60006020820190508181036000830152610a9f81610976565b9050919050565b60006020820190508181036000830152610abf816109b6565b9050919050565b60006020820190508181036000830152610adf816109f6565b9050919050565b6000602082019050610afb6000830184610a5c565b92915050565b600082825260208201905092915050565b6000610b1d82610bce565b9150610b2883610bce565b9250827fffffffffffffffffffffffffffffffffffffffffffffffffffffffffffffffff03821115610b5d57610b5c610bd8565b5b828201905092915050565b6000610b7382610bce565b9150610b7e83610bce565b925082821015610b9157610b90610bd8565b5b828203905092915050565b6000610ba782610bae565b9050919050565b600073ffffffffffffffffffffffffffffffffffffffff82169050919050565b6000819050919050565b7f4e487b7100000000000000000000000000000000000000000000000000000000600052601160045260246000fd5b610c1081610b9c565b8114610c1b57600080fd5b50565b610c2781610bce565b8114610c3257600080fd5b5056fea2646970667358221220d509a0ffe6ab9e6666cc0ce6206e257fbe78a64f3d01166f5a9ad9de6ea523fe64736f6c63430008000033",
  "immutableReferences": {},
  "source": "// SPDX-License-Identifier: MIT\r\npragma solidity ^0.8.0;\r\n\r\ncontract LoyaltyPoints {\r\n    mapping(address => uint256) public lpBalances;\r\n\r\n    address owner;\r\n    address public presaleMarketAddress; // Allow presaleMartet to be an authorised caller\r\n    address public ticketMarketAddress; // Allow ticketMarket to be an authorised caller\r\n\r\n    event LoyaltyPointsAdded(address indexed user, uint256 points);\r\n    event LoyaltyPointsSubtracted(address indexed user, uint256 points);\r\n    event LoyaltyPointsSet(address indexed user, uint256 points);\r\n\r\n    modifier onlyOwner() {\r\n        require(msg.sender == owner, \"Only the contract owner can call this.\");\r\n        _;\r\n    }\r\n\r\n    modifier onlyPresaleMarketOrOwnerorTicketMarket() {\r\n        require(\r\n            msg.sender == owner ||\r\n                msg.sender == presaleMarketAddress ||\r\n                msg.sender == ticketMarketAddress,\r\n            \"Unauthorized\"\r\n        );\r\n        _;\r\n    }\r\n\r\n    constructor() {\r\n        owner = msg.sender;\r\n    }\r\n\r\n    function setPresaleMarketAddress(\r\n        address _presaleMarketAddress\r\n    ) external onlyOwner {\r\n        presaleMarketAddress = _presaleMarketAddress;\r\n    }\r\n\r\n    function setTicketMarketAddress(\r\n        address _ticketMarketAddress\r\n    ) external onlyOwner {\r\n        ticketMarketAddress = _ticketMarketAddress;\r\n    }\r\n\r\n    function addLoyaltyPoints(\r\n        address user,\r\n        uint256 points\r\n    ) public onlyPresaleMarketOrOwnerorTicketMarket {\r\n        lpBalances[user] += points;\r\n        emit LoyaltyPointsAdded(user, points);\r\n    }\r\n\r\n    function subtractLoyaltyPoints(\r\n        address user,\r\n        uint256 points\r\n    ) public onlyOwner {\r\n        require(lpBalances[user] >= points, \"Insufficient balance.\");\r\n        lpBalances[user] -= points;\r\n        emit LoyaltyPointsSubtracted(user, points);\r\n    }\r\n\r\n    // Other loyalty points management functions as needed\r\n\r\n    //getter functions\r\n\r\n    function setPoints(address user, uint256 points) public onlyOwner {\r\n        lpBalances[user] = points;\r\n        emit LoyaltyPointsSet(user, points);\r\n    }\r\n    function getPoints(address user) public view returns (uint256) {\r\n        return lpBalances[user];\r\n    }\r\n}\r\n",
  "sourcePath": "C:\\Users\\tngjo\\OneDrive\\Desktop\\GitHub\\IS4302-Decentralized-Event-Ticketing-System\\contracts\\LoyaltyPoints.sol",
  "compiler": {
    "name": "solc",
    "version": "0.8.0+commit.c7dfd78e.Emscripten.clang"
  },
  "schemaVersion": "3.4.16",
  "updatedAt": "2024-04-04T11:04:24.549Z",
  "devdoc": {
    "kind": "dev",
    "methods": {},
    "version": 1
  },
  "userdoc": {
    "kind": "user",
    "methods": {},
    "version": 1
  }
}