{
  "contractName": "PresaleMarket",
  "abi": [
    {
      "inputs": [
        {
          "internalType": "address",
          "name": "_priorityQueue",
          "type": "address"
        },
        {
          "internalType": "address",
          "name": "_ticketContract",
          "type": "address"
        },
        {
          "internalType": "address",
          "name": "_loyaltyPointsContract",
          "type": "address"
        }
      ],
      "stateMutability": "nonpayable",
      "type": "constructor"
    },
    {
      "inputs": [
        {
          "internalType": "uint256",
          "name": "",
          "type": "uint256"
        }
      ],
      "name": "events",
      "outputs": [
        {
          "internalType": "uint256",
          "name": "concertId",
          "type": "uint256"
        },
        {
          "internalType": "string",
          "name": "concertName",
          "type": "string"
        },
        {
          "internalType": "string",
          "name": "concertVenue",
          "type": "string"
        },
        {
          "internalType": "uint256",
          "name": "concertDate",
          "type": "uint256"
        },
        {
          "internalType": "uint256",
          "name": "price",
          "type": "uint256"
        },
        {
          "internalType": "bool",
          "name": "ticketsReleased",
          "type": "bool"
        }
      ],
      "stateMutability": "view",
      "type": "function"
    },
    {
      "inputs": [],
      "name": "loyaltyPointsContract",
      "outputs": [
        {
          "internalType": "contract LoyaltyPoints",
          "name": "",
          "type": "address"
        }
      ],
      "stateMutability": "view",
      "type": "function"
    },
    {
      "inputs": [],
      "name": "organizer",
      "outputs": [
        {
          "internalType": "address",
          "name": "",
          "type": "address"
        }
      ],
      "stateMutability": "view",
      "type": "function"
    },
    {
      "inputs": [],
      "name": "priorityQueue",
      "outputs": [
        {
          "internalType": "contract PriorityQueue",
          "name": "",
          "type": "address"
        }
      ],
      "stateMutability": "view",
      "type": "function"
    },
    {
      "inputs": [],
      "name": "ticketContract",
      "outputs": [
        {
          "internalType": "contract Ticket",
          "name": "",
          "type": "address"
        }
      ],
      "stateMutability": "view",
      "type": "function"
    },
    {
      "inputs": [
        {
          "internalType": "uint256",
          "name": "concertId",
          "type": "uint256"
        },
        {
          "internalType": "string",
          "name": "concertName",
          "type": "string"
        },
        {
          "internalType": "string",
          "name": "concertVenue",
          "type": "string"
        },
        {
          "internalType": "uint256",
          "name": "concertDate",
          "type": "uint256"
        },
        {
          "internalType": "uint256[]",
          "name": "ticketSectionNos",
          "type": "uint256[]"
        },
        {
          "internalType": "uint256[]",
          "name": "ticketSeatNos",
          "type": "uint256[]"
        },
        {
          "internalType": "uint256",
          "name": "price",
          "type": "uint256"
        }
      ],
      "name": "createEvent",
      "outputs": [],
      "stateMutability": "nonpayable",
      "type": "function"
    },
    {
      "inputs": [
        {
          "internalType": "uint256",
          "name": "concertId",
          "type": "uint256"
        }
      ],
      "name": "releaseTicket",
      "outputs": [],
      "stateMutability": "nonpayable",
      "type": "function"
    },
    {
      "inputs": [
        {
          "internalType": "uint256",
          "name": "concertId",
          "type": "uint256"
        }
      ],
      "name": "buyTicket",
      "outputs": [],
      "stateMutability": "payable",
      "type": "function"
    },
    {
      "inputs": [
        {
          "internalType": "uint256",
          "name": "concertId",
          "type": "uint256"
        },
        {
          "internalType": "string",
          "name": "concertName",
          "type": "string"
        },
        {
          "internalType": "string",
          "name": "concertVenue",
          "type": "string"
        },
        {
          "internalType": "uint256",
          "name": "concertDate",
          "type": "uint256"
        },
        {
          "internalType": "uint256[]",
          "name": "ticketSectionNos",
          "type": "uint256[]"
        },
        {
          "internalType": "uint256[]",
          "name": "ticketSeatNos",
          "type": "uint256[]"
        },
        {
          "internalType": "uint256",
          "name": "price",
          "type": "uint256"
        }
      ],
      "name": "releaseTickets",
      "outputs": [],
      "stateMutability": "nonpayable",
      "type": "function"
    },
    {
      "inputs": [
        {
          "internalType": "uint256",
          "name": "selectedTicketId",
          "type": "uint256"
        }
      ],
      "name": "selectAvailableTicket",
      "outputs": [],
      "stateMutability": "nonpayable",
      "type": "function"
    }
  ],
  "bytecode": "0x60806040523480156200001157600080fd5b5060405162001e7438038062001e7483398181016040528101906200003791906200015a565b336000806101000a81548173ffffffffffffffffffffffffffffffffffffffff021916908373ffffffffffffffffffffffffffffffffffffffff16021790555082600160006101000a81548173ffffffffffffffffffffffffffffffffffffffff021916908373ffffffffffffffffffffffffffffffffffffffff16021790555081600260006101000a81548173ffffffffffffffffffffffffffffffffffffffff021916908373ffffffffffffffffffffffffffffffffffffffff16021790555080600360006101000a81548173ffffffffffffffffffffffffffffffffffffffff021916908373ffffffffffffffffffffffffffffffffffffffff160217905550505050620001fe565b6000815190506200015481620001e4565b92915050565b6000806000606084860312156200017057600080fd5b6000620001808682870162000143565b9350506020620001938682870162000143565b9250506040620001a68682870162000143565b9150509250925092565b6000620001bd82620001c4565b9050919050565b600073ffffffffffffffffffffffffffffffffffffffff82169050919050565b620001ef81620001b0565b8114620001fb57600080fd5b50565b611c66806200020e6000396000f3fe6080604052600436106100915760003560e01c806358a86e1d1161005957806358a86e1d1461018057806361203265146101ab57806367dd74ca146101d657806376f06095146101f2578063d4ae775b1461021b57610091565b80630770ed76146100965780630b791430146100c15780630fafe290146101035780632bf095411461012e5780633f9355a314610157575b600080fd5b3480156100a257600080fd5b506100ab610244565b6040516100b89190611690565b60405180910390f35b3480156100cd57600080fd5b506100e860048036038101906100e3919061115b565b61026a565b6040516100fa96959493929190611818565b60405180910390f35b34801561010f57600080fd5b506101186103c3565b6040516101259190611675565b60405180910390f35b34801561013a57600080fd5b506101556004803603810190610150919061115b565b6103e9565b005b34801561016357600080fd5b5061017e6004803603810190610179919061115b565b61057a565b005b34801561018c57600080fd5b506101956106b8565b6040516101a291906116ab565b60405180910390f35b3480156101b757600080fd5b506101c06106de565b6040516101cd9190611631565b60405180910390f35b6101f060048036038101906101eb919061115b565b610702565b005b3480156101fe57600080fd5b50610219600480360381019061021491906111ad565b610af2565b005b34801561022757600080fd5b50610242600480360381019061023d91906111ad565b610c94565b005b600160009054906101000a900473ffffffffffffffffffffffffffffffffffffffff1681565b600460205280600052604060002060009150905080600001549080600101805461029390611ae9565b80601f01602080910402602001604051908101604052809291908181526020018280546102bf90611ae9565b801561030c5780601f106102e15761010080835404028352916020019161030c565b820191906000526020600020905b8154815290600101906020018083116102ef57829003601f168201915b50505050509080600201805461032190611ae9565b80601f016020809104026020016040519081016040528092919081815260200182805461034d90611ae9565b801561039a5780601f1061036f5761010080835404028352916020019161039a565b820191906000526020600020905b81548152906001019060200180831161037d57829003601f168201915b5050505050908060030154908060060154908060070160009054906101000a900460ff16905086565b600360009054906101000a900473ffffffffffffffffffffffffffffffffffffffff1681565b60008054906101000a900473ffffffffffffffffffffffffffffffffffffffff1673ffffffffffffffffffffffffffffffffffffffff163373ffffffffffffffffffffffffffffffffffffffff1614610477576040517f08c379a000000000000000000000000000000000000000000000000000000000815260040161046e90611786565b60405180910390fd5b62015180600460008381526020019081526020016000206003015461049c91906119ad565b4211156104de576040517f08c379a00000000000000000000000000000000000000000000000000000000081526004016104d590611766565b60405180910390fd5b6004600082815260200190815260200160002060070160009054906101000a900460ff1615610542576040517f08c379a0000000000000000000000000000000000000000000000000000000008152600401610539906116c6565b60405180910390fd5b600060046000838152602001908152602001600020905060018160070160006101000a81548160ff0219169083151502179055505050565b600260009054906101000a900473ffffffffffffffffffffffffffffffffffffffff1673ffffffffffffffffffffffffffffffffffffffff1663f8548e368233600260009054906101000a900473ffffffffffffffffffffffffffffffffffffffff1673ffffffffffffffffffffffffffffffffffffffff1663e7572230866040518263ffffffff1660e01b815260040161061591906117c6565b60206040518083038186803b15801561062d57600080fd5b505afa158015610641573d6000803e3d6000fd5b505050506040513d601f19601f820116820180604052508101906106659190611184565b6040518463ffffffff1660e01b8152600401610683939291906117e1565b600060405180830381600087803b15801561069d57600080fd5b505af11580156106b1573d6000803e3d6000fd5b5050505050565b600260009054906101000a900473ffffffffffffffffffffffffffffffffffffffff1681565b60008054906101000a900473ffffffffffffffffffffffffffffffffffffffff1681565b6000600160009054906101000a900473ffffffffffffffffffffffffffffffffffffffff1673ffffffffffffffffffffffffffffffffffffffff1663949d225d6040518163ffffffff1660e01b815260040160206040518083038186803b15801561076c57600080fd5b505afa158015610780573d6000803e3d6000fd5b505050506040513d601f19601f820116820180604052508101906107a49190611184565b116107e4576040517f08c379a00000000000000000000000000000000000000000000000000000000081526004016107db906117a6565b60405180910390fd5b6000600160009054906101000a900473ffffffffffffffffffffffffffffffffffffffff1673ffffffffffffffffffffffffffffffffffffffff16630b8be3736040518163ffffffff1660e01b8152600401604080518083038186803b15801561084d57600080fd5b505afa158015610861573d6000803e3d6000fd5b505050506040513d601f19601f82011682018060405250810190610885919061111f565b5090508073ffffffffffffffffffffffffffffffffffffffff163373ffffffffffffffffffffffffffffffffffffffff16146108f6576040517f08c379a00000000000000000000000000000000000000000000000000000000081526004016108ed90611726565b60405180910390fd5b600160009054906101000a900473ffffffffffffffffffffffffffffffffffffffff1673ffffffffffffffffffffffffffffffffffffffff1663c34215d46040518163ffffffff1660e01b8152600401602060405180830381600087803b15801561096057600080fd5b505af1158015610974573d6000803e3d6000fd5b505050506040513d601f19601f8201168201806040525081019061099891906110f6565b506000600460008481526020019081526020016000206006015490508034146109f6576040517f08c379a00000000000000000000000000000000000000000000000000000000081526004016109ed90611706565b60405180910390fd5b60008054906101000a900473ffffffffffffffffffffffffffffffffffffffff1673ffffffffffffffffffffffffffffffffffffffff166108fc349081150290604051600060405180830381858888f19350505050158015610a5c573d6000803e3d6000fd5b50600360009054906101000a900473ffffffffffffffffffffffffffffffffffffffff1673ffffffffffffffffffffffffffffffffffffffff1663e78622f033600a6040518363ffffffff1660e01b8152600401610abb92919061164c565b600060405180830381600087803b158015610ad557600080fd5b505af1158015610ae9573d6000803e3d6000fd5b50505050505050565b60008054906101000a900473ffffffffffffffffffffffffffffffffffffffff1673ffffffffffffffffffffffffffffffffffffffff163373ffffffffffffffffffffffffffffffffffffffff1614610b80576040517f08c379a0000000000000000000000000000000000000000000000000000000008152600401610b7790611786565b60405180910390fd5b600060405180610100016040528089815260200188815260200187815260200186815260200185815260200184815260200183815260200160001515815250905080600460008a8152602001908152602001600020600082015181600001556020820151816001019080519060200190610bfb929190610ec9565b506040820151816002019080519060200190610c18929190610ec9565b50606082015181600301556080820151816004019080519060200190610c3f929190610f4f565b5060a0820151816005019080519060200190610c5c929190610f4f565b5060c0820151816006015560e08201518160070160006101000a81548160ff0219169083151502179055509050505050505050505050565b60008054906101000a900473ffffffffffffffffffffffffffffffffffffffff1673ffffffffffffffffffffffffffffffffffffffff163373ffffffffffffffffffffffffffffffffffffffff1614610d22576040517f08c379a0000000000000000000000000000000000000000000000000000000008152600401610d19906116e6565b60405180910390fd5b8151835114610d66576040517f08c379a0000000000000000000000000000000000000000000000000000000008152600401610d5d90611746565b60405180910390fd5b60005b8351811015610ebf57600260009054906101000a900473ffffffffffffffffffffffffffffffffffffffff1673ffffffffffffffffffffffffffffffffffffffff1663fe8b766b89898989898781518110610ded577f4e487b7100000000000000000000000000000000000000000000000000000000600052603260045260246000fd5b6020026020010151898881518110610e2e577f4e487b7100000000000000000000000000000000000000000000000000000000600052603260045260246000fd5b6020026020010151896040518863ffffffff1660e01b8152600401610e599796959493929190611887565b602060405180830381600087803b158015610e7357600080fd5b505af1158015610e87573d6000803e3d6000fd5b505050506040513d601f19601f82011682018060405250810190610eab9190611184565b508080610eb790611b1b565b915050610d69565b5050505050505050565b828054610ed590611ae9565b90600052602060002090601f016020900481019282610ef75760008555610f3e565b82601f10610f1057805160ff1916838001178555610f3e565b82800160010185558215610f3e579182015b82811115610f3d578251825591602001919060010190610f22565b5b509050610f4b9190610f9c565b5090565b828054828255906000526020600020908101928215610f8b579160200282015b82811115610f8a578251825591602001919060010190610f6f565b5b509050610f989190610f9c565b5090565b5b80821115610fb5576000816000905550600101610f9d565b5090565b6000610fcc610fc784611935565b611904565b90508083825260208201905082856020860282011115610feb57600080fd5b60005b8581101561101b578161100188826110cc565b845260208401935060208301925050600181019050610fee565b5050509392505050565b600061103861103384611961565b611904565b90508281526020810184848401111561105057600080fd5b61105b848285611aa7565b509392505050565b60008151905061107281611c02565b92915050565b600082601f83011261108957600080fd5b8135611099848260208601610fb9565b91505092915050565b600082601f8301126110b357600080fd5b81356110c3848260208601611025565b91505092915050565b6000813590506110db81611c19565b92915050565b6000815190506110f081611c19565b92915050565b60006020828403121561110857600080fd5b600061111684828501611063565b91505092915050565b6000806040838503121561113257600080fd5b600061114085828601611063565b9250506020611151858286016110e1565b9150509250929050565b60006020828403121561116d57600080fd5b600061117b848285016110cc565b91505092915050565b60006020828403121561119657600080fd5b60006111a4848285016110e1565b91505092915050565b600080600080600080600060e0888a0312156111c857600080fd5b60006111d68a828b016110cc565b975050602088013567ffffffffffffffff8111156111f357600080fd5b6111ff8a828b016110a2565b965050604088013567ffffffffffffffff81111561121c57600080fd5b6112288a828b016110a2565b95505060606112398a828b016110cc565b945050608088013567ffffffffffffffff81111561125657600080fd5b6112628a828b01611078565b93505060a088013567ffffffffffffffff81111561127f57600080fd5b61128b8a828b01611078565b92505060c061129c8a828b016110cc565b91505092959891949750929550565b6112b4816119e1565b82525050565b6112c3816119f3565b82525050565b6112d281611a29565b82525050565b6112e181611a4d565b82525050565b6112f081611a71565b82525050565b6112ff81611a95565b82525050565b600061131082611991565b61131a818561199c565b935061132a818560208601611ab6565b61133381611bf1565b840191505092915050565b600061134b60328361199c565b91507f5469636b65747320666f722074686973206576656e74206861766520616c726560008301527f616479206265656e2072656c65617365642e00000000000000000000000000006020830152604082019050919050565b60006113b160278361199c565b91507f4f6e6c7920746865206f7267616e697a65722063616e2072656c65617365207460008301527f69636b6574732e000000000000000000000000000000000000000000000000006020830152604082019050919050565b600061141760198361199c565b91507f496e636f7272656374207061796d656e7420616d6f756e742e000000000000006000830152602082019050919050565b600061145760328361199c565b91507f596f7520617265206e6f7420656c696769626c6520746f20627579206120746960008301527f636b657420617420746869732074696d652e00000000000000000000000000006020830152604082019050919050565b60006114bd60248361199c565b91507f53656374696f6e20616e642073656174206e756d62657273206d757374206d6160008301527f7463682e000000000000000000000000000000000000000000000000000000006020830152604082019050919050565b600061152360348361199c565b91507f5469636b6574732063616e206f6e6c792062652072656c65617365642031206460008301527f6179206265666f726520746865206576656e742e0000000000000000000000006020830152604082019050919050565b6000611589601b8361199c565b91507f43616c6c6572206973206e6f7420746865206f7267616e697a657200000000006000830152602082019050919050565b60006115c9602e8361199c565b91507f4e6f206d6f7265207469636b65747320617661696c61626c65206f722073616c60008301527f65206e6f7420737461727465642e0000000000000000000000000000000000006020830152604082019050919050565b61162b81611a1f565b82525050565b600060208201905061164660008301846112ab565b92915050565b600060408201905061166160008301856112ab565b61166e60208301846112f6565b9392505050565b600060208201905061168a60008301846112c9565b92915050565b60006020820190506116a560008301846112d8565b92915050565b60006020820190506116c060008301846112e7565b92915050565b600060208201905081810360008301526116df8161133e565b9050919050565b600060208201905081810360008301526116ff816113a4565b9050919050565b6000602082019050818103600083015261171f8161140a565b9050919050565b6000602082019050818103600083015261173f8161144a565b9050919050565b6000602082019050818103600083015261175f816114b0565b9050919050565b6000602082019050818103600083015261177f81611516565b9050919050565b6000602082019050818103600083015261179f8161157c565b9050919050565b600060208201905081810360008301526117bf816115bc565b9050919050565b60006020820190506117db6000830184611622565b92915050565b60006060820190506117f66000830186611622565b61180360208301856112ab565b6118106040830184611622565b949350505050565b600060c08201905061182d6000830189611622565b818103602083015261183f8188611305565b905081810360408301526118538187611305565b90506118626060830186611622565b61186f6080830185611622565b61187c60a08301846112ba565b979650505050505050565b600060e08201905061189c600083018a611622565b81810360208301526118ae8189611305565b905081810360408301526118c28188611305565b90506118d16060830187611622565b6118de6080830186611622565b6118eb60a0830185611622565b6118f860c0830184611622565b98975050505050505050565b6000604051905081810181811067ffffffffffffffff8211171561192b5761192a611bc2565b5b8060405250919050565b600067ffffffffffffffff8211156119505761194f611bc2565b5b602082029050602081019050919050565b600067ffffffffffffffff82111561197c5761197b611bc2565b5b601f19601f8301169050602081019050919050565b600081519050919050565b600082825260208201905092915050565b60006119b882611a1f565b91506119c383611a1f565b9250828210156119d6576119d5611b64565b5b828203905092915050565b60006119ec826119ff565b9050919050565b60008115159050919050565b600073ffffffffffffffffffffffffffffffffffffffff82169050919050565b6000819050919050565b6000611a3482611a3b565b9050919050565b6000611a46826119ff565b9050919050565b6000611a5882611a5f565b9050919050565b6000611a6a826119ff565b9050919050565b6000611a7c82611a83565b9050919050565b6000611a8e826119ff565b9050919050565b6000611aa082611a1f565b9050919050565b82818337600083830152505050565b60005b83811015611ad4578082015181840152602081019050611ab9565b83811115611ae3576000848401525b50505050565b60006002820490506001821680611b0157607f821691505b60208210811415611b1557611b14611b93565b5b50919050565b6000611b2682611a1f565b91507fffffffffffffffffffffffffffffffffffffffffffffffffffffffffffffffff821415611b5957611b58611b64565b5b600182019050919050565b7f4e487b7100000000000000000000000000000000000000000000000000000000600052601160045260246000fd5b7f4e487b7100000000000000000000000000000000000000000000000000000000600052602260045260246000fd5b7f4e487b7100000000000000000000000000000000000000000000000000000000600052604160045260246000fd5b6000601f19601f8301169050919050565b611c0b816119e1565b8114611c1657600080fd5b50565b611c2281611a1f565b8114611c2d57600080fd5b5056fea2646970667358221220f81f54c3ca5749af82bd44a0f38069edd08477e564d74e3c782d06790d676a2264736f6c63430008000033",
  "immutableReferences": {},
  "source": "// SPDX-License-Identifier: MIT\r\npragma solidity ^0.8.0;\r\n\r\nimport \"./PriorityQueue.sol\";\r\nimport \"./Ticket.sol\";\r\nimport \"./LoyaltyPoints.sol\";\r\n\r\ncontract PresaleMarket {\r\n    address public organizer;\r\n    PriorityQueue public priorityQueue;\r\n    Ticket public ticketContract;\r\n    LoyaltyPoints public loyaltyPointsContract;\r\n\r\n    struct EventDetails {\r\n        uint256 concertId;\r\n        string concertName;\r\n        string concertVenue;\r\n        uint256 concertDate;\r\n        uint256[] ticketSectionNos;\r\n        uint256[] ticketSeatNos;\r\n        uint256 price;\r\n        bool ticketsReleased;\r\n    }\r\n\r\n    mapping(uint256 => EventDetails) public events;\r\n\r\n    constructor(\r\n        address _priorityQueue,\r\n        address _ticketContract,\r\n        address _loyaltyPointsContract\r\n    ) {\r\n        organizer = msg.sender;\r\n        priorityQueue = PriorityQueue(_priorityQueue);\r\n        ticketContract = Ticket(_ticketContract);\r\n        loyaltyPointsContract = LoyaltyPoints(_loyaltyPointsContract);\r\n    }\r\n\r\n    modifier onlyOrganizer() {\r\n        require(msg.sender == organizer, \"Caller is not the organizer\");\r\n        _;\r\n    }\r\n\r\n    function createEvent(\r\n        uint256 concertId,\r\n        string memory concertName,\r\n        string memory concertVenue,\r\n        uint256 concertDate,\r\n        uint256[] memory ticketSectionNos,\r\n        uint256[] memory ticketSeatNos,\r\n        uint256 price\r\n    ) public onlyOrganizer {\r\n        EventDetails memory newEvent = EventDetails({\r\n            concertId: concertId,\r\n            concertName: concertName,\r\n            concertVenue: concertVenue,\r\n            concertDate: concertDate,\r\n            ticketSectionNos: ticketSectionNos,\r\n            ticketSeatNos: ticketSeatNos,\r\n            price: price,\r\n            ticketsReleased: false\r\n        });\r\n\r\n        events[concertId] = newEvent;\r\n    }\r\n\r\n    // Consider a scenario where certain details (like concert ID, name, venue, and date) are consistent for all tickets being released\r\n    // Only Category, section, and seat numbers could vary\r\n    // release ticket 1 day before the actual date\r\n    function releaseTicket(uint256 concertId) public onlyOrganizer {\r\n        require(\r\n            block.timestamp <= events[concertId].concertDate - 1 days,\r\n            \"Tickets can only be released 1 day before the event.\"\r\n        );\r\n        require(\r\n            !events[concertId].ticketsReleased,\r\n            \"Tickets for this event have already been released.\"\r\n        );\r\n\r\n        EventDetails storage eventDetail = events[concertId];\r\n        eventDetail.ticketsReleased = true;\r\n\r\n        // Logic to actually \"release\" tickets could involve setting a flag or making them available for purchase.\r\n        // For simplicity, we'll just mark them as released here.\r\n    }\r\n\r\n    function buyTicket(uint256 concertId) external payable {\r\n        require(\r\n            priorityQueue.size() > 0,\r\n            \"No more tickets available or sale not started.\"\r\n        );\r\n        (address highestPriorityBuyer, ) = priorityQueue.peekHighestPriority();\r\n        require(\r\n            msg.sender == highestPriorityBuyer,\r\n            \"You are not eligible to buy a ticket at this time.\"\r\n        );\r\n\r\n        priorityQueue.popHighestPriorityBuyer();\r\n        uint256 ticketPrice = events[concertId].price;\r\n        require(msg.value == ticketPrice, \"Incorrect payment amount.\");\r\n\r\n        // Assuming a correct implementation of selectAvailableTicket\r\n        //uint256 ticketId = selectAvailableTicket(); // Adjusted to no argument\r\n        //require(ticketId != 0, \"Failed to select a ticket.\");\r\n\r\n        // Assuming a revised `transfer` method signature\r\n        //ticketContract.transfer(ticketId, msg.sender); // Adjusted call\r\n        payable(organizer).transfer(msg.value);\r\n\r\n        loyaltyPointsContract.addLoyaltyPoints(msg.sender, 10); // Reward loyalty points\r\n    }\r\n\r\n    // Consider a scenario where certain details (like concert ID, name, venue, and date) are consistent for all tickets being released\r\n    // Category, section, and seat numbers could vary\r\n    function releaseTickets(\r\n        uint256 concertId,\r\n        string memory concertName,\r\n        string memory concertVenue,\r\n        uint256 concertDate,\r\n        uint256[] memory ticketSectionNos,\r\n        uint256[] memory ticketSeatNos,\r\n        uint256 price\r\n    ) external {\r\n        require(\r\n            msg.sender == organizer,\r\n            \"Only the organizer can release tickets.\"\r\n        );\r\n        require(\r\n            ticketSectionNos.length == ticketSeatNos.length,\r\n            \"Section and seat numbers must match.\"\r\n        );\r\n\r\n        for (uint256 i = 0; i < ticketSectionNos.length; i++) {\r\n            ticketContract.createTicket(\r\n                concertId,\r\n                concertName,\r\n                concertVenue,\r\n                concertDate,\r\n                ticketSectionNos[i],\r\n                ticketSeatNos[i],\r\n                price\r\n            );\r\n        }\r\n    }\r\n\r\n    // Placeholder for the function signature. You need to implement integration with the Ticket contract.\r\n    function selectAvailableTicket(uint256 selectedTicketId) public {\r\n        // Check if the ticket is available\r\n        // Assuming Ticket contract has a method to check this (ticketContract.isTicketAvailable(ticketId))\r\n        /*require(\r\n            ticketContract.isTicketAvailable(selectedTicketId),\r\n            \"Ticket is not available.\"\r\n        );*/\r\n\r\n        // Transfer the ticket to the caller\r\n        // Assuming Ticket contract has a method to handle this (ticketContract.transferTicket(ticketId, msg.sender))\r\n        ticketContract.transfer(selectedTicketId, msg.sender, ticketContract.getPrice(selectedTicketId));\r\n    }\r\n}\r\n\r\n// Assume PriorityQueue and LoyaltyPoints contracts are correctly imported and initialized\r\n\r\n// Additional functions related to priority queue management, loyalty points check, etc.\r\n",
  "sourcePath": "C:\\Users\\tngjo\\OneDrive\\Desktop\\GitHub\\IS4302-Decentralized-Event-Ticketing-System\\contracts\\PresaleMarket.sol",
  "compiler": {
    "name": "solc",
    "version": "0.8.0+commit.c7dfd78e.Emscripten.clang"
  },
  "schemaVersion": "3.4.16",
  "updatedAt": "2024-03-26T05:04:39.315Z",
  "devdoc": {
    "kind": "dev",
    "methods": {},
    "version": 1
  },
  "userdoc": {
    "kind": "user",
    "methods": {},
    "version": 1
  }
}