{
  "contractName": "PresaleMarket",
  "abi": [
    {
      "inputs": [
        {
          "internalType": "address",
          "name": "_priorityQueue",
          "type": "address"
        },
        {
          "internalType": "address",
          "name": "_ticketContract",
          "type": "address"
        },
        {
          "internalType": "address",
          "name": "_loyaltyPointsContract",
          "type": "address"
        }
      ],
      "stateMutability": "nonpayable",
      "type": "constructor"
    },
    {
      "inputs": [],
      "name": "loyaltyPointsContract",
      "outputs": [
        {
          "internalType": "contract LoyaltyPoints",
          "name": "",
          "type": "address"
        }
      ],
      "stateMutability": "view",
      "type": "function"
    },
    {
      "inputs": [],
      "name": "organizer",
      "outputs": [
        {
          "internalType": "address",
          "name": "",
          "type": "address"
        }
      ],
      "stateMutability": "view",
      "type": "function"
    },
    {
      "inputs": [],
      "name": "priorityQueue",
      "outputs": [
        {
          "internalType": "contract PriorityQueue",
          "name": "",
          "type": "address"
        }
      ],
      "stateMutability": "view",
      "type": "function"
    },
    {
      "inputs": [],
      "name": "ticketContract",
      "outputs": [
        {
          "internalType": "contract Ticket",
          "name": "",
          "type": "address"
        }
      ],
      "stateMutability": "view",
      "type": "function"
    },
    {
      "inputs": [
        {
          "internalType": "uint256",
          "name": "concertId",
          "type": "uint256"
        },
        {
          "internalType": "string",
          "name": "concertName",
          "type": "string"
        },
        {
          "internalType": "string",
          "name": "concertVenue",
          "type": "string"
        },
        {
          "internalType": "uint256",
          "name": "concertDate",
          "type": "uint256"
        },
        {
          "internalType": "string",
          "name": "ticketCategory",
          "type": "string"
        },
        {
          "internalType": "uint256[]",
          "name": "ticketSectionNos",
          "type": "uint256[]"
        },
        {
          "internalType": "uint256[]",
          "name": "ticketSeatNos",
          "type": "uint256[]"
        },
        {
          "internalType": "uint256",
          "name": "price",
          "type": "uint256"
        }
      ],
      "name": "releaseTickets",
      "outputs": [],
      "stateMutability": "nonpayable",
      "type": "function"
    }
  ],
  "bytecode": "0x608060405234801561001057600080fd5b50604051610d59380380610d5983398181016040528101906100329190610152565b336000806101000a81548173ffffffffffffffffffffffffffffffffffffffff021916908373ffffffffffffffffffffffffffffffffffffffff16021790555082600160006101000a81548173ffffffffffffffffffffffffffffffffffffffff021916908373ffffffffffffffffffffffffffffffffffffffff16021790555081600260006101000a81548173ffffffffffffffffffffffffffffffffffffffff021916908373ffffffffffffffffffffffffffffffffffffffff16021790555080600360006101000a81548173ffffffffffffffffffffffffffffffffffffffff021916908373ffffffffffffffffffffffffffffffffffffffff1602179055505050506101ea565b60008151905061014c816101d3565b92915050565b60008060006060848603121561016757600080fd5b60006101758682870161013d565b93505060206101868682870161013d565b92505060406101978682870161013d565b9150509250925092565b60006101ac826101b3565b9050919050565b600073ffffffffffffffffffffffffffffffffffffffff82169050919050565b6101dc816101a1565b81146101e757600080fd5b50565b610b60806101f96000396000f3fe608060405234801561001057600080fd5b50600436106100575760003560e01c80630770ed761461005c5780630fafe2901461007a57806358a86e1d1461009857806361203265146100b65780638ae0a192146100d4575b600080fd5b6100646100f0565b60405161007191906107bf565b60405180910390f35b610082610116565b60405161008f91906107a4565b60405180910390f35b6100a061013c565b6040516100ad91906107da565b60405180910390f35b6100be610162565b6040516100cb9190610789565b60405180910390f35b6100ee60048036038101906100e9919061050f565b610186565b005b600160009054906101000a900473ffffffffffffffffffffffffffffffffffffffff1681565b600360009054906101000a900473ffffffffffffffffffffffffffffffffffffffff1681565b600260009054906101000a900473ffffffffffffffffffffffffffffffffffffffff1681565b60008054906101000a900473ffffffffffffffffffffffffffffffffffffffff1681565b60008054906101000a900473ffffffffffffffffffffffffffffffffffffffff1673ffffffffffffffffffffffffffffffffffffffff163373ffffffffffffffffffffffffffffffffffffffff1614610214576040517f08c379a000000000000000000000000000000000000000000000000000000000815260040161020b906107f5565b60405180910390fd5b8151835114610258576040517f08c379a000000000000000000000000000000000000000000000000000000000815260040161024f90610815565b60405180910390fd5b60005b83518110156103b357600260009054906101000a900473ffffffffffffffffffffffffffffffffffffffff1673ffffffffffffffffffffffffffffffffffffffff166307f44b8b8a8a8a8a8a8a88815181106102e0577f4e487b7100000000000000000000000000000000000000000000000000000000600052603260045260246000fd5b60200260200101518a8981518110610321577f4e487b7100000000000000000000000000000000000000000000000000000000600052603260045260246000fd5b60200260200101518a6040518963ffffffff1660e01b815260040161034d989796959493929190610835565b602060405180830381600087803b15801561036757600080fd5b505af115801561037b573d6000803e3d6000fd5b505050506040513d601f19601f8201168201806040525081019061039f91906104e6565b5080806103ab90610a5b565b91505061025b565b505050505050505050565b60006103d16103cc846108f9565b6108c8565b905080838252602082019050828560208602820111156103f057600080fd5b60005b85811015610420578161040688826104bc565b8452602084019350602083019250506001810190506103f3565b5050509392505050565b600061043d61043884610925565b6108c8565b90508281526020810184848401111561045557600080fd5b610460848285610a19565b509392505050565b600082601f83011261047957600080fd5b81356104898482602086016103be565b91505092915050565b600082601f8301126104a357600080fd5b81356104b384826020860161042a565b91505092915050565b6000813590506104cb81610b13565b92915050565b6000815190506104e081610b13565b92915050565b6000602082840312156104f857600080fd5b6000610506848285016104d1565b91505092915050565b600080600080600080600080610100898b03121561052c57600080fd5b600061053a8b828c016104bc565b985050602089013567ffffffffffffffff81111561055757600080fd5b6105638b828c01610492565b975050604089013567ffffffffffffffff81111561058057600080fd5b61058c8b828c01610492565b965050606061059d8b828c016104bc565b955050608089013567ffffffffffffffff8111156105ba57600080fd5b6105c68b828c01610492565b94505060a089013567ffffffffffffffff8111156105e357600080fd5b6105ef8b828c01610468565b93505060c089013567ffffffffffffffff81111561060c57600080fd5b6106188b828c01610468565b92505060e06106298b828c016104bc565b9150509295985092959890939650565b61064281610971565b82525050565b610651816109ad565b82525050565b610660816109d1565b82525050565b61066f816109f5565b82525050565b600061068082610955565b61068a8185610960565b935061069a818560208601610a28565b6106a381610b02565b840191505092915050565b60006106bb602783610960565b91507f4f6e6c7920746865206f7267616e697a65722063616e2072656c65617365207460008301527f69636b6574732e000000000000000000000000000000000000000000000000006020830152604082019050919050565b6000610721602483610960565b91507f53656374696f6e20616e642073656174206e756d62657273206d757374206d6160008301527f7463682e000000000000000000000000000000000000000000000000000000006020830152604082019050919050565b610783816109a3565b82525050565b600060208201905061079e6000830184610639565b92915050565b60006020820190506107b96000830184610648565b92915050565b60006020820190506107d46000830184610657565b92915050565b60006020820190506107ef6000830184610666565b92915050565b6000602082019050818103600083015261080e816106ae565b9050919050565b6000602082019050818103600083015261082e81610714565b9050919050565b60006101008201905061084b600083018b61077a565b818103602083015261085d818a610675565b905081810360408301526108718189610675565b9050610880606083018861077a565b81810360808301526108928187610675565b90506108a160a083018661077a565b6108ae60c083018561077a565b6108bb60e083018461077a565b9998505050505050505050565b6000604051905081810181811067ffffffffffffffff821117156108ef576108ee610ad3565b5b8060405250919050565b600067ffffffffffffffff82111561091457610913610ad3565b5b602082029050602081019050919050565b600067ffffffffffffffff8211156109405761093f610ad3565b5b601f19601f8301169050602081019050919050565b600081519050919050565b600082825260208201905092915050565b600061097c82610983565b9050919050565b600073ffffffffffffffffffffffffffffffffffffffff82169050919050565b6000819050919050565b60006109b8826109bf565b9050919050565b60006109ca82610983565b9050919050565b60006109dc826109e3565b9050919050565b60006109ee82610983565b9050919050565b6000610a0082610a07565b9050919050565b6000610a1282610983565b9050919050565b82818337600083830152505050565b60005b83811015610a46578082015181840152602081019050610a2b565b83811115610a55576000848401525b50505050565b6000610a66826109a3565b91507fffffffffffffffffffffffffffffffffffffffffffffffffffffffffffffffff821415610a9957610a98610aa4565b5b600182019050919050565b7f4e487b7100000000000000000000000000000000000000000000000000000000600052601160045260246000fd5b7f4e487b7100000000000000000000000000000000000000000000000000000000600052604160045260246000fd5b6000601f19601f8301169050919050565b610b1c816109a3565b8114610b2757600080fd5b5056fea2646970667358221220515832dd370c4aabe291ce24a48c7d7d2b43051a72c2342e66b26a10d640cdf964736f6c63430008000033",
  "immutableReferences": {},
  "source": "// SPDX-License-Identifier: MIT\r\npragma solidity ^0.8.0;\r\n\r\nimport \"./PriorityQueue.sol\";\r\nimport \"./Ticket.sol\";\r\nimport \"./LoyaltyPoints.sol\";\r\n\r\ncontract PresaleMarket {\r\n    address public organizer;\r\n    PriorityQueue public priorityQueue;\r\n    Ticket public ticketContract;\r\n    LoyaltyPoints public loyaltyPointsContract;\r\n\r\n    constructor(\r\n        address _priorityQueue,\r\n        address _ticketContract,\r\n        address _loyaltyPointsContract\r\n    ) {\r\n        organizer = msg.sender;\r\n        priorityQueue = PriorityQueue(_priorityQueue);\r\n        ticketContract = Ticket(_ticketContract);\r\n        loyaltyPointsContract = LoyaltyPoints(_loyaltyPointsContract);\r\n    }\r\n\r\n    modifier onlyOrganizer() {\r\n        require(msg.sender == organizer, \"Caller is not the organizer\");\r\n        _;\r\n    }\r\n\r\n    // Consider a scenario where certain details (like concert ID, name, venue, and date) are consistent for all tickets being released\r\n    // Category, section, and seat numbers could vary\r\n    function releaseTickets(\r\n        uint256 concertId,\r\n        string memory concertName,\r\n        string memory concertVenue,\r\n        uint256 concertDate,\r\n        string memory ticketCategory,\r\n        uint256[] memory ticketSectionNos,\r\n        uint256[] memory ticketSeatNos,\r\n        uint256 price\r\n    ) external {\r\n        require(\r\n            msg.sender == organizer,\r\n            \"Only the organizer can release tickets.\"\r\n        );\r\n        require(\r\n            ticketSectionNos.length == ticketSeatNos.length,\r\n            \"Section and seat numbers must match.\"\r\n        );\r\n\r\n        for (uint256 i = 0; i < ticketSectionNos.length; i++) {\r\n            ticketContract.createTicket(\r\n                concertId,\r\n                concertName,\r\n                concertVenue,\r\n                concertDate,\r\n                ticketCategory,\r\n                ticketSectionNos[i],\r\n                ticketSeatNos[i],\r\n                price\r\n            );\r\n        }\r\n    }\r\n\r\n    /*function buyTicket() external {\r\n        uint256 buyerLoyaltyPoints = loyaltyPointsContract.getPoints(\r\n            msg.sender\r\n        );\r\n        require(\r\n            priorityQueue.isInQueue(msg.sender, buyerLoyaltyPoints),\r\n            \"Buyer is not in priority queue.\"\r\n        );\r\n\r\n        // Simulate priority queue pop operation for the highest priority buyer\r\n        address highestPriorityBuyer = priorityQueue.popHighestPriorityBuyer();\r\n        require(\r\n            msg.sender == highestPriorityBuyer,\r\n            \"It's not your turn to buy a ticket yet.\"\r\n        );\r\n\r\n        // Assuming a function in Ticket contract to handle ticket purchase\r\n        ticketContract.purchaseTicket(msg.sender);\r\n\r\n        // Update priority queue after purchase\r\n        // This might involve recalculating loyalty points or adjusting queue positions\r\n    }\r\n*/\r\n    // Additional functions related to priority queue management, loyalty points check, etc.\r\n}\r\n",
  "sourcePath": "C:\\Users\\tngjo\\OneDrive\\Desktop\\GitHub\\IS4302-Decentralized-Event-Ticketing-System\\contracts\\PresaleMarket.sol",
  "compiler": {
    "name": "solc",
    "version": "0.8.0+commit.c7dfd78e.Emscripten.clang"
  },
  "schemaVersion": "3.4.16",
  "updatedAt": "2024-03-23T15:56:58.748Z",
  "devdoc": {
    "kind": "dev",
    "methods": {},
    "version": 1
  },
  "userdoc": {
    "kind": "user",
    "methods": {},
    "version": 1
  }
}