{
  "contractName": "PresaleMarket",
  "abi": [
    {
      "inputs": [
        {
          "internalType": "address",
          "name": "_priorityQueueAddress",
          "type": "address"
        },
        {
          "internalType": "address",
          "name": "_loyaltyPointsAddress",
          "type": "address"
        },
        {
          "internalType": "address",
          "name": "_ticketContractAddress",
          "type": "address"
        }
      ],
      "stateMutability": "nonpayable",
      "type": "constructor"
    },
    {
      "anonymous": false,
      "inputs": [
        {
          "indexed": false,
          "internalType": "uint256",
          "name": "ticketPrice",
          "type": "uint256"
        }
      ],
      "name": "CorrectPaymentAmount",
      "type": "event"
    },
    {
      "anonymous": false,
      "inputs": [
        {
          "indexed": false,
          "internalType": "address",
          "name": "buyer",
          "type": "address"
        },
        {
          "indexed": false,
          "internalType": "uint256",
          "name": "concertId",
          "type": "uint256"
        }
      ],
      "name": "EligibleToBuy",
      "type": "event"
    },
    {
      "anonymous": false,
      "inputs": [
        {
          "indexed": true,
          "internalType": "uint256",
          "name": "concertId",
          "type": "uint256"
        },
        {
          "indexed": false,
          "internalType": "string",
          "name": "concertName",
          "type": "string"
        },
        {
          "indexed": false,
          "internalType": "string",
          "name": "concertVenue",
          "type": "string"
        },
        {
          "indexed": false,
          "internalType": "uint256",
          "name": "concertDate",
          "type": "uint256"
        },
        {
          "indexed": false,
          "internalType": "uint256",
          "name": "price",
          "type": "uint256"
        }
      ],
      "name": "EventCreated",
      "type": "event"
    },
    {
      "anonymous": false,
      "inputs": [
        {
          "indexed": true,
          "internalType": "uint256",
          "name": "concertId",
          "type": "uint256"
        },
        {
          "indexed": true,
          "internalType": "uint256",
          "name": "ticketId",
          "type": "uint256"
        }
      ],
      "name": "TicketAssignedToEvent",
      "type": "event"
    },
    {
      "anonymous": false,
      "inputs": [
        {
          "indexed": false,
          "internalType": "uint256",
          "name": "concertId",
          "type": "uint256"
        },
        {
          "indexed": false,
          "internalType": "uint256",
          "name": "ticketId",
          "type": "uint256"
        }
      ],
      "name": "TicketCreated",
      "type": "event"
    },
    {
      "anonymous": false,
      "inputs": [
        {
          "indexed": true,
          "internalType": "uint256",
          "name": "ticketId",
          "type": "uint256"
        },
        {
          "indexed": true,
          "internalType": "address",
          "name": "buyer",
          "type": "address"
        }
      ],
      "name": "TicketPurchased",
      "type": "event"
    },
    {
      "anonymous": false,
      "inputs": [
        {
          "indexed": false,
          "internalType": "uint256",
          "name": "concertId",
          "type": "uint256"
        }
      ],
      "name": "TicketReleasedForSale",
      "type": "event"
    },
    {
      "anonymous": false,
      "inputs": [
        {
          "indexed": false,
          "internalType": "address",
          "name": "buyer",
          "type": "address"
        },
        {
          "indexed": false,
          "internalType": "uint256",
          "name": "concertId",
          "type": "uint256"
        }
      ],
      "name": "TicketTransferred",
      "type": "event"
    },
    {
      "inputs": [
        {
          "internalType": "uint256",
          "name": "",
          "type": "uint256"
        }
      ],
      "name": "events",
      "outputs": [
        {
          "internalType": "uint256",
          "name": "concertId",
          "type": "uint256"
        },
        {
          "internalType": "string",
          "name": "concertName",
          "type": "string"
        },
        {
          "internalType": "string",
          "name": "concertVenue",
          "type": "string"
        },
        {
          "internalType": "uint256",
          "name": "concertDate",
          "type": "uint256"
        },
        {
          "internalType": "uint256",
          "name": "price",
          "type": "uint256"
        },
        {
          "internalType": "bool",
          "name": "ticketsReleased",
          "type": "bool"
        }
      ],
      "stateMutability": "view",
      "type": "function"
    },
    {
      "inputs": [],
      "name": "loyaltyPoints",
      "outputs": [
        {
          "internalType": "contract LoyaltyPoints",
          "name": "",
          "type": "address"
        }
      ],
      "stateMutability": "view",
      "type": "function"
    },
    {
      "inputs": [],
      "name": "organizer",
      "outputs": [
        {
          "internalType": "address",
          "name": "",
          "type": "address"
        }
      ],
      "stateMutability": "view",
      "type": "function"
    },
    {
      "inputs": [],
      "name": "presaleMarketAddress",
      "outputs": [
        {
          "internalType": "address",
          "name": "",
          "type": "address"
        }
      ],
      "stateMutability": "view",
      "type": "function"
    },
    {
      "inputs": [],
      "name": "priorityQueue",
      "outputs": [
        {
          "internalType": "contract PriorityQueue",
          "name": "",
          "type": "address"
        }
      ],
      "stateMutability": "view",
      "type": "function"
    },
    {
      "inputs": [],
      "name": "ticketContract",
      "outputs": [
        {
          "internalType": "contract Ticket",
          "name": "",
          "type": "address"
        }
      ],
      "stateMutability": "view",
      "type": "function"
    },
    {
      "inputs": [
        {
          "internalType": "uint256",
          "name": "concertId",
          "type": "uint256"
        },
        {
          "internalType": "string",
          "name": "concertName",
          "type": "string"
        },
        {
          "internalType": "string",
          "name": "concertVenue",
          "type": "string"
        },
        {
          "internalType": "uint256",
          "name": "concertDate",
          "type": "uint256"
        },
        {
          "internalType": "uint256",
          "name": "price",
          "type": "uint256"
        }
      ],
      "name": "createEvent",
      "outputs": [],
      "stateMutability": "nonpayable",
      "type": "function"
    },
    {
      "inputs": [
        {
          "internalType": "uint256",
          "name": "concertId",
          "type": "uint256"
        },
        {
          "internalType": "uint256[]",
          "name": "ticketIds",
          "type": "uint256[]"
        }
      ],
      "name": "addTicketsToEvent",
      "outputs": [],
      "stateMutability": "nonpayable",
      "type": "function"
    },
    {
      "inputs": [
        {
          "internalType": "uint256",
          "name": "concertId",
          "type": "uint256"
        }
      ],
      "name": "releaseTicket",
      "outputs": [],
      "stateMutability": "nonpayable",
      "type": "function"
    },
    {
      "inputs": [
        {
          "internalType": "uint256",
          "name": "concertId",
          "type": "uint256"
        },
        {
          "internalType": "string",
          "name": "concertName",
          "type": "string"
        },
        {
          "internalType": "string",
          "name": "concertVenue",
          "type": "string"
        },
        {
          "internalType": "uint256",
          "name": "concertDate",
          "type": "uint256"
        },
        {
          "internalType": "uint256[]",
          "name": "ticketSectionNos",
          "type": "uint256[]"
        },
        {
          "internalType": "uint256[]",
          "name": "ticketSeatNos",
          "type": "uint256[]"
        },
        {
          "internalType": "uint256",
          "name": "price",
          "type": "uint256"
        }
      ],
      "name": "releaseTickets",
      "outputs": [],
      "stateMutability": "nonpayable",
      "type": "function"
    },
    {
      "inputs": [
        {
          "internalType": "uint256",
          "name": "concertId",
          "type": "uint256"
        },
        {
          "internalType": "uint256",
          "name": "ticketId",
          "type": "uint256"
        }
      ],
      "name": "buyTicket",
      "outputs": [],
      "stateMutability": "payable",
      "type": "function"
    },
    {
      "inputs": [
        {
          "internalType": "uint256",
          "name": "_concertId",
          "type": "uint256"
        }
      ],
      "name": "getEventDetails",
      "outputs": [
        {
          "internalType": "uint256",
          "name": "concertId",
          "type": "uint256"
        },
        {
          "internalType": "string",
          "name": "concertName",
          "type": "string"
        },
        {
          "internalType": "string",
          "name": "concertVenue",
          "type": "string"
        },
        {
          "internalType": "uint256",
          "name": "concertDate",
          "type": "uint256"
        },
        {
          "internalType": "uint256",
          "name": "price",
          "type": "uint256"
        },
        {
          "internalType": "bool",
          "name": "ticketsReleased",
          "type": "bool"
        }
      ],
      "stateMutability": "view",
      "type": "function"
    },
    {
      "inputs": [
        {
          "internalType": "uint256",
          "name": "concertId",
          "type": "uint256"
        }
      ],
      "name": "getTicketOwner",
      "outputs": [
        {
          "internalType": "address",
          "name": "",
          "type": "address"
        }
      ],
      "stateMutability": "view",
      "type": "function"
    }
  ],
  "bytecode": "0x60806040523480156200001157600080fd5b50604051620023ea380380620023ea83398181016040528101906200003791906200015a565b33600160006101000a81548173ffffffffffffffffffffffffffffffffffffffff021916908373ffffffffffffffffffffffffffffffffffffffff16021790555082600260006101000a81548173ffffffffffffffffffffffffffffffffffffffff021916908373ffffffffffffffffffffffffffffffffffffffff16021790555081600360006101000a81548173ffffffffffffffffffffffffffffffffffffffff021916908373ffffffffffffffffffffffffffffffffffffffff160217905550806000806101000a81548173ffffffffffffffffffffffffffffffffffffffff021916908373ffffffffffffffffffffffffffffffffffffffff160217905550505050620001fe565b6000815190506200015481620001e4565b92915050565b6000806000606084860312156200017057600080fd5b6000620001808682870162000143565b9350506020620001938682870162000143565b9250506040620001a68682870162000143565b9150509250925092565b6000620001bd82620001c4565b9050919050565b600073ffffffffffffffffffffffffffffffffffffffff82169050919050565b620001ef81620001b0565b8114620001fb57600080fd5b50565b6121dc806200020e6000396000f3fe6080604052600436106100c25760003560e01c80635b73c1311161007f578063ad09340911610059578063ad0934091461024e578063c2294b981461028b578063d4ae775b146102b4578063ec38d5a0146102dd576100c2565b80635b73c131146101cd57806361203265146101f8578063956a20ea14610223576100c2565b80630770ed76146100c75780630b791430146100f2578063298ec208146101345780632bf09541146101505780634d3da32e1461017957806358a86e1d146101a2575b600080fd5b3480156100d357600080fd5b506100dc61031f565b6040516100e99190611b9c565b60405180910390f35b3480156100fe57600080fd5b5061011960048036038101906101149190611482565b610345565b60405161012b96959493929190611da0565b60405180910390f35b61014e600480360381019061014991906116cd565b61049e565b005b34801561015c57600080fd5b5061017760048036038101906101729190611482565b61065c565b005b34801561018557600080fd5b506101a0600480360381019061019b9190611626565b610849565b005b3480156101ae57600080fd5b506101b7610a3b565b6040516101c49190611bb7565b60405180910390f35b3480156101d957600080fd5b506101e2610a5f565b6040516101ef9190611b66565b60405180910390f35b34801561020457600080fd5b5061020d610a85565b60405161021a9190611b66565b60405180910390f35b34801561022f57600080fd5b50610238610aab565b6040516102459190611b81565b60405180910390f35b34801561025a57600080fd5b5061027560048036038101906102709190611482565b610ad1565b6040516102829190611b66565b60405180910390f35b34801561029757600080fd5b506102b260048036038101906102ad91906114d4565b610c37565b005b3480156102c057600080fd5b506102db60048036038101906102d69190611528565b610e91565b005b3480156102e957600080fd5b5061030460048036038101906102ff9190611482565b6110c6565b60405161031696959493929190611da0565b60405180910390f35b600260009054906101000a900473ffffffffffffffffffffffffffffffffffffffff1681565b600560205280600052604060002060009150905080600001549080600101805461036e9061205f565b80601f016020809104026020016040519081016040528092919081815260200182805461039a9061205f565b80156103e75780601f106103bc576101008083540402835291602001916103e7565b820191906000526020600020905b8154815290600101906020018083116103ca57829003601f168201915b5050505050908060020180546103fc9061205f565b80601f01602080910402602001604051908101604052809291908181526020018280546104289061205f565b80156104755780601f1061044a57610100808354040283529160200191610475565b820191906000526020600020905b81548152906001019060200180831161045857829003601f168201915b5050505050908060030154908060040154908060050160009054906101000a900460ff16905086565b6005600083815260200190815260200160002060050160009054906101000a900460ff16610501576040517f08c379a00000000000000000000000000000000000000000000000000000000081526004016104f890611ca5565b60405180910390fd5b6000600260009054906101000a900473ffffffffffffffffffffffffffffffffffffffff1673ffffffffffffffffffffffffffffffffffffffff16630b8be3736040518163ffffffff1660e01b8152600401604080518083038186803b15801561056a57600080fd5b505afa15801561057e573d6000803e3d6000fd5b505050506040513d601f19601f820116820180604052508101906105a29190611446565b5090508073ffffffffffffffffffffffffffffffffffffffff163373ffffffffffffffffffffffffffffffffffffffff1614610613576040517f08c379a000000000000000000000000000000000000000000000000000000000815260040161060a90611c25565b60405180910390fd5b3373ffffffffffffffffffffffffffffffffffffffff16827f785f2865353ae960010300f584fc6c577b757a853af69a99c769df3c8232d3de60405160405180910390a3505050565b600160009054906101000a900473ffffffffffffffffffffffffffffffffffffffff1673ffffffffffffffffffffffffffffffffffffffff163373ffffffffffffffffffffffffffffffffffffffff16146106ec576040517f08c379a00000000000000000000000000000000000000000000000000000000081526004016106e390611d25565b60405180910390fd5b62093a8060056000838152602001908152602001600020600301546107119190611f35565b421015610753576040517f08c379a000000000000000000000000000000000000000000000000000000000815260040161074a90611c65565b60405180910390fd5b6005600082815260200190815260200160002060050160009054906101000a900460ff16156107b7576040517f08c379a00000000000000000000000000000000000000000000000000000000081526004016107ae90611c45565b60405180910390fd5b600060056000838152602001908152602001600020600301541415610811576040517f08c379a000000000000000000000000000000000000000000000000000000000815260040161080890611cc5565b60405180910390fd5b600060056000838152602001908152602001600020905060018160050160006101000a81548160ff0219169083151502179055505050565b600160009054906101000a900473ffffffffffffffffffffffffffffffffffffffff1673ffffffffffffffffffffffffffffffffffffffff163373ffffffffffffffffffffffffffffffffffffffff16146108d9576040517f08c379a00000000000000000000000000000000000000000000000000000000081526004016108d090611d25565b60405180910390fd5b6000600560008781526020019081526020016000206003015414610932576040517f08c379a000000000000000000000000000000000000000000000000000000000815260040161092990611d65565b60405180910390fd5b60006040518060c0016040528087815260200186815260200185815260200184815260200183815260200160001515815250905080600560008881526020019081526020016000206000820151816000015560208201518160010190805190602001906109a092919061123d565b5060408201518160020190805190602001906109bd92919061123d565b50606082015181600301556080820151816004015560a08201518160050160006101000a81548160ff021916908315150217905550905050857f8adea626209d0af8d49e7468de5d791f31e70ff7eae4b45efcd80dc9044bafef86868686604051610a2b9493929190611bd2565b60405180910390a2505050505050565b60008054906101000a900473ffffffffffffffffffffffffffffffffffffffff1681565b600460009054906101000a900473ffffffffffffffffffffffffffffffffffffffff1681565b600160009054906101000a900473ffffffffffffffffffffffffffffffffffffffff1681565b600360009054906101000a900473ffffffffffffffffffffffffffffffffffffffff1681565b600080600660008481526020019081526020016000208054905011610b2b576040517f08c379a0000000000000000000000000000000000000000000000000000000008152600401610b2290611d05565b60405180910390fd5b600060066000848152602001908152602001600020600081548110610b79577f4e487b7100000000000000000000000000000000000000000000000000000000600052603260045260246000fd5b9060005260206000200154905060008054906101000a900473ffffffffffffffffffffffffffffffffffffffff1673ffffffffffffffffffffffffffffffffffffffff1663c41a360a826040518263ffffffff1660e01b8152600401610bdf9190611d85565b60206040518083038186803b158015610bf757600080fd5b505afa158015610c0b573d6000803e3d6000fd5b505050506040513d601f19601f82011682018060405250810190610c2f919061141d565b915050919050565b600160009054906101000a900473ffffffffffffffffffffffffffffffffffffffff1673ffffffffffffffffffffffffffffffffffffffff163373ffffffffffffffffffffffffffffffffffffffff1614610cc7576040517f08c379a0000000000000000000000000000000000000000000000000000000008152600401610cbe90611d25565b60405180910390fd5b600060056000848152602001908152602001600020600301541415610d21576040517f08c379a0000000000000000000000000000000000000000000000000000000008152600401610d1890611cc5565b60405180910390fd5b6005600083815260200190815260200160002060050160009054906101000a900460ff1615610d85576040517f08c379a0000000000000000000000000000000000000000000000000000000008152600401610d7c90611d45565b60405180910390fd5b60005b8151811015610e8c5760066000848152602001908152602001600020828281518110610ddd577f4e487b7100000000000000000000000000000000000000000000000000000000600052603260045260246000fd5b60200260200101519080600181540180825580915050600190039060005260206000200160009091909190915055818181518110610e44577f4e487b7100000000000000000000000000000000000000000000000000000000600052603260045260246000fd5b6020026020010151837fae396884f8c28fe2ffd1aa9d72dc9db949fcd7626dce923a1b23c521586a01ef60405160405180910390a38080610e8490612091565b915050610d88565b505050565b600160009054906101000a900473ffffffffffffffffffffffffffffffffffffffff1673ffffffffffffffffffffffffffffffffffffffff163373ffffffffffffffffffffffffffffffffffffffff1614610f21576040517f08c379a0000000000000000000000000000000000000000000000000000000008152600401610f1890611c85565b60405180910390fd5b8151835114610f65576040517f08c379a0000000000000000000000000000000000000000000000000000000008152600401610f5c90611ce5565b60405180910390fd5b60005b83518110156110bc5760008054906101000a900473ffffffffffffffffffffffffffffffffffffffff1673ffffffffffffffffffffffffffffffffffffffff1663fe8b766b89898989898781518110610fea577f4e487b7100000000000000000000000000000000000000000000000000000000600052603260045260246000fd5b602002602001015189888151811061102b577f4e487b7100000000000000000000000000000000000000000000000000000000600052603260045260246000fd5b6020026020010151896040518863ffffffff1660e01b81526004016110569796959493929190611e0f565b602060405180830381600087803b15801561107057600080fd5b505af1158015611084573d6000803e3d6000fd5b505050506040513d601f19601f820116820180604052508101906110a891906114ab565b5080806110b490612091565b915050610f68565b5050505050505050565b600060608060008060008060056000898152602001908152602001600020905080600001548160010182600201836003015484600401548560050160009054906101000a900460ff1684805461111b9061205f565b80601f01602080910402602001604051908101604052809291908181526020018280546111479061205f565b80156111945780601f1061116957610100808354040283529160200191611194565b820191906000526020600020905b81548152906001019060200180831161117757829003601f168201915b505050505094508380546111a79061205f565b80601f01602080910402602001604051908101604052809291908181526020018280546111d39061205f565b80156112205780601f106111f557610100808354040283529160200191611220565b820191906000526020600020905b81548152906001019060200180831161120357829003601f168201915b505050505093509650965096509650965096505091939550919395565b8280546112499061205f565b90600052602060002090601f01602090048101928261126b57600085556112b2565b82601f1061128457805160ff19168380011785556112b2565b828001600101855582156112b2579182015b828111156112b1578251825591602001919060010190611296565b5b5090506112bf91906112c3565b5090565b5b808211156112dc5760008160009055506001016112c4565b5090565b60006112f36112ee84611ebd565b611e8c565b9050808382526020820190508285602086028201111561131257600080fd5b60005b85811015611342578161132888826113f3565b845260208401935060208301925050600181019050611315565b5050509392505050565b600061135f61135a84611ee9565b611e8c565b90508281526020810184848401111561137757600080fd5b61138284828561201d565b509392505050565b60008151905061139981612178565b92915050565b600082601f8301126113b057600080fd5b81356113c08482602086016112e0565b91505092915050565b600082601f8301126113da57600080fd5b81356113ea84826020860161134c565b91505092915050565b6000813590506114028161218f565b92915050565b6000815190506114178161218f565b92915050565b60006020828403121561142f57600080fd5b600061143d8482850161138a565b91505092915050565b6000806040838503121561145957600080fd5b60006114678582860161138a565b925050602061147885828601611408565b9150509250929050565b60006020828403121561149457600080fd5b60006114a2848285016113f3565b91505092915050565b6000602082840312156114bd57600080fd5b60006114cb84828501611408565b91505092915050565b600080604083850312156114e757600080fd5b60006114f5858286016113f3565b925050602083013567ffffffffffffffff81111561151257600080fd5b61151e8582860161139f565b9150509250929050565b600080600080600080600060e0888a03121561154357600080fd5b60006115518a828b016113f3565b975050602088013567ffffffffffffffff81111561156e57600080fd5b61157a8a828b016113c9565b965050604088013567ffffffffffffffff81111561159757600080fd5b6115a38a828b016113c9565b95505060606115b48a828b016113f3565b945050608088013567ffffffffffffffff8111156115d157600080fd5b6115dd8a828b0161139f565b93505060a088013567ffffffffffffffff8111156115fa57600080fd5b6116068a828b0161139f565b92505060c06116178a828b016113f3565b91505092959891949750929550565b600080600080600060a0868803121561163e57600080fd5b600061164c888289016113f3565b955050602086013567ffffffffffffffff81111561166957600080fd5b611675888289016113c9565b945050604086013567ffffffffffffffff81111561169257600080fd5b61169e888289016113c9565b93505060606116af888289016113f3565b92505060806116c0888289016113f3565b9150509295509295909350565b600080604083850312156116e057600080fd5b60006116ee858286016113f3565b92505060206116ff858286016113f3565b9150509250929050565b61171281611f69565b82525050565b61172181611f7b565b82525050565b61173081611fb1565b82525050565b61173f81611fd5565b82525050565b61174e81611ff9565b82525050565b600061175f82611f19565b6117698185611f24565b935061177981856020860161202c565b61178281612167565b840191505092915050565b600061179a603583611f24565b91507f596f7520646f206e6f742068617665207468652068696768657374207072696f60008301527f7269747920746f206275792061207469636b65742e00000000000000000000006020830152604082019050919050565b6000611800603283611f24565b91507f5469636b65747320666f722074686973206576656e74206861766520616c726560008301527f616479206265656e2072656c65617365642e00000000000000000000000000006020830152604082019050919050565b6000611866603583611f24565b91507f5469636b6574732063616e206f6e6c792062652072656c65617365642031207760008301527f65656b206265666f726520746865206576656e742e00000000000000000000006020830152604082019050919050565b60006118cc602783611f24565b91507f4f6e6c7920746865206f7267616e697a65722063616e2072656c65617365207460008301527f69636b6574732e000000000000000000000000000000000000000000000000006020830152604082019050919050565b6000611932602883611f24565b91507f5469636b657473206e6f74207965742072656c656173656420666f722074686960008301527f73206576656e742e0000000000000000000000000000000000000000000000006020830152604082019050919050565b6000611998601583611f24565b91507f4576656e7420646f6573206e6f742065786973742e00000000000000000000006000830152602082019050919050565b60006119d8602483611f24565b91507f53656374696f6e20616e642073656174206e756d62657273206d757374206d6160008301527f7463682e000000000000000000000000000000000000000000000000000000006020830152604082019050919050565b6000611a3e601b83611f24565b91507f4e6f207469636b65747320666f72207468697320636f6e6365727400000000006000830152602082019050919050565b6000611a7e601b83611f24565b91507f43616c6c6572206973206e6f7420746865206f7267616e697a657200000000006000830152602082019050919050565b6000611abe602883611f24565b91507f5469636b65747320616c72656164792072656c656173656420666f722074686960008301527f73206576656e742e0000000000000000000000000000000000000000000000006020830152604082019050919050565b6000611b24601583611f24565b91507f4576656e7420616c7265616479206578697374732e00000000000000000000006000830152602082019050919050565b611b6081611fa7565b82525050565b6000602082019050611b7b6000830184611709565b92915050565b6000602082019050611b966000830184611727565b92915050565b6000602082019050611bb16000830184611736565b92915050565b6000602082019050611bcc6000830184611745565b92915050565b60006080820190508181036000830152611bec8187611754565b90508181036020830152611c008186611754565b9050611c0f6040830185611b57565b611c1c6060830184611b57565b95945050505050565b60006020820190508181036000830152611c3e8161178d565b9050919050565b60006020820190508181036000830152611c5e816117f3565b9050919050565b60006020820190508181036000830152611c7e81611859565b9050919050565b60006020820190508181036000830152611c9e816118bf565b9050919050565b60006020820190508181036000830152611cbe81611925565b9050919050565b60006020820190508181036000830152611cde8161198b565b9050919050565b60006020820190508181036000830152611cfe816119cb565b9050919050565b60006020820190508181036000830152611d1e81611a31565b9050919050565b60006020820190508181036000830152611d3e81611a71565b9050919050565b60006020820190508181036000830152611d5e81611ab1565b9050919050565b60006020820190508181036000830152611d7e81611b17565b9050919050565b6000602082019050611d9a6000830184611b57565b92915050565b600060c082019050611db56000830189611b57565b8181036020830152611dc78188611754565b90508181036040830152611ddb8187611754565b9050611dea6060830186611b57565b611df76080830185611b57565b611e0460a0830184611718565b979650505050505050565b600060e082019050611e24600083018a611b57565b8181036020830152611e368189611754565b90508181036040830152611e4a8188611754565b9050611e596060830187611b57565b611e666080830186611b57565b611e7360a0830185611b57565b611e8060c0830184611b57565b98975050505050505050565b6000604051905081810181811067ffffffffffffffff82111715611eb357611eb2612138565b5b8060405250919050565b600067ffffffffffffffff821115611ed857611ed7612138565b5b602082029050602081019050919050565b600067ffffffffffffffff821115611f0457611f03612138565b5b601f19601f8301169050602081019050919050565b600081519050919050565b600082825260208201905092915050565b6000611f4082611fa7565b9150611f4b83611fa7565b925082821015611f5e57611f5d6120da565b5b828203905092915050565b6000611f7482611f87565b9050919050565b60008115159050919050565b600073ffffffffffffffffffffffffffffffffffffffff82169050919050565b6000819050919050565b6000611fbc82611fc3565b9050919050565b6000611fce82611f87565b9050919050565b6000611fe082611fe7565b9050919050565b6000611ff282611f87565b9050919050565b60006120048261200b565b9050919050565b600061201682611f87565b9050919050565b82818337600083830152505050565b60005b8381101561204a57808201518184015260208101905061202f565b83811115612059576000848401525b50505050565b6000600282049050600182168061207757607f821691505b6020821081141561208b5761208a612109565b5b50919050565b600061209c82611fa7565b91507fffffffffffffffffffffffffffffffffffffffffffffffffffffffffffffffff8214156120cf576120ce6120da565b5b600182019050919050565b7f4e487b7100000000000000000000000000000000000000000000000000000000600052601160045260246000fd5b7f4e487b7100000000000000000000000000000000000000000000000000000000600052602260045260246000fd5b7f4e487b7100000000000000000000000000000000000000000000000000000000600052604160045260246000fd5b6000601f19601f8301169050919050565b61218181611f69565b811461218c57600080fd5b50565b61219881611fa7565b81146121a357600080fd5b5056fea26469706673582212206b411927125c91d8c2f26511df93f3e3afaf4ca0906a45654b47ec4616b4db7164736f6c63430008000033",
  "immutableReferences": {},
  "source": "// SPDX-License-Identifier: MIT\r\npragma solidity ^0.8.0;\r\n\r\nimport \"./PriorityQueue.sol\";\r\nimport \"./Ticket.sol\";\r\nimport \"./LoyaltyPoints.sol\";\r\n\r\ncontract PresaleMarket {\r\n    Ticket public ticketContract;\r\n    address public organizer;\r\n    PriorityQueue public priorityQueue;\r\n    LoyaltyPoints public loyaltyPoints;\r\n    address public presaleMarketAddress;\r\n\r\n    struct EventDetails {\r\n        uint256 concertId;\r\n        string concertName;\r\n        string concertVenue;\r\n        uint256 concertDate;\r\n        uint256 price;\r\n        bool ticketsReleased;\r\n    }\r\n\r\n    // Mapping from concert ID to event details.\r\n    mapping(uint256 => EventDetails) public events;\r\n\r\n    // Mapping from concert ID to list of ticket IDs.\r\n    mapping(uint256 => uint256[]) private concertToTickets;\r\n\r\n    constructor(\r\n        address _priorityQueueAddress,\r\n        address _loyaltyPointsAddress,\r\n        address _ticketContractAddress\r\n    ) {\r\n        organizer = msg.sender;\r\n        priorityQueue = PriorityQueue(_priorityQueueAddress);\r\n        loyaltyPoints = LoyaltyPoints(_loyaltyPointsAddress);\r\n        ticketContract = Ticket(_ticketContractAddress);\r\n    }\r\n\r\n    modifier onlyOrganizer() {\r\n        require(msg.sender == organizer, \"Caller is not the organizer\");\r\n        _;\r\n    }\r\n\r\n    // To allow Presale Market to be an authorized caller\r\n    modifier onlyOrganizerOrPresaleMarket() {\r\n        require(\r\n            msg.sender == organizer || msg.sender == presaleMarketAddress,\r\n            \"Caller is not authorized\"\r\n        );\r\n        _;\r\n    }\r\n\r\n    event EventCreated(\r\n        uint256 indexed concertId,\r\n        string concertName,\r\n        string concertVenue,\r\n        uint256 concertDate,\r\n        uint256 price\r\n    );\r\n\r\n    event TicketAssignedToEvent(\r\n        uint256 indexed concertId,\r\n        uint256 indexed ticketId\r\n    );\r\n\r\n    event TicketPurchased(uint256 indexed ticketId, address indexed buyer);\r\n\r\n    event TicketCreated(uint256 concertId, uint256 ticketId);\r\n    event EligibleToBuy(address buyer, uint256 concertId);\r\n\r\n    // Create an event without immediately creating tickets\r\n    function createEvent(\r\n        uint256 concertId,\r\n        string memory concertName,\r\n        string memory concertVenue,\r\n        uint256 concertDate,\r\n        uint256 price\r\n    ) public onlyOrganizer {\r\n        require(events[concertId].concertDate == 0, \"Event already exists.\");\r\n\r\n        EventDetails memory newEvent = EventDetails({\r\n            concertId: concertId,\r\n            concertName: concertName,\r\n            concertVenue: concertVenue,\r\n            concertDate: concertDate,\r\n            price: price,\r\n            ticketsReleased: false\r\n        });\r\n\r\n        events[concertId] = newEvent;\r\n        emit EventCreated(\r\n            concertId,\r\n            concertName,\r\n            concertVenue,\r\n            concertDate,\r\n            price\r\n        );\r\n    }\r\n\r\n    // Function to add tickets to an event\r\n    function addTicketsToEvent(\r\n        uint256 concertId,\r\n        uint256[] memory ticketIds\r\n    ) public onlyOrganizer {\r\n        require(events[concertId].concertDate != 0, \"Event does not exist.\");\r\n        require(\r\n            !events[concertId].ticketsReleased,\r\n            \"Tickets already released for this event.\"\r\n        );\r\n\r\n        for (uint256 i = 0; i < ticketIds.length; i++) {\r\n            concertToTickets[concertId].push(ticketIds[i]);\r\n            emit TicketAssignedToEvent(concertId, ticketIds[i]);\r\n        }\r\n    }\r\n\r\n    // Consider a scenario where certain details (like concert ID, name, venue, and date) are consistent for all tickets being released\r\n    // Only Category, section, & seat numbers could vary\r\n    // Release ticket 1 week before the actual date\r\n    function releaseTicket(uint256 concertId) public onlyOrganizer {\r\n        require(\r\n            block.timestamp >= events[concertId].concertDate - 1 weeks,\r\n            \"Tickets can only be released 1 week before the event.\"\r\n        );\r\n        require(\r\n            !events[concertId].ticketsReleased,\r\n            \"Tickets for this event have already been released.\"\r\n        );\r\n\r\n        require(events[concertId].concertDate != 0, \"Event does not exist.\");\r\n\r\n        EventDetails storage eventDetail = events[concertId];\r\n        eventDetail.ticketsReleased = true;\r\n    }\r\n\r\n    // Consider a scenario where certain details (like concert ID, name, venue, and date) are consistent for all tickets being released\r\n    // Category, section, and seat numbers could vary\r\n    function releaseTickets(\r\n        uint256 concertId,\r\n        string memory concertName,\r\n        string memory concertVenue,\r\n        uint256 concertDate,\r\n        uint256[] memory ticketSectionNos,\r\n        uint256[] memory ticketSeatNos,\r\n        uint256 price\r\n    ) external {\r\n        require(\r\n            msg.sender == organizer,\r\n            \"Only the organizer can release tickets.\"\r\n        );\r\n        require(\r\n            ticketSectionNos.length == ticketSeatNos.length,\r\n            \"Section and seat numbers must match.\"\r\n        );\r\n\r\n        for (uint256 i = 0; i < ticketSectionNos.length; i++) {\r\n            ticketContract.createTicket(\r\n                concertId,\r\n                concertName,\r\n                concertVenue,\r\n                concertDate,\r\n                ticketSectionNos[i],\r\n                ticketSeatNos[i],\r\n                price\r\n            );\r\n        }\r\n    }\r\n\r\n    event TicketReleasedForSale(uint256 concertId);\r\n    event CorrectPaymentAmount(uint256 ticketPrice);\r\n    event TicketTransferred(address buyer, uint256 concertId);\r\n\r\n    // The buyTicket function allowing users with the highest priority to purchase tickets\r\n    function buyTicket(uint256 concertId, uint256 ticketId) external payable {\r\n        require(\r\n            events[concertId].ticketsReleased,\r\n            \"Tickets not yet released for this event.\"\r\n        );\r\n\r\n        (address highestPriorityBuyer, ) = priorityQueue.peekHighestPriority();\r\n        require(\r\n            msg.sender == highestPriorityBuyer,\r\n            \"You do not have the highest priority to buy a ticket.\"\r\n        );\r\n\r\n        // Need to fix this part, breaks the test\r\n        //uint256 ticketPrice = ticketContract.getPrice(ticketId);\r\n        //require(msg.value == ticketPrice, \"Incorrect payment amount.\");\r\n\r\n        //ticketContract.transfer(ticketId, msg.sender, ticketPrice);\r\n        emit TicketPurchased(ticketId, msg.sender);\r\n\r\n\r\n        // Need to fix this part, breaks the test\r\n        //loyaltyPoints.addLoyaltyPoints(msg.sender, 10); // Example: award 10 loyalty points per ticket purchase\r\n        //priorityQueue.dequeue(); // Remove the buyer with the highest priority after the purchase\r\n    }\r\n\r\n    //Getters\r\n    function getEventDetails(\r\n        uint256 _concertId\r\n    )\r\n        public\r\n        view\r\n        returns (\r\n            uint256 concertId,\r\n            string memory concertName,\r\n            string memory concertVenue,\r\n            uint256 concertDate,\r\n            uint256 price,\r\n            bool ticketsReleased\r\n        )\r\n    {\r\n        EventDetails storage eventDetail = events[_concertId];\r\n        return (\r\n            eventDetail.concertId,\r\n            eventDetail.concertName,\r\n            eventDetail.concertVenue,\r\n            eventDetail.concertDate,\r\n            eventDetail.price,\r\n            eventDetail.ticketsReleased\r\n        );\r\n    }\r\n\r\n    function getTicketOwner(uint256 concertId) public view returns (address) {\r\n        require(\r\n            concertToTickets[concertId].length > 0,\r\n            \"No tickets for this concert\"\r\n        );\r\n        // Get the first ticket ID for the concert\r\n        uint256 ticketId = concertToTickets[concertId][0];\r\n        // Use the Ticket contract to find the owner of the ticket\r\n        return ticketContract.getOwner(ticketId);\r\n    }\r\n}\r\n",
  "sourcePath": "C:\\Users\\tngjo\\OneDrive\\Desktop\\GitHub\\IS4302-Decentralized-Event-Ticketing-System\\contracts\\PresaleMarket.sol",
  "compiler": {
    "name": "solc",
    "version": "0.8.0+commit.c7dfd78e.Emscripten.clang"
  },
  "schemaVersion": "3.4.16",
  "updatedAt": "2024-03-26T17:07:05.132Z",
  "devdoc": {
    "kind": "dev",
    "methods": {},
    "version": 1
  },
  "userdoc": {
    "kind": "user",
    "methods": {},
    "version": 1
  }
}