{
  "contractName": "PresaleMarket",
  "abi": [
    {
      "inputs": [
        {
          "internalType": "address",
          "name": "_priorityQueueAddress",
          "type": "address"
        },
        {
          "internalType": "address",
          "name": "_loyaltyPointsAddress",
          "type": "address"
        },
        {
          "internalType": "address",
          "name": "_ticketContractAddress",
          "type": "address"
        }
      ],
      "stateMutability": "nonpayable",
      "type": "constructor"
    },
    {
      "anonymous": false,
      "inputs": [
        {
          "indexed": false,
          "internalType": "uint256",
          "name": "ticketPrice",
          "type": "uint256"
        }
      ],
      "name": "CorrectPaymentAmount",
      "type": "event"
    },
    {
      "anonymous": false,
      "inputs": [
        {
          "indexed": true,
          "internalType": "uint256",
          "name": "concertId",
          "type": "uint256"
        },
        {
          "indexed": false,
          "internalType": "string",
          "name": "concertName",
          "type": "string"
        },
        {
          "indexed": false,
          "internalType": "string",
          "name": "concertVenue",
          "type": "string"
        },
        {
          "indexed": false,
          "internalType": "uint256",
          "name": "concertDate",
          "type": "uint256"
        },
        {
          "indexed": false,
          "internalType": "uint256",
          "name": "price",
          "type": "uint256"
        }
      ],
      "name": "EventCreated",
      "type": "event"
    },
    {
      "anonymous": false,
      "inputs": [
        {
          "indexed": true,
          "internalType": "uint256",
          "name": "concertId",
          "type": "uint256"
        },
        {
          "indexed": true,
          "internalType": "uint256",
          "name": "ticketId",
          "type": "uint256"
        }
      ],
      "name": "TicketAssignedToEvent",
      "type": "event"
    },
    {
      "anonymous": false,
      "inputs": [
        {
          "indexed": true,
          "internalType": "uint256",
          "name": "ticketId",
          "type": "uint256"
        },
        {
          "indexed": true,
          "internalType": "address",
          "name": "buyer",
          "type": "address"
        }
      ],
      "name": "TicketPurchased",
      "type": "event"
    },
    {
      "anonymous": false,
      "inputs": [
        {
          "indexed": true,
          "internalType": "uint256",
          "name": "ticketId",
          "type": "uint256"
        },
        {
          "indexed": true,
          "internalType": "address",
          "name": "redeemer",
          "type": "address"
        }
      ],
      "name": "TicketRedeemed",
      "type": "event"
    },
    {
      "anonymous": false,
      "inputs": [
        {
          "indexed": false,
          "internalType": "address",
          "name": "buyer",
          "type": "address"
        },
        {
          "indexed": false,
          "internalType": "uint256",
          "name": "concertId",
          "type": "uint256"
        }
      ],
      "name": "TicketTransferred",
      "type": "event"
    },
    {
      "inputs": [
        {
          "internalType": "uint256",
          "name": "",
          "type": "uint256"
        },
        {
          "internalType": "uint256",
          "name": "",
          "type": "uint256"
        }
      ],
      "name": "concertToTicketIds",
      "outputs": [
        {
          "internalType": "uint256",
          "name": "",
          "type": "uint256"
        }
      ],
      "stateMutability": "view",
      "type": "function"
    },
    {
      "inputs": [
        {
          "internalType": "uint256",
          "name": "",
          "type": "uint256"
        }
      ],
      "name": "events",
      "outputs": [
        {
          "internalType": "uint256",
          "name": "concertId",
          "type": "uint256"
        },
        {
          "internalType": "string",
          "name": "concertName",
          "type": "string"
        },
        {
          "internalType": "string",
          "name": "concertVenue",
          "type": "string"
        },
        {
          "internalType": "uint256",
          "name": "concertDate",
          "type": "uint256"
        },
        {
          "internalType": "uint256",
          "name": "price",
          "type": "uint256"
        },
        {
          "internalType": "bool",
          "name": "ticketsReleased",
          "type": "bool"
        }
      ],
      "stateMutability": "view",
      "type": "function"
    },
    {
      "inputs": [],
      "name": "loyaltyPoints",
      "outputs": [
        {
          "internalType": "contract LoyaltyPoints",
          "name": "",
          "type": "address"
        }
      ],
      "stateMutability": "view",
      "type": "function"
    },
    {
      "inputs": [],
      "name": "organizer",
      "outputs": [
        {
          "internalType": "address",
          "name": "",
          "type": "address"
        }
      ],
      "stateMutability": "view",
      "type": "function"
    },
    {
      "inputs": [],
      "name": "priorityQueue",
      "outputs": [
        {
          "internalType": "contract PriorityQueue",
          "name": "",
          "type": "address"
        }
      ],
      "stateMutability": "view",
      "type": "function"
    },
    {
      "inputs": [],
      "name": "ticketContract",
      "outputs": [
        {
          "internalType": "contract Ticket",
          "name": "",
          "type": "address"
        }
      ],
      "stateMutability": "view",
      "type": "function"
    },
    {
      "inputs": [],
      "name": "ticketCounter",
      "outputs": [
        {
          "internalType": "uint256",
          "name": "",
          "type": "uint256"
        }
      ],
      "stateMutability": "view",
      "type": "function"
    },
    {
      "inputs": [
        {
          "internalType": "uint256",
          "name": "concertId",
          "type": "uint256"
        },
        {
          "internalType": "string",
          "name": "concertName",
          "type": "string"
        },
        {
          "internalType": "string",
          "name": "concertVenue",
          "type": "string"
        },
        {
          "internalType": "uint256",
          "name": "concertDate",
          "type": "uint256"
        },
        {
          "internalType": "uint256",
          "name": "price",
          "type": "uint256"
        }
      ],
      "name": "createEvent",
      "outputs": [],
      "stateMutability": "nonpayable",
      "type": "function"
    },
    {
      "inputs": [
        {
          "internalType": "uint256",
          "name": "concertId",
          "type": "uint256"
        },
        {
          "internalType": "string",
          "name": "concertName",
          "type": "string"
        },
        {
          "internalType": "string",
          "name": "concertVenue",
          "type": "string"
        },
        {
          "internalType": "uint256",
          "name": "concertDate",
          "type": "uint256"
        },
        {
          "internalType": "uint256",
          "name": "ticketSectionNo",
          "type": "uint256"
        },
        {
          "internalType": "uint256",
          "name": "ticketSeatNo",
          "type": "uint256"
        },
        {
          "internalType": "uint256",
          "name": "price",
          "type": "uint256"
        }
      ],
      "name": "createTicketAndAddToEvent",
      "outputs": [
        {
          "internalType": "uint256",
          "name": "",
          "type": "uint256"
        }
      ],
      "stateMutability": "nonpayable",
      "type": "function"
    },
    {
      "inputs": [
        {
          "internalType": "uint256",
          "name": "concertId",
          "type": "uint256"
        }
      ],
      "name": "releaseTicket",
      "outputs": [],
      "stateMutability": "nonpayable",
      "type": "function"
    },
    {
      "inputs": [
        {
          "internalType": "uint256",
          "name": "concertId",
          "type": "uint256"
        },
        {
          "internalType": "uint256",
          "name": "ticketId",
          "type": "uint256"
        }
      ],
      "name": "buyTicket",
      "outputs": [],
      "stateMutability": "payable",
      "type": "function"
    },
    {
      "inputs": [
        {
          "internalType": "uint256",
          "name": "ticketId",
          "type": "uint256"
        }
      ],
      "name": "redeemInPresaleMarket",
      "outputs": [],
      "stateMutability": "nonpayable",
      "type": "function"
    },
    {
      "inputs": [
        {
          "internalType": "uint256",
          "name": "_concertId",
          "type": "uint256"
        }
      ],
      "name": "getEventDetails",
      "outputs": [
        {
          "internalType": "uint256",
          "name": "concertId",
          "type": "uint256"
        },
        {
          "internalType": "string",
          "name": "concertName",
          "type": "string"
        },
        {
          "internalType": "string",
          "name": "concertVenue",
          "type": "string"
        },
        {
          "internalType": "uint256",
          "name": "concertDate",
          "type": "uint256"
        },
        {
          "internalType": "uint256",
          "name": "price",
          "type": "uint256"
        },
        {
          "internalType": "bool",
          "name": "ticketsReleased",
          "type": "bool"
        }
      ],
      "stateMutability": "view",
      "type": "function"
    },
    {
      "inputs": [
        {
          "internalType": "uint256",
          "name": "concertId",
          "type": "uint256"
        }
      ],
      "name": "getTicketOwner",
      "outputs": [
        {
          "internalType": "address",
          "name": "",
          "type": "address"
        }
      ],
      "stateMutability": "view",
      "type": "function"
    }
  ],
  "bytecode": "0x60806040523480156200001157600080fd5b506040516200280e3803806200280e83398181016040528101906200003791906200015a565b33600160006101000a81548173ffffffffffffffffffffffffffffffffffffffff021916908373ffffffffffffffffffffffffffffffffffffffff16021790555082600260006101000a81548173ffffffffffffffffffffffffffffffffffffffff021916908373ffffffffffffffffffffffffffffffffffffffff16021790555081600360006101000a81548173ffffffffffffffffffffffffffffffffffffffff021916908373ffffffffffffffffffffffffffffffffffffffff160217905550806000806101000a81548173ffffffffffffffffffffffffffffffffffffffff021916908373ffffffffffffffffffffffffffffffffffffffff160217905550505050620001fe565b6000815190506200015481620001e4565b92915050565b6000806000606084860312156200017057600080fd5b6000620001808682870162000143565b9350506020620001938682870162000143565b9250506040620001a68682870162000143565b9150509250925092565b6000620001bd82620001c4565b9050919050565b600073ffffffffffffffffffffffffffffffffffffffff82169050919050565b620001ef81620001b0565b8114620001fb57600080fd5b50565b612600806200020e6000396000f3fe6080604052600436106100dd5760003560e01c8063612032651161007f578063956a20ea11610059578063956a20ea146102a4578063ad093409146102cf578063d8641ac91461030c578063ec38d5a014610349576100dd565b8063612032651461021157806366c5e0fd1461023c5780638c4d59d014610279576100dd565b8063298ec208116100bb578063298ec208146101785780632bf09541146101945780634d3da32e146101bd57806358a86e1d146101e6576100dd565b806301dfeb1b146100e25780630770ed761461010b5780630b79143014610136575b600080fd5b3480156100ee57600080fd5b50610109600480360381019061010491906118fd565b61038b565b005b34801561011757600080fd5b506101206107f7565b60405161012d9190611f7f565b60405180910390f35b34801561014257600080fd5b5061015d600480360381019061015891906118fd565b61081d565b60405161016f969594939291906121ba565b60405180910390f35b610192600480360381019061018d9190611ac4565b610976565b005b3480156101a057600080fd5b506101bb60048036038101906101b691906118fd565b610de7565b005b3480156101c957600080fd5b506101e460048036038101906101df919061194f565b610fd4565b005b3480156101f257600080fd5b506101fb61116d565b6040516102089190611f9a565b60405180910390f35b34801561021d57600080fd5b50610226611191565b6040516102339190611f20565b60405180910390f35b34801561024857600080fd5b50610263600480360381019061025e91906119f6565b6111b7565b6040516102709190612168565b60405180910390f35b34801561028557600080fd5b5061028e6113d6565b60405161029b9190612168565b60405180910390f35b3480156102b057600080fd5b506102b96113dc565b6040516102c69190611f64565b60405180910390f35b3480156102db57600080fd5b506102f660048036038101906102f191906118fd565b611402565b6040516103039190611f20565b60405180910390f35b34801561031857600080fd5b50610333600480360381019061032e9190611ac4565b611568565b6040516103409190612168565b60405180910390f35b34801561035557600080fd5b50610370600480360381019061036b91906118fd565b611599565b604051610382969594939291906121ba565b60405180910390f35b3373ffffffffffffffffffffffffffffffffffffffff1660008054906101000a900473ffffffffffffffffffffffffffffffffffffffff1673ffffffffffffffffffffffffffffffffffffffff1663c41a360a836040518263ffffffff1660e01b81526004016103fb9190612168565b60206040518083038186803b15801561041357600080fd5b505afa158015610427573d6000803e3d6000fd5b505050506040513d601f19601f8201168201806040525081019061044b919061186f565b73ffffffffffffffffffffffffffffffffffffffff16146104a1576040517f08c379a000000000000000000000000000000000000000000000000000000000815260040161049890612128565b60405180910390fd5b60008060009054906101000a900473ffffffffffffffffffffffffffffffffffffffff1673ffffffffffffffffffffffffffffffffffffffff166316c15c0c836040518263ffffffff1660e01b81526004016104fd9190612168565b60206040518083038186803b15801561051557600080fd5b505afa158015610529573d6000803e3d6000fd5b505050506040513d601f19601f8201168201806040525081019061054d9190611926565b905080421015801561056c575062015180816105699190612323565b42105b6105ab576040517f08c379a00000000000000000000000000000000000000000000000000000000081526004016105a290612148565b60405180910390fd5b60008054906101000a900473ffffffffffffffffffffffffffffffffffffffff1673ffffffffffffffffffffffffffffffffffffffff166332d33cd0836040518263ffffffff1660e01b81526004016106049190612168565b60206040518083038186803b15801561061c57600080fd5b505afa158015610630573d6000803e3d6000fd5b505050506040513d601f19601f8201168201806040525081019061065491906118d4565b15610694576040517f08c379a000000000000000000000000000000000000000000000000000000000815260040161068b906120c8565b60405180910390fd5b60008054906101000a900473ffffffffffffffffffffffffffffffffffffffff1673ffffffffffffffffffffffffffffffffffffffff166315f59d7f836040518263ffffffff1660e01b81526004016106ed9190612168565b600060405180830381600087803b15801561070757600080fd5b505af115801561071b573d6000803e3d6000fd5b50505050600360009054906101000a900473ffffffffffffffffffffffffffffffffffffffff1673ffffffffffffffffffffffffffffffffffffffff1663e78622f033600a6040518363ffffffff1660e01b815260040161077d929190611f3b565b600060405180830381600087803b15801561079757600080fd5b505af11580156107ab573d6000803e3d6000fd5b505050503373ffffffffffffffffffffffffffffffffffffffff16827f716bb19bdc2c35c51f08204334d6e0362bbe5428bbda94d186a1f2c8fa87b10c60405160405180910390a35050565b600260009054906101000a900473ffffffffffffffffffffffffffffffffffffffff1681565b6005602052806000526040600020600091509050806000015490806001018054610846906124b5565b80601f0160208091040260200160405190810160405280929190818152602001828054610872906124b5565b80156108bf5780601f10610894576101008083540402835291602001916108bf565b820191906000526020600020905b8154815290600101906020018083116108a257829003601f168201915b5050505050908060020180546108d4906124b5565b80601f0160208091040260200160405190810160405280929190818152602001828054610900906124b5565b801561094d5780601f106109225761010080835404028352916020019161094d565b820191906000526020600020905b81548152906001019060200180831161093057829003601f168201915b5050505050908060030154908060040154908060050160009054906101000a900460ff16905086565b6005600083815260200190815260200160002060050160009054906101000a900460ff166109d9576040517f08c379a00000000000000000000000000000000000000000000000000000000081526004016109d090612088565b60405180910390fd5b6000600260009054906101000a900473ffffffffffffffffffffffffffffffffffffffff1673ffffffffffffffffffffffffffffffffffffffff16630b8be3736040518163ffffffff1660e01b8152600401604080518083038186803b158015610a4257600080fd5b505afa158015610a56573d6000803e3d6000fd5b505050506040513d601f19601f82011682018060405250810190610a7a9190611898565b5090508073ffffffffffffffffffffffffffffffffffffffff163373ffffffffffffffffffffffffffffffffffffffff1614610aeb576040517f08c379a0000000000000000000000000000000000000000000000000000000008152600401610ae290612008565b60405180910390fd5b60008060009054906101000a900473ffffffffffffffffffffffffffffffffffffffff1673ffffffffffffffffffffffffffffffffffffffff1663e7572230846040518263ffffffff1660e01b8152600401610b479190612168565b60206040518083038186803b158015610b5f57600080fd5b505afa158015610b73573d6000803e3d6000fd5b505050506040513d601f19601f82011682018060405250810190610b979190611926565b9050803414610bdb576040517f08c379a0000000000000000000000000000000000000000000000000000000008152600401610bd290612068565b60405180910390fd5b60008054906101000a900473ffffffffffffffffffffffffffffffffffffffff1673ffffffffffffffffffffffffffffffffffffffff1663f8548e368433846040518463ffffffff1660e01b8152600401610c3893929190612183565b600060405180830381600087803b158015610c5257600080fd5b505af1158015610c66573d6000803e3d6000fd5b505050503373ffffffffffffffffffffffffffffffffffffffff16837f785f2865353ae960010300f584fc6c577b757a853af69a99c769df3c8232d3de60405160405180910390a3600360009054906101000a900473ffffffffffffffffffffffffffffffffffffffff1673ffffffffffffffffffffffffffffffffffffffff1663e78622f033600a6040518363ffffffff1660e01b8152600401610d0c929190611f3b565b600060405180830381600087803b158015610d2657600080fd5b505af1158015610d3a573d6000803e3d6000fd5b50505050600260009054906101000a900473ffffffffffffffffffffffffffffffffffffffff1673ffffffffffffffffffffffffffffffffffffffff1663957908d16040518163ffffffff1660e01b8152600401602060405180830381600087803b158015610da857600080fd5b505af1158015610dbc573d6000803e3d6000fd5b505050506040513d601f19601f82011682018060405250810190610de0919061186f565b5050505050565b600160009054906101000a900473ffffffffffffffffffffffffffffffffffffffff1673ffffffffffffffffffffffffffffffffffffffff163373ffffffffffffffffffffffffffffffffffffffff1614610e77576040517f08c379a0000000000000000000000000000000000000000000000000000000008152600401610e6e90612108565b60405180910390fd5b62093a806005600083815260200190815260200160002060030154610e9c9190612379565b421015610ede576040517f08c379a0000000000000000000000000000000000000000000000000000000008152600401610ed590612048565b60405180910390fd5b6005600082815260200190815260200160002060050160009054906101000a900460ff1615610f42576040517f08c379a0000000000000000000000000000000000000000000000000000000008152600401610f3990612028565b60405180910390fd5b600060056000838152602001908152602001600020600301541415610f9c576040517f08c379a0000000000000000000000000000000000000000000000000000000008152600401610f93906120a8565b60405180910390fd5b600060056000838152602001908152602001600020905060018160050160006101000a81548160ff0219169083151502179055505050565b600160009054906101000a900473ffffffffffffffffffffffffffffffffffffffff1673ffffffffffffffffffffffffffffffffffffffff163373ffffffffffffffffffffffffffffffffffffffff1614611064576040517f08c379a000000000000000000000000000000000000000000000000000000000815260040161105b90612108565b60405180910390fd5b60006040518060c0016040528087815260200186815260200185815260200184815260200183815260200160001515815250905080600560008881526020019081526020016000206000820151816000015560208201518160010190805190602001906110d2929190611710565b5060408201518160020190805190602001906110ef929190611710565b50606082015181600301556080820151816004015560a08201518160050160006101000a81548160ff021916908315150217905550905050857f8adea626209d0af8d49e7468de5d791f31e70ff7eae4b45efcd80dc9044bafef8686868660405161115d9493929190611fb5565b60405180910390a2505050505050565b60008054906101000a900473ffffffffffffffffffffffffffffffffffffffff1681565b600160009054906101000a900473ffffffffffffffffffffffffffffffffffffffff1681565b6000600160009054906101000a900473ffffffffffffffffffffffffffffffffffffffff1673ffffffffffffffffffffffffffffffffffffffff163373ffffffffffffffffffffffffffffffffffffffff1614611249576040517f08c379a000000000000000000000000000000000000000000000000000000000815260040161124090612108565b60405180910390fd5b6000600560008a81526020019081526020016000206003015414156112a3576040517f08c379a000000000000000000000000000000000000000000000000000000000815260040161129a906120a8565b60405180910390fd5b60008060009054906101000a900473ffffffffffffffffffffffffffffffffffffffff1673ffffffffffffffffffffffffffffffffffffffff1663fe8b766b8a8a8a8a8a8a8a6040518863ffffffff1660e01b815260040161130b9796959493929190612229565b602060405180830381600087803b15801561132557600080fd5b505af1158015611339573d6000803e3d6000fd5b505050506040513d601f19601f8201168201806040525081019061135d9190611926565b9050600660008a815260200190815260200160002081908060018154018082558091505060019003906000526020600020016000909190919091505580897fae396884f8c28fe2ffd1aa9d72dc9db949fcd7626dce923a1b23c521586a01ef60405160405180910390a380915050979650505050505050565b60045481565b600360009054906101000a900473ffffffffffffffffffffffffffffffffffffffff1681565b60008060066000848152602001908152602001600020805490501161145c576040517f08c379a0000000000000000000000000000000000000000000000000000000008152600401611453906120e8565b60405180910390fd5b6000600660008481526020019081526020016000206000815481106114aa577f4e487b7100000000000000000000000000000000000000000000000000000000600052603260045260246000fd5b9060005260206000200154905060008054906101000a900473ffffffffffffffffffffffffffffffffffffffff1673ffffffffffffffffffffffffffffffffffffffff1663c41a360a826040518263ffffffff1660e01b81526004016115109190612168565b60206040518083038186803b15801561152857600080fd5b505afa15801561153c573d6000803e3d6000fd5b505050506040513d601f19601f82011682018060405250810190611560919061186f565b915050919050565b6006602052816000526040600020818154811061158457600080fd5b90600052602060002001600091509150505481565b600060608060008060008060056000898152602001908152602001600020905080600001548160010182600201836003015484600401548560050160009054906101000a900460ff168480546115ee906124b5565b80601f016020809104026020016040519081016040528092919081815260200182805461161a906124b5565b80156116675780601f1061163c57610100808354040283529160200191611667565b820191906000526020600020905b81548152906001019060200180831161164a57829003601f168201915b5050505050945083805461167a906124b5565b80601f01602080910402602001604051908101604052809291908181526020018280546116a6906124b5565b80156116f35780601f106116c8576101008083540402835291602001916116f3565b820191906000526020600020905b8154815290600101906020018083116116d657829003601f168201915b505050505093509650965096509650965096505091939550919395565b82805461171c906124b5565b90600052602060002090601f01602090048101928261173e5760008555611785565b82601f1061175757805160ff1916838001178555611785565b82800160010185558215611785579182015b82811115611784578251825591602001919060010190611769565b5b5090506117929190611796565b5090565b5b808211156117af576000816000905550600101611797565b5090565b60006117c66117c1846122d7565b6122a6565b9050828152602081018484840111156117de57600080fd5b6117e9848285612473565b509392505050565b60008151905061180081612585565b92915050565b6000815190506118158161259c565b92915050565b600082601f83011261182c57600080fd5b813561183c8482602086016117b3565b91505092915050565b600081359050611854816125b3565b92915050565b600081519050611869816125b3565b92915050565b60006020828403121561188157600080fd5b600061188f848285016117f1565b91505092915050565b600080604083850312156118ab57600080fd5b60006118b9858286016117f1565b92505060206118ca8582860161185a565b9150509250929050565b6000602082840312156118e657600080fd5b60006118f484828501611806565b91505092915050565b60006020828403121561190f57600080fd5b600061191d84828501611845565b91505092915050565b60006020828403121561193857600080fd5b60006119468482850161185a565b91505092915050565b600080600080600060a0868803121561196757600080fd5b600061197588828901611845565b955050602086013567ffffffffffffffff81111561199257600080fd5b61199e8882890161181b565b945050604086013567ffffffffffffffff8111156119bb57600080fd5b6119c78882890161181b565b93505060606119d888828901611845565b92505060806119e988828901611845565b9150509295509295909350565b600080600080600080600060e0888a031215611a1157600080fd5b6000611a1f8a828b01611845565b975050602088013567ffffffffffffffff811115611a3c57600080fd5b611a488a828b0161181b565b965050604088013567ffffffffffffffff811115611a6557600080fd5b611a718a828b0161181b565b9550506060611a828a828b01611845565b9450506080611a938a828b01611845565b93505060a0611aa48a828b01611845565b92505060c0611ab58a828b01611845565b91505092959891949750929550565b60008060408385031215611ad757600080fd5b6000611ae585828601611845565b9250506020611af685828601611845565b9150509250929050565b611b09816123ad565b82525050565b611b18816123bf565b82525050565b611b27816123f5565b82525050565b611b3681612419565b82525050565b611b458161243d565b82525050565b611b5481612461565b82525050565b6000611b6582612307565b611b6f8185612312565b9350611b7f818560208601612482565b611b8881612574565b840191505092915050565b6000611ba0603583612312565b91507f596f7520646f206e6f742068617665207468652068696768657374207072696f60008301527f7269747920746f206275792061207469636b65742e00000000000000000000006020830152604082019050919050565b6000611c06603283612312565b91507f5469636b65747320666f722074686973206576656e74206861766520616c726560008301527f616479206265656e2072656c65617365642e00000000000000000000000000006020830152604082019050919050565b6000611c6c603583612312565b91507f5469636b6574732063616e206f6e6c792062652072656c65617365642031207760008301527f65656b206265666f726520746865206576656e742e00000000000000000000006020830152604082019050919050565b6000611cd2601983612312565b91507f496e636f7272656374207061796d656e7420616d6f756e742e000000000000006000830152602082019050919050565b6000611d12602883612312565b91507f5469636b657473206e6f74207965742072656c656173656420666f722074686960008301527f73206576656e742e0000000000000000000000000000000000000000000000006020830152604082019050919050565b6000611d78601583612312565b91507f4576656e7420646f6573206e6f742065786973742e00000000000000000000006000830152602082019050919050565b6000611db8602083612312565b91507f5469636b65742068617320616c7265616479206265656e2072656465656d65646000830152602082019050919050565b6000611df8601b83612312565b91507f4e6f207469636b65747320666f72207468697320636f6e6365727400000000006000830152602082019050919050565b6000611e38601b83612312565b91507f43616c6c6572206973206e6f7420746865206f7267616e697a657200000000006000830152602082019050919050565b6000611e78601a83612312565b91507f596f7520646f206e6f74206f776e2074686973207469636b65740000000000006000830152602082019050919050565b6000611eb8602383612312565b91507f54686973207469636b65742063616e27742062652072656465656d656420746f60008301527f64617900000000000000000000000000000000000000000000000000000000006020830152604082019050919050565b611f1a816123eb565b82525050565b6000602082019050611f356000830184611b00565b92915050565b6000604082019050611f506000830185611b00565b611f5d6020830184611b4b565b9392505050565b6000602082019050611f796000830184611b1e565b92915050565b6000602082019050611f946000830184611b2d565b92915050565b6000602082019050611faf6000830184611b3c565b92915050565b60006080820190508181036000830152611fcf8187611b5a565b90508181036020830152611fe38186611b5a565b9050611ff26040830185611f11565b611fff6060830184611f11565b95945050505050565b6000602082019050818103600083015261202181611b93565b9050919050565b6000602082019050818103600083015261204181611bf9565b9050919050565b6000602082019050818103600083015261206181611c5f565b9050919050565b6000602082019050818103600083015261208181611cc5565b9050919050565b600060208201905081810360008301526120a181611d05565b9050919050565b600060208201905081810360008301526120c181611d6b565b9050919050565b600060208201905081810360008301526120e181611dab565b9050919050565b6000602082019050818103600083015261210181611deb565b9050919050565b6000602082019050818103600083015261212181611e2b565b9050919050565b6000602082019050818103600083015261214181611e6b565b9050919050565b6000602082019050818103600083015261216181611eab565b9050919050565b600060208201905061217d6000830184611f11565b92915050565b60006060820190506121986000830186611f11565b6121a56020830185611b00565b6121b26040830184611f11565b949350505050565b600060c0820190506121cf6000830189611f11565b81810360208301526121e18188611b5a565b905081810360408301526121f58187611b5a565b90506122046060830186611f11565b6122116080830185611f11565b61221e60a0830184611b0f565b979650505050505050565b600060e08201905061223e600083018a611f11565b81810360208301526122508189611b5a565b905081810360408301526122648188611b5a565b90506122736060830187611f11565b6122806080830186611f11565b61228d60a0830185611f11565b61229a60c0830184611f11565b98975050505050505050565b6000604051905081810181811067ffffffffffffffff821117156122cd576122cc612545565b5b8060405250919050565b600067ffffffffffffffff8211156122f2576122f1612545565b5b601f19601f8301169050602081019050919050565b600081519050919050565b600082825260208201905092915050565b600061232e826123eb565b9150612339836123eb565b9250827fffffffffffffffffffffffffffffffffffffffffffffffffffffffffffffffff0382111561236e5761236d6124e7565b5b828201905092915050565b6000612384826123eb565b915061238f836123eb565b9250828210156123a2576123a16124e7565b5b828203905092915050565b60006123b8826123cb565b9050919050565b60008115159050919050565b600073ffffffffffffffffffffffffffffffffffffffff82169050919050565b6000819050919050565b600061240082612407565b9050919050565b6000612412826123cb565b9050919050565b60006124248261242b565b9050919050565b6000612436826123cb565b9050919050565b60006124488261244f565b9050919050565b600061245a826123cb565b9050919050565b600061246c826123eb565b9050919050565b82818337600083830152505050565b60005b838110156124a0578082015181840152602081019050612485565b838111156124af576000848401525b50505050565b600060028204905060018216806124cd57607f821691505b602082108114156124e1576124e0612516565b5b50919050565b7f4e487b7100000000000000000000000000000000000000000000000000000000600052601160045260246000fd5b7f4e487b7100000000000000000000000000000000000000000000000000000000600052602260045260246000fd5b7f4e487b7100000000000000000000000000000000000000000000000000000000600052604160045260246000fd5b6000601f19601f8301169050919050565b61258e816123ad565b811461259957600080fd5b50565b6125a5816123bf565b81146125b057600080fd5b50565b6125bc816123eb565b81146125c757600080fd5b5056fea2646970667358221220ef4967369d953ec04ec087358d40929974801ab1dce448092e74a91ec04450f064736f6c63430008000033",
  "immutableReferences": {},
  "source": "// SPDX-License-Identifier: MIT\r\npragma solidity ^0.8.0;\r\n\r\nimport \"./PriorityQueue.sol\";\r\nimport \"./Ticket.sol\";\r\nimport \"./LoyaltyPoints.sol\";\r\n\r\ncontract PresaleMarket {\r\n    Ticket public ticketContract;\r\n    address public organizer;\r\n    PriorityQueue public priorityQueue;\r\n    LoyaltyPoints public loyaltyPoints;\r\n    uint256 public ticketCounter;\r\n\r\n    struct EventDetails {\r\n        uint256 concertId;\r\n        string concertName;\r\n        string concertVenue;\r\n        uint256 concertDate;\r\n        uint256 price;\r\n        bool ticketsReleased;\r\n    }\r\n\r\n    // Mapping from concert ID to event details.\r\n    mapping(uint256 => EventDetails) public events;\r\n\r\n    // Mapping from concert ID to list of ticket IDs.\r\n    mapping(uint256 => uint256[]) public concertToTicketIds;\r\n\r\n    constructor(\r\n        address _priorityQueueAddress,\r\n        address _loyaltyPointsAddress,\r\n        address _ticketContractAddress\r\n    ) {\r\n        organizer = msg.sender;\r\n        priorityQueue = PriorityQueue(_priorityQueueAddress);\r\n        loyaltyPoints = LoyaltyPoints(_loyaltyPointsAddress);\r\n        ticketContract = Ticket(_ticketContractAddress);\r\n    }\r\n\r\n    modifier onlyOrganizer() {\r\n        require(msg.sender == organizer, \"Caller is not the organizer\");\r\n        _;\r\n    }\r\n\r\n    event EventCreated(\r\n        uint256 indexed concertId,\r\n        string concertName,\r\n        string concertVenue,\r\n        uint256 concertDate,\r\n        uint256 price\r\n    );\r\n\r\n    event TicketAssignedToEvent(\r\n        uint256 indexed concertId,\r\n        uint256 indexed ticketId\r\n    );\r\n\r\n    event TicketPurchased(uint256 indexed ticketId, address indexed buyer);\r\n    event CorrectPaymentAmount(uint256 ticketPrice);\r\n    event TicketTransferred(address buyer, uint256 concertId);\r\n    event TicketRedeemed(uint256 indexed ticketId, address indexed redeemer);\r\n\r\n    // Create an event without immediately creating tickets\r\n    function createEvent(\r\n        uint256 concertId,\r\n        string memory concertName,\r\n        string memory concertVenue,\r\n        uint256 concertDate,\r\n        uint256 price\r\n    ) public onlyOrganizer {\r\n        EventDetails memory newEvent = EventDetails({\r\n            concertId: concertId,\r\n            concertName: concertName,\r\n            concertVenue: concertVenue,\r\n            concertDate: concertDate,\r\n            price: price,\r\n            ticketsReleased: false\r\n        });\r\n\r\n        events[concertId] = newEvent;\r\n        emit EventCreated(\r\n            concertId,\r\n            concertName,\r\n            concertVenue,\r\n            concertDate,\r\n            price\r\n        );\r\n    }\r\n\r\n    // Create ticket and automatically associate tickets with their event\r\n    function createTicketAndAddToEvent(\r\n        uint256 concertId,\r\n        string memory concertName,\r\n        string memory concertVenue,\r\n        uint256 concertDate,\r\n        uint256 ticketSectionNo,\r\n        uint256 ticketSeatNo,\r\n        uint256 price\r\n    ) public onlyOrganizer returns (uint256) {\r\n        // Ensure the event exists\r\n        require(events[concertId].concertDate != 0, \"Event does not exist.\");\r\n\r\n        uint256 newTicketId = ticketContract.createTicket(\r\n            concertId,\r\n            concertName,\r\n            concertVenue,\r\n            concertDate,\r\n            ticketSectionNo,\r\n            ticketSeatNo,\r\n            price\r\n        );\r\n\r\n        concertToTicketIds[concertId].push(newTicketId);\r\n        emit TicketAssignedToEvent(concertId, newTicketId);\r\n        return newTicketId;\r\n    }\r\n\r\n    function releaseTicket(uint256 concertId) public onlyOrganizer {\r\n        require(\r\n            block.timestamp >= events[concertId].concertDate - 1 weeks,\r\n            \"Tickets can only be released 1 week before the event.\"\r\n        );\r\n        require(\r\n            !events[concertId].ticketsReleased,\r\n            \"Tickets for this event have already been released.\"\r\n        );\r\n\r\n        require(events[concertId].concertDate != 0, \"Event does not exist.\");\r\n\r\n        EventDetails storage eventDetail = events[concertId];\r\n        eventDetail.ticketsReleased = true;\r\n    }\r\n\r\n    // The buyTicket function allowing users with the highest priority to purchase tickets\r\n    function buyTicket(uint256 concertId, uint256 ticketId) external payable {\r\n        require(\r\n            events[concertId].ticketsReleased,\r\n            \"Tickets not yet released for this event.\"\r\n        );\r\n\r\n        (address highestPriorityBuyer, ) = priorityQueue.peekHighestPriority();\r\n        require(\r\n            msg.sender == highestPriorityBuyer,\r\n            \"You do not have the highest priority to buy a ticket.\"\r\n        );\r\n\r\n        uint256 ticketPrice = ticketContract.getPrice(ticketId);\r\n        require(msg.value == ticketPrice, \"Incorrect payment amount.\");\r\n\r\n        ticketContract.transfer(ticketId, msg.sender, ticketPrice);\r\n        emit TicketPurchased(ticketId, msg.sender);\r\n\r\n        loyaltyPoints.addLoyaltyPoints(msg.sender, 10); //  Award 10 loyalty points per ticket purchase\r\n\r\n        // Include voting system here\r\n\r\n        priorityQueue.dequeue(); // Remove the buyer with the highest priority after the purchase\r\n    }\r\n\r\n    // Redeem a ticket for an event\r\n    function redeemInPresaleMarket(uint256 ticketId) external {\r\n        require(\r\n            ticketContract.getOwner(ticketId) == msg.sender,\r\n            \"You do not own this ticket\"\r\n        );\r\n\r\n        // Retrieve ticket details for verification\r\n        uint256 concertDate = ticketContract.getConcertDate(ticketId);\r\n\r\n        // Ensure the event is happening today\r\n        require(\r\n            block.timestamp >= concertDate &&\r\n                block.timestamp < concertDate + 1 days,\r\n            \"This ticket can't be redeemed today\"\r\n        );\r\n\r\n        // Check if the ticket has already been redeemed\r\n        require(\r\n            !ticketContract.isRedeemed(ticketId),\r\n            \"Ticket has already been redeemed\"\r\n        );\r\n\r\n        ticketContract.redeemTicket(ticketId);\r\n\r\n        // Award loyalty points\r\n        loyaltyPoints.addLoyaltyPoints(msg.sender, 10); // Awarding 10 loyalty points whenever the user redeems the ticket\r\n\r\n        emit TicketRedeemed(ticketId, msg.sender);\r\n    }\r\n\r\n    //Getters\r\n    function getEventDetails(\r\n        uint256 _concertId\r\n    )\r\n        public\r\n        view\r\n        returns (\r\n            uint256 concertId,\r\n            string memory concertName,\r\n            string memory concertVenue,\r\n            uint256 concertDate,\r\n            uint256 price,\r\n            bool ticketsReleased\r\n        )\r\n    {\r\n        EventDetails storage eventDetail = events[_concertId];\r\n        return (\r\n            eventDetail.concertId,\r\n            eventDetail.concertName,\r\n            eventDetail.concertVenue,\r\n            eventDetail.concertDate,\r\n            eventDetail.price,\r\n            eventDetail.ticketsReleased\r\n        );\r\n    }\r\n\r\n    function getTicketOwner(uint256 concertId) public view returns (address) {\r\n        require(\r\n            concertToTicketIds[concertId].length > 0,\r\n            \"No tickets for this concert\"\r\n        );\r\n        // Get the first ticket ID for the concert\r\n        uint256 ticketId = concertToTicketIds[concertId][0];\r\n        // Use the Ticket contract to find the owner of the ticket\r\n        return ticketContract.getOwner(ticketId);\r\n    }\r\n}",
  "sourcePath": "C:\\Users\\tngjo\\OneDrive\\Desktop\\GitHub\\IS4302-Decentralized-Event-Ticketing-System\\contracts\\PresaleMarket.sol",
  "compiler": {
    "name": "solc",
    "version": "0.8.0+commit.c7dfd78e.Emscripten.clang"
  },
  "schemaVersion": "3.4.16",
  "updatedAt": "2024-04-04T11:04:24.559Z",
  "devdoc": {
    "kind": "dev",
    "methods": {},
    "version": 1
  },
  "userdoc": {
    "kind": "user",
    "methods": {},
    "version": 1
  }
}