{
  "contractName": "PresaleMarket",
  "abi": [
    {
      "inputs": [
        {
          "internalType": "address",
          "name": "_priorityQueueAddress",
          "type": "address"
        },
        {
          "internalType": "address",
          "name": "_loyaltyPointsAddress",
          "type": "address"
        },
        {
          "internalType": "address",
          "name": "_ticketContractAddress",
          "type": "address"
        }
      ],
      "stateMutability": "nonpayable",
      "type": "constructor"
    },
    {
      "anonymous": false,
      "inputs": [
        {
          "indexed": false,
          "internalType": "uint256",
          "name": "ticketPrice",
          "type": "uint256"
        }
      ],
      "name": "CorrectPaymentAmount",
      "type": "event"
    },
    {
      "anonymous": false,
      "inputs": [
        {
          "indexed": false,
          "internalType": "string",
          "name": "message",
          "type": "string"
        },
        {
          "indexed": false,
          "internalType": "uint256",
          "name": "value",
          "type": "uint256"
        }
      ],
      "name": "Debug",
      "type": "event"
    },
    {
      "anonymous": false,
      "inputs": [
        {
          "indexed": true,
          "internalType": "uint256",
          "name": "concertId",
          "type": "uint256"
        },
        {
          "indexed": false,
          "internalType": "string",
          "name": "concertName",
          "type": "string"
        },
        {
          "indexed": false,
          "internalType": "string",
          "name": "concertVenue",
          "type": "string"
        },
        {
          "indexed": false,
          "internalType": "uint256",
          "name": "concertDate",
          "type": "uint256"
        },
        {
          "indexed": false,
          "internalType": "uint256",
          "name": "price",
          "type": "uint256"
        }
      ],
      "name": "EventCreated",
      "type": "event"
    },
    {
      "anonymous": false,
      "inputs": [
        {
          "indexed": true,
          "internalType": "uint256",
          "name": "concertId",
          "type": "uint256"
        },
        {
          "indexed": true,
          "internalType": "uint256",
          "name": "ticketId",
          "type": "uint256"
        }
      ],
      "name": "TicketAssignedToEvent",
      "type": "event"
    },
    {
      "anonymous": false,
      "inputs": [
        {
          "indexed": true,
          "internalType": "uint256",
          "name": "ticketId",
          "type": "uint256"
        },
        {
          "indexed": true,
          "internalType": "address",
          "name": "buyer",
          "type": "address"
        }
      ],
      "name": "TicketPurchased",
      "type": "event"
    },
    {
      "anonymous": false,
      "inputs": [
        {
          "indexed": false,
          "internalType": "address",
          "name": "buyer",
          "type": "address"
        },
        {
          "indexed": false,
          "internalType": "uint256",
          "name": "concertId",
          "type": "uint256"
        }
      ],
      "name": "TicketTransferred",
      "type": "event"
    },
    {
      "inputs": [
        {
          "internalType": "uint256",
          "name": "",
          "type": "uint256"
        },
        {
          "internalType": "uint256",
          "name": "",
          "type": "uint256"
        }
      ],
      "name": "concertToTicketIds",
      "outputs": [
        {
          "internalType": "uint256",
          "name": "",
          "type": "uint256"
        }
      ],
      "stateMutability": "view",
      "type": "function"
    },
    {
      "inputs": [
        {
          "internalType": "uint256",
          "name": "",
          "type": "uint256"
        }
      ],
      "name": "events",
      "outputs": [
        {
          "internalType": "uint256",
          "name": "concertId",
          "type": "uint256"
        },
        {
          "internalType": "string",
          "name": "concertName",
          "type": "string"
        },
        {
          "internalType": "string",
          "name": "concertVenue",
          "type": "string"
        },
        {
          "internalType": "uint256",
          "name": "concertDate",
          "type": "uint256"
        },
        {
          "internalType": "uint256",
          "name": "price",
          "type": "uint256"
        },
        {
          "internalType": "bool",
          "name": "ticketsReleased",
          "type": "bool"
        }
      ],
      "stateMutability": "view",
      "type": "function"
    },
    {
      "inputs": [],
      "name": "loyaltyPoints",
      "outputs": [
        {
          "internalType": "contract LoyaltyPoints",
          "name": "",
          "type": "address"
        }
      ],
      "stateMutability": "view",
      "type": "function"
    },
    {
      "inputs": [],
      "name": "organizer",
      "outputs": [
        {
          "internalType": "address",
          "name": "",
          "type": "address"
        }
      ],
      "stateMutability": "view",
      "type": "function"
    },
    {
      "inputs": [],
      "name": "priorityQueue",
      "outputs": [
        {
          "internalType": "contract PriorityQueue",
          "name": "",
          "type": "address"
        }
      ],
      "stateMutability": "view",
      "type": "function"
    },
    {
      "inputs": [],
      "name": "ticketContract",
      "outputs": [
        {
          "internalType": "contract Ticket",
          "name": "",
          "type": "address"
        }
      ],
      "stateMutability": "view",
      "type": "function"
    },
    {
      "inputs": [],
      "name": "ticketCounter",
      "outputs": [
        {
          "internalType": "uint256",
          "name": "",
          "type": "uint256"
        }
      ],
      "stateMutability": "view",
      "type": "function"
    },
    {
      "inputs": [
        {
          "internalType": "uint256",
          "name": "concertId",
          "type": "uint256"
        },
        {
          "internalType": "string",
          "name": "concertName",
          "type": "string"
        },
        {
          "internalType": "string",
          "name": "concertVenue",
          "type": "string"
        },
        {
          "internalType": "uint256",
          "name": "concertDate",
          "type": "uint256"
        },
        {
          "internalType": "uint256",
          "name": "price",
          "type": "uint256"
        }
      ],
      "name": "createEvent",
      "outputs": [],
      "stateMutability": "nonpayable",
      "type": "function"
    },
    {
      "inputs": [
        {
          "internalType": "uint256",
          "name": "concertId",
          "type": "uint256"
        },
        {
          "internalType": "string",
          "name": "concertName",
          "type": "string"
        },
        {
          "internalType": "string",
          "name": "concertVenue",
          "type": "string"
        },
        {
          "internalType": "uint256",
          "name": "concertDate",
          "type": "uint256"
        },
        {
          "internalType": "uint256",
          "name": "ticketSectionNo",
          "type": "uint256"
        },
        {
          "internalType": "uint256",
          "name": "ticketSeatNo",
          "type": "uint256"
        },
        {
          "internalType": "uint256",
          "name": "price",
          "type": "uint256"
        }
      ],
      "name": "createTicketAndAddToEvent",
      "outputs": [
        {
          "internalType": "uint256",
          "name": "",
          "type": "uint256"
        }
      ],
      "stateMutability": "nonpayable",
      "type": "function"
    },
    {
      "inputs": [
        {
          "internalType": "uint256",
          "name": "concertId",
          "type": "uint256"
        }
      ],
      "name": "releaseTicket",
      "outputs": [],
      "stateMutability": "nonpayable",
      "type": "function"
    },
    {
      "inputs": [
        {
          "internalType": "uint256",
          "name": "concertId",
          "type": "uint256"
        },
        {
          "internalType": "uint256",
          "name": "ticketId",
          "type": "uint256"
        }
      ],
      "name": "buyTicket",
      "outputs": [],
      "stateMutability": "payable",
      "type": "function"
    },
    {
      "inputs": [
        {
          "internalType": "uint256",
          "name": "_concertId",
          "type": "uint256"
        }
      ],
      "name": "getEventDetails",
      "outputs": [
        {
          "internalType": "uint256",
          "name": "concertId",
          "type": "uint256"
        },
        {
          "internalType": "string",
          "name": "concertName",
          "type": "string"
        },
        {
          "internalType": "string",
          "name": "concertVenue",
          "type": "string"
        },
        {
          "internalType": "uint256",
          "name": "concertDate",
          "type": "uint256"
        },
        {
          "internalType": "uint256",
          "name": "price",
          "type": "uint256"
        },
        {
          "internalType": "bool",
          "name": "ticketsReleased",
          "type": "bool"
        }
      ],
      "stateMutability": "view",
      "type": "function"
    },
    {
      "inputs": [
        {
          "internalType": "uint256",
          "name": "concertId",
          "type": "uint256"
        }
      ],
      "name": "getTicketOwner",
      "outputs": [
        {
          "internalType": "address",
          "name": "",
          "type": "address"
        }
      ],
      "stateMutability": "view",
      "type": "function"
    }
  ],
  "bytecode": "0x60806040523480156200001157600080fd5b5060405162001f3738038062001f3783398181016040528101906200003791906200015a565b33600160006101000a81548173ffffffffffffffffffffffffffffffffffffffff021916908373ffffffffffffffffffffffffffffffffffffffff16021790555082600260006101000a81548173ffffffffffffffffffffffffffffffffffffffff021916908373ffffffffffffffffffffffffffffffffffffffff16021790555081600360006101000a81548173ffffffffffffffffffffffffffffffffffffffff021916908373ffffffffffffffffffffffffffffffffffffffff160217905550806000806101000a81548173ffffffffffffffffffffffffffffffffffffffff021916908373ffffffffffffffffffffffffffffffffffffffff160217905550505050620001fe565b6000815190506200015481620001e4565b92915050565b6000806000606084860312156200017057600080fd5b6000620001808682870162000143565b9350506020620001938682870162000143565b9250506040620001a68682870162000143565b9150509250925092565b6000620001bd82620001c4565b9050919050565b600073ffffffffffffffffffffffffffffffffffffffff82169050919050565b620001ef81620001b0565b8114620001fb57600080fd5b50565b611d29806200020e6000396000f3fe6080604052600436106100c25760003560e01c8063612032651161007f578063956a20ea11610059578063956a20ea14610260578063ad0934091461028b578063d8641ac9146102c8578063ec38d5a014610305576100c2565b806361203265146101cd57806366c5e0fd146101f85780638c4d59d014610235576100c2565b80630770ed76146100c75780630b791430146100f2578063298ec208146101345780632bf09541146101505780634d3da32e1461017957806358a86e1d146101a2575b600080fd5b3480156100d357600080fd5b506100dc610347565b6040516100e99190611790565b60405180910390f35b3480156100fe57600080fd5b50610119600480360381019061011491906111ec565b61036d565b60405161012b96959493929190611962565b60405180910390f35b61014e600480360381019061014991906113b3565b6104c6565b005b34801561015c57600080fd5b50610177600480360381019061017291906111ec565b610684565b005b34801561018557600080fd5b506101a0600480360381019061019b919061123e565b610871565b005b3480156101ae57600080fd5b506101b7610a63565b6040516101c491906117ab565b60405180910390f35b3480156101d957600080fd5b506101e2610a87565b6040516101ef919061175a565b60405180910390f35b34801561020457600080fd5b5061021f600480360381019061021a91906112e5565b610aad565b60405161022c9190611947565b60405180910390f35b34801561024157600080fd5b5061024a610d03565b6040516102579190611947565b60405180910390f35b34801561026c57600080fd5b50610275610d09565b6040516102829190611775565b60405180910390f35b34801561029757600080fd5b506102b260048036038101906102ad91906111ec565b610d2f565b6040516102bf919061175a565b60405180910390f35b3480156102d457600080fd5b506102ef60048036038101906102ea91906113b3565b610e95565b6040516102fc9190611947565b60405180910390f35b34801561031157600080fd5b5061032c600480360381019061032791906111ec565b610ec6565b60405161033e96959493929190611962565b60405180910390f35b600260009054906101000a900473ffffffffffffffffffffffffffffffffffffffff1681565b600560205280600052604060002060009150905080600001549080600101805461039690611bf5565b80601f01602080910402602001604051908101604052809291908181526020018280546103c290611bf5565b801561040f5780601f106103e45761010080835404028352916020019161040f565b820191906000526020600020905b8154815290600101906020018083116103f257829003601f168201915b50505050509080600201805461042490611bf5565b80601f016020809104026020016040519081016040528092919081815260200182805461045090611bf5565b801561049d5780601f106104725761010080835404028352916020019161049d565b820191906000526020600020905b81548152906001019060200180831161048057829003601f168201915b5050505050908060030154908060040154908060050160009054906101000a900460ff16905086565b6005600083815260200190815260200160002060050160009054906101000a900460ff16610529576040517f08c379a000000000000000000000000000000000000000000000000000000000815260040161052090611879565b60405180910390fd5b6000600260009054906101000a900473ffffffffffffffffffffffffffffffffffffffff1673ffffffffffffffffffffffffffffffffffffffff16630b8be3736040518163ffffffff1660e01b8152600401604080518083038186803b15801561059257600080fd5b505afa1580156105a6573d6000803e3d6000fd5b505050506040513d601f19601f820116820180604052508101906105ca91906111b0565b5090508073ffffffffffffffffffffffffffffffffffffffff163373ffffffffffffffffffffffffffffffffffffffff161461063b576040517f08c379a000000000000000000000000000000000000000000000000000000000815260040161063290611819565b60405180910390fd5b3373ffffffffffffffffffffffffffffffffffffffff16827f785f2865353ae960010300f584fc6c577b757a853af69a99c769df3c8232d3de60405160405180910390a3505050565b600160009054906101000a900473ffffffffffffffffffffffffffffffffffffffff1673ffffffffffffffffffffffffffffffffffffffff163373ffffffffffffffffffffffffffffffffffffffff1614610714576040517f08c379a000000000000000000000000000000000000000000000000000000000815260040161070b906118d9565b60405180910390fd5b62093a8060056000838152602001908152602001600020600301546107399190611acb565b42101561077b576040517f08c379a000000000000000000000000000000000000000000000000000000000815260040161077290611859565b60405180910390fd5b6005600082815260200190815260200160002060050160009054906101000a900460ff16156107df576040517f08c379a00000000000000000000000000000000000000000000000000000000081526004016107d690611839565b60405180910390fd5b600060056000838152602001908152602001600020600301541415610839576040517f08c379a000000000000000000000000000000000000000000000000000000000815260040161083090611899565b60405180910390fd5b600060056000838152602001908152602001600020905060018160050160006101000a81548160ff0219169083151502179055505050565b600160009054906101000a900473ffffffffffffffffffffffffffffffffffffffff1673ffffffffffffffffffffffffffffffffffffffff163373ffffffffffffffffffffffffffffffffffffffff1614610901576040517f08c379a00000000000000000000000000000000000000000000000000000000081526004016108f8906118d9565b60405180910390fd5b600060056000878152602001908152602001600020600301541461095a576040517f08c379a000000000000000000000000000000000000000000000000000000000815260040161095190611927565b60405180910390fd5b60006040518060c0016040528087815260200186815260200185815260200184815260200183815260200160001515815250905080600560008881526020019081526020016000206000820151816000015560208201518160010190805190602001906109c892919061103d565b5060408201518160020190805190602001906109e592919061103d565b50606082015181600301556080820151816004015560a08201518160050160006101000a81548160ff021916908315150217905550905050857f8adea626209d0af8d49e7468de5d791f31e70ff7eae4b45efcd80dc9044bafef86868686604051610a5394939291906117c6565b60405180910390a2505050505050565b60008054906101000a900473ffffffffffffffffffffffffffffffffffffffff1681565b600160009054906101000a900473ffffffffffffffffffffffffffffffffffffffff1681565b6000600160009054906101000a900473ffffffffffffffffffffffffffffffffffffffff1673ffffffffffffffffffffffffffffffffffffffff163373ffffffffffffffffffffffffffffffffffffffff1614610b3f576040517f08c379a0000000000000000000000000000000000000000000000000000000008152600401610b36906118d9565b60405180910390fd5b7f3c5ad147104e56be34a9176a6692f7df8d2f4b29a5af06bc6b98970d329d657788604051610b6e91906118f9565b60405180910390a16000600560008a8152602001908152602001600020600301541415610bd0576040517f08c379a0000000000000000000000000000000000000000000000000000000008152600401610bc790611899565b60405180910390fd5b60008060009054906101000a900473ffffffffffffffffffffffffffffffffffffffff1673ffffffffffffffffffffffffffffffffffffffff1663fe8b766b8a8a8a8a8a8a8a6040518863ffffffff1660e01b8152600401610c3897969594939291906119d1565b602060405180830381600087803b158015610c5257600080fd5b505af1158015610c66573d6000803e3d6000fd5b505050506040513d601f19601f82011682018060405250810190610c8a9190611215565b9050600660008a815260200190815260200160002081908060018154018082558091505060019003906000526020600020016000909190919091505580897fae396884f8c28fe2ffd1aa9d72dc9db949fcd7626dce923a1b23c521586a01ef60405160405180910390a380915050979650505050505050565b60045481565b600360009054906101000a900473ffffffffffffffffffffffffffffffffffffffff1681565b600080600660008481526020019081526020016000208054905011610d89576040517f08c379a0000000000000000000000000000000000000000000000000000000008152600401610d80906118b9565b60405180910390fd5b600060066000848152602001908152602001600020600081548110610dd7577f4e487b7100000000000000000000000000000000000000000000000000000000600052603260045260246000fd5b9060005260206000200154905060008054906101000a900473ffffffffffffffffffffffffffffffffffffffff1673ffffffffffffffffffffffffffffffffffffffff1663c41a360a826040518263ffffffff1660e01b8152600401610e3d9190611947565b60206040518083038186803b158015610e5557600080fd5b505afa158015610e69573d6000803e3d6000fd5b505050506040513d601f19601f82011682018060405250810190610e8d9190611187565b915050919050565b60066020528160005260406000208181548110610eb157600080fd5b90600052602060002001600091509150505481565b600060608060008060008060056000898152602001908152602001600020905080600001548160010182600201836003015484600401548560050160009054906101000a900460ff16848054610f1b90611bf5565b80601f0160208091040260200160405190810160405280929190818152602001828054610f4790611bf5565b8015610f945780601f10610f6957610100808354040283529160200191610f94565b820191906000526020600020905b815481529060010190602001808311610f7757829003601f168201915b50505050509450838054610fa790611bf5565b80601f0160208091040260200160405190810160405280929190818152602001828054610fd390611bf5565b80156110205780601f10610ff557610100808354040283529160200191611020565b820191906000526020600020905b81548152906001019060200180831161100357829003601f168201915b505050505093509650965096509650965096505091939550919395565b82805461104990611bf5565b90600052602060002090601f01602090048101928261106b57600085556110b2565b82601f1061108457805160ff19168380011785556110b2565b828001600101855582156110b2579182015b828111156110b1578251825591602001919060010190611096565b5b5090506110bf91906110c3565b5090565b5b808211156110dc5760008160009055506001016110c4565b5090565b60006110f36110ee84611a7f565b611a4e565b90508281526020810184848401111561110b57600080fd5b611116848285611bb3565b509392505050565b60008151905061112d81611cc5565b92915050565b600082601f83011261114457600080fd5b81356111548482602086016110e0565b91505092915050565b60008135905061116c81611cdc565b92915050565b60008151905061118181611cdc565b92915050565b60006020828403121561119957600080fd5b60006111a78482850161111e565b91505092915050565b600080604083850312156111c357600080fd5b60006111d18582860161111e565b92505060206111e285828601611172565b9150509250929050565b6000602082840312156111fe57600080fd5b600061120c8482850161115d565b91505092915050565b60006020828403121561122757600080fd5b600061123584828501611172565b91505092915050565b600080600080600060a0868803121561125657600080fd5b60006112648882890161115d565b955050602086013567ffffffffffffffff81111561128157600080fd5b61128d88828901611133565b945050604086013567ffffffffffffffff8111156112aa57600080fd5b6112b688828901611133565b93505060606112c78882890161115d565b92505060806112d88882890161115d565b9150509295509295909350565b600080600080600080600060e0888a03121561130057600080fd5b600061130e8a828b0161115d565b975050602088013567ffffffffffffffff81111561132b57600080fd5b6113378a828b01611133565b965050604088013567ffffffffffffffff81111561135457600080fd5b6113608a828b01611133565b95505060606113718a828b0161115d565b94505060806113828a828b0161115d565b93505060a06113938a828b0161115d565b92505060c06113a48a828b0161115d565b91505092959891949750929550565b600080604083850312156113c657600080fd5b60006113d48582860161115d565b92505060206113e58582860161115d565b9150509250929050565b6113f881611aff565b82525050565b61140781611b11565b82525050565b61141681611b47565b82525050565b61142581611b6b565b82525050565b61143481611b8f565b82525050565b600061144582611aaf565b61144f8185611aba565b935061145f818560208601611bc2565b61146881611cb4565b840191505092915050565b6000611480603583611aba565b91507f596f7520646f206e6f742068617665207468652068696768657374207072696f60008301527f7269747920746f206275792061207469636b65742e00000000000000000000006020830152604082019050919050565b60006114e6603283611aba565b91507f5469636b65747320666f722074686973206576656e74206861766520616c726560008301527f616479206265656e2072656c65617365642e00000000000000000000000000006020830152604082019050919050565b600061154c603583611aba565b91507f5469636b6574732063616e206f6e6c792062652072656c65617365642031207760008301527f65656b206265666f726520746865206576656e742e00000000000000000000006020830152604082019050919050565b60006115b2602883611aba565b91507f5469636b657473206e6f74207965742072656c656173656420666f722074686960008301527f73206576656e742e0000000000000000000000000000000000000000000000006020830152604082019050919050565b6000611618601583611aba565b91507f4576656e7420646f6573206e6f742065786973742e00000000000000000000006000830152602082019050919050565b6000611658601b83611aba565b91507f4e6f207469636b65747320666f72207468697320636f6e6365727400000000006000830152602082019050919050565b6000611698601b83611aba565b91507f43616c6c6572206973206e6f7420746865206f7267616e697a657200000000006000830152602082019050919050565b60006116d8601883611aba565b91507f436865636b696e67206966206576656e742065786973747300000000000000006000830152602082019050919050565b6000611718601583611aba565b91507f4576656e7420616c7265616479206578697374732e00000000000000000000006000830152602082019050919050565b61175481611b3d565b82525050565b600060208201905061176f60008301846113ef565b92915050565b600060208201905061178a600083018461140d565b92915050565b60006020820190506117a5600083018461141c565b92915050565b60006020820190506117c0600083018461142b565b92915050565b600060808201905081810360008301526117e0818761143a565b905081810360208301526117f4818661143a565b9050611803604083018561174b565b611810606083018461174b565b95945050505050565b6000602082019050818103600083015261183281611473565b9050919050565b60006020820190508181036000830152611852816114d9565b9050919050565b600060208201905081810360008301526118728161153f565b9050919050565b60006020820190508181036000830152611892816115a5565b9050919050565b600060208201905081810360008301526118b28161160b565b9050919050565b600060208201905081810360008301526118d28161164b565b9050919050565b600060208201905081810360008301526118f28161168b565b9050919050565b60006040820190508181036000830152611912816116cb565b9050611921602083018461174b565b92915050565b600060208201905081810360008301526119408161170b565b9050919050565b600060208201905061195c600083018461174b565b92915050565b600060c082019050611977600083018961174b565b8181036020830152611989818861143a565b9050818103604083015261199d818761143a565b90506119ac606083018661174b565b6119b9608083018561174b565b6119c660a08301846113fe565b979650505050505050565b600060e0820190506119e6600083018a61174b565b81810360208301526119f8818961143a565b90508181036040830152611a0c818861143a565b9050611a1b606083018761174b565b611a28608083018661174b565b611a3560a083018561174b565b611a4260c083018461174b565b98975050505050505050565b6000604051905081810181811067ffffffffffffffff82111715611a7557611a74611c85565b5b8060405250919050565b600067ffffffffffffffff821115611a9a57611a99611c85565b5b601f19601f8301169050602081019050919050565b600081519050919050565b600082825260208201905092915050565b6000611ad682611b3d565b9150611ae183611b3d565b925082821015611af457611af3611c27565b5b828203905092915050565b6000611b0a82611b1d565b9050919050565b60008115159050919050565b600073ffffffffffffffffffffffffffffffffffffffff82169050919050565b6000819050919050565b6000611b5282611b59565b9050919050565b6000611b6482611b1d565b9050919050565b6000611b7682611b7d565b9050919050565b6000611b8882611b1d565b9050919050565b6000611b9a82611ba1565b9050919050565b6000611bac82611b1d565b9050919050565b82818337600083830152505050565b60005b83811015611be0578082015181840152602081019050611bc5565b83811115611bef576000848401525b50505050565b60006002820490506001821680611c0d57607f821691505b60208210811415611c2157611c20611c56565b5b50919050565b7f4e487b7100000000000000000000000000000000000000000000000000000000600052601160045260246000fd5b7f4e487b7100000000000000000000000000000000000000000000000000000000600052602260045260246000fd5b7f4e487b7100000000000000000000000000000000000000000000000000000000600052604160045260246000fd5b6000601f19601f8301169050919050565b611cce81611aff565b8114611cd957600080fd5b50565b611ce581611b3d565b8114611cf057600080fd5b5056fea264697066735822122014dce5d57af06a2a56157bf8ac43f4ea5cd253dc52e791a5d51281bb108af56664736f6c63430008000033",
  "immutableReferences": {},
  "source": "// SPDX-License-Identifier: MIT\r\npragma solidity ^0.8.0;\r\n\r\nimport \"./PriorityQueue.sol\";\r\nimport \"./Ticket.sol\";\r\nimport \"./LoyaltyPoints.sol\";\r\n\r\ncontract PresaleMarket {\r\n    Ticket public ticketContract;\r\n    address public organizer;\r\n    PriorityQueue public priorityQueue;\r\n    LoyaltyPoints public loyaltyPoints;\r\n    uint256 public ticketCounter;\r\n\r\n    struct EventDetails {\r\n        uint256 concertId;\r\n        string concertName;\r\n        string concertVenue;\r\n        uint256 concertDate;\r\n        uint256 price;\r\n        bool ticketsReleased;\r\n    }\r\n\r\n    // Mapping from concert ID to event details.\r\n    mapping(uint256 => EventDetails) public events;\r\n\r\n    // Mapping from concert ID to list of ticket IDs.\r\n    mapping(uint256 => uint256[]) public concertToTicketIds;\r\n\r\n    constructor(\r\n        address _priorityQueueAddress,\r\n        address _loyaltyPointsAddress,\r\n        address _ticketContractAddress\r\n    ) {\r\n        organizer = msg.sender;\r\n        priorityQueue = PriorityQueue(_priorityQueueAddress);\r\n        loyaltyPoints = LoyaltyPoints(_loyaltyPointsAddress);\r\n        ticketContract = Ticket(_ticketContractAddress);\r\n    }\r\n\r\n    modifier onlyOrganizer() {\r\n        require(msg.sender == organizer, \"Caller is not the organizer\");\r\n        _;\r\n    }\r\n\r\n    event EventCreated(\r\n        uint256 indexed concertId,\r\n        string concertName,\r\n        string concertVenue,\r\n        uint256 concertDate,\r\n        uint256 price\r\n    );\r\n\r\n    event TicketAssignedToEvent(\r\n        uint256 indexed concertId,\r\n        uint256 indexed ticketId\r\n    );\r\n\r\n    event TicketPurchased(uint256 indexed ticketId, address indexed buyer);\r\n    event CorrectPaymentAmount(uint256 ticketPrice);\r\n    event TicketTransferred(address buyer, uint256 concertId);\r\n\r\n    // Create an event without immediately creating tickets\r\n    function createEvent(\r\n        uint256 concertId,\r\n        string memory concertName,\r\n        string memory concertVenue,\r\n        uint256 concertDate,\r\n        uint256 price\r\n    ) public onlyOrganizer {\r\n        require(events[concertId].concertDate == 0, \"Event already exists.\");\r\n\r\n        EventDetails memory newEvent = EventDetails({\r\n            concertId: concertId,\r\n            concertName: concertName,\r\n            concertVenue: concertVenue,\r\n            concertDate: concertDate,\r\n            price: price,\r\n            ticketsReleased: false\r\n        });\r\n\r\n        events[concertId] = newEvent;\r\n        emit EventCreated(\r\n            concertId,\r\n            concertName,\r\n            concertVenue,\r\n            concertDate,\r\n            price\r\n        );\r\n    }\r\n\r\n    event Debug(string message, uint256 value);\r\n\r\n    // Create ticket and automatically associate tickets with their event\r\n    function createTicketAndAddToEvent(\r\n        uint256 concertId,\r\n        string memory concertName,\r\n        string memory concertVenue,\r\n        uint256 concertDate,\r\n        uint256 ticketSectionNo,\r\n        uint256 ticketSeatNo,\r\n        uint256 price\r\n    ) public onlyOrganizer returns (uint256) {\r\n        // Ensure the event exists\r\n        emit Debug(\"Checking if event exists\", concertId);\r\n        require(events[concertId].concertDate != 0, \"Event does not exist.\");\r\n\r\n        uint256 newTicketId = ticketContract.createTicket(\r\n            concertId,\r\n            concertName,\r\n            concertVenue,\r\n            concertDate,\r\n            ticketSectionNo,\r\n            ticketSeatNo,\r\n            price\r\n        );\r\n\r\n        concertToTicketIds[concertId].push(newTicketId);\r\n        emit TicketAssignedToEvent(concertId, newTicketId);\r\n        return newTicketId;\r\n    }\r\n\r\n    function releaseTicket(uint256 concertId) public onlyOrganizer {\r\n        require(\r\n            block.timestamp >= events[concertId].concertDate - 1 weeks,\r\n            \"Tickets can only be released 1 week before the event.\"\r\n        );\r\n        require(\r\n            !events[concertId].ticketsReleased,\r\n            \"Tickets for this event have already been released.\"\r\n        );\r\n\r\n        require(events[concertId].concertDate != 0, \"Event does not exist.\");\r\n\r\n        EventDetails storage eventDetail = events[concertId];\r\n        eventDetail.ticketsReleased = true;\r\n    }\r\n\r\n    // The buyTicket function allowing users with the highest priority to purchase tickets\r\n    function buyTicket(uint256 concertId, uint256 ticketId) external payable {\r\n        require(\r\n            events[concertId].ticketsReleased,\r\n            \"Tickets not yet released for this event.\"\r\n        );\r\n\r\n        (address highestPriorityBuyer, ) = priorityQueue.peekHighestPriority();\r\n        require(\r\n            msg.sender == highestPriorityBuyer,\r\n            \"You do not have the highest priority to buy a ticket.\"\r\n        );\r\n\r\n        // Need to fix this part, breaks the test\r\n        //uint256 ticketPrice = ticketContract.getPrice(ticketId);\r\n        //require(msg.value == ticketPrice, \"Incorrect payment amount.\");\r\n\r\n        //ticketContract.transfer(ticketId, msg.sender, ticketPrice);\r\n        emit TicketPurchased(ticketId, msg.sender);\r\n\r\n        // Need to fix this part, breaks the test\r\n        //loyaltyPoints.addLoyaltyPoints(msg.sender, 10); // Example: award 10 loyalty points per ticket purchase\r\n        //priorityQueue.dequeue(); // Remove the buyer with the highest priority after the purchase\r\n    }\r\n\r\n    //Getters\r\n    function getEventDetails(\r\n        uint256 _concertId\r\n    )\r\n        public\r\n        view\r\n        returns (\r\n            uint256 concertId,\r\n            string memory concertName,\r\n            string memory concertVenue,\r\n            uint256 concertDate,\r\n            uint256 price,\r\n            bool ticketsReleased\r\n        )\r\n    {\r\n        EventDetails storage eventDetail = events[_concertId];\r\n        return (\r\n            eventDetail.concertId,\r\n            eventDetail.concertName,\r\n            eventDetail.concertVenue,\r\n            eventDetail.concertDate,\r\n            eventDetail.price,\r\n            eventDetail.ticketsReleased\r\n        );\r\n    }\r\n\r\n    function getTicketOwner(uint256 concertId) public view returns (address) {\r\n        require(\r\n            concertToTicketIds[concertId].length > 0,\r\n            \"No tickets for this concert\"\r\n        );\r\n        // Get the first ticket ID for the concert\r\n        uint256 ticketId = concertToTicketIds[concertId][0];\r\n        // Use the Ticket contract to find the owner of the ticket\r\n        return ticketContract.getOwner(ticketId);\r\n    }\r\n}\r\n",
  "sourcePath": "C:\\Users\\tngjo\\OneDrive\\Desktop\\GitHub\\IS4302-Decentralized-Event-Ticketing-System\\contracts\\PresaleMarket.sol",
  "compiler": {
    "name": "solc",
    "version": "0.8.0+commit.c7dfd78e.Emscripten.clang"
  },
  "schemaVersion": "3.4.16",
  "updatedAt": "2024-03-29T11:33:48.088Z",
  "devdoc": {
    "kind": "dev",
    "methods": {},
    "version": 1
  },
  "userdoc": {
    "kind": "user",
    "methods": {},
    "version": 1
  }
}