{
  "contractName": "PriorityQueue",
  "abi": [
    {
      "inputs": [],
      "stateMutability": "nonpayable",
      "type": "constructor"
    },
    {
      "inputs": [],
      "name": "size",
      "outputs": [
        {
          "internalType": "uint256",
          "name": "",
          "type": "uint256"
        }
      ],
      "stateMutability": "view",
      "type": "function"
    },
    {
      "inputs": [
        {
          "internalType": "address",
          "name": "_addr",
          "type": "address"
        },
        {
          "internalType": "uint256",
          "name": "_priority",
          "type": "uint256"
        }
      ],
      "name": "enqueue",
      "outputs": [],
      "stateMutability": "nonpayable",
      "type": "function"
    },
    {
      "inputs": [],
      "name": "dequeue",
      "outputs": [
        {
          "internalType": "address",
          "name": "",
          "type": "address"
        }
      ],
      "stateMutability": "nonpayable",
      "type": "function"
    },
    {
      "inputs": [],
      "name": "isEmpty",
      "outputs": [
        {
          "internalType": "bool",
          "name": "",
          "type": "bool"
        }
      ],
      "stateMutability": "view",
      "type": "function"
    }
  ],
  "bytecode": "0x608060405234801561001057600080fd5b5060006040518060400160405280600073ffffffffffffffffffffffffffffffffffffffff1681526020016000815250908060018154018082558091505060019003906000526020600020906002020160009091909190915060008201518160000160006101000a81548173ffffffffffffffffffffffffffffffffffffffff021916908373ffffffffffffffffffffffffffffffffffffffff1602179055506020820151816001015550506000600181905550610f64806100d36000396000f3fe608060405234801561001057600080fd5b506004361061004c5760003560e01c80630ee0a17d14610051578063681fe70c1461006d578063949d225d1461008b578063957908d1146100a9575b600080fd5b61006b60048036038101906100669190610bdb565b6100c7565b005b61007561019d565b6040516100829190610c9f565b60405180910390f35b6100936101a9565b6040516100a09190610cda565b60405180910390f35b6100b16101af565b6040516100be9190610c84565b60405180910390f35b600060405180604001604052808473ffffffffffffffffffffffffffffffffffffffff168152602001838152509050600081908060018154018082558091505060019003906000526020600020906002020160009091909190915060008201518160000160006101000a81548173ffffffffffffffffffffffffffffffffffffffff021916908373ffffffffffffffffffffffffffffffffffffffff1602179055506020820151816001015550506001600081548092919061018890610e59565b9190505550610198600154610471565b505050565b60008060015414905090565b60015481565b600080600154116101f5576040517f08c379a00000000000000000000000000000000000000000000000000000000081526004016101ec90610cba565b60405180910390fd5b600080600181548110610231577f4e487b7100000000000000000000000000000000000000000000000000000000600052603260045260246000fd5b906000526020600020906002020160000160009054906101000a900473ffffffffffffffffffffffffffffffffffffffff169050600080600154815481106102a2577f4e487b7100000000000000000000000000000000000000000000000000000000600052603260045260246000fd5b90600052602060002090600202016040518060400160405290816000820160009054906101000a900473ffffffffffffffffffffffffffffffffffffffff1673ffffffffffffffffffffffffffffffffffffffff1673ffffffffffffffffffffffffffffffffffffffff1681526020016001820154815250509050806000600181548110610359577f4e487b7100000000000000000000000000000000000000000000000000000000600052603260045260246000fd5b906000526020600020906002020160008201518160000160006101000a81548173ffffffffffffffffffffffffffffffffffffffff021916908373ffffffffffffffffffffffffffffffffffffffff1602179055506020820151816001015590505060008054806103f3577f4e487b7100000000000000000000000000000000000000000000000000000000600052603160045260246000fd5b6001900381819060005260206000209060020201600080820160006101000a81549073ffffffffffffffffffffffffffffffffffffffff02191690556001820160009055505090556001600081548092919061044e90610e2f565b9190505550600060015411156104695761046860016107af565b5b819250505090565b5b6001811180156105235750600081815481106104b7577f4e487b7100000000000000000000000000000000000000000000000000000000600052603260045260246000fd5b90600052602060002090600202016001015460006002836104d89190610d5c565b8154811061050f577f4e487b7100000000000000000000000000000000000000000000000000000000600052603260045260246000fd5b906000526020600020906002020160010154115b156107ac576000806002836105389190610d5c565b8154811061056f577f4e487b7100000000000000000000000000000000000000000000000000000000600052603260045260246000fd5b90600052602060002090600202016040518060400160405290816000820160009054906101000a900473ffffffffffffffffffffffffffffffffffffffff1673ffffffffffffffffffffffffffffffffffffffff1673ffffffffffffffffffffffffffffffffffffffff168152602001600182015481525050905060008281548110610624577f4e487b7100000000000000000000000000000000000000000000000000000000600052603260045260246000fd5b906000526020600020906002020160006002846106419190610d5c565b81548110610678577f4e487b7100000000000000000000000000000000000000000000000000000000600052603260045260246000fd5b90600052602060002090600202016000820160009054906101000a900473ffffffffffffffffffffffffffffffffffffffff168160000160006101000a81548173ffffffffffffffffffffffffffffffffffffffff021916908373ffffffffffffffffffffffffffffffffffffffff160217905550600182015481600101559050508060008381548110610735577f4e487b7100000000000000000000000000000000000000000000000000000000600052603260045260246000fd5b906000526020600020906002020160008201518160000160006101000a81548173ffffffffffffffffffffffffffffffffffffffff021916908373ffffffffffffffffffffffffffffffffffffffff160217905550602082015181600101559050506002826107a49190610d5c565b915050610472565b50565b600081905060008260026107c39190610d8d565b9050600060018460026107d69190610d8d565b6107e09190610d06565b90506001548211158015610889575060008381548110610829577f4e487b7100000000000000000000000000000000000000000000000000000000600052603260045260246000fd5b90600052602060002090600202016001015460008381548110610875577f4e487b7100000000000000000000000000000000000000000000000000000000600052603260045260246000fd5b906000526020600020906002020160010154105b15610892578192505b60015481111580156109395750600083815481106108d9577f4e487b7100000000000000000000000000000000000000000000000000000000600052603260045260246000fd5b90600052602060002090600202016001015460008281548110610925577f4e487b7100000000000000000000000000000000000000000000000000000000600052603260045260246000fd5b906000526020600020906002020160010154105b15610942578092505b838314610bab576000808581548110610984577f4e487b7100000000000000000000000000000000000000000000000000000000600052603260045260246000fd5b90600052602060002090600202016040518060400160405290816000820160009054906101000a900473ffffffffffffffffffffffffffffffffffffffff1673ffffffffffffffffffffffffffffffffffffffff1673ffffffffffffffffffffffffffffffffffffffff168152602001600182015481525050905060008481548110610a39577f4e487b7100000000000000000000000000000000000000000000000000000000600052603260045260246000fd5b906000526020600020906002020160008681548110610a81577f4e487b7100000000000000000000000000000000000000000000000000000000600052603260045260246000fd5b90600052602060002090600202016000820160009054906101000a900473ffffffffffffffffffffffffffffffffffffffff168160000160006101000a81548173ffffffffffffffffffffffffffffffffffffffff021916908373ffffffffffffffffffffffffffffffffffffffff160217905550600182015481600101559050508060008581548110610b3e577f4e487b7100000000000000000000000000000000000000000000000000000000600052603260045260246000fd5b906000526020600020906002020160008201518160000160006101000a81548173ffffffffffffffffffffffffffffffffffffffff021916908373ffffffffffffffffffffffffffffffffffffffff16021790555060208201518160010155905050610ba9846107af565b505b50505050565b600081359050610bc081610f00565b92915050565b600081359050610bd581610f17565b92915050565b60008060408385031215610bee57600080fd5b6000610bfc85828601610bb1565b9250506020610c0d85828601610bc6565b9150509250929050565b610c2081610de7565b82525050565b610c2f81610df9565b82525050565b6000610c42600e83610cf5565b91507f517565756520697320656d7074790000000000000000000000000000000000006000830152602082019050919050565b610c7e81610e25565b82525050565b6000602082019050610c996000830184610c17565b92915050565b6000602082019050610cb46000830184610c26565b92915050565b60006020820190508181036000830152610cd381610c35565b9050919050565b6000602082019050610cef6000830184610c75565b92915050565b600082825260208201905092915050565b6000610d1182610e25565b9150610d1c83610e25565b9250827fffffffffffffffffffffffffffffffffffffffffffffffffffffffffffffffff03821115610d5157610d50610ea2565b5b828201905092915050565b6000610d6782610e25565b9150610d7283610e25565b925082610d8257610d81610ed1565b5b828204905092915050565b6000610d9882610e25565b9150610da383610e25565b9250817fffffffffffffffffffffffffffffffffffffffffffffffffffffffffffffffff0483118215151615610ddc57610ddb610ea2565b5b828202905092915050565b6000610df282610e05565b9050919050565b60008115159050919050565b600073ffffffffffffffffffffffffffffffffffffffff82169050919050565b6000819050919050565b6000610e3a82610e25565b91506000821415610e4e57610e4d610ea2565b5b600182039050919050565b6000610e6482610e25565b91507fffffffffffffffffffffffffffffffffffffffffffffffffffffffffffffffff821415610e9757610e96610ea2565b5b600182019050919050565b7f4e487b7100000000000000000000000000000000000000000000000000000000600052601160045260246000fd5b7f4e487b7100000000000000000000000000000000000000000000000000000000600052601260045260246000fd5b610f0981610de7565b8114610f1457600080fd5b50565b610f2081610e25565b8114610f2b57600080fd5b5056fea2646970667358221220f7c2832ba848f806bba66d263947f688b5c2d56dd36b5f81627daa33bb25d75c64736f6c63430008000033",
  "immutableReferences": {},
  "source": "// SPDX-License-Identifier: MIT\r\npragma solidity ^0.8.0;\r\n\r\ncontract PriorityQueue {\r\n    struct QueueElement {\r\n        address addr;\r\n        uint256 priority;\r\n    }\r\n\r\n    QueueElement[] private heapArray;\r\n    uint256 public size;\r\n\r\n    constructor() {\r\n        // Dummy element to start indexing from 1\r\n        heapArray.push(QueueElement({addr: address(0), priority: 0}));\r\n        size = 0;\r\n    }\r\n\r\n    //Adding to queue\r\n    function enqueue(address _addr, uint256 _priority) public {\r\n        QueueElement memory element = QueueElement({\r\n            addr: _addr,\r\n            priority: _priority\r\n        });\r\n        heapArray.push(element);\r\n        size++;\r\n        _bubbleUp(size);\r\n    }\r\n\r\n    function _bubbleUp(uint256 index) private {\r\n        while (\r\n            index > 1 &&\r\n            heapArray[index / 2].priority > heapArray[index].priority\r\n        ) {\r\n            QueueElement memory temp = heapArray[index / 2];\r\n            heapArray[index / 2] = heapArray[index];\r\n            heapArray[index] = temp;\r\n            index = index / 2;\r\n        }\r\n    }\r\n\r\n    //Remove from queue\r\n    function dequeue() public returns (address) {\r\n        require(size > 0, \"Queue is empty\");\r\n\r\n        // Get the address of the highest priority element\r\n        address highestPriorityAddress = heapArray[1].addr;\r\n\r\n        // Perform the pop operation to remove the highest priority element\r\n        // Similar logic to the existing pop method but adapted for QueueElement struct\r\n        QueueElement memory lastElement = heapArray[size];\r\n        heapArray[1] = lastElement;\r\n        heapArray.pop();\r\n        size--;\r\n        if (size > 0) {\r\n            _bubbleDown(1);\r\n        }\r\n\r\n        return highestPriorityAddress;\r\n    }\r\n\r\n    function _bubbleDown(uint256 index) private {\r\n        uint256 smallest = index;\r\n        uint256 leftChildIndex = 2 * index;\r\n        uint256 rightChildIndex = 2 * index + 1;\r\n\r\n        if (\r\n            leftChildIndex <= size &&\r\n            heapArray[leftChildIndex].priority < heapArray[smallest].priority\r\n        ) {\r\n            smallest = leftChildIndex;\r\n        }\r\n        if (\r\n            rightChildIndex <= size &&\r\n            heapArray[rightChildIndex].priority < heapArray[smallest].priority\r\n        ) {\r\n            smallest = rightChildIndex;\r\n        }\r\n        if (smallest != index) {\r\n            QueueElement memory temp = heapArray[index];\r\n            heapArray[index] = heapArray[smallest];\r\n            heapArray[smallest] = temp;\r\n            _bubbleDown(smallest);\r\n        }\r\n    }\r\n\r\n    function isEmpty() public view returns (bool) {\r\n        return size == 0;\r\n    }\r\n}\r\n",
  "sourcePath": "C:\\Users\\tngjo\\OneDrive\\Desktop\\GitHub\\IS4302-Decentralized-Event-Ticketing-System\\contracts\\PriorityQueue.sol",
  "compiler": {
    "name": "solc",
    "version": "0.8.0+commit.c7dfd78e.Emscripten.clang"
  },
  "schemaVersion": "3.4.16",
  "updatedAt": "2024-03-21T18:48:27.254Z",
  "devdoc": {
    "kind": "dev",
    "methods": {},
    "version": 1
  },
  "userdoc": {
    "kind": "user",
    "methods": {},
    "version": 1
  }
}