{
  "contractName": "PriorityQueue",
  "abi": [
    {
      "inputs": [
        {
          "internalType": "address",
          "name": "loyaltyPointsAddress",
          "type": "address"
        }
      ],
      "stateMutability": "nonpayable",
      "type": "constructor"
    },
    {
      "anonymous": false,
      "inputs": [
        {
          "indexed": true,
          "internalType": "address",
          "name": "dequeuedAddress",
          "type": "address"
        }
      ],
      "name": "ElementDequeued",
      "type": "event"
    },
    {
      "anonymous": false,
      "inputs": [
        {
          "indexed": true,
          "internalType": "address",
          "name": "enqueuedAddress",
          "type": "address"
        }
      ],
      "name": "ElementEnqueued",
      "type": "event"
    },
    {
      "inputs": [],
      "name": "size",
      "outputs": [
        {
          "internalType": "uint256",
          "name": "",
          "type": "uint256"
        }
      ],
      "stateMutability": "view",
      "type": "function"
    },
    {
      "inputs": [
        {
          "internalType": "address",
          "name": "_addr",
          "type": "address"
        }
      ],
      "name": "setLoyaltyPointsContractAddress",
      "outputs": [],
      "stateMutability": "nonpayable",
      "type": "function"
    },
    {
      "inputs": [
        {
          "internalType": "address",
          "name": "_addr",
          "type": "address"
        }
      ],
      "name": "enqueue",
      "outputs": [],
      "stateMutability": "nonpayable",
      "type": "function"
    },
    {
      "inputs": [],
      "name": "dequeue",
      "outputs": [
        {
          "internalType": "address",
          "name": "",
          "type": "address"
        }
      ],
      "stateMutability": "nonpayable",
      "type": "function"
    },
    {
      "inputs": [],
      "name": "popHighestPriorityBuyer",
      "outputs": [
        {
          "internalType": "address",
          "name": "",
          "type": "address"
        }
      ],
      "stateMutability": "nonpayable",
      "type": "function"
    },
    {
      "inputs": [],
      "name": "peekHighestPriority",
      "outputs": [
        {
          "internalType": "address",
          "name": "addr",
          "type": "address"
        },
        {
          "internalType": "uint256",
          "name": "priority",
          "type": "uint256"
        }
      ],
      "stateMutability": "view",
      "type": "function"
    },
    {
      "inputs": [
        {
          "internalType": "address",
          "name": "_addr",
          "type": "address"
        }
      ],
      "name": "updatePriority",
      "outputs": [],
      "stateMutability": "nonpayable",
      "type": "function"
    },
    {
      "inputs": [
        {
          "internalType": "address",
          "name": "_addr",
          "type": "address"
        }
      ],
      "name": "isInQueue",
      "outputs": [
        {
          "internalType": "bool",
          "name": "",
          "type": "bool"
        }
      ],
      "stateMutability": "view",
      "type": "function"
    },
    {
      "inputs": [],
      "name": "isEmpty",
      "outputs": [
        {
          "internalType": "bool",
          "name": "",
          "type": "bool"
        }
      ],
      "stateMutability": "view",
      "type": "function"
    }
  ],
  "bytecode": "0x60806040523480156200001157600080fd5b5060405162001b5938038062001b5983398181016040528101906200003791906200018a565b33600260006101000a81548173ffffffffffffffffffffffffffffffffffffffff021916908373ffffffffffffffffffffffffffffffffffffffff16021790555080600360006101000a81548173ffffffffffffffffffffffffffffffffffffffff021916908373ffffffffffffffffffffffffffffffffffffffff16021790555060006040518060400160405280600073ffffffffffffffffffffffffffffffffffffffff1681526020016000815250908060018154018082558091505060019003906000526020600020906002020160009091909190915060008201518160000160006101000a81548173ffffffffffffffffffffffffffffffffffffffff021916908373ffffffffffffffffffffffffffffffffffffffff16021790555060208201518160010155505060006001819055505062000204565b6000815190506200018481620001ea565b92915050565b6000602082840312156200019d57600080fd5b6000620001ad8482850162000173565b91505092915050565b6000620001c382620001ca565b9050919050565b600073ffffffffffffffffffffffffffffffffffffffff82169050919050565b620001f581620001b6565b81146200020157600080fd5b50565b61194580620002146000396000f3fe608060405234801561001057600080fd5b50600436106100935760003560e01c80638f807f6b116100665780638f807f6b1461010d578063949d225d14610129578063957908d114610147578063c34215d414610165578063d71437cb1461018357610093565b80630b8be3731461009857806325923272146100b757806366e40d84146100d3578063681fe70c146100ef575b600080fd5b6100a06101b3565b6040516100ae929190611637565b60405180910390f35b6100d160048036038101906100cc919061151d565b6102bd565b005b6100ed60048036038101906100e8919061151d565b610391565b005b6100f76106ba565b6040516101049190611660565b60405180910390f35b6101276004803603810190610122919061151d565b6106c6565b005b610131610918565b60405161013e91906116bb565b60405180910390f35b61014f61091e565b60405161015c919061161c565b60405180910390f35b61016d610c64565b60405161017a919061161c565b60405180910390f35b61019d6004803603810190610198919061151d565b610d48565b6040516101aa9190611660565b60405180910390f35b6000806000600154116101fb576040517f08c379a00000000000000000000000000000000000000000000000000000000081526004016101f29061167b565b60405180910390fd5b6000600181548110610236577f4e487b7100000000000000000000000000000000000000000000000000000000600052603260045260246000fd5b906000526020600020906002020160000160009054906101000a900473ffffffffffffffffffffffffffffffffffffffff1660006001815481106102a3577f4e487b7100000000000000000000000000000000000000000000000000000000600052603260045260246000fd5b906000526020600020906002020160010154915091509091565b600260009054906101000a900473ffffffffffffffffffffffffffffffffffffffff1673ffffffffffffffffffffffffffffffffffffffff163373ffffffffffffffffffffffffffffffffffffffff161461034d576040517f08c379a00000000000000000000000000000000000000000000000000000000081526004016103449061169b565b60405180910390fd5b80600360006101000a81548173ffffffffffffffffffffffffffffffffffffffff021916908373ffffffffffffffffffffffffffffffffffffffff16021790555050565b600260009054906101000a900473ffffffffffffffffffffffffffffffffffffffff1673ffffffffffffffffffffffffffffffffffffffff163373ffffffffffffffffffffffffffffffffffffffff1614610421576040517f08c379a00000000000000000000000000000000000000000000000000000000081526004016104189061169b565b60405180910390fd5b6000600190505b60015481116106b6578173ffffffffffffffffffffffffffffffffffffffff1660008281548110610482577f4e487b7100000000000000000000000000000000000000000000000000000000600052603260045260246000fd5b906000526020600020906002020160000160009054906101000a900473ffffffffffffffffffffffffffffffffffffffff1673ffffffffffffffffffffffffffffffffffffffff1614156106a3576000600360009054906101000a900473ffffffffffffffffffffffffffffffffffffffff1673ffffffffffffffffffffffffffffffffffffffff1663ee204abb846040518263ffffffff1660e01b815260040161052d919061161c565b60206040518083038186803b15801561054557600080fd5b505afa158015610559573d6000803e3d6000fd5b505050506040513d601f19601f8201168201806040525081019061057d9190611546565b905080600083815481106105ba577f4e487b7100000000000000000000000000000000000000000000000000000000600052603260045260246000fd5b906000526020600020906002020160010181905550600182118015610680575060006002836105e9919061173d565b81548110610620577f4e487b7100000000000000000000000000000000000000000000000000000000600052603260045260246000fd5b9060005260206000209060020201600101546000838154811061066c577f4e487b7100000000000000000000000000000000000000000000000000000000600052603260045260246000fd5b906000526020600020906002020160010154105b156106935761068e82610e20565b61069d565b61069c82611119565b5b506106b6565b80806106ae9061183a565b915050610428565b5050565b60008060015414905090565b600260009054906101000a900473ffffffffffffffffffffffffffffffffffffffff1673ffffffffffffffffffffffffffffffffffffffff163373ffffffffffffffffffffffffffffffffffffffff1614610756576040517f08c379a000000000000000000000000000000000000000000000000000000000815260040161074d9061169b565b60405180910390fd5b6000600360009054906101000a900473ffffffffffffffffffffffffffffffffffffffff1673ffffffffffffffffffffffffffffffffffffffff1663ee204abb836040518263ffffffff1660e01b81526004016107b3919061161c565b60206040518083038186803b1580156107cb57600080fd5b505afa1580156107df573d6000803e3d6000fd5b505050506040513d601f19601f820116820180604052508101906108039190611546565b9050600060405180604001604052808473ffffffffffffffffffffffffffffffffffffffff16815260200183815250908060018154018082558091505060019003906000526020600020906002020160009091909190915060008201518160000160006101000a81548173ffffffffffffffffffffffffffffffffffffffff021916908373ffffffffffffffffffffffffffffffffffffffff160217905550602082015181600101555050600160008154809291906108c19061183a565b91905055506108d1600154610e20565b8173ffffffffffffffffffffffffffffffffffffffff167f5ba7d0799e79fdc8248536761afc64f3373b4336321c14a8180738c95e29d76c60405160405180910390a25050565b60015481565b6000600260009054906101000a900473ffffffffffffffffffffffffffffffffffffffff1673ffffffffffffffffffffffffffffffffffffffff163373ffffffffffffffffffffffffffffffffffffffff16146109b0576040517f08c379a00000000000000000000000000000000000000000000000000000000081526004016109a79061169b565b60405180910390fd5b6000600154116109f5576040517f08c379a00000000000000000000000000000000000000000000000000000000081526004016109ec9061167b565b60405180910390fd5b600080600181548110610a31577f4e487b7100000000000000000000000000000000000000000000000000000000600052603260045260246000fd5b906000526020600020906002020160000160009054906101000a900473ffffffffffffffffffffffffffffffffffffffff169050600060015481548110610aa1577f4e487b7100000000000000000000000000000000000000000000000000000000600052603260045260246000fd5b90600052602060002090600202016000600181548110610aea577f4e487b7100000000000000000000000000000000000000000000000000000000600052603260045260246000fd5b90600052602060002090600202016000820160009054906101000a900473ffffffffffffffffffffffffffffffffffffffff168160000160006101000a81548173ffffffffffffffffffffffffffffffffffffffff021916908373ffffffffffffffffffffffffffffffffffffffff160217905550600182015481600101559050506000805480610ba4577f4e487b7100000000000000000000000000000000000000000000000000000000600052603160045260246000fd5b6001900381819060005260206000209060020201600080820160006101000a81549073ffffffffffffffffffffffffffffffffffffffff021916905560018201600090555050905560016000815480929190610bff90611810565b919050555060006001541115610c1a57610c196001611119565b5b8073ffffffffffffffffffffffffffffffffffffffff167fd0c10f12413dbc5bc16bf413df8088858fd3c68cb5f672cdafcb916cd20ab4fa60405160405180910390a28091505090565b6000600260009054906101000a900473ffffffffffffffffffffffffffffffffffffffff1673ffffffffffffffffffffffffffffffffffffffff163373ffffffffffffffffffffffffffffffffffffffff1614610cf6576040517f08c379a0000000000000000000000000000000000000000000000000000000008152600401610ced9061169b565b60405180910390fd5b600060015411610d3b576040517f08c379a0000000000000000000000000000000000000000000000000000000008152600401610d329061167b565b60405180910390fd5b610d4361091e565b905090565b600080600190505b6001548111610e15578273ffffffffffffffffffffffffffffffffffffffff1660008281548110610daa577f4e487b7100000000000000000000000000000000000000000000000000000000600052603260045260246000fd5b906000526020600020906002020160000160009054906101000a900473ffffffffffffffffffffffffffffffffffffffff1673ffffffffffffffffffffffffffffffffffffffff161415610e02576001915050610e1b565b8080610e0d9061183a565b915050610d50565b50600090505b919050565b5b600181118015610ed2575060008181548110610e66577f4e487b7100000000000000000000000000000000000000000000000000000000600052603260045260246000fd5b9060005260206000209060020201600101546000600283610e87919061173d565b81548110610ebe577f4e487b7100000000000000000000000000000000000000000000000000000000600052603260045260246000fd5b906000526020600020906002020160010154105b156111165760008181548110610f11577f4e487b7100000000000000000000000000000000000000000000000000000000600052603260045260246000fd5b90600052602060002090600202016000600283610f2e919061173d565b81548110610f65577f4e487b7100000000000000000000000000000000000000000000000000000000600052603260045260246000fd5b90600052602060002090600202016000600284610f82919061173d565b81548110610fb9577f4e487b7100000000000000000000000000000000000000000000000000000000600052603260045260246000fd5b90600052602060002090600202016000808581548110611002577f4e487b7100000000000000000000000000000000000000000000000000000000600052603260045260246000fd5b90600052602060002090600202016000849190506000820160009054906101000a900473ffffffffffffffffffffffffffffffffffffffff168160000160006101000a81548173ffffffffffffffffffffffffffffffffffffffff021916908373ffffffffffffffffffffffffffffffffffffffff160217905550600182015481600101555050839190506000820160009054906101000a900473ffffffffffffffffffffffffffffffffffffffff168160000160006101000a81548173ffffffffffffffffffffffffffffffffffffffff021916908373ffffffffffffffffffffffffffffffffffffffff160217905550600182015481600101555050505060028161110f919061173d565b9050610e21565b50565b5b60015460028261112a919061176e565b116114f057600081600261113e919061176e565b905060006001836002611151919061176e565b61115b91906116e7565b9050600083905060015483111580156112095750600081815481106111a9577f4e487b7100000000000000000000000000000000000000000000000000000000600052603260045260246000fd5b906000526020600020906002020160010154600084815481106111f5577f4e487b7100000000000000000000000000000000000000000000000000000000600052603260045260246000fd5b906000526020600020906002020160010154115b15611212578290505b60015482111580156112b9575060008181548110611259577f4e487b7100000000000000000000000000000000000000000000000000000000600052603260045260246000fd5b906000526020600020906002020160010154600083815481106112a5577f4e487b7100000000000000000000000000000000000000000000000000000000600052603260045260246000fd5b906000526020600020906002020160010154115b156112c2578190505b838114156112d2575050506114f0565b6000818154811061130c577f4e487b7100000000000000000000000000000000000000000000000000000000600052603260045260246000fd5b906000526020600020906002020160008581548110611354577f4e487b7100000000000000000000000000000000000000000000000000000000600052603260045260246000fd5b90600052602060002090600202016000868154811061139c577f4e487b7100000000000000000000000000000000000000000000000000000000600052603260045260246000fd5b906000526020600020906002020160008085815481106113e5577f4e487b7100000000000000000000000000000000000000000000000000000000600052603260045260246000fd5b90600052602060002090600202016000849190506000820160009054906101000a900473ffffffffffffffffffffffffffffffffffffffff168160000160006101000a81548173ffffffffffffffffffffffffffffffffffffffff021916908373ffffffffffffffffffffffffffffffffffffffff160217905550600182015481600101555050839190506000820160009054906101000a900473ffffffffffffffffffffffffffffffffffffffff168160000160006101000a81548173ffffffffffffffffffffffffffffffffffffffff021916908373ffffffffffffffffffffffffffffffffffffffff160217905550600182015481600101555050505080935050505061111a565b50565b600081359050611502816118e1565b92915050565b600081519050611517816118f8565b92915050565b60006020828403121561152f57600080fd5b600061153d848285016114f3565b91505092915050565b60006020828403121561155857600080fd5b600061156684828501611508565b91505092915050565b611578816117c8565b82525050565b611587816117da565b82525050565b600061159a600e836116d6565b91507f517565756520697320656d7074790000000000000000000000000000000000006000830152602082019050919050565b60006115da601b836116d6565b91507f43616c6c6572206973206e6f7420746865206f7267616e697a657200000000006000830152602082019050919050565b61161681611806565b82525050565b6000602082019050611631600083018461156f565b92915050565b600060408201905061164c600083018561156f565b611659602083018461160d565b9392505050565b6000602082019050611675600083018461157e565b92915050565b600060208201905081810360008301526116948161158d565b9050919050565b600060208201905081810360008301526116b4816115cd565b9050919050565b60006020820190506116d0600083018461160d565b92915050565b600082825260208201905092915050565b60006116f282611806565b91506116fd83611806565b9250827fffffffffffffffffffffffffffffffffffffffffffffffffffffffffffffffff0382111561173257611731611883565b5b828201905092915050565b600061174882611806565b915061175383611806565b925082611763576117626118b2565b5b828204905092915050565b600061177982611806565b915061178483611806565b9250817fffffffffffffffffffffffffffffffffffffffffffffffffffffffffffffffff04831182151516156117bd576117bc611883565b5b828202905092915050565b60006117d3826117e6565b9050919050565b60008115159050919050565b600073ffffffffffffffffffffffffffffffffffffffff82169050919050565b6000819050919050565b600061181b82611806565b9150600082141561182f5761182e611883565b5b600182039050919050565b600061184582611806565b91507fffffffffffffffffffffffffffffffffffffffffffffffffffffffffffffffff82141561187857611877611883565b5b600182019050919050565b7f4e487b7100000000000000000000000000000000000000000000000000000000600052601160045260246000fd5b7f4e487b7100000000000000000000000000000000000000000000000000000000600052601260045260246000fd5b6118ea816117c8565b81146118f557600080fd5b50565b61190181611806565b811461190c57600080fd5b5056fea26469706673582212204f2f82611f7df7c8f44ff2a3879a41e7e7276bf26e0b9ddbcd0ed0ab358468e564736f6c63430008000033",
  "immutableReferences": {},
  "source": "// SPDX-License-Identifier: MIT\r\npragma solidity ^0.8.0;\r\n\r\nimport \"./LoyaltyPoints.sol\";\r\n\r\ncontract PriorityQueue {\r\n    struct QueueElement {\r\n        address addr;\r\n        uint256 priority;\r\n    }\r\n\r\n    QueueElement[] private heapArray;\r\n    uint256 public size;\r\n    address private organizer; // Added for access control\r\n    LoyaltyPoints loyaltyPointsContract;\r\n\r\n    function setLoyaltyPointsContractAddress(\r\n        address _addr\r\n    ) external onlyOrganizer {\r\n        loyaltyPointsContract = LoyaltyPoints(_addr);\r\n    }\r\n\r\n    modifier onlyOrganizer() {\r\n        require(msg.sender == organizer, \"Caller is not the organizer\");\r\n        _;\r\n    }\r\n\r\n    constructor(address loyaltyPointsAddress) {\r\n        organizer = msg.sender;\r\n        loyaltyPointsContract = LoyaltyPoints(loyaltyPointsAddress);\r\n        heapArray.push(QueueElement({addr: address(0), priority: 0}));\r\n        size = 0;\r\n    }\r\n\r\n    event ElementEnqueued(address indexed enqueuedAddress);\r\n    event ElementDequeued(address indexed dequeuedAddress);\r\n\r\n    function enqueue(address _addr) public onlyOrganizer {\r\n        uint256 loyaltyPoints = loyaltyPointsContract.getPoints(_addr);\r\n        heapArray.push(QueueElement({addr: _addr, priority: loyaltyPoints}));\r\n        size++;\r\n        _bubbleUp(size);\r\n        emit ElementEnqueued(_addr);\r\n    }\r\n\r\n    function dequeue() public onlyOrganizer returns (address) {\r\n        require(size > 0, \"Queue is empty\");\r\n        address highestPriorityAddress = heapArray[1].addr;\r\n\r\n        heapArray[1] = heapArray[size];\r\n        heapArray.pop();\r\n        size--;\r\n        if (size > 0) {\r\n            _bubbleDown(1);\r\n        }\r\n        emit ElementDequeued(highestPriorityAddress);\r\n        return highestPriorityAddress;\r\n    }\r\n\r\n    function popHighestPriorityBuyer() public onlyOrganizer returns (address) {\r\n        require(size > 0, \"Queue is empty\");\r\n        return dequeue(); // Use dequeue logic to pop and return the highest priority (loyalty points) buyer\r\n    }\r\n\r\n    function peekHighestPriority()\r\n        public\r\n        view\r\n        returns (address addr, uint256 priority)\r\n    {\r\n        require(size > 0, \"Queue is empty\");\r\n        return (heapArray[1].addr, heapArray[1].priority);\r\n    }\r\n\r\n    function updatePriority(address _addr) public onlyOrganizer {\r\n        for (uint256 i = 1; i <= size; i++) {\r\n            if (heapArray[i].addr == _addr) {\r\n                uint256 loyaltyPoints = loyaltyPointsContract.getPoints(_addr);\r\n                heapArray[i].priority = loyaltyPoints; // Update priority\r\n                if (\r\n                    i > 1 && heapArray[i].priority < heapArray[i / 2].priority\r\n                ) {\r\n                    _bubbleUp(i);\r\n                } else {\r\n                    _bubbleDown(i);\r\n                }\r\n                break;\r\n            }\r\n        }\r\n    }\r\n\r\n    function isInQueue(address _addr) public view returns (bool) {\r\n        for (uint256 i = 1; i <= size; i++) {\r\n            if (heapArray[i].addr == _addr) {\r\n                return true;\r\n            }\r\n        }\r\n        return false;\r\n    }\r\n\r\n    function _bubbleUp(uint256 index) private {\r\n        while (\r\n            index > 1 &&\r\n            heapArray[index / 2].priority < heapArray[index].priority\r\n        ) {\r\n            // Swap child with parent if child's priority is higher\r\n            (heapArray[index / 2], heapArray[index]) = (\r\n                heapArray[index],\r\n                heapArray[index / 2]\r\n            );\r\n            index = index / 2;\r\n        }\r\n    }\r\n\r\n    function _bubbleDown(uint256 index) private {\r\n        while (index * 2 <= size) {\r\n            // While node has at least one child\r\n            uint256 leftChildIndex = 2 * index;\r\n            uint256 rightChildIndex = 2 * index + 1;\r\n            uint256 largest = index;\r\n\r\n            if (\r\n                leftChildIndex <= size &&\r\n                heapArray[leftChildIndex].priority > heapArray[largest].priority\r\n            ) {\r\n                largest = leftChildIndex;\r\n            }\r\n\r\n            if (\r\n                rightChildIndex <= size &&\r\n                heapArray[rightChildIndex].priority >\r\n                heapArray[largest].priority\r\n            ) {\r\n                largest = rightChildIndex;\r\n            }\r\n\r\n            if (largest == index) {\r\n                break; // Proper place is found\r\n            }\r\n\r\n            // Swap with larger (higher priority) child\r\n            (heapArray[index], heapArray[largest]) = (\r\n                heapArray[largest],\r\n                heapArray[index]\r\n            );\r\n            index = largest; // Move down to the child's index\r\n        }\r\n    }\r\n\r\n    function isEmpty() public view returns (bool) {\r\n        return size == 0;\r\n    }\r\n}\r\n",
  "sourcePath": "C:\\Users\\tngjo\\OneDrive\\Desktop\\GitHub\\IS4302-Decentralized-Event-Ticketing-System\\contracts\\PriorityQueue.sol",
  "compiler": {
    "name": "solc",
    "version": "0.8.0+commit.c7dfd78e.Emscripten.clang"
  },
  "schemaVersion": "3.4.16",
  "updatedAt": "2024-03-23T14:48:16.970Z",
  "devdoc": {
    "kind": "dev",
    "methods": {},
    "version": 1
  },
  "userdoc": {
    "kind": "user",
    "methods": {},
    "version": 1
  }
}