{
  "contractName": "PriorityQueue",
  "abi": [
    {
      "inputs": [
        {
          "internalType": "address",
          "name": "loyaltyPointsAddress",
          "type": "address"
        }
      ],
      "stateMutability": "nonpayable",
      "type": "constructor"
    },
    {
      "anonymous": false,
      "inputs": [
        {
          "indexed": true,
          "internalType": "address",
          "name": "dequeuedAddress",
          "type": "address"
        }
      ],
      "name": "ElementDequeued",
      "type": "event"
    },
    {
      "anonymous": false,
      "inputs": [
        {
          "indexed": true,
          "internalType": "address",
          "name": "enqueuedAddress",
          "type": "address"
        }
      ],
      "name": "ElementEnqueued",
      "type": "event"
    },
    {
      "inputs": [],
      "name": "presaleMarketAddress",
      "outputs": [
        {
          "internalType": "address",
          "name": "",
          "type": "address"
        }
      ],
      "stateMutability": "view",
      "type": "function"
    },
    {
      "inputs": [],
      "name": "size",
      "outputs": [
        {
          "internalType": "uint256",
          "name": "",
          "type": "uint256"
        }
      ],
      "stateMutability": "view",
      "type": "function"
    },
    {
      "inputs": [
        {
          "internalType": "address",
          "name": "_presaleMarketAddress",
          "type": "address"
        }
      ],
      "name": "setPresaleMarketAddress",
      "outputs": [],
      "stateMutability": "nonpayable",
      "type": "function"
    },
    {
      "inputs": [
        {
          "internalType": "address",
          "name": "_addr",
          "type": "address"
        }
      ],
      "name": "setLoyaltyPointsContractAddress",
      "outputs": [],
      "stateMutability": "nonpayable",
      "type": "function"
    },
    {
      "inputs": [
        {
          "internalType": "address",
          "name": "_addr",
          "type": "address"
        }
      ],
      "name": "enqueue",
      "outputs": [],
      "stateMutability": "nonpayable",
      "type": "function"
    },
    {
      "inputs": [],
      "name": "dequeue",
      "outputs": [
        {
          "internalType": "address",
          "name": "",
          "type": "address"
        }
      ],
      "stateMutability": "nonpayable",
      "type": "function"
    },
    {
      "inputs": [],
      "name": "popHighestPriorityBuyer",
      "outputs": [
        {
          "internalType": "address",
          "name": "",
          "type": "address"
        }
      ],
      "stateMutability": "nonpayable",
      "type": "function"
    },
    {
      "inputs": [],
      "name": "peekHighestPriority",
      "outputs": [
        {
          "internalType": "address",
          "name": "addr",
          "type": "address"
        },
        {
          "internalType": "uint256",
          "name": "priority",
          "type": "uint256"
        }
      ],
      "stateMutability": "view",
      "type": "function"
    },
    {
      "inputs": [
        {
          "internalType": "address",
          "name": "_addr",
          "type": "address"
        }
      ],
      "name": "updatePriority",
      "outputs": [],
      "stateMutability": "nonpayable",
      "type": "function"
    },
    {
      "inputs": [
        {
          "internalType": "address",
          "name": "_addr",
          "type": "address"
        }
      ],
      "name": "isInQueue",
      "outputs": [
        {
          "internalType": "bool",
          "name": "",
          "type": "bool"
        }
      ],
      "stateMutability": "view",
      "type": "function"
    },
    {
      "inputs": [],
      "name": "isEmpty",
      "outputs": [
        {
          "internalType": "bool",
          "name": "",
          "type": "bool"
        }
      ],
      "stateMutability": "view",
      "type": "function"
    }
  ],
  "bytecode": "0x608060405260006004553480156200001657600080fd5b50604051620022783803806200227883398181016040528101906200003c9190620001a0565b33600260006101000a81548173ffffffffffffffffffffffffffffffffffffffff021916908373ffffffffffffffffffffffffffffffffffffffff16021790555080600360006101000a81548173ffffffffffffffffffffffffffffffffffffffff021916908373ffffffffffffffffffffffffffffffffffffffff16021790555060006040518060600160405280600073ffffffffffffffffffffffffffffffffffffffff168152602001600081526020016000815250908060018154018082558091505060019003906000526020600020906003020160009091909190915060008201518160000160006101000a81548173ffffffffffffffffffffffffffffffffffffffff021916908373ffffffffffffffffffffffffffffffffffffffff160217905550602082015181600101556040820151816002015550506000600181905550506200021a565b6000815190506200019a8162000200565b92915050565b600060208284031215620001b357600080fd5b6000620001c38482850162000189565b91505092915050565b6000620001d982620001e0565b9050919050565b600073ffffffffffffffffffffffffffffffffffffffff82169050919050565b6200020b81620001cc565b81146200021757600080fd5b50565b61204e806200022a6000396000f3fe608060405234801561001057600080fd5b50600436106100a95760003560e01c80638f807f6b116100715780638f807f6b14610141578063949d225d1461015d578063957908d11461017b578063c34215d414610199578063d71437cb146101b7578063fe18a430146101e7576100a9565b80630b8be373146100ae57806325923272146100cd5780635b73c131146100e957806366e40d8414610107578063681fe70c14610123575b600080fd5b6100b6610203565b6040516100c4929190611d20565b60405180910390f35b6100e760048036038101906100e29190611bc6565b61030d565b005b6100f16103e1565b6040516100fe9190611d05565b60405180910390f35b610121600480360381019061011c9190611bc6565b610407565b005b61012b6106d2565b6040516101389190611d49565b60405180910390f35b61015b60048036038101906101569190611bc6565b6106de565b005b6101656109ae565b6040516101729190611dc4565b60405180910390f35b6101836109b4565b6040516101909190611d05565b60405180910390f35b6101a1610d64565b6040516101ae9190611d05565b60405180910390f35b6101d160048036038101906101cc9190611bc6565b610ea0565b6040516101de9190611d49565b60405180910390f35b61020160048036038101906101fc9190611bc6565b610f78565b005b60008060006001541161024b576040517f08c379a000000000000000000000000000000000000000000000000000000000815260040161024290611d64565b60405180910390fd5b6000600181548110610286577f4e487b7100000000000000000000000000000000000000000000000000000000600052603260045260246000fd5b906000526020600020906003020160000160009054906101000a900473ffffffffffffffffffffffffffffffffffffffff1660006001815481106102f3577f4e487b7100000000000000000000000000000000000000000000000000000000600052603260045260246000fd5b906000526020600020906003020160010154915091509091565b600260009054906101000a900473ffffffffffffffffffffffffffffffffffffffff1673ffffffffffffffffffffffffffffffffffffffff163373ffffffffffffffffffffffffffffffffffffffff161461039d576040517f08c379a000000000000000000000000000000000000000000000000000000000815260040161039490611da4565b60405180910390fd5b80600360006101000a81548173ffffffffffffffffffffffffffffffffffffffff021916908373ffffffffffffffffffffffffffffffffffffffff16021790555050565b600560009054906101000a900473ffffffffffffffffffffffffffffffffffffffff1681565b600260009054906101000a900473ffffffffffffffffffffffffffffffffffffffff1673ffffffffffffffffffffffffffffffffffffffff163373ffffffffffffffffffffffffffffffffffffffff1614610497576040517f08c379a000000000000000000000000000000000000000000000000000000000815260040161048e90611da4565b60405180910390fd5b6000600190505b60015481116106ce578173ffffffffffffffffffffffffffffffffffffffff16600082815481106104f8577f4e487b7100000000000000000000000000000000000000000000000000000000600052603260045260246000fd5b906000526020600020906003020160000160009054906101000a900473ffffffffffffffffffffffffffffffffffffffff1673ffffffffffffffffffffffffffffffffffffffff1614156106bb576000600360009054906101000a900473ffffffffffffffffffffffffffffffffffffffff1673ffffffffffffffffffffffffffffffffffffffff1663ee204abb846040518263ffffffff1660e01b81526004016105a39190611d05565b60206040518083038186803b1580156105bb57600080fd5b505afa1580156105cf573d6000803e3d6000fd5b505050506040513d601f19601f820116820180604052508101906105f39190611bef565b90506000808381548110610630577f4e487b7100000000000000000000000000000000000000000000000000000000600052603260045260246000fd5b906000526020600020906003020160010154821190508160008481548110610681577f4e487b7100000000000000000000000000000000000000000000000000000000600052603260045260246000fd5b90600052602060002090600302016001018190555080156106aa576106a58361104c565b6106b4565b6106b3836114d9565b5b50506106ce565b80806106c690611f43565b91505061049e565b5050565b60008060015414905090565b600260009054906101000a900473ffffffffffffffffffffffffffffffffffffffff1673ffffffffffffffffffffffffffffffffffffffff163373ffffffffffffffffffffffffffffffffffffffff1614806107875750600560009054906101000a900473ffffffffffffffffffffffffffffffffffffffff1673ffffffffffffffffffffffffffffffffffffffff163373ffffffffffffffffffffffffffffffffffffffff16145b6107c6576040517f08c379a00000000000000000000000000000000000000000000000000000000081526004016107bd90611d84565b60405180910390fd5b6000600360009054906101000a900473ffffffffffffffffffffffffffffffffffffffff1673ffffffffffffffffffffffffffffffffffffffff1663ee204abb836040518263ffffffff1660e01b81526004016108239190611d05565b60206040518083038186803b15801561083b57600080fd5b505afa15801561084f573d6000803e3d6000fd5b505050506040513d601f19601f820116820180604052508101906108739190611bef565b9050600060405180606001604052808473ffffffffffffffffffffffffffffffffffffffff168152602001838152602001600460008154809291906108b790611f43565b91905055815250908060018154018082558091505060019003906000526020600020906003020160009091909190915060008201518160000160006101000a81548173ffffffffffffffffffffffffffffffffffffffff021916908373ffffffffffffffffffffffffffffffffffffffff160217905550602082015181600101556040820151816002015550506001600081548092919061095790611f43565b919050555061096760015461104c565b8173ffffffffffffffffffffffffffffffffffffffff167f5ba7d0799e79fdc8248536761afc64f3373b4336321c14a8180738c95e29d76c60405160405180910390a25050565b60015481565b6000600260009054906101000a900473ffffffffffffffffffffffffffffffffffffffff1673ffffffffffffffffffffffffffffffffffffffff163373ffffffffffffffffffffffffffffffffffffffff161480610a5f5750600560009054906101000a900473ffffffffffffffffffffffffffffffffffffffff1673ffffffffffffffffffffffffffffffffffffffff163373ffffffffffffffffffffffffffffffffffffffff16145b610a9e576040517f08c379a0000000000000000000000000000000000000000000000000000000008152600401610a9590611d84565b60405180910390fd5b600060015411610ae3576040517f08c379a0000000000000000000000000000000000000000000000000000000008152600401610ada90611d64565b60405180910390fd5b600080600181548110610b1f577f4e487b7100000000000000000000000000000000000000000000000000000000600052603260045260246000fd5b906000526020600020906003020160000160009054906101000a900473ffffffffffffffffffffffffffffffffffffffff169050600060015481548110610b8f577f4e487b7100000000000000000000000000000000000000000000000000000000600052603260045260246000fd5b90600052602060002090600302016000600181548110610bd8577f4e487b7100000000000000000000000000000000000000000000000000000000600052603260045260246000fd5b90600052602060002090600302016000820160009054906101000a900473ffffffffffffffffffffffffffffffffffffffff168160000160006101000a81548173ffffffffffffffffffffffffffffffffffffffff021916908373ffffffffffffffffffffffffffffffffffffffff16021790555060018201548160010155600282015481600201559050506000805480610c9c577f4e487b7100000000000000000000000000000000000000000000000000000000600052603160045260246000fd5b6001900381819060005260206000209060030201600080820160006101000a81549073ffffffffffffffffffffffffffffffffffffffff0219169055600182016000905560028201600090555050905560016000815480929190610cff90611f19565b919050555060006001541115610d1a57610d1960016114d9565b5b8073ffffffffffffffffffffffffffffffffffffffff167fd0c10f12413dbc5bc16bf413df8088858fd3c68cb5f672cdafcb916cd20ab4fa60405160405180910390a28091505090565b6000600260009054906101000a900473ffffffffffffffffffffffffffffffffffffffff1673ffffffffffffffffffffffffffffffffffffffff163373ffffffffffffffffffffffffffffffffffffffff161480610e0f5750600560009054906101000a900473ffffffffffffffffffffffffffffffffffffffff1673ffffffffffffffffffffffffffffffffffffffff163373ffffffffffffffffffffffffffffffffffffffff16145b610e4e576040517f08c379a0000000000000000000000000000000000000000000000000000000008152600401610e4590611d84565b60405180910390fd5b600060015411610e93576040517f08c379a0000000000000000000000000000000000000000000000000000000008152600401610e8a90611d64565b60405180910390fd5b610e9b6109b4565b905090565b600080600190505b6001548111610f6d578273ffffffffffffffffffffffffffffffffffffffff1660008281548110610f02577f4e487b7100000000000000000000000000000000000000000000000000000000600052603260045260246000fd5b906000526020600020906003020160000160009054906101000a900473ffffffffffffffffffffffffffffffffffffffff1673ffffffffffffffffffffffffffffffffffffffff161415610f5a576001915050610f73565b8080610f6590611f43565b915050610ea8565b50600090505b919050565b600260009054906101000a900473ffffffffffffffffffffffffffffffffffffffff1673ffffffffffffffffffffffffffffffffffffffff163373ffffffffffffffffffffffffffffffffffffffff1614611008576040517f08c379a0000000000000000000000000000000000000000000000000000000008152600401610fff90611da4565b60405180910390fd5b80600560006101000a81548173ffffffffffffffffffffffffffffffffffffffff021916908373ffffffffffffffffffffffffffffffffffffffff16021790555050565b5b60018111156114d65760006002826110659190611e46565b905060008082815481106110a2577f4e487b7100000000000000000000000000000000000000000000000000000000600052603260045260246000fd5b906000526020600020906003020160010154600084815481106110ee577f4e487b7100000000000000000000000000000000000000000000000000000000600052603260045260246000fd5b9060005260206000209060030201600101541180611242575060008281548110611141577f4e487b7100000000000000000000000000000000000000000000000000000000600052603260045260246000fd5b9060005260206000209060030201600101546000848154811061118d577f4e487b7100000000000000000000000000000000000000000000000000000000600052603260045260246000fd5b9060005260206000209060030201600101541480156112415750600082815481106111e1577f4e487b7100000000000000000000000000000000000000000000000000000000600052603260045260246000fd5b9060005260206000209060030201600201546000848154811061122d577f4e487b7100000000000000000000000000000000000000000000000000000000600052603260045260246000fd5b906000526020600020906003020160020154105b5b905080156114c8576000808381548110611285577f4e487b7100000000000000000000000000000000000000000000000000000000600052603260045260246000fd5b90600052602060002090600302016040518060600160405290816000820160009054906101000a900473ffffffffffffffffffffffffffffffffffffffff1673ffffffffffffffffffffffffffffffffffffffff1673ffffffffffffffffffffffffffffffffffffffff16815260200160018201548152602001600282015481525050905060008481548110611344577f4e487b7100000000000000000000000000000000000000000000000000000000600052603260045260246000fd5b90600052602060002090600302016000848154811061138c577f4e487b7100000000000000000000000000000000000000000000000000000000600052603260045260246000fd5b90600052602060002090600302016000820160009054906101000a900473ffffffffffffffffffffffffffffffffffffffff168160000160006101000a81548173ffffffffffffffffffffffffffffffffffffffff021916908373ffffffffffffffffffffffffffffffffffffffff16021790555060018201548160010155600282015481600201559050508060008581548110611453577f4e487b7100000000000000000000000000000000000000000000000000000000600052603260045260246000fd5b906000526020600020906003020160008201518160000160006101000a81548173ffffffffffffffffffffffffffffffffffffffff021916908373ffffffffffffffffffffffffffffffffffffffff1602179055506020820151816001015560408201518160020155905050829350506114cf565b50506114d6565b505061104d565b50565b5b6001546002826114ea9190611e77565b11611b995760008160026114fe9190611e77565b9050600060018360026115119190611e77565b61151b9190611df0565b90506000839050600154831115801561170a575060008181548110611569577f4e487b7100000000000000000000000000000000000000000000000000000000600052603260045260246000fd5b906000526020600020906003020160010154600084815481106115b5577f4e487b7100000000000000000000000000000000000000000000000000000000600052603260045260246000fd5b9060005260206000209060030201600101541180611709575060008181548110611608577f4e487b7100000000000000000000000000000000000000000000000000000000600052603260045260246000fd5b90600052602060002090600302016001015460008481548110611654577f4e487b7100000000000000000000000000000000000000000000000000000000600052603260045260246000fd5b9060005260206000209060030201600101541480156117085750600081815481106116a8577f4e487b7100000000000000000000000000000000000000000000000000000000600052603260045260246000fd5b906000526020600020906003020160020154600084815481106116f4577f4e487b7100000000000000000000000000000000000000000000000000000000600052603260045260246000fd5b906000526020600020906003020160020154105b5b5b15611713578290505b60015482111580156118fb57506000818154811061175a577f4e487b7100000000000000000000000000000000000000000000000000000000600052603260045260246000fd5b906000526020600020906003020160010154600083815481106117a6577f4e487b7100000000000000000000000000000000000000000000000000000000600052603260045260246000fd5b90600052602060002090600302016001015411806118fa5750600081815481106117f9577f4e487b7100000000000000000000000000000000000000000000000000000000600052603260045260246000fd5b90600052602060002090600302016001015460008381548110611845577f4e487b7100000000000000000000000000000000000000000000000000000000600052603260045260246000fd5b9060005260206000209060030201600101541480156118f9575060008181548110611899577f4e487b7100000000000000000000000000000000000000000000000000000000600052603260045260246000fd5b906000526020600020906003020160020154600083815481106118e5577f4e487b7100000000000000000000000000000000000000000000000000000000600052603260045260246000fd5b906000526020600020906003020160020154105b5b5b15611904578190505b838114611b89576000808581548110611946577f4e487b7100000000000000000000000000000000000000000000000000000000600052603260045260246000fd5b90600052602060002090600302016040518060600160405290816000820160009054906101000a900473ffffffffffffffffffffffffffffffffffffffff1673ffffffffffffffffffffffffffffffffffffffff1673ffffffffffffffffffffffffffffffffffffffff16815260200160018201548152602001600282015481525050905060008281548110611a05577f4e487b7100000000000000000000000000000000000000000000000000000000600052603260045260246000fd5b906000526020600020906003020160008681548110611a4d577f4e487b7100000000000000000000000000000000000000000000000000000000600052603260045260246000fd5b90600052602060002090600302016000820160009054906101000a900473ffffffffffffffffffffffffffffffffffffffff168160000160006101000a81548173ffffffffffffffffffffffffffffffffffffffff021916908373ffffffffffffffffffffffffffffffffffffffff16021790555060018201548160010155600282015481600201559050508060008381548110611b14577f4e487b7100000000000000000000000000000000000000000000000000000000600052603260045260246000fd5b906000526020600020906003020160008201518160000160006101000a81548173ffffffffffffffffffffffffffffffffffffffff021916908373ffffffffffffffffffffffffffffffffffffffff160217905550602082015181600101556040820151816002015590505081945050611b91565b505050611b99565b5050506114da565b50565b600081359050611bab81611fea565b92915050565b600081519050611bc081612001565b92915050565b600060208284031215611bd857600080fd5b6000611be684828501611b9c565b91505092915050565b600060208284031215611c0157600080fd5b6000611c0f84828501611bb1565b91505092915050565b611c2181611ed1565b82525050565b611c3081611ee3565b82525050565b6000611c43600e83611ddf565b91507f517565756520697320656d7074790000000000000000000000000000000000006000830152602082019050919050565b6000611c83600c83611ddf565b91507f556e617574686f72697a656400000000000000000000000000000000000000006000830152602082019050919050565b6000611cc3601b83611ddf565b91507f43616c6c6572206973206e6f7420746865206f7267616e697a657200000000006000830152602082019050919050565b611cff81611f0f565b82525050565b6000602082019050611d1a6000830184611c18565b92915050565b6000604082019050611d356000830185611c18565b611d426020830184611cf6565b9392505050565b6000602082019050611d5e6000830184611c27565b92915050565b60006020820190508181036000830152611d7d81611c36565b9050919050565b60006020820190508181036000830152611d9d81611c76565b9050919050565b60006020820190508181036000830152611dbd81611cb6565b9050919050565b6000602082019050611dd96000830184611cf6565b92915050565b600082825260208201905092915050565b6000611dfb82611f0f565b9150611e0683611f0f565b9250827fffffffffffffffffffffffffffffffffffffffffffffffffffffffffffffffff03821115611e3b57611e3a611f8c565b5b828201905092915050565b6000611e5182611f0f565b9150611e5c83611f0f565b925082611e6c57611e6b611fbb565b5b828204905092915050565b6000611e8282611f0f565b9150611e8d83611f0f565b9250817fffffffffffffffffffffffffffffffffffffffffffffffffffffffffffffffff0483118215151615611ec657611ec5611f8c565b5b828202905092915050565b6000611edc82611eef565b9050919050565b60008115159050919050565b600073ffffffffffffffffffffffffffffffffffffffff82169050919050565b6000819050919050565b6000611f2482611f0f565b91506000821415611f3857611f37611f8c565b5b600182039050919050565b6000611f4e82611f0f565b91507fffffffffffffffffffffffffffffffffffffffffffffffffffffffffffffffff821415611f8157611f80611f8c565b5b600182019050919050565b7f4e487b7100000000000000000000000000000000000000000000000000000000600052601160045260246000fd5b7f4e487b7100000000000000000000000000000000000000000000000000000000600052601260045260246000fd5b611ff381611ed1565b8114611ffe57600080fd5b50565b61200a81611f0f565b811461201557600080fd5b5056fea264697066735822122068329487edc2923cdbc2bad26097bb67c62d24abbc4abb8508ae9dff66dc9d0d64736f6c63430008000033",
  "immutableReferences": {},
  "source": "// SPDX-License-Identifier: MIT\r\npragma solidity ^0.8.0;\r\n\r\nimport \"./LoyaltyPoints.sol\";\r\n\r\ncontract PriorityQueue {\r\n    struct QueueElement {\r\n        address addr;\r\n        uint256 priority;\r\n        uint256 insertionOrder; // To maintain stability among equal priorities.\r\n    }\r\n\r\n    QueueElement[] private heapArray;\r\n    uint256 public size;\r\n    address private organizer; // Added for access control\r\n    LoyaltyPoints loyaltyPointsContract;\r\n    uint256 private insertionCounter = 0;\r\n    address public presaleMarketAddress; // Allow presaleMarket to be an authorised caller\r\n\r\n    // New function to set the PresaleMarket address\r\n    function setPresaleMarketAddress(\r\n        address _presaleMarketAddress\r\n    ) external onlyOrganizer {\r\n        presaleMarketAddress = _presaleMarketAddress;\r\n    }\r\n\r\n    modifier onlyPresaleMarketOrOrganizer() {\r\n        require(\r\n            msg.sender == organizer || msg.sender == presaleMarketAddress,\r\n            \"Unauthorized\"\r\n        );\r\n        _;\r\n    }\r\n\r\n    function setLoyaltyPointsContractAddress(\r\n        address _addr\r\n    ) external onlyOrganizer {\r\n        loyaltyPointsContract = LoyaltyPoints(_addr);\r\n    }\r\n\r\n    modifier onlyOrganizer() {\r\n        require(msg.sender == organizer, \"Caller is not the organizer\");\r\n        _;\r\n    }\r\n\r\n    constructor(address loyaltyPointsAddress) {\r\n        organizer = msg.sender;\r\n        loyaltyPointsContract = LoyaltyPoints(loyaltyPointsAddress);\r\n        heapArray.push(\r\n            QueueElement({addr: address(0), priority: 0, insertionOrder: 0})\r\n        );\r\n        size = 0;\r\n    }\r\n\r\n    event ElementEnqueued(address indexed enqueuedAddress);\r\n    event ElementDequeued(address indexed dequeuedAddress);\r\n\r\n    function enqueue(address _addr) public onlyPresaleMarketOrOrganizer {\r\n        uint256 loyaltyPoints = loyaltyPointsContract.getPoints(_addr);\r\n        heapArray.push(\r\n            QueueElement({\r\n                addr: _addr,\r\n                priority: loyaltyPoints,\r\n                insertionOrder: insertionCounter++\r\n            })\r\n        );\r\n        size++;\r\n        _bubbleUp(size);\r\n        emit ElementEnqueued(_addr);\r\n    }\r\n    function dequeue() public onlyPresaleMarketOrOrganizer returns (address) {\r\n        require(size > 0, \"Queue is empty\");\r\n        address highestPriorityAddress = heapArray[1].addr;\r\n\r\n        heapArray[1] = heapArray[size]; // Move the last element to the top\r\n        heapArray.pop(); // Remove the last element\r\n        size--;\r\n        if (size > 0) {\r\n            _bubbleDown(1); // Re-sort the heap\r\n        }\r\n        emit ElementDequeued(highestPriorityAddress);\r\n        return highestPriorityAddress;\r\n    }\r\n\r\n    function popHighestPriorityBuyer() public onlyPresaleMarketOrOrganizer returns (address) {\r\n        require(size > 0, \"Queue is empty\");\r\n        return dequeue(); // Use dequeue logic to pop and return the highest priority (loyalty points) buyer\r\n    }\r\n\r\n    function peekHighestPriority()\r\n        public\r\n        view\r\n        returns (address addr, uint256 priority)\r\n    {\r\n        require(size > 0, \"Queue is empty\");\r\n        return (heapArray[1].addr, heapArray[1].priority);\r\n    }\r\n\r\n    function updatePriority(address _addr) public onlyOrganizer {\r\n        for (uint256 i = 1; i <= size; i++) {\r\n            if (heapArray[i].addr == _addr) {\r\n                uint256 newLoyaltyPoints = loyaltyPointsContract.getPoints(\r\n                    _addr\r\n                );\r\n                bool shouldBubbleUp = newLoyaltyPoints > heapArray[i].priority;\r\n                heapArray[i].priority = newLoyaltyPoints; // Update priority\r\n\r\n                if (shouldBubbleUp) {\r\n                    // If the new priority is higher, it might need to bubble up\r\n                    _bubbleUp(i);\r\n                } else {\r\n                    // Otherwise, check if it needs to bubble down.\r\n                    // This case can be rare if updating to lower priority is allowed\r\n                    _bubbleDown(i);\r\n                }\r\n                break;\r\n            }\r\n        }\r\n    }\r\n\r\n    function isInQueue(address _addr) public view returns (bool) {\r\n        for (uint256 i = 1; i <= size; i++) {\r\n            if (heapArray[i].addr == _addr) {\r\n                return true;\r\n            }\r\n        }\r\n        return false;\r\n    }\r\n\r\n    function _bubbleUp(uint256 index) private {\r\n        while (index > 1) {\r\n            uint256 parentIndex = index / 2;\r\n            bool shouldSwap = heapArray[index].priority >\r\n                heapArray[parentIndex].priority ||\r\n                (heapArray[index].priority == heapArray[parentIndex].priority &&\r\n                    heapArray[index].insertionOrder <\r\n                    heapArray[parentIndex].insertionOrder);\r\n\r\n            if (shouldSwap) {\r\n                // Use a temporary variable to perform the swap\r\n                QueueElement memory temp = heapArray[parentIndex];\r\n                heapArray[parentIndex] = heapArray[index];\r\n                heapArray[index] = temp;\r\n\r\n                index = parentIndex;\r\n            } else {\r\n                break;\r\n            }\r\n        }\r\n    }\r\n\r\n    function _bubbleDown(uint256 index) private {\r\n        while (index * 2 <= size) {\r\n            uint256 leftChildIndex = 2 * index;\r\n            uint256 rightChildIndex = 2 * index + 1;\r\n            uint256 swapIndex = index;\r\n\r\n            if (\r\n                leftChildIndex <= size &&\r\n                (heapArray[leftChildIndex].priority >\r\n                    heapArray[swapIndex].priority ||\r\n                    (heapArray[leftChildIndex].priority ==\r\n                        heapArray[swapIndex].priority &&\r\n                        heapArray[leftChildIndex].insertionOrder <\r\n                        heapArray[swapIndex].insertionOrder))\r\n            ) {\r\n                swapIndex = leftChildIndex;\r\n            }\r\n\r\n            if (\r\n                rightChildIndex <= size &&\r\n                (heapArray[rightChildIndex].priority >\r\n                    heapArray[swapIndex].priority ||\r\n                    (heapArray[rightChildIndex].priority ==\r\n                        heapArray[swapIndex].priority &&\r\n                        heapArray[rightChildIndex].insertionOrder <\r\n                        heapArray[swapIndex].insertionOrder))\r\n            ) {\r\n                swapIndex = rightChildIndex;\r\n            }\r\n\r\n            if (swapIndex != index) {\r\n                // Use a temporary variable to perform the swap\r\n                QueueElement memory temp = heapArray[index];\r\n                heapArray[index] = heapArray[swapIndex];\r\n                heapArray[swapIndex] = temp;\r\n\r\n                index = swapIndex;\r\n            } else {\r\n                break;\r\n            }\r\n        }\r\n    }\r\n\r\n    function isEmpty() public view returns (bool) {\r\n        return size == 0;\r\n    }\r\n}\r\n",
  "sourcePath": "C:\\Users\\tngjo\\OneDrive\\Desktop\\GitHub\\IS4302-Decentralized-Event-Ticketing-System\\contracts\\PriorityQueue.sol",
  "compiler": {
    "name": "solc",
    "version": "0.8.0+commit.c7dfd78e.Emscripten.clang"
  },
  "schemaVersion": "3.4.16",
  "updatedAt": "2024-04-04T07:03:38.390Z",
  "devdoc": {
    "kind": "dev",
    "methods": {},
    "version": 1
  },
  "userdoc": {
    "kind": "user",
    "methods": {},
    "version": 1
  }
}