{
  "contractName": "PriorityQueue",
  "abi": [
    {
      "inputs": [
        {
          "internalType": "address",
          "name": "loyaltyPointsAddress",
          "type": "address"
        }
      ],
      "stateMutability": "nonpayable",
      "type": "constructor"
    },
    {
      "anonymous": false,
      "inputs": [
        {
          "indexed": true,
          "internalType": "address",
          "name": "dequeuedAddress",
          "type": "address"
        }
      ],
      "name": "ElementDequeued",
      "type": "event"
    },
    {
      "anonymous": false,
      "inputs": [
        {
          "indexed": true,
          "internalType": "address",
          "name": "enqueuedAddress",
          "type": "address"
        }
      ],
      "name": "ElementEnqueued",
      "type": "event"
    },
    {
      "inputs": [],
      "name": "presaleMarketAddress",
      "outputs": [
        {
          "internalType": "address",
          "name": "",
          "type": "address"
        }
      ],
      "stateMutability": "view",
      "type": "function"
    },
    {
      "inputs": [],
      "name": "size",
      "outputs": [
        {
          "internalType": "uint256",
          "name": "",
          "type": "uint256"
        }
      ],
      "stateMutability": "view",
      "type": "function"
    },
    {
      "inputs": [
        {
          "internalType": "address",
          "name": "_presaleMarketAddress",
          "type": "address"
        }
      ],
      "name": "setPresaleMarketAddress",
      "outputs": [],
      "stateMutability": "nonpayable",
      "type": "function"
    },
    {
      "inputs": [
        {
          "internalType": "address",
          "name": "_addr",
          "type": "address"
        }
      ],
      "name": "setLoyaltyPointsContractAddress",
      "outputs": [],
      "stateMutability": "nonpayable",
      "type": "function"
    },
    {
      "inputs": [
        {
          "internalType": "address",
          "name": "_addr",
          "type": "address"
        }
      ],
      "name": "enqueue",
      "outputs": [],
      "stateMutability": "nonpayable",
      "type": "function"
    },
    {
      "inputs": [],
      "name": "dequeue",
      "outputs": [
        {
          "internalType": "address",
          "name": "",
          "type": "address"
        }
      ],
      "stateMutability": "nonpayable",
      "type": "function"
    },
    {
      "inputs": [],
      "name": "popHighestPriorityBuyer",
      "outputs": [
        {
          "internalType": "address",
          "name": "",
          "type": "address"
        }
      ],
      "stateMutability": "nonpayable",
      "type": "function"
    },
    {
      "inputs": [],
      "name": "peekHighestPriority",
      "outputs": [
        {
          "internalType": "address",
          "name": "addr",
          "type": "address"
        },
        {
          "internalType": "uint256",
          "name": "priority",
          "type": "uint256"
        }
      ],
      "stateMutability": "view",
      "type": "function"
    },
    {
      "inputs": [
        {
          "internalType": "address",
          "name": "_addr",
          "type": "address"
        }
      ],
      "name": "updatePriority",
      "outputs": [],
      "stateMutability": "nonpayable",
      "type": "function"
    },
    {
      "inputs": [
        {
          "internalType": "address",
          "name": "_addr",
          "type": "address"
        }
      ],
      "name": "isInQueue",
      "outputs": [
        {
          "internalType": "bool",
          "name": "",
          "type": "bool"
        }
      ],
      "stateMutability": "view",
      "type": "function"
    },
    {
      "inputs": [],
      "name": "isEmpty",
      "outputs": [
        {
          "internalType": "bool",
          "name": "",
          "type": "bool"
        }
      ],
      "stateMutability": "view",
      "type": "function"
    }
  ],
  "bytecode": "0x608060405260006004553480156200001657600080fd5b50604051620022203803806200222083398181016040528101906200003c9190620001a0565b33600260006101000a81548173ffffffffffffffffffffffffffffffffffffffff021916908373ffffffffffffffffffffffffffffffffffffffff16021790555080600360006101000a81548173ffffffffffffffffffffffffffffffffffffffff021916908373ffffffffffffffffffffffffffffffffffffffff16021790555060006040518060600160405280600073ffffffffffffffffffffffffffffffffffffffff168152602001600081526020016000815250908060018154018082558091505060019003906000526020600020906003020160009091909190915060008201518160000160006101000a81548173ffffffffffffffffffffffffffffffffffffffff021916908373ffffffffffffffffffffffffffffffffffffffff160217905550602082015181600101556040820151816002015550506000600181905550506200021a565b6000815190506200019a8162000200565b92915050565b600060208284031215620001b357600080fd5b6000620001c38482850162000189565b91505092915050565b6000620001d982620001e0565b9050919050565b600073ffffffffffffffffffffffffffffffffffffffff82169050919050565b6200020b81620001cc565b81146200021757600080fd5b50565b611ff6806200022a6000396000f3fe608060405234801561001057600080fd5b50600436106100a95760003560e01c80638f807f6b116100715780638f807f6b14610141578063949d225d1461015d578063957908d11461017b578063c34215d414610199578063d71437cb146101b7578063fe18a430146101e7576100a9565b80630b8be373146100ae57806325923272146100cd5780635b73c131146100e957806366e40d8414610107578063681fe70c14610123575b600080fd5b6100b6610203565b6040516100c4929190611cc8565b60405180910390f35b6100e760048036038101906100e29190611b6e565b61030d565b005b6100f16103e1565b6040516100fe9190611cad565b60405180910390f35b610121600480360381019061011c9190611b6e565b610407565b005b61012b6106d2565b6040516101389190611cf1565b60405180910390f35b61015b60048036038101906101569190611b6e565b6106de565b005b6101656109ae565b6040516101729190611d6c565b60405180910390f35b6101836109b4565b6040516101909190611cad565b60405180910390f35b6101a1610d0c565b6040516101ae9190611cad565b60405180910390f35b6101d160048036038101906101cc9190611b6e565b610e48565b6040516101de9190611cf1565b60405180910390f35b61020160048036038101906101fc9190611b6e565b610f20565b005b60008060006001541161024b576040517f08c379a000000000000000000000000000000000000000000000000000000000815260040161024290611d0c565b60405180910390fd5b6000600181548110610286577f4e487b7100000000000000000000000000000000000000000000000000000000600052603260045260246000fd5b906000526020600020906003020160000160009054906101000a900473ffffffffffffffffffffffffffffffffffffffff1660006001815481106102f3577f4e487b7100000000000000000000000000000000000000000000000000000000600052603260045260246000fd5b906000526020600020906003020160010154915091509091565b600260009054906101000a900473ffffffffffffffffffffffffffffffffffffffff1673ffffffffffffffffffffffffffffffffffffffff163373ffffffffffffffffffffffffffffffffffffffff161461039d576040517f08c379a000000000000000000000000000000000000000000000000000000000815260040161039490611d4c565b60405180910390fd5b80600360006101000a81548173ffffffffffffffffffffffffffffffffffffffff021916908373ffffffffffffffffffffffffffffffffffffffff16021790555050565b600560009054906101000a900473ffffffffffffffffffffffffffffffffffffffff1681565b600260009054906101000a900473ffffffffffffffffffffffffffffffffffffffff1673ffffffffffffffffffffffffffffffffffffffff163373ffffffffffffffffffffffffffffffffffffffff1614610497576040517f08c379a000000000000000000000000000000000000000000000000000000000815260040161048e90611d4c565b60405180910390fd5b6000600190505b60015481116106ce578173ffffffffffffffffffffffffffffffffffffffff16600082815481106104f8577f4e487b7100000000000000000000000000000000000000000000000000000000600052603260045260246000fd5b906000526020600020906003020160000160009054906101000a900473ffffffffffffffffffffffffffffffffffffffff1673ffffffffffffffffffffffffffffffffffffffff1614156106bb576000600360009054906101000a900473ffffffffffffffffffffffffffffffffffffffff1673ffffffffffffffffffffffffffffffffffffffff1663ee204abb846040518263ffffffff1660e01b81526004016105a39190611cad565b60206040518083038186803b1580156105bb57600080fd5b505afa1580156105cf573d6000803e3d6000fd5b505050506040513d601f19601f820116820180604052508101906105f39190611b97565b90506000808381548110610630577f4e487b7100000000000000000000000000000000000000000000000000000000600052603260045260246000fd5b906000526020600020906003020160010154821190508160008481548110610681577f4e487b7100000000000000000000000000000000000000000000000000000000600052603260045260246000fd5b90600052602060002090600302016001018190555080156106aa576106a583610ff4565b6106b4565b6106b383611481565b5b50506106ce565b80806106c690611eeb565b91505061049e565b5050565b60008060015414905090565b600260009054906101000a900473ffffffffffffffffffffffffffffffffffffffff1673ffffffffffffffffffffffffffffffffffffffff163373ffffffffffffffffffffffffffffffffffffffff1614806107875750600560009054906101000a900473ffffffffffffffffffffffffffffffffffffffff1673ffffffffffffffffffffffffffffffffffffffff163373ffffffffffffffffffffffffffffffffffffffff16145b6107c6576040517f08c379a00000000000000000000000000000000000000000000000000000000081526004016107bd90611d2c565b60405180910390fd5b6000600360009054906101000a900473ffffffffffffffffffffffffffffffffffffffff1673ffffffffffffffffffffffffffffffffffffffff1663ee204abb836040518263ffffffff1660e01b81526004016108239190611cad565b60206040518083038186803b15801561083b57600080fd5b505afa15801561084f573d6000803e3d6000fd5b505050506040513d601f19601f820116820180604052508101906108739190611b97565b9050600060405180606001604052808473ffffffffffffffffffffffffffffffffffffffff168152602001838152602001600460008154809291906108b790611eeb565b91905055815250908060018154018082558091505060019003906000526020600020906003020160009091909190915060008201518160000160006101000a81548173ffffffffffffffffffffffffffffffffffffffff021916908373ffffffffffffffffffffffffffffffffffffffff160217905550602082015181600101556040820151816002015550506001600081548092919061095790611eeb565b9190505550610967600154610ff4565b8173ffffffffffffffffffffffffffffffffffffffff167f5ba7d0799e79fdc8248536761afc64f3373b4336321c14a8180738c95e29d76c60405160405180910390a25050565b60015481565b6000600260009054906101000a900473ffffffffffffffffffffffffffffffffffffffff1673ffffffffffffffffffffffffffffffffffffffff163373ffffffffffffffffffffffffffffffffffffffff1614610a46576040517f08c379a0000000000000000000000000000000000000000000000000000000008152600401610a3d90611d4c565b60405180910390fd5b600060015411610a8b576040517f08c379a0000000000000000000000000000000000000000000000000000000008152600401610a8290611d0c565b60405180910390fd5b600080600181548110610ac7577f4e487b7100000000000000000000000000000000000000000000000000000000600052603260045260246000fd5b906000526020600020906003020160000160009054906101000a900473ffffffffffffffffffffffffffffffffffffffff169050600060015481548110610b37577f4e487b7100000000000000000000000000000000000000000000000000000000600052603260045260246000fd5b90600052602060002090600302016000600181548110610b80577f4e487b7100000000000000000000000000000000000000000000000000000000600052603260045260246000fd5b90600052602060002090600302016000820160009054906101000a900473ffffffffffffffffffffffffffffffffffffffff168160000160006101000a81548173ffffffffffffffffffffffffffffffffffffffff021916908373ffffffffffffffffffffffffffffffffffffffff16021790555060018201548160010155600282015481600201559050506000805480610c44577f4e487b7100000000000000000000000000000000000000000000000000000000600052603160045260246000fd5b6001900381819060005260206000209060030201600080820160006101000a81549073ffffffffffffffffffffffffffffffffffffffff0219169055600182016000905560028201600090555050905560016000815480929190610ca790611ec1565b919050555060006001541115610cc257610cc16001611481565b5b8073ffffffffffffffffffffffffffffffffffffffff167fd0c10f12413dbc5bc16bf413df8088858fd3c68cb5f672cdafcb916cd20ab4fa60405160405180910390a28091505090565b6000600260009054906101000a900473ffffffffffffffffffffffffffffffffffffffff1673ffffffffffffffffffffffffffffffffffffffff163373ffffffffffffffffffffffffffffffffffffffff161480610db75750600560009054906101000a900473ffffffffffffffffffffffffffffffffffffffff1673ffffffffffffffffffffffffffffffffffffffff163373ffffffffffffffffffffffffffffffffffffffff16145b610df6576040517f08c379a0000000000000000000000000000000000000000000000000000000008152600401610ded90611d2c565b60405180910390fd5b600060015411610e3b576040517f08c379a0000000000000000000000000000000000000000000000000000000008152600401610e3290611d0c565b60405180910390fd5b610e436109b4565b905090565b600080600190505b6001548111610f15578273ffffffffffffffffffffffffffffffffffffffff1660008281548110610eaa577f4e487b7100000000000000000000000000000000000000000000000000000000600052603260045260246000fd5b906000526020600020906003020160000160009054906101000a900473ffffffffffffffffffffffffffffffffffffffff1673ffffffffffffffffffffffffffffffffffffffff161415610f02576001915050610f1b565b8080610f0d90611eeb565b915050610e50565b50600090505b919050565b600260009054906101000a900473ffffffffffffffffffffffffffffffffffffffff1673ffffffffffffffffffffffffffffffffffffffff163373ffffffffffffffffffffffffffffffffffffffff1614610fb0576040517f08c379a0000000000000000000000000000000000000000000000000000000008152600401610fa790611d4c565b60405180910390fd5b80600560006101000a81548173ffffffffffffffffffffffffffffffffffffffff021916908373ffffffffffffffffffffffffffffffffffffffff16021790555050565b5b600181111561147e57600060028261100d9190611dee565b9050600080828154811061104a577f4e487b7100000000000000000000000000000000000000000000000000000000600052603260045260246000fd5b90600052602060002090600302016001015460008481548110611096577f4e487b7100000000000000000000000000000000000000000000000000000000600052603260045260246000fd5b90600052602060002090600302016001015411806111ea5750600082815481106110e9577f4e487b7100000000000000000000000000000000000000000000000000000000600052603260045260246000fd5b90600052602060002090600302016001015460008481548110611135577f4e487b7100000000000000000000000000000000000000000000000000000000600052603260045260246000fd5b9060005260206000209060030201600101541480156111e9575060008281548110611189577f4e487b7100000000000000000000000000000000000000000000000000000000600052603260045260246000fd5b906000526020600020906003020160020154600084815481106111d5577f4e487b7100000000000000000000000000000000000000000000000000000000600052603260045260246000fd5b906000526020600020906003020160020154105b5b9050801561147057600080838154811061122d577f4e487b7100000000000000000000000000000000000000000000000000000000600052603260045260246000fd5b90600052602060002090600302016040518060600160405290816000820160009054906101000a900473ffffffffffffffffffffffffffffffffffffffff1673ffffffffffffffffffffffffffffffffffffffff1673ffffffffffffffffffffffffffffffffffffffff168152602001600182015481526020016002820154815250509050600084815481106112ec577f4e487b7100000000000000000000000000000000000000000000000000000000600052603260045260246000fd5b906000526020600020906003020160008481548110611334577f4e487b7100000000000000000000000000000000000000000000000000000000600052603260045260246000fd5b90600052602060002090600302016000820160009054906101000a900473ffffffffffffffffffffffffffffffffffffffff168160000160006101000a81548173ffffffffffffffffffffffffffffffffffffffff021916908373ffffffffffffffffffffffffffffffffffffffff160217905550600182015481600101556002820154816002015590505080600085815481106113fb577f4e487b7100000000000000000000000000000000000000000000000000000000600052603260045260246000fd5b906000526020600020906003020160008201518160000160006101000a81548173ffffffffffffffffffffffffffffffffffffffff021916908373ffffffffffffffffffffffffffffffffffffffff160217905550602082015181600101556040820151816002015590505082935050611477565b505061147e565b5050610ff5565b50565b5b6001546002826114929190611e1f565b11611b415760008160026114a69190611e1f565b9050600060018360026114b99190611e1f565b6114c39190611d98565b9050600083905060015483111580156116b2575060008181548110611511577f4e487b7100000000000000000000000000000000000000000000000000000000600052603260045260246000fd5b9060005260206000209060030201600101546000848154811061155d577f4e487b7100000000000000000000000000000000000000000000000000000000600052603260045260246000fd5b90600052602060002090600302016001015411806116b15750600081815481106115b0577f4e487b7100000000000000000000000000000000000000000000000000000000600052603260045260246000fd5b906000526020600020906003020160010154600084815481106115fc577f4e487b7100000000000000000000000000000000000000000000000000000000600052603260045260246000fd5b9060005260206000209060030201600101541480156116b0575060008181548110611650577f4e487b7100000000000000000000000000000000000000000000000000000000600052603260045260246000fd5b9060005260206000209060030201600201546000848154811061169c577f4e487b7100000000000000000000000000000000000000000000000000000000600052603260045260246000fd5b906000526020600020906003020160020154105b5b5b156116bb578290505b60015482111580156118a3575060008181548110611702577f4e487b7100000000000000000000000000000000000000000000000000000000600052603260045260246000fd5b9060005260206000209060030201600101546000838154811061174e577f4e487b7100000000000000000000000000000000000000000000000000000000600052603260045260246000fd5b90600052602060002090600302016001015411806118a25750600081815481106117a1577f4e487b7100000000000000000000000000000000000000000000000000000000600052603260045260246000fd5b906000526020600020906003020160010154600083815481106117ed577f4e487b7100000000000000000000000000000000000000000000000000000000600052603260045260246000fd5b9060005260206000209060030201600101541480156118a1575060008181548110611841577f4e487b7100000000000000000000000000000000000000000000000000000000600052603260045260246000fd5b9060005260206000209060030201600201546000838154811061188d577f4e487b7100000000000000000000000000000000000000000000000000000000600052603260045260246000fd5b906000526020600020906003020160020154105b5b5b156118ac578190505b838114611b315760008085815481106118ee577f4e487b7100000000000000000000000000000000000000000000000000000000600052603260045260246000fd5b90600052602060002090600302016040518060600160405290816000820160009054906101000a900473ffffffffffffffffffffffffffffffffffffffff1673ffffffffffffffffffffffffffffffffffffffff1673ffffffffffffffffffffffffffffffffffffffff168152602001600182015481526020016002820154815250509050600082815481106119ad577f4e487b7100000000000000000000000000000000000000000000000000000000600052603260045260246000fd5b9060005260206000209060030201600086815481106119f5577f4e487b7100000000000000000000000000000000000000000000000000000000600052603260045260246000fd5b90600052602060002090600302016000820160009054906101000a900473ffffffffffffffffffffffffffffffffffffffff168160000160006101000a81548173ffffffffffffffffffffffffffffffffffffffff021916908373ffffffffffffffffffffffffffffffffffffffff16021790555060018201548160010155600282015481600201559050508060008381548110611abc577f4e487b7100000000000000000000000000000000000000000000000000000000600052603260045260246000fd5b906000526020600020906003020160008201518160000160006101000a81548173ffffffffffffffffffffffffffffffffffffffff021916908373ffffffffffffffffffffffffffffffffffffffff160217905550602082015181600101556040820151816002015590505081945050611b39565b505050611b41565b505050611482565b50565b600081359050611b5381611f92565b92915050565b600081519050611b6881611fa9565b92915050565b600060208284031215611b8057600080fd5b6000611b8e84828501611b44565b91505092915050565b600060208284031215611ba957600080fd5b6000611bb784828501611b59565b91505092915050565b611bc981611e79565b82525050565b611bd881611e8b565b82525050565b6000611beb600e83611d87565b91507f517565756520697320656d7074790000000000000000000000000000000000006000830152602082019050919050565b6000611c2b600c83611d87565b91507f556e617574686f72697a656400000000000000000000000000000000000000006000830152602082019050919050565b6000611c6b601b83611d87565b91507f43616c6c6572206973206e6f7420746865206f7267616e697a657200000000006000830152602082019050919050565b611ca781611eb7565b82525050565b6000602082019050611cc26000830184611bc0565b92915050565b6000604082019050611cdd6000830185611bc0565b611cea6020830184611c9e565b9392505050565b6000602082019050611d066000830184611bcf565b92915050565b60006020820190508181036000830152611d2581611bde565b9050919050565b60006020820190508181036000830152611d4581611c1e565b9050919050565b60006020820190508181036000830152611d6581611c5e565b9050919050565b6000602082019050611d816000830184611c9e565b92915050565b600082825260208201905092915050565b6000611da382611eb7565b9150611dae83611eb7565b9250827fffffffffffffffffffffffffffffffffffffffffffffffffffffffffffffffff03821115611de357611de2611f34565b5b828201905092915050565b6000611df982611eb7565b9150611e0483611eb7565b925082611e1457611e13611f63565b5b828204905092915050565b6000611e2a82611eb7565b9150611e3583611eb7565b9250817fffffffffffffffffffffffffffffffffffffffffffffffffffffffffffffffff0483118215151615611e6e57611e6d611f34565b5b828202905092915050565b6000611e8482611e97565b9050919050565b60008115159050919050565b600073ffffffffffffffffffffffffffffffffffffffff82169050919050565b6000819050919050565b6000611ecc82611eb7565b91506000821415611ee057611edf611f34565b5b600182039050919050565b6000611ef682611eb7565b91507fffffffffffffffffffffffffffffffffffffffffffffffffffffffffffffffff821415611f2957611f28611f34565b5b600182019050919050565b7f4e487b7100000000000000000000000000000000000000000000000000000000600052601160045260246000fd5b7f4e487b7100000000000000000000000000000000000000000000000000000000600052601260045260246000fd5b611f9b81611e79565b8114611fa657600080fd5b50565b611fb281611eb7565b8114611fbd57600080fd5b5056fea2646970667358221220d21c900093fad263033c84c98a08f20efa60bcff54a560ebba2cf7ab48a2ba0864736f6c63430008000033",
  "immutableReferences": {},
  "source": "// SPDX-License-Identifier: MIT\r\npragma solidity ^0.8.0;\r\n\r\nimport \"./LoyaltyPoints.sol\";\r\n\r\ncontract PriorityQueue {\r\n    struct QueueElement {\r\n        address addr;\r\n        uint256 priority;\r\n        uint256 insertionOrder; // To maintain stability among equal priorities.\r\n    }\r\n\r\n    QueueElement[] private heapArray;\r\n    uint256 public size;\r\n    address private organizer; // Added for access control\r\n    LoyaltyPoints loyaltyPointsContract;\r\n    uint256 private insertionCounter = 0;\r\n    address public presaleMarketAddress; // Allow presaleMarket to be an authorised caller\r\n\r\n    // New function to set the PresaleMarket address\r\n    function setPresaleMarketAddress(\r\n        address _presaleMarketAddress\r\n    ) external onlyOrganizer {\r\n        presaleMarketAddress = _presaleMarketAddress;\r\n    }\r\n\r\n    modifier onlyPresaleMarketOrOrganizer() {\r\n        require(\r\n            msg.sender == organizer || msg.sender == presaleMarketAddress,\r\n            \"Unauthorized\"\r\n        );\r\n        _;\r\n    }\r\n\r\n    function setLoyaltyPointsContractAddress(\r\n        address _addr\r\n    ) external onlyOrganizer {\r\n        loyaltyPointsContract = LoyaltyPoints(_addr);\r\n    }\r\n\r\n    modifier onlyOrganizer() {\r\n        require(msg.sender == organizer, \"Caller is not the organizer\");\r\n        _;\r\n    }\r\n\r\n    constructor(address loyaltyPointsAddress) {\r\n        organizer = msg.sender;\r\n        loyaltyPointsContract = LoyaltyPoints(loyaltyPointsAddress);\r\n        heapArray.push(\r\n            QueueElement({addr: address(0), priority: 0, insertionOrder: 0})\r\n        );\r\n        size = 0;\r\n    }\r\n\r\n    event ElementEnqueued(address indexed enqueuedAddress);\r\n    event ElementDequeued(address indexed dequeuedAddress);\r\n\r\n    function enqueue(address _addr) public onlyPresaleMarketOrOrganizer {\r\n        uint256 loyaltyPoints = loyaltyPointsContract.getPoints(_addr);\r\n        heapArray.push(\r\n            QueueElement({\r\n                addr: _addr,\r\n                priority: loyaltyPoints,\r\n                insertionOrder: insertionCounter++\r\n            })\r\n        );\r\n        size++;\r\n        _bubbleUp(size);\r\n        emit ElementEnqueued(_addr);\r\n    }\r\n    function dequeue() public onlyOrganizer returns (address) {\r\n        require(size > 0, \"Queue is empty\");\r\n        address highestPriorityAddress = heapArray[1].addr;\r\n\r\n        heapArray[1] = heapArray[size]; // Move the last element to the top\r\n        heapArray.pop(); // Remove the last element\r\n        size--;\r\n        if (size > 0) {\r\n            _bubbleDown(1); // Re-sort the heap\r\n        }\r\n        emit ElementDequeued(highestPriorityAddress);\r\n        return highestPriorityAddress;\r\n    }\r\n\r\n    function popHighestPriorityBuyer() public onlyPresaleMarketOrOrganizer returns (address) {\r\n        require(size > 0, \"Queue is empty\");\r\n        return dequeue(); // Use dequeue logic to pop and return the highest priority (loyalty points) buyer\r\n    }\r\n\r\n    function peekHighestPriority()\r\n        public\r\n        view\r\n        returns (address addr, uint256 priority)\r\n    {\r\n        require(size > 0, \"Queue is empty\");\r\n        return (heapArray[1].addr, heapArray[1].priority);\r\n    }\r\n\r\n    function updatePriority(address _addr) public onlyOrganizer {\r\n        for (uint256 i = 1; i <= size; i++) {\r\n            if (heapArray[i].addr == _addr) {\r\n                uint256 newLoyaltyPoints = loyaltyPointsContract.getPoints(\r\n                    _addr\r\n                );\r\n                bool shouldBubbleUp = newLoyaltyPoints > heapArray[i].priority;\r\n                heapArray[i].priority = newLoyaltyPoints; // Update priority\r\n\r\n                if (shouldBubbleUp) {\r\n                    // If the new priority is higher, it might need to bubble up\r\n                    _bubbleUp(i);\r\n                } else {\r\n                    // Otherwise, check if it needs to bubble down.\r\n                    // This case can be rare if updating to lower priority is allowed\r\n                    _bubbleDown(i);\r\n                }\r\n                break;\r\n            }\r\n        }\r\n    }\r\n\r\n    function isInQueue(address _addr) public view returns (bool) {\r\n        for (uint256 i = 1; i <= size; i++) {\r\n            if (heapArray[i].addr == _addr) {\r\n                return true;\r\n            }\r\n        }\r\n        return false;\r\n    }\r\n\r\n    function _bubbleUp(uint256 index) private {\r\n        while (index > 1) {\r\n            uint256 parentIndex = index / 2;\r\n            bool shouldSwap = heapArray[index].priority >\r\n                heapArray[parentIndex].priority ||\r\n                (heapArray[index].priority == heapArray[parentIndex].priority &&\r\n                    heapArray[index].insertionOrder <\r\n                    heapArray[parentIndex].insertionOrder);\r\n\r\n            if (shouldSwap) {\r\n                // Use a temporary variable to perform the swap\r\n                QueueElement memory temp = heapArray[parentIndex];\r\n                heapArray[parentIndex] = heapArray[index];\r\n                heapArray[index] = temp;\r\n\r\n                index = parentIndex;\r\n            } else {\r\n                break;\r\n            }\r\n        }\r\n    }\r\n\r\n    function _bubbleDown(uint256 index) private {\r\n        while (index * 2 <= size) {\r\n            uint256 leftChildIndex = 2 * index;\r\n            uint256 rightChildIndex = 2 * index + 1;\r\n            uint256 swapIndex = index;\r\n\r\n            if (\r\n                leftChildIndex <= size &&\r\n                (heapArray[leftChildIndex].priority >\r\n                    heapArray[swapIndex].priority ||\r\n                    (heapArray[leftChildIndex].priority ==\r\n                        heapArray[swapIndex].priority &&\r\n                        heapArray[leftChildIndex].insertionOrder <\r\n                        heapArray[swapIndex].insertionOrder))\r\n            ) {\r\n                swapIndex = leftChildIndex;\r\n            }\r\n\r\n            if (\r\n                rightChildIndex <= size &&\r\n                (heapArray[rightChildIndex].priority >\r\n                    heapArray[swapIndex].priority ||\r\n                    (heapArray[rightChildIndex].priority ==\r\n                        heapArray[swapIndex].priority &&\r\n                        heapArray[rightChildIndex].insertionOrder <\r\n                        heapArray[swapIndex].insertionOrder))\r\n            ) {\r\n                swapIndex = rightChildIndex;\r\n            }\r\n\r\n            if (swapIndex != index) {\r\n                // Use a temporary variable to perform the swap\r\n                QueueElement memory temp = heapArray[index];\r\n                heapArray[index] = heapArray[swapIndex];\r\n                heapArray[swapIndex] = temp;\r\n\r\n                index = swapIndex;\r\n            } else {\r\n                break;\r\n            }\r\n        }\r\n    }\r\n\r\n    function isEmpty() public view returns (bool) {\r\n        return size == 0;\r\n    }\r\n}\r\n",
  "sourcePath": "C:\\Users\\tngjo\\OneDrive\\Desktop\\GitHub\\IS4302-Decentralized-Event-Ticketing-System\\contracts\\PriorityQueue.sol",
  "compiler": {
    "name": "solc",
    "version": "0.8.0+commit.c7dfd78e.Emscripten.clang"
  },
  "schemaVersion": "3.4.16",
  "updatedAt": "2024-03-29T11:33:48.099Z",
  "devdoc": {
    "kind": "dev",
    "methods": {},
    "version": 1
  },
  "userdoc": {
    "kind": "user",
    "methods": {},
    "version": 1
  }
}