{
  "contractName": "PriorityQueue",
  "abi": [
    {
      "inputs": [
        {
          "internalType": "address",
          "name": "loyaltyPointsAddress",
          "type": "address"
        }
      ],
      "stateMutability": "nonpayable",
      "type": "constructor"
    },
    {
      "anonymous": false,
      "inputs": [
        {
          "indexed": true,
          "internalType": "address",
          "name": "dequeuedAddress",
          "type": "address"
        }
      ],
      "name": "ElementDequeued",
      "type": "event"
    },
    {
      "anonymous": false,
      "inputs": [
        {
          "indexed": true,
          "internalType": "address",
          "name": "enqueuedAddress",
          "type": "address"
        }
      ],
      "name": "ElementEnqueued",
      "type": "event"
    },
    {
      "inputs": [],
      "name": "size",
      "outputs": [
        {
          "internalType": "uint256",
          "name": "",
          "type": "uint256"
        }
      ],
      "stateMutability": "view",
      "type": "function",
      "constant": true
    },
    {
      "inputs": [
        {
          "internalType": "address",
          "name": "_addr",
          "type": "address"
        }
      ],
      "name": "setLoyaltyPointsContractAddress",
      "outputs": [],
      "stateMutability": "nonpayable",
      "type": "function"
    },
    {
      "inputs": [
        {
          "internalType": "address",
          "name": "_addr",
          "type": "address"
        }
      ],
      "name": "enqueue",
      "outputs": [],
      "stateMutability": "nonpayable",
      "type": "function"
    },
    {
      "inputs": [],
      "name": "dequeue",
      "outputs": [
        {
          "internalType": "address",
          "name": "",
          "type": "address"
        }
      ],
      "stateMutability": "nonpayable",
      "type": "function"
    },
    {
      "inputs": [],
      "name": "popHighestPriorityBuyer",
      "outputs": [
        {
          "internalType": "address",
          "name": "",
          "type": "address"
        }
      ],
      "stateMutability": "nonpayable",
      "type": "function"
    },
    {
      "inputs": [],
      "name": "peekHighestPriority",
      "outputs": [
        {
          "internalType": "address",
          "name": "addr",
          "type": "address"
        },
        {
          "internalType": "uint256",
          "name": "priority",
          "type": "uint256"
        }
      ],
      "stateMutability": "view",
      "type": "function",
      "constant": true
    },
    {
      "inputs": [
        {
          "internalType": "address",
          "name": "_addr",
          "type": "address"
        }
      ],
      "name": "updatePriority",
      "outputs": [],
      "stateMutability": "nonpayable",
      "type": "function"
    },
    {
      "inputs": [
        {
          "internalType": "address",
          "name": "_addr",
          "type": "address"
        }
      ],
      "name": "isInQueue",
      "outputs": [
        {
          "internalType": "bool",
          "name": "",
          "type": "bool"
        }
      ],
      "stateMutability": "view",
      "type": "function",
      "constant": true
    },
    {
      "inputs": [],
      "name": "isEmpty",
      "outputs": [
        {
          "internalType": "bool",
          "name": "",
          "type": "bool"
        }
      ],
      "stateMutability": "view",
      "type": "function",
      "constant": true
    }
  ],
  "bytecode": "0x608060405260006004553480156200001657600080fd5b5060405162001fc638038062001fc683398181016040528101906200003c9190620001a0565b33600260006101000a81548173ffffffffffffffffffffffffffffffffffffffff021916908373ffffffffffffffffffffffffffffffffffffffff16021790555080600360006101000a81548173ffffffffffffffffffffffffffffffffffffffff021916908373ffffffffffffffffffffffffffffffffffffffff16021790555060006040518060600160405280600073ffffffffffffffffffffffffffffffffffffffff168152602001600081526020016000815250908060018154018082558091505060019003906000526020600020906003020160009091909190915060008201518160000160006101000a81548173ffffffffffffffffffffffffffffffffffffffff021916908373ffffffffffffffffffffffffffffffffffffffff160217905550602082015181600101556040820151816002015550506000600181905550506200021a565b6000815190506200019a8162000200565b92915050565b600060208284031215620001b357600080fd5b6000620001c38482850162000189565b91505092915050565b6000620001d982620001e0565b9050919050565b600073ffffffffffffffffffffffffffffffffffffffff82169050919050565b6200020b81620001cc565b81146200021757600080fd5b50565b611d9c806200022a6000396000f3fe608060405234801561001057600080fd5b50600436106100935760003560e01c80638f807f6b116100665780638f807f6b1461010d578063949d225d14610129578063957908d114610147578063c34215d414610165578063d71437cb1461018357610093565b80630b8be3731461009857806325923272146100b757806366e40d84146100d3578063681fe70c146100ef575b600080fd5b6100a06101b3565b6040516100ae929190611a8e565b60405180910390f35b6100d160048036038101906100cc9190611974565b6102bd565b005b6100ed60048036038101906100e89190611974565b610391565b005b6100f761065c565b6040516101049190611ab7565b60405180910390f35b61012760048036038101906101229190611974565b610668565b005b6101316108e0565b60405161013e9190611b12565b60405180910390f35b61014f6108e6565b60405161015c9190611a73565b60405180910390f35b61016d610c3e565b60405161017a9190611a73565b60405180910390f35b61019d60048036038101906101989190611974565b610d22565b6040516101aa9190611ab7565b60405180910390f35b6000806000600154116101fb576040517f08c379a00000000000000000000000000000000000000000000000000000000081526004016101f290611ad2565b60405180910390fd5b6000600181548110610236577f4e487b7100000000000000000000000000000000000000000000000000000000600052603260045260246000fd5b906000526020600020906003020160000160009054906101000a900473ffffffffffffffffffffffffffffffffffffffff1660006001815481106102a3577f4e487b7100000000000000000000000000000000000000000000000000000000600052603260045260246000fd5b906000526020600020906003020160010154915091509091565b600260009054906101000a900473ffffffffffffffffffffffffffffffffffffffff1673ffffffffffffffffffffffffffffffffffffffff163373ffffffffffffffffffffffffffffffffffffffff161461034d576040517f08c379a000000000000000000000000000000000000000000000000000000000815260040161034490611af2565b60405180910390fd5b80600360006101000a81548173ffffffffffffffffffffffffffffffffffffffff021916908373ffffffffffffffffffffffffffffffffffffffff16021790555050565b600260009054906101000a900473ffffffffffffffffffffffffffffffffffffffff1673ffffffffffffffffffffffffffffffffffffffff163373ffffffffffffffffffffffffffffffffffffffff1614610421576040517f08c379a000000000000000000000000000000000000000000000000000000000815260040161041890611af2565b60405180910390fd5b6000600190505b6001548111610658578173ffffffffffffffffffffffffffffffffffffffff1660008281548110610482577f4e487b7100000000000000000000000000000000000000000000000000000000600052603260045260246000fd5b906000526020600020906003020160000160009054906101000a900473ffffffffffffffffffffffffffffffffffffffff1673ffffffffffffffffffffffffffffffffffffffff161415610645576000600360009054906101000a900473ffffffffffffffffffffffffffffffffffffffff1673ffffffffffffffffffffffffffffffffffffffff1663ee204abb846040518263ffffffff1660e01b815260040161052d9190611a73565b60206040518083038186803b15801561054557600080fd5b505afa158015610559573d6000803e3d6000fd5b505050506040513d601f19601f8201168201806040525081019061057d919061199d565b905060008083815481106105ba577f4e487b7100000000000000000000000000000000000000000000000000000000600052603260045260246000fd5b90600052602060002090600302016001015482119050816000848154811061060b577f4e487b7100000000000000000000000000000000000000000000000000000000600052603260045260246000fd5b90600052602060002090600302016001018190555080156106345761062f83610dfa565b61063e565b61063d83611287565b5b5050610658565b808061065090611c91565b915050610428565b5050565b60008060015414905090565b600260009054906101000a900473ffffffffffffffffffffffffffffffffffffffff1673ffffffffffffffffffffffffffffffffffffffff163373ffffffffffffffffffffffffffffffffffffffff16146106f8576040517f08c379a00000000000000000000000000000000000000000000000000000000081526004016106ef90611af2565b60405180910390fd5b6000600360009054906101000a900473ffffffffffffffffffffffffffffffffffffffff1673ffffffffffffffffffffffffffffffffffffffff1663ee204abb836040518263ffffffff1660e01b81526004016107559190611a73565b60206040518083038186803b15801561076d57600080fd5b505afa158015610781573d6000803e3d6000fd5b505050506040513d601f19601f820116820180604052508101906107a5919061199d565b9050600060405180606001604052808473ffffffffffffffffffffffffffffffffffffffff168152602001838152602001600460008154809291906107e990611c91565b91905055815250908060018154018082558091505060019003906000526020600020906003020160009091909190915060008201518160000160006101000a81548173ffffffffffffffffffffffffffffffffffffffff021916908373ffffffffffffffffffffffffffffffffffffffff160217905550602082015181600101556040820151816002015550506001600081548092919061088990611c91565b9190505550610899600154610dfa565b8173ffffffffffffffffffffffffffffffffffffffff167f5ba7d0799e79fdc8248536761afc64f3373b4336321c14a8180738c95e29d76c60405160405180910390a25050565b60015481565b6000600260009054906101000a900473ffffffffffffffffffffffffffffffffffffffff1673ffffffffffffffffffffffffffffffffffffffff163373ffffffffffffffffffffffffffffffffffffffff1614610978576040517f08c379a000000000000000000000000000000000000000000000000000000000815260040161096f90611af2565b60405180910390fd5b6000600154116109bd576040517f08c379a00000000000000000000000000000000000000000000000000000000081526004016109b490611ad2565b60405180910390fd5b6000806001815481106109f9577f4e487b7100000000000000000000000000000000000000000000000000000000600052603260045260246000fd5b906000526020600020906003020160000160009054906101000a900473ffffffffffffffffffffffffffffffffffffffff169050600060015481548110610a69577f4e487b7100000000000000000000000000000000000000000000000000000000600052603260045260246000fd5b90600052602060002090600302016000600181548110610ab2577f4e487b7100000000000000000000000000000000000000000000000000000000600052603260045260246000fd5b90600052602060002090600302016000820160009054906101000a900473ffffffffffffffffffffffffffffffffffffffff168160000160006101000a81548173ffffffffffffffffffffffffffffffffffffffff021916908373ffffffffffffffffffffffffffffffffffffffff16021790555060018201548160010155600282015481600201559050506000805480610b76577f4e487b7100000000000000000000000000000000000000000000000000000000600052603160045260246000fd5b6001900381819060005260206000209060030201600080820160006101000a81549073ffffffffffffffffffffffffffffffffffffffff0219169055600182016000905560028201600090555050905560016000815480929190610bd990611c67565b919050555060006001541115610bf457610bf36001611287565b5b8073ffffffffffffffffffffffffffffffffffffffff167fd0c10f12413dbc5bc16bf413df8088858fd3c68cb5f672cdafcb916cd20ab4fa60405160405180910390a28091505090565b6000600260009054906101000a900473ffffffffffffffffffffffffffffffffffffffff1673ffffffffffffffffffffffffffffffffffffffff163373ffffffffffffffffffffffffffffffffffffffff1614610cd0576040517f08c379a0000000000000000000000000000000000000000000000000000000008152600401610cc790611af2565b60405180910390fd5b600060015411610d15576040517f08c379a0000000000000000000000000000000000000000000000000000000008152600401610d0c90611ad2565b60405180910390fd5b610d1d6108e6565b905090565b600080600190505b6001548111610def578273ffffffffffffffffffffffffffffffffffffffff1660008281548110610d84577f4e487b7100000000000000000000000000000000000000000000000000000000600052603260045260246000fd5b906000526020600020906003020160000160009054906101000a900473ffffffffffffffffffffffffffffffffffffffff1673ffffffffffffffffffffffffffffffffffffffff161415610ddc576001915050610df5565b8080610de790611c91565b915050610d2a565b50600090505b919050565b5b6001811115611284576000600282610e139190611b94565b90506000808281548110610e50577f4e487b7100000000000000000000000000000000000000000000000000000000600052603260045260246000fd5b90600052602060002090600302016001015460008481548110610e9c577f4e487b7100000000000000000000000000000000000000000000000000000000600052603260045260246000fd5b9060005260206000209060030201600101541180610ff0575060008281548110610eef577f4e487b7100000000000000000000000000000000000000000000000000000000600052603260045260246000fd5b90600052602060002090600302016001015460008481548110610f3b577f4e487b7100000000000000000000000000000000000000000000000000000000600052603260045260246000fd5b906000526020600020906003020160010154148015610fef575060008281548110610f8f577f4e487b7100000000000000000000000000000000000000000000000000000000600052603260045260246000fd5b90600052602060002090600302016002015460008481548110610fdb577f4e487b7100000000000000000000000000000000000000000000000000000000600052603260045260246000fd5b906000526020600020906003020160020154105b5b90508015611276576000808381548110611033577f4e487b7100000000000000000000000000000000000000000000000000000000600052603260045260246000fd5b90600052602060002090600302016040518060600160405290816000820160009054906101000a900473ffffffffffffffffffffffffffffffffffffffff1673ffffffffffffffffffffffffffffffffffffffff1673ffffffffffffffffffffffffffffffffffffffff168152602001600182015481526020016002820154815250509050600084815481106110f2577f4e487b7100000000000000000000000000000000000000000000000000000000600052603260045260246000fd5b90600052602060002090600302016000848154811061113a577f4e487b7100000000000000000000000000000000000000000000000000000000600052603260045260246000fd5b90600052602060002090600302016000820160009054906101000a900473ffffffffffffffffffffffffffffffffffffffff168160000160006101000a81548173ffffffffffffffffffffffffffffffffffffffff021916908373ffffffffffffffffffffffffffffffffffffffff16021790555060018201548160010155600282015481600201559050508060008581548110611201577f4e487b7100000000000000000000000000000000000000000000000000000000600052603260045260246000fd5b906000526020600020906003020160008201518160000160006101000a81548173ffffffffffffffffffffffffffffffffffffffff021916908373ffffffffffffffffffffffffffffffffffffffff16021790555060208201518160010155604082015181600201559050508293505061127d565b5050611284565b5050610dfb565b50565b5b6001546002826112989190611bc5565b116119475760008160026112ac9190611bc5565b9050600060018360026112bf9190611bc5565b6112c99190611b3e565b9050600083905060015483111580156114b8575060008181548110611317577f4e487b7100000000000000000000000000000000000000000000000000000000600052603260045260246000fd5b90600052602060002090600302016001015460008481548110611363577f4e487b7100000000000000000000000000000000000000000000000000000000600052603260045260246000fd5b90600052602060002090600302016001015411806114b75750600081815481106113b6577f4e487b7100000000000000000000000000000000000000000000000000000000600052603260045260246000fd5b90600052602060002090600302016001015460008481548110611402577f4e487b7100000000000000000000000000000000000000000000000000000000600052603260045260246000fd5b9060005260206000209060030201600101541480156114b6575060008181548110611456577f4e487b7100000000000000000000000000000000000000000000000000000000600052603260045260246000fd5b906000526020600020906003020160020154600084815481106114a2577f4e487b7100000000000000000000000000000000000000000000000000000000600052603260045260246000fd5b906000526020600020906003020160020154105b5b5b156114c1578290505b60015482111580156116a9575060008181548110611508577f4e487b7100000000000000000000000000000000000000000000000000000000600052603260045260246000fd5b90600052602060002090600302016001015460008381548110611554577f4e487b7100000000000000000000000000000000000000000000000000000000600052603260045260246000fd5b90600052602060002090600302016001015411806116a85750600081815481106115a7577f4e487b7100000000000000000000000000000000000000000000000000000000600052603260045260246000fd5b906000526020600020906003020160010154600083815481106115f3577f4e487b7100000000000000000000000000000000000000000000000000000000600052603260045260246000fd5b9060005260206000209060030201600101541480156116a7575060008181548110611647577f4e487b7100000000000000000000000000000000000000000000000000000000600052603260045260246000fd5b90600052602060002090600302016002015460008381548110611693577f4e487b7100000000000000000000000000000000000000000000000000000000600052603260045260246000fd5b906000526020600020906003020160020154105b5b5b156116b2578190505b8381146119375760008085815481106116f4577f4e487b7100000000000000000000000000000000000000000000000000000000600052603260045260246000fd5b90600052602060002090600302016040518060600160405290816000820160009054906101000a900473ffffffffffffffffffffffffffffffffffffffff1673ffffffffffffffffffffffffffffffffffffffff1673ffffffffffffffffffffffffffffffffffffffff168152602001600182015481526020016002820154815250509050600082815481106117b3577f4e487b7100000000000000000000000000000000000000000000000000000000600052603260045260246000fd5b9060005260206000209060030201600086815481106117fb577f4e487b7100000000000000000000000000000000000000000000000000000000600052603260045260246000fd5b90600052602060002090600302016000820160009054906101000a900473ffffffffffffffffffffffffffffffffffffffff168160000160006101000a81548173ffffffffffffffffffffffffffffffffffffffff021916908373ffffffffffffffffffffffffffffffffffffffff160217905550600182015481600101556002820154816002015590505080600083815481106118c2577f4e487b7100000000000000000000000000000000000000000000000000000000600052603260045260246000fd5b906000526020600020906003020160008201518160000160006101000a81548173ffffffffffffffffffffffffffffffffffffffff021916908373ffffffffffffffffffffffffffffffffffffffff16021790555060208201518160010155604082015181600201559050508194505061193f565b505050611947565b505050611288565b50565b60008135905061195981611d38565b92915050565b60008151905061196e81611d4f565b92915050565b60006020828403121561198657600080fd5b60006119948482850161194a565b91505092915050565b6000602082840312156119af57600080fd5b60006119bd8482850161195f565b91505092915050565b6119cf81611c1f565b82525050565b6119de81611c31565b82525050565b60006119f1600e83611b2d565b91507f517565756520697320656d7074790000000000000000000000000000000000006000830152602082019050919050565b6000611a31601b83611b2d565b91507f43616c6c6572206973206e6f7420746865206f7267616e697a657200000000006000830152602082019050919050565b611a6d81611c5d565b82525050565b6000602082019050611a8860008301846119c6565b92915050565b6000604082019050611aa360008301856119c6565b611ab06020830184611a64565b9392505050565b6000602082019050611acc60008301846119d5565b92915050565b60006020820190508181036000830152611aeb816119e4565b9050919050565b60006020820190508181036000830152611b0b81611a24565b9050919050565b6000602082019050611b276000830184611a64565b92915050565b600082825260208201905092915050565b6000611b4982611c5d565b9150611b5483611c5d565b9250827fffffffffffffffffffffffffffffffffffffffffffffffffffffffffffffffff03821115611b8957611b88611cda565b5b828201905092915050565b6000611b9f82611c5d565b9150611baa83611c5d565b925082611bba57611bb9611d09565b5b828204905092915050565b6000611bd082611c5d565b9150611bdb83611c5d565b9250817fffffffffffffffffffffffffffffffffffffffffffffffffffffffffffffffff0483118215151615611c1457611c13611cda565b5b828202905092915050565b6000611c2a82611c3d565b9050919050565b60008115159050919050565b600073ffffffffffffffffffffffffffffffffffffffff82169050919050565b6000819050919050565b6000611c7282611c5d565b91506000821415611c8657611c85611cda565b5b600182039050919050565b6000611c9c82611c5d565b91507fffffffffffffffffffffffffffffffffffffffffffffffffffffffffffffffff821415611ccf57611cce611cda565b5b600182019050919050565b7f4e487b7100000000000000000000000000000000000000000000000000000000600052601160045260246000fd5b7f4e487b7100000000000000000000000000000000000000000000000000000000600052601260045260246000fd5b611d4181611c1f565b8114611d4c57600080fd5b50565b611d5881611c5d565b8114611d6357600080fd5b5056fea264697066735822122016b8853530c14cde930eb62e5c35f57be428afa7a19cb06ef8c6710b2d5492d464736f6c63430008000033",
  "immutableReferences": {},
  "source": "// SPDX-License-Identifier: MIT\r\npragma solidity ^0.8.0;\r\n\r\nimport \"./LoyaltyPoints.sol\";\r\n\r\ncontract PriorityQueue {\r\n    struct QueueElement {\r\n        address addr;\r\n        uint256 priority;\r\n        uint256 insertionOrder; // To maintain stability among equal priorities.\r\n    }\r\n\r\n    QueueElement[] private heapArray;\r\n    uint256 public size;\r\n    address private organizer; // Added for access control\r\n    LoyaltyPoints loyaltyPointsContract;\r\n    uint256 private insertionCounter = 0;\r\n\r\n    function setLoyaltyPointsContractAddress(\r\n        address _addr\r\n    ) external onlyOrganizer {\r\n        loyaltyPointsContract = LoyaltyPoints(_addr);\r\n    }\r\n\r\n    modifier onlyOrganizer() {\r\n        require(msg.sender == organizer, \"Caller is not the organizer\");\r\n        _;\r\n    }\r\n\r\n    constructor(address loyaltyPointsAddress) {\r\n        organizer = msg.sender;\r\n        loyaltyPointsContract = LoyaltyPoints(loyaltyPointsAddress);\r\n        heapArray.push(\r\n            QueueElement({addr: address(0), priority: 0, insertionOrder: 0})\r\n        );\r\n        size = 0;\r\n    }\r\n\r\n    event ElementEnqueued(address indexed enqueuedAddress);\r\n    event ElementDequeued(address indexed dequeuedAddress);\r\n\r\n    function enqueue(address _addr) public onlyOrganizer {\r\n        uint256 loyaltyPoints = loyaltyPointsContract.getPoints(_addr);\r\n        heapArray.push(\r\n            QueueElement({\r\n                addr: _addr,\r\n                priority: loyaltyPoints,\r\n                insertionOrder: insertionCounter++\r\n            })\r\n        );\r\n        size++;\r\n        _bubbleUp(size);\r\n        emit ElementEnqueued(_addr);\r\n    }\r\n    function dequeue() public onlyOrganizer returns (address) {\r\n        require(size > 0, \"Queue is empty\");\r\n        address highestPriorityAddress = heapArray[1].addr;\r\n\r\n        heapArray[1] = heapArray[size]; // Move the last element to the top\r\n        heapArray.pop(); // Remove the last element\r\n        size--;\r\n        if (size > 0) {\r\n            _bubbleDown(1); // Re-sort the heap\r\n        }\r\n        emit ElementDequeued(highestPriorityAddress);\r\n        return highestPriorityAddress;\r\n    }\r\n\r\n    function popHighestPriorityBuyer() public onlyOrganizer returns (address) {\r\n        require(size > 0, \"Queue is empty\");\r\n        return dequeue(); // Use dequeue logic to pop and return the highest priority (loyalty points) buyer\r\n    }\r\n\r\n    function peekHighestPriority()\r\n        public\r\n        view\r\n        returns (address addr, uint256 priority)\r\n    {\r\n        require(size > 0, \"Queue is empty\");\r\n        return (heapArray[1].addr, heapArray[1].priority);\r\n    }\r\n\r\n    function updatePriority(address _addr) public onlyOrganizer {\r\n        for (uint256 i = 1; i <= size; i++) {\r\n            if (heapArray[i].addr == _addr) {\r\n                uint256 newLoyaltyPoints = loyaltyPointsContract.getPoints(\r\n                    _addr\r\n                );\r\n                bool shouldBubbleUp = newLoyaltyPoints > heapArray[i].priority;\r\n                heapArray[i].priority = newLoyaltyPoints; // Update priority\r\n\r\n                if (shouldBubbleUp) {\r\n                    // If the new priority is higher, it might need to bubble up\r\n                    _bubbleUp(i);\r\n                } else {\r\n                    // Otherwise, check if it needs to bubble down.\r\n                    // This case can be rare if updating to lower priority is allowed\r\n                    _bubbleDown(i);\r\n                }\r\n                break;\r\n            }\r\n        }\r\n    }\r\n\r\n    function isInQueue(address _addr) public view returns (bool) {\r\n        for (uint256 i = 1; i <= size; i++) {\r\n            if (heapArray[i].addr == _addr) {\r\n                return true;\r\n            }\r\n        }\r\n        return false;\r\n    }\r\n\r\n    function _bubbleUp(uint256 index) private {\r\n        while (index > 1) {\r\n            uint256 parentIndex = index / 2;\r\n            bool shouldSwap = heapArray[index].priority >\r\n                heapArray[parentIndex].priority ||\r\n                (heapArray[index].priority == heapArray[parentIndex].priority &&\r\n                    heapArray[index].insertionOrder <\r\n                    heapArray[parentIndex].insertionOrder);\r\n\r\n            if (shouldSwap) {\r\n                // Use a temporary variable to perform the swap\r\n                QueueElement memory temp = heapArray[parentIndex];\r\n                heapArray[parentIndex] = heapArray[index];\r\n                heapArray[index] = temp;\r\n\r\n                index = parentIndex;\r\n            } else {\r\n                break;\r\n            }\r\n        }\r\n    }\r\n\r\n    function _bubbleDown(uint256 index) private {\r\n        while (index * 2 <= size) {\r\n            uint256 leftChildIndex = 2 * index;\r\n            uint256 rightChildIndex = 2 * index + 1;\r\n            uint256 swapIndex = index;\r\n\r\n            if (\r\n                leftChildIndex <= size &&\r\n                (heapArray[leftChildIndex].priority >\r\n                    heapArray[swapIndex].priority ||\r\n                    (heapArray[leftChildIndex].priority ==\r\n                        heapArray[swapIndex].priority &&\r\n                        heapArray[leftChildIndex].insertionOrder <\r\n                        heapArray[swapIndex].insertionOrder))\r\n            ) {\r\n                swapIndex = leftChildIndex;\r\n            }\r\n\r\n            if (\r\n                rightChildIndex <= size &&\r\n                (heapArray[rightChildIndex].priority >\r\n                    heapArray[swapIndex].priority ||\r\n                    (heapArray[rightChildIndex].priority ==\r\n                        heapArray[swapIndex].priority &&\r\n                        heapArray[rightChildIndex].insertionOrder <\r\n                        heapArray[swapIndex].insertionOrder))\r\n            ) {\r\n                swapIndex = rightChildIndex;\r\n            }\r\n\r\n            if (swapIndex != index) {\r\n                // Use a temporary variable to perform the swap\r\n                QueueElement memory temp = heapArray[index];\r\n                heapArray[index] = heapArray[swapIndex];\r\n                heapArray[swapIndex] = temp;\r\n\r\n                index = swapIndex;\r\n            } else {\r\n                break;\r\n            }\r\n        }\r\n    }\r\n\r\n    function isEmpty() public view returns (bool) {\r\n        return size == 0;\r\n    }\r\n}\r\n",
  "sourcePath": "C:\\Users\\tngjo\\OneDrive\\Desktop\\GitHub\\IS4302-Decentralized-Event-Ticketing-System\\contracts\\PriorityQueue.sol",
  "compiler": {
    "name": "solc",
    "version": "0.8.0+commit.c7dfd78e.Emscripten.clang"
  },
  "schemaVersion": "3.4.16",
  "updatedAt": "2024-03-23T15:57:00.724Z",
  "networkType": "ethereum",
  "devdoc": {
    "kind": "dev",
    "methods": {},
    "version": 1
  },
  "userdoc": {
    "kind": "user",
    "methods": {},
    "version": 1
  }
}