{
  "contractName": "TicketMarket",
  "abi": [
    {
      "inputs": [
        {
          "internalType": "contract Ticket",
          "name": "ticketAddress",
          "type": "address"
        },
        {
          "internalType": "uint256",
          "name": "fee",
          "type": "uint256"
        },
        {
          "internalType": "contract LoyaltyPoints",
          "name": "_loyaltyPointsAddress",
          "type": "address"
        }
      ],
      "stateMutability": "nonpayable",
      "type": "constructor"
    },
    {
      "anonymous": false,
      "inputs": [
        {
          "indexed": false,
          "internalType": "uint256",
          "name": "ticketId",
          "type": "uint256"
        },
        {
          "indexed": false,
          "internalType": "uint256",
          "name": "price",
          "type": "uint256"
        }
      ],
      "name": "TicketListed",
      "type": "event"
    },
    {
      "anonymous": false,
      "inputs": [
        {
          "indexed": false,
          "internalType": "uint256",
          "name": "ticketId",
          "type": "uint256"
        },
        {
          "indexed": false,
          "internalType": "address",
          "name": "buyer",
          "type": "address"
        },
        {
          "indexed": false,
          "internalType": "uint256",
          "name": "price",
          "type": "uint256"
        }
      ],
      "name": "TicketSold",
      "type": "event"
    },
    {
      "anonymous": false,
      "inputs": [
        {
          "indexed": true,
          "internalType": "uint256",
          "name": "id",
          "type": "uint256"
        },
        {
          "indexed": false,
          "internalType": "address",
          "name": "from",
          "type": "address"
        },
        {
          "indexed": false,
          "internalType": "address",
          "name": "to",
          "type": "address"
        },
        {
          "indexed": false,
          "internalType": "uint256",
          "name": "price",
          "type": "uint256"
        }
      ],
      "name": "TicketTransferred",
      "type": "event"
    },
    {
      "anonymous": false,
      "inputs": [
        {
          "indexed": false,
          "internalType": "uint256",
          "name": "ticketId",
          "type": "uint256"
        }
      ],
      "name": "TicketUnlisted",
      "type": "event"
    },
    {
      "inputs": [],
      "name": "buyerQueue",
      "outputs": [
        {
          "internalType": "contract PriorityQueue",
          "name": "",
          "type": "address"
        }
      ],
      "stateMutability": "view",
      "type": "function",
      "constant": true
    },
    {
      "inputs": [],
      "name": "commissionFee",
      "outputs": [
        {
          "internalType": "uint256",
          "name": "",
          "type": "uint256"
        }
      ],
      "stateMutability": "view",
      "type": "function",
      "constant": true
    },
    {
      "inputs": [
        {
          "internalType": "uint256",
          "name": "",
          "type": "uint256"
        }
      ],
      "name": "listPrice",
      "outputs": [
        {
          "internalType": "uint256",
          "name": "",
          "type": "uint256"
        }
      ],
      "stateMutability": "view",
      "type": "function",
      "constant": true
    },
    {
      "inputs": [],
      "name": "loyaltyPoints",
      "outputs": [
        {
          "internalType": "contract LoyaltyPoints",
          "name": "",
          "type": "address"
        }
      ],
      "stateMutability": "view",
      "type": "function",
      "constant": true
    },
    {
      "inputs": [],
      "name": "ticketContract",
      "outputs": [
        {
          "internalType": "contract Ticket",
          "name": "",
          "type": "address"
        }
      ],
      "stateMutability": "view",
      "type": "function",
      "constant": true
    },
    {
      "inputs": [
        {
          "internalType": "uint256",
          "name": "ticketId",
          "type": "uint256"
        },
        {
          "internalType": "uint256",
          "name": "price",
          "type": "uint256"
        }
      ],
      "name": "list",
      "outputs": [],
      "stateMutability": "nonpayable",
      "type": "function"
    },
    {
      "inputs": [
        {
          "internalType": "uint256",
          "name": "ticketId",
          "type": "uint256"
        }
      ],
      "name": "unlist",
      "outputs": [],
      "stateMutability": "nonpayable",
      "type": "function"
    },
    {
      "inputs": [
        {
          "internalType": "uint256",
          "name": "ticketId",
          "type": "uint256"
        }
      ],
      "name": "getTicketPrice",
      "outputs": [
        {
          "internalType": "uint256",
          "name": "",
          "type": "uint256"
        }
      ],
      "stateMutability": "view",
      "type": "function",
      "constant": true
    },
    {
      "inputs": [],
      "name": "getCommission",
      "outputs": [
        {
          "internalType": "uint256",
          "name": "",
          "type": "uint256"
        }
      ],
      "stateMutability": "view",
      "type": "function",
      "constant": true
    },
    {
      "inputs": [
        {
          "internalType": "uint256",
          "name": "ticketId",
          "type": "uint256"
        }
      ],
      "name": "buy",
      "outputs": [],
      "stateMutability": "payable",
      "type": "function",
      "payable": true
    },
    {
      "inputs": [
        {
          "internalType": "uint256",
          "name": "id",
          "type": "uint256"
        }
      ],
      "name": "checkPrice",
      "outputs": [
        {
          "internalType": "uint256",
          "name": "",
          "type": "uint256"
        }
      ],
      "stateMutability": "view",
      "type": "function",
      "constant": true
    }
  ],
  "bytecode": "0x6080604052336000806101000a81548173ffffffffffffffffffffffffffffffffffffffff021916908373ffffffffffffffffffffffffffffffffffffffff1602179055503480156200005157600080fd5b50604051620015cb380380620015cb83398181016040528101906200007791906200014e565b82600260006101000a81548173ffffffffffffffffffffffffffffffffffffffff021916908373ffffffffffffffffffffffffffffffffffffffff1602179055508160018190555080600460006101000a81548173ffffffffffffffffffffffffffffffffffffffff021916908373ffffffffffffffffffffffffffffffffffffffff16021790555050505062000258565b6000815190506200011a816200020a565b92915050565b600081519050620001318162000224565b92915050565b60008151905062000148816200023e565b92915050565b6000806000606084860312156200016457600080fd5b6000620001748682870162000120565b9350506020620001878682870162000137565b92505060406200019a8682870162000109565b9150509250925092565b6000620001b182620001e0565b9050919050565b6000620001c582620001a4565b9050919050565b6000620001d982620001a4565b9050919050565b600073ffffffffffffffffffffffffffffffffffffffff82169050919050565b6000819050919050565b6200021581620001b8565b81146200022157600080fd5b50565b6200022f81620001cc565b81146200023b57600080fd5b50565b620002498162000200565b81146200025557600080fd5b50565b61136380620002686000396000f3fe60806040526004361061009c5760003560e01c8063880796d311610064578063880796d31461019a578063956a20ea146101c5578063bf5a4dd3146101f0578063d96a094a14610219578063e65d6b4914610235578063f06fc961146102605761009c565b80631de7463a146100a157806350fd7367146100de57806358a86e1d146101075780636fb1eb0c1461013257806387d81f7c1461015d575b600080fd5b3480156100ad57600080fd5b506100c860048036038101906100c39190610d70565b61029d565b6040516100d591906110a0565b60405180910390f35b3480156100ea57600080fd5b5061010560048036038101906101009190610dc2565b6102ba565b005b34801561011357600080fd5b5061011c61054a565b6040516101299190610fe5565b60405180910390f35b34801561013e57600080fd5b50610147610570565b60405161015491906110a0565b60405180910390f35b34801561016957600080fd5b50610184600480360381019061017f9190610d70565b610576565b60405161019191906110a0565b60405180910390f35b3480156101a657600080fd5b506101af61058e565b6040516101bc9190610fca565b60405180910390f35b3480156101d157600080fd5b506101da6105b4565b6040516101e79190610faf565b60405180910390f35b3480156101fc57600080fd5b5061021760048036038101906102129190610d70565b6105da565b005b610233600480360381019061022e9190610d70565b610870565b005b34801561024157600080fd5b5061024a610ce1565b60405161025791906110a0565b60405180910390f35b34801561026c57600080fd5b5061028760048036038101906102829190610d70565b610ceb565b60405161029491906110a0565b60405180910390f35b600060056000838152602001908152602001600020549050919050565b600154600260009054906101000a900473ffffffffffffffffffffffffffffffffffffffff1673ffffffffffffffffffffffffffffffffffffffff1663e7572230846040518263ffffffff1660e01b815260040161031891906110a0565b60206040518083038186803b15801561033057600080fd5b505afa158015610344573d6000803e3d6000fd5b505050506040513d601f19601f820116820180604052508101906103689190610d99565b6103729190611155565b8110156103b4576040517f08c379a00000000000000000000000000000000000000000000000000000000081526004016103ab90611060565b60405180910390fd5b600260009054906101000a900473ffffffffffffffffffffffffffffffffffffffff1673ffffffffffffffffffffffffffffffffffffffff1663c41a360a836040518263ffffffff1660e01b815260040161040f91906110a0565b60206040518083038186803b15801561042757600080fd5b505afa15801561043b573d6000803e3d6000fd5b505050506040513d601f19601f8201168201806040525081019061045f9190610d47565b73ffffffffffffffffffffffffffffffffffffffff163373ffffffffffffffffffffffffffffffffffffffff16146104cc576040517f08c379a00000000000000000000000000000000000000000000000000000000081526004016104c390611020565b60405180910390fd5b7fbca2f6391cafd6d28d39261ba883dd74090c618befb806e74ef434778bb2f7ed82826040516104fd92919061111b565b60405180910390a180600560008481526020019081526020016000208190555060068290806001815401808255809150506001900390600052602060002001600090919091909150555050565b600260009054906101000a900473ffffffffffffffffffffffffffffffffffffffff1681565b60015481565b60056020528060005260406000206000915090505481565b600360009054906101000a900473ffffffffffffffffffffffffffffffffffffffff1681565b600460009054906101000a900473ffffffffffffffffffffffffffffffffffffffff1681565b600260009054906101000a900473ffffffffffffffffffffffffffffffffffffffff1673ffffffffffffffffffffffffffffffffffffffff1663c41a360a826040518263ffffffff1660e01b815260040161063591906110a0565b60206040518083038186803b15801561064d57600080fd5b505afa158015610661573d6000803e3d6000fd5b505050506040513d601f19601f820116820180604052508101906106859190610d47565b73ffffffffffffffffffffffffffffffffffffffff163373ffffffffffffffffffffffffffffffffffffffff16146106bc57600080fd5b600060056000838152602001908152602001600020819055507fdb00f3044f762e640c77fdd12df2e7cf2b4c17de34f8995969a4d98b9904af458160405161070491906110a0565b60405180910390a160005b60068054905081101561086c578160068281548110610757577f4e487b7100000000000000000000000000000000000000000000000000000000600052603260045260246000fd5b90600052602060002001541415610859576006600160068054905061077c91906111ab565b815481106107b3577f4e487b7100000000000000000000000000000000000000000000000000000000600052603260045260246000fd5b9060005260206000200154600682815481106107f8577f4e487b7100000000000000000000000000000000000000000000000000000000600052603260045260246000fd5b9060005260206000200181905550600680548061083e577f4e487b7100000000000000000000000000000000000000000000000000000000600052603160045260246000fd5b6001900381819060005260206000200160009055905561086c565b808061086490611287565b91505061070f565b5050565b6000600560008381526020019081526020016000205414156108c7576040517f08c379a00000000000000000000000000000000000000000000000000000000081526004016108be90611000565b60405180910390fd5b600560008281526020019081526020016000205434101561091d576040517f08c379a000000000000000000000000000000000000000000000000000000000815260040161091490611040565b60405180910390fd5b6000600260009054906101000a900473ffffffffffffffffffffffffffffffffffffffff1673ffffffffffffffffffffffffffffffffffffffff1663c41a360a836040518263ffffffff1660e01b815260040161097a91906110a0565b60206040518083038186803b15801561099257600080fd5b505afa1580156109a6573d6000803e3d6000fd5b505050506040513d601f19601f820116820180604052508101906109ca9190610d47565b90508073ffffffffffffffffffffffffffffffffffffffff163373ffffffffffffffffffffffffffffffffffffffff161415610a3b576040517f08c379a0000000000000000000000000000000000000000000000000000000008152600401610a3290611080565b60405180910390fd5b6000600260009054906101000a900473ffffffffffffffffffffffffffffffffffffffff1673ffffffffffffffffffffffffffffffffffffffff1663f2d03fcf846040518263ffffffff1660e01b8152600401610a9891906110a0565b60206040518083038186803b158015610ab057600080fd5b505afa158015610ac4573d6000803e3d6000fd5b505050506040513d601f19601f82011682018060405250810190610ae89190610d47565b905060006001546005600086815260200190815260200160002054610b0d91906111ab565b90508173ffffffffffffffffffffffffffffffffffffffff166108fc829081150290604051600060405180830381858888f19350505050158015610b55573d6000803e3d6000fd5b50600260009054906101000a900473ffffffffffffffffffffffffffffffffffffffff1673ffffffffffffffffffffffffffffffffffffffff1663b7760c8f85336040518363ffffffff1660e01b8152600401610bb39291906110bb565b600060405180830381600087803b158015610bcd57600080fd5b505af1158015610be1573d6000803e3d6000fd5b505050507fbce6612c87f6b5711225ffc4b9f920148cd399de49ba10137fe0d3c53133384184336005600088815260200190815260200160002054604051610c2b939291906110e4565b60405180910390a1600260009054906101000a900473ffffffffffffffffffffffffffffffffffffffff1673ffffffffffffffffffffffffffffffffffffffff1663b7760c8f85336040518363ffffffff1660e01b8152600401610c909291906110bb565b600060405180830381600087803b158015610caa57600080fd5b505af1158015610cbe573d6000803e3d6000fd5b505050506000600560008681526020019081526020016000208190555050505050565b6000600154905090565b600060056000838152602001908152602001600020549050919050565b600081519050610d17816112ff565b92915050565b600081359050610d2c81611316565b92915050565b600081519050610d4181611316565b92915050565b600060208284031215610d5957600080fd5b6000610d6784828501610d08565b91505092915050565b600060208284031215610d8257600080fd5b6000610d9084828501610d1d565b91505092915050565b600060208284031215610dab57600080fd5b6000610db984828501610d32565b91505092915050565b60008060408385031215610dd557600080fd5b6000610de385828601610d1d565b9250506020610df485828601610d1d565b9150509250929050565b610e07816111df565b82525050565b610e168161121b565b82525050565b610e258161123f565b82525050565b610e3481611263565b82525050565b6000610e47601e83611144565b91507f5469636b6574206d757374206265206c697374656420666f722073616c6500006000830152602082019050919050565b6000610e87601a83611144565b91507f43616c6c6572206973206e6f74207469636b6574206f776e65720000000000006000830152602082019050919050565b6000610ec7601483611144565b91507f496e73756666696369656e74207061796d656e740000000000000000000000006000830152602082019050919050565b6000610f07603783611144565b91507f5072696365206d757374206265206174206c65617374207469636b657420707260008301527f69636520706c757320636f6d6d697373696f6e206665650000000000000000006020830152604082019050919050565b6000610f6d601d83611144565b91507f427579657220616c7265616479206f776e7320746865207469636b65740000006000830152602082019050919050565b610fa981611211565b82525050565b6000602082019050610fc46000830184610e0d565b92915050565b6000602082019050610fdf6000830184610e1c565b92915050565b6000602082019050610ffa6000830184610e2b565b92915050565b6000602082019050818103600083015261101981610e3a565b9050919050565b6000602082019050818103600083015261103981610e7a565b9050919050565b6000602082019050818103600083015261105981610eba565b9050919050565b6000602082019050818103600083015261107981610efa565b9050919050565b6000602082019050818103600083015261109981610f60565b9050919050565b60006020820190506110b56000830184610fa0565b92915050565b60006040820190506110d06000830185610fa0565b6110dd6020830184610dfe565b9392505050565b60006060820190506110f96000830186610fa0565b6111066020830185610dfe565b6111136040830184610fa0565b949350505050565b60006040820190506111306000830185610fa0565b61113d6020830184610fa0565b9392505050565b600082825260208201905092915050565b600061116082611211565b915061116b83611211565b9250827fffffffffffffffffffffffffffffffffffffffffffffffffffffffffffffffff038211156111a05761119f6112d0565b5b828201905092915050565b60006111b682611211565b91506111c183611211565b9250828210156111d4576111d36112d0565b5b828203905092915050565b60006111ea826111f1565b9050919050565b600073ffffffffffffffffffffffffffffffffffffffff82169050919050565b6000819050919050565b60006112268261122d565b9050919050565b6000611238826111f1565b9050919050565b600061124a82611251565b9050919050565b600061125c826111f1565b9050919050565b600061126e82611275565b9050919050565b6000611280826111f1565b9050919050565b600061129282611211565b91507fffffffffffffffffffffffffffffffffffffffffffffffffffffffffffffffff8214156112c5576112c46112d0565b5b600182019050919050565b7f4e487b7100000000000000000000000000000000000000000000000000000000600052601160045260246000fd5b611308816111df565b811461131357600080fd5b50565b61131f81611211565b811461132a57600080fd5b5056fea2646970667358221220ec5365069d5dc340a5e66bb744547c3c7ef58595f07c3fb0e7d74423ed059a3764736f6c63430008000033",
  "immutableReferences": {},
  "source": "// SPDX-License-Identifier: MIT\r\npragma solidity ^0.8.0;\r\n\r\nimport \"./ERC20.sol\";\r\nimport \"./Ticket.sol\";\r\nimport \"./TicketToken.sol\";\r\nimport \"./PriorityQueue.sol\";\r\nimport \"./LoyaltyPoints.sol\";\r\n\r\ncontract TicketMarket {\r\n    address _owner = msg.sender;\r\n    uint256 public commissionFee;\r\n    Ticket public ticketContract;\r\n\r\n    PriorityQueue public buyerQueue;\r\n    LoyaltyPoints public loyaltyPoints;\r\n\r\n    // Mapping from ticket ID to listing price\r\n    mapping(uint256 => uint256) public listPrice;\r\n\r\n    uint256[] private listedTickets; // To track listed ticket IDs\r\n\r\n    // Event emitted when a ticket is listed for sale\r\n    event TicketListed(uint256 ticketId, uint256 price);\r\n    event TicketUnlisted(uint256 ticketId);\r\n    event TicketSold(uint256 ticketId, address buyer, uint256 price);\r\n\r\n    // Event emitted when a ticket is transferred\r\n    event TicketTransferred(\r\n        uint256 indexed id,\r\n        address from,\r\n        address to,\r\n        uint256 price\r\n    );\r\n\r\n    constructor(\r\n        Ticket ticketAddress,\r\n        uint256 fee,\r\n        LoyaltyPoints _loyaltyPointsAddress\r\n    ) {\r\n        ticketContract = ticketAddress;\r\n        commissionFee = fee;\r\n        loyaltyPoints = _loyaltyPointsAddress;\r\n    }\r\n\r\n    // List a ticket for sale. Price needs to be >= value + fee\r\n    function list(uint256 ticketId, uint256 price) public {\r\n        require(\r\n            price >= (ticketContract.getPrice(ticketId) + commissionFee),\r\n            \"Price must be at least ticket price plus commission fee\"\r\n        );\r\n        require(\r\n            msg.sender == ticketContract.getOwner(ticketId),\r\n            \"Caller is not ticket owner\"\r\n        );\r\n        emit TicketListed(ticketId, price);\r\n        listPrice[ticketId] = price;\r\n        listedTickets.push(ticketId); // Add ticket ID to the list of listed tickets\r\n    }\r\n\r\n    function unlist(uint256 ticketId) public {\r\n        require(msg.sender == ticketContract.getOwner(ticketId));\r\n        listPrice[ticketId] = 0;\r\n        emit TicketUnlisted(ticketId); // Emit event for ticket unlisting\r\n\r\n        // Find and remove the ticket ID from listedTickets array\r\n        for (uint256 i = 0; i < listedTickets.length; i++) {\r\n            if (listedTickets[i] == ticketId) {\r\n                // Move the last element to the current index\r\n                listedTickets[i] = listedTickets[listedTickets.length - 1];\r\n                // Remove the last element\r\n                listedTickets.pop();\r\n                break; // Exit the loop once the ticket ID is removed\r\n            }\r\n        }\r\n    }\r\n\r\n    // Get price of ticket\r\n    function getTicketPrice(uint256 ticketId) public view returns (uint256) {\r\n        return listPrice[ticketId];\r\n    }\r\n\r\n    // Get the commission fee\r\n    function getCommission() public view returns (uint256) {\r\n        return commissionFee;\r\n    }\r\n\r\n    // Buy the ticket at the requested price\r\n    function buy(uint256 ticketId) public payable {\r\n        // Check if the ticket is listed for sale\r\n        require(listPrice[ticketId] != 0, \"Ticket must be listed for sale\");\r\n        // Check if payment is enough\r\n        require(msg.value >= listPrice[ticketId], \"Insufficient payment\");\r\n\r\n        address ticketOwner = ticketContract.getOwner(ticketId);\r\n        require(msg.sender != ticketOwner, \"Buyer already owns the ticket\");\r\n\r\n        address payable recipient = payable(\r\n            ticketContract.getPrevOwner(ticketId)\r\n        );\r\n\r\n        // Calculate the amount to transfer to the ticket owner after deducting the commission fee\r\n        uint256 amountToTransfer = listPrice[ticketId] - commissionFee;\r\n        // Transfer payment to the ticket owner after deducting the commission fee\r\n        recipient.transfer(amountToTransfer);\r\n\r\n        // Transfer ownership in the Ticket contract\r\n        ticketContract.transfer(ticketId, msg.sender);\r\n\r\n        // Emit event for ticket purchase\r\n        emit TicketSold(ticketId, msg.sender, listPrice[ticketId]);\r\n\r\n        // Transfer ownership of the ticket\r\n        ticketContract.transfer(ticketId, msg.sender);\r\n\r\n        // Remove the ticket from the listing after purchase\r\n        listPrice[ticketId] = 0;\r\n    }\r\n\r\n    // get price of ticket\r\n    function checkPrice(uint256 id) public view returns (uint256) {\r\n        return listPrice[id];\r\n    }\r\n}\r\n",
  "sourcePath": "C:\\Users\\tngjo\\OneDrive\\Desktop\\GitHub\\IS4302-Decentralized-Event-Ticketing-System\\contracts\\TicketMarket.sol",
  "compiler": {
    "name": "solc",
    "version": "0.8.0+commit.c7dfd78e.Emscripten.clang"
  },
  "schemaVersion": "3.4.16",
  "updatedAt": "2024-03-23T15:57:00.719Z",
  "networkType": "ethereum",
  "devdoc": {
    "kind": "dev",
    "methods": {},
    "version": 1
  },
  "userdoc": {
    "kind": "user",
    "methods": {},
    "version": 1
  }
}