{
  "contractName": "TicketMarket",
  "abi": [
    {
      "inputs": [
        {
          "internalType": "contract Ticket",
          "name": "ticketAddress",
          "type": "address"
        },
        {
          "internalType": "uint256",
          "name": "fee",
          "type": "uint256"
        }
      ],
      "stateMutability": "nonpayable",
      "type": "constructor"
    },
    {
      "anonymous": false,
      "inputs": [
        {
          "indexed": false,
          "internalType": "uint256",
          "name": "ticketId",
          "type": "uint256"
        },
        {
          "indexed": false,
          "internalType": "uint256",
          "name": "price",
          "type": "uint256"
        }
      ],
      "name": "TicketListed",
      "type": "event"
    },
    {
      "anonymous": false,
      "inputs": [
        {
          "indexed": false,
          "internalType": "uint256",
          "name": "ticketId",
          "type": "uint256"
        },
        {
          "indexed": false,
          "internalType": "address",
          "name": "buyer",
          "type": "address"
        },
        {
          "indexed": false,
          "internalType": "uint256",
          "name": "price",
          "type": "uint256"
        }
      ],
      "name": "TicketSold",
      "type": "event"
    },
    {
      "anonymous": false,
      "inputs": [
        {
          "indexed": true,
          "internalType": "uint256",
          "name": "id",
          "type": "uint256"
        },
        {
          "indexed": false,
          "internalType": "address",
          "name": "from",
          "type": "address"
        },
        {
          "indexed": false,
          "internalType": "address",
          "name": "to",
          "type": "address"
        },
        {
          "indexed": false,
          "internalType": "uint256",
          "name": "price",
          "type": "uint256"
        }
      ],
      "name": "TicketTransferred",
      "type": "event"
    },
    {
      "anonymous": false,
      "inputs": [
        {
          "indexed": false,
          "internalType": "uint256",
          "name": "ticketId",
          "type": "uint256"
        }
      ],
      "name": "TicketUnlisted",
      "type": "event"
    },
    {
      "inputs": [],
      "name": "commissionFee",
      "outputs": [
        {
          "internalType": "uint256",
          "name": "",
          "type": "uint256"
        }
      ],
      "stateMutability": "view",
      "type": "function"
    },
    {
      "inputs": [
        {
          "internalType": "uint256",
          "name": "",
          "type": "uint256"
        }
      ],
      "name": "listPrice",
      "outputs": [
        {
          "internalType": "uint256",
          "name": "",
          "type": "uint256"
        }
      ],
      "stateMutability": "view",
      "type": "function"
    },
    {
      "inputs": [],
      "name": "ticketContract",
      "outputs": [
        {
          "internalType": "contract Ticket",
          "name": "",
          "type": "address"
        }
      ],
      "stateMutability": "view",
      "type": "function"
    },
    {
      "inputs": [
        {
          "internalType": "uint256",
          "name": "ticketId",
          "type": "uint256"
        },
        {
          "internalType": "uint256",
          "name": "price",
          "type": "uint256"
        }
      ],
      "name": "list",
      "outputs": [],
      "stateMutability": "nonpayable",
      "type": "function"
    },
    {
      "inputs": [
        {
          "internalType": "uint256",
          "name": "ticketId",
          "type": "uint256"
        }
      ],
      "name": "unlist",
      "outputs": [],
      "stateMutability": "nonpayable",
      "type": "function"
    },
    {
      "inputs": [
        {
          "internalType": "uint256",
          "name": "ticketId",
          "type": "uint256"
        }
      ],
      "name": "getTicketPrice",
      "outputs": [
        {
          "internalType": "uint256",
          "name": "",
          "type": "uint256"
        }
      ],
      "stateMutability": "view",
      "type": "function"
    },
    {
      "inputs": [],
      "name": "getCommission",
      "outputs": [
        {
          "internalType": "uint256",
          "name": "",
          "type": "uint256"
        }
      ],
      "stateMutability": "view",
      "type": "function"
    },
    {
      "inputs": [
        {
          "internalType": "uint256",
          "name": "ticketId",
          "type": "uint256"
        }
      ],
      "name": "buy",
      "outputs": [],
      "stateMutability": "payable",
      "type": "function"
    },
    {
      "inputs": [
        {
          "internalType": "uint256",
          "name": "id",
          "type": "uint256"
        }
      ],
      "name": "checkPrice",
      "outputs": [
        {
          "internalType": "uint256",
          "name": "",
          "type": "uint256"
        }
      ],
      "stateMutability": "view",
      "type": "function"
    }
  ],
  "bytecode": "0x6080604052336000806101000a81548173ffffffffffffffffffffffffffffffffffffffff021916908373ffffffffffffffffffffffffffffffffffffffff1602179055503480156200005157600080fd5b5060405162001557380380620015578339818101604052810190620000779190620000f5565b81600260006101000a81548173ffffffffffffffffffffffffffffffffffffffff021916908373ffffffffffffffffffffffffffffffffffffffff160217905550806001819055505050620001bc565b600081519050620000d88162000188565b92915050565b600081519050620000ef81620001a2565b92915050565b600080604083850312156200010957600080fd5b60006200011985828601620000c7565b92505060206200012c85828601620000de565b9150509250929050565b600062000143826200015e565b9050919050565b6000620001578262000136565b9050919050565b600073ffffffffffffffffffffffffffffffffffffffff82169050919050565b6000819050919050565b62000193816200014a565b81146200019f57600080fd5b50565b620001ad816200017e565b8114620001b957600080fd5b50565b61138b80620001cc6000396000f3fe6080604052600436106100865760003560e01c806387d81f7c1161005957806387d81f7c14610147578063bf5a4dd314610184578063d96a094a146101ad578063e65d6b49146101c9578063f06fc961146101f457610086565b80631de7463a1461008b57806350fd7367146100c857806358a86e1d146100f15780636fb1eb0c1461011c575b600080fd5b34801561009757600080fd5b506100b260048036038101906100ad9190610d1d565b610231565b6040516100bf919061107f565b60405180910390f35b3480156100d457600080fd5b506100ef60048036038101906100ea9190610d6f565b61024e565b005b3480156100fd57600080fd5b506101066105e3565b6040516101139190610fa4565b60405180910390f35b34801561012857600080fd5b50610131610609565b60405161013e919061107f565b60405180910390f35b34801561015357600080fd5b5061016e60048036038101906101699190610d1d565b61060f565b60405161017b919061107f565b60405180910390f35b34801561019057600080fd5b506101ab60048036038101906101a69190610d1d565b610627565b005b6101c760048036038101906101c29190610d1d565b6108bd565b005b3480156101d557600080fd5b506101de610c8e565b6040516101eb919061107f565b60405180910390f35b34801561020057600080fd5b5061021b60048036038101906102169190610d1d565b610c98565b604051610228919061107f565b60405180910390f35b600060036000838152602001908152602001600020549050919050565b600154600260009054906101000a900473ffffffffffffffffffffffffffffffffffffffff1673ffffffffffffffffffffffffffffffffffffffff1663e7572230846040518263ffffffff1660e01b81526004016102ac919061107f565b60206040518083038186803b1580156102c457600080fd5b505afa1580156102d8573d6000803e3d6000fd5b505050506040513d601f19601f820116820180604052508101906102fc9190610d46565b610306919061110b565b811015610348576040517f08c379a000000000000000000000000000000000000000000000000000000000815260040161033f9061103f565b60405180910390fd5b60056006600260009054906101000a900473ffffffffffffffffffffffffffffffffffffffff1673ffffffffffffffffffffffffffffffffffffffff1663e7572230856040518263ffffffff1660e01b81526004016103a7919061107f565b60206040518083038186803b1580156103bf57600080fd5b505afa1580156103d3573d6000803e3d6000fd5b505050506040513d601f19601f820116820180604052508101906103f79190610d46565b6104019190611192565b61040b9190611161565b81111561044d576040517f08c379a000000000000000000000000000000000000000000000000000000000815260040161044490610fff565b60405180910390fd5b600260009054906101000a900473ffffffffffffffffffffffffffffffffffffffff1673ffffffffffffffffffffffffffffffffffffffff1663c41a360a836040518263ffffffff1660e01b81526004016104a8919061107f565b60206040518083038186803b1580156104c057600080fd5b505afa1580156104d4573d6000803e3d6000fd5b505050506040513d601f19601f820116820180604052508101906104f89190610cf4565b73ffffffffffffffffffffffffffffffffffffffff163373ffffffffffffffffffffffffffffffffffffffff1614610565576040517f08c379a000000000000000000000000000000000000000000000000000000000815260040161055c90610fdf565b60405180910390fd5b7fbca2f6391cafd6d28d39261ba883dd74090c618befb806e74ef434778bb2f7ed82826040516105969291906110d1565b60405180910390a180600360008481526020019081526020016000208190555060048290806001815401808255809150506001900390600052602060002001600090919091909150555050565b600260009054906101000a900473ffffffffffffffffffffffffffffffffffffffff1681565b60015481565b60036020528060005260406000206000915090505481565b600260009054906101000a900473ffffffffffffffffffffffffffffffffffffffff1673ffffffffffffffffffffffffffffffffffffffff1663c41a360a826040518263ffffffff1660e01b8152600401610682919061107f565b60206040518083038186803b15801561069a57600080fd5b505afa1580156106ae573d6000803e3d6000fd5b505050506040513d601f19601f820116820180604052508101906106d29190610cf4565b73ffffffffffffffffffffffffffffffffffffffff163373ffffffffffffffffffffffffffffffffffffffff161461070957600080fd5b600060036000838152602001908152602001600020819055507fdb00f3044f762e640c77fdd12df2e7cf2b4c17de34f8995969a4d98b9904af4581604051610751919061107f565b60405180910390a160005b6004805490508110156108b95781600482815481106107a4577f4e487b7100000000000000000000000000000000000000000000000000000000600052603260045260246000fd5b906000526020600020015414156108a657600460016004805490506107c991906111ec565b81548110610800577f4e487b7100000000000000000000000000000000000000000000000000000000600052603260045260246000fd5b906000526020600020015460048281548110610845577f4e487b7100000000000000000000000000000000000000000000000000000000600052603260045260246000fd5b9060005260206000200181905550600480548061088b577f4e487b7100000000000000000000000000000000000000000000000000000000600052603160045260246000fd5b600190038181906000526020600020016000905590556108b9565b80806108b190611280565b91505061075c565b5050565b600060036000838152602001908152602001600020541415610914576040517f08c379a000000000000000000000000000000000000000000000000000000000815260040161090b90610fbf565b60405180910390fd5b600360008281526020019081526020016000205434101561096a576040517f08c379a00000000000000000000000000000000000000000000000000000000081526004016109619061101f565b60405180910390fd5b600260009054906101000a900473ffffffffffffffffffffffffffffffffffffffff1673ffffffffffffffffffffffffffffffffffffffff1663c41a360a826040518263ffffffff1660e01b81526004016109c5919061107f565b60206040518083038186803b1580156109dd57600080fd5b505afa1580156109f1573d6000803e3d6000fd5b505050506040513d601f19601f82011682018060405250810190610a159190610cf4565b73ffffffffffffffffffffffffffffffffffffffff163373ffffffffffffffffffffffffffffffffffffffff161415610a83576040517f08c379a0000000000000000000000000000000000000000000000000000000008152600401610a7a9061105f565b60405180910390fd5b6000600260009054906101000a900473ffffffffffffffffffffffffffffffffffffffff1673ffffffffffffffffffffffffffffffffffffffff1663c41a360a836040518263ffffffff1660e01b8152600401610ae0919061107f565b60206040518083038186803b158015610af857600080fd5b505afa158015610b0c573d6000803e3d6000fd5b505050506040513d601f19601f82011682018060405250810190610b309190610cf4565b9050600060036000848152602001908152602001600020549050600060015482610b5a91906111ec565b90508273ffffffffffffffffffffffffffffffffffffffff166108fc829081150290604051600060405180830381858888f19350505050158015610ba2573d6000803e3d6000fd5b50600260009054906101000a900473ffffffffffffffffffffffffffffffffffffffff1673ffffffffffffffffffffffffffffffffffffffff1663f8548e368533856040518463ffffffff1660e01b8152600401610c029392919061109a565b600060405180830381600087803b158015610c1c57600080fd5b505af1158015610c30573d6000803e3d6000fd5b505050507fbce6612c87f6b5711225ffc4b9f920148cd399de49ba10137fe0d3c531333841843384604051610c679392919061109a565b60405180910390a16000600360008681526020019081526020016000208190555050505050565b6000600154905090565b600060036000838152602001908152602001600020549050919050565b600081519050610cc481611327565b92915050565b600081359050610cd98161133e565b92915050565b600081519050610cee8161133e565b92915050565b600060208284031215610d0657600080fd5b6000610d1484828501610cb5565b91505092915050565b600060208284031215610d2f57600080fd5b6000610d3d84828501610cca565b91505092915050565b600060208284031215610d5857600080fd5b6000610d6684828501610cdf565b91505092915050565b60008060408385031215610d8257600080fd5b6000610d9085828601610cca565b9250506020610da185828601610cca565b9150509250929050565b610db481611220565b82525050565b610dc38161125c565b82525050565b6000610dd6601e836110fa565b91507f5469636b6574206d757374206265206c697374656420666f722073616c6500006000830152602082019050919050565b6000610e16601a836110fa565b91507f43616c6c6572206973206e6f74207469636b6574206f776e65720000000000006000830152602082019050919050565b6000610e566036836110fa565b91507f50726963652063616e6e6f74206265206d6f7265207468616e2032302520657860008301527f747261206f66206f726967696e616c20707269636520000000000000000000006020830152604082019050919050565b6000610ebc6014836110fa565b91507f496e73756666696369656e74207061796d656e740000000000000000000000006000830152602082019050919050565b6000610efc6037836110fa565b91507f5072696365206d757374206265206174206c65617374207469636b657420707260008301527f69636520706c757320636f6d6d697373696f6e206665650000000000000000006020830152604082019050919050565b6000610f62601d836110fa565b91507f427579657220616c7265616479206f776e7320746865207469636b65740000006000830152602082019050919050565b610f9e81611252565b82525050565b6000602082019050610fb96000830184610dba565b92915050565b60006020820190508181036000830152610fd881610dc9565b9050919050565b60006020820190508181036000830152610ff881610e09565b9050919050565b6000602082019050818103600083015261101881610e49565b9050919050565b6000602082019050818103600083015261103881610eaf565b9050919050565b6000602082019050818103600083015261105881610eef565b9050919050565b6000602082019050818103600083015261107881610f55565b9050919050565b60006020820190506110946000830184610f95565b92915050565b60006060820190506110af6000830186610f95565b6110bc6020830185610dab565b6110c96040830184610f95565b949350505050565b60006040820190506110e66000830185610f95565b6110f36020830184610f95565b9392505050565b600082825260208201905092915050565b600061111682611252565b915061112183611252565b9250827fffffffffffffffffffffffffffffffffffffffffffffffffffffffffffffffff03821115611156576111556112c9565b5b828201905092915050565b600061116c82611252565b915061117783611252565b925082611187576111866112f8565b5b828204905092915050565b600061119d82611252565b91506111a883611252565b9250817fffffffffffffffffffffffffffffffffffffffffffffffffffffffffffffffff04831182151516156111e1576111e06112c9565b5b828202905092915050565b60006111f782611252565b915061120283611252565b925082821015611215576112146112c9565b5b828203905092915050565b600061122b82611232565b9050919050565b600073ffffffffffffffffffffffffffffffffffffffff82169050919050565b6000819050919050565b60006112678261126e565b9050919050565b600061127982611232565b9050919050565b600061128b82611252565b91507fffffffffffffffffffffffffffffffffffffffffffffffffffffffffffffffff8214156112be576112bd6112c9565b5b600182019050919050565b7f4e487b7100000000000000000000000000000000000000000000000000000000600052601160045260246000fd5b7f4e487b7100000000000000000000000000000000000000000000000000000000600052601260045260246000fd5b61133081611220565b811461133b57600080fd5b50565b61134781611252565b811461135257600080fd5b5056fea2646970667358221220fd940736bd9877f0e0c0b76de3bb404046aea23cbcc64062a8f2e96d785fc43764736f6c63430008000033",
  "immutableReferences": {},
  "source": "// SPDX-License-Identifier: MIT\r\npragma solidity ^0.8.0;\r\n\r\nimport \"./ERC20.sol\";\r\nimport \"./Ticket.sol\";\r\nimport \"./TicketToken.sol\";\r\nimport \"./PriorityQueue.sol\";\r\nimport \"./LoyaltyPoints.sol\";\r\n\r\ncontract TicketMarket {\r\n    address _owner = msg.sender;\r\n    uint256 public commissionFee;\r\n    Ticket public ticketContract;\r\n\r\n    // Mapping from ticket ID to listing price\r\n    mapping(uint256 => uint256) public listPrice;\r\n\r\n    uint256[] private listedTickets; // To track listed ticket IDs\r\n\r\n    // Event emitted when a ticket is listed for sale\r\n    event TicketListed(uint256 ticketId, uint256 price);\r\n    event TicketUnlisted(uint256 ticketId);\r\n    event TicketSold(uint256 ticketId, address buyer, uint256 price);\r\n\r\n    // Event emitted when a ticket is transferred\r\n    event TicketTransferred(\r\n        uint256 indexed id,\r\n        address from,\r\n        address to,\r\n        uint256 price\r\n    );\r\n\r\n    constructor(Ticket ticketAddress, uint256 fee) {\r\n        ticketContract = ticketAddress;\r\n        commissionFee = fee;\r\n    }\r\n\r\n    // List a ticket for sale. Price needs to be >= value + fee\r\n    function list(uint256 ticketId, uint256 price) public {\r\n        require(\r\n            price >= (ticketContract.getPrice(ticketId) + commissionFee),\r\n            \"Price must be at least ticket price plus commission fee\"\r\n        );\r\n\r\n        require(\r\n            price <= ((ticketContract.getPrice(ticketId) * 6) / 5),\r\n            \"Price cannot be more than 20% extra of original price \"\r\n        );\r\n        require(\r\n            msg.sender == ticketContract.getOwner(ticketId),\r\n            \"Caller is not ticket owner\"\r\n        );\r\n        emit TicketListed(ticketId, price);\r\n        listPrice[ticketId] = price;\r\n        listedTickets.push(ticketId); // Add ticket ID to the list of listed tickets\r\n    }\r\n\r\n    function unlist(uint256 ticketId) public {\r\n        require(msg.sender == ticketContract.getOwner(ticketId));\r\n        listPrice[ticketId] = 0;\r\n        emit TicketUnlisted(ticketId); // Emit event for ticket unlisting\r\n\r\n        // Find and remove the ticket ID from listedTickets array\r\n        for (uint256 i = 0; i < listedTickets.length; i++) {\r\n            if (listedTickets[i] == ticketId) {\r\n                // Move the last element to the current index\r\n                listedTickets[i] = listedTickets[listedTickets.length - 1];\r\n                // Remove the last element\r\n                listedTickets.pop();\r\n                break; // Exit the loop once the ticket ID is removed\r\n            }\r\n        }\r\n    }\r\n\r\n    // Get price of ticket\r\n    function getTicketPrice(uint256 ticketId) public view returns (uint256) {\r\n        return listPrice[ticketId];\r\n    }\r\n\r\n    // Get the commission fee\r\n    function getCommission() public view returns (uint256) {\r\n        return commissionFee;\r\n    }\r\n\r\n    // Buy the ticket at the requested price\r\n    function buy(uint256 ticketId) public payable {\r\n        require(listPrice[ticketId] != 0, \"Ticket must be listed for sale\");\r\n        require(msg.value >= listPrice[ticketId], \"Insufficient payment\");\r\n        require(\r\n            msg.sender != ticketContract.getOwner(ticketId),\r\n            \"Buyer already owns the ticket\"\r\n        );\r\n\r\n        address payable recipient = payable(ticketContract.getOwner(ticketId));\r\n\r\n        uint256 resellPrice = listPrice[ticketId];\r\n        uint256 amountToTransfer = resellPrice - commissionFee;\r\n        recipient.transfer(amountToTransfer);\r\n\r\n        ticketContract.transfer(ticketId, msg.sender, resellPrice);\r\n\r\n        // Emit event for ticket purchase\r\n        emit TicketSold(ticketId, msg.sender, resellPrice);\r\n\r\n        // Remove the ticket from the listing after purchase\r\n        listPrice[ticketId] = 0;\r\n    }\r\n\r\n    // get price of ticket\r\n    function checkPrice(uint256 id) public view returns (uint256) {\r\n        return listPrice[id];\r\n    }\r\n}\r\n",
  "sourcePath": "C:\\Users\\tngjo\\OneDrive\\Desktop\\GitHub\\IS4302-Decentralized-Event-Ticketing-System\\contracts\\TicketMarket.sol",
  "compiler": {
    "name": "solc",
    "version": "0.8.0+commit.c7dfd78e.Emscripten.clang"
  },
  "schemaVersion": "3.4.16",
  "updatedAt": "2024-04-04T07:03:38.416Z",
  "devdoc": {
    "kind": "dev",
    "methods": {},
    "version": 1
  },
  "userdoc": {
    "kind": "user",
    "methods": {},
    "version": 1
  }
}