{
  "contractName": "Ticket",
  "abi": [
    {
      "inputs": [
        {
          "internalType": "address",
          "name": "_ticketToken",
          "type": "address"
        }
      ],
      "stateMutability": "nonpayable",
      "type": "constructor"
    },
    {
      "anonymous": false,
      "inputs": [
        {
          "indexed": false,
          "internalType": "uint256",
          "name": "ticketId",
          "type": "uint256"
        },
        {
          "indexed": false,
          "internalType": "address",
          "name": "newOwner",
          "type": "address"
        },
        {
          "indexed": false,
          "internalType": "uint256",
          "name": "price",
          "type": "uint256"
        }
      ],
      "name": "TicketBought",
      "type": "event"
    },
    {
      "anonymous": false,
      "inputs": [
        {
          "indexed": true,
          "internalType": "uint256",
          "name": "ticketId",
          "type": "uint256"
        },
        {
          "indexed": false,
          "internalType": "address",
          "name": "owner",
          "type": "address"
        }
      ],
      "name": "TicketCreated",
      "type": "event"
    },
    {
      "anonymous": false,
      "inputs": [
        {
          "indexed": false,
          "internalType": "uint256",
          "name": "ticketId",
          "type": "uint256"
        }
      ],
      "name": "TicketFrozen",
      "type": "event"
    },
    {
      "anonymous": false,
      "inputs": [
        {
          "indexed": false,
          "internalType": "uint256",
          "name": "ticketId",
          "type": "uint256"
        }
      ],
      "name": "TicketRedeemed",
      "type": "event"
    },
    {
      "inputs": [],
      "name": "owner",
      "outputs": [
        {
          "internalType": "address",
          "name": "",
          "type": "address"
        }
      ],
      "stateMutability": "view",
      "type": "function"
    },
    {
      "inputs": [],
      "name": "presaleMarketAddress",
      "outputs": [
        {
          "internalType": "address",
          "name": "",
          "type": "address"
        }
      ],
      "stateMutability": "view",
      "type": "function"
    },
    {
      "inputs": [],
      "name": "ticketCounter",
      "outputs": [
        {
          "internalType": "uint256",
          "name": "",
          "type": "uint256"
        }
      ],
      "stateMutability": "view",
      "type": "function"
    },
    {
      "inputs": [],
      "name": "ticketToken",
      "outputs": [
        {
          "internalType": "contract TicketToken",
          "name": "",
          "type": "address"
        }
      ],
      "stateMutability": "view",
      "type": "function"
    },
    {
      "inputs": [
        {
          "internalType": "uint256",
          "name": "",
          "type": "uint256"
        }
      ],
      "name": "tickets",
      "outputs": [
        {
          "internalType": "uint256",
          "name": "ticketId",
          "type": "uint256"
        },
        {
          "internalType": "uint256",
          "name": "concertId",
          "type": "uint256"
        },
        {
          "internalType": "string",
          "name": "concertName",
          "type": "string"
        },
        {
          "internalType": "string",
          "name": "concertVenue",
          "type": "string"
        },
        {
          "internalType": "uint256",
          "name": "concertDate",
          "type": "uint256"
        },
        {
          "internalType": "uint256",
          "name": "ticketSectionNo",
          "type": "uint256"
        },
        {
          "internalType": "uint256",
          "name": "ticketSeatNo",
          "type": "uint256"
        },
        {
          "internalType": "enum Ticket.TicketState",
          "name": "ticketState",
          "type": "uint8"
        },
        {
          "internalType": "address",
          "name": "owner",
          "type": "address"
        },
        {
          "internalType": "address",
          "name": "prevOwner",
          "type": "address"
        },
        {
          "internalType": "uint256",
          "name": "price",
          "type": "uint256"
        },
        {
          "internalType": "uint256",
          "name": "resellPrice",
          "type": "uint256"
        }
      ],
      "stateMutability": "view",
      "type": "function"
    },
    {
      "inputs": [
        {
          "internalType": "address",
          "name": "_presaleMarketAddress",
          "type": "address"
        }
      ],
      "name": "setPresaleMarketAddress",
      "outputs": [],
      "stateMutability": "nonpayable",
      "type": "function"
    },
    {
      "inputs": [
        {
          "internalType": "uint256",
          "name": "concertId",
          "type": "uint256"
        },
        {
          "internalType": "string",
          "name": "concertName",
          "type": "string"
        },
        {
          "internalType": "string",
          "name": "concertVenue",
          "type": "string"
        },
        {
          "internalType": "uint256",
          "name": "concertDate",
          "type": "uint256"
        },
        {
          "internalType": "uint256",
          "name": "ticketSectionNo",
          "type": "uint256"
        },
        {
          "internalType": "uint256",
          "name": "ticketSeatNo",
          "type": "uint256"
        },
        {
          "internalType": "uint256",
          "name": "price",
          "type": "uint256"
        }
      ],
      "name": "createTicket",
      "outputs": [
        {
          "internalType": "uint256",
          "name": "",
          "type": "uint256"
        }
      ],
      "stateMutability": "nonpayable",
      "type": "function"
    },
    {
      "inputs": [
        {
          "internalType": "uint256",
          "name": "_ticketId",
          "type": "uint256"
        }
      ],
      "name": "redeemTicket",
      "outputs": [],
      "stateMutability": "nonpayable",
      "type": "function"
    },
    {
      "inputs": [
        {
          "internalType": "uint256",
          "name": "_ticketId",
          "type": "uint256"
        }
      ],
      "name": "freezeTicket",
      "outputs": [],
      "stateMutability": "nonpayable",
      "type": "function"
    },
    {
      "inputs": [
        {
          "internalType": "uint256",
          "name": "ticketId",
          "type": "uint256"
        },
        {
          "internalType": "address",
          "name": "newOwner",
          "type": "address"
        },
        {
          "internalType": "uint256",
          "name": "resellPrice",
          "type": "uint256"
        }
      ],
      "name": "transfer",
      "outputs": [],
      "stateMutability": "nonpayable",
      "type": "function"
    },
    {
      "inputs": [
        {
          "internalType": "uint256",
          "name": "ticketId",
          "type": "uint256"
        }
      ],
      "name": "isRedeemed",
      "outputs": [
        {
          "internalType": "bool",
          "name": "",
          "type": "bool"
        }
      ],
      "stateMutability": "view",
      "type": "function"
    },
    {
      "inputs": [
        {
          "internalType": "uint256",
          "name": "ticketId",
          "type": "uint256"
        }
      ],
      "name": "getTicketId",
      "outputs": [
        {
          "internalType": "uint256",
          "name": "",
          "type": "uint256"
        }
      ],
      "stateMutability": "view",
      "type": "function"
    },
    {
      "inputs": [
        {
          "internalType": "uint256",
          "name": "ticketId",
          "type": "uint256"
        }
      ],
      "name": "getConcertId",
      "outputs": [
        {
          "internalType": "uint256",
          "name": "",
          "type": "uint256"
        }
      ],
      "stateMutability": "view",
      "type": "function"
    },
    {
      "inputs": [
        {
          "internalType": "uint256",
          "name": "ticketId",
          "type": "uint256"
        }
      ],
      "name": "getConcertName",
      "outputs": [
        {
          "internalType": "string",
          "name": "",
          "type": "string"
        }
      ],
      "stateMutability": "view",
      "type": "function"
    },
    {
      "inputs": [
        {
          "internalType": "uint256",
          "name": "ticketId",
          "type": "uint256"
        }
      ],
      "name": "getConcertVenue",
      "outputs": [
        {
          "internalType": "string",
          "name": "",
          "type": "string"
        }
      ],
      "stateMutability": "view",
      "type": "function"
    },
    {
      "inputs": [
        {
          "internalType": "uint256",
          "name": "ticketId",
          "type": "uint256"
        }
      ],
      "name": "getConcertDate",
      "outputs": [
        {
          "internalType": "uint256",
          "name": "",
          "type": "uint256"
        }
      ],
      "stateMutability": "view",
      "type": "function"
    },
    {
      "inputs": [
        {
          "internalType": "uint256",
          "name": "ticketId",
          "type": "uint256"
        }
      ],
      "name": "getTicketSectionNo",
      "outputs": [
        {
          "internalType": "uint256",
          "name": "",
          "type": "uint256"
        }
      ],
      "stateMutability": "view",
      "type": "function"
    },
    {
      "inputs": [
        {
          "internalType": "uint256",
          "name": "ticketId",
          "type": "uint256"
        }
      ],
      "name": "getTicketSeatNo",
      "outputs": [
        {
          "internalType": "uint256",
          "name": "",
          "type": "uint256"
        }
      ],
      "stateMutability": "view",
      "type": "function"
    },
    {
      "inputs": [
        {
          "internalType": "uint256",
          "name": "ticketId",
          "type": "uint256"
        }
      ],
      "name": "getTicketState",
      "outputs": [
        {
          "internalType": "enum Ticket.TicketState",
          "name": "",
          "type": "uint8"
        }
      ],
      "stateMutability": "view",
      "type": "function"
    },
    {
      "inputs": [
        {
          "internalType": "uint256",
          "name": "ticketId",
          "type": "uint256"
        }
      ],
      "name": "getOwner",
      "outputs": [
        {
          "internalType": "address",
          "name": "",
          "type": "address"
        }
      ],
      "stateMutability": "view",
      "type": "function"
    },
    {
      "inputs": [
        {
          "internalType": "uint256",
          "name": "ticketId",
          "type": "uint256"
        }
      ],
      "name": "getPrevOwner",
      "outputs": [
        {
          "internalType": "address",
          "name": "",
          "type": "address"
        }
      ],
      "stateMutability": "view",
      "type": "function"
    },
    {
      "inputs": [
        {
          "internalType": "uint256",
          "name": "ticketId",
          "type": "uint256"
        }
      ],
      "name": "getPrice",
      "outputs": [
        {
          "internalType": "uint256",
          "name": "",
          "type": "uint256"
        }
      ],
      "stateMutability": "view",
      "type": "function"
    }
  ],
  "bytecode": "0x608060405260006002553480156200001657600080fd5b50604051620023043803806200230483398181016040528101906200003c9190620000dc565b33600360006101000a81548173ffffffffffffffffffffffffffffffffffffffff021916908373ffffffffffffffffffffffffffffffffffffffff16021790555080600160006101000a81548173ffffffffffffffffffffffffffffffffffffffff021916908373ffffffffffffffffffffffffffffffffffffffff1602179055505062000156565b600081519050620000d6816200013c565b92915050565b600060208284031215620000ef57600080fd5b6000620000ff84828501620000c5565b91505092915050565b600062000115826200011c565b9050919050565b600073ffffffffffffffffffffffffffffffffffffffff82169050919050565b620001478162000108565b81146200015357600080fd5b50565b61219e80620001666000396000f3fe608060405234801561001057600080fd5b50600436106101425760003560e01c80638c4d59d0116100b8578063dba4a8df1161007c578063dba4a8df146103e2578063e757223014610412578063f2d03fcf14610442578063f8548e3614610472578063fe18a4301461048e578063fe8b766b146104aa57610142565b80638c4d59d0146103285780638da5cb5b14610346578063bcc7982214610364578063c41a360a14610394578063d5ed4d5a146103c457610142565b806350b447121161010a57806350b447121461020f5780635b73c1311461024a5780636482db3f146102685780636c5c74b81461029857806371d69ef0146102c857806386db5b23146102f857610142565b806315f59d7f1461014757806316086c981461016357806316c15c0c1461017f57806332d33cd0146101af5780634f44d7b6146101df575b600080fd5b610161600480360381019061015c91906118bc565b6104da565b005b61017d600480360381019061017891906118bc565b610688565b005b610199600480360381019061019491906118bc565b610845565b6040516101a69190611d40565b60405180910390f35b6101c960048036038101906101c491906118bc565b6108aa565b6040516101d69190611c2d565b60405180910390f35b6101f960048036038101906101f491906118bc565b61098f565b6040516102069190611c7e565b60405180910390f35b610229600480360381019061022491906118bc565b610a7c565b6040516102419c9b9a99989796959493929190611d92565b60405180910390f35b610252610c39565b60405161025f9190611c12565b60405180910390f35b610282600480360381019061027d91906118bc565b610c5f565b60405161028f9190611c63565b60405180910390f35b6102b260048036038101906102ad91906118bc565b610cd1565b6040516102bf9190611d40565b60405180910390f35b6102e260048036038101906102dd91906118bc565b610d36565b6040516102ef9190611d40565b60405180910390f35b610312600480360381019061030d91906118bc565b610d9b565b60405161031f9190611d40565b60405180910390f35b610330610e00565b60405161033d9190611d40565b60405180910390f35b61034e610e06565b60405161035b9190611c12565b60405180910390f35b61037e600480360381019061037991906118bc565b610e2c565b60405161038b9190611c7e565b60405180910390f35b6103ae60048036038101906103a991906118bc565b610f19565b6040516103bb9190611c12565b60405180910390f35b6103cc610f9e565b6040516103d99190611c48565b60405180910390f35b6103fc60048036038101906103f791906118bc565b610fc4565b6040516104099190611d40565b60405180910390f35b61042c600480360381019061042791906118bc565b611029565b6040516104399190611d40565b60405180910390f35b61045c600480360381019061045791906118bc565b61108e565b6040516104699190611c12565b60405180910390f35b61048c600480360381019061048791906118e5565b611113565b005b6104a860048036038101906104a39190611893565b61137a565b005b6104c460048036038101906104bf9190611934565b6113be565b6040516104d19190611d40565b60405180910390f35b80600254811061051f576040517f08c379a000000000000000000000000000000000000000000000000000000000815260040161051690611ca0565b60405180910390fd5b600080600084815260200190815260200160002090506000600281111561056f577f4e487b7100000000000000000000000000000000000000000000000000000000600052602160045260246000fd5b8160070160009054906101000a900460ff1660028111156105b9577f4e487b7100000000000000000000000000000000000000000000000000000000600052602160045260246000fd5b146105f9576040517f08c379a00000000000000000000000000000000000000000000000000000000081526004016105f090611ce0565b60405180910390fd5b60018160070160006101000a81548160ff02191690836002811115610647577f4e487b7100000000000000000000000000000000000000000000000000000000600052602160045260246000fd5b02179055507fb0ebd5f2f7c40ca5715d8deab780894f023a63bc249fc45e69df6acbc4e8b5688360405161067b9190611d40565b60405180910390a1505050565b8060008060028111156106c4577f4e487b7100000000000000000000000000000000000000000000000000000000600052602160045260246000fd5b60008084815260200190815260200160002060070160009054906101000a900460ff16600281111561071f577f4e487b7100000000000000000000000000000000000000000000000000000000600052602160045260246000fd5b1461075f576040517f08c379a000000000000000000000000000000000000000000000000000000000815260040161075690611d00565b60405180910390fd5b8260025481106107a4576040517f08c379a000000000000000000000000000000000000000000000000000000000815260040161079b90611ca0565b60405180910390fd5b600260008086815260200190815260200160002060070160006101000a81548160ff02191690836002811115610803577f4e487b7100000000000000000000000000000000000000000000000000000000600052602160045260246000fd5b02179055507f5f9fbbc6b6aee5534f63c42109bdd37181fe2ce563b4c54322b4d7b6910393df846040516108379190611d40565b60405180910390a150505050565b600081600254811061088c576040517f08c379a000000000000000000000000000000000000000000000000000000000815260040161088390611ca0565b60405180910390fd5b60008084815260200190815260200160002060040154915050919050565b60008160025481106108f1576040517f08c379a00000000000000000000000000000000000000000000000000000000081526004016108e890611ca0565b60405180910390fd5b6001600281111561092b577f4e487b7100000000000000000000000000000000000000000000000000000000600052602160045260246000fd5b60008085815260200190815260200160002060070160009054906101000a900460ff166002811115610986577f4e487b7100000000000000000000000000000000000000000000000000000000600052602160045260246000fd5b14915050919050565b60608160025481106109d6576040517f08c379a00000000000000000000000000000000000000000000000000000000081526004016109cd90611ca0565b60405180910390fd5b60008084815260200190815260200160002060020180546109f690611fde565b80601f0160208091040260200160405190810160405280929190818152602001828054610a2290611fde565b8015610a6f5780601f10610a4457610100808354040283529160200191610a6f565b820191906000526020600020905b815481529060010190602001808311610a5257829003601f168201915b5050505050915050919050565b6000602052806000526040600020600091509050806000015490806001015490806002018054610aab90611fde565b80601f0160208091040260200160405190810160405280929190818152602001828054610ad790611fde565b8015610b245780601f10610af957610100808354040283529160200191610b24565b820191906000526020600020905b815481529060010190602001808311610b0757829003601f168201915b505050505090806003018054610b3990611fde565b80601f0160208091040260200160405190810160405280929190818152602001828054610b6590611fde565b8015610bb25780601f10610b8757610100808354040283529160200191610bb2565b820191906000526020600020905b815481529060010190602001808311610b9557829003601f168201915b5050505050908060040154908060050154908060060154908060070160009054906101000a900460ff16908060070160019054906101000a900473ffffffffffffffffffffffffffffffffffffffff16908060080160009054906101000a900473ffffffffffffffffffffffffffffffffffffffff169080600901549080600a015490508c565b600460009054906101000a900473ffffffffffffffffffffffffffffffffffffffff1681565b6000816002548110610ca6576040517f08c379a0000000000000000000000000000000000000000000000000000000008152600401610c9d90611ca0565b60405180910390fd5b60008084815260200190815260200160002060070160009054906101000a900460ff16915050919050565b6000816002548110610d18576040517f08c379a0000000000000000000000000000000000000000000000000000000008152600401610d0f90611ca0565b60405180910390fd5b60008084815260200190815260200160002060050154915050919050565b6000816002548110610d7d576040517f08c379a0000000000000000000000000000000000000000000000000000000008152600401610d7490611ca0565b60405180910390fd5b60008084815260200190815260200160002060060154915050919050565b6000816002548110610de2576040517f08c379a0000000000000000000000000000000000000000000000000000000008152600401610dd990611ca0565b60405180910390fd5b60008084815260200190815260200160002060010154915050919050565b60025481565b600360009054906101000a900473ffffffffffffffffffffffffffffffffffffffff1681565b6060816002548110610e73576040517f08c379a0000000000000000000000000000000000000000000000000000000008152600401610e6a90611ca0565b60405180910390fd5b6000808481526020019081526020016000206003018054610e9390611fde565b80601f0160208091040260200160405190810160405280929190818152602001828054610ebf90611fde565b8015610f0c5780601f10610ee157610100808354040283529160200191610f0c565b820191906000526020600020905b815481529060010190602001808311610eef57829003601f168201915b5050505050915050919050565b6000816002548110610f60576040517f08c379a0000000000000000000000000000000000000000000000000000000008152600401610f5790611ca0565b60405180910390fd5b60008084815260200190815260200160002060070160019054906101000a900473ffffffffffffffffffffffffffffffffffffffff16915050919050565b600160009054906101000a900473ffffffffffffffffffffffffffffffffffffffff1681565b600081600254811061100b576040517f08c379a000000000000000000000000000000000000000000000000000000000815260040161100290611ca0565b60405180910390fd5b60008084815260200190815260200160002060000154915050919050565b6000816002548110611070576040517f08c379a000000000000000000000000000000000000000000000000000000000815260040161106790611ca0565b60405180910390fd5b60008084815260200190815260200160002060090154915050919050565b60008160025481106110d5576040517f08c379a00000000000000000000000000000000000000000000000000000000081526004016110cc90611ca0565b60405180910390fd5b60008084815260200190815260200160002060080160009054906101000a900473ffffffffffffffffffffffffffffffffffffffff16915050919050565b826002548110611158576040517f08c379a000000000000000000000000000000000000000000000000000000000815260040161114f90611ca0565b60405180910390fd5b60006002811115611192577f4e487b7100000000000000000000000000000000000000000000000000000000600052602160045260246000fd5b60008086815260200190815260200160002060070160009054906101000a900460ff1660028111156111ed577f4e487b7100000000000000000000000000000000000000000000000000000000600052602160045260246000fd5b1461122d576040517f08c379a000000000000000000000000000000000000000000000000000000000815260040161122490611d20565b60405180910390fd5b60008085815260200190815260200160002060070160019054906101000a900473ffffffffffffffffffffffffffffffffffffffff1660008086815260200190815260200160002060080160006101000a81548173ffffffffffffffffffffffffffffffffffffffff021916908373ffffffffffffffffffffffffffffffffffffffff1602179055508260008086815260200190815260200160002060070160016101000a81548173ffffffffffffffffffffffffffffffffffffffff021916908373ffffffffffffffffffffffffffffffffffffffff16021790555081600080868152602001908152602001600020600901819055507f913d09b391f64143215d9312fd7e8ecaa06001c646789c9d2109dc515bc34fad84846000808881526020019081526020016000206009015460405161136c93929190611d5b565b60405180910390a150505050565b80600460006101000a81548173ffffffffffffffffffffffffffffffffffffffff021916908373ffffffffffffffffffffffffffffffffffffffff16021790555050565b6000600360009054906101000a900473ffffffffffffffffffffffffffffffffffffffff1673ffffffffffffffffffffffffffffffffffffffff163373ffffffffffffffffffffffffffffffffffffffff1614806114695750600460009054906101000a900473ffffffffffffffffffffffffffffffffffffffff1673ffffffffffffffffffffffffffffffffffffffff163373ffffffffffffffffffffffffffffffffffffffff16145b6114a8576040517f08c379a000000000000000000000000000000000000000000000000000000000815260040161149f90611cc0565b60405180910390fd5b600060405180610180016040528060025481526020018a81526020018981526020018881526020018781526020018681526020018581526020016000600281111561151c577f4e487b7100000000000000000000000000000000000000000000000000000000600052602160045260246000fd5b81526020013373ffffffffffffffffffffffffffffffffffffffff168152602001600073ffffffffffffffffffffffffffffffffffffffff16815260200184815260200160008152509050806000806002600081548092919061157e90612010565b919050558152602001908152602001600020600082015181600001556020820151816001015560408201518160020190805190602001906115c092919061175e565b5060608201518160030190805190602001906115dd92919061175e565b506080820151816004015560a0820151816005015560c0820151816006015560e08201518160070160006101000a81548160ff0219169083600281111561164d577f4e487b7100000000000000000000000000000000000000000000000000000000600052602160045260246000fd5b02179055506101008201518160070160016101000a81548173ffffffffffffffffffffffffffffffffffffffff021916908373ffffffffffffffffffffffffffffffffffffffff1602179055506101208201518160080160006101000a81548173ffffffffffffffffffffffffffffffffffffffff021916908373ffffffffffffffffffffffffffffffffffffffff160217905550610140820151816009015561016082015181600a0155905050600160025461170a9190611ed7565b7f960fa3b53d2527c64fb943b9502a4541b1137488cb027f95b36b06b44d10fedc336040516117399190611c12565b60405180910390a260016002546117509190611ed7565b915050979650505050505050565b82805461176a90611fde565b90600052602060002090601f01602090048101928261178c57600085556117d3565b82601f106117a557805160ff19168380011785556117d3565b828001600101855582156117d3579182015b828111156117d25782518255916020019190600101906117b7565b5b5090506117e091906117e4565b5090565b5b808211156117fd5760008160009055506001016117e5565b5090565b600061181461180f84611e8b565b611e5a565b90508281526020810184848401111561182c57600080fd5b611837848285611f9c565b509392505050565b60008135905061184e8161213a565b92915050565b600082601f83011261186557600080fd5b8135611875848260208601611801565b91505092915050565b60008135905061188d81612151565b92915050565b6000602082840312156118a557600080fd5b60006118b38482850161183f565b91505092915050565b6000602082840312156118ce57600080fd5b60006118dc8482850161187e565b91505092915050565b6000806000606084860312156118fa57600080fd5b60006119088682870161187e565b93505060206119198682870161183f565b925050604061192a8682870161187e565b9150509250925092565b600080600080600080600060e0888a03121561194f57600080fd5b600061195d8a828b0161187e565b975050602088013567ffffffffffffffff81111561197a57600080fd5b6119868a828b01611854565b965050604088013567ffffffffffffffff8111156119a357600080fd5b6119af8a828b01611854565b95505060606119c08a828b0161187e565b94505060806119d18a828b0161187e565b93505060a06119e28a828b0161187e565b92505060c06119f38a828b0161187e565b91505092959891949750929550565b611a0b81611f0b565b82525050565b611a1a81611f1d565b82525050565b611a2981611f66565b82525050565b611a3881611f8a565b82525050565b6000611a4982611ebb565b611a538185611ec6565b9350611a63818560208601611fab565b611a6c81612115565b840191505092915050565b6000611a84601183611ec6565b91507f496e76616c6964207469636b65742049440000000000000000000000000000006000830152602082019050919050565b6000611ac4600c83611ec6565b91507f556e617574686f72697a656400000000000000000000000000000000000000006000830152602082019050919050565b6000611b04601583611ec6565b91507f5469636b6574206973206e6f74206163746976652e00000000000000000000006000830152602082019050919050565b6000611b44602b83611ec6565b91507f5469636b65742061742077726f6e672073746174652c20616374696f6e206e6f60008301527f7420706572666f726d65640000000000000000000000000000000000000000006020830152604082019050919050565b6000611baa603183611ec6565b91507f5469636b65742063616e6e6f74206265207472616e7366657272656420696e2060008301527f6974732063757272656e742073746174650000000000000000000000000000006020830152604082019050919050565b611c0c81611f5c565b82525050565b6000602082019050611c276000830184611a02565b92915050565b6000602082019050611c426000830184611a11565b92915050565b6000602082019050611c5d6000830184611a20565b92915050565b6000602082019050611c786000830184611a2f565b92915050565b60006020820190508181036000830152611c988184611a3e565b905092915050565b60006020820190508181036000830152611cb981611a77565b9050919050565b60006020820190508181036000830152611cd981611ab7565b9050919050565b60006020820190508181036000830152611cf981611af7565b9050919050565b60006020820190508181036000830152611d1981611b37565b9050919050565b60006020820190508181036000830152611d3981611b9d565b9050919050565b6000602082019050611d556000830184611c03565b92915050565b6000606082019050611d706000830186611c03565b611d7d6020830185611a02565b611d8a6040830184611c03565b949350505050565b600061018082019050611da8600083018f611c03565b611db5602083018e611c03565b8181036040830152611dc7818d611a3e565b90508181036060830152611ddb818c611a3e565b9050611dea608083018b611c03565b611df760a083018a611c03565b611e0460c0830189611c03565b611e1160e0830188611a2f565b611e1f610100830187611a02565b611e2d610120830186611a02565b611e3b610140830185611c03565b611e49610160830184611c03565b9d9c50505050505050505050505050565b6000604051905081810181811067ffffffffffffffff82111715611e8157611e806120e6565b5b8060405250919050565b600067ffffffffffffffff821115611ea657611ea56120e6565b5b601f19601f8301169050602081019050919050565b600081519050919050565b600082825260208201905092915050565b6000611ee282611f5c565b9150611eed83611f5c565b925082821015611f0057611eff612059565b5b828203905092915050565b6000611f1682611f3c565b9050919050565b60008115159050919050565b6000819050611f3782612126565b919050565b600073ffffffffffffffffffffffffffffffffffffffff82169050919050565b6000819050919050565b6000611f7182611f78565b9050919050565b6000611f8382611f3c565b9050919050565b6000611f9582611f29565b9050919050565b82818337600083830152505050565b60005b83811015611fc9578082015181840152602081019050611fae565b83811115611fd8576000848401525b50505050565b60006002820490506001821680611ff657607f821691505b6020821081141561200a576120096120b7565b5b50919050565b600061201b82611f5c565b91507fffffffffffffffffffffffffffffffffffffffffffffffffffffffffffffffff82141561204e5761204d612059565b5b600182019050919050565b7f4e487b7100000000000000000000000000000000000000000000000000000000600052601160045260246000fd5b7f4e487b7100000000000000000000000000000000000000000000000000000000600052602160045260246000fd5b7f4e487b7100000000000000000000000000000000000000000000000000000000600052602260045260246000fd5b7f4e487b7100000000000000000000000000000000000000000000000000000000600052604160045260246000fd5b6000601f19601f8301169050919050565b6003811061213757612136612088565b5b50565b61214381611f0b565b811461214e57600080fd5b50565b61215a81611f5c565b811461216557600080fd5b5056fea2646970667358221220d5ceb7f8d8480cfa503250b19bf73fcf7c414c47cfaab4879e053b6511ec52c264736f6c63430008000033",
  "immutableReferences": {},
  "source": "// SPDX-License-Identifier: MIT\r\npragma solidity ^0.8.0;\r\n\r\nimport \"./ERC20.sol\";\r\nimport \"./TicketToken.sol\";\r\nimport \"./PresaleMarket.sol\";\r\n\r\ncontract Ticket {\r\n    enum TicketState {\r\n        Active,\r\n        Redeemed,\r\n        Frozen\r\n    }\r\n\r\n    struct ticket {\r\n        uint256 ticketId;\r\n        uint256 concertId;\r\n        string concertName;\r\n        string concertVenue;\r\n        uint256 concertDate;\r\n        uint256 ticketSectionNo;\r\n        uint256 ticketSeatNo;\r\n        TicketState ticketState;\r\n        address owner;\r\n        address prevOwner;\r\n        uint256 price;\r\n        uint256 resellPrice;\r\n    }\r\n\r\n    mapping(uint256 => ticket) public tickets;\r\n\r\n    event TicketCreated(uint256 indexed ticketId, address owner);\r\n    event TicketRedeemed(uint256 ticketId);\r\n    event TicketFrozen(uint256 ticketId);\r\n    event TicketBought(uint256 ticketId, address newOwner, uint256 price);\r\n\r\n    TicketToken public ticketToken;\r\n    uint256 public ticketCounter = 0;\r\n    address public owner;\r\n    address public presaleMarketAddress;\r\n\r\n    function setPresaleMarketAddress(address _presaleMarketAddress) public {\r\n        presaleMarketAddress = _presaleMarketAddress;\r\n    }\r\n\r\n    constructor(address _ticketToken) {\r\n        owner = msg.sender;\r\n        ticketToken = TicketToken(_ticketToken);\r\n    }\r\n\r\n    modifier atState(uint256 _ticketId, TicketState _state) {\r\n        require(\r\n            tickets[_ticketId].ticketState == _state,\r\n            \"Ticket at wrong state, action not performed\"\r\n        );\r\n        _;\r\n    }\r\n\r\n    modifier validTicketId(uint256 ticketId) {\r\n        require(ticketId < ticketCounter, \"Invalid ticket ID\");\r\n        _;\r\n    }\r\n\r\n    // function to create a new ticket and add to the tickets map\r\n    function createTicket(\r\n        uint256 concertId,\r\n        string memory concertName,\r\n        string memory concertVenue,\r\n        uint256 concertDate,\r\n        uint256 ticketSectionNo,\r\n        uint256 ticketSeatNo,\r\n        uint256 price\r\n    ) public onlyOwnerOrMarket returns (uint256) {\r\n        ticket memory newTicket = ticket({\r\n            ticketId: ticketCounter,\r\n            concertId: concertId,\r\n            concertName: concertName,\r\n            concertVenue: concertVenue,\r\n            concertDate: concertDate,\r\n            ticketSectionNo: ticketSectionNo,\r\n            ticketSeatNo: ticketSeatNo,\r\n            ticketState: TicketState.Active,\r\n            prevOwner: address(0),\r\n            owner: msg.sender, // Assuming the owner creates the ticket\r\n            price: price,\r\n            resellPrice: 0\r\n        });\r\n\r\n        tickets[ticketCounter++] = newTicket;\r\n        emit TicketCreated(ticketCounter - 1, msg.sender);\r\n        return ticketCounter - 1; // Return the ID of the newly created ticket\r\n    }\r\n\r\n    // Modifier to ensure a function is callable only by its owner\r\n    modifier ownerOnly(uint256 ticketId) {\r\n        require(tickets[ticketId].owner == msg.sender);\r\n        _;\r\n    }\r\n\r\n    // Modifier to ensure function can be called by presaleMarket as well\r\n    modifier onlyOwnerOrMarket() {\r\n        require(\r\n            msg.sender == owner || msg.sender == presaleMarketAddress,\r\n            \"Unauthorized\"\r\n        );\r\n        _;\r\n    }\r\n\r\n    function redeemTicket(uint256 _ticketId) public validTicketId(_ticketId) {\r\n        ticket storage myTicket = tickets[_ticketId];\r\n\r\n        // Ensure the ticket is active\r\n        require(\r\n            myTicket.ticketState == TicketState.Active,\r\n            \"Ticket is not active.\"\r\n        );\r\n\r\n        // Update the ticket state to Redeemed\r\n        myTicket.ticketState = TicketState.Redeemed;\r\n        emit TicketRedeemed(_ticketId);\r\n    }\r\n\r\n    function freezeTicket(\r\n        uint256 _ticketId\r\n    ) external atState(_ticketId, TicketState.Active) validTicketId(_ticketId) {\r\n        tickets[_ticketId].ticketState = TicketState.Frozen;\r\n        emit TicketFrozen(_ticketId);\r\n    }\r\n\r\n    function transfer(\r\n        uint256 ticketId,\r\n        address newOwner,\r\n        uint256 resellPrice\r\n    ) external validTicketId(ticketId) {\r\n        require(\r\n            tickets[ticketId].ticketState == TicketState.Active,\r\n            \"Ticket cannot be transferred in its current state\"\r\n        );\r\n\r\n        tickets[ticketId].prevOwner = tickets[ticketId].owner;\r\n        tickets[ticketId].owner = newOwner;\r\n        tickets[ticketId].price = resellPrice;\r\n\r\n        emit TicketBought(ticketId, newOwner, tickets[ticketId].price);\r\n    }\r\n\r\n    // Function to check if a ticket has been redeemed\r\n    function isRedeemed(\r\n        uint256 ticketId\r\n    ) public view validTicketId(ticketId) returns (bool) {\r\n        return tickets[ticketId].ticketState == TicketState.Redeemed;\r\n    }\r\n\r\n    // Getter Functions for Ticket attributes\r\n    function getTicketId(\r\n        uint256 ticketId\r\n    ) public view validTicketId(ticketId) returns (uint256) {\r\n        return tickets[ticketId].ticketId;\r\n    }\r\n\r\n    function getConcertId(\r\n        uint256 ticketId\r\n    ) public view validTicketId(ticketId) returns (uint256) {\r\n        return tickets[ticketId].concertId;\r\n    }\r\n\r\n    function getConcertName(\r\n        uint256 ticketId\r\n    ) public view validTicketId(ticketId) returns (string memory) {\r\n        return tickets[ticketId].concertName;\r\n    }\r\n\r\n    function getConcertVenue(\r\n        uint256 ticketId\r\n    ) public view validTicketId(ticketId) returns (string memory) {\r\n        return tickets[ticketId].concertVenue;\r\n    }\r\n\r\n    function getConcertDate(\r\n        uint256 ticketId\r\n    ) public view validTicketId(ticketId) returns (uint256) {\r\n        return tickets[ticketId].concertDate;\r\n    }\r\n\r\n    function getTicketSectionNo(\r\n        uint256 ticketId\r\n    ) public view validTicketId(ticketId) returns (uint256) {\r\n        return tickets[ticketId].ticketSectionNo;\r\n    }\r\n\r\n    function getTicketSeatNo(\r\n        uint256 ticketId\r\n    ) public view validTicketId(ticketId) returns (uint256) {\r\n        return tickets[ticketId].ticketSeatNo;\r\n    }\r\n\r\n    function getTicketState(\r\n        uint256 ticketId\r\n    ) public view validTicketId(ticketId) returns (TicketState) {\r\n        return tickets[ticketId].ticketState;\r\n    }\r\n\r\n    function getOwner(\r\n        uint256 ticketId\r\n    ) public view validTicketId(ticketId) returns (address) {\r\n        return tickets[ticketId].owner;\r\n    }\r\n\r\n    function getPrevOwner(\r\n        uint256 ticketId\r\n    ) public view validTicketId(ticketId) returns (address) {\r\n        return tickets[ticketId].prevOwner;\r\n    }\r\n\r\n    function getPrice(\r\n        uint256 ticketId\r\n    ) public view validTicketId(ticketId) returns (uint256) {\r\n        return tickets[ticketId].price;\r\n    }\r\n}\r\n",
  "sourcePath": "C:\\Users\\tngjo\\OneDrive\\Desktop\\GitHub\\IS4302-Decentralized-Event-Ticketing-System\\contracts\\Ticket.sol",
  "compiler": {
    "name": "solc",
    "version": "0.8.0+commit.c7dfd78e.Emscripten.clang"
  },
  "schemaVersion": "3.4.16",
  "updatedAt": "2024-04-04T07:03:38.404Z",
  "devdoc": {
    "kind": "dev",
    "methods": {},
    "version": 1
  },
  "userdoc": {
    "kind": "user",
    "methods": {},
    "version": 1
  }
}