{
  "contractName": "Ticket",
  "abi": [
    {
      "inputs": [
        {
          "internalType": "address",
          "name": "_detToken",
          "type": "address"
        }
      ],
      "stateMutability": "nonpayable",
      "type": "constructor"
    },
    {
      "anonymous": false,
      "inputs": [
        {
          "indexed": true,
          "internalType": "uint256",
          "name": "ticketId",
          "type": "uint256"
        },
        {
          "indexed": true,
          "internalType": "address",
          "name": "buyer",
          "type": "address"
        },
        {
          "indexed": false,
          "internalType": "uint256",
          "name": "price",
          "type": "uint256"
        }
      ],
      "name": "TicketBought",
      "type": "event"
    },
    {
      "anonymous": false,
      "inputs": [
        {
          "indexed": true,
          "internalType": "uint256",
          "name": "ticketId",
          "type": "uint256"
        },
        {
          "indexed": false,
          "internalType": "uint256",
          "name": "price",
          "type": "uint256"
        }
      ],
      "name": "TicketListedForSale",
      "type": "event"
    },
    {
      "anonymous": false,
      "inputs": [
        {
          "indexed": true,
          "internalType": "address",
          "name": "buyer",
          "type": "address"
        },
        {
          "indexed": true,
          "internalType": "uint256",
          "name": "ticketId",
          "type": "uint256"
        },
        {
          "indexed": false,
          "internalType": "uint256",
          "name": "price",
          "type": "uint256"
        }
      ],
      "name": "TicketPurchased",
      "type": "event"
    },
    {
      "anonymous": false,
      "inputs": [
        {
          "indexed": true,
          "internalType": "uint256",
          "name": "ticketId",
          "type": "uint256"
        },
        {
          "indexed": true,
          "internalType": "address",
          "name": "redeemer",
          "type": "address"
        }
      ],
      "name": "TicketRedeemed",
      "type": "event"
    },
    {
      "inputs": [],
      "name": "detToken",
      "outputs": [
        {
          "internalType": "contract ERC20",
          "name": "",
          "type": "address"
        }
      ],
      "stateMutability": "view",
      "type": "function"
    },
    {
      "inputs": [],
      "name": "organizer",
      "outputs": [
        {
          "internalType": "address",
          "name": "",
          "type": "address"
        }
      ],
      "stateMutability": "view",
      "type": "function"
    },
    {
      "inputs": [
        {
          "internalType": "address",
          "name": "",
          "type": "address"
        },
        {
          "internalType": "uint256",
          "name": "",
          "type": "uint256"
        }
      ],
      "name": "ownedTickets",
      "outputs": [
        {
          "internalType": "bool",
          "name": "",
          "type": "bool"
        }
      ],
      "stateMutability": "view",
      "type": "function"
    },
    {
      "inputs": [],
      "name": "ticketCounter",
      "outputs": [
        {
          "internalType": "uint256",
          "name": "",
          "type": "uint256"
        }
      ],
      "stateMutability": "view",
      "type": "function"
    },
    {
      "inputs": [],
      "name": "ticketState",
      "outputs": [
        {
          "internalType": "enum Ticket.TicketState",
          "name": "",
          "type": "uint8"
        }
      ],
      "stateMutability": "view",
      "type": "function"
    },
    {
      "inputs": [
        {
          "internalType": "uint256",
          "name": "",
          "type": "uint256"
        }
      ],
      "name": "tickets",
      "outputs": [
        {
          "internalType": "uint256",
          "name": "ticketId",
          "type": "uint256"
        },
        {
          "internalType": "uint256",
          "name": "concertId",
          "type": "uint256"
        },
        {
          "internalType": "string",
          "name": "concertName",
          "type": "string"
        },
        {
          "internalType": "string",
          "name": "concertVenue",
          "type": "string"
        },
        {
          "internalType": "uint256",
          "name": "concertDate",
          "type": "uint256"
        },
        {
          "internalType": "string",
          "name": "ticketCategory",
          "type": "string"
        },
        {
          "internalType": "uint256",
          "name": "ticketSectionNo",
          "type": "uint256"
        },
        {
          "internalType": "uint256",
          "name": "ticketSeatNo",
          "type": "uint256"
        },
        {
          "internalType": "enum Ticket.TicketState",
          "name": "ticketState",
          "type": "uint8"
        },
        {
          "internalType": "address",
          "name": "owner",
          "type": "address"
        },
        {
          "internalType": "address",
          "name": "prevOwner",
          "type": "address"
        },
        {
          "internalType": "uint256",
          "name": "price",
          "type": "uint256"
        }
      ],
      "stateMutability": "view",
      "type": "function"
    },
    {
      "inputs": [
        {
          "internalType": "uint256",
          "name": "_concertId",
          "type": "uint256"
        },
        {
          "internalType": "string",
          "name": "_concertName",
          "type": "string"
        },
        {
          "internalType": "string",
          "name": "_concertVenue",
          "type": "string"
        },
        {
          "internalType": "uint256",
          "name": "_concertDate",
          "type": "uint256"
        },
        {
          "internalType": "string",
          "name": "_ticketCategory",
          "type": "string"
        },
        {
          "internalType": "uint256",
          "name": "_ticketSectionNo",
          "type": "uint256"
        },
        {
          "internalType": "uint256",
          "name": "_ticketSeatNo",
          "type": "uint256"
        },
        {
          "internalType": "uint256",
          "name": "_price",
          "type": "uint256"
        }
      ],
      "name": "purchaseTicket",
      "outputs": [],
      "stateMutability": "nonpayable",
      "type": "function"
    },
    {
      "inputs": [
        {
          "internalType": "uint256",
          "name": "_ticketId",
          "type": "uint256"
        },
        {
          "internalType": "uint256",
          "name": "_price",
          "type": "uint256"
        }
      ],
      "name": "listTicketForSale",
      "outputs": [],
      "stateMutability": "nonpayable",
      "type": "function"
    },
    {
      "inputs": [
        {
          "internalType": "uint256",
          "name": "_ticketId",
          "type": "uint256"
        }
      ],
      "name": "buyTicket",
      "outputs": [],
      "stateMutability": "payable",
      "type": "function"
    },
    {
      "inputs": [
        {
          "internalType": "uint256",
          "name": "_ticketId",
          "type": "uint256"
        }
      ],
      "name": "redeemTicket",
      "outputs": [],
      "stateMutability": "nonpayable",
      "type": "function"
    },
    {
      "inputs": [
        {
          "internalType": "uint256",
          "name": "ticketId",
          "type": "uint256"
        }
      ],
      "name": "getTicketId",
      "outputs": [
        {
          "internalType": "uint256",
          "name": "",
          "type": "uint256"
        }
      ],
      "stateMutability": "view",
      "type": "function"
    },
    {
      "inputs": [
        {
          "internalType": "uint256",
          "name": "ticketId",
          "type": "uint256"
        }
      ],
      "name": "getConcertId",
      "outputs": [
        {
          "internalType": "uint256",
          "name": "",
          "type": "uint256"
        }
      ],
      "stateMutability": "view",
      "type": "function"
    },
    {
      "inputs": [
        {
          "internalType": "uint256",
          "name": "ticketId",
          "type": "uint256"
        }
      ],
      "name": "getConcertName",
      "outputs": [
        {
          "internalType": "string",
          "name": "",
          "type": "string"
        }
      ],
      "stateMutability": "view",
      "type": "function"
    },
    {
      "inputs": [
        {
          "internalType": "uint256",
          "name": "ticketId",
          "type": "uint256"
        }
      ],
      "name": "getConcertVenue",
      "outputs": [
        {
          "internalType": "string",
          "name": "",
          "type": "string"
        }
      ],
      "stateMutability": "view",
      "type": "function"
    },
    {
      "inputs": [
        {
          "internalType": "uint256",
          "name": "ticketId",
          "type": "uint256"
        }
      ],
      "name": "getConcertDate",
      "outputs": [
        {
          "internalType": "uint256",
          "name": "",
          "type": "uint256"
        }
      ],
      "stateMutability": "view",
      "type": "function"
    },
    {
      "inputs": [
        {
          "internalType": "uint256",
          "name": "ticketId",
          "type": "uint256"
        }
      ],
      "name": "getTicketCategory",
      "outputs": [
        {
          "internalType": "string",
          "name": "",
          "type": "string"
        }
      ],
      "stateMutability": "view",
      "type": "function"
    },
    {
      "inputs": [
        {
          "internalType": "uint256",
          "name": "ticketId",
          "type": "uint256"
        }
      ],
      "name": "getTicketSectionNo",
      "outputs": [
        {
          "internalType": "uint256",
          "name": "",
          "type": "uint256"
        }
      ],
      "stateMutability": "view",
      "type": "function"
    },
    {
      "inputs": [
        {
          "internalType": "uint256",
          "name": "ticketId",
          "type": "uint256"
        }
      ],
      "name": "getTicketSeatNo",
      "outputs": [
        {
          "internalType": "uint256",
          "name": "",
          "type": "uint256"
        }
      ],
      "stateMutability": "view",
      "type": "function"
    },
    {
      "inputs": [
        {
          "internalType": "uint256",
          "name": "ticketId",
          "type": "uint256"
        }
      ],
      "name": "getTicketState",
      "outputs": [
        {
          "internalType": "enum Ticket.TicketState",
          "name": "",
          "type": "uint8"
        }
      ],
      "stateMutability": "view",
      "type": "function"
    },
    {
      "inputs": [
        {
          "internalType": "uint256",
          "name": "ticketId",
          "type": "uint256"
        }
      ],
      "name": "getOwner",
      "outputs": [
        {
          "internalType": "address",
          "name": "",
          "type": "address"
        }
      ],
      "stateMutability": "view",
      "type": "function"
    },
    {
      "inputs": [
        {
          "internalType": "uint256",
          "name": "ticketId",
          "type": "uint256"
        }
      ],
      "name": "getPrevOwner",
      "outputs": [
        {
          "internalType": "address",
          "name": "",
          "type": "address"
        }
      ],
      "stateMutability": "view",
      "type": "function"
    },
    {
      "inputs": [
        {
          "internalType": "uint256",
          "name": "ticketId",
          "type": "uint256"
        }
      ],
      "name": "getPrice",
      "outputs": [
        {
          "internalType": "uint256",
          "name": "",
          "type": "uint256"
        }
      ],
      "stateMutability": "view",
      "type": "function"
    },
    {
      "inputs": [
        {
          "internalType": "uint256",
          "name": "ticketId",
          "type": "uint256"
        },
        {
          "internalType": "address",
          "name": "newOwner",
          "type": "address"
        },
        {
          "internalType": "uint256",
          "name": "price",
          "type": "uint256"
        }
      ],
      "name": "transfer",
      "outputs": [],
      "stateMutability": "payable",
      "type": "function"
    }
  ],
  "bytecode": "0x608060405260006003553480156200001657600080fd5b50604051620027bc380380620027bc83398181016040528101906200003c9190620000dc565b33600460006101000a81548173ffffffffffffffffffffffffffffffffffffffff021916908373ffffffffffffffffffffffffffffffffffffffff16021790555080600560006101000a81548173ffffffffffffffffffffffffffffffffffffffff021916908373ffffffffffffffffffffffffffffffffffffffff1602179055505062000156565b600081519050620000d6816200013c565b92915050565b600060208284031215620000ef57600080fd5b6000620000ff84828501620000c5565b91505092915050565b600062000115826200011c565b9050919050565b600073ffffffffffffffffffffffffffffffffffffffff82169050919050565b620001478162000108565b81146200015357600080fd5b50565b61265680620001666000396000f3fe6080604052600436106101405760003560e01c806386db5b23116100b6578063c41a360a1161006f578063c41a360a146104cc578063d524d32d14610509578063dba4a8df14610532578063e75722301461056f578063f2d03fcf146105ac578063f8548e36146105e957610140565b806386db5b23146103845780638c4d59d0146103c157806399eb3759146103ec578063a0426f7c14610429578063a8d0052b14610466578063bcc798221461048f57610140565b806350b447121161010857806350b447121461023e57806361203265146102865780636482db3f146102b157806367dd74ca146102ee5780636c5c74b81461030a57806371d69ef01461034757610140565b8063020b29d714610145578063140a58aa1461017057806315f59d7f1461019b57806316c15c0c146101c45780634f44d7b614610201575b600080fd5b34801561015157600080fd5b5061015a610605565b6040516101679190612148565b60405180910390f35b34801561017c57600080fd5b50610185610618565b604051610192919061212d565b60405180910390f35b3480156101a757600080fd5b506101c260048036038101906101bd9190611caa565b61063e565b005b3480156101d057600080fd5b506101eb60048036038101906101e69190611caa565b610994565b6040516101f89190612245565b60405180910390f35b34801561020d57600080fd5b5061022860048036038101906102239190611caa565b6109c3565b6040516102359190612163565b60405180910390f35b34801561024a57600080fd5b5061026560048036038101906102609190611caa565b610a7a565b60405161027d9c9b9a99989796959493929190612260565b60405180910390f35b34801561029257600080fd5b5061029b610cbf565b6040516102a891906120ce565b60405180910390f35b3480156102bd57600080fd5b506102d860048036038101906102d39190611caa565b610ce5565b6040516102e59190612148565b60405180910390f35b61030860048036038101906103039190611caa565b610d21565b005b34801561031657600080fd5b50610331600480360381019061032c9190611caa565b61115d565b60405161033e9190612245565b60405180910390f35b34801561035357600080fd5b5061036e60048036038101906103699190611caa565b61118c565b60405161037b9190612245565b60405180910390f35b34801561039057600080fd5b506103ab60048036038101906103a69190611caa565b6111bb565b6040516103b89190612245565b60405180910390f35b3480156103cd57600080fd5b506103d66111ea565b6040516103e39190612245565b60405180910390f35b3480156103f857600080fd5b50610413600480360381019061040e9190611c45565b6111f0565b6040516104209190612112565b60405180910390f35b34801561043557600080fd5b50610450600480360381019061044b9190611caa565b61121f565b60405161045d9190612163565b60405180910390f35b34801561047257600080fd5b5061048d60048036038101906104889190611d22565b6112d6565b005b34801561049b57600080fd5b506104b660048036038101906104b19190611caa565b6115fe565b6040516104c39190612163565b60405180910390f35b3480156104d857600080fd5b506104f360048036038101906104ee9190611caa565b6116b5565b60405161050091906120ce565b60405180910390f35b34801561051557600080fd5b50610530600480360381019061052b9190611e1c565b611704565b005b34801561053e57600080fd5b5061055960048036038101906105549190611caa565b611990565b6040516105669190612245565b60405180910390f35b34801561057b57600080fd5b5061059660048036038101906105919190611caa565b6119bf565b6040516105a39190612245565b60405180910390f35b3480156105b857600080fd5b506105d360048036038101906105ce9190611caa565b6119ee565b6040516105e091906120ce565b60405180910390f35b61060360048036038101906105fe9190611cd3565b611a3d565b005b600260009054906101000a900460ff1681565b600560009054906101000a900473ffffffffffffffffffffffffffffffffffffffff1681565b6000806002811115610679577f4e487b7100000000000000000000000000000000000000000000000000000000600052602160045260246000fd5b600260009054906101000a900460ff1660028111156106c1577f4e487b7100000000000000000000000000000000000000000000000000000000600052602160045260246000fd5b14610701576040517f08c379a00000000000000000000000000000000000000000000000000000000081526004016106f8906121e5565b60405180910390fd5b600160003373ffffffffffffffffffffffffffffffffffffffff1673ffffffffffffffffffffffffffffffffffffffff168152602001908152602001600020600083815260200190815260200160002060009054906101000a900460ff1661079e576040517f08c379a0000000000000000000000000000000000000000000000000000000008152600401610795906121a5565b60405180910390fd5b6000806000848152602001908152602001600020905060018160080160006101000a81548160ff02191690836002811115610802577f4e487b7100000000000000000000000000000000000000000000000000000000600052602160045260246000fd5b0217905550600560009054906101000a900473ffffffffffffffffffffffffffffffffffffffff1673ffffffffffffffffffffffffffffffffffffffff1663a9059cbb336108db8460050180546108589061247f565b80601f01602080910402602001604051908101604052809291908181526020018280546108849061247f565b80156108d15780601f106108a6576101008083540402835291602001916108d1565b820191906000526020600020905b8154815290600101906020018083116108b457829003601f168201915b5050505050611aeb565b6040518363ffffffff1660e01b81526004016108f89291906120e9565b602060405180830381600087803b15801561091257600080fd5b505af1158015610926573d6000803e3d6000fd5b505050506040513d601f19601f8201168201806040525081019061094a9190611c81565b503373ffffffffffffffffffffffffffffffffffffffff16837f716bb19bdc2c35c51f08204334d6e0362bbe5428bbda94d186a1f2c8fa87b10c60405160405180910390a3505050565b60008160035481106109a557600080fd5b60008084815260200190815260200160002060040154915050919050565b60608160035481106109d457600080fd5b60008084815260200190815260200160002060020180546109f49061247f565b80601f0160208091040260200160405190810160405280929190818152602001828054610a209061247f565b8015610a6d5780601f10610a4257610100808354040283529160200191610a6d565b820191906000526020600020905b815481529060010190602001808311610a5057829003601f168201915b5050505050915050919050565b6000602052806000526040600020600091509050806000015490806001015490806002018054610aa99061247f565b80601f0160208091040260200160405190810160405280929190818152602001828054610ad59061247f565b8015610b225780601f10610af757610100808354040283529160200191610b22565b820191906000526020600020905b815481529060010190602001808311610b0557829003601f168201915b505050505090806003018054610b379061247f565b80601f0160208091040260200160405190810160405280929190818152602001828054610b639061247f565b8015610bb05780601f10610b8557610100808354040283529160200191610bb0565b820191906000526020600020905b815481529060010190602001808311610b9357829003601f168201915b505050505090806004015490806005018054610bcb9061247f565b80601f0160208091040260200160405190810160405280929190818152602001828054610bf79061247f565b8015610c445780601f10610c1957610100808354040283529160200191610c44565b820191906000526020600020905b815481529060010190602001808311610c2757829003601f168201915b5050505050908060060154908060070154908060080160009054906101000a900460ff16908060080160019054906101000a900473ffffffffffffffffffffffffffffffffffffffff16908060090160009054906101000a900473ffffffffffffffffffffffffffffffffffffffff169080600a015490508c565b600460009054906101000a900473ffffffffffffffffffffffffffffffffffffffff1681565b6000816003548110610cf657600080fd5b60008084815260200190815260200160002060080160009054906101000a900460ff16915050919050565b6000806002811115610d5c577f4e487b7100000000000000000000000000000000000000000000000000000000600052602160045260246000fd5b600260009054906101000a900460ff166002811115610da4577f4e487b7100000000000000000000000000000000000000000000000000000000600052602160045260246000fd5b14610de4576040517f08c379a0000000000000000000000000000000000000000000000000000000008152600401610ddb906121e5565b60405180910390fd5b6000806000848152602001908152602001600020905060006002811115610e34577f4e487b7100000000000000000000000000000000000000000000000000000000600052602160045260246000fd5b8160080160009054906101000a900460ff166002811115610e7e577f4e487b7100000000000000000000000000000000000000000000000000000000600052602160045260246000fd5b14610ebe576040517f08c379a0000000000000000000000000000000000000000000000000000000008152600401610eb590612225565b60405180910390fd5b80600a0154341015610f05576040517f08c379a0000000000000000000000000000000000000000000000000000000008152600401610efc906121c5565b60405180910390fd5b3373ffffffffffffffffffffffffffffffffffffffff168160080160019054906101000a900473ffffffffffffffffffffffffffffffffffffffff1673ffffffffffffffffffffffffffffffffffffffff161415610f98576040517f08c379a0000000000000000000000000000000000000000000000000000000008152600401610f8f90612185565b60405180910390fd5b8060080160019054906101000a900473ffffffffffffffffffffffffffffffffffffffff1673ffffffffffffffffffffffffffffffffffffffff166108fc82600a01549081150290604051600060405180830381858888f19350505050158015611006573d6000803e3d6000fd5b50338160080160016101000a81548173ffffffffffffffffffffffffffffffffffffffff021916908373ffffffffffffffffffffffffffffffffffffffff16021790555060018160080160006101000a81548160ff02191690836002811115611098577f4e487b7100000000000000000000000000000000000000000000000000000000600052602160045260246000fd5b021790555060018060003373ffffffffffffffffffffffffffffffffffffffff1673ffffffffffffffffffffffffffffffffffffffff168152602001908152602001600020600085815260200190815260200160002060006101000a81548160ff0219169083151502179055503373ffffffffffffffffffffffffffffffffffffffff16837f913d09b391f64143215d9312fd7e8ecaa06001c646789c9d2109dc515bc34fad83600a01546040516111509190612245565b60405180910390a3505050565b600081600354811061116e57600080fd5b60008084815260200190815260200160002060060154915050919050565b600081600354811061119d57600080fd5b60008084815260200190815260200160002060070154915050919050565b60008160035481106111cc57600080fd5b60008084815260200190815260200160002060010154915050919050565b60035481565b60016020528160005260406000206020528060005260406000206000915091509054906101000a900460ff1681565b606081600354811061123057600080fd5b60008084815260200190815260200160002060050180546112509061247f565b80601f016020809104026020016040519081016040528092919081815260200182805461127c9061247f565b80156112c95780601f1061129e576101008083540402835291602001916112c9565b820191906000526020600020905b8154815290600101906020018083116112ac57829003601f168201915b5050505050915050919050565b600360008154809291906112e9906124b1565b9190505550604051806101800160405280600354815260200189815260200188815260200187815260200186815260200185815260200184815260200183815260200160006002811115611366577f4e487b7100000000000000000000000000000000000000000000000000000000600052602160045260246000fd5b81526020013373ffffffffffffffffffffffffffffffffffffffff1681526020013373ffffffffffffffffffffffffffffffffffffffff168152602001828152506000806003548152602001908152602001600020600082015181600001556020820151816001015560408201518160020190805190602001906113eb929190611afb565b506060820151816003019080519060200190611408929190611afb565b506080820151816004015560a082015181600501908051906020019061142f929190611afb565b5060c0820151816006015560e082015181600701556101008201518160080160006101000a81548160ff02191690836002811115611496577f4e487b7100000000000000000000000000000000000000000000000000000000600052602160045260246000fd5b02179055506101208201518160080160016101000a81548173ffffffffffffffffffffffffffffffffffffffff021916908373ffffffffffffffffffffffffffffffffffffffff1602179055506101408201518160090160006101000a81548173ffffffffffffffffffffffffffffffffffffffff021916908373ffffffffffffffffffffffffffffffffffffffff16021790555061016082015181600a015590505060018060003373ffffffffffffffffffffffffffffffffffffffff1673ffffffffffffffffffffffffffffffffffffffff1681526020019081526020016000206000600354815260200190815260200160002060006101000a81548160ff0219169083151502179055506003543373ffffffffffffffffffffffffffffffffffffffff167f2a91574e12ad96234e84923e146b0946ecfb871cd8d5534dc1fdcbe87a7c01b3836040516115ec9190612245565b60405180910390a35050505050505050565b606081600354811061160f57600080fd5b600080848152602001908152602001600020600301805461162f9061247f565b80601f016020809104026020016040519081016040528092919081815260200182805461165b9061247f565b80156116a85780601f1061167d576101008083540402835291602001916116a8565b820191906000526020600020905b81548152906001019060200180831161168b57829003601f168201915b5050505050915050919050565b60008160035481106116c657600080fd5b60008084815260200190815260200160002060080160019054906101000a900473ffffffffffffffffffffffffffffffffffffffff16915050919050565b600080600281111561173f577f4e487b7100000000000000000000000000000000000000000000000000000000600052602160045260246000fd5b600260009054906101000a900460ff166002811115611787577f4e487b7100000000000000000000000000000000000000000000000000000000600052602160045260246000fd5b146117c7576040517f08c379a00000000000000000000000000000000000000000000000000000000081526004016117be906121e5565b60405180910390fd5b600160003373ffffffffffffffffffffffffffffffffffffffff1673ffffffffffffffffffffffffffffffffffffffff168152602001908152602001600020600084815260200190815260200160002060009054906101000a900460ff16611864576040517f08c379a000000000000000000000000000000000000000000000000000000000815260040161185b906121a5565b60405180910390fd5b6000600281111561189e577f4e487b7100000000000000000000000000000000000000000000000000000000600052602160045260246000fd5b60008085815260200190815260200160002060080160009054906101000a900460ff1660028111156118f9577f4e487b7100000000000000000000000000000000000000000000000000000000600052602160045260246000fd5b14611939576040517f08c379a000000000000000000000000000000000000000000000000000000000815260040161193090612205565b60405180910390fd5b81600080858152602001908152602001600020600a0181905550827fb8b45d9675f62a0686f7f8125bcd3b3392cbbe36ef7e5300d009abcc382e910e836040516119839190612245565b60405180910390a2505050565b60008160035481106119a157600080fd5b60008084815260200190815260200160002060000154915050919050565b60008160035481106119d057600080fd5b600080848152602001908152602001600020600a0154915050919050565b60008160035481106119ff57600080fd5b60008084815260200190815260200160002060090160009054906101000a900473ffffffffffffffffffffffffffffffffffffffff16915050919050565b60008060008581526020019081526020016000209050828160080160016101000a81548173ffffffffffffffffffffffffffffffffffffffff021916908373ffffffffffffffffffffffffffffffffffffffff1602179055508273ffffffffffffffffffffffffffffffffffffffff16847f913d09b391f64143215d9312fd7e8ecaa06001c646789c9d2109dc515bc34fad84604051611add9190612245565b60405180910390a350505050565b6000806064905080915050919050565b828054611b079061247f565b90600052602060002090601f016020900481019282611b295760008555611b70565b82601f10611b4257805160ff1916838001178555611b70565b82800160010185558215611b70579182015b82811115611b6f578251825591602001919060010190611b54565b5b509050611b7d9190611b81565b5090565b5b80821115611b9a576000816000905550600101611b82565b5090565b6000611bb1611bac84612360565b61232f565b905082815260208101848484011115611bc957600080fd5b611bd484828561243d565b509392505050565b600081359050611beb816125db565b92915050565b600081519050611c00816125f2565b92915050565b600082601f830112611c1757600080fd5b8135611c27848260208601611b9e565b91505092915050565b600081359050611c3f81612609565b92915050565b60008060408385031215611c5857600080fd5b6000611c6685828601611bdc565b9250506020611c7785828601611c30565b9150509250929050565b600060208284031215611c9357600080fd5b6000611ca184828501611bf1565b91505092915050565b600060208284031215611cbc57600080fd5b6000611cca84828501611c30565b91505092915050565b600080600060608486031215611ce857600080fd5b6000611cf686828701611c30565b9350506020611d0786828701611bdc565b9250506040611d1886828701611c30565b9150509250925092565b600080600080600080600080610100898b031215611d3f57600080fd5b6000611d4d8b828c01611c30565b985050602089013567ffffffffffffffff811115611d6a57600080fd5b611d768b828c01611c06565b975050604089013567ffffffffffffffff811115611d9357600080fd5b611d9f8b828c01611c06565b9650506060611db08b828c01611c30565b955050608089013567ffffffffffffffff811115611dcd57600080fd5b611dd98b828c01611c06565b94505060a0611dea8b828c01611c30565b93505060c0611dfb8b828c01611c30565b92505060e0611e0c8b828c01611c30565b9150509295985092959890939650565b60008060408385031215611e2f57600080fd5b6000611e3d85828601611c30565b9250506020611e4e85828601611c30565b9150509250929050565b611e61816123ac565b82525050565b611e70816123be565b82525050565b611e7f81612407565b82525050565b611e8e8161242b565b82525050565b6000611e9f82612390565b611ea9818561239b565b9350611eb981856020860161244c565b611ec2816125b6565b840191505092915050565b6000611eda601b8361239b565b91507f596f7520616c7265616479206f776e2074686973207469636b657400000000006000830152602082019050919050565b6000611f1a60198361239b565b91507f596f7520646f6e2774206f776e2074686973207469636b6574000000000000006000830152602082019050919050565b6000611f5a60128361239b565b91507f496e73756666696369656e742066756e647300000000000000000000000000006000830152602082019050919050565b6000611f9a602b8361239b565b91507f5469636b65742061742077726f6e672073746174652c20616374696f6e206e6f60008301527f7420706572666f726d65640000000000000000000000000000000000000000006020830152604082019050919050565b600061200060218361239b565b91507f5469636b6574206973206e6f7420656c696769626c6520666f7220726573616c60008301527f65000000000000000000000000000000000000000000000000000000000000006020830152604082019050919050565b600061206660248361239b565b91507f5469636b6574206973206e6f7420617661696c61626c6520666f72207075726360008301527f68617365000000000000000000000000000000000000000000000000000000006020830152604082019050919050565b6120c8816123fd565b82525050565b60006020820190506120e36000830184611e58565b92915050565b60006040820190506120fe6000830185611e58565b61210b60208301846120bf565b9392505050565b60006020820190506121276000830184611e67565b92915050565b60006020820190506121426000830184611e76565b92915050565b600060208201905061215d6000830184611e85565b92915050565b6000602082019050818103600083015261217d8184611e94565b905092915050565b6000602082019050818103600083015261219e81611ecd565b9050919050565b600060208201905081810360008301526121be81611f0d565b9050919050565b600060208201905081810360008301526121de81611f4d565b9050919050565b600060208201905081810360008301526121fe81611f8d565b9050919050565b6000602082019050818103600083015261221e81611ff3565b9050919050565b6000602082019050818103600083015261223e81612059565b9050919050565b600060208201905061225a60008301846120bf565b92915050565b600061018082019050612276600083018f6120bf565b612283602083018e6120bf565b8181036040830152612295818d611e94565b905081810360608301526122a9818c611e94565b90506122b8608083018b6120bf565b81810360a08301526122ca818a611e94565b90506122d960c08301896120bf565b6122e660e08301886120bf565b6122f4610100830187611e85565b612302610120830186611e58565b612310610140830185611e58565b61231e6101608301846120bf565b9d9c50505050505050505050505050565b6000604051905081810181811067ffffffffffffffff8211171561235657612355612587565b5b8060405250919050565b600067ffffffffffffffff82111561237b5761237a612587565b5b601f19601f8301169050602081019050919050565b600081519050919050565b600082825260208201905092915050565b60006123b7826123dd565b9050919050565b60008115159050919050565b60008190506123d8826125c7565b919050565b600073ffffffffffffffffffffffffffffffffffffffff82169050919050565b6000819050919050565b600061241282612419565b9050919050565b6000612424826123dd565b9050919050565b6000612436826123ca565b9050919050565b82818337600083830152505050565b60005b8381101561246a57808201518184015260208101905061244f565b83811115612479576000848401525b50505050565b6000600282049050600182168061249757607f821691505b602082108114156124ab576124aa612558565b5b50919050565b60006124bc826123fd565b91507fffffffffffffffffffffffffffffffffffffffffffffffffffffffffffffffff8214156124ef576124ee6124fa565b5b600182019050919050565b7f4e487b7100000000000000000000000000000000000000000000000000000000600052601160045260246000fd5b7f4e487b7100000000000000000000000000000000000000000000000000000000600052602160045260246000fd5b7f4e487b7100000000000000000000000000000000000000000000000000000000600052602260045260246000fd5b7f4e487b7100000000000000000000000000000000000000000000000000000000600052604160045260246000fd5b6000601f19601f8301169050919050565b600381106125d8576125d7612529565b5b50565b6125e4816123ac565b81146125ef57600080fd5b50565b6125fb816123be565b811461260657600080fd5b50565b612612816123fd565b811461261d57600080fd5b5056fea2646970667358221220ed0b743acf7a1f77aad9bf3c003bbcc983a8e2cfb88f2ddb7e8ec5f1d1b0da7064736f6c63430008000033",
  "immutableReferences": {},
  "source": "// SPDX-License-Identifier: MIT \r\npragma solidity ^0.8.0;\r\n\r\nimport \"./ERC20.sol\";\r\n\r\ncontract Ticket {\r\n\r\n    // Different states of the ticket\r\n    enum TicketState {\r\n        Active,            // Active = the ticket still not used, can be resold\r\n        Redeemed,          // Redeemed = the ticket is redeemed, cannot be resold\r\n        Frozen             // Frozen = the concert has ended, ticket is frozen, cannot be resold\r\n    }\r\n\r\n    struct ticket {\r\n        uint256 ticketId;\r\n        uint256 concertId;\r\n        string concertName;\r\n        string concertVenue;\r\n        uint256 concertDate;\r\n        string ticketCategory;\r\n        uint256 ticketSectionNo;\r\n        uint256 ticketSeatNo;\r\n        TicketState ticketState;\r\n        address owner;\r\n        address prevOwner;\r\n        uint256 price; // New field to store ticket price\r\n    }\r\n\r\n    mapping(uint256 => ticket) public tickets;\r\n    mapping(address => mapping(uint256 => bool)) public ownedTickets;\r\n\r\n    TicketState public ticketState;\r\n    uint256 public ticketCounter = 0;\r\n    address public organizer;\r\n    ERC20 public detToken;\r\n\r\n    event TicketPurchased(address indexed buyer, uint256 indexed ticketId, uint256 price);\r\n    event TicketListedForSale(uint256 indexed ticketId, uint256 price);\r\n    event TicketBought(uint256 indexed ticketId, address indexed buyer, uint256 price);\r\n    event TicketRedeemed(uint256 indexed ticketId, address indexed redeemer);\r\n\r\n    constructor(address _detToken) {\r\n        organizer = msg.sender;\r\n        detToken = ERC20(_detToken);\r\n    }\r\n\r\n    function purchaseTicket(\r\n        uint256 _concertId,\r\n        string memory _concertName,\r\n        string memory _concertVenue,\r\n        uint256 _concertDate,\r\n        string memory _ticketCategory,\r\n        uint256 _ticketSectionNo,\r\n        uint256 _ticketSeatNo,\r\n        uint256 _price\r\n    ) external {\r\n        ticketCounter++;\r\n        tickets[ticketCounter] = ticket({\r\n            ticketId: ticketCounter,\r\n            concertId: _concertId,\r\n            concertName: _concertName,\r\n            concertVenue: _concertVenue,\r\n            concertDate: _concertDate,\r\n            ticketCategory: _ticketCategory,\r\n            ticketSectionNo: _ticketSectionNo,\r\n            ticketSeatNo: _ticketSeatNo,\r\n            ticketState: TicketState.Active,\r\n            owner: msg.sender,\r\n            prevOwner: msg.sender,\r\n            price: _price\r\n        });\r\n        ownedTickets[msg.sender][ticketCounter] = true;\r\n        emit TicketPurchased(msg.sender, ticketCounter, _price);\r\n    }\r\n\r\n    // Function Modifiers\r\n\r\n    modifier onlyOrganizer() {\r\n        require( msg.sender == organizer, \"Only the concert organizer can call this function\");\r\n        _;\r\n    }\r\n\r\n    // Modifier to ensure and check the ticketState\r\n    modifier atState(TicketState _state) {\r\n        require(ticketState == _state, \"Ticket at wrong state, action not performed\");\r\n        _;\r\n    }\r\n\r\n    // Modifier to ensure that the ticketId is valid doesn't exceed count of total tickets (ticketCounter) \r\n    modifier validTicketId(uint256 ticketId) {\r\n        require(ticketId < ticketCounter);\r\n        _;\r\n    }\r\n\r\n    function listTicketForSale(uint256 _ticketId, uint256 _price) atState(TicketState.Active) external {\r\n        require(ownedTickets[msg.sender][_ticketId], \"You don't own this ticket\");\r\n        require(tickets[_ticketId].ticketState == TicketState.Active, \"Ticket is not eligible for resale\");\r\n        tickets[_ticketId].price = _price;\r\n        emit TicketListedForSale(_ticketId, _price);\r\n    }\r\n\r\n    function buyTicket(uint256 _ticketId) atState(TicketState.Active) external payable {\r\n        ticket storage ticketBuy = tickets[_ticketId]; // Correct variable declaration\r\n\r\n        require(ticketBuy.ticketState == TicketState.Active, \"Ticket is not available for purchase\");\r\n        require(msg.value >= ticketBuy.price, \"Insufficient funds\");\r\n        require(ticketBuy.owner != msg.sender, \"You already own this ticket\");\r\n        payable(ticketBuy.owner).transfer(ticketBuy.price); // Transfer funds to seller using payable address\r\n        ticketBuy.owner = msg.sender;\r\n        ticketBuy.ticketState = TicketState.Redeemed;\r\n        ownedTickets[msg.sender][_ticketId] = true;\r\n        emit TicketBought(_ticketId, msg.sender, ticketBuy.price);\r\n    }\r\n\r\n    function redeemTicket(uint256 _ticketId) atState(TicketState.Active) external {\r\n        require(ownedTickets[msg.sender][_ticketId], \"You don't own this ticket\");\r\n        ticket storage ticketRedeem = tickets[_ticketId]; // Correct variable declaration\r\n\r\n        // Once the ticket is redeemed, the ticketState is then set to \"Redeemed\"\r\n        ticketRedeem.ticketState = TicketState.Redeemed;\r\n        detToken.transfer(msg.sender, calculateDETSReward(ticketRedeem.ticketCategory)); // Transfer tokens using ERC20 contract instance\r\n        emit TicketRedeemed(_ticketId, msg.sender);\r\n    }\r\n\r\n    function calculateDETSReward(\r\n        string memory _ticketCategory\r\n    ) internal view returns (uint256) {\r\n        // You can implement your logic for calculating DETS reward based on ticket category here\r\n        // For demonstration purposes, let's assume a fixed reward for simplicity\r\n        uint256 reward = 100; // Arbitrary value, you should adjust it according to your requirement\r\n        return reward;\r\n    }\r\n\r\n    // Getter Functions for Ticket attributes\r\n\r\n    function getTicketId(uint256 ticketId) public view validTicketId(ticketId) returns (uint256) {\r\n        return tickets[ticketId].ticketId;\r\n    }\r\n\r\n    function getConcertId(uint256 ticketId) public view validTicketId(ticketId) returns (uint256) {\r\n        return tickets[ticketId].concertId;\r\n    }\r\n\r\n    function getConcertName(uint256 ticketId) public view validTicketId(ticketId) returns (string memory) {\r\n        return tickets[ticketId].concertName;\r\n    }\r\n\r\n    function getConcertVenue(uint256 ticketId) public view validTicketId(ticketId) returns (string memory) {\r\n        return tickets[ticketId].concertVenue;\r\n    }\r\n\r\n    function getConcertDate(uint256 ticketId) public view validTicketId(ticketId) returns (uint256) {\r\n        return tickets[ticketId].concertDate;\r\n    }\r\n\r\n    function getTicketCategory(uint256 ticketId) public view validTicketId(ticketId) returns (string memory) {\r\n        return tickets[ticketId].ticketCategory;\r\n    }\r\n\r\n    function getTicketSectionNo(uint256 ticketId) public view validTicketId(ticketId) returns (uint256) {\r\n        return tickets[ticketId].ticketSectionNo;\r\n    }\r\n\r\n    function getTicketSeatNo(uint256 ticketId) public view validTicketId(ticketId) returns (uint256) {\r\n        return tickets[ticketId].ticketSeatNo;\r\n    }\r\n\r\n    function getTicketState(uint256 ticketId) public view validTicketId(ticketId) returns (TicketState) {\r\n        return tickets[ticketId].ticketState;\r\n    }\r\n\r\n    function getOwner(uint256 ticketId) public view validTicketId(ticketId) returns (address) {\r\n        return tickets[ticketId].owner;\r\n    }\r\n\r\n    function getPrevOwner(uint256 ticketId) public view validTicketId(ticketId) returns (address) {\r\n        return tickets[ticketId].prevOwner;\r\n    }\r\n\r\n    function getPrice(uint256 ticketId) public view validTicketId(ticketId) returns (uint256) {\r\n        return tickets[ticketId].price;\r\n    }\r\n\r\n    function transfer(uint256 ticketId, address newOwner, uint256 price) payable public {\r\n        ticket storage ticketTrans = tickets[ticketId];\r\n        ticketTrans.owner = newOwner;\r\n        emit TicketBought(ticketId, newOwner, price);\r\n    }\r\n}\r\n",
  "sourcePath": "C:\\Users\\tngjo\\OneDrive\\Documents\\GitHub\\IS4302-Decentralized-Event-Ticketing-System\\contracts\\Ticket.sol",
  "compiler": {
    "name": "solc",
    "version": "0.8.0+commit.c7dfd78e.Emscripten.clang"
  },
  "schemaVersion": "3.4.16",
  "updatedAt": "2024-03-14T09:56:42.188Z",
  "devdoc": {
    "kind": "dev",
    "methods": {},
    "version": 1
  },
  "userdoc": {
    "kind": "user",
    "methods": {},
    "version": 1
  }
}