{
  "contractName": "TicketMarket",
  "abi": [
    {
      "inputs": [
        {
          "internalType": "address",
          "name": "_ticketContract",
          "type": "address"
        },
        {
          "internalType": "uint256",
          "name": "fee",
          "type": "uint256"
        }
      ],
      "stateMutability": "nonpayable",
      "type": "constructor"
    },
    {
      "anonymous": false,
      "inputs": [
        {
          "indexed": false,
          "internalType": "uint256",
          "name": "ticketId",
          "type": "uint256"
        },
        {
          "indexed": false,
          "internalType": "uint256",
          "name": "price",
          "type": "uint256"
        }
      ],
      "name": "TicketListed",
      "type": "event"
    },
    {
      "anonymous": false,
      "inputs": [
        {
          "indexed": false,
          "internalType": "uint256",
          "name": "ticketId",
          "type": "uint256"
        },
        {
          "indexed": false,
          "internalType": "address",
          "name": "buyer",
          "type": "address"
        },
        {
          "indexed": false,
          "internalType": "uint256",
          "name": "price",
          "type": "uint256"
        }
      ],
      "name": "TicketSold",
      "type": "event"
    },
    {
      "anonymous": false,
      "inputs": [
        {
          "indexed": true,
          "internalType": "uint256",
          "name": "id",
          "type": "uint256"
        },
        {
          "indexed": false,
          "internalType": "address",
          "name": "from",
          "type": "address"
        },
        {
          "indexed": false,
          "internalType": "address",
          "name": "to",
          "type": "address"
        },
        {
          "indexed": false,
          "internalType": "uint256",
          "name": "price",
          "type": "uint256"
        }
      ],
      "name": "TicketTransferred",
      "type": "event"
    },
    {
      "anonymous": false,
      "inputs": [
        {
          "indexed": false,
          "internalType": "uint256",
          "name": "ticketId",
          "type": "uint256"
        }
      ],
      "name": "TicketUnlisted",
      "type": "event"
    },
    {
      "inputs": [],
      "name": "buyerQueue",
      "outputs": [
        {
          "internalType": "contract PriorityQueue",
          "name": "",
          "type": "address"
        }
      ],
      "stateMutability": "view",
      "type": "function"
    },
    {
      "inputs": [],
      "name": "commissionFee",
      "outputs": [
        {
          "internalType": "uint256",
          "name": "",
          "type": "uint256"
        }
      ],
      "stateMutability": "view",
      "type": "function"
    },
    {
      "inputs": [
        {
          "internalType": "uint256",
          "name": "",
          "type": "uint256"
        }
      ],
      "name": "listPrice",
      "outputs": [
        {
          "internalType": "uint256",
          "name": "",
          "type": "uint256"
        }
      ],
      "stateMutability": "view",
      "type": "function"
    },
    {
      "inputs": [],
      "name": "loyaltyPoints",
      "outputs": [
        {
          "internalType": "contract LoyaltyPoints",
          "name": "",
          "type": "address"
        }
      ],
      "stateMutability": "view",
      "type": "function"
    },
    {
      "inputs": [],
      "name": "owner",
      "outputs": [
        {
          "internalType": "address",
          "name": "",
          "type": "address"
        }
      ],
      "stateMutability": "view",
      "type": "function"
    },
    {
      "inputs": [],
      "name": "ticketContract",
      "outputs": [
        {
          "internalType": "contract ITicket",
          "name": "",
          "type": "address"
        }
      ],
      "stateMutability": "view",
      "type": "function"
    },
    {
      "inputs": [],
      "name": "ticketTokenContract",
      "outputs": [
        {
          "internalType": "contract TicketToken",
          "name": "",
          "type": "address"
        }
      ],
      "stateMutability": "view",
      "type": "function"
    },
    {
      "inputs": [
        {
          "internalType": "uint256",
          "name": "ticketId",
          "type": "uint256"
        },
        {
          "internalType": "uint256",
          "name": "price",
          "type": "uint256"
        }
      ],
      "name": "list",
      "outputs": [],
      "stateMutability": "nonpayable",
      "type": "function"
    },
    {
      "inputs": [
        {
          "internalType": "uint256",
          "name": "ticketId",
          "type": "uint256"
        }
      ],
      "name": "unlist",
      "outputs": [],
      "stateMutability": "nonpayable",
      "type": "function"
    },
    {
      "inputs": [
        {
          "internalType": "uint256",
          "name": "ticketId",
          "type": "uint256"
        }
      ],
      "name": "getTicketPrice",
      "outputs": [
        {
          "internalType": "uint256",
          "name": "",
          "type": "uint256"
        }
      ],
      "stateMutability": "view",
      "type": "function"
    },
    {
      "inputs": [],
      "name": "getCommission",
      "outputs": [
        {
          "internalType": "uint256",
          "name": "",
          "type": "uint256"
        }
      ],
      "stateMutability": "view",
      "type": "function"
    },
    {
      "inputs": [
        {
          "internalType": "address",
          "name": "buyer",
          "type": "address"
        }
      ],
      "name": "requestTicketPurchase",
      "outputs": [],
      "stateMutability": "nonpayable",
      "type": "function"
    },
    {
      "inputs": [],
      "name": "processTicketPurchases",
      "outputs": [],
      "stateMutability": "nonpayable",
      "type": "function"
    },
    {
      "inputs": [
        {
          "internalType": "uint256",
          "name": "ticketId",
          "type": "uint256"
        }
      ],
      "name": "buy",
      "outputs": [],
      "stateMutability": "payable",
      "type": "function"
    },
    {
      "inputs": [],
      "name": "thereAreTicketsAvailable",
      "outputs": [
        {
          "internalType": "bool",
          "name": "",
          "type": "bool"
        }
      ],
      "stateMutability": "view",
      "type": "function"
    },
    {
      "inputs": [
        {
          "internalType": "uint256",
          "name": "id",
          "type": "uint256"
        }
      ],
      "name": "checkPrice",
      "outputs": [
        {
          "internalType": "uint256",
          "name": "",
          "type": "uint256"
        }
      ],
      "stateMutability": "view",
      "type": "function"
    }
  ],
  "bytecode": "0x6080604052662386f26fc100006003553480156200001c57600080fd5b5060405162001be338038062001be3833981810160405281019062000042919062000100565b81600160006101000a81548173ffffffffffffffffffffffffffffffffffffffff021916908373ffffffffffffffffffffffffffffffffffffffff16021790555080600381905550336000806101000a81548173ffffffffffffffffffffffffffffffffffffffff021916908373ffffffffffffffffffffffffffffffffffffffff1602179055505050620001b3565b600081519050620000e3816200017f565b92915050565b600081519050620000fa8162000199565b92915050565b600080604083850312156200011457600080fd5b60006200012485828601620000d2565b92505060206200013785828601620000e9565b9150509250929050565b60006200014e8262000155565b9050919050565b600073ffffffffffffffffffffffffffffffffffffffff82169050919050565b6000819050919050565b6200018a8162000141565b81146200019657600080fd5b50565b620001a48162000175565b8114620001b057600080fd5b50565b611a2080620001c36000396000f3fe6080604052600436106100f35760003560e01c8063880796d31161008a578063bf5a4dd311610059578063bf5a4dd314610308578063d96a094a14610331578063e65d6b491461034d578063f06fc96114610378576100f3565b8063880796d31461025e5780638da5cb5b14610289578063911f38a4146102b4578063956a20ea146102dd576100f3565b80636f51fc9c116100c65780636f51fc9c146101b45780636fb1eb0c146101cb5780637f5e4263146101f657806387d81f7c14610221576100f3565b80631de7463a146100f857806350fd73671461013557806358a86e1d1461015e5780635a1c382614610189575b600080fd5b34801561010457600080fd5b5061011f600480360381019061011a91906113ae565b6103b5565b60405161012c9190611716565b60405180910390f35b34801561014157600080fd5b5061015c60048036038101906101579190611400565b6103d2565b005b34801561016a57600080fd5b506101736105f6565b604051610180919061162a565b60405180910390f35b34801561019557600080fd5b5061019e61061c565b6040516101ab919061160f565b60405180910390f35b3480156101c057600080fd5b506101c961067c565b005b3480156101d757600080fd5b506101e06109a6565b6040516101ed9190611716565b60405180910390f35b34801561020257600080fd5b5061020b6109ac565b604051610218919061167b565b60405180910390f35b34801561022d57600080fd5b50610248600480360381019061024391906113ae565b6109d2565b6040516102559190611716565b60405180910390f35b34801561026a57600080fd5b506102736109ea565b6040516102809190611660565b60405180910390f35b34801561029557600080fd5b5061029e610a10565b6040516102ab91906115cb565b60405180910390f35b3480156102c057600080fd5b506102db60048036038101906102d69190611333565b610a34565b005b3480156102e957600080fd5b506102f2610b76565b6040516102ff9190611645565b60405180910390f35b34801561031457600080fd5b5061032f600480360381019061032a91906113ae565b610b9c565b005b61034b600480360381019061034691906113ae565b610e32565b005b34801561035957600080fd5b506103626112a3565b60405161036f9190611716565b60405180910390f35b34801561038457600080fd5b5061039f600480360381019061039a91906113ae565b6112ad565b6040516103ac9190611716565b60405180910390f35b600060066000838152602001908152602001600020549050919050565b600354600160009054906101000a900473ffffffffffffffffffffffffffffffffffffffff1673ffffffffffffffffffffffffffffffffffffffff1663e7572230846040518263ffffffff1660e01b81526004016104309190611716565b60206040518083038186803b15801561044857600080fd5b505afa15801561045c573d6000803e3d6000fd5b505050506040513d601f19601f8201168201806040525081019061048091906113d7565b61048a91906117cb565b81101561049657600080fd5b600160009054906101000a900473ffffffffffffffffffffffffffffffffffffffff1673ffffffffffffffffffffffffffffffffffffffff1663c41a360a836040518263ffffffff1660e01b81526004016104f19190611716565b60206040518083038186803b15801561050957600080fd5b505afa15801561051d573d6000803e3d6000fd5b505050506040513d601f19601f82011682018060405250810190610541919061135c565b73ffffffffffffffffffffffffffffffffffffffff163373ffffffffffffffffffffffffffffffffffffffff161461057857600080fd5b7fbca2f6391cafd6d28d39261ba883dd74090c618befb806e74ef434778bb2f7ed82826040516105a9929190611791565b60405180910390a180600660008481526020019081526020016000208190555060078290806001815401808255809150506001900390600052602060002001600090919091909150555050565b600160009054906101000a900473ffffffffffffffffffffffffffffffffffffffff1681565b6000806000905060005b6007805490508110156106715760006006600083815260200190815260200160002054111561065e57818061065a9061192d565b9250505b80806106699061192d565b915050610626565b506000811191505090565b60008054906101000a900473ffffffffffffffffffffffffffffffffffffffff1673ffffffffffffffffffffffffffffffffffffffff163373ffffffffffffffffffffffffffffffffffffffff161461070a576040517f08c379a0000000000000000000000000000000000000000000000000000000008152600401610701906116b6565b60405180910390fd5b5b600460009054906101000a900473ffffffffffffffffffffffffffffffffffffffff1673ffffffffffffffffffffffffffffffffffffffff1663681fe70c6040518163ffffffff1660e01b815260040160206040518083038186803b15801561077357600080fd5b505afa158015610787573d6000803e3d6000fd5b505050506040513d601f19601f820116820180604052508101906107ab9190611385565b1580156107bc57506107bb61061c565b5b156109a4576000600460009054906101000a900473ffffffffffffffffffffffffffffffffffffffff1673ffffffffffffffffffffffffffffffffffffffff1663957908d16040518163ffffffff1660e01b8152600401602060405180830381600087803b15801561082d57600080fd5b505af1158015610841573d6000803e3d6000fd5b505050506040513d601f19601f82011682018060405250810190610865919061135c565b9050600060076000815481106108a4577f4e487b7100000000000000000000000000000000000000000000000000000000600052603260045260246000fd5b90600052602060002001549050600060066000838152602001908152602001600020549050600160009054906101000a900473ffffffffffffffffffffffffffffffffffffffff1673ffffffffffffffffffffffffffffffffffffffff1663b7760c8f83856040518363ffffffff1660e01b8152600401610926929190611731565b600060405180830381600087803b15801561094057600080fd5b505af1158015610954573d6000803e3d6000fd5b505050507fbce6612c87f6b5711225ffc4b9f920148cd399de49ba10137fe0d3c53133384182848360405161098b9392919061175a565b60405180910390a161099c82610b9c565b50505061070b565b565b60035481565b600260009054906101000a900473ffffffffffffffffffffffffffffffffffffffff1681565b60066020528060005260406000206000915090505481565b600460009054906101000a900473ffffffffffffffffffffffffffffffffffffffff1681565b60008054906101000a900473ffffffffffffffffffffffffffffffffffffffff1681565b6000600560009054906101000a900473ffffffffffffffffffffffffffffffffffffffff1673ffffffffffffffffffffffffffffffffffffffff1663ee204abb836040518263ffffffff1660e01b8152600401610a9191906115cb565b60206040518083038186803b158015610aa957600080fd5b505afa158015610abd573d6000803e3d6000fd5b505050506040513d601f19601f82011682018060405250810190610ae191906113d7565b9050600460009054906101000a900473ffffffffffffffffffffffffffffffffffffffff1673ffffffffffffffffffffffffffffffffffffffff16630ee0a17d83836040518363ffffffff1660e01b8152600401610b409291906115e6565b600060405180830381600087803b158015610b5a57600080fd5b505af1158015610b6e573d6000803e3d6000fd5b505050505050565b600560009054906101000a900473ffffffffffffffffffffffffffffffffffffffff1681565b600160009054906101000a900473ffffffffffffffffffffffffffffffffffffffff1673ffffffffffffffffffffffffffffffffffffffff1663c41a360a826040518263ffffffff1660e01b8152600401610bf79190611716565b60206040518083038186803b158015610c0f57600080fd5b505afa158015610c23573d6000803e3d6000fd5b505050506040513d601f19601f82011682018060405250810190610c47919061135c565b73ffffffffffffffffffffffffffffffffffffffff163373ffffffffffffffffffffffffffffffffffffffff1614610c7e57600080fd5b600060066000838152602001908152602001600020819055507fdb00f3044f762e640c77fdd12df2e7cf2b4c17de34f8995969a4d98b9904af4581604051610cc69190611716565b60405180910390a160005b600780549050811015610e2e578160078281548110610d19577f4e487b7100000000000000000000000000000000000000000000000000000000600052603260045260246000fd5b90600052602060002001541415610e1b5760076001600780549050610d3e9190611821565b81548110610d75577f4e487b7100000000000000000000000000000000000000000000000000000000600052603260045260246000fd5b906000526020600020015460078281548110610dba577f4e487b7100000000000000000000000000000000000000000000000000000000600052603260045260246000fd5b90600052602060002001819055506007805480610e00577f4e487b7100000000000000000000000000000000000000000000000000000000600052603160045260246000fd5b60019003818190600052602060002001600090559055610e2e565b8080610e269061192d565b915050610cd1565b5050565b600060066000838152602001908152602001600020541415610e89576040517f08c379a0000000000000000000000000000000000000000000000000000000008152600401610e8090611696565b60405180910390fd5b6006600082815260200190815260200160002054341015610edf576040517f08c379a0000000000000000000000000000000000000000000000000000000008152600401610ed6906116d6565b60405180910390fd5b6000600160009054906101000a900473ffffffffffffffffffffffffffffffffffffffff1673ffffffffffffffffffffffffffffffffffffffff1663c41a360a836040518263ffffffff1660e01b8152600401610f3c9190611716565b60206040518083038186803b158015610f5457600080fd5b505afa158015610f68573d6000803e3d6000fd5b505050506040513d601f19601f82011682018060405250810190610f8c919061135c565b90508073ffffffffffffffffffffffffffffffffffffffff163373ffffffffffffffffffffffffffffffffffffffff161415610ffd576040517f08c379a0000000000000000000000000000000000000000000000000000000008152600401610ff4906116f6565b60405180910390fd5b6000600160009054906101000a900473ffffffffffffffffffffffffffffffffffffffff1673ffffffffffffffffffffffffffffffffffffffff1663f2d03fcf846040518263ffffffff1660e01b815260040161105a9190611716565b60206040518083038186803b15801561107257600080fd5b505afa158015611086573d6000803e3d6000fd5b505050506040513d601f19601f820116820180604052508101906110aa919061135c565b9050600060035460066000868152602001908152602001600020546110cf9190611821565b90508173ffffffffffffffffffffffffffffffffffffffff166108fc829081150290604051600060405180830381858888f19350505050158015611117573d6000803e3d6000fd5b50600160009054906101000a900473ffffffffffffffffffffffffffffffffffffffff1673ffffffffffffffffffffffffffffffffffffffff1663b7760c8f85336040518363ffffffff1660e01b8152600401611175929190611731565b600060405180830381600087803b15801561118f57600080fd5b505af11580156111a3573d6000803e3d6000fd5b505050507fbce6612c87f6b5711225ffc4b9f920148cd399de49ba10137fe0d3c531333841843360066000888152602001908152602001600020546040516111ed9392919061175a565b60405180910390a1600160009054906101000a900473ffffffffffffffffffffffffffffffffffffffff1673ffffffffffffffffffffffffffffffffffffffff1663b7760c8f85336040518363ffffffff1660e01b8152600401611252929190611731565b600060405180830381600087803b15801561126c57600080fd5b505af1158015611280573d6000803e3d6000fd5b505050506000600660008681526020019081526020016000208190555050505050565b6000600354905090565b600060066000838152602001908152602001600020549050919050565b6000813590506112d9816119a5565b92915050565b6000815190506112ee816119a5565b92915050565b600081519050611303816119bc565b92915050565b600081359050611318816119d3565b92915050565b60008151905061132d816119d3565b92915050565b60006020828403121561134557600080fd5b6000611353848285016112ca565b91505092915050565b60006020828403121561136e57600080fd5b600061137c848285016112df565b91505092915050565b60006020828403121561139757600080fd5b60006113a5848285016112f4565b91505092915050565b6000602082840312156113c057600080fd5b60006113ce84828501611309565b91505092915050565b6000602082840312156113e957600080fd5b60006113f78482850161131e565b91505092915050565b6000806040838503121561141357600080fd5b600061142185828601611309565b925050602061143285828601611309565b9150509250929050565b61144581611855565b82525050565b61145481611867565b82525050565b6114638161189d565b82525050565b611472816118c1565b82525050565b611481816118e5565b82525050565b61149081611909565b82525050565b60006114a3601e836117ba565b91507f5469636b6574206d757374206265206c697374656420666f722073616c6500006000830152602082019050919050565b60006114e36024836117ba565b91507f4f6e6c7920746865206f776e65722063616e2070726f6365737320707572636860008301527f61736573000000000000000000000000000000000000000000000000000000006020830152604082019050919050565b60006115496014836117ba565b91507f496e73756666696369656e74207061796d656e740000000000000000000000006000830152602082019050919050565b6000611589601d836117ba565b91507f427579657220616c7265616479206f776e7320746865207469636b65740000006000830152602082019050919050565b6115c581611893565b82525050565b60006020820190506115e0600083018461143c565b92915050565b60006040820190506115fb600083018561143c565b61160860208301846115bc565b9392505050565b6000602082019050611624600083018461144b565b92915050565b600060208201905061163f600083018461145a565b92915050565b600060208201905061165a6000830184611469565b92915050565b60006020820190506116756000830184611478565b92915050565b60006020820190506116906000830184611487565b92915050565b600060208201905081810360008301526116af81611496565b9050919050565b600060208201905081810360008301526116cf816114d6565b9050919050565b600060208201905081810360008301526116ef8161153c565b9050919050565b6000602082019050818103600083015261170f8161157c565b9050919050565b600060208201905061172b60008301846115bc565b92915050565b600060408201905061174660008301856115bc565b611753602083018461143c565b9392505050565b600060608201905061176f60008301866115bc565b61177c602083018561143c565b61178960408301846115bc565b949350505050565b60006040820190506117a660008301856115bc565b6117b360208301846115bc565b9392505050565b600082825260208201905092915050565b60006117d682611893565b91506117e183611893565b9250827fffffffffffffffffffffffffffffffffffffffffffffffffffffffffffffffff0382111561181657611815611976565b5b828201905092915050565b600061182c82611893565b915061183783611893565b92508282101561184a57611849611976565b5b828203905092915050565b600061186082611873565b9050919050565b60008115159050919050565b600073ffffffffffffffffffffffffffffffffffffffff82169050919050565b6000819050919050565b60006118a8826118af565b9050919050565b60006118ba82611873565b9050919050565b60006118cc826118d3565b9050919050565b60006118de82611873565b9050919050565b60006118f0826118f7565b9050919050565b600061190282611873565b9050919050565b60006119148261191b565b9050919050565b600061192682611873565b9050919050565b600061193882611893565b91507fffffffffffffffffffffffffffffffffffffffffffffffffffffffffffffffff82141561196b5761196a611976565b5b600182019050919050565b7f4e487b7100000000000000000000000000000000000000000000000000000000600052601160045260246000fd5b6119ae81611855565b81146119b957600080fd5b50565b6119c581611867565b81146119d057600080fd5b50565b6119dc81611893565b81146119e757600080fd5b5056fea264697066735822122014c5923f2b02bc947d21520d19ec73d18cc940dc7ad1f57dd76d9cf9b1aede8464736f6c63430008000033",
  "immutableReferences": {},
  "source": "// SPDX-License-Identifier: MIT\r\npragma solidity ^0.8.0;\r\n\r\nimport \"./ERC20.sol\";\r\nimport \"./Ticket.sol\";\r\nimport \"./TicketToken.sol\";\r\nimport \"./PriorityQueue.sol\";\r\nimport \"./LoyaltyPoints.sol\";\r\n\r\ninterface ITicket {\r\n    function getPrice(uint256 ticketId) external view returns (uint256);\r\n    function getPrevOwner(uint256 ticketId) external view returns (address);\r\n    function getOwner(uint256 ticketId) external view returns (address);\r\n    function getTicketState(\r\n        uint256 ticketId\r\n    ) external view returns (Ticket.TicketState);\r\n    function transfer(uint256 ticketId, address newOwner) external;\r\n}\r\n\r\ncontract TicketMarket {\r\n    address public owner;\r\n    ITicket public ticketContract;\r\n    TicketToken public ticketTokenContract;\r\n    uint256 public commissionFee = 0.01 ether;\r\n\r\n    PriorityQueue public buyerQueue;\r\n    LoyaltyPoints public loyaltyPoints;\r\n\r\n    // Mapping from ticket ID to listing price\r\n    mapping(uint256 => uint256) public listPrice;\r\n\r\n    uint256[] private listedTickets; // To track listed ticket IDs\r\n\r\n    // Event emitted when a ticket is listed for sale\r\n    event TicketListed(uint256 ticketId, uint256 price);\r\n    event TicketUnlisted(uint256 ticketId);\r\n    event TicketSold(uint256 ticketId, address buyer, uint256 price);\r\n\r\n    // Event emitted when a ticket is transferred\r\n    event TicketTransferred(\r\n        uint256 indexed id,\r\n        address from,\r\n        address to,\r\n        uint256 price\r\n    );\r\n\r\n    constructor(\r\n        address _ticketContract,\r\n        uint256 fee\r\n    ) //address _loyaltyPointsAddress\r\n    {\r\n        ticketContract = ITicket(_ticketContract);\r\n        commissionFee = fee;\r\n        owner = msg.sender;\r\n        //loyaltyPoints = LoyaltyPoints(_loyaltyPointsAddress);\r\n        //buyerQueue = new PriorityQueue();\r\n    }\r\n\r\n    // List a ticket for sale. Price needs to be >= value + fee\r\n    function list(uint256 ticketId, uint256 price) public {\r\n        require(price >= ticketContract.getPrice(ticketId) + commissionFee);\r\n        require(msg.sender == ticketContract.getOwner(ticketId));\r\n        emit TicketListed(ticketId, price);\r\n        listPrice[ticketId] = price;\r\n        listedTickets.push(ticketId); // Add ticket ID to the list of listed tickets\r\n    }\r\n\r\n    function unlist(uint256 ticketId) public {\r\n        require(msg.sender == ticketContract.getOwner(ticketId));\r\n        listPrice[ticketId] = 0;\r\n        emit TicketUnlisted(ticketId); // Emit event for ticket unlisting\r\n\r\n        // Find and remove the ticket ID from listedTickets array\r\n        for (uint256 i = 0; i < listedTickets.length; i++) {\r\n            if (listedTickets[i] == ticketId) {\r\n                // Move the last element to the current index\r\n                listedTickets[i] = listedTickets[listedTickets.length - 1];\r\n                // Remove the last element\r\n                listedTickets.pop();\r\n                break; // Exit the loop once the ticket ID is removed\r\n            }\r\n        }\r\n    }\r\n\r\n    // Get price of ticket\r\n    function getTicketPrice(uint256 ticketId) public view returns (uint256) {\r\n        return listPrice[ticketId];\r\n    }\r\n\r\n    // Get the commission fee\r\n    function getCommission() public view returns (uint256) {\r\n        return commissionFee;\r\n    }\r\n\r\n    //Addition of PriorityQueue\r\n    //add buyers to the PriorityQueue instead of immediately processing the purchase\r\n    function requestTicketPurchase(address buyer) public {\r\n        uint points = loyaltyPoints.getPoints(buyer);\r\n        buyerQueue.enqueue(buyer, points);\r\n    }\r\n\r\n    function processTicketPurchases() public {\r\n        require(msg.sender == owner, \"Only the owner can process purchases\");\r\n\r\n        while (!buyerQueue.isEmpty() && thereAreTicketsAvailable()) {\r\n            address buyer = buyerQueue.dequeue();\r\n\r\n            // For simplicity, we attempt to purchase the first available ticket.\r\n            uint256 ticketId = listedTickets[0];\r\n\r\n            uint256 ticketPrice = listPrice[ticketId];\r\n\r\n            // Transfer the ticket and emit an event.\r\n            ticketContract.transfer(ticketId, buyer);\r\n            emit TicketSold(ticketId, buyer, ticketPrice);\r\n\r\n            // Remove the ticket from the listing.\r\n            unlist(ticketId);\r\n        }\r\n    }\r\n\r\n    // Buy the ticket at the requested price\r\n    function buy(uint256 ticketId) public payable {\r\n        // Check if the ticket is listed for sale\r\n        require(listPrice[ticketId] != 0, \"Ticket must be listed for sale\");\r\n        // Check if payment is enough\r\n        require(msg.value >= listPrice[ticketId], \"Insufficient payment\");\r\n\r\n        address ticketOwner = ticketContract.getOwner(ticketId);\r\n        require(msg.sender != ticketOwner, \"Buyer already owns the ticket\");\r\n\r\n        address payable recipient = payable(\r\n            ticketContract.getPrevOwner(ticketId)\r\n        );\r\n\r\n        // Calculate the amount to transfer to the ticket owner after deducting the commission fee\r\n        uint256 amountToTransfer = listPrice[ticketId] - commissionFee;\r\n        // Transfer payment to the ticket owner after deducting the commission fee\r\n        recipient.transfer(amountToTransfer);\r\n\r\n        // Transfer ownership in the Ticket contract\r\n        ticketContract.transfer(ticketId, msg.sender);\r\n\r\n        // Emit event for ticket purchase\r\n        emit TicketSold(ticketId, msg.sender, listPrice[ticketId]);\r\n\r\n        // Transfer ownership of the ticket\r\n        ticketContract.transfer(ticketId, msg.sender);\r\n\r\n        // Remove the ticket from the listing after purchase\r\n        listPrice[ticketId] = 0;\r\n    }\r\n\r\n    function thereAreTicketsAvailable() public view returns (bool) {\r\n        uint256 availableTickets = 0;\r\n        for (uint256 i = 0; i < listedTickets.length; i++) {\r\n            if (listPrice[i] > 0) {\r\n                availableTickets++;\r\n            }\r\n        }\r\n        return availableTickets > 0;\r\n    }\r\n\r\n    // get price of ticket\r\n    function checkPrice(uint256 id) public view returns (uint256) {\r\n        return listPrice[id];\r\n    }\r\n}\r\n",
  "sourcePath": "C:\\Users\\tngjo\\OneDrive\\Desktop\\GitHub\\IS4302-Decentralized-Event-Ticketing-System\\contracts\\TicketMarket.sol",
  "compiler": {
    "name": "solc",
    "version": "0.8.0+commit.c7dfd78e.Emscripten.clang"
  },
  "schemaVersion": "3.4.16",
  "updatedAt": "2024-03-21T18:48:27.264Z",
  "devdoc": {
    "kind": "dev",
    "methods": {},
    "version": 1
  },
  "userdoc": {
    "kind": "user",
    "methods": {},
    "version": 1
  }
}