{
  "contractName": "TicketMarket",
  "abi": [
    {
      "inputs": [
        {
          "internalType": "contract Ticket",
          "name": "ticketAddress",
          "type": "address"
        },
        {
          "internalType": "uint256",
          "name": "fee",
          "type": "uint256"
        },
        {
          "internalType": "address",
          "name": "_loyaltyPointsAddress",
          "type": "address"
        }
      ],
      "stateMutability": "nonpayable",
      "type": "constructor"
    },
    {
      "anonymous": false,
      "inputs": [
        {
          "indexed": true,
          "internalType": "uint256",
          "name": "id",
          "type": "uint256"
        },
        {
          "indexed": false,
          "internalType": "address",
          "name": "buyer",
          "type": "address"
        },
        {
          "indexed": false,
          "internalType": "uint256",
          "name": "price",
          "type": "uint256"
        }
      ],
      "name": "TicketBought",
      "type": "event"
    },
    {
      "anonymous": false,
      "inputs": [
        {
          "indexed": true,
          "internalType": "uint256",
          "name": "id",
          "type": "uint256"
        },
        {
          "indexed": false,
          "internalType": "uint256",
          "name": "price",
          "type": "uint256"
        }
      ],
      "name": "TicketListed",
      "type": "event"
    },
    {
      "anonymous": false,
      "inputs": [
        {
          "indexed": true,
          "internalType": "uint256",
          "name": "id",
          "type": "uint256"
        },
        {
          "indexed": false,
          "internalType": "address",
          "name": "from",
          "type": "address"
        },
        {
          "indexed": false,
          "internalType": "address",
          "name": "to",
          "type": "address"
        },
        {
          "indexed": false,
          "internalType": "uint256",
          "name": "price",
          "type": "uint256"
        }
      ],
      "name": "TicketTransferred",
      "type": "event"
    },
    {
      "anonymous": false,
      "inputs": [
        {
          "indexed": true,
          "internalType": "uint256",
          "name": "id",
          "type": "uint256"
        }
      ],
      "name": "TicketUnlisted",
      "type": "event"
    },
    {
      "inputs": [],
      "name": "buyerQueue",
      "outputs": [
        {
          "internalType": "contract PriorityQueue",
          "name": "",
          "type": "address"
        }
      ],
      "stateMutability": "view",
      "type": "function",
      "constant": true
    },
    {
      "inputs": [],
      "name": "commissionFee",
      "outputs": [
        {
          "internalType": "uint256",
          "name": "",
          "type": "uint256"
        }
      ],
      "stateMutability": "view",
      "type": "function",
      "constant": true
    },
    {
      "inputs": [
        {
          "internalType": "uint256",
          "name": "",
          "type": "uint256"
        }
      ],
      "name": "listPrice",
      "outputs": [
        {
          "internalType": "uint256",
          "name": "",
          "type": "uint256"
        }
      ],
      "stateMutability": "view",
      "type": "function",
      "constant": true
    },
    {
      "inputs": [],
      "name": "loyaltyPoints",
      "outputs": [
        {
          "internalType": "contract LoyaltyPoints",
          "name": "",
          "type": "address"
        }
      ],
      "stateMutability": "view",
      "type": "function",
      "constant": true
    },
    {
      "inputs": [],
      "name": "owner",
      "outputs": [
        {
          "internalType": "address",
          "name": "",
          "type": "address"
        }
      ],
      "stateMutability": "view",
      "type": "function",
      "constant": true
    },
    {
      "inputs": [
        {
          "internalType": "uint256",
          "name": "id",
          "type": "uint256"
        },
        {
          "internalType": "uint256",
          "name": "price",
          "type": "uint256"
        }
      ],
      "name": "list",
      "outputs": [],
      "stateMutability": "nonpayable",
      "type": "function"
    },
    {
      "inputs": [
        {
          "internalType": "uint256",
          "name": "id",
          "type": "uint256"
        }
      ],
      "name": "unlist",
      "outputs": [],
      "stateMutability": "nonpayable",
      "type": "function"
    },
    {
      "inputs": [
        {
          "internalType": "uint256",
          "name": "id",
          "type": "uint256"
        }
      ],
      "name": "getTicketPrice",
      "outputs": [
        {
          "internalType": "uint256",
          "name": "",
          "type": "uint256"
        }
      ],
      "stateMutability": "view",
      "type": "function",
      "constant": true
    },
    {
      "inputs": [
        {
          "internalType": "address",
          "name": "buyer",
          "type": "address"
        }
      ],
      "name": "requestTicketPurchase",
      "outputs": [],
      "stateMutability": "nonpayable",
      "type": "function"
    },
    {
      "inputs": [],
      "name": "processTicketPurchases",
      "outputs": [],
      "stateMutability": "nonpayable",
      "type": "function"
    },
    {
      "inputs": [
        {
          "internalType": "uint256",
          "name": "id",
          "type": "uint256"
        }
      ],
      "name": "buy",
      "outputs": [],
      "stateMutability": "payable",
      "type": "function",
      "payable": true
    },
    {
      "inputs": [],
      "name": "thereAreTicketsAvailable",
      "outputs": [
        {
          "internalType": "bool",
          "name": "",
          "type": "bool"
        }
      ],
      "stateMutability": "view",
      "type": "function",
      "constant": true
    },
    {
      "inputs": [
        {
          "internalType": "uint256",
          "name": "id",
          "type": "uint256"
        }
      ],
      "name": "checkPrice",
      "outputs": [
        {
          "internalType": "uint256",
          "name": "",
          "type": "uint256"
        }
      ],
      "stateMutability": "view",
      "type": "function",
      "constant": true
    }
  ],
  "bytecode": "0x60806040523480156200001157600080fd5b5060405162002b5838038062002b588339818101604052810190620000379190620001c8565b826000806101000a81548173ffffffffffffffffffffffffffffffffffffffff021916908373ffffffffffffffffffffffffffffffffffffffff1602179055508160018190555033600260006101000a81548173ffffffffffffffffffffffffffffffffffffffff021916908373ffffffffffffffffffffffffffffffffffffffff16021790555080600460006101000a81548173ffffffffffffffffffffffffffffffffffffffff021916908373ffffffffffffffffffffffffffffffffffffffff1602179055506040516200010e9062000175565b604051809103906000f0801580156200012b573d6000803e3d6000fd5b50600360006101000a81548173ffffffffffffffffffffffffffffffffffffffff021916908373ffffffffffffffffffffffffffffffffffffffff160217905550505050620002be565b6110378062001b2183390190565b600081519050620001948162000270565b92915050565b600081519050620001ab816200028a565b92915050565b600081519050620001c281620002a4565b92915050565b600080600060608486031215620001de57600080fd5b6000620001ee868287016200019a565b93505060206200020186828701620001b1565b9250506040620002148682870162000183565b9150509250925092565b60006200022b8262000246565b9050919050565b60006200023f826200021e565b9050919050565b600073ffffffffffffffffffffffffffffffffffffffff82169050919050565b6000819050919050565b6200027b816200021e565b81146200028757600080fd5b50565b620002958162000232565b8114620002a157600080fd5b50565b620002af8162000266565b8114620002bb57600080fd5b50565b61185380620002ce6000396000f3fe6080604052600436106100c25760003560e01c8063880796d31161007f578063956a20ea11610059578063956a20ea14610256578063bf5a4dd314610281578063d96a094a146102aa578063f06fc961146102c6576100c2565b8063880796d3146101d75780638da5cb5b14610202578063911f38a41461022d576100c2565b80631de7463a146100c757806350fd7367146101045780635a1c38261461012d5780636f51fc9c146101585780636fb1eb0c1461016f57806387d81f7c1461019a575b600080fd5b3480156100d357600080fd5b506100ee60048036038101906100e9919061119d565b610303565b6040516100fb91906115e3565b60405180910390f35b34801561011057600080fd5b5061012b600480360381019061012691906111ef565b610320565b005b34801561013957600080fd5b506101426105ab565b60405161014f91906114d2565b60405180910390f35b34801561016457600080fd5b5061016d61060b565b005b34801561017b57600080fd5b50610184610936565b60405161019191906115e3565b60405180910390f35b3480156101a657600080fd5b506101c160048036038101906101bc919061119d565b61093c565b6040516101ce91906115e3565b60405180910390f35b3480156101e357600080fd5b506101ec610954565b6040516101f99190611508565b60405180910390f35b34801561020e57600080fd5b5061021761097a565b604051610224919061148e565b60405180910390f35b34801561023957600080fd5b50610254600480360381019061024f9190611122565b6109a0565b005b34801561026257600080fd5b5061026b610ae2565b60405161027891906114ed565b60405180910390f35b34801561028d57600080fd5b506102a860048036038101906102a3919061119d565b610b08565b005b6102c460048036038101906102bf919061119d565b610dc8565b005b3480156102d257600080fd5b506102ed60048036038101906102e8919061119d565b61109c565b6040516102fa91906115e3565b60405180910390f35b600060056000838152602001908152602001600020549050919050565b60015460008054906101000a900473ffffffffffffffffffffffffffffffffffffffff1673ffffffffffffffffffffffffffffffffffffffff1663e7572230846040518263ffffffff1660e01b815260040161037c91906115e3565b60206040518083038186803b15801561039457600080fd5b505afa1580156103a8573d6000803e3d6000fd5b505050506040513d601f19601f820116820180604052508101906103cc91906111c6565b6103d69190611646565b811015610418576040517f08c379a000000000000000000000000000000000000000000000000000000000815260040161040f90611523565b60405180910390fd5b60008054906101000a900473ffffffffffffffffffffffffffffffffffffffff1673ffffffffffffffffffffffffffffffffffffffff1663f2d03fcf836040518263ffffffff1660e01b815260040161047191906115e3565b60206040518083038186803b15801561048957600080fd5b505afa15801561049d573d6000803e3d6000fd5b505050506040513d601f19601f820116820180604052508101906104c1919061114b565b73ffffffffffffffffffffffffffffffffffffffff163373ffffffffffffffffffffffffffffffffffffffff161461052e576040517f08c379a000000000000000000000000000000000000000000000000000000000815260040161052590611563565b60405180910390fd5b8060056000848152602001908152602001600020819055506006829080600181540180825580915050600190039060005260206000200160009091909190915055817fbca2f6391cafd6d28d39261ba883dd74090c618befb806e74ef434778bb2f7ed8260405161059f91906115e3565b60405180910390a25050565b6000806000905060005b600680549050811015610600576000600560008381526020019081526020016000205411156105ed5781806105e990611760565b9250505b80806105f890611760565b9150506105b5565b506000811191505090565b600260009054906101000a900473ffffffffffffffffffffffffffffffffffffffff1673ffffffffffffffffffffffffffffffffffffffff163373ffffffffffffffffffffffffffffffffffffffff161461069b576040517f08c379a0000000000000000000000000000000000000000000000000000000008152600401610692906115a3565b60405180910390fd5b5b600360009054906101000a900473ffffffffffffffffffffffffffffffffffffffff1673ffffffffffffffffffffffffffffffffffffffff1663681fe70c6040518163ffffffff1660e01b815260040160206040518083038186803b15801561070457600080fd5b505afa158015610718573d6000803e3d6000fd5b505050506040513d601f19601f8201168201806040525081019061073c9190611174565b15801561074d575061074c6105ab565b5b15610934576000600360009054906101000a900473ffffffffffffffffffffffffffffffffffffffff1673ffffffffffffffffffffffffffffffffffffffff1663957908d16040518163ffffffff1660e01b8152600401602060405180830381600087803b1580156107be57600080fd5b505af11580156107d2573d6000803e3d6000fd5b505050506040513d601f19601f820116820180604052508101906107f6919061114b565b905060006006600081548110610835577f4e487b7100000000000000000000000000000000000000000000000000000000600052603260045260246000fd5b9060005260206000200154905060006005600083815260200190815260200160002054905060008054906101000a900473ffffffffffffffffffffffffffffffffffffffff1673ffffffffffffffffffffffffffffffffffffffff1663f8548e368385846040518463ffffffff1660e01b81526004016108b7939291906115fe565b600060405180830381600087803b1580156108d157600080fd5b505af11580156108e5573d6000803e3d6000fd5b50505050817f913d09b391f64143215d9312fd7e8ecaa06001c646789c9d2109dc515bc34fad848360405161091b9291906114a9565b60405180910390a261092c82610b08565b50505061069c565b565b60015481565b60056020528060005260406000206000915090505481565b600360009054906101000a900473ffffffffffffffffffffffffffffffffffffffff1681565b600260009054906101000a900473ffffffffffffffffffffffffffffffffffffffff1681565b6000600460009054906101000a900473ffffffffffffffffffffffffffffffffffffffff1673ffffffffffffffffffffffffffffffffffffffff1663ee204abb836040518263ffffffff1660e01b81526004016109fd919061148e565b60206040518083038186803b158015610a1557600080fd5b505afa158015610a29573d6000803e3d6000fd5b505050506040513d601f19601f82011682018060405250810190610a4d91906111c6565b9050600360009054906101000a900473ffffffffffffffffffffffffffffffffffffffff1673ffffffffffffffffffffffffffffffffffffffff16630ee0a17d83836040518363ffffffff1660e01b8152600401610aac9291906114a9565b600060405180830381600087803b158015610ac657600080fd5b505af1158015610ada573d6000803e3d6000fd5b505050505050565b600460009054906101000a900473ffffffffffffffffffffffffffffffffffffffff1681565b60008054906101000a900473ffffffffffffffffffffffffffffffffffffffff1673ffffffffffffffffffffffffffffffffffffffff1663f2d03fcf826040518263ffffffff1660e01b8152600401610b6191906115e3565b60206040518083038186803b158015610b7957600080fd5b505afa158015610b8d573d6000803e3d6000fd5b505050506040513d601f19601f82011682018060405250810190610bb1919061114b565b73ffffffffffffffffffffffffffffffffffffffff163373ffffffffffffffffffffffffffffffffffffffff1614610c1e576040517f08c379a0000000000000000000000000000000000000000000000000000000008152600401610c1590611583565b60405180910390fd5b60006005600083815260200190815260200160002081905550807fdb00f3044f762e640c77fdd12df2e7cf2b4c17de34f8995969a4d98b9904af4560405160405180910390a260005b600680549050811015610dc4578160068281548110610caf577f4e487b7100000000000000000000000000000000000000000000000000000000600052603260045260246000fd5b90600052602060002001541415610db15760066001600680549050610cd4919061169c565b81548110610d0b577f4e487b7100000000000000000000000000000000000000000000000000000000600052603260045260246000fd5b906000526020600020015460068281548110610d50577f4e487b7100000000000000000000000000000000000000000000000000000000600052603260045260246000fd5b90600052602060002001819055506006805480610d96577f4e487b7100000000000000000000000000000000000000000000000000000000600052603160045260246000fd5b60019003818190600052602060002001600090559055610dc4565b8080610dbc90611760565b915050610c67565b5050565b600060056000838152602001908152602001600020541415610e1f576040517f08c379a0000000000000000000000000000000000000000000000000000000008152600401610e1690611543565b60405180910390fd5b6005600082815260200190815260200160002054341015610e75576040517f08c379a0000000000000000000000000000000000000000000000000000000008152600401610e6c906115c3565b60405180910390fd5b60008060009054906101000a900473ffffffffffffffffffffffffffffffffffffffff1673ffffffffffffffffffffffffffffffffffffffff1663f2d03fcf836040518263ffffffff1660e01b8152600401610ed191906115e3565b60206040518083038186803b158015610ee957600080fd5b505afa158015610efd573d6000803e3d6000fd5b505050506040513d601f19601f82011682018060405250810190610f21919061114b565b905060006001546005600085815260200190815260200160002054610f46919061169c565b90508173ffffffffffffffffffffffffffffffffffffffff166108fc829081150290604051600060405180830381858888f19350505050158015610f8e573d6000803e3d6000fd5b50827f913d09b391f64143215d9312fd7e8ecaa06001c646789c9d2109dc515bc34fad336005600087815260200190815260200160002054604051610fd49291906114a9565b60405180910390a260008054906101000a900473ffffffffffffffffffffffffffffffffffffffff1673ffffffffffffffffffffffffffffffffffffffff1663f8548e36843360056000888152602001908152602001600020546040518463ffffffff1660e01b815260040161104c939291906115fe565b600060405180830381600087803b15801561106657600080fd5b505af115801561107a573d6000803e3d6000fd5b5050505060006005600085815260200190815260200160002081905550505050565b600060056000838152602001908152602001600020549050919050565b6000813590506110c8816117d8565b92915050565b6000815190506110dd816117d8565b92915050565b6000815190506110f2816117ef565b92915050565b60008135905061110781611806565b92915050565b60008151905061111c81611806565b92915050565b60006020828403121561113457600080fd5b6000611142848285016110b9565b91505092915050565b60006020828403121561115d57600080fd5b600061116b848285016110ce565b91505092915050565b60006020828403121561118657600080fd5b6000611194848285016110e3565b91505092915050565b6000602082840312156111af57600080fd5b60006111bd848285016110f8565b91505092915050565b6000602082840312156111d857600080fd5b60006111e68482850161110d565b91505092915050565b6000806040838503121561120257600080fd5b6000611210858286016110f8565b9250506020611221858286016110f8565b9150509250929050565b611234816116d0565b82525050565b611243816116e2565b82525050565b61125281611718565b82525050565b6112618161173c565b82525050565b6000611274603483611635565b91507f5072696365206d75737420636f76657220746865207469636b6574207072696360008301527f6520616e6420636f6d6d697373696f6e206665650000000000000000000000006020830152604082019050919050565b60006112da601e83611635565b91507f5469636b6574206d757374206265206c697374656420666f722073616c6500006000830152602082019050919050565b600061131a602b83611635565b91507f4f6e6c79207468652070726576696f7573206f776e65722063616e206c69737460008301527f20746865207469636b65740000000000000000000000000000000000000000006020830152604082019050919050565b6000611380602d83611635565b91507f4f6e6c79207468652070726576696f7573206f776e65722063616e20756e6c6960008301527f737420746865207469636b6574000000000000000000000000000000000000006020830152604082019050919050565b60006113e6602483611635565b91507f4f6e6c7920746865206f776e65722063616e2070726f6365737320707572636860008301527f61736573000000000000000000000000000000000000000000000000000000006020830152604082019050919050565b600061144c601483611635565b91507f496e73756666696369656e74207061796d656e740000000000000000000000006000830152602082019050919050565b6114888161170e565b82525050565b60006020820190506114a3600083018461122b565b92915050565b60006040820190506114be600083018561122b565b6114cb602083018461147f565b9392505050565b60006020820190506114e7600083018461123a565b92915050565b60006020820190506115026000830184611249565b92915050565b600060208201905061151d6000830184611258565b92915050565b6000602082019050818103600083015261153c81611267565b9050919050565b6000602082019050818103600083015261155c816112cd565b9050919050565b6000602082019050818103600083015261157c8161130d565b9050919050565b6000602082019050818103600083015261159c81611373565b9050919050565b600060208201905081810360008301526115bc816113d9565b9050919050565b600060208201905081810360008301526115dc8161143f565b9050919050565b60006020820190506115f8600083018461147f565b92915050565b6000606082019050611613600083018661147f565b611620602083018561122b565b61162d604083018461147f565b949350505050565b600082825260208201905092915050565b60006116518261170e565b915061165c8361170e565b9250827fffffffffffffffffffffffffffffffffffffffffffffffffffffffffffffffff03821115611691576116906117a9565b5b828201905092915050565b60006116a78261170e565b91506116b28361170e565b9250828210156116c5576116c46117a9565b5b828203905092915050565b60006116db826116ee565b9050919050565b60008115159050919050565b600073ffffffffffffffffffffffffffffffffffffffff82169050919050565b6000819050919050565b60006117238261172a565b9050919050565b6000611735826116ee565b9050919050565b60006117478261174e565b9050919050565b6000611759826116ee565b9050919050565b600061176b8261170e565b91507fffffffffffffffffffffffffffffffffffffffffffffffffffffffffffffffff82141561179e5761179d6117a9565b5b600182019050919050565b7f4e487b7100000000000000000000000000000000000000000000000000000000600052601160045260246000fd5b6117e1816116d0565b81146117ec57600080fd5b50565b6117f8816116e2565b811461180357600080fd5b50565b61180f8161170e565b811461181a57600080fd5b5056fea2646970667358221220f7b785571e753e8983f9b6b67eb9551a83260dbda222ce74d995ab07ff487f8c64736f6c63430008000033608060405234801561001057600080fd5b5060006040518060400160405280600073ffffffffffffffffffffffffffffffffffffffff1681526020016000815250908060018154018082558091505060019003906000526020600020906002020160009091909190915060008201518160000160006101000a81548173ffffffffffffffffffffffffffffffffffffffff021916908373ffffffffffffffffffffffffffffffffffffffff1602179055506020820151816001015550506000600181905550610f64806100d36000396000f3fe608060405234801561001057600080fd5b506004361061004c5760003560e01c80630ee0a17d14610051578063681fe70c1461006d578063949d225d1461008b578063957908d1146100a9575b600080fd5b61006b60048036038101906100669190610bdb565b6100c7565b005b61007561019d565b6040516100829190610c9f565b60405180910390f35b6100936101a9565b6040516100a09190610cda565b60405180910390f35b6100b16101af565b6040516100be9190610c84565b60405180910390f35b600060405180604001604052808473ffffffffffffffffffffffffffffffffffffffff168152602001838152509050600081908060018154018082558091505060019003906000526020600020906002020160009091909190915060008201518160000160006101000a81548173ffffffffffffffffffffffffffffffffffffffff021916908373ffffffffffffffffffffffffffffffffffffffff1602179055506020820151816001015550506001600081548092919061018890610e59565b9190505550610198600154610471565b505050565b60008060015414905090565b60015481565b600080600154116101f5576040517f08c379a00000000000000000000000000000000000000000000000000000000081526004016101ec90610cba565b60405180910390fd5b600080600181548110610231577f4e487b7100000000000000000000000000000000000000000000000000000000600052603260045260246000fd5b906000526020600020906002020160000160009054906101000a900473ffffffffffffffffffffffffffffffffffffffff169050600080600154815481106102a2577f4e487b7100000000000000000000000000000000000000000000000000000000600052603260045260246000fd5b90600052602060002090600202016040518060400160405290816000820160009054906101000a900473ffffffffffffffffffffffffffffffffffffffff1673ffffffffffffffffffffffffffffffffffffffff1673ffffffffffffffffffffffffffffffffffffffff1681526020016001820154815250509050806000600181548110610359577f4e487b7100000000000000000000000000000000000000000000000000000000600052603260045260246000fd5b906000526020600020906002020160008201518160000160006101000a81548173ffffffffffffffffffffffffffffffffffffffff021916908373ffffffffffffffffffffffffffffffffffffffff1602179055506020820151816001015590505060008054806103f3577f4e487b7100000000000000000000000000000000000000000000000000000000600052603160045260246000fd5b6001900381819060005260206000209060020201600080820160006101000a81549073ffffffffffffffffffffffffffffffffffffffff02191690556001820160009055505090556001600081548092919061044e90610e2f565b9190505550600060015411156104695761046860016107af565b5b819250505090565b5b6001811180156105235750600081815481106104b7577f4e487b7100000000000000000000000000000000000000000000000000000000600052603260045260246000fd5b90600052602060002090600202016001015460006002836104d89190610d5c565b8154811061050f577f4e487b7100000000000000000000000000000000000000000000000000000000600052603260045260246000fd5b906000526020600020906002020160010154115b156107ac576000806002836105389190610d5c565b8154811061056f577f4e487b7100000000000000000000000000000000000000000000000000000000600052603260045260246000fd5b90600052602060002090600202016040518060400160405290816000820160009054906101000a900473ffffffffffffffffffffffffffffffffffffffff1673ffffffffffffffffffffffffffffffffffffffff1673ffffffffffffffffffffffffffffffffffffffff168152602001600182015481525050905060008281548110610624577f4e487b7100000000000000000000000000000000000000000000000000000000600052603260045260246000fd5b906000526020600020906002020160006002846106419190610d5c565b81548110610678577f4e487b7100000000000000000000000000000000000000000000000000000000600052603260045260246000fd5b90600052602060002090600202016000820160009054906101000a900473ffffffffffffffffffffffffffffffffffffffff168160000160006101000a81548173ffffffffffffffffffffffffffffffffffffffff021916908373ffffffffffffffffffffffffffffffffffffffff160217905550600182015481600101559050508060008381548110610735577f4e487b7100000000000000000000000000000000000000000000000000000000600052603260045260246000fd5b906000526020600020906002020160008201518160000160006101000a81548173ffffffffffffffffffffffffffffffffffffffff021916908373ffffffffffffffffffffffffffffffffffffffff160217905550602082015181600101559050506002826107a49190610d5c565b915050610472565b50565b600081905060008260026107c39190610d8d565b9050600060018460026107d69190610d8d565b6107e09190610d06565b90506001548211158015610889575060008381548110610829577f4e487b7100000000000000000000000000000000000000000000000000000000600052603260045260246000fd5b90600052602060002090600202016001015460008381548110610875577f4e487b7100000000000000000000000000000000000000000000000000000000600052603260045260246000fd5b906000526020600020906002020160010154105b15610892578192505b60015481111580156109395750600083815481106108d9577f4e487b7100000000000000000000000000000000000000000000000000000000600052603260045260246000fd5b90600052602060002090600202016001015460008281548110610925577f4e487b7100000000000000000000000000000000000000000000000000000000600052603260045260246000fd5b906000526020600020906002020160010154105b15610942578092505b838314610bab576000808581548110610984577f4e487b7100000000000000000000000000000000000000000000000000000000600052603260045260246000fd5b90600052602060002090600202016040518060400160405290816000820160009054906101000a900473ffffffffffffffffffffffffffffffffffffffff1673ffffffffffffffffffffffffffffffffffffffff1673ffffffffffffffffffffffffffffffffffffffff168152602001600182015481525050905060008481548110610a39577f4e487b7100000000000000000000000000000000000000000000000000000000600052603260045260246000fd5b906000526020600020906002020160008681548110610a81577f4e487b7100000000000000000000000000000000000000000000000000000000600052603260045260246000fd5b90600052602060002090600202016000820160009054906101000a900473ffffffffffffffffffffffffffffffffffffffff168160000160006101000a81548173ffffffffffffffffffffffffffffffffffffffff021916908373ffffffffffffffffffffffffffffffffffffffff160217905550600182015481600101559050508060008581548110610b3e577f4e487b7100000000000000000000000000000000000000000000000000000000600052603260045260246000fd5b906000526020600020906002020160008201518160000160006101000a81548173ffffffffffffffffffffffffffffffffffffffff021916908373ffffffffffffffffffffffffffffffffffffffff16021790555060208201518160010155905050610ba9846107af565b505b50505050565b600081359050610bc081610f00565b92915050565b600081359050610bd581610f17565b92915050565b60008060408385031215610bee57600080fd5b6000610bfc85828601610bb1565b9250506020610c0d85828601610bc6565b9150509250929050565b610c2081610de7565b82525050565b610c2f81610df9565b82525050565b6000610c42600e83610cf5565b91507f517565756520697320656d7074790000000000000000000000000000000000006000830152602082019050919050565b610c7e81610e25565b82525050565b6000602082019050610c996000830184610c17565b92915050565b6000602082019050610cb46000830184610c26565b92915050565b60006020820190508181036000830152610cd381610c35565b9050919050565b6000602082019050610cef6000830184610c75565b92915050565b600082825260208201905092915050565b6000610d1182610e25565b9150610d1c83610e25565b9250827fffffffffffffffffffffffffffffffffffffffffffffffffffffffffffffffff03821115610d5157610d50610ea2565b5b828201905092915050565b6000610d6782610e25565b9150610d7283610e25565b925082610d8257610d81610ed1565b5b828204905092915050565b6000610d9882610e25565b9150610da383610e25565b9250817fffffffffffffffffffffffffffffffffffffffffffffffffffffffffffffffff0483118215151615610ddc57610ddb610ea2565b5b828202905092915050565b6000610df282610e05565b9050919050565b60008115159050919050565b600073ffffffffffffffffffffffffffffffffffffffff82169050919050565b6000819050919050565b6000610e3a82610e25565b91506000821415610e4e57610e4d610ea2565b5b600182039050919050565b6000610e6482610e25565b91507fffffffffffffffffffffffffffffffffffffffffffffffffffffffffffffffff821415610e9757610e96610ea2565b5b600182019050919050565b7f4e487b7100000000000000000000000000000000000000000000000000000000600052601160045260246000fd5b7f4e487b7100000000000000000000000000000000000000000000000000000000600052601260045260246000fd5b610f0981610de7565b8114610f1457600080fd5b50565b610f2081610e25565b8114610f2b57600080fd5b5056fea2646970667358221220f7c2832ba848f806bba66d263947f688b5c2d56dd36b5f81627daa33bb25d75c64736f6c63430008000033",
  "immutableReferences": {},
  "source": "// SPDX-License-Identifier: MIT\r\npragma solidity ^0.8.0;\r\n\r\nimport \"./Ticket.sol\";\r\nimport \"./PriorityQueue.sol\";\r\nimport \"./LoyaltyPoints.sol\";\r\n\r\ncontract TicketMarket {\r\n    Ticket ticketContract;\r\n    uint256 public commissionFee;\r\n    address public owner;\r\n    PriorityQueue public buyerQueue;\r\n    LoyaltyPoints public loyaltyPoints;\r\n\r\n    mapping(uint256 => uint256) public listPrice;\r\n\r\n    uint256[] private listedTickets; // To track listed ticket IDs\r\n\r\n    // Event emitted when a ticket is listed for sale\r\n    event TicketListed(uint256 indexed id, uint256 price);\r\n\r\n    // Event emitted when a ticket is unlisted\r\n    event TicketUnlisted(uint256 indexed id);\r\n\r\n    // Event emitted when a ticket is bought\r\n    event TicketBought(uint256 indexed id, address buyer, uint256 price);\r\n\r\n    // Event emitted when a ticket is transferred\r\n    event TicketTransferred(\r\n        uint256 indexed id,\r\n        address from,\r\n        address to,\r\n        uint256 price\r\n    );\r\n\r\n    constructor(\r\n        Ticket ticketAddress,\r\n        uint256 fee,\r\n        address _loyaltyPointsAddress\r\n    ) {\r\n        ticketContract = ticketAddress;\r\n        commissionFee = fee;\r\n        owner = msg.sender;\r\n        loyaltyPoints = LoyaltyPoints(_loyaltyPointsAddress);\r\n        buyerQueue = new PriorityQueue();\r\n    }\r\n\r\n    // List a ticket for sale. Price needs to be >= value + fee\r\n    function list(uint256 id, uint256 price) public {\r\n        require(\r\n            price >= ticketContract.getPrice(id) + commissionFee,\r\n            \"Price must cover the ticket price and commission fee\"\r\n        );\r\n        require(\r\n            msg.sender == ticketContract.getPrevOwner(id),\r\n            \"Only the previous owner can list the ticket\"\r\n        );\r\n        listPrice[id] = price;\r\n        listedTickets.push(id); // Add ticket ID to the list of listed tickets\r\n        emit TicketListed(id, price); // Emit event for ticket listing\r\n    }\r\n\r\n    function unlist(uint256 id) public {\r\n        require(\r\n            msg.sender == ticketContract.getPrevOwner(id),\r\n            \"Only the previous owner can unlist the ticket\"\r\n        );\r\n        listPrice[id] = 0;\r\n        emit TicketUnlisted(id); // Emit event for ticket unlisting\r\n\r\n        // Remove the ticket ID from listedTickets\r\n        for (uint256 i = 0; i < listedTickets.length; i++) {\r\n            if (listedTickets[i] == id) {\r\n                listedTickets[i] = listedTickets[listedTickets.length - 1]; // Move the last element to the current index\r\n                listedTickets.pop(); // Remove the last element\r\n                break; // Exit the loop once the ticket ID is removed\r\n            }\r\n        }\r\n    }\r\n\r\n    // Get price of ticket\r\n    function getTicketPrice(uint256 id) public view returns (uint256) {\r\n        return listPrice[id];\r\n    }\r\n\r\n    //Addition of PriorityQueue\r\n    //add buyers to the PriorityQueue instead of immediately processing the purchase\r\n    function requestTicketPurchase(address buyer) public {\r\n        uint points = loyaltyPoints.getPoints(buyer);\r\n        buyerQueue.enqueue(buyer, points);\r\n    }\r\n\r\n    function processTicketPurchases() public {\r\n        require(msg.sender == owner, \"Only the owner can process purchases\");\r\n\r\n        while (!buyerQueue.isEmpty() && thereAreTicketsAvailable()) {\r\n            address buyer = buyerQueue.dequeue();\r\n\r\n            // For simplicity, we attempt to purchase the first available ticket.\r\n            uint256 ticketId = listedTickets[0];\r\n\r\n            uint256 ticketPrice = listPrice[ticketId];\r\n\r\n            // Transfer the ticket and emit an event.\r\n            ticketContract.transfer(ticketId, buyer, ticketPrice);\r\n            emit TicketBought(ticketId, buyer, ticketPrice);\r\n\r\n            // Remove the ticket from the listing.\r\n            unlist(ticketId);\r\n        }\r\n    }\r\n\r\n    // Buy the ticket at the requested price\r\n    function buy(uint256 id) public payable {\r\n        // Check if the ticket is listed for sale\r\n        require(listPrice[id] != 0, \"Ticket must be listed for sale\");\r\n        // Check if payment is enough\r\n        require(msg.value >= listPrice[id], \"Insufficient payment\");\r\n\r\n        address payable recipient = payable(ticketContract.getPrevOwner(id));\r\n\r\n        // Calculate the amount to transfer to the ticket owner after deducting the commission fee\r\n        uint256 amountToTransfer = listPrice[id] - commissionFee;\r\n        // Transfer payment to the ticket owner after deducting the commission fee\r\n        recipient.transfer(amountToTransfer);\r\n\r\n        // Emit event for ticket purchase\r\n        emit TicketBought(id, msg.sender, listPrice[id]);\r\n\r\n        // Transfer ownership of the ticket\r\n        ticketContract.transfer(id, msg.sender, listPrice[id]);\r\n\r\n        // Remove the ticket from the listing after purchase\r\n        listPrice[id] = 0;\r\n    }\r\n\r\n    /*function withdraw() public {\r\n        require(msg.sender == owner, \"Only the owner can withdraw funds\");\r\n        payable(owner).transfer(address(this).balance);\r\n    }*/\r\n\r\n    function thereAreTicketsAvailable() public view returns (bool) {\r\n        uint256 availableTickets = 0;\r\n        for (uint256 i = 0; i < listedTickets.length; i++) {\r\n            if (listPrice[i] > 0) {\r\n                availableTickets++;\r\n            }\r\n        }\r\n        return availableTickets > 0;\r\n    }\r\n\r\n    // get price of ticket\r\n    function checkPrice(uint256 id) public view returns (uint256) {\r\n        return listPrice[id];\r\n    }\r\n}\r\n",
  "sourcePath": "C:\\Users\\tngjo\\OneDrive\\Desktop\\GitHub\\IS4302-Decentralized-Event-Ticketing-System\\contracts\\TicketMarket.sol",
  "compiler": {
    "name": "solc",
    "version": "0.8.0+commit.c7dfd78e.Emscripten.clang"
  },
  "schemaVersion": "3.4.16",
  "updatedAt": "2024-03-21T06:59:51.288Z",
  "networkType": "ethereum",
  "devdoc": {
    "kind": "dev",
    "methods": {},
    "version": 1
  },
  "userdoc": {
    "kind": "user",
    "methods": {},
    "version": 1
  }
}