{
  "contractName": "Ticket",
  "abi": [
    {
      "inputs": [
        {
          "internalType": "address",
          "name": "_ticketToken",
          "type": "address"
        }
      ],
      "stateMutability": "nonpayable",
      "type": "constructor"
    },
    {
      "anonymous": false,
      "inputs": [
        {
          "indexed": false,
          "internalType": "uint256",
          "name": "ticketId",
          "type": "uint256"
        },
        {
          "indexed": false,
          "internalType": "address",
          "name": "newOwner",
          "type": "address"
        },
        {
          "indexed": false,
          "internalType": "uint256",
          "name": "price",
          "type": "uint256"
        }
      ],
      "name": "TicketBought",
      "type": "event"
    },
    {
      "anonymous": false,
      "inputs": [
        {
          "indexed": true,
          "internalType": "uint256",
          "name": "ticketId",
          "type": "uint256"
        },
        {
          "indexed": false,
          "internalType": "address",
          "name": "owner",
          "type": "address"
        }
      ],
      "name": "TicketCreated",
      "type": "event"
    },
    {
      "anonymous": false,
      "inputs": [
        {
          "indexed": false,
          "internalType": "uint256",
          "name": "ticketId",
          "type": "uint256"
        }
      ],
      "name": "TicketFrozen",
      "type": "event"
    },
    {
      "anonymous": false,
      "inputs": [
        {
          "indexed": false,
          "internalType": "uint256",
          "name": "ticketId",
          "type": "uint256"
        }
      ],
      "name": "TicketRedeemed",
      "type": "event"
    },
    {
      "inputs": [],
      "name": "owner",
      "outputs": [
        {
          "internalType": "address",
          "name": "",
          "type": "address"
        }
      ],
      "stateMutability": "view",
      "type": "function",
      "constant": true
    },
    {
      "inputs": [],
      "name": "ticketCounter",
      "outputs": [
        {
          "internalType": "uint256",
          "name": "",
          "type": "uint256"
        }
      ],
      "stateMutability": "view",
      "type": "function",
      "constant": true
    },
    {
      "inputs": [],
      "name": "ticketToken",
      "outputs": [
        {
          "internalType": "contract TicketToken",
          "name": "",
          "type": "address"
        }
      ],
      "stateMutability": "view",
      "type": "function",
      "constant": true
    },
    {
      "inputs": [
        {
          "internalType": "uint256",
          "name": "",
          "type": "uint256"
        }
      ],
      "name": "tickets",
      "outputs": [
        {
          "internalType": "uint256",
          "name": "ticketId",
          "type": "uint256"
        },
        {
          "internalType": "uint256",
          "name": "concertId",
          "type": "uint256"
        },
        {
          "internalType": "string",
          "name": "concertName",
          "type": "string"
        },
        {
          "internalType": "string",
          "name": "concertVenue",
          "type": "string"
        },
        {
          "internalType": "uint256",
          "name": "concertDate",
          "type": "uint256"
        },
        {
          "internalType": "string",
          "name": "ticketCategory",
          "type": "string"
        },
        {
          "internalType": "uint256",
          "name": "ticketSectionNo",
          "type": "uint256"
        },
        {
          "internalType": "uint256",
          "name": "ticketSeatNo",
          "type": "uint256"
        },
        {
          "internalType": "enum Ticket.TicketState",
          "name": "ticketState",
          "type": "uint8"
        },
        {
          "internalType": "address",
          "name": "owner",
          "type": "address"
        },
        {
          "internalType": "address",
          "name": "prevOwner",
          "type": "address"
        },
        {
          "internalType": "uint256",
          "name": "price",
          "type": "uint256"
        }
      ],
      "stateMutability": "view",
      "type": "function",
      "constant": true
    },
    {
      "inputs": [
        {
          "internalType": "uint256",
          "name": "concertId",
          "type": "uint256"
        },
        {
          "internalType": "string",
          "name": "concertName",
          "type": "string"
        },
        {
          "internalType": "string",
          "name": "concertVenue",
          "type": "string"
        },
        {
          "internalType": "uint256",
          "name": "concertDate",
          "type": "uint256"
        },
        {
          "internalType": "string",
          "name": "ticketCategory",
          "type": "string"
        },
        {
          "internalType": "uint256",
          "name": "ticketSectionNo",
          "type": "uint256"
        },
        {
          "internalType": "uint256",
          "name": "ticketSeatNo",
          "type": "uint256"
        },
        {
          "internalType": "uint256",
          "name": "price",
          "type": "uint256"
        }
      ],
      "name": "createTicket",
      "outputs": [
        {
          "internalType": "uint256",
          "name": "",
          "type": "uint256"
        }
      ],
      "stateMutability": "nonpayable",
      "type": "function"
    },
    {
      "inputs": [
        {
          "internalType": "uint256",
          "name": "_ticketId",
          "type": "uint256"
        }
      ],
      "name": "redeemTicket",
      "outputs": [],
      "stateMutability": "nonpayable",
      "type": "function"
    },
    {
      "inputs": [
        {
          "internalType": "uint256",
          "name": "_ticketId",
          "type": "uint256"
        }
      ],
      "name": "freezeTicket",
      "outputs": [],
      "stateMutability": "nonpayable",
      "type": "function"
    },
    {
      "inputs": [
        {
          "internalType": "uint256",
          "name": "ticketId",
          "type": "uint256"
        },
        {
          "internalType": "address",
          "name": "newOwner",
          "type": "address"
        }
      ],
      "name": "transfer",
      "outputs": [],
      "stateMutability": "nonpayable",
      "type": "function"
    },
    {
      "inputs": [
        {
          "internalType": "uint256",
          "name": "ticketId",
          "type": "uint256"
        }
      ],
      "name": "getTicketId",
      "outputs": [
        {
          "internalType": "uint256",
          "name": "",
          "type": "uint256"
        }
      ],
      "stateMutability": "view",
      "type": "function",
      "constant": true
    },
    {
      "inputs": [
        {
          "internalType": "uint256",
          "name": "ticketId",
          "type": "uint256"
        }
      ],
      "name": "getConcertId",
      "outputs": [
        {
          "internalType": "uint256",
          "name": "",
          "type": "uint256"
        }
      ],
      "stateMutability": "view",
      "type": "function",
      "constant": true
    },
    {
      "inputs": [
        {
          "internalType": "uint256",
          "name": "ticketId",
          "type": "uint256"
        }
      ],
      "name": "getConcertName",
      "outputs": [
        {
          "internalType": "string",
          "name": "",
          "type": "string"
        }
      ],
      "stateMutability": "view",
      "type": "function",
      "constant": true
    },
    {
      "inputs": [
        {
          "internalType": "uint256",
          "name": "ticketId",
          "type": "uint256"
        }
      ],
      "name": "getConcertVenue",
      "outputs": [
        {
          "internalType": "string",
          "name": "",
          "type": "string"
        }
      ],
      "stateMutability": "view",
      "type": "function",
      "constant": true
    },
    {
      "inputs": [
        {
          "internalType": "uint256",
          "name": "ticketId",
          "type": "uint256"
        }
      ],
      "name": "getConcertDate",
      "outputs": [
        {
          "internalType": "uint256",
          "name": "",
          "type": "uint256"
        }
      ],
      "stateMutability": "view",
      "type": "function",
      "constant": true
    },
    {
      "inputs": [
        {
          "internalType": "uint256",
          "name": "ticketId",
          "type": "uint256"
        }
      ],
      "name": "getTicketCategory",
      "outputs": [
        {
          "internalType": "string",
          "name": "",
          "type": "string"
        }
      ],
      "stateMutability": "view",
      "type": "function",
      "constant": true
    },
    {
      "inputs": [
        {
          "internalType": "uint256",
          "name": "ticketId",
          "type": "uint256"
        }
      ],
      "name": "getTicketSectionNo",
      "outputs": [
        {
          "internalType": "uint256",
          "name": "",
          "type": "uint256"
        }
      ],
      "stateMutability": "view",
      "type": "function",
      "constant": true
    },
    {
      "inputs": [
        {
          "internalType": "uint256",
          "name": "ticketId",
          "type": "uint256"
        }
      ],
      "name": "getTicketSeatNo",
      "outputs": [
        {
          "internalType": "uint256",
          "name": "",
          "type": "uint256"
        }
      ],
      "stateMutability": "view",
      "type": "function",
      "constant": true
    },
    {
      "inputs": [
        {
          "internalType": "uint256",
          "name": "ticketId",
          "type": "uint256"
        }
      ],
      "name": "getTicketState",
      "outputs": [
        {
          "internalType": "enum Ticket.TicketState",
          "name": "",
          "type": "uint8"
        }
      ],
      "stateMutability": "view",
      "type": "function",
      "constant": true
    },
    {
      "inputs": [
        {
          "internalType": "uint256",
          "name": "ticketId",
          "type": "uint256"
        }
      ],
      "name": "getOwner",
      "outputs": [
        {
          "internalType": "address",
          "name": "",
          "type": "address"
        }
      ],
      "stateMutability": "view",
      "type": "function",
      "constant": true
    },
    {
      "inputs": [
        {
          "internalType": "uint256",
          "name": "ticketId",
          "type": "uint256"
        }
      ],
      "name": "getPrevOwner",
      "outputs": [
        {
          "internalType": "address",
          "name": "",
          "type": "address"
        }
      ],
      "stateMutability": "view",
      "type": "function",
      "constant": true
    },
    {
      "inputs": [
        {
          "internalType": "uint256",
          "name": "ticketId",
          "type": "uint256"
        }
      ],
      "name": "getPrice",
      "outputs": [
        {
          "internalType": "uint256",
          "name": "",
          "type": "uint256"
        }
      ],
      "stateMutability": "view",
      "type": "function",
      "constant": true
    }
  ],
  "bytecode": "0x608060405260006002553480156200001657600080fd5b50604051620022193803806200221983398181016040528101906200003c9190620000dc565b33600360006101000a81548173ffffffffffffffffffffffffffffffffffffffff021916908373ffffffffffffffffffffffffffffffffffffffff16021790555080600160006101000a81548173ffffffffffffffffffffffffffffffffffffffff021916908373ffffffffffffffffffffffffffffffffffffffff1602179055505062000156565b600081519050620000d6816200013c565b92915050565b600060208284031215620000ef57600080fd5b6000620000ff84828501620000c5565b91505092915050565b600062000115826200011c565b9050919050565b600073ffffffffffffffffffffffffffffffffffffffff82169050919050565b620001478162000108565b81146200015357600080fd5b50565b6120b380620001666000396000f3fe608060405234801561001057600080fd5b506004361061012c5760003560e01c80638c4d59d0116100ad578063c41a360a11610071578063c41a360a146103ac578063d5ed4d5a146103dc578063dba4a8df146103fa578063e75722301461042a578063f2d03fcf1461045a5761012c565b80638c4d59d0146102f45780638da5cb5b14610312578063a0426f7c14610330578063b7760c8f14610360578063bcc798221461037c5761012c565b806350b44712116100f457806350b44712146101f95780636482db3f146102345780636c5c74b81461026457806371d69ef01461029457806386db5b23146102c45761012c565b806307f44b8b1461013157806315f59d7f1461016157806316086c981461017d57806316c15c0c146101995780634f44d7b6146101c9575b600080fd5b61014b6004803603810190610146919061185a565b61048a565b6040516101589190611c8e565b60405180910390f35b61017b600480360381019061017691906117f5565b6107d1565b005b610197600480360381019061019291906117f5565b61097f565b005b6101b360048036038101906101ae91906117f5565b610b3c565b6040516101c09190611c8e565b60405180910390f35b6101e360048036038101906101de91906117f5565b610ba1565b6040516101f09190611bcc565b60405180910390f35b610213600480360381019061020e91906117f5565b610c8e565b60405161022b9c9b9a99989796959493929190611ce0565b60405180910390f35b61024e600480360381019061024991906117f5565b610ed3565b60405161025b9190611bb1565b60405180910390f35b61027e600480360381019061027991906117f5565b610f45565b60405161028b9190611c8e565b60405180910390f35b6102ae60048036038101906102a991906117f5565b610faa565b6040516102bb9190611c8e565b60405180910390f35b6102de60048036038101906102d991906117f5565b61100f565b6040516102eb9190611c8e565b60405180910390f35b6102fc611074565b6040516103099190611c8e565b60405180910390f35b61031a61107a565b6040516103279190611b7b565b60405180910390f35b61034a600480360381019061034591906117f5565b6110a0565b6040516103579190611bcc565b60405180910390f35b61037a6004803603810190610375919061181e565b61118d565b005b610396600480360381019061039191906117f5565b6113d9565b6040516103a39190611bcc565b60405180910390f35b6103c660048036038101906103c191906117f5565b6114c6565b6040516103d39190611b7b565b60405180910390f35b6103e461154b565b6040516103f19190611b96565b60405180910390f35b610414600480360381019061040f91906117f5565b611571565b6040516104219190611c8e565b60405180910390f35b610444600480360381019061043f91906117f5565b6115d6565b6040516104519190611c8e565b60405180910390f35b610474600480360381019061046f91906117f5565b61163b565b6040516104819190611b7b565b60405180910390f35b6000600360009054906101000a900473ffffffffffffffffffffffffffffffffffffffff1673ffffffffffffffffffffffffffffffffffffffff163373ffffffffffffffffffffffffffffffffffffffff161461051c576040517f08c379a000000000000000000000000000000000000000000000000000000000815260040161051390611c2e565b60405180910390fd5b600060405180610180016040528060025481526020018b81526020018a815260200189815260200188815260200187815260200186815260200185815260200160006002811115610596577f4e487b7100000000000000000000000000000000000000000000000000000000600052602160045260246000fd5b81526020013373ffffffffffffffffffffffffffffffffffffffff168152602001600073ffffffffffffffffffffffffffffffffffffffff1681526020018481525090506000600260008154809291906105ef90611f25565b91905055905081600080838152602001908152602001600020600082015181600001556020820151816001015560408201518160020190805190602001906106389291906116c0565b5060608201518160030190805190602001906106559291906116c0565b506080820151816004015560a082015181600501908051906020019061067c9291906116c0565b5060c0820151816006015560e082015181600701556101008201518160080160006101000a81548160ff021916908360028111156106e3577f4e487b7100000000000000000000000000000000000000000000000000000000600052602160045260246000fd5b02179055506101208201518160080160016101000a81548173ffffffffffffffffffffffffffffffffffffffff021916908373ffffffffffffffffffffffffffffffffffffffff1602179055506101408201518160090160006101000a81548173ffffffffffffffffffffffffffffffffffffffff021916908373ffffffffffffffffffffffffffffffffffffffff16021790555061016082015181600a01559050506002547f960fa3b53d2527c64fb943b9502a4541b1137488cb027f95b36b06b44d10fedc336040516107b89190611b7b565b60405180910390a2809250505098975050505050505050565b806002548110610816576040517f08c379a000000000000000000000000000000000000000000000000000000000815260040161080d90611bee565b60405180910390fd5b6000806000848152602001908152602001600020905060006002811115610866577f4e487b7100000000000000000000000000000000000000000000000000000000600052602160045260246000fd5b8160080160009054906101000a900460ff1660028111156108b0577f4e487b7100000000000000000000000000000000000000000000000000000000600052602160045260246000fd5b146108f0576040517f08c379a00000000000000000000000000000000000000000000000000000000081526004016108e790611c0e565b60405180910390fd5b60018160080160006101000a81548160ff0219169083600281111561093e577f4e487b7100000000000000000000000000000000000000000000000000000000600052602160045260246000fd5b02179055507fb0ebd5f2f7c40ca5715d8deab780894f023a63bc249fc45e69df6acbc4e8b568836040516109729190611c8e565b60405180910390a1505050565b8060008060028111156109bb577f4e487b7100000000000000000000000000000000000000000000000000000000600052602160045260246000fd5b60008084815260200190815260200160002060080160009054906101000a900460ff166002811115610a16577f4e487b7100000000000000000000000000000000000000000000000000000000600052602160045260246000fd5b14610a56576040517f08c379a0000000000000000000000000000000000000000000000000000000008152600401610a4d90611c4e565b60405180910390fd5b826002548110610a9b576040517f08c379a0000000000000000000000000000000000000000000000000000000008152600401610a9290611bee565b60405180910390fd5b600260008086815260200190815260200160002060080160006101000a81548160ff02191690836002811115610afa577f4e487b7100000000000000000000000000000000000000000000000000000000600052602160045260246000fd5b02179055507f5f9fbbc6b6aee5534f63c42109bdd37181fe2ce563b4c54322b4d7b6910393df84604051610b2e9190611c8e565b60405180910390a150505050565b6000816002548110610b83576040517f08c379a0000000000000000000000000000000000000000000000000000000008152600401610b7a90611bee565b60405180910390fd5b60008084815260200190815260200160002060040154915050919050565b6060816002548110610be8576040517f08c379a0000000000000000000000000000000000000000000000000000000008152600401610bdf90611bee565b60405180910390fd5b6000808481526020019081526020016000206002018054610c0890611ef3565b80601f0160208091040260200160405190810160405280929190818152602001828054610c3490611ef3565b8015610c815780601f10610c5657610100808354040283529160200191610c81565b820191906000526020600020905b815481529060010190602001808311610c6457829003601f168201915b5050505050915050919050565b6000602052806000526040600020600091509050806000015490806001015490806002018054610cbd90611ef3565b80601f0160208091040260200160405190810160405280929190818152602001828054610ce990611ef3565b8015610d365780601f10610d0b57610100808354040283529160200191610d36565b820191906000526020600020905b815481529060010190602001808311610d1957829003601f168201915b505050505090806003018054610d4b90611ef3565b80601f0160208091040260200160405190810160405280929190818152602001828054610d7790611ef3565b8015610dc45780601f10610d9957610100808354040283529160200191610dc4565b820191906000526020600020905b815481529060010190602001808311610da757829003601f168201915b505050505090806004015490806005018054610ddf90611ef3565b80601f0160208091040260200160405190810160405280929190818152602001828054610e0b90611ef3565b8015610e585780601f10610e2d57610100808354040283529160200191610e58565b820191906000526020600020905b815481529060010190602001808311610e3b57829003601f168201915b5050505050908060060154908060070154908060080160009054906101000a900460ff16908060080160019054906101000a900473ffffffffffffffffffffffffffffffffffffffff16908060090160009054906101000a900473ffffffffffffffffffffffffffffffffffffffff169080600a015490508c565b6000816002548110610f1a576040517f08c379a0000000000000000000000000000000000000000000000000000000008152600401610f1190611bee565b60405180910390fd5b60008084815260200190815260200160002060080160009054906101000a900460ff16915050919050565b6000816002548110610f8c576040517f08c379a0000000000000000000000000000000000000000000000000000000008152600401610f8390611bee565b60405180910390fd5b60008084815260200190815260200160002060060154915050919050565b6000816002548110610ff1576040517f08c379a0000000000000000000000000000000000000000000000000000000008152600401610fe890611bee565b60405180910390fd5b60008084815260200190815260200160002060070154915050919050565b6000816002548110611056576040517f08c379a000000000000000000000000000000000000000000000000000000000815260040161104d90611bee565b60405180910390fd5b60008084815260200190815260200160002060010154915050919050565b60025481565b600360009054906101000a900473ffffffffffffffffffffffffffffffffffffffff1681565b60608160025481106110e7576040517f08c379a00000000000000000000000000000000000000000000000000000000081526004016110de90611bee565b60405180910390fd5b600080848152602001908152602001600020600501805461110790611ef3565b80601f016020809104026020016040519081016040528092919081815260200182805461113390611ef3565b80156111805780601f1061115557610100808354040283529160200191611180565b820191906000526020600020905b81548152906001019060200180831161116357829003601f168201915b5050505050915050919050565b8160025481106111d2576040517f08c379a00000000000000000000000000000000000000000000000000000000081526004016111c990611bee565b60405180910390fd5b6000600281111561120c577f4e487b7100000000000000000000000000000000000000000000000000000000600052602160045260246000fd5b60008085815260200190815260200160002060080160009054906101000a900460ff166002811115611267577f4e487b7100000000000000000000000000000000000000000000000000000000600052602160045260246000fd5b146112a7576040517f08c379a000000000000000000000000000000000000000000000000000000000815260040161129e90611c6e565b60405180910390fd5b60008084815260200190815260200160002060080160019054906101000a900473ffffffffffffffffffffffffffffffffffffffff1660008085815260200190815260200160002060090160006101000a81548173ffffffffffffffffffffffffffffffffffffffff021916908373ffffffffffffffffffffffffffffffffffffffff1602179055508160008085815260200190815260200160002060080160016101000a81548173ffffffffffffffffffffffffffffffffffffffff021916908373ffffffffffffffffffffffffffffffffffffffff1602179055507f913d09b391f64143215d9312fd7e8ecaa06001c646789c9d2109dc515bc34fad8383600080878152602001908152602001600020600a01546040516113cc93929190611ca9565b60405180910390a1505050565b6060816002548110611420576040517f08c379a000000000000000000000000000000000000000000000000000000000815260040161141790611bee565b60405180910390fd5b600080848152602001908152602001600020600301805461144090611ef3565b80601f016020809104026020016040519081016040528092919081815260200182805461146c90611ef3565b80156114b95780601f1061148e576101008083540402835291602001916114b9565b820191906000526020600020905b81548152906001019060200180831161149c57829003601f168201915b5050505050915050919050565b600081600254811061150d576040517f08c379a000000000000000000000000000000000000000000000000000000000815260040161150490611bee565b60405180910390fd5b60008084815260200190815260200160002060080160019054906101000a900473ffffffffffffffffffffffffffffffffffffffff16915050919050565b600160009054906101000a900473ffffffffffffffffffffffffffffffffffffffff1681565b60008160025481106115b8576040517f08c379a00000000000000000000000000000000000000000000000000000000081526004016115af90611bee565b60405180910390fd5b60008084815260200190815260200160002060000154915050919050565b600081600254811061161d576040517f08c379a000000000000000000000000000000000000000000000000000000000815260040161161490611bee565b60405180910390fd5b600080848152602001908152602001600020600a0154915050919050565b6000816002548110611682576040517f08c379a000000000000000000000000000000000000000000000000000000000815260040161167990611bee565b60405180910390fd5b60008084815260200190815260200160002060090160009054906101000a900473ffffffffffffffffffffffffffffffffffffffff16915050919050565b8280546116cc90611ef3565b90600052602060002090601f0160209004810192826116ee5760008555611735565b82601f1061170757805160ff1916838001178555611735565b82800160010185558215611735579182015b82811115611734578251825591602001919060010190611719565b5b5090506117429190611746565b5090565b5b8082111561175f576000816000905550600101611747565b5090565b600061177661177184611de0565b611daf565b90508281526020810184848401111561178e57600080fd5b611799848285611eb1565b509392505050565b6000813590506117b08161204f565b92915050565b600082601f8301126117c757600080fd5b81356117d7848260208601611763565b91505092915050565b6000813590506117ef81612066565b92915050565b60006020828403121561180757600080fd5b6000611815848285016117e0565b91505092915050565b6000806040838503121561183157600080fd5b600061183f858286016117e0565b9250506020611850858286016117a1565b9150509250929050565b600080600080600080600080610100898b03121561187757600080fd5b60006118858b828c016117e0565b985050602089013567ffffffffffffffff8111156118a257600080fd5b6118ae8b828c016117b6565b975050604089013567ffffffffffffffff8111156118cb57600080fd5b6118d78b828c016117b6565b96505060606118e88b828c016117e0565b955050608089013567ffffffffffffffff81111561190557600080fd5b6119118b828c016117b6565b94505060a06119228b828c016117e0565b93505060c06119338b828c016117e0565b92505060e06119448b828c016117e0565b9150509295985092959890939650565b61195d81611e2c565b82525050565b61196c81611e7b565b82525050565b61197b81611e9f565b82525050565b600061198c82611e10565b6119968185611e1b565b93506119a6818560208601611ec0565b6119af8161202a565b840191505092915050565b60006119c7601183611e1b565b91507f496e76616c6964207469636b65742049440000000000000000000000000000006000830152602082019050919050565b6000611a07601583611e1b565b91507f5469636b6574206973206e6f74206163746976652e00000000000000000000006000830152602082019050919050565b6000611a47603283611e1b565b91507f4f6e6c7920746865206f776e657220286f7267616e697a6572292063616e206360008301527f72656174652061206e6577207469636b657400000000000000000000000000006020830152604082019050919050565b6000611aad602b83611e1b565b91507f5469636b65742061742077726f6e672073746174652c20616374696f6e206e6f60008301527f7420706572666f726d65640000000000000000000000000000000000000000006020830152604082019050919050565b6000611b13603183611e1b565b91507f5469636b65742063616e6e6f74206265207472616e7366657272656420696e2060008301527f6974732063757272656e742073746174650000000000000000000000000000006020830152604082019050919050565b611b7581611e71565b82525050565b6000602082019050611b906000830184611954565b92915050565b6000602082019050611bab6000830184611963565b92915050565b6000602082019050611bc66000830184611972565b92915050565b60006020820190508181036000830152611be68184611981565b905092915050565b60006020820190508181036000830152611c07816119ba565b9050919050565b60006020820190508181036000830152611c27816119fa565b9050919050565b60006020820190508181036000830152611c4781611a3a565b9050919050565b60006020820190508181036000830152611c6781611aa0565b9050919050565b60006020820190508181036000830152611c8781611b06565b9050919050565b6000602082019050611ca36000830184611b6c565b92915050565b6000606082019050611cbe6000830186611b6c565b611ccb6020830185611954565b611cd86040830184611b6c565b949350505050565b600061018082019050611cf6600083018f611b6c565b611d03602083018e611b6c565b8181036040830152611d15818d611981565b90508181036060830152611d29818c611981565b9050611d38608083018b611b6c565b81810360a0830152611d4a818a611981565b9050611d5960c0830189611b6c565b611d6660e0830188611b6c565b611d74610100830187611972565b611d82610120830186611954565b611d90610140830185611954565b611d9e610160830184611b6c565b9d9c50505050505050505050505050565b6000604051905081810181811067ffffffffffffffff82111715611dd657611dd5611ffb565b5b8060405250919050565b600067ffffffffffffffff821115611dfb57611dfa611ffb565b5b601f19601f8301169050602081019050919050565b600081519050919050565b600082825260208201905092915050565b6000611e3782611e51565b9050919050565b6000819050611e4c8261203b565b919050565b600073ffffffffffffffffffffffffffffffffffffffff82169050919050565b6000819050919050565b6000611e8682611e8d565b9050919050565b6000611e9882611e51565b9050919050565b6000611eaa82611e3e565b9050919050565b82818337600083830152505050565b60005b83811015611ede578082015181840152602081019050611ec3565b83811115611eed576000848401525b50505050565b60006002820490506001821680611f0b57607f821691505b60208210811415611f1f57611f1e611fcc565b5b50919050565b6000611f3082611e71565b91507fffffffffffffffffffffffffffffffffffffffffffffffffffffffffffffffff821415611f6357611f62611f6e565b5b600182019050919050565b7f4e487b7100000000000000000000000000000000000000000000000000000000600052601160045260246000fd5b7f4e487b7100000000000000000000000000000000000000000000000000000000600052602160045260246000fd5b7f4e487b7100000000000000000000000000000000000000000000000000000000600052602260045260246000fd5b7f4e487b7100000000000000000000000000000000000000000000000000000000600052604160045260246000fd5b6000601f19601f8301169050919050565b6003811061204c5761204b611f9d565b5b50565b61205881611e2c565b811461206357600080fd5b50565b61206f81611e71565b811461207a57600080fd5b5056fea2646970667358221220645653b3fabb6365cae3afdb78103a96b870613e71ebdd469ae7fd65092169b364736f6c63430008000033",
  "immutableReferences": {},
  "source": "// SPDX-License-Identifier: MIT\r\npragma solidity ^0.8.0;\r\n\r\nimport \"./ERC20.sol\";\r\nimport \"./TicketToken.sol\";\r\n\r\ncontract Ticket {\r\n    enum TicketState {\r\n        Active,\r\n        Redeemed,\r\n        Frozen\r\n    }\r\n\r\n    struct ticket {\r\n        uint256 ticketId;\r\n        uint256 concertId;\r\n        string concertName;\r\n        string concertVenue;\r\n        uint256 concertDate;\r\n        string ticketCategory;\r\n        uint256 ticketSectionNo;\r\n        uint256 ticketSeatNo;\r\n        TicketState ticketState;\r\n        address owner;\r\n        address prevOwner;\r\n        uint256 price;\r\n    }\r\n\r\n    mapping(uint256 => ticket) public tickets;\r\n\r\n    event TicketCreated(uint256 indexed ticketId, address owner);\r\n    event TicketRedeemed(uint256 ticketId);\r\n    event TicketFrozen(uint256 ticketId);\r\n    event TicketBought(uint256 ticketId, address newOwner, uint256 price);\r\n\r\n    TicketToken public ticketToken;\r\n    uint256 public ticketCounter = 0;\r\n    address public owner;\r\n\r\n    constructor(address _ticketToken) {\r\n        owner = msg.sender;\r\n        ticketToken = TicketToken(_ticketToken);\r\n    }\r\n\r\n    modifier atState(uint256 _ticketId, TicketState _state) {\r\n        require(\r\n            tickets[_ticketId].ticketState == _state,\r\n            \"Ticket at wrong state, action not performed\"\r\n        );\r\n        _;\r\n    }\r\n\r\n    modifier validTicketId(uint256 ticketId) {\r\n        require(ticketId < ticketCounter, \"Invalid ticket ID\");\r\n        _;\r\n    }\r\n\r\n    // function to create a new ticket and add to the tickets map\r\n    function createTicket(\r\n        uint256 concertId,\r\n        string memory concertName,\r\n        string memory concertVenue,\r\n        uint256 concertDate,\r\n        string memory ticketCategory,\r\n        uint256 ticketSectionNo,\r\n        uint256 ticketSeatNo,\r\n        uint256 price\r\n    ) public returns (uint256) {\r\n        require(\r\n            msg.sender == owner,\r\n            \"Only the owner (organizer) can create a new ticket\"\r\n        );\r\n\r\n        ticket memory newTicket = ticket({\r\n            ticketId: ticketCounter,\r\n            concertId: concertId,\r\n            concertName: concertName,\r\n            concertVenue: concertVenue,\r\n            concertDate: concertDate,\r\n            ticketCategory: ticketCategory,\r\n            ticketSectionNo: ticketSectionNo,\r\n            ticketSeatNo: ticketSeatNo,\r\n            ticketState: TicketState.Active,\r\n            owner: msg.sender, // Assuming the owner creates the ticket\r\n            prevOwner: address(0),\r\n            price: price\r\n        });\r\n\r\n        uint256 newTicketId = ticketCounter++;\r\n        tickets[newTicketId] = newTicket;\r\n        emit TicketCreated(ticketCounter, msg.sender);\r\n        return newTicketId; // Return the ID of the newly created ticket\r\n    }\r\n\r\n    //modifier to ensure a function is callable only by its owner\r\n    modifier ownerOnly(uint256 ticketId) {\r\n        require(tickets[ticketId].owner == msg.sender);\r\n        _;\r\n    }\r\n\r\n    function redeemTicket(uint256 _ticketId) public validTicketId(_ticketId) {\r\n        ticket storage myTicket = tickets[_ticketId];\r\n\r\n        // Ensure the ticket is active\r\n        require(\r\n            myTicket.ticketState == TicketState.Active,\r\n            \"Ticket is not active.\"\r\n        );\r\n\r\n        // Update the ticket state to Redeemed\r\n        myTicket.ticketState = TicketState.Redeemed;\r\n        emit TicketRedeemed(_ticketId);\r\n    }\r\n\r\n    function freezeTicket(\r\n        uint256 _ticketId\r\n    ) external atState(_ticketId, TicketState.Active) validTicketId(_ticketId) {\r\n        tickets[_ticketId].ticketState = TicketState.Frozen;\r\n        emit TicketFrozen(_ticketId);\r\n    }\r\n\r\n    function transfer(\r\n        uint256 ticketId,\r\n        address newOwner\r\n    ) external validTicketId(ticketId) {\r\n        require(\r\n            tickets[ticketId].ticketState == TicketState.Active,\r\n            \"Ticket cannot be transferred in its current state\"\r\n        );\r\n\r\n        tickets[ticketId].prevOwner = tickets[ticketId].owner;\r\n        tickets[ticketId].owner = newOwner;\r\n\r\n        emit TicketBought(ticketId, newOwner, tickets[ticketId].price);\r\n    }\r\n\r\n    // Getter Functions for Ticket attributes\r\n    function getTicketId(\r\n        uint256 ticketId\r\n    ) public view validTicketId(ticketId) returns (uint256) {\r\n        return tickets[ticketId].ticketId;\r\n    }\r\n\r\n    function getConcertId(\r\n        uint256 ticketId\r\n    ) public view validTicketId(ticketId) returns (uint256) {\r\n        return tickets[ticketId].concertId;\r\n    }\r\n\r\n    function getConcertName(\r\n        uint256 ticketId\r\n    ) public view validTicketId(ticketId) returns (string memory) {\r\n        return tickets[ticketId].concertName;\r\n    }\r\n\r\n    function getConcertVenue(\r\n        uint256 ticketId\r\n    ) public view validTicketId(ticketId) returns (string memory) {\r\n        return tickets[ticketId].concertVenue;\r\n    }\r\n\r\n    function getConcertDate(\r\n        uint256 ticketId\r\n    ) public view validTicketId(ticketId) returns (uint256) {\r\n        return tickets[ticketId].concertDate;\r\n    }\r\n\r\n    function getTicketCategory(\r\n        uint256 ticketId\r\n    ) public view validTicketId(ticketId) returns (string memory) {\r\n        return tickets[ticketId].ticketCategory;\r\n    }\r\n\r\n    function getTicketSectionNo(\r\n        uint256 ticketId\r\n    ) public view validTicketId(ticketId) returns (uint256) {\r\n        return tickets[ticketId].ticketSectionNo;\r\n    }\r\n\r\n    function getTicketSeatNo(\r\n        uint256 ticketId\r\n    ) public view validTicketId(ticketId) returns (uint256) {\r\n        return tickets[ticketId].ticketSeatNo;\r\n    }\r\n\r\n    function getTicketState(\r\n        uint256 ticketId\r\n    ) public view validTicketId(ticketId) returns (TicketState) {\r\n        return tickets[ticketId].ticketState;\r\n    }\r\n\r\n    function getOwner(\r\n        uint256 ticketId\r\n    ) public view validTicketId(ticketId) returns (address) {\r\n        return tickets[ticketId].owner;\r\n    }\r\n\r\n    function getPrevOwner(\r\n        uint256 ticketId\r\n    ) public view validTicketId(ticketId) returns (address) {\r\n        return tickets[ticketId].prevOwner;\r\n    }\r\n\r\n    function getPrice(\r\n        uint256 ticketId\r\n    ) public view validTicketId(ticketId) returns (uint256) {\r\n        return tickets[ticketId].price;\r\n    }\r\n}\r\n",
  "sourcePath": "C:\\Users\\tngjo\\OneDrive\\Desktop\\GitHub\\IS4302-Decentralized-Event-Ticketing-System\\contracts\\Ticket.sol",
  "compiler": {
    "name": "solc",
    "version": "0.8.0+commit.c7dfd78e.Emscripten.clang"
  },
  "schemaVersion": "3.4.16",
  "updatedAt": "2024-03-23T15:57:00.713Z",
  "networkType": "ethereum",
  "devdoc": {
    "kind": "dev",
    "methods": {},
    "version": 1
  },
  "userdoc": {
    "kind": "user",
    "methods": {},
    "version": 1
  }
}