{
  "contractName": "TicketMarket",
  "abi": [
    {
      "inputs": [
        {
          "internalType": "contract Ticket",
          "name": "ticketAddress",
          "type": "address"
        },
        {
          "internalType": "uint256",
          "name": "fee",
          "type": "uint256"
        }
      ],
      "stateMutability": "nonpayable",
      "type": "constructor"
    },
    {
      "anonymous": false,
      "inputs": [
        {
          "indexed": true,
          "internalType": "uint256",
          "name": "id",
          "type": "uint256"
        },
        {
          "indexed": false,
          "internalType": "address",
          "name": "buyer",
          "type": "address"
        },
        {
          "indexed": false,
          "internalType": "uint256",
          "name": "price",
          "type": "uint256"
        }
      ],
      "name": "TicketBought",
      "type": "event"
    },
    {
      "anonymous": false,
      "inputs": [
        {
          "indexed": true,
          "internalType": "uint256",
          "name": "id",
          "type": "uint256"
        },
        {
          "indexed": false,
          "internalType": "uint256",
          "name": "price",
          "type": "uint256"
        }
      ],
      "name": "TicketListed",
      "type": "event"
    },
    {
      "anonymous": false,
      "inputs": [
        {
          "indexed": true,
          "internalType": "uint256",
          "name": "id",
          "type": "uint256"
        },
        {
          "indexed": false,
          "internalType": "address",
          "name": "from",
          "type": "address"
        },
        {
          "indexed": false,
          "internalType": "address",
          "name": "to",
          "type": "address"
        },
        {
          "indexed": false,
          "internalType": "uint256",
          "name": "price",
          "type": "uint256"
        }
      ],
      "name": "TicketTransferred",
      "type": "event"
    },
    {
      "anonymous": false,
      "inputs": [
        {
          "indexed": true,
          "internalType": "uint256",
          "name": "id",
          "type": "uint256"
        }
      ],
      "name": "TicketUnlisted",
      "type": "event"
    },
    {
      "inputs": [],
      "name": "commissionFee",
      "outputs": [
        {
          "internalType": "uint256",
          "name": "",
          "type": "uint256"
        }
      ],
      "stateMutability": "view",
      "type": "function",
      "constant": true
    },
    {
      "inputs": [
        {
          "internalType": "uint256",
          "name": "",
          "type": "uint256"
        }
      ],
      "name": "listPrice",
      "outputs": [
        {
          "internalType": "uint256",
          "name": "",
          "type": "uint256"
        }
      ],
      "stateMutability": "view",
      "type": "function",
      "constant": true
    },
    {
      "inputs": [],
      "name": "owner",
      "outputs": [
        {
          "internalType": "address",
          "name": "",
          "type": "address"
        }
      ],
      "stateMutability": "view",
      "type": "function",
      "constant": true
    },
    {
      "inputs": [
        {
          "internalType": "uint256",
          "name": "id",
          "type": "uint256"
        },
        {
          "internalType": "uint256",
          "name": "price",
          "type": "uint256"
        }
      ],
      "name": "list",
      "outputs": [],
      "stateMutability": "nonpayable",
      "type": "function"
    },
    {
      "inputs": [
        {
          "internalType": "uint256",
          "name": "id",
          "type": "uint256"
        }
      ],
      "name": "unlist",
      "outputs": [],
      "stateMutability": "nonpayable",
      "type": "function"
    },
    {
      "inputs": [
        {
          "internalType": "uint256",
          "name": "id",
          "type": "uint256"
        }
      ],
      "name": "getTicketPrice",
      "outputs": [
        {
          "internalType": "uint256",
          "name": "",
          "type": "uint256"
        }
      ],
      "stateMutability": "view",
      "type": "function",
      "constant": true
    },
    {
      "inputs": [
        {
          "internalType": "uint256",
          "name": "id",
          "type": "uint256"
        }
      ],
      "name": "buy",
      "outputs": [],
      "stateMutability": "payable",
      "type": "function",
      "payable": true
    }
  ],
  "bytecode": "0x60806040523480156200001157600080fd5b5060405162000fdb38038062000fdb8339818101604052810190620000379190620000f5565b816000806101000a81548173ffffffffffffffffffffffffffffffffffffffff021916908373ffffffffffffffffffffffffffffffffffffffff1602179055508060018190555033600260006101000a81548173ffffffffffffffffffffffffffffffffffffffff021916908373ffffffffffffffffffffffffffffffffffffffff1602179055505050620001bc565b600081519050620000d88162000188565b92915050565b600081519050620000ef81620001a2565b92915050565b600080604083850312156200010957600080fd5b60006200011985828601620000c7565b92505060206200012c85828601620000de565b9150509250929050565b600062000143826200015e565b9050919050565b6000620001578262000136565b9050919050565b600073ffffffffffffffffffffffffffffffffffffffff82169050919050565b6000819050919050565b62000193816200014a565b81146200019f57600080fd5b50565b620001ad816200017e565b8114620001b957600080fd5b50565b610e0f80620001cc6000396000f3fe6080604052600436106100705760003560e01c80638da5cb5b1161004e5780638da5cb5b14610106578063bf5a4dd314610131578063d96a094a1461015a578063f06fc9611461017657610070565b806350fd7367146100755780636fb1eb0c1461009e57806387d81f7c146100c9575b600080fd5b34801561008157600080fd5b5061009c60048036038101906100979190610963565b6101b3565b005b3480156100aa57600080fd5b506100b3610415565b6040516100c09190610c53565b60405180910390f35b3480156100d557600080fd5b506100f060048036038101906100eb9190610911565b61041b565b6040516100fd9190610c53565b60405180910390f35b34801561011257600080fd5b5061011b610433565b6040516101289190610b6f565b60405180910390f35b34801561013d57600080fd5b5061015860048036038101906101539190610911565b610459565b005b610174600480360381019061016f9190610911565b6105b8565b005b34801561018257600080fd5b5061019d60048036038101906101989190610911565b61088c565b6040516101aa9190610c53565b60405180910390f35b60015460008054906101000a900473ffffffffffffffffffffffffffffffffffffffff1673ffffffffffffffffffffffffffffffffffffffff1663e7572230846040518263ffffffff1660e01b815260040161020f9190610c53565b60206040518083038186803b15801561022757600080fd5b505afa15801561023b573d6000803e3d6000fd5b505050506040513d601f19601f8201168201806040525081019061025f919061093a565b6102699190610cb6565b8110156102ab576040517f08c379a00000000000000000000000000000000000000000000000000000000081526004016102a290610bb3565b60405180910390fd5b60008054906101000a900473ffffffffffffffffffffffffffffffffffffffff1673ffffffffffffffffffffffffffffffffffffffff1663f2d03fcf836040518263ffffffff1660e01b81526004016103049190610c53565b60206040518083038186803b15801561031c57600080fd5b505afa158015610330573d6000803e3d6000fd5b505050506040513d601f19601f8201168201806040525081019061035491906108e8565b73ffffffffffffffffffffffffffffffffffffffff163373ffffffffffffffffffffffffffffffffffffffff16146103c1576040517f08c379a00000000000000000000000000000000000000000000000000000000081526004016103b890610bf3565b60405180910390fd5b806003600084815260200190815260200160002081905550817fbca2f6391cafd6d28d39261ba883dd74090c618befb806e74ef434778bb2f7ed826040516104099190610c53565b60405180910390a25050565b60015481565b60036020528060005260406000206000915090505481565b600260009054906101000a900473ffffffffffffffffffffffffffffffffffffffff1681565b60008054906101000a900473ffffffffffffffffffffffffffffffffffffffff1673ffffffffffffffffffffffffffffffffffffffff1663f2d03fcf826040518263ffffffff1660e01b81526004016104b29190610c53565b60206040518083038186803b1580156104ca57600080fd5b505afa1580156104de573d6000803e3d6000fd5b505050506040513d601f19601f8201168201806040525081019061050291906108e8565b73ffffffffffffffffffffffffffffffffffffffff163373ffffffffffffffffffffffffffffffffffffffff161461056f576040517f08c379a000000000000000000000000000000000000000000000000000000000815260040161056690610c13565b60405180910390fd5b60006003600083815260200190815260200160002081905550807fdb00f3044f762e640c77fdd12df2e7cf2b4c17de34f8995969a4d98b9904af4560405160405180910390a250565b60006003600083815260200190815260200160002054141561060f576040517f08c379a000000000000000000000000000000000000000000000000000000000815260040161060690610bd3565b60405180910390fd5b6003600082815260200190815260200160002054341015610665576040517f08c379a000000000000000000000000000000000000000000000000000000000815260040161065c90610c33565b60405180910390fd5b60008060009054906101000a900473ffffffffffffffffffffffffffffffffffffffff1673ffffffffffffffffffffffffffffffffffffffff1663f2d03fcf836040518263ffffffff1660e01b81526004016106c19190610c53565b60206040518083038186803b1580156106d957600080fd5b505afa1580156106ed573d6000803e3d6000fd5b505050506040513d601f19601f8201168201806040525081019061071191906108e8565b9050600060015460036000858152602001908152602001600020546107369190610d0c565b90508173ffffffffffffffffffffffffffffffffffffffff166108fc829081150290604051600060405180830381858888f1935050505015801561077e573d6000803e3d6000fd5b50827f913d09b391f64143215d9312fd7e8ecaa06001c646789c9d2109dc515bc34fad3360036000878152602001908152602001600020546040516107c4929190610b8a565b60405180910390a260008054906101000a900473ffffffffffffffffffffffffffffffffffffffff1673ffffffffffffffffffffffffffffffffffffffff1663f8548e36843360036000888152602001908152602001600020546040518463ffffffff1660e01b815260040161083c93929190610c6e565b600060405180830381600087803b15801561085657600080fd5b505af115801561086a573d6000803e3d6000fd5b5050505060006003600085815260200190815260200160002081905550505050565b600060036000838152602001908152602001600020549050919050565b6000815190506108b881610dab565b92915050565b6000813590506108cd81610dc2565b92915050565b6000815190506108e281610dc2565b92915050565b6000602082840312156108fa57600080fd5b6000610908848285016108a9565b91505092915050565b60006020828403121561092357600080fd5b6000610931848285016108be565b91505092915050565b60006020828403121561094c57600080fd5b600061095a848285016108d3565b91505092915050565b6000806040838503121561097657600080fd5b6000610984858286016108be565b9250506020610995858286016108be565b9150509250929050565b6109a881610d40565b82525050565b60006109bb603483610ca5565b91507f5072696365206d75737420636f76657220746865207469636b6574207072696360008301527f6520616e6420636f6d6d697373696f6e206665650000000000000000000000006020830152604082019050919050565b6000610a21601e83610ca5565b91507f5469636b6574206d757374206265206c697374656420666f722073616c6500006000830152602082019050919050565b6000610a61602b83610ca5565b91507f4f6e6c79207468652070726576696f7573206f776e65722063616e206c69737460008301527f20746865207469636b65740000000000000000000000000000000000000000006020830152604082019050919050565b6000610ac7602d83610ca5565b91507f4f6e6c79207468652070726576696f7573206f776e65722063616e20756e6c6960008301527f737420746865207469636b6574000000000000000000000000000000000000006020830152604082019050919050565b6000610b2d601483610ca5565b91507f496e73756666696369656e74207061796d656e740000000000000000000000006000830152602082019050919050565b610b6981610d72565b82525050565b6000602082019050610b84600083018461099f565b92915050565b6000604082019050610b9f600083018561099f565b610bac6020830184610b60565b9392505050565b60006020820190508181036000830152610bcc816109ae565b9050919050565b60006020820190508181036000830152610bec81610a14565b9050919050565b60006020820190508181036000830152610c0c81610a54565b9050919050565b60006020820190508181036000830152610c2c81610aba565b9050919050565b60006020820190508181036000830152610c4c81610b20565b9050919050565b6000602082019050610c686000830184610b60565b92915050565b6000606082019050610c836000830186610b60565b610c90602083018561099f565b610c9d6040830184610b60565b949350505050565b600082825260208201905092915050565b6000610cc182610d72565b9150610ccc83610d72565b9250827fffffffffffffffffffffffffffffffffffffffffffffffffffffffffffffffff03821115610d0157610d00610d7c565b5b828201905092915050565b6000610d1782610d72565b9150610d2283610d72565b925082821015610d3557610d34610d7c565b5b828203905092915050565b6000610d4b82610d52565b9050919050565b600073ffffffffffffffffffffffffffffffffffffffff82169050919050565b6000819050919050565b7f4e487b7100000000000000000000000000000000000000000000000000000000600052601160045260246000fd5b610db481610d40565b8114610dbf57600080fd5b50565b610dcb81610d72565b8114610dd657600080fd5b5056fea264697066735822122039ebe831f1b4633c51557ddd57968a9fdcba529ea83aea0c20ee0e37675b6b9d64736f6c63430008000033",
  "immutableReferences": {},
  "source": "// SPDX-License-Identifier: MIT\npragma solidity ^0.8.0;\n\nimport \"./Ticket.sol\";\n\ncontract TicketMarket {\n    Ticket ticketContract;\n    uint256 public commissionFee;\n    address public owner;\n\n    mapping(uint256 => uint256) public listPrice;\n\n    // Event emitted when a ticket is listed for sale\n    event TicketListed(uint256 indexed id, uint256 price);\n\n    // Event emitted when a ticket is unlisted\n    event TicketUnlisted(uint256 indexed id);\n\n    // Event emitted when a ticket is bought\n    event TicketBought(uint256 indexed id, address buyer, uint256 price);\n\n    // Event emitted when a ticket is transferred\n    event TicketTransferred(uint256 indexed id, address from, address to, uint256 price);\n\n    constructor(Ticket ticketAddress, uint256 fee) {\n        ticketContract = ticketAddress;\n        commissionFee = fee;\n        owner = msg.sender;\n    }\n\n    // List a ticket for sale. Price needs to be >= value + fee\n    function list(uint256 id, uint256 price) public {\n        require(\n            price >= ticketContract.getPrice(id) + commissionFee,\n            \"Price must cover the ticket price and commission fee\"\n        );\n        require(\n            msg.sender == ticketContract.getPrevOwner(id),\n            \"Only the previous owner can list the ticket\"\n        );\n        listPrice[id] = price;\n        emit TicketListed(id, price); // Emit event for ticket listing\n    }\n\n    function unlist(uint256 id) public {\n        require(\n            msg.sender == ticketContract.getPrevOwner(id),\n            \"Only the previous owner can unlist the ticket\"\n        );\n        listPrice[id] = 0;\n        emit TicketUnlisted(id); // Emit event for ticket unlisting\n    }\n\n    // Get price of ticket\n    function getTicketPrice(uint256 id) public view returns (uint256) {\n        return listPrice[id];\n    }\n\n    // Buy the ticket at the requested price\n    function buy(uint256 id) public payable {\n        // Check if the ticket is listed for sale\n        require(listPrice[id] != 0, \"Ticket must be listed for sale\");\n        // Check if payment is enough\n        require(msg.value >= listPrice[id], \"Insufficient payment\");\n\n        address payable recipient = payable(ticketContract.getPrevOwner(id));\n\n        // Calculate the amount to transfer to the ticket owner after deducting the commission fee\n        uint256 amountToTransfer = listPrice[id] - commissionFee;\n        // Transfer payment to the ticket owner after deducting the commission fee\n        recipient.transfer(amountToTransfer);\n\n        // Emit event for ticket purchase\n        emit TicketBought(id, msg.sender, listPrice[id]);\n\n        // Transfer ownership of the ticket\n        ticketContract.transfer(id, msg.sender, listPrice[id]);\n\n        // Remove the ticket from the listing after purchase\n        listPrice[id] = 0;\n    }\n\n    /*function withdraw() public {\n        require(msg.sender == owner, \"Only the owner can withdraw funds\");\n        payable(owner).transfer(address(this).balance);\n    }*/\n}",
  "sourcePath": "C:\\Users\\hp\\Desktop\\IS4302\\Decentralized-Event-Ticketing-System\\IS4302-Decentralized-Event-Ticketing-System\\contracts\\TicketMarket.sol",
  "compiler": {
    "name": "solc",
    "version": "0.8.0+commit.c7dfd78e.Emscripten.clang"
  },
  "schemaVersion": "3.4.16",
  "updatedAt": "2024-03-20T14:02:10.533Z",
  "networkType": "ethereum",
  "devdoc": {
    "kind": "dev",
    "methods": {},
    "version": 1
  },
  "userdoc": {
    "kind": "user",
    "methods": {},
    "version": 1
  }
}