{
  "contractName": "Ticket",
  "abi": [
    {
      "inputs": [
        {
          "internalType": "address",
          "name": "_ticketToken",
          "type": "address"
        }
      ],
      "stateMutability": "nonpayable",
      "type": "constructor"
    },
    {
      "anonymous": false,
      "inputs": [
        {
          "indexed": false,
          "internalType": "uint256",
          "name": "ticketId",
          "type": "uint256"
        },
        {
          "indexed": false,
          "internalType": "address",
          "name": "newOwner",
          "type": "address"
        },
        {
          "indexed": false,
          "internalType": "uint256",
          "name": "price",
          "type": "uint256"
        }
      ],
      "name": "TicketBought",
      "type": "event"
    },
    {
      "anonymous": false,
      "inputs": [
        {
          "indexed": true,
          "internalType": "uint256",
          "name": "ticketId",
          "type": "uint256"
        },
        {
          "indexed": false,
          "internalType": "address",
          "name": "owner",
          "type": "address"
        }
      ],
      "name": "TicketCreated",
      "type": "event"
    },
    {
      "anonymous": false,
      "inputs": [
        {
          "indexed": false,
          "internalType": "uint256",
          "name": "ticketId",
          "type": "uint256"
        }
      ],
      "name": "TicketFrozen",
      "type": "event"
    },
    {
      "anonymous": false,
      "inputs": [
        {
          "indexed": false,
          "internalType": "uint256",
          "name": "ticketId",
          "type": "uint256"
        }
      ],
      "name": "TicketRedeemed",
      "type": "event"
    },
    {
      "inputs": [],
      "name": "owner",
      "outputs": [
        {
          "internalType": "address",
          "name": "",
          "type": "address"
        }
      ],
      "stateMutability": "view",
      "type": "function"
    },
    {
      "inputs": [],
      "name": "presaleMarketAddress",
      "outputs": [
        {
          "internalType": "address",
          "name": "",
          "type": "address"
        }
      ],
      "stateMutability": "view",
      "type": "function"
    },
    {
      "inputs": [],
      "name": "ticketCounter",
      "outputs": [
        {
          "internalType": "uint256",
          "name": "",
          "type": "uint256"
        }
      ],
      "stateMutability": "view",
      "type": "function"
    },
    {
      "inputs": [],
      "name": "ticketToken",
      "outputs": [
        {
          "internalType": "contract TicketToken",
          "name": "",
          "type": "address"
        }
      ],
      "stateMutability": "view",
      "type": "function"
    },
    {
      "inputs": [
        {
          "internalType": "uint256",
          "name": "",
          "type": "uint256"
        }
      ],
      "name": "tickets",
      "outputs": [
        {
          "internalType": "uint256",
          "name": "ticketId",
          "type": "uint256"
        },
        {
          "internalType": "uint256",
          "name": "concertId",
          "type": "uint256"
        },
        {
          "internalType": "string",
          "name": "concertName",
          "type": "string"
        },
        {
          "internalType": "string",
          "name": "concertVenue",
          "type": "string"
        },
        {
          "internalType": "uint256",
          "name": "concertDate",
          "type": "uint256"
        },
        {
          "internalType": "uint256",
          "name": "ticketSectionNo",
          "type": "uint256"
        },
        {
          "internalType": "uint256",
          "name": "ticketSeatNo",
          "type": "uint256"
        },
        {
          "internalType": "enum Ticket.TicketState",
          "name": "ticketState",
          "type": "uint8"
        },
        {
          "internalType": "address",
          "name": "owner",
          "type": "address"
        },
        {
          "internalType": "address",
          "name": "prevOwner",
          "type": "address"
        },
        {
          "internalType": "uint256",
          "name": "price",
          "type": "uint256"
        },
        {
          "internalType": "uint256",
          "name": "resellPrice",
          "type": "uint256"
        }
      ],
      "stateMutability": "view",
      "type": "function"
    },
    {
      "inputs": [
        {
          "internalType": "address",
          "name": "_presaleMarketAddress",
          "type": "address"
        }
      ],
      "name": "setPresaleMarketAddress",
      "outputs": [],
      "stateMutability": "nonpayable",
      "type": "function"
    },
    {
      "inputs": [
        {
          "internalType": "uint256",
          "name": "concertId",
          "type": "uint256"
        },
        {
          "internalType": "string",
          "name": "concertName",
          "type": "string"
        },
        {
          "internalType": "string",
          "name": "concertVenue",
          "type": "string"
        },
        {
          "internalType": "uint256",
          "name": "concertDate",
          "type": "uint256"
        },
        {
          "internalType": "uint256",
          "name": "ticketSectionNo",
          "type": "uint256"
        },
        {
          "internalType": "uint256",
          "name": "ticketSeatNo",
          "type": "uint256"
        },
        {
          "internalType": "uint256",
          "name": "price",
          "type": "uint256"
        }
      ],
      "name": "createTicket",
      "outputs": [
        {
          "internalType": "uint256",
          "name": "",
          "type": "uint256"
        }
      ],
      "stateMutability": "nonpayable",
      "type": "function"
    },
    {
      "inputs": [
        {
          "internalType": "uint256",
          "name": "_ticketId",
          "type": "uint256"
        }
      ],
      "name": "redeemTicket",
      "outputs": [],
      "stateMutability": "nonpayable",
      "type": "function"
    },
    {
      "inputs": [
        {
          "internalType": "uint256",
          "name": "_ticketId",
          "type": "uint256"
        }
      ],
      "name": "freezeTicket",
      "outputs": [],
      "stateMutability": "nonpayable",
      "type": "function"
    },
    {
      "inputs": [
        {
          "internalType": "uint256",
          "name": "ticketId",
          "type": "uint256"
        },
        {
          "internalType": "address",
          "name": "newOwner",
          "type": "address"
        },
        {
          "internalType": "uint256",
          "name": "resellPrice",
          "type": "uint256"
        }
      ],
      "name": "transfer",
      "outputs": [],
      "stateMutability": "nonpayable",
      "type": "function"
    },
    {
      "inputs": [
        {
          "internalType": "uint256",
          "name": "ticketId",
          "type": "uint256"
        }
      ],
      "name": "getTicketId",
      "outputs": [
        {
          "internalType": "uint256",
          "name": "",
          "type": "uint256"
        }
      ],
      "stateMutability": "view",
      "type": "function"
    },
    {
      "inputs": [
        {
          "internalType": "uint256",
          "name": "ticketId",
          "type": "uint256"
        }
      ],
      "name": "getConcertId",
      "outputs": [
        {
          "internalType": "uint256",
          "name": "",
          "type": "uint256"
        }
      ],
      "stateMutability": "view",
      "type": "function"
    },
    {
      "inputs": [
        {
          "internalType": "uint256",
          "name": "ticketId",
          "type": "uint256"
        }
      ],
      "name": "getConcertName",
      "outputs": [
        {
          "internalType": "string",
          "name": "",
          "type": "string"
        }
      ],
      "stateMutability": "view",
      "type": "function"
    },
    {
      "inputs": [
        {
          "internalType": "uint256",
          "name": "ticketId",
          "type": "uint256"
        }
      ],
      "name": "getConcertVenue",
      "outputs": [
        {
          "internalType": "string",
          "name": "",
          "type": "string"
        }
      ],
      "stateMutability": "view",
      "type": "function"
    },
    {
      "inputs": [
        {
          "internalType": "uint256",
          "name": "ticketId",
          "type": "uint256"
        }
      ],
      "name": "getConcertDate",
      "outputs": [
        {
          "internalType": "uint256",
          "name": "",
          "type": "uint256"
        }
      ],
      "stateMutability": "view",
      "type": "function"
    },
    {
      "inputs": [
        {
          "internalType": "uint256",
          "name": "ticketId",
          "type": "uint256"
        }
      ],
      "name": "getTicketSectionNo",
      "outputs": [
        {
          "internalType": "uint256",
          "name": "",
          "type": "uint256"
        }
      ],
      "stateMutability": "view",
      "type": "function"
    },
    {
      "inputs": [
        {
          "internalType": "uint256",
          "name": "ticketId",
          "type": "uint256"
        }
      ],
      "name": "getTicketSeatNo",
      "outputs": [
        {
          "internalType": "uint256",
          "name": "",
          "type": "uint256"
        }
      ],
      "stateMutability": "view",
      "type": "function"
    },
    {
      "inputs": [
        {
          "internalType": "uint256",
          "name": "ticketId",
          "type": "uint256"
        }
      ],
      "name": "getTicketState",
      "outputs": [
        {
          "internalType": "enum Ticket.TicketState",
          "name": "",
          "type": "uint8"
        }
      ],
      "stateMutability": "view",
      "type": "function"
    },
    {
      "inputs": [
        {
          "internalType": "uint256",
          "name": "ticketId",
          "type": "uint256"
        }
      ],
      "name": "getOwner",
      "outputs": [
        {
          "internalType": "address",
          "name": "",
          "type": "address"
        }
      ],
      "stateMutability": "view",
      "type": "function"
    },
    {
      "inputs": [
        {
          "internalType": "uint256",
          "name": "ticketId",
          "type": "uint256"
        }
      ],
      "name": "getPrevOwner",
      "outputs": [
        {
          "internalType": "address",
          "name": "",
          "type": "address"
        }
      ],
      "stateMutability": "view",
      "type": "function"
    },
    {
      "inputs": [
        {
          "internalType": "uint256",
          "name": "ticketId",
          "type": "uint256"
        }
      ],
      "name": "getPrice",
      "outputs": [
        {
          "internalType": "uint256",
          "name": "",
          "type": "uint256"
        }
      ],
      "stateMutability": "view",
      "type": "function"
    }
  ],
  "bytecode": "0x608060405260006002553480156200001657600080fd5b50604051620021ae380380620021ae83398181016040528101906200003c9190620000dc565b33600360006101000a81548173ffffffffffffffffffffffffffffffffffffffff021916908373ffffffffffffffffffffffffffffffffffffffff16021790555080600160006101000a81548173ffffffffffffffffffffffffffffffffffffffff021916908373ffffffffffffffffffffffffffffffffffffffff1602179055505062000156565b600081519050620000d6816200013c565b92915050565b600060208284031215620000ef57600080fd5b6000620000ff84828501620000c5565b91505092915050565b600062000115826200011c565b9050919050565b600073ffffffffffffffffffffffffffffffffffffffff82169050919050565b620001478162000108565b81146200015357600080fd5b50565b61204880620001666000396000f3fe608060405234801561001057600080fd5b50600436106101375760003560e01c80638c4d59d0116100b8578063dba4a8df1161007c578063dba4a8df146103a7578063e7572230146103d7578063f2d03fcf14610407578063f8548e3614610437578063fe18a43014610453578063fe8b766b1461046f57610137565b80638c4d59d0146102ed5780638da5cb5b1461030b578063bcc7982214610329578063c41a360a14610359578063d5ed4d5a1461038957610137565b80635b73c131116100ff5780635b73c1311461020f5780636482db3f1461022d5780636c5c74b81461025d57806371d69ef01461028d57806386db5b23146102bd57610137565b806315f59d7f1461013c57806316086c981461015857806316c15c0c146101745780634f44d7b6146101a457806350b44712146101d4575b600080fd5b6101566004803603810190610151919061179c565b61049f565b005b610172600480360381019061016d919061179c565b61064d565b005b61018e6004803603810190610189919061179c565b61080a565b60405161019b9190611bf6565b60405180910390f35b6101be60048036038101906101b9919061179c565b61086f565b6040516101cb9190611b34565b60405180910390f35b6101ee60048036038101906101e9919061179c565b61095c565b6040516102069c9b9a99989796959493929190611c48565b60405180910390f35b610217610b19565b6040516102249190611ae3565b60405180910390f35b6102476004803603810190610242919061179c565b610b3f565b6040516102549190611b19565b60405180910390f35b6102776004803603810190610272919061179c565b610bb1565b6040516102849190611bf6565b60405180910390f35b6102a760048036038101906102a2919061179c565b610c16565b6040516102b49190611bf6565b60405180910390f35b6102d760048036038101906102d2919061179c565b610c7b565b6040516102e49190611bf6565b60405180910390f35b6102f5610ce0565b6040516103029190611bf6565b60405180910390f35b610313610ce6565b6040516103209190611ae3565b60405180910390f35b610343600480360381019061033e919061179c565b610d0c565b6040516103509190611b34565b60405180910390f35b610373600480360381019061036e919061179c565b610df9565b6040516103809190611ae3565b60405180910390f35b610391610e7e565b60405161039e9190611afe565b60405180910390f35b6103c160048036038101906103bc919061179c565b610ea4565b6040516103ce9190611bf6565b60405180910390f35b6103f160048036038101906103ec919061179c565b610f09565b6040516103fe9190611bf6565b60405180910390f35b610421600480360381019061041c919061179c565b610f6e565b60405161042e9190611ae3565b60405180910390f35b610451600480360381019061044c91906117c5565b610ff3565b005b61046d60048036038101906104689190611773565b61125a565b005b61048960048036038101906104849190611814565b61129e565b6040516104969190611bf6565b60405180910390f35b8060025481106104e4576040517f08c379a00000000000000000000000000000000000000000000000000000000081526004016104db90611b56565b60405180910390fd5b6000806000848152602001908152602001600020905060006002811115610534577f4e487b7100000000000000000000000000000000000000000000000000000000600052602160045260246000fd5b8160070160009054906101000a900460ff16600281111561057e577f4e487b7100000000000000000000000000000000000000000000000000000000600052602160045260246000fd5b146105be576040517f08c379a00000000000000000000000000000000000000000000000000000000081526004016105b590611b96565b60405180910390fd5b60018160070160006101000a81548160ff0219169083600281111561060c577f4e487b7100000000000000000000000000000000000000000000000000000000600052602160045260246000fd5b02179055507fb0ebd5f2f7c40ca5715d8deab780894f023a63bc249fc45e69df6acbc4e8b568836040516106409190611bf6565b60405180910390a1505050565b806000806002811115610689577f4e487b7100000000000000000000000000000000000000000000000000000000600052602160045260246000fd5b60008084815260200190815260200160002060070160009054906101000a900460ff1660028111156106e4577f4e487b7100000000000000000000000000000000000000000000000000000000600052602160045260246000fd5b14610724576040517f08c379a000000000000000000000000000000000000000000000000000000000815260040161071b90611bb6565b60405180910390fd5b826002548110610769576040517f08c379a000000000000000000000000000000000000000000000000000000000815260040161076090611b56565b60405180910390fd5b600260008086815260200190815260200160002060070160006101000a81548160ff021916908360028111156107c8577f4e487b7100000000000000000000000000000000000000000000000000000000600052602160045260246000fd5b02179055507f5f9fbbc6b6aee5534f63c42109bdd37181fe2ce563b4c54322b4d7b6910393df846040516107fc9190611bf6565b60405180910390a150505050565b6000816002548110610851576040517f08c379a000000000000000000000000000000000000000000000000000000000815260040161084890611b56565b60405180910390fd5b60008084815260200190815260200160002060040154915050919050565b60608160025481106108b6576040517f08c379a00000000000000000000000000000000000000000000000000000000081526004016108ad90611b56565b60405180910390fd5b60008084815260200190815260200160002060020180546108d690611e88565b80601f016020809104026020016040519081016040528092919081815260200182805461090290611e88565b801561094f5780601f106109245761010080835404028352916020019161094f565b820191906000526020600020905b81548152906001019060200180831161093257829003601f168201915b5050505050915050919050565b600060205280600052604060002060009150905080600001549080600101549080600201805461098b90611e88565b80601f01602080910402602001604051908101604052809291908181526020018280546109b790611e88565b8015610a045780601f106109d957610100808354040283529160200191610a04565b820191906000526020600020905b8154815290600101906020018083116109e757829003601f168201915b505050505090806003018054610a1990611e88565b80601f0160208091040260200160405190810160405280929190818152602001828054610a4590611e88565b8015610a925780601f10610a6757610100808354040283529160200191610a92565b820191906000526020600020905b815481529060010190602001808311610a7557829003601f168201915b5050505050908060040154908060050154908060060154908060070160009054906101000a900460ff16908060070160019054906101000a900473ffffffffffffffffffffffffffffffffffffffff16908060080160009054906101000a900473ffffffffffffffffffffffffffffffffffffffff169080600901549080600a015490508c565b600460009054906101000a900473ffffffffffffffffffffffffffffffffffffffff1681565b6000816002548110610b86576040517f08c379a0000000000000000000000000000000000000000000000000000000008152600401610b7d90611b56565b60405180910390fd5b60008084815260200190815260200160002060070160009054906101000a900460ff16915050919050565b6000816002548110610bf8576040517f08c379a0000000000000000000000000000000000000000000000000000000008152600401610bef90611b56565b60405180910390fd5b60008084815260200190815260200160002060050154915050919050565b6000816002548110610c5d576040517f08c379a0000000000000000000000000000000000000000000000000000000008152600401610c5490611b56565b60405180910390fd5b60008084815260200190815260200160002060060154915050919050565b6000816002548110610cc2576040517f08c379a0000000000000000000000000000000000000000000000000000000008152600401610cb990611b56565b60405180910390fd5b60008084815260200190815260200160002060010154915050919050565b60025481565b600360009054906101000a900473ffffffffffffffffffffffffffffffffffffffff1681565b6060816002548110610d53576040517f08c379a0000000000000000000000000000000000000000000000000000000008152600401610d4a90611b56565b60405180910390fd5b6000808481526020019081526020016000206003018054610d7390611e88565b80601f0160208091040260200160405190810160405280929190818152602001828054610d9f90611e88565b8015610dec5780601f10610dc157610100808354040283529160200191610dec565b820191906000526020600020905b815481529060010190602001808311610dcf57829003601f168201915b5050505050915050919050565b6000816002548110610e40576040517f08c379a0000000000000000000000000000000000000000000000000000000008152600401610e3790611b56565b60405180910390fd5b60008084815260200190815260200160002060070160019054906101000a900473ffffffffffffffffffffffffffffffffffffffff16915050919050565b600160009054906101000a900473ffffffffffffffffffffffffffffffffffffffff1681565b6000816002548110610eeb576040517f08c379a0000000000000000000000000000000000000000000000000000000008152600401610ee290611b56565b60405180910390fd5b60008084815260200190815260200160002060000154915050919050565b6000816002548110610f50576040517f08c379a0000000000000000000000000000000000000000000000000000000008152600401610f4790611b56565b60405180910390fd5b60008084815260200190815260200160002060090154915050919050565b6000816002548110610fb5576040517f08c379a0000000000000000000000000000000000000000000000000000000008152600401610fac90611b56565b60405180910390fd5b60008084815260200190815260200160002060080160009054906101000a900473ffffffffffffffffffffffffffffffffffffffff16915050919050565b826002548110611038576040517f08c379a000000000000000000000000000000000000000000000000000000000815260040161102f90611b56565b60405180910390fd5b60006002811115611072577f4e487b7100000000000000000000000000000000000000000000000000000000600052602160045260246000fd5b60008086815260200190815260200160002060070160009054906101000a900460ff1660028111156110cd577f4e487b7100000000000000000000000000000000000000000000000000000000600052602160045260246000fd5b1461110d576040517f08c379a000000000000000000000000000000000000000000000000000000000815260040161110490611bd6565b60405180910390fd5b60008085815260200190815260200160002060070160019054906101000a900473ffffffffffffffffffffffffffffffffffffffff1660008086815260200190815260200160002060080160006101000a81548173ffffffffffffffffffffffffffffffffffffffff021916908373ffffffffffffffffffffffffffffffffffffffff1602179055508260008086815260200190815260200160002060070160016101000a81548173ffffffffffffffffffffffffffffffffffffffff021916908373ffffffffffffffffffffffffffffffffffffffff16021790555081600080868152602001908152602001600020600901819055507f913d09b391f64143215d9312fd7e8ecaa06001c646789c9d2109dc515bc34fad84846000808881526020019081526020016000206009015460405161124c93929190611c11565b60405180910390a150505050565b80600460006101000a81548173ffffffffffffffffffffffffffffffffffffffff021916908373ffffffffffffffffffffffffffffffffffffffff16021790555050565b6000600360009054906101000a900473ffffffffffffffffffffffffffffffffffffffff1673ffffffffffffffffffffffffffffffffffffffff163373ffffffffffffffffffffffffffffffffffffffff1614806113495750600460009054906101000a900473ffffffffffffffffffffffffffffffffffffffff1673ffffffffffffffffffffffffffffffffffffffff163373ffffffffffffffffffffffffffffffffffffffff16145b611388576040517f08c379a000000000000000000000000000000000000000000000000000000000815260040161137f90611b76565b60405180910390fd5b600060405180610180016040528060025481526020018a8152602001898152602001888152602001878152602001868152602001858152602001600060028111156113fc577f4e487b7100000000000000000000000000000000000000000000000000000000600052602160045260246000fd5b81526020013373ffffffffffffffffffffffffffffffffffffffff168152602001600073ffffffffffffffffffffffffffffffffffffffff16815260200184815260200160008152509050806000806002600081548092919061145e90611eba565b919050558152602001908152602001600020600082015181600001556020820151816001015560408201518160020190805190602001906114a092919061163e565b5060608201518160030190805190602001906114bd92919061163e565b506080820151816004015560a0820151816005015560c0820151816006015560e08201518160070160006101000a81548160ff0219169083600281111561152d577f4e487b7100000000000000000000000000000000000000000000000000000000600052602160045260246000fd5b02179055506101008201518160070160016101000a81548173ffffffffffffffffffffffffffffffffffffffff021916908373ffffffffffffffffffffffffffffffffffffffff1602179055506101208201518160080160006101000a81548173ffffffffffffffffffffffffffffffffffffffff021916908373ffffffffffffffffffffffffffffffffffffffff160217905550610140820151816009015561016082015181600a015590505060016002546115ea9190611d8d565b7f960fa3b53d2527c64fb943b9502a4541b1137488cb027f95b36b06b44d10fedc336040516116199190611ae3565b60405180910390a260016002546116309190611d8d565b915050979650505050505050565b82805461164a90611e88565b90600052602060002090601f01602090048101928261166c57600085556116b3565b82601f1061168557805160ff19168380011785556116b3565b828001600101855582156116b3579182015b828111156116b2578251825591602001919060010190611697565b5b5090506116c091906116c4565b5090565b5b808211156116dd5760008160009055506001016116c5565b5090565b60006116f46116ef84611d41565b611d10565b90508281526020810184848401111561170c57600080fd5b611717848285611e46565b509392505050565b60008135905061172e81611fe4565b92915050565b600082601f83011261174557600080fd5b81356117558482602086016116e1565b91505092915050565b60008135905061176d81611ffb565b92915050565b60006020828403121561178557600080fd5b60006117938482850161171f565b91505092915050565b6000602082840312156117ae57600080fd5b60006117bc8482850161175e565b91505092915050565b6000806000606084860312156117da57600080fd5b60006117e88682870161175e565b93505060206117f98682870161171f565b925050604061180a8682870161175e565b9150509250925092565b600080600080600080600060e0888a03121561182f57600080fd5b600061183d8a828b0161175e565b975050602088013567ffffffffffffffff81111561185a57600080fd5b6118668a828b01611734565b965050604088013567ffffffffffffffff81111561188357600080fd5b61188f8a828b01611734565b95505060606118a08a828b0161175e565b94505060806118b18a828b0161175e565b93505060a06118c28a828b0161175e565b92505060c06118d38a828b0161175e565b91505092959891949750929550565b6118eb81611dc1565b82525050565b6118fa81611e10565b82525050565b61190981611e34565b82525050565b600061191a82611d71565b6119248185611d7c565b9350611934818560208601611e55565b61193d81611fbf565b840191505092915050565b6000611955601183611d7c565b91507f496e76616c6964207469636b65742049440000000000000000000000000000006000830152602082019050919050565b6000611995600c83611d7c565b91507f556e617574686f72697a656400000000000000000000000000000000000000006000830152602082019050919050565b60006119d5601583611d7c565b91507f5469636b6574206973206e6f74206163746976652e00000000000000000000006000830152602082019050919050565b6000611a15602b83611d7c565b91507f5469636b65742061742077726f6e672073746174652c20616374696f6e206e6f60008301527f7420706572666f726d65640000000000000000000000000000000000000000006020830152604082019050919050565b6000611a7b603183611d7c565b91507f5469636b65742063616e6e6f74206265207472616e7366657272656420696e2060008301527f6974732063757272656e742073746174650000000000000000000000000000006020830152604082019050919050565b611add81611e06565b82525050565b6000602082019050611af860008301846118e2565b92915050565b6000602082019050611b1360008301846118f1565b92915050565b6000602082019050611b2e6000830184611900565b92915050565b60006020820190508181036000830152611b4e818461190f565b905092915050565b60006020820190508181036000830152611b6f81611948565b9050919050565b60006020820190508181036000830152611b8f81611988565b9050919050565b60006020820190508181036000830152611baf816119c8565b9050919050565b60006020820190508181036000830152611bcf81611a08565b9050919050565b60006020820190508181036000830152611bef81611a6e565b9050919050565b6000602082019050611c0b6000830184611ad4565b92915050565b6000606082019050611c266000830186611ad4565b611c3360208301856118e2565b611c406040830184611ad4565b949350505050565b600061018082019050611c5e600083018f611ad4565b611c6b602083018e611ad4565b8181036040830152611c7d818d61190f565b90508181036060830152611c91818c61190f565b9050611ca0608083018b611ad4565b611cad60a083018a611ad4565b611cba60c0830189611ad4565b611cc760e0830188611900565b611cd56101008301876118e2565b611ce36101208301866118e2565b611cf1610140830185611ad4565b611cff610160830184611ad4565b9d9c50505050505050505050505050565b6000604051905081810181811067ffffffffffffffff82111715611d3757611d36611f90565b5b8060405250919050565b600067ffffffffffffffff821115611d5c57611d5b611f90565b5b601f19601f8301169050602081019050919050565b600081519050919050565b600082825260208201905092915050565b6000611d9882611e06565b9150611da383611e06565b925082821015611db657611db5611f03565b5b828203905092915050565b6000611dcc82611de6565b9050919050565b6000819050611de182611fd0565b919050565b600073ffffffffffffffffffffffffffffffffffffffff82169050919050565b6000819050919050565b6000611e1b82611e22565b9050919050565b6000611e2d82611de6565b9050919050565b6000611e3f82611dd3565b9050919050565b82818337600083830152505050565b60005b83811015611e73578082015181840152602081019050611e58565b83811115611e82576000848401525b50505050565b60006002820490506001821680611ea057607f821691505b60208210811415611eb457611eb3611f61565b5b50919050565b6000611ec582611e06565b91507fffffffffffffffffffffffffffffffffffffffffffffffffffffffffffffffff821415611ef857611ef7611f03565b5b600182019050919050565b7f4e487b7100000000000000000000000000000000000000000000000000000000600052601160045260246000fd5b7f4e487b7100000000000000000000000000000000000000000000000000000000600052602160045260246000fd5b7f4e487b7100000000000000000000000000000000000000000000000000000000600052602260045260246000fd5b7f4e487b7100000000000000000000000000000000000000000000000000000000600052604160045260246000fd5b6000601f19601f8301169050919050565b60038110611fe157611fe0611f32565b5b50565b611fed81611dc1565b8114611ff857600080fd5b50565b61200481611e06565b811461200f57600080fd5b5056fea26469706673582212200a486a22a7c89a39383dd8f57f7acb76a1ae14741902a2a12ee12f4358fca19464736f6c63430008000033",
  "immutableReferences": {},
  "source": "// SPDX-License-Identifier: MIT\r\npragma solidity ^0.8.0;\r\n\r\nimport \"./ERC20.sol\";\r\nimport \"./TicketToken.sol\";\r\nimport \"./PresaleMarket.sol\";\r\n\r\ncontract Ticket {\r\n    enum TicketState {\r\n        Active,\r\n        Redeemed,\r\n        Frozen\r\n    }\r\n\r\n    struct ticket {\r\n        uint256 ticketId;\r\n        uint256 concertId;\r\n        string concertName;\r\n        string concertVenue;\r\n        uint256 concertDate;\r\n        uint256 ticketSectionNo;\r\n        uint256 ticketSeatNo;\r\n        TicketState ticketState;\r\n        address owner;\r\n        address prevOwner;\r\n        uint256 price;\r\n        uint256 resellPrice;\r\n    }\r\n\r\n    mapping(uint256 => ticket) public tickets;\r\n\r\n    event TicketCreated(uint256 indexed ticketId, address owner);\r\n    event TicketRedeemed(uint256 ticketId);\r\n    event TicketFrozen(uint256 ticketId);\r\n    event TicketBought(uint256 ticketId, address newOwner, uint256 price);\r\n\r\n    TicketToken public ticketToken;\r\n    uint256 public ticketCounter = 0;\r\n    address public owner;\r\n    address public presaleMarketAddress;\r\n\r\n    function setPresaleMarketAddress(address _presaleMarketAddress) public {\r\n        presaleMarketAddress = _presaleMarketAddress;\r\n    }\r\n\r\n    constructor(address _ticketToken) {\r\n        owner = msg.sender;\r\n        ticketToken = TicketToken(_ticketToken);\r\n    }\r\n\r\n    modifier atState(uint256 _ticketId, TicketState _state) {\r\n        require(\r\n            tickets[_ticketId].ticketState == _state,\r\n            \"Ticket at wrong state, action not performed\"\r\n        );\r\n        _;\r\n    }\r\n\r\n    modifier validTicketId(uint256 ticketId) {\r\n        require(ticketId < ticketCounter, \"Invalid ticket ID\");\r\n        _;\r\n    }\r\n\r\n    // function to create a new ticket and add to the tickets map\r\n    function createTicket(\r\n        uint256 concertId,\r\n        string memory concertName,\r\n        string memory concertVenue,\r\n        uint256 concertDate,\r\n        uint256 ticketSectionNo,\r\n        uint256 ticketSeatNo,\r\n        uint256 price\r\n    ) public onlyOwnerOrMarket returns (uint256) {\r\n        ticket memory newTicket = ticket({\r\n            ticketId: ticketCounter,\r\n            concertId: concertId,\r\n            concertName: concertName,\r\n            concertVenue: concertVenue,\r\n            concertDate: concertDate,\r\n            ticketSectionNo: ticketSectionNo,\r\n            ticketSeatNo: ticketSeatNo,\r\n            ticketState: TicketState.Active,\r\n            prevOwner: address(0),\r\n            owner: msg.sender, // Assuming the owner creates the ticket\r\n            price: price,\r\n            resellPrice: 0\r\n        });\r\n\r\n        tickets[ticketCounter++] = newTicket;\r\n        emit TicketCreated(ticketCounter - 1, msg.sender);\r\n        return ticketCounter - 1; // Return the ID of the newly created ticket\r\n    }\r\n\r\n    // Modifier to ensure a function is callable only by its owner\r\n    modifier ownerOnly(uint256 ticketId) {\r\n        require(tickets[ticketId].owner == msg.sender);\r\n        _;\r\n    }\r\n\r\n    // Modifier to ensure function can be called by presaleMarket as well\r\n    modifier onlyOwnerOrMarket() {\r\n        require(\r\n            msg.sender == owner || msg.sender == presaleMarketAddress,\r\n            \"Unauthorized\"\r\n        );\r\n        _;\r\n    }\r\n\r\n    function redeemTicket(uint256 _ticketId) public validTicketId(_ticketId) {\r\n        ticket storage myTicket = tickets[_ticketId];\r\n\r\n        // Ensure the ticket is active\r\n        require(\r\n            myTicket.ticketState == TicketState.Active,\r\n            \"Ticket is not active.\"\r\n        );\r\n\r\n        // Update the ticket state to Redeemed\r\n        myTicket.ticketState = TicketState.Redeemed;\r\n        emit TicketRedeemed(_ticketId);\r\n    }\r\n\r\n    function freezeTicket(\r\n        uint256 _ticketId\r\n    ) external atState(_ticketId, TicketState.Active) validTicketId(_ticketId) {\r\n        tickets[_ticketId].ticketState = TicketState.Frozen;\r\n        emit TicketFrozen(_ticketId);\r\n    }\r\n\r\n    function transfer(\r\n        uint256 ticketId,\r\n        address newOwner,\r\n        uint256 resellPrice\r\n    ) external validTicketId(ticketId) {\r\n        require(\r\n            tickets[ticketId].ticketState == TicketState.Active,\r\n            \"Ticket cannot be transferred in its current state\"\r\n        );\r\n\r\n        tickets[ticketId].prevOwner = tickets[ticketId].owner;\r\n        tickets[ticketId].owner = newOwner;\r\n        tickets[ticketId].price = resellPrice;\r\n\r\n        emit TicketBought(ticketId, newOwner, tickets[ticketId].price);\r\n    }\r\n\r\n    // Getter Functions for Ticket attributes\r\n    function getTicketId(\r\n        uint256 ticketId\r\n    ) public view validTicketId(ticketId) returns (uint256) {\r\n        return tickets[ticketId].ticketId;\r\n    }\r\n\r\n    function getConcertId(\r\n        uint256 ticketId\r\n    ) public view validTicketId(ticketId) returns (uint256) {\r\n        return tickets[ticketId].concertId;\r\n    }\r\n\r\n    function getConcertName(\r\n        uint256 ticketId\r\n    ) public view validTicketId(ticketId) returns (string memory) {\r\n        return tickets[ticketId].concertName;\r\n    }\r\n\r\n    function getConcertVenue(\r\n        uint256 ticketId\r\n    ) public view validTicketId(ticketId) returns (string memory) {\r\n        return tickets[ticketId].concertVenue;\r\n    }\r\n\r\n    function getConcertDate(\r\n        uint256 ticketId\r\n    ) public view validTicketId(ticketId) returns (uint256) {\r\n        return tickets[ticketId].concertDate;\r\n    }\r\n\r\n    function getTicketSectionNo(\r\n        uint256 ticketId\r\n    ) public view validTicketId(ticketId) returns (uint256) {\r\n        return tickets[ticketId].ticketSectionNo;\r\n    }\r\n\r\n    function getTicketSeatNo(\r\n        uint256 ticketId\r\n    ) public view validTicketId(ticketId) returns (uint256) {\r\n        return tickets[ticketId].ticketSeatNo;\r\n    }\r\n\r\n    function getTicketState(\r\n        uint256 ticketId\r\n    ) public view validTicketId(ticketId) returns (TicketState) {\r\n        return tickets[ticketId].ticketState;\r\n    }\r\n\r\n    function getOwner(\r\n        uint256 ticketId\r\n    ) public view validTicketId(ticketId) returns (address) {\r\n        return tickets[ticketId].owner;\r\n    }\r\n\r\n    function getPrevOwner(\r\n        uint256 ticketId\r\n    ) public view validTicketId(ticketId) returns (address) {\r\n        return tickets[ticketId].prevOwner;\r\n    }\r\n\r\n    function getPrice(\r\n        uint256 ticketId\r\n    ) public view validTicketId(ticketId) returns (uint256) {\r\n        return tickets[ticketId].price;\r\n    }\r\n}\r\n",
  "sourcePath": "C:\\Users\\tngjo\\OneDrive\\Desktop\\GitHub\\IS4302-Decentralized-Event-Ticketing-System\\contracts\\Ticket.sol",
  "compiler": {
    "name": "solc",
    "version": "0.8.0+commit.c7dfd78e.Emscripten.clang"
  },
  "schemaVersion": "3.4.16",
  "updatedAt": "2024-03-29T13:14:17.371Z",
  "devdoc": {
    "kind": "dev",
    "methods": {},
    "version": 1
  },
  "userdoc": {
    "kind": "user",
    "methods": {},
    "version": 1
  }
}