{
  "contractName": "TicketMarket",
  "abi": [
    {
      "inputs": [
        {
          "internalType": "address",
          "name": "_ticketContract",
          "type": "address"
        },
        {
          "internalType": "uint256",
          "name": "fee",
          "type": "uint256"
        },
        {
          "internalType": "address",
          "name": "_loyaltyPointsAddress",
          "type": "address"
        }
      ],
      "stateMutability": "nonpayable",
      "type": "constructor"
    },
    {
      "anonymous": false,
      "inputs": [
        {
          "indexed": false,
          "internalType": "uint256",
          "name": "ticketId",
          "type": "uint256"
        },
        {
          "indexed": false,
          "internalType": "uint256",
          "name": "price",
          "type": "uint256"
        }
      ],
      "name": "TicketListed",
      "type": "event"
    },
    {
      "anonymous": false,
      "inputs": [
        {
          "indexed": false,
          "internalType": "uint256",
          "name": "ticketId",
          "type": "uint256"
        },
        {
          "indexed": false,
          "internalType": "address",
          "name": "buyer",
          "type": "address"
        },
        {
          "indexed": false,
          "internalType": "uint256",
          "name": "price",
          "type": "uint256"
        }
      ],
      "name": "TicketSold",
      "type": "event"
    },
    {
      "anonymous": false,
      "inputs": [
        {
          "indexed": true,
          "internalType": "uint256",
          "name": "id",
          "type": "uint256"
        },
        {
          "indexed": false,
          "internalType": "address",
          "name": "from",
          "type": "address"
        },
        {
          "indexed": false,
          "internalType": "address",
          "name": "to",
          "type": "address"
        },
        {
          "indexed": false,
          "internalType": "uint256",
          "name": "price",
          "type": "uint256"
        }
      ],
      "name": "TicketTransferred",
      "type": "event"
    },
    {
      "anonymous": false,
      "inputs": [
        {
          "indexed": false,
          "internalType": "uint256",
          "name": "ticketId",
          "type": "uint256"
        }
      ],
      "name": "TicketUnlisted",
      "type": "event"
    },
    {
      "inputs": [],
      "name": "buyerQueue",
      "outputs": [
        {
          "internalType": "contract PriorityQueue",
          "name": "",
          "type": "address"
        }
      ],
      "stateMutability": "view",
      "type": "function"
    },
    {
      "inputs": [],
      "name": "commissionFee",
      "outputs": [
        {
          "internalType": "uint256",
          "name": "",
          "type": "uint256"
        }
      ],
      "stateMutability": "view",
      "type": "function"
    },
    {
      "inputs": [
        {
          "internalType": "uint256",
          "name": "",
          "type": "uint256"
        }
      ],
      "name": "listPrice",
      "outputs": [
        {
          "internalType": "uint256",
          "name": "",
          "type": "uint256"
        }
      ],
      "stateMutability": "view",
      "type": "function"
    },
    {
      "inputs": [],
      "name": "loyaltyPoints",
      "outputs": [
        {
          "internalType": "contract LoyaltyPoints",
          "name": "",
          "type": "address"
        }
      ],
      "stateMutability": "view",
      "type": "function"
    },
    {
      "inputs": [],
      "name": "owner",
      "outputs": [
        {
          "internalType": "address",
          "name": "",
          "type": "address"
        }
      ],
      "stateMutability": "view",
      "type": "function"
    },
    {
      "inputs": [],
      "name": "ticketContract",
      "outputs": [
        {
          "internalType": "contract ITicket",
          "name": "",
          "type": "address"
        }
      ],
      "stateMutability": "view",
      "type": "function"
    },
    {
      "inputs": [],
      "name": "ticketTokenContract",
      "outputs": [
        {
          "internalType": "contract TicketToken",
          "name": "",
          "type": "address"
        }
      ],
      "stateMutability": "view",
      "type": "function"
    },
    {
      "inputs": [
        {
          "internalType": "uint256",
          "name": "ticketId",
          "type": "uint256"
        },
        {
          "internalType": "uint256",
          "name": "price",
          "type": "uint256"
        }
      ],
      "name": "list",
      "outputs": [],
      "stateMutability": "nonpayable",
      "type": "function"
    },
    {
      "inputs": [
        {
          "internalType": "uint256",
          "name": "id",
          "type": "uint256"
        }
      ],
      "name": "unlist",
      "outputs": [],
      "stateMutability": "nonpayable",
      "type": "function"
    },
    {
      "inputs": [
        {
          "internalType": "uint256",
          "name": "ticketId",
          "type": "uint256"
        }
      ],
      "name": "getTicketPrice",
      "outputs": [
        {
          "internalType": "uint256",
          "name": "",
          "type": "uint256"
        }
      ],
      "stateMutability": "view",
      "type": "function"
    },
    {
      "inputs": [
        {
          "internalType": "address",
          "name": "buyer",
          "type": "address"
        }
      ],
      "name": "requestTicketPurchase",
      "outputs": [],
      "stateMutability": "nonpayable",
      "type": "function"
    },
    {
      "inputs": [],
      "name": "processTicketPurchases",
      "outputs": [],
      "stateMutability": "nonpayable",
      "type": "function"
    },
    {
      "inputs": [
        {
          "internalType": "uint256",
          "name": "ticketId",
          "type": "uint256"
        }
      ],
      "name": "buy",
      "outputs": [],
      "stateMutability": "payable",
      "type": "function"
    },
    {
      "inputs": [],
      "name": "thereAreTicketsAvailable",
      "outputs": [
        {
          "internalType": "bool",
          "name": "",
          "type": "bool"
        }
      ],
      "stateMutability": "view",
      "type": "function"
    },
    {
      "inputs": [
        {
          "internalType": "uint256",
          "name": "id",
          "type": "uint256"
        }
      ],
      "name": "checkPrice",
      "outputs": [
        {
          "internalType": "uint256",
          "name": "",
          "type": "uint256"
        }
      ],
      "stateMutability": "view",
      "type": "function"
    }
  ],
  "bytecode": "0x6080604052662386f26fc100006003553480156200001c57600080fd5b5060405162002fa638038062002fa68339818101604052810190620000429190620001bc565b82600160006101000a81548173ffffffffffffffffffffffffffffffffffffffff021916908373ffffffffffffffffffffffffffffffffffffffff16021790555081600381905550336000806101000a81548173ffffffffffffffffffffffffffffffffffffffff021916908373ffffffffffffffffffffffffffffffffffffffff16021790555080600560006101000a81548173ffffffffffffffffffffffffffffffffffffffff021916908373ffffffffffffffffffffffffffffffffffffffff160217905550604051620001199062000180565b604051809103906000f08015801562000136573d6000803e3d6000fd5b50600460006101000a81548173ffffffffffffffffffffffffffffffffffffffff021916908373ffffffffffffffffffffffffffffffffffffffff16021790555050505062000284565b6110378062001f6f83390190565b6000815190506200019f8162000250565b92915050565b600081519050620001b6816200026a565b92915050565b600080600060608486031215620001d257600080fd5b6000620001e2868287016200018e565b9350506020620001f586828701620001a5565b925050604062000208868287016200018e565b9150509250925092565b60006200021f8262000226565b9050919050565b600073ffffffffffffffffffffffffffffffffffffffff82169050919050565b6000819050919050565b6200025b8162000212565b81146200026757600080fd5b50565b620002758162000246565b81146200028157600080fd5b50565b611cdb80620002946000396000f3fe6080604052600436106100e85760003560e01c806387d81f7c1161008a578063956a20ea11610059578063956a20ea146102d2578063bf5a4dd3146102fd578063d96a094a14610326578063f06fc96114610342576100e8565b806387d81f7c14610216578063880796d3146102535780638da5cb5b1461027e578063911f38a4146102a9576100e8565b80635a1c3826116100c65780635a1c38261461017e5780636f51fc9c146101a95780636fb1eb0c146101c05780637f5e4263146101eb576100e8565b80631de7463a146100ed57806350fd73671461012a57806358a86e1d14610153575b600080fd5b3480156100f957600080fd5b50610114600480360381019061010f9190611592565b61037f565b6040516101219190611a40565b60405180910390f35b34801561013657600080fd5b50610151600480360381019061014c91906115e4565b61039c565b005b34801561015f57600080fd5b50610168610770565b60405161017591906118f4565b60405180910390f35b34801561018a57600080fd5b50610193610796565b6040516101a091906118d9565b60405180910390f35b3480156101b557600080fd5b506101be6107f6565b005b3480156101cc57600080fd5b506101d5610b20565b6040516101e29190611a40565b60405180910390f35b3480156101f757600080fd5b50610200610b26565b60405161020d9190611945565b60405180910390f35b34801561022257600080fd5b5061023d60048036038101906102389190611592565b610b4c565b60405161024a9190611a40565b60405180910390f35b34801561025f57600080fd5b50610268610b64565b604051610275919061192a565b60405180910390f35b34801561028a57600080fd5b50610293610b8a565b6040516102a09190611895565b60405180910390f35b3480156102b557600080fd5b506102d060048036038101906102cb91906114ee565b610bae565b005b3480156102de57600080fd5b506102e7610cf0565b6040516102f4919061190f565b60405180910390f35b34801561030957600080fd5b50610324600480360381019061031f9190611592565b610d16565b005b610340600480360381019061033b9190611592565b610fe2565b005b34801561034e57600080fd5b5061036960048036038101906103649190611592565b611453565b6040516103769190611a40565b60405180910390f35b600060066000838152602001908152602001600020549050919050565b813373ffffffffffffffffffffffffffffffffffffffff16600160009054906101000a900473ffffffffffffffffffffffffffffffffffffffff1673ffffffffffffffffffffffffffffffffffffffff1663c41a360a836040518263ffffffff1660e01b815260040161040f9190611a40565b60206040518083038186803b15801561042757600080fd5b505afa15801561043b573d6000803e3d6000fd5b505050506040513d601f19601f8201168201806040525081019061045f9190611517565b73ffffffffffffffffffffffffffffffffffffffff16146104b5576040517f08c379a00000000000000000000000000000000000000000000000000000000081526004016104ac906119c0565b60405180910390fd5b3373ffffffffffffffffffffffffffffffffffffffff16600160009054906101000a900473ffffffffffffffffffffffffffffffffffffffff1673ffffffffffffffffffffffffffffffffffffffff1663c41a360a856040518263ffffffff1660e01b81526004016105279190611a40565b60206040518083038186803b15801561053f57600080fd5b505afa158015610553573d6000803e3d6000fd5b505050506040513d601f19601f820116820180604052508101906105779190611517565b73ffffffffffffffffffffffffffffffffffffffff16146105cd576040517f08c379a00000000000000000000000000000000000000000000000000000000081526004016105c4906119c0565b60405180910390fd5b60006002811115610607577f4e487b7100000000000000000000000000000000000000000000000000000000600052602160045260246000fd5b600160009054906101000a900473ffffffffffffffffffffffffffffffffffffffff1673ffffffffffffffffffffffffffffffffffffffff16636482db3f856040518263ffffffff1660e01b81526004016106629190611a40565b60206040518083038186803b15801561067a57600080fd5b505afa15801561068e573d6000803e3d6000fd5b505050506040513d601f19601f820116820180604052508101906106b29190611569565b60028111156106ea577f4e487b7100000000000000000000000000000000000000000000000000000000600052602160045260246000fd5b1461072a576040517f08c379a000000000000000000000000000000000000000000000000000000000815260040161072190611960565b60405180910390fd5b8160066000858152602001908152602001600020819055506007839080600181540180825580915050600190039060005260206000200160009091909190915055505050565b600160009054906101000a900473ffffffffffffffffffffffffffffffffffffffff1681565b6000806000905060005b6007805490508110156107eb576000600660008381526020019081526020016000205411156107d85781806107d490611bd8565b9250505b80806107e390611bd8565b9150506107a0565b506000811191505090565b60008054906101000a900473ffffffffffffffffffffffffffffffffffffffff1673ffffffffffffffffffffffffffffffffffffffff163373ffffffffffffffffffffffffffffffffffffffff1614610884576040517f08c379a000000000000000000000000000000000000000000000000000000000815260040161087b906119e0565b60405180910390fd5b5b600460009054906101000a900473ffffffffffffffffffffffffffffffffffffffff1673ffffffffffffffffffffffffffffffffffffffff1663681fe70c6040518163ffffffff1660e01b815260040160206040518083038186803b1580156108ed57600080fd5b505afa158015610901573d6000803e3d6000fd5b505050506040513d601f19601f820116820180604052508101906109259190611540565b1580156109365750610935610796565b5b15610b1e576000600460009054906101000a900473ffffffffffffffffffffffffffffffffffffffff1673ffffffffffffffffffffffffffffffffffffffff1663957908d16040518163ffffffff1660e01b8152600401602060405180830381600087803b1580156109a757600080fd5b505af11580156109bb573d6000803e3d6000fd5b505050506040513d601f19601f820116820180604052508101906109df9190611517565b905060006007600081548110610a1e577f4e487b7100000000000000000000000000000000000000000000000000000000600052603260045260246000fd5b90600052602060002001549050600060066000838152602001908152602001600020549050600160009054906101000a900473ffffffffffffffffffffffffffffffffffffffff1673ffffffffffffffffffffffffffffffffffffffff1663b7760c8f83856040518363ffffffff1660e01b8152600401610aa0929190611a5b565b600060405180830381600087803b158015610aba57600080fd5b505af1158015610ace573d6000803e3d6000fd5b505050507fbce6612c87f6b5711225ffc4b9f920148cd399de49ba10137fe0d3c531333841828483604051610b0593929190611a84565b60405180910390a1610b1682610d16565b505050610885565b565b60035481565b600260009054906101000a900473ffffffffffffffffffffffffffffffffffffffff1681565b60066020528060005260406000206000915090505481565b600460009054906101000a900473ffffffffffffffffffffffffffffffffffffffff1681565b60008054906101000a900473ffffffffffffffffffffffffffffffffffffffff1681565b6000600560009054906101000a900473ffffffffffffffffffffffffffffffffffffffff1673ffffffffffffffffffffffffffffffffffffffff1663ee204abb836040518263ffffffff1660e01b8152600401610c0b9190611895565b60206040518083038186803b158015610c2357600080fd5b505afa158015610c37573d6000803e3d6000fd5b505050506040513d601f19601f82011682018060405250810190610c5b91906115bb565b9050600460009054906101000a900473ffffffffffffffffffffffffffffffffffffffff1673ffffffffffffffffffffffffffffffffffffffff16630ee0a17d83836040518363ffffffff1660e01b8152600401610cba9291906118b0565b600060405180830381600087803b158015610cd457600080fd5b505af1158015610ce8573d6000803e3d6000fd5b505050505050565b600560009054906101000a900473ffffffffffffffffffffffffffffffffffffffff1681565b600160009054906101000a900473ffffffffffffffffffffffffffffffffffffffff1673ffffffffffffffffffffffffffffffffffffffff1663c41a360a826040518263ffffffff1660e01b8152600401610d719190611a40565b60206040518083038186803b158015610d8957600080fd5b505afa158015610d9d573d6000803e3d6000fd5b505050506040513d601f19601f82011682018060405250810190610dc19190611517565b73ffffffffffffffffffffffffffffffffffffffff163373ffffffffffffffffffffffffffffffffffffffff1614610e2e576040517f08c379a0000000000000000000000000000000000000000000000000000000008152600401610e25906119a0565b60405180910390fd5b600060066000838152602001908152602001600020819055507fdb00f3044f762e640c77fdd12df2e7cf2b4c17de34f8995969a4d98b9904af4581604051610e769190611a40565b60405180910390a160005b600780549050811015610fde578160078281548110610ec9577f4e487b7100000000000000000000000000000000000000000000000000000000600052603260045260246000fd5b90600052602060002001541415610fcb5760076001600780549050610eee9190611acc565b81548110610f25577f4e487b7100000000000000000000000000000000000000000000000000000000600052603260045260246000fd5b906000526020600020015460078281548110610f6a577f4e487b7100000000000000000000000000000000000000000000000000000000600052603260045260246000fd5b90600052602060002001819055506007805480610fb0577f4e487b7100000000000000000000000000000000000000000000000000000000600052603160045260246000fd5b60019003818190600052602060002001600090559055610fde565b8080610fd690611bd8565b915050610e81565b5050565b600060066000838152602001908152602001600020541415611039576040517f08c379a000000000000000000000000000000000000000000000000000000000815260040161103090611980565b60405180910390fd5b600660008281526020019081526020016000205434101561108f576040517f08c379a000000000000000000000000000000000000000000000000000000000815260040161108690611a00565b60405180910390fd5b6000600160009054906101000a900473ffffffffffffffffffffffffffffffffffffffff1673ffffffffffffffffffffffffffffffffffffffff1663c41a360a836040518263ffffffff1660e01b81526004016110ec9190611a40565b60206040518083038186803b15801561110457600080fd5b505afa158015611118573d6000803e3d6000fd5b505050506040513d601f19601f8201168201806040525081019061113c9190611517565b90508073ffffffffffffffffffffffffffffffffffffffff163373ffffffffffffffffffffffffffffffffffffffff1614156111ad576040517f08c379a00000000000000000000000000000000000000000000000000000000081526004016111a490611a20565b60405180910390fd5b6000600160009054906101000a900473ffffffffffffffffffffffffffffffffffffffff1673ffffffffffffffffffffffffffffffffffffffff1663f2d03fcf846040518263ffffffff1660e01b815260040161120a9190611a40565b60206040518083038186803b15801561122257600080fd5b505afa158015611236573d6000803e3d6000fd5b505050506040513d601f19601f8201168201806040525081019061125a9190611517565b90506000600354600660008681526020019081526020016000205461127f9190611acc565b90508173ffffffffffffffffffffffffffffffffffffffff166108fc829081150290604051600060405180830381858888f193505050501580156112c7573d6000803e3d6000fd5b50600160009054906101000a900473ffffffffffffffffffffffffffffffffffffffff1673ffffffffffffffffffffffffffffffffffffffff1663b7760c8f85336040518363ffffffff1660e01b8152600401611325929190611a5b565b600060405180830381600087803b15801561133f57600080fd5b505af1158015611353573d6000803e3d6000fd5b505050507fbce6612c87f6b5711225ffc4b9f920148cd399de49ba10137fe0d3c5313338418433600660008881526020019081526020016000205460405161139d93929190611a84565b60405180910390a1600160009054906101000a900473ffffffffffffffffffffffffffffffffffffffff1673ffffffffffffffffffffffffffffffffffffffff1663b7760c8f85336040518363ffffffff1660e01b8152600401611402929190611a5b565b600060405180830381600087803b15801561141c57600080fd5b505af1158015611430573d6000803e3d6000fd5b505050506000600660008681526020019081526020016000208190555050505050565b600060066000838152602001908152602001600020549050919050565b60008135905061147f81611c50565b92915050565b60008151905061149481611c50565b92915050565b6000815190506114a981611c67565b92915050565b6000815190506114be81611c7e565b92915050565b6000813590506114d381611c8e565b92915050565b6000815190506114e881611c8e565b92915050565b60006020828403121561150057600080fd5b600061150e84828501611470565b91505092915050565b60006020828403121561152957600080fd5b600061153784828501611485565b91505092915050565b60006020828403121561155257600080fd5b60006115608482850161149a565b91505092915050565b60006020828403121561157b57600080fd5b6000611589848285016114af565b91505092915050565b6000602082840312156115a457600080fd5b60006115b2848285016114c4565b91505092915050565b6000602082840312156115cd57600080fd5b60006115db848285016114d9565b91505092915050565b600080604083850312156115f757600080fd5b6000611605858286016114c4565b9250506020611616858286016114c4565b9150509250929050565b61162981611b00565b82525050565b61163881611b12565b82525050565b61164781611b48565b82525050565b61165681611b6c565b82525050565b61166581611b90565b82525050565b61167481611bb4565b82525050565b6000611687602083611abb565b91507f5469636b6574206973206e6f7420696e20616e204163746976652073746174656000830152602082019050919050565b60006116c7601e83611abb565b91507f5469636b6574206d757374206265206c697374656420666f722073616c6500006000830152602082019050919050565b6000611707602483611abb565b91507f4f6e6c7920746865206f776e65722063616e20756e6c6973742074686520746960008301527f636b6574000000000000000000000000000000000000000000000000000000006020830152604082019050919050565b600061176d601e83611abb565b91507f43616c6c6572206973206e6f7420746865207469636b6574206f776e657200006000830152602082019050919050565b60006117ad602483611abb565b91507f4f6e6c7920746865206f776e65722063616e2070726f6365737320707572636860008301527f61736573000000000000000000000000000000000000000000000000000000006020830152604082019050919050565b6000611813601483611abb565b91507f496e73756666696369656e74207061796d656e740000000000000000000000006000830152602082019050919050565b6000611853601d83611abb565b91507f427579657220616c7265616479206f776e7320746865207469636b65740000006000830152602082019050919050565b61188f81611b3e565b82525050565b60006020820190506118aa6000830184611620565b92915050565b60006040820190506118c56000830185611620565b6118d26020830184611886565b9392505050565b60006020820190506118ee600083018461162f565b92915050565b6000602082019050611909600083018461163e565b92915050565b6000602082019050611924600083018461164d565b92915050565b600060208201905061193f600083018461165c565b92915050565b600060208201905061195a600083018461166b565b92915050565b600060208201905081810360008301526119798161167a565b9050919050565b60006020820190508181036000830152611999816116ba565b9050919050565b600060208201905081810360008301526119b9816116fa565b9050919050565b600060208201905081810360008301526119d981611760565b9050919050565b600060208201905081810360008301526119f9816117a0565b9050919050565b60006020820190508181036000830152611a1981611806565b9050919050565b60006020820190508181036000830152611a3981611846565b9050919050565b6000602082019050611a556000830184611886565b92915050565b6000604082019050611a706000830185611886565b611a7d6020830184611620565b9392505050565b6000606082019050611a996000830186611886565b611aa66020830185611620565b611ab36040830184611886565b949350505050565b600082825260208201905092915050565b6000611ad782611b3e565b9150611ae283611b3e565b925082821015611af557611af4611c21565b5b828203905092915050565b6000611b0b82611b1e565b9050919050565b60008115159050919050565b600073ffffffffffffffffffffffffffffffffffffffff82169050919050565b6000819050919050565b6000611b5382611b5a565b9050919050565b6000611b6582611b1e565b9050919050565b6000611b7782611b7e565b9050919050565b6000611b8982611b1e565b9050919050565b6000611b9b82611ba2565b9050919050565b6000611bad82611b1e565b9050919050565b6000611bbf82611bc6565b9050919050565b6000611bd182611b1e565b9050919050565b6000611be382611b3e565b91507fffffffffffffffffffffffffffffffffffffffffffffffffffffffffffffffff821415611c1657611c15611c21565b5b600182019050919050565b7f4e487b7100000000000000000000000000000000000000000000000000000000600052601160045260246000fd5b611c5981611b00565b8114611c6457600080fd5b50565b611c7081611b12565b8114611c7b57600080fd5b50565b60038110611c8b57600080fd5b50565b611c9781611b3e565b8114611ca257600080fd5b5056fea26469706673582212205c2806faf7d6caf012e070c3b8b11e5b6a6e1731ada2939d9b5471ff06fbca1864736f6c63430008000033608060405234801561001057600080fd5b5060006040518060400160405280600073ffffffffffffffffffffffffffffffffffffffff1681526020016000815250908060018154018082558091505060019003906000526020600020906002020160009091909190915060008201518160000160006101000a81548173ffffffffffffffffffffffffffffffffffffffff021916908373ffffffffffffffffffffffffffffffffffffffff1602179055506020820151816001015550506000600181905550610f64806100d36000396000f3fe608060405234801561001057600080fd5b506004361061004c5760003560e01c80630ee0a17d14610051578063681fe70c1461006d578063949d225d1461008b578063957908d1146100a9575b600080fd5b61006b60048036038101906100669190610bdb565b6100c7565b005b61007561019d565b6040516100829190610c9f565b60405180910390f35b6100936101a9565b6040516100a09190610cda565b60405180910390f35b6100b16101af565b6040516100be9190610c84565b60405180910390f35b600060405180604001604052808473ffffffffffffffffffffffffffffffffffffffff168152602001838152509050600081908060018154018082558091505060019003906000526020600020906002020160009091909190915060008201518160000160006101000a81548173ffffffffffffffffffffffffffffffffffffffff021916908373ffffffffffffffffffffffffffffffffffffffff1602179055506020820151816001015550506001600081548092919061018890610e59565b9190505550610198600154610471565b505050565b60008060015414905090565b60015481565b600080600154116101f5576040517f08c379a00000000000000000000000000000000000000000000000000000000081526004016101ec90610cba565b60405180910390fd5b600080600181548110610231577f4e487b7100000000000000000000000000000000000000000000000000000000600052603260045260246000fd5b906000526020600020906002020160000160009054906101000a900473ffffffffffffffffffffffffffffffffffffffff169050600080600154815481106102a2577f4e487b7100000000000000000000000000000000000000000000000000000000600052603260045260246000fd5b90600052602060002090600202016040518060400160405290816000820160009054906101000a900473ffffffffffffffffffffffffffffffffffffffff1673ffffffffffffffffffffffffffffffffffffffff1673ffffffffffffffffffffffffffffffffffffffff1681526020016001820154815250509050806000600181548110610359577f4e487b7100000000000000000000000000000000000000000000000000000000600052603260045260246000fd5b906000526020600020906002020160008201518160000160006101000a81548173ffffffffffffffffffffffffffffffffffffffff021916908373ffffffffffffffffffffffffffffffffffffffff1602179055506020820151816001015590505060008054806103f3577f4e487b7100000000000000000000000000000000000000000000000000000000600052603160045260246000fd5b6001900381819060005260206000209060020201600080820160006101000a81549073ffffffffffffffffffffffffffffffffffffffff02191690556001820160009055505090556001600081548092919061044e90610e2f565b9190505550600060015411156104695761046860016107af565b5b819250505090565b5b6001811180156105235750600081815481106104b7577f4e487b7100000000000000000000000000000000000000000000000000000000600052603260045260246000fd5b90600052602060002090600202016001015460006002836104d89190610d5c565b8154811061050f577f4e487b7100000000000000000000000000000000000000000000000000000000600052603260045260246000fd5b906000526020600020906002020160010154115b156107ac576000806002836105389190610d5c565b8154811061056f577f4e487b7100000000000000000000000000000000000000000000000000000000600052603260045260246000fd5b90600052602060002090600202016040518060400160405290816000820160009054906101000a900473ffffffffffffffffffffffffffffffffffffffff1673ffffffffffffffffffffffffffffffffffffffff1673ffffffffffffffffffffffffffffffffffffffff168152602001600182015481525050905060008281548110610624577f4e487b7100000000000000000000000000000000000000000000000000000000600052603260045260246000fd5b906000526020600020906002020160006002846106419190610d5c565b81548110610678577f4e487b7100000000000000000000000000000000000000000000000000000000600052603260045260246000fd5b90600052602060002090600202016000820160009054906101000a900473ffffffffffffffffffffffffffffffffffffffff168160000160006101000a81548173ffffffffffffffffffffffffffffffffffffffff021916908373ffffffffffffffffffffffffffffffffffffffff160217905550600182015481600101559050508060008381548110610735577f4e487b7100000000000000000000000000000000000000000000000000000000600052603260045260246000fd5b906000526020600020906002020160008201518160000160006101000a81548173ffffffffffffffffffffffffffffffffffffffff021916908373ffffffffffffffffffffffffffffffffffffffff160217905550602082015181600101559050506002826107a49190610d5c565b915050610472565b50565b600081905060008260026107c39190610d8d565b9050600060018460026107d69190610d8d565b6107e09190610d06565b90506001548211158015610889575060008381548110610829577f4e487b7100000000000000000000000000000000000000000000000000000000600052603260045260246000fd5b90600052602060002090600202016001015460008381548110610875577f4e487b7100000000000000000000000000000000000000000000000000000000600052603260045260246000fd5b906000526020600020906002020160010154105b15610892578192505b60015481111580156109395750600083815481106108d9577f4e487b7100000000000000000000000000000000000000000000000000000000600052603260045260246000fd5b90600052602060002090600202016001015460008281548110610925577f4e487b7100000000000000000000000000000000000000000000000000000000600052603260045260246000fd5b906000526020600020906002020160010154105b15610942578092505b838314610bab576000808581548110610984577f4e487b7100000000000000000000000000000000000000000000000000000000600052603260045260246000fd5b90600052602060002090600202016040518060400160405290816000820160009054906101000a900473ffffffffffffffffffffffffffffffffffffffff1673ffffffffffffffffffffffffffffffffffffffff1673ffffffffffffffffffffffffffffffffffffffff168152602001600182015481525050905060008481548110610a39577f4e487b7100000000000000000000000000000000000000000000000000000000600052603260045260246000fd5b906000526020600020906002020160008681548110610a81577f4e487b7100000000000000000000000000000000000000000000000000000000600052603260045260246000fd5b90600052602060002090600202016000820160009054906101000a900473ffffffffffffffffffffffffffffffffffffffff168160000160006101000a81548173ffffffffffffffffffffffffffffffffffffffff021916908373ffffffffffffffffffffffffffffffffffffffff160217905550600182015481600101559050508060008581548110610b3e577f4e487b7100000000000000000000000000000000000000000000000000000000600052603260045260246000fd5b906000526020600020906002020160008201518160000160006101000a81548173ffffffffffffffffffffffffffffffffffffffff021916908373ffffffffffffffffffffffffffffffffffffffff16021790555060208201518160010155905050610ba9846107af565b505b50505050565b600081359050610bc081610f00565b92915050565b600081359050610bd581610f17565b92915050565b60008060408385031215610bee57600080fd5b6000610bfc85828601610bb1565b9250506020610c0d85828601610bc6565b9150509250929050565b610c2081610de7565b82525050565b610c2f81610df9565b82525050565b6000610c42600e83610cf5565b91507f517565756520697320656d7074790000000000000000000000000000000000006000830152602082019050919050565b610c7e81610e25565b82525050565b6000602082019050610c996000830184610c17565b92915050565b6000602082019050610cb46000830184610c26565b92915050565b60006020820190508181036000830152610cd381610c35565b9050919050565b6000602082019050610cef6000830184610c75565b92915050565b600082825260208201905092915050565b6000610d1182610e25565b9150610d1c83610e25565b9250827fffffffffffffffffffffffffffffffffffffffffffffffffffffffffffffffff03821115610d5157610d50610ea2565b5b828201905092915050565b6000610d6782610e25565b9150610d7283610e25565b925082610d8257610d81610ed1565b5b828204905092915050565b6000610d9882610e25565b9150610da383610e25565b9250817fffffffffffffffffffffffffffffffffffffffffffffffffffffffffffffffff0483118215151615610ddc57610ddb610ea2565b5b828202905092915050565b6000610df282610e05565b9050919050565b60008115159050919050565b600073ffffffffffffffffffffffffffffffffffffffff82169050919050565b6000819050919050565b6000610e3a82610e25565b91506000821415610e4e57610e4d610ea2565b5b600182039050919050565b6000610e6482610e25565b91507fffffffffffffffffffffffffffffffffffffffffffffffffffffffffffffffff821415610e9757610e96610ea2565b5b600182019050919050565b7f4e487b7100000000000000000000000000000000000000000000000000000000600052601160045260246000fd5b7f4e487b7100000000000000000000000000000000000000000000000000000000600052601260045260246000fd5b610f0981610de7565b8114610f1457600080fd5b50565b610f2081610e25565b8114610f2b57600080fd5b5056fea2646970667358221220f7c2832ba848f806bba66d263947f688b5c2d56dd36b5f81627daa33bb25d75c64736f6c63430008000033",
  "immutableReferences": {},
  "source": "// SPDX-License-Identifier: MIT\r\npragma solidity ^0.8.0;\r\n\r\nimport \"./ERC20.sol\";\r\nimport \"./Ticket.sol\";\r\nimport \"./TicketToken.sol\";\r\nimport \"./PriorityQueue.sol\";\r\nimport \"./LoyaltyPoints.sol\";\r\n\r\ninterface ITicket {\r\n    function getPrevOwner(uint256 ticketId) external view returns (address);\r\n    function getOwner(uint256 ticketId) external view returns (address);\r\n    function getTicketState(\r\n        uint256 ticketId\r\n    ) external view returns (Ticket.TicketState);\r\n    function transfer(uint256 ticketId, address newOwner) external;\r\n}\r\n\r\ncontract TicketMarket {\r\n    address public owner;\r\n    ITicket public ticketContract;\r\n    TicketToken public ticketTokenContract;\r\n    uint256 public commissionFee = 0.01 ether;\r\n\r\n    PriorityQueue public buyerQueue;\r\n    LoyaltyPoints public loyaltyPoints;\r\n\r\n    // Mapping from ticket ID to listing price\r\n    mapping(uint256 => uint256) public listPrice;\r\n\r\n    uint256[] private listedTickets; // To track listed ticket IDs\r\n\r\n    // Event emitted when a ticket is listed for sale\r\n    event TicketListed(uint256 ticketId, uint256 price);\r\n    event TicketUnlisted(uint256 ticketId);\r\n    event TicketSold(uint256 ticketId, address buyer, uint256 price);\r\n\r\n    // Modifier to check if the caller is the ticket owner\r\n    modifier onlyTicketOwner(uint256 ticketId) {\r\n        require(\r\n            ticketContract.getOwner(ticketId) == msg.sender,\r\n            \"Caller is not the ticket owner\"\r\n        );\r\n        _;\r\n    }\r\n\r\n    // Event emitted when a ticket is transferred\r\n    event TicketTransferred(\r\n        uint256 indexed id,\r\n        address from,\r\n        address to,\r\n        uint256 price\r\n    );\r\n\r\n    constructor(\r\n        address _ticketContract,\r\n        uint256 fee,\r\n        address _loyaltyPointsAddress\r\n    ) {\r\n        ticketContract = ITicket(_ticketContract);\r\n        commissionFee = fee;\r\n        owner = msg.sender;\r\n        loyaltyPoints = LoyaltyPoints(_loyaltyPointsAddress);\r\n        buyerQueue = new PriorityQueue();\r\n    }\r\n\r\n    // List a ticket for sale. Price needs to be >= value + fee\r\n    function list(\r\n        uint256 ticketId,\r\n        uint256 price\r\n    ) public onlyTicketOwner(ticketId) {\r\n        require(\r\n            ticketContract.getOwner(ticketId) == msg.sender,\r\n            \"Caller is not the ticket owner\"\r\n        );\r\n\r\n        require(\r\n            ticketContract.getTicketState(ticketId) ==\r\n                Ticket.TicketState.Active,\r\n            \"Ticket is not in an Active state\"\r\n        );\r\n\r\n        // Set the listing price for the ticket\r\n        listPrice[ticketId] = price;\r\n        listedTickets.push(ticketId); // Add ticket ID to the list of listed tickets\r\n    }\r\n\r\n    function unlist(uint256 id) public {\r\n        require(\r\n            msg.sender == ticketContract.getOwner(id),\r\n            \"Only the owner can unlist the ticket\"\r\n        );\r\n        listPrice[id] = 0;\r\n        emit TicketUnlisted(id); // Emit event for ticket unlisting\r\n\r\n        // Remove the ticket ID from listedTickets\r\n        for (uint256 i = 0; i < listedTickets.length; i++) {\r\n            if (listedTickets[i] == id) {\r\n                listedTickets[i] = listedTickets[listedTickets.length - 1]; // Move the last element to the current index\r\n                listedTickets.pop(); // Remove the last element\r\n                break; // Exit the loop once the ticket ID is removed\r\n            }\r\n        }\r\n    }\r\n\r\n    // Get price of ticket\r\n    function getTicketPrice(uint256 ticketId) public view returns (uint256) {\r\n        return listPrice[ticketId];\r\n    }\r\n\r\n    //Addition of PriorityQueue\r\n    //add buyers to the PriorityQueue instead of immediately processing the purchase\r\n    function requestTicketPurchase(address buyer) public {\r\n        uint points = loyaltyPoints.getPoints(buyer);\r\n        buyerQueue.enqueue(buyer, points);\r\n    }\r\n\r\n    function processTicketPurchases() public {\r\n        require(msg.sender == owner, \"Only the owner can process purchases\");\r\n\r\n        while (!buyerQueue.isEmpty() && thereAreTicketsAvailable()) {\r\n            address buyer = buyerQueue.dequeue();\r\n\r\n            // For simplicity, we attempt to purchase the first available ticket.\r\n            uint256 ticketId = listedTickets[0];\r\n\r\n            uint256 ticketPrice = listPrice[ticketId];\r\n\r\n            // Transfer the ticket and emit an event.\r\n            ticketContract.transfer(ticketId, buyer);\r\n            emit TicketSold(ticketId, buyer, ticketPrice);\r\n\r\n            // Remove the ticket from the listing.\r\n            unlist(ticketId);\r\n        }\r\n    }\r\n\r\n    // Buy the ticket at the requested price\r\n    function buy(uint256 ticketId) public payable {\r\n        // Check if the ticket is listed for sale\r\n        require(listPrice[ticketId] != 0, \"Ticket must be listed for sale\");\r\n        // Check if payment is enough\r\n        require(msg.value >= listPrice[ticketId], \"Insufficient payment\");\r\n\r\n        address ticketOwner = ticketContract.getOwner(ticketId);\r\n        require(msg.sender != ticketOwner, \"Buyer already owns the ticket\");\r\n\r\n        address payable recipient = payable(ticketContract.getPrevOwner(ticketId));\r\n\r\n        // Calculate the amount to transfer to the ticket owner after deducting the commission fee\r\n        uint256 amountToTransfer = listPrice[ticketId] - commissionFee;\r\n        // Transfer payment to the ticket owner after deducting the commission fee\r\n        recipient.transfer(amountToTransfer);\r\n\r\n        // Transfer ownership in the Ticket contract\r\n        ticketContract.transfer(ticketId, msg.sender);\r\n\r\n        // Emit event for ticket purchase\r\n        emit TicketSold(ticketId, msg.sender, listPrice[ticketId]);\r\n\r\n        // Transfer ownership of the ticket\r\n        ticketContract.transfer(ticketId, msg.sender);\r\n\r\n        // Remove the ticket from the listing after purchase\r\n        listPrice[ticketId] = 0;\r\n    }\r\n\r\n    function thereAreTicketsAvailable() public view returns (bool) {\r\n        uint256 availableTickets = 0;\r\n        for (uint256 i = 0; i < listedTickets.length; i++) {\r\n            if (listPrice[i] > 0) {\r\n                availableTickets++;\r\n            }\r\n        }\r\n        return availableTickets > 0;\r\n    }\r\n\r\n    // get price of ticket\r\n    function checkPrice(uint256 id) public view returns (uint256) {\r\n        return listPrice[id];\r\n    }\r\n}\r\n",
  "sourcePath": "C:\\Users\\tngjo\\OneDrive\\Desktop\\GitHub\\IS4302-Decentralized-Event-Ticketing-System\\contracts\\TicketMarket.sol",
  "compiler": {
    "name": "solc",
    "version": "0.8.0+commit.c7dfd78e.Emscripten.clang"
  },
  "schemaVersion": "3.4.16",
  "updatedAt": "2024-03-21T14:55:36.260Z",
  "devdoc": {
    "kind": "dev",
    "methods": {},
    "version": 1
  },
  "userdoc": {
    "kind": "user",
    "methods": {},
    "version": 1
  }
}