{
  "contractName": "TicketToken",
  "abi": [
    {
      "inputs": [],
      "stateMutability": "nonpayable",
      "type": "constructor"
    },
    {
      "inputs": [],
      "name": "getCredit",
      "outputs": [],
      "stateMutability": "payable",
      "type": "function"
    },
    {
      "inputs": [],
      "name": "checkCredit",
      "outputs": [
        {
          "internalType": "uint256",
          "name": "",
          "type": "uint256"
        }
      ],
      "stateMutability": "view",
      "type": "function"
    }
  ],
  "bytecode": "0x608060405234801561001057600080fd5b50600060405161001f906100c5565b604051809103906000f08015801561003b573d6000803e3d6000fd5b509050806000806101000a81548173ffffffffffffffffffffffffffffffffffffffff021916908373ffffffffffffffffffffffffffffffffffffffff16021790555033600260006101000a81548173ffffffffffffffffffffffffffffffffffffffff021916908373ffffffffffffffffffffffffffffffffffffffff160217905550506100d2565b610dd0806104c283390190565b6103e1806100e16000396000f3fe6080604052600436106100295760003560e01c806359296e7b1461002e5780636cba629014610038575b600080fd5b610036610063565b005b34801561004457600080fd5b5061004d61012b565b60405161005a91906102ba565b60405180910390f35b6000662386f26fc100003461007891906102d5565b905060008054906101000a900473ffffffffffffffffffffffffffffffffffffffff1673ffffffffffffffffffffffffffffffffffffffff166340c10f1933836040518363ffffffff1660e01b81526004016100d5929190610291565b602060405180830381600087803b1580156100ef57600080fd5b505af1158015610103573d6000803e3d6000fd5b505050506040513d601f19601f820116820180604052508101906101279190610206565b5050565b60008060009054906101000a900473ffffffffffffffffffffffffffffffffffffffff1673ffffffffffffffffffffffffffffffffffffffff166370a08231336040518263ffffffff1660e01b81526004016101879190610276565b60206040518083038186803b15801561019f57600080fd5b505afa1580156101b3573d6000803e3d6000fd5b505050506040513d601f19601f820116820180604052508101906101d7919061022f565b905090565b6000815190506101eb8161037d565b92915050565b60008151905061020081610394565b92915050565b60006020828403121561021857600080fd5b6000610226848285016101dc565b91505092915050565b60006020828403121561024157600080fd5b600061024f848285016101f1565b91505092915050565b61026181610306565b82525050565b61027081610344565b82525050565b600060208201905061028b6000830184610258565b92915050565b60006040820190506102a66000830185610258565b6102b36020830184610267565b9392505050565b60006020820190506102cf6000830184610267565b92915050565b60006102e082610344565b91506102eb83610344565b9250826102fb576102fa61034e565b5b828204905092915050565b600061031182610324565b9050919050565b60008115159050919050565b600073ffffffffffffffffffffffffffffffffffffffff82169050919050565b6000819050919050565b7f4e487b7100000000000000000000000000000000000000000000000000000000600052601260045260246000fd5b61038681610318565b811461039157600080fd5b50565b61039d81610344565b81146103a857600080fd5b5056fea26469706673582212208b8bc840dcb0790f4533ab166ecfb6a6f14a82b7a86cc4c490934fa94dfac13e64736f6c63430008000033608060405260008060006101000a81548160ff02191690831515021790555033600060016101000a81548173ffffffffffffffffffffffffffffffffffffffff021916908373ffffffffffffffffffffffffffffffffffffffff16021790555034801561006b57600080fd5b50610d558061007b6000396000f3fe608060405234801561001057600080fd5b506004361061009e5760003560e01c8063893d20e811610066578063893d20e81461015d5780638da5cb5b1461017b57806395d89b41146101995780639dc29fac146101b7578063a9059cbb146101e75761009e565b806305d2035b146100a357806306fdde03146100c1578063313ce567146100df57806340c10f19146100fd57806370a082311461012d575b600080fd5b6100ab610217565b6040516100b89190610af0565b60405180910390f35b6100c9610228565b6040516100d69190610b0b565b60405180910390f35b6100e7610261565b6040516100f49190610b68565b60405180910390f35b610117600480360381019061011291906109be565b610266565b6040516101249190610af0565b60405180910390f35b61014760048036038101906101429190610995565b610447565b6040516101549190610b4d565b60405180910390f35b610165610490565b6040516101729190610ad5565b60405180910390f35b6101836104b9565b6040516101909190610ad5565b60405180910390f35b6101a16104df565b6040516101ae9190610b0b565b60405180910390f35b6101d160048036038101906101cc91906109be565b610518565b6040516101de9190610af0565b60405180910390f35b61020160048036038101906101fc91906109be565b61067b565b60405161020e9190610af0565b60405180910390f35b60008054906101000a900460ff1681565b6040518060400160405280601281526020017f436f6e636572745469636b6574546f6b656e000000000000000000000000000081525081565b601281565b60008060019054906101000a900473ffffffffffffffffffffffffffffffffffffffff1673ffffffffffffffffffffffffffffffffffffffff163373ffffffffffffffffffffffffffffffffffffffff16146102c157600080fd5b60008054906101000a900460ff16156102d957600080fd5b6102ee826003546108d190919063ffffffff16565b60038190555061034682600260008673ffffffffffffffffffffffffffffffffffffffff1673ffffffffffffffffffffffffffffffffffffffff168152602001908152602001600020546108d190919063ffffffff16565b600260008573ffffffffffffffffffffffffffffffffffffffff1673ffffffffffffffffffffffffffffffffffffffff168152602001908152602001600020819055508273ffffffffffffffffffffffffffffffffffffffff167f0f6798a560793a54c3bcfe86a93cde1e73087d944c0ea20544137d4121396885836040516103cf9190610b4d565b60405180910390a28273ffffffffffffffffffffffffffffffffffffffff16600073ffffffffffffffffffffffffffffffffffffffff167fddf252ad1be2c89b69c2b068fc378daa952ba7f163c4a11628f55a4df523b3ef846040516104359190610b4d565b60405180910390a36001905092915050565b6000600260008373ffffffffffffffffffffffffffffffffffffffff1673ffffffffffffffffffffffffffffffffffffffff168152602001908152602001600020549050919050565b60008060019054906101000a900473ffffffffffffffffffffffffffffffffffffffff16905090565b600060019054906101000a900473ffffffffffffffffffffffffffffffffffffffff1681565b6040518060400160405280600381526020017f435454000000000000000000000000000000000000000000000000000000000081525081565b60008060019054906101000a900473ffffffffffffffffffffffffffffffffffffffff1673ffffffffffffffffffffffffffffffffffffffff163373ffffffffffffffffffffffffffffffffffffffff161461057357600080fd5b6105888260035461091e90919063ffffffff16565b6003819055506105e082600260008673ffffffffffffffffffffffffffffffffffffffff1673ffffffffffffffffffffffffffffffffffffffff1681526020019081526020016000205461091e90919063ffffffff16565b600260008573ffffffffffffffffffffffffffffffffffffffff1673ffffffffffffffffffffffffffffffffffffffff168152602001908152602001600020819055508273ffffffffffffffffffffffffffffffffffffffff167fcc16f5dbb4873280815c1ee09dbd06736cffcc184412cf7a71a0fdb75d397ca5836040516106699190610b4d565b60405180910390a26001905092915050565b60008073ffffffffffffffffffffffffffffffffffffffff168373ffffffffffffffffffffffffffffffffffffffff1614156106b657600080fd5b600260003273ffffffffffffffffffffffffffffffffffffffff1673ffffffffffffffffffffffffffffffffffffffff16815260200190815260200160002054821115610738576040517f08c379a000000000000000000000000000000000000000000000000000000000815260040161072f90610b2d565b60405180910390fd5b61078a82600260003273ffffffffffffffffffffffffffffffffffffffff1673ffffffffffffffffffffffffffffffffffffffff1681526020019081526020016000205461091e90919063ffffffff16565b600260003273ffffffffffffffffffffffffffffffffffffffff1673ffffffffffffffffffffffffffffffffffffffff1681526020019081526020016000208190555061081f82600260008673ffffffffffffffffffffffffffffffffffffffff1673ffffffffffffffffffffffffffffffffffffffff168152602001908152602001600020546108d190919063ffffffff16565b600260008573ffffffffffffffffffffffffffffffffffffffff1673ffffffffffffffffffffffffffffffffffffffff168152602001908152602001600020819055508273ffffffffffffffffffffffffffffffffffffffff163273ffffffffffffffffffffffffffffffffffffffff167fddf252ad1be2c89b69c2b068fc378daa952ba7f163c4a11628f55a4df523b3ef846040516108bf9190610b4d565b60405180910390a36001905092915050565b600081836108df9190610b9f565b905082811015610918577f4e487b7100000000000000000000000000000000000000000000000000000000600052600160045260246000fd5b92915050565b600082821115610957577f4e487b7100000000000000000000000000000000000000000000000000000000600052600160045260246000fd5b81836109639190610bf5565b905092915050565b60008135905061097a81610cf1565b92915050565b60008135905061098f81610d08565b92915050565b6000602082840312156109a757600080fd5b60006109b58482850161096b565b91505092915050565b600080604083850312156109d157600080fd5b60006109df8582860161096b565b92505060206109f085828601610980565b9150509250929050565b610a0381610c29565b82525050565b610a1281610c3b565b82525050565b6000610a2382610b83565b610a2d8185610b8e565b9350610a3d818560208601610c7e565b610a4681610ce0565b840191505092915050565b6000610a5e602683610b8e565b91507f6d73672e73656e64657220646f65736e2774206861766520656e6f756768206260008301527f616c616e636500000000000000000000000000000000000000000000000000006020830152604082019050919050565b610ac081610c67565b82525050565b610acf81610c71565b82525050565b6000602082019050610aea60008301846109fa565b92915050565b6000602082019050610b056000830184610a09565b92915050565b60006020820190508181036000830152610b258184610a18565b905092915050565b60006020820190508181036000830152610b4681610a51565b9050919050565b6000602082019050610b626000830184610ab7565b92915050565b6000602082019050610b7d6000830184610ac6565b92915050565b600081519050919050565b600082825260208201905092915050565b6000610baa82610c67565b9150610bb583610c67565b9250827fffffffffffffffffffffffffffffffffffffffffffffffffffffffffffffffff03821115610bea57610be9610cb1565b5b828201905092915050565b6000610c0082610c67565b9150610c0b83610c67565b925082821015610c1e57610c1d610cb1565b5b828203905092915050565b6000610c3482610c47565b9050919050565b60008115159050919050565b600073ffffffffffffffffffffffffffffffffffffffff82169050919050565b6000819050919050565b600060ff82169050919050565b60005b83811015610c9c578082015181840152602081019050610c81565b83811115610cab576000848401525b50505050565b7f4e487b7100000000000000000000000000000000000000000000000000000000600052601160045260246000fd5b6000601f19601f8301169050919050565b610cfa81610c29565b8114610d0557600080fd5b50565b610d1181610c67565b8114610d1c57600080fd5b5056fea2646970667358221220b4f7a6bba002365a3458d93ad4b6c71f1c077f176b8929680f4e191f857dc31a64736f6c63430008000033",
  "immutableReferences": {},
  "source": "pragma solidity ^0.8.0;\r\n\r\nimport \"./ERC20.sol\";\r\n\r\ncontract TicketToken {\r\n    ERC20 erc20Contract;\r\n    uint256 currentSupply;\r\n    address owner;\r\n    \r\n    constructor() {\r\n        ERC20 e = new ERC20();\r\n        erc20Contract = e;\r\n        owner = msg.sender;\r\n    }\r\n\r\n    function getCredit() public payable {\r\n        uint256 amt = msg.value / 10000000000000000; // Get TTs eligible\r\n        // erc20Contract.transferFrom(owner, msg.sender, amt);\r\n        erc20Contract.mint(msg.sender, amt);\r\n    }\r\n\r\n    function checkCredit() public view returns(uint256) {\r\n        return erc20Contract.balanceOf(msg.sender);\r\n    }\r\n\r\n}",
  "sourcePath": "C:\\Users\\tngjo\\OneDrive\\Documents\\GitHub\\IS4302-Decentralized-Event-Ticketing-System\\contracts\\TicketToken.sol",
  "compiler": {
    "name": "solc",
    "version": "0.8.0+commit.c7dfd78e.Emscripten.clang"
  },
  "schemaVersion": "3.4.16",
  "updatedAt": "2024-03-14T09:56:42.200Z",
  "devdoc": {
    "kind": "dev",
    "methods": {},
    "version": 1
  },
  "userdoc": {
    "kind": "user",
    "methods": {},
    "version": 1
  }
}