{
  "contractName": "TicketMarket",
  "abi": [
    {
      "inputs": [
        {
          "internalType": "address",
          "name": "_ticketContract",
          "type": "address"
        },
        {
          "internalType": "uint256",
          "name": "fee",
          "type": "uint256"
        },
        {
          "internalType": "address",
          "name": "_loyaltyPointsAddress",
          "type": "address"
        }
      ],
      "stateMutability": "nonpayable",
      "type": "constructor"
    },
    {
      "anonymous": false,
      "inputs": [
        {
          "indexed": false,
          "internalType": "uint256",
          "name": "ticketId",
          "type": "uint256"
        },
        {
          "indexed": false,
          "internalType": "uint256",
          "name": "price",
          "type": "uint256"
        }
      ],
      "name": "TicketListed",
      "type": "event"
    },
    {
      "anonymous": false,
      "inputs": [
        {
          "indexed": false,
          "internalType": "uint256",
          "name": "ticketId",
          "type": "uint256"
        },
        {
          "indexed": false,
          "internalType": "address",
          "name": "buyer",
          "type": "address"
        },
        {
          "indexed": false,
          "internalType": "uint256",
          "name": "price",
          "type": "uint256"
        }
      ],
      "name": "TicketSold",
      "type": "event"
    },
    {
      "anonymous": false,
      "inputs": [
        {
          "indexed": true,
          "internalType": "uint256",
          "name": "id",
          "type": "uint256"
        },
        {
          "indexed": false,
          "internalType": "address",
          "name": "from",
          "type": "address"
        },
        {
          "indexed": false,
          "internalType": "address",
          "name": "to",
          "type": "address"
        },
        {
          "indexed": false,
          "internalType": "uint256",
          "name": "price",
          "type": "uint256"
        }
      ],
      "name": "TicketTransferred",
      "type": "event"
    },
    {
      "anonymous": false,
      "inputs": [
        {
          "indexed": false,
          "internalType": "uint256",
          "name": "ticketId",
          "type": "uint256"
        }
      ],
      "name": "TicketUnlisted",
      "type": "event"
    },
    {
      "inputs": [],
      "name": "buyerQueue",
      "outputs": [
        {
          "internalType": "contract PriorityQueue",
          "name": "",
          "type": "address"
        }
      ],
      "stateMutability": "view",
      "type": "function"
    },
    {
      "inputs": [],
      "name": "commissionFee",
      "outputs": [
        {
          "internalType": "uint256",
          "name": "",
          "type": "uint256"
        }
      ],
      "stateMutability": "view",
      "type": "function"
    },
    {
      "inputs": [
        {
          "internalType": "uint256",
          "name": "",
          "type": "uint256"
        }
      ],
      "name": "listPrice",
      "outputs": [
        {
          "internalType": "uint256",
          "name": "",
          "type": "uint256"
        }
      ],
      "stateMutability": "view",
      "type": "function"
    },
    {
      "inputs": [],
      "name": "loyaltyPoints",
      "outputs": [
        {
          "internalType": "contract LoyaltyPoints",
          "name": "",
          "type": "address"
        }
      ],
      "stateMutability": "view",
      "type": "function"
    },
    {
      "inputs": [],
      "name": "owner",
      "outputs": [
        {
          "internalType": "address",
          "name": "",
          "type": "address"
        }
      ],
      "stateMutability": "view",
      "type": "function"
    },
    {
      "inputs": [],
      "name": "ticketContract",
      "outputs": [
        {
          "internalType": "contract ITicket",
          "name": "",
          "type": "address"
        }
      ],
      "stateMutability": "view",
      "type": "function"
    },
    {
      "inputs": [],
      "name": "ticketTokenContract",
      "outputs": [
        {
          "internalType": "contract TicketToken",
          "name": "",
          "type": "address"
        }
      ],
      "stateMutability": "view",
      "type": "function"
    },
    {
      "inputs": [
        {
          "internalType": "uint256",
          "name": "ticketId",
          "type": "uint256"
        },
        {
          "internalType": "uint256",
          "name": "price",
          "type": "uint256"
        }
      ],
      "name": "list",
      "outputs": [],
      "stateMutability": "nonpayable",
      "type": "function"
    },
    {
      "inputs": [
        {
          "internalType": "uint256",
          "name": "ticketId",
          "type": "uint256"
        }
      ],
      "name": "unlist",
      "outputs": [],
      "stateMutability": "nonpayable",
      "type": "function"
    },
    {
      "inputs": [
        {
          "internalType": "uint256",
          "name": "ticketId",
          "type": "uint256"
        }
      ],
      "name": "getTicketPrice",
      "outputs": [
        {
          "internalType": "uint256",
          "name": "",
          "type": "uint256"
        }
      ],
      "stateMutability": "view",
      "type": "function"
    },
    {
      "inputs": [],
      "name": "getCommission",
      "outputs": [
        {
          "internalType": "uint256",
          "name": "",
          "type": "uint256"
        }
      ],
      "stateMutability": "view",
      "type": "function"
    },
    {
      "inputs": [
        {
          "internalType": "address",
          "name": "buyer",
          "type": "address"
        }
      ],
      "name": "requestTicketPurchase",
      "outputs": [],
      "stateMutability": "nonpayable",
      "type": "function"
    },
    {
      "inputs": [],
      "name": "processTicketPurchases",
      "outputs": [],
      "stateMutability": "nonpayable",
      "type": "function"
    },
    {
      "inputs": [
        {
          "internalType": "uint256",
          "name": "ticketId",
          "type": "uint256"
        }
      ],
      "name": "buy",
      "outputs": [],
      "stateMutability": "payable",
      "type": "function"
    },
    {
      "inputs": [],
      "name": "thereAreTicketsAvailable",
      "outputs": [
        {
          "internalType": "bool",
          "name": "",
          "type": "bool"
        }
      ],
      "stateMutability": "view",
      "type": "function"
    },
    {
      "inputs": [
        {
          "internalType": "uint256",
          "name": "id",
          "type": "uint256"
        }
      ],
      "name": "checkPrice",
      "outputs": [
        {
          "internalType": "uint256",
          "name": "",
          "type": "uint256"
        }
      ],
      "stateMutability": "view",
      "type": "function"
    }
  ],
  "bytecode": "0x6080604052662386f26fc100006003553480156200001c57600080fd5b5060405162002bd138038062002bd18339818101604052810190620000429190620001bc565b82600160006101000a81548173ffffffffffffffffffffffffffffffffffffffff021916908373ffffffffffffffffffffffffffffffffffffffff16021790555081600381905550336000806101000a81548173ffffffffffffffffffffffffffffffffffffffff021916908373ffffffffffffffffffffffffffffffffffffffff16021790555080600560006101000a81548173ffffffffffffffffffffffffffffffffffffffff021916908373ffffffffffffffffffffffffffffffffffffffff160217905550604051620001199062000180565b604051809103906000f08015801562000136573d6000803e3d6000fd5b50600460006101000a81548173ffffffffffffffffffffffffffffffffffffffff021916908373ffffffffffffffffffffffffffffffffffffffff16021790555050505062000284565b6110378062001b9a83390190565b6000815190506200019f8162000250565b92915050565b600081519050620001b6816200026a565b92915050565b600080600060608486031215620001d257600080fd5b6000620001e2868287016200018e565b9350506020620001f586828701620001a5565b925050604062000208868287016200018e565b9150509250925092565b60006200021f8262000226565b9050919050565b600073ffffffffffffffffffffffffffffffffffffffff82169050919050565b6000819050919050565b6200025b8162000212565b81146200026757600080fd5b50565b620002758162000246565b81146200028157600080fd5b50565b61190680620002946000396000f3fe6080604052600436106100f35760003560e01c8063880796d31161008a578063bf5a4dd311610059578063bf5a4dd314610308578063d96a094a14610331578063e65d6b491461034d578063f06fc96114610378576100f3565b8063880796d31461025e5780638da5cb5b14610289578063911f38a4146102b4578063956a20ea146102dd576100f3565b80636f51fc9c116100c65780636f51fc9c146101b45780636fb1eb0c146101cb5780637f5e4263146101f657806387d81f7c14610221576100f3565b80631de7463a146100f857806350fd73671461013557806358a86e1d1461015e5780635a1c382614610189575b600080fd5b34801561010457600080fd5b5061011f600480360381019061011a91906112ea565b6103b5565b60405161012c9190611652565b60405180910390f35b34801561014157600080fd5b5061015c6004803603810190610157919061133c565b6103d2565b005b34801561016a57600080fd5b50610173610532565b6040516101809190611566565b60405180910390f35b34801561019557600080fd5b5061019e610558565b6040516101ab919061154b565b60405180910390f35b3480156101c057600080fd5b506101c96105b8565b005b3480156101d757600080fd5b506101e06108e2565b6040516101ed9190611652565b60405180910390f35b34801561020257600080fd5b5061020b6108e8565b60405161021891906115b7565b60405180910390f35b34801561022d57600080fd5b50610248600480360381019061024391906112ea565b61090e565b6040516102559190611652565b60405180910390f35b34801561026a57600080fd5b50610273610926565b604051610280919061159c565b60405180910390f35b34801561029557600080fd5b5061029e61094c565b6040516102ab9190611507565b60405180910390f35b3480156102c057600080fd5b506102db60048036038101906102d6919061126f565b610970565b005b3480156102e957600080fd5b506102f2610ab2565b6040516102ff9190611581565b60405180910390f35b34801561031457600080fd5b5061032f600480360381019061032a91906112ea565b610ad8565b005b61034b600480360381019061034691906112ea565b610d6e565b005b34801561035957600080fd5b506103626111df565b60405161036f9190611652565b60405180910390f35b34801561038457600080fd5b5061039f600480360381019061039a91906112ea565b6111e9565b6040516103ac9190611652565b60405180910390f35b600060066000838152602001908152602001600020549050919050565b600160009054906101000a900473ffffffffffffffffffffffffffffffffffffffff1673ffffffffffffffffffffffffffffffffffffffff1663c41a360a836040518263ffffffff1660e01b815260040161042d9190611652565b60206040518083038186803b15801561044557600080fd5b505afa158015610459573d6000803e3d6000fd5b505050506040513d601f19601f8201168201806040525081019061047d9190611298565b73ffffffffffffffffffffffffffffffffffffffff163373ffffffffffffffffffffffffffffffffffffffff16146104b457600080fd5b7fbca2f6391cafd6d28d39261ba883dd74090c618befb806e74ef434778bb2f7ed82826040516104e59291906116cd565b60405180910390a180600660008481526020019081526020016000208190555060078290806001815401808255809150506001900390600052602060002001600090919091909150555050565b600160009054906101000a900473ffffffffffffffffffffffffffffffffffffffff1681565b6000806000905060005b6007805490508110156105ad5760006006600083815260200190815260200160002054111561059a57818061059690611813565b9250505b80806105a590611813565b915050610562565b506000811191505090565b60008054906101000a900473ffffffffffffffffffffffffffffffffffffffff1673ffffffffffffffffffffffffffffffffffffffff163373ffffffffffffffffffffffffffffffffffffffff1614610646576040517f08c379a000000000000000000000000000000000000000000000000000000000815260040161063d906115f2565b60405180910390fd5b5b600460009054906101000a900473ffffffffffffffffffffffffffffffffffffffff1673ffffffffffffffffffffffffffffffffffffffff1663681fe70c6040518163ffffffff1660e01b815260040160206040518083038186803b1580156106af57600080fd5b505afa1580156106c3573d6000803e3d6000fd5b505050506040513d601f19601f820116820180604052508101906106e791906112c1565b1580156106f857506106f7610558565b5b156108e0576000600460009054906101000a900473ffffffffffffffffffffffffffffffffffffffff1673ffffffffffffffffffffffffffffffffffffffff1663957908d16040518163ffffffff1660e01b8152600401602060405180830381600087803b15801561076957600080fd5b505af115801561077d573d6000803e3d6000fd5b505050506040513d601f19601f820116820180604052508101906107a19190611298565b9050600060076000815481106107e0577f4e487b7100000000000000000000000000000000000000000000000000000000600052603260045260246000fd5b90600052602060002001549050600060066000838152602001908152602001600020549050600160009054906101000a900473ffffffffffffffffffffffffffffffffffffffff1673ffffffffffffffffffffffffffffffffffffffff1663b7760c8f83856040518363ffffffff1660e01b815260040161086292919061166d565b600060405180830381600087803b15801561087c57600080fd5b505af1158015610890573d6000803e3d6000fd5b505050507fbce6612c87f6b5711225ffc4b9f920148cd399de49ba10137fe0d3c5313338418284836040516108c793929190611696565b60405180910390a16108d882610ad8565b505050610647565b565b60035481565b600260009054906101000a900473ffffffffffffffffffffffffffffffffffffffff1681565b60066020528060005260406000206000915090505481565b600460009054906101000a900473ffffffffffffffffffffffffffffffffffffffff1681565b60008054906101000a900473ffffffffffffffffffffffffffffffffffffffff1681565b6000600560009054906101000a900473ffffffffffffffffffffffffffffffffffffffff1673ffffffffffffffffffffffffffffffffffffffff1663ee204abb836040518263ffffffff1660e01b81526004016109cd9190611507565b60206040518083038186803b1580156109e557600080fd5b505afa1580156109f9573d6000803e3d6000fd5b505050506040513d601f19601f82011682018060405250810190610a1d9190611313565b9050600460009054906101000a900473ffffffffffffffffffffffffffffffffffffffff1673ffffffffffffffffffffffffffffffffffffffff16630ee0a17d83836040518363ffffffff1660e01b8152600401610a7c929190611522565b600060405180830381600087803b158015610a9657600080fd5b505af1158015610aaa573d6000803e3d6000fd5b505050505050565b600560009054906101000a900473ffffffffffffffffffffffffffffffffffffffff1681565b600160009054906101000a900473ffffffffffffffffffffffffffffffffffffffff1673ffffffffffffffffffffffffffffffffffffffff1663c41a360a826040518263ffffffff1660e01b8152600401610b339190611652565b60206040518083038186803b158015610b4b57600080fd5b505afa158015610b5f573d6000803e3d6000fd5b505050506040513d601f19601f82011682018060405250810190610b839190611298565b73ffffffffffffffffffffffffffffffffffffffff163373ffffffffffffffffffffffffffffffffffffffff1614610bba57600080fd5b600060066000838152602001908152602001600020819055507fdb00f3044f762e640c77fdd12df2e7cf2b4c17de34f8995969a4d98b9904af4581604051610c029190611652565b60405180910390a160005b600780549050811015610d6a578160078281548110610c55577f4e487b7100000000000000000000000000000000000000000000000000000000600052603260045260246000fd5b90600052602060002001541415610d575760076001600780549050610c7a9190611707565b81548110610cb1577f4e487b7100000000000000000000000000000000000000000000000000000000600052603260045260246000fd5b906000526020600020015460078281548110610cf6577f4e487b7100000000000000000000000000000000000000000000000000000000600052603260045260246000fd5b90600052602060002001819055506007805480610d3c577f4e487b7100000000000000000000000000000000000000000000000000000000600052603160045260246000fd5b60019003818190600052602060002001600090559055610d6a565b8080610d6290611813565b915050610c0d565b5050565b600060066000838152602001908152602001600020541415610dc5576040517f08c379a0000000000000000000000000000000000000000000000000000000008152600401610dbc906115d2565b60405180910390fd5b6006600082815260200190815260200160002054341015610e1b576040517f08c379a0000000000000000000000000000000000000000000000000000000008152600401610e1290611612565b60405180910390fd5b6000600160009054906101000a900473ffffffffffffffffffffffffffffffffffffffff1673ffffffffffffffffffffffffffffffffffffffff1663c41a360a836040518263ffffffff1660e01b8152600401610e789190611652565b60206040518083038186803b158015610e9057600080fd5b505afa158015610ea4573d6000803e3d6000fd5b505050506040513d601f19601f82011682018060405250810190610ec89190611298565b90508073ffffffffffffffffffffffffffffffffffffffff163373ffffffffffffffffffffffffffffffffffffffff161415610f39576040517f08c379a0000000000000000000000000000000000000000000000000000000008152600401610f3090611632565b60405180910390fd5b6000600160009054906101000a900473ffffffffffffffffffffffffffffffffffffffff1673ffffffffffffffffffffffffffffffffffffffff1663f2d03fcf846040518263ffffffff1660e01b8152600401610f969190611652565b60206040518083038186803b158015610fae57600080fd5b505afa158015610fc2573d6000803e3d6000fd5b505050506040513d601f19601f82011682018060405250810190610fe69190611298565b90506000600354600660008681526020019081526020016000205461100b9190611707565b90508173ffffffffffffffffffffffffffffffffffffffff166108fc829081150290604051600060405180830381858888f19350505050158015611053573d6000803e3d6000fd5b50600160009054906101000a900473ffffffffffffffffffffffffffffffffffffffff1673ffffffffffffffffffffffffffffffffffffffff1663b7760c8f85336040518363ffffffff1660e01b81526004016110b192919061166d565b600060405180830381600087803b1580156110cb57600080fd5b505af11580156110df573d6000803e3d6000fd5b505050507fbce6612c87f6b5711225ffc4b9f920148cd399de49ba10137fe0d3c5313338418433600660008881526020019081526020016000205460405161112993929190611696565b60405180910390a1600160009054906101000a900473ffffffffffffffffffffffffffffffffffffffff1673ffffffffffffffffffffffffffffffffffffffff1663b7760c8f85336040518363ffffffff1660e01b815260040161118e92919061166d565b600060405180830381600087803b1580156111a857600080fd5b505af11580156111bc573d6000803e3d6000fd5b505050506000600660008681526020019081526020016000208190555050505050565b6000600354905090565b600060066000838152602001908152602001600020549050919050565b6000813590506112158161188b565b92915050565b60008151905061122a8161188b565b92915050565b60008151905061123f816118a2565b92915050565b600081359050611254816118b9565b92915050565b600081519050611269816118b9565b92915050565b60006020828403121561128157600080fd5b600061128f84828501611206565b91505092915050565b6000602082840312156112aa57600080fd5b60006112b88482850161121b565b91505092915050565b6000602082840312156112d357600080fd5b60006112e184828501611230565b91505092915050565b6000602082840312156112fc57600080fd5b600061130a84828501611245565b91505092915050565b60006020828403121561132557600080fd5b60006113338482850161125a565b91505092915050565b6000806040838503121561134f57600080fd5b600061135d85828601611245565b925050602061136e85828601611245565b9150509250929050565b6113818161173b565b82525050565b6113908161174d565b82525050565b61139f81611783565b82525050565b6113ae816117a7565b82525050565b6113bd816117cb565b82525050565b6113cc816117ef565b82525050565b60006113df601e836116f6565b91507f5469636b6574206d757374206265206c697374656420666f722073616c6500006000830152602082019050919050565b600061141f6024836116f6565b91507f4f6e6c7920746865206f776e65722063616e2070726f6365737320707572636860008301527f61736573000000000000000000000000000000000000000000000000000000006020830152604082019050919050565b60006114856014836116f6565b91507f496e73756666696369656e74207061796d656e740000000000000000000000006000830152602082019050919050565b60006114c5601d836116f6565b91507f427579657220616c7265616479206f776e7320746865207469636b65740000006000830152602082019050919050565b61150181611779565b82525050565b600060208201905061151c6000830184611378565b92915050565b60006040820190506115376000830185611378565b61154460208301846114f8565b9392505050565b60006020820190506115606000830184611387565b92915050565b600060208201905061157b6000830184611396565b92915050565b600060208201905061159660008301846113a5565b92915050565b60006020820190506115b160008301846113b4565b92915050565b60006020820190506115cc60008301846113c3565b92915050565b600060208201905081810360008301526115eb816113d2565b9050919050565b6000602082019050818103600083015261160b81611412565b9050919050565b6000602082019050818103600083015261162b81611478565b9050919050565b6000602082019050818103600083015261164b816114b8565b9050919050565b600060208201905061166760008301846114f8565b92915050565b600060408201905061168260008301856114f8565b61168f6020830184611378565b9392505050565b60006060820190506116ab60008301866114f8565b6116b86020830185611378565b6116c560408301846114f8565b949350505050565b60006040820190506116e260008301856114f8565b6116ef60208301846114f8565b9392505050565b600082825260208201905092915050565b600061171282611779565b915061171d83611779565b9250828210156117305761172f61185c565b5b828203905092915050565b600061174682611759565b9050919050565b60008115159050919050565b600073ffffffffffffffffffffffffffffffffffffffff82169050919050565b6000819050919050565b600061178e82611795565b9050919050565b60006117a082611759565b9050919050565b60006117b2826117b9565b9050919050565b60006117c482611759565b9050919050565b60006117d6826117dd565b9050919050565b60006117e882611759565b9050919050565b60006117fa82611801565b9050919050565b600061180c82611759565b9050919050565b600061181e82611779565b91507fffffffffffffffffffffffffffffffffffffffffffffffffffffffffffffffff8214156118515761185061185c565b5b600182019050919050565b7f4e487b7100000000000000000000000000000000000000000000000000000000600052601160045260246000fd5b6118948161173b565b811461189f57600080fd5b50565b6118ab8161174d565b81146118b657600080fd5b50565b6118c281611779565b81146118cd57600080fd5b5056fea2646970667358221220d9bf0d4b8fc3b40f8eeb0f54285e46cddd0754ac402f06b54bf254307ebdf54c64736f6c63430008000033608060405234801561001057600080fd5b5060006040518060400160405280600073ffffffffffffffffffffffffffffffffffffffff1681526020016000815250908060018154018082558091505060019003906000526020600020906002020160009091909190915060008201518160000160006101000a81548173ffffffffffffffffffffffffffffffffffffffff021916908373ffffffffffffffffffffffffffffffffffffffff1602179055506020820151816001015550506000600181905550610f64806100d36000396000f3fe608060405234801561001057600080fd5b506004361061004c5760003560e01c80630ee0a17d14610051578063681fe70c1461006d578063949d225d1461008b578063957908d1146100a9575b600080fd5b61006b60048036038101906100669190610bdb565b6100c7565b005b61007561019d565b6040516100829190610c9f565b60405180910390f35b6100936101a9565b6040516100a09190610cda565b60405180910390f35b6100b16101af565b6040516100be9190610c84565b60405180910390f35b600060405180604001604052808473ffffffffffffffffffffffffffffffffffffffff168152602001838152509050600081908060018154018082558091505060019003906000526020600020906002020160009091909190915060008201518160000160006101000a81548173ffffffffffffffffffffffffffffffffffffffff021916908373ffffffffffffffffffffffffffffffffffffffff1602179055506020820151816001015550506001600081548092919061018890610e59565b9190505550610198600154610471565b505050565b60008060015414905090565b60015481565b600080600154116101f5576040517f08c379a00000000000000000000000000000000000000000000000000000000081526004016101ec90610cba565b60405180910390fd5b600080600181548110610231577f4e487b7100000000000000000000000000000000000000000000000000000000600052603260045260246000fd5b906000526020600020906002020160000160009054906101000a900473ffffffffffffffffffffffffffffffffffffffff169050600080600154815481106102a2577f4e487b7100000000000000000000000000000000000000000000000000000000600052603260045260246000fd5b90600052602060002090600202016040518060400160405290816000820160009054906101000a900473ffffffffffffffffffffffffffffffffffffffff1673ffffffffffffffffffffffffffffffffffffffff1673ffffffffffffffffffffffffffffffffffffffff1681526020016001820154815250509050806000600181548110610359577f4e487b7100000000000000000000000000000000000000000000000000000000600052603260045260246000fd5b906000526020600020906002020160008201518160000160006101000a81548173ffffffffffffffffffffffffffffffffffffffff021916908373ffffffffffffffffffffffffffffffffffffffff1602179055506020820151816001015590505060008054806103f3577f4e487b7100000000000000000000000000000000000000000000000000000000600052603160045260246000fd5b6001900381819060005260206000209060020201600080820160006101000a81549073ffffffffffffffffffffffffffffffffffffffff02191690556001820160009055505090556001600081548092919061044e90610e2f565b9190505550600060015411156104695761046860016107af565b5b819250505090565b5b6001811180156105235750600081815481106104b7577f4e487b7100000000000000000000000000000000000000000000000000000000600052603260045260246000fd5b90600052602060002090600202016001015460006002836104d89190610d5c565b8154811061050f577f4e487b7100000000000000000000000000000000000000000000000000000000600052603260045260246000fd5b906000526020600020906002020160010154115b156107ac576000806002836105389190610d5c565b8154811061056f577f4e487b7100000000000000000000000000000000000000000000000000000000600052603260045260246000fd5b90600052602060002090600202016040518060400160405290816000820160009054906101000a900473ffffffffffffffffffffffffffffffffffffffff1673ffffffffffffffffffffffffffffffffffffffff1673ffffffffffffffffffffffffffffffffffffffff168152602001600182015481525050905060008281548110610624577f4e487b7100000000000000000000000000000000000000000000000000000000600052603260045260246000fd5b906000526020600020906002020160006002846106419190610d5c565b81548110610678577f4e487b7100000000000000000000000000000000000000000000000000000000600052603260045260246000fd5b90600052602060002090600202016000820160009054906101000a900473ffffffffffffffffffffffffffffffffffffffff168160000160006101000a81548173ffffffffffffffffffffffffffffffffffffffff021916908373ffffffffffffffffffffffffffffffffffffffff160217905550600182015481600101559050508060008381548110610735577f4e487b7100000000000000000000000000000000000000000000000000000000600052603260045260246000fd5b906000526020600020906002020160008201518160000160006101000a81548173ffffffffffffffffffffffffffffffffffffffff021916908373ffffffffffffffffffffffffffffffffffffffff160217905550602082015181600101559050506002826107a49190610d5c565b915050610472565b50565b600081905060008260026107c39190610d8d565b9050600060018460026107d69190610d8d565b6107e09190610d06565b90506001548211158015610889575060008381548110610829577f4e487b7100000000000000000000000000000000000000000000000000000000600052603260045260246000fd5b90600052602060002090600202016001015460008381548110610875577f4e487b7100000000000000000000000000000000000000000000000000000000600052603260045260246000fd5b906000526020600020906002020160010154105b15610892578192505b60015481111580156109395750600083815481106108d9577f4e487b7100000000000000000000000000000000000000000000000000000000600052603260045260246000fd5b90600052602060002090600202016001015460008281548110610925577f4e487b7100000000000000000000000000000000000000000000000000000000600052603260045260246000fd5b906000526020600020906002020160010154105b15610942578092505b838314610bab576000808581548110610984577f4e487b7100000000000000000000000000000000000000000000000000000000600052603260045260246000fd5b90600052602060002090600202016040518060400160405290816000820160009054906101000a900473ffffffffffffffffffffffffffffffffffffffff1673ffffffffffffffffffffffffffffffffffffffff1673ffffffffffffffffffffffffffffffffffffffff168152602001600182015481525050905060008481548110610a39577f4e487b7100000000000000000000000000000000000000000000000000000000600052603260045260246000fd5b906000526020600020906002020160008681548110610a81577f4e487b7100000000000000000000000000000000000000000000000000000000600052603260045260246000fd5b90600052602060002090600202016000820160009054906101000a900473ffffffffffffffffffffffffffffffffffffffff168160000160006101000a81548173ffffffffffffffffffffffffffffffffffffffff021916908373ffffffffffffffffffffffffffffffffffffffff160217905550600182015481600101559050508060008581548110610b3e577f4e487b7100000000000000000000000000000000000000000000000000000000600052603260045260246000fd5b906000526020600020906002020160008201518160000160006101000a81548173ffffffffffffffffffffffffffffffffffffffff021916908373ffffffffffffffffffffffffffffffffffffffff16021790555060208201518160010155905050610ba9846107af565b505b50505050565b600081359050610bc081610f00565b92915050565b600081359050610bd581610f17565b92915050565b60008060408385031215610bee57600080fd5b6000610bfc85828601610bb1565b9250506020610c0d85828601610bc6565b9150509250929050565b610c2081610de7565b82525050565b610c2f81610df9565b82525050565b6000610c42600e83610cf5565b91507f517565756520697320656d7074790000000000000000000000000000000000006000830152602082019050919050565b610c7e81610e25565b82525050565b6000602082019050610c996000830184610c17565b92915050565b6000602082019050610cb46000830184610c26565b92915050565b60006020820190508181036000830152610cd381610c35565b9050919050565b6000602082019050610cef6000830184610c75565b92915050565b600082825260208201905092915050565b6000610d1182610e25565b9150610d1c83610e25565b9250827fffffffffffffffffffffffffffffffffffffffffffffffffffffffffffffffff03821115610d5157610d50610ea2565b5b828201905092915050565b6000610d6782610e25565b9150610d7283610e25565b925082610d8257610d81610ed1565b5b828204905092915050565b6000610d9882610e25565b9150610da383610e25565b9250817fffffffffffffffffffffffffffffffffffffffffffffffffffffffffffffffff0483118215151615610ddc57610ddb610ea2565b5b828202905092915050565b6000610df282610e05565b9050919050565b60008115159050919050565b600073ffffffffffffffffffffffffffffffffffffffff82169050919050565b6000819050919050565b6000610e3a82610e25565b91506000821415610e4e57610e4d610ea2565b5b600182039050919050565b6000610e6482610e25565b91507fffffffffffffffffffffffffffffffffffffffffffffffffffffffffffffffff821415610e9757610e96610ea2565b5b600182019050919050565b7f4e487b7100000000000000000000000000000000000000000000000000000000600052601160045260246000fd5b7f4e487b7100000000000000000000000000000000000000000000000000000000600052601260045260246000fd5b610f0981610de7565b8114610f1457600080fd5b50565b610f2081610e25565b8114610f2b57600080fd5b5056fea2646970667358221220f7c2832ba848f806bba66d263947f688b5c2d56dd36b5f81627daa33bb25d75c64736f6c63430008000033",
  "immutableReferences": {},
  "source": "// SPDX-License-Identifier: MIT\r\npragma solidity ^0.8.0;\r\n\r\nimport \"./ERC20.sol\";\r\nimport \"./Ticket.sol\";\r\nimport \"./TicketToken.sol\";\r\nimport \"./PriorityQueue.sol\";\r\nimport \"./LoyaltyPoints.sol\";\r\n\r\ninterface ITicket {\r\n    function getPrice(uint256 ticketId) external view returns (uint256);\r\n    function getPrevOwner(uint256 ticketId) external view returns (address);\r\n    function getOwner(uint256 ticketId) external view returns (address);\r\n    function getTicketState(\r\n        uint256 ticketId\r\n    ) external view returns (Ticket.TicketState);\r\n    function transfer(uint256 ticketId, address newOwner) external;\r\n}\r\n\r\ncontract TicketMarket {\r\n    address public owner;\r\n    ITicket public ticketContract;\r\n    TicketToken public ticketTokenContract;\r\n    uint256 public commissionFee = 0.01 ether;\r\n\r\n    PriorityQueue public buyerQueue;\r\n    LoyaltyPoints public loyaltyPoints;\r\n\r\n    // Mapping from ticket ID to listing price\r\n    mapping(uint256 => uint256) public listPrice;\r\n\r\n    uint256[] private listedTickets; // To track listed ticket IDs\r\n\r\n    // Event emitted when a ticket is listed for sale\r\n    event TicketListed(uint256 ticketId, uint256 price);\r\n    event TicketUnlisted(uint256 ticketId);\r\n    event TicketSold(uint256 ticketId, address buyer, uint256 price);\r\n\r\n    // Event emitted when a ticket is transferred\r\n    event TicketTransferred(\r\n        uint256 indexed id,\r\n        address from,\r\n        address to,\r\n        uint256 price\r\n    );\r\n\r\n    constructor(\r\n        address _ticketContract,\r\n        uint256 fee,\r\n        address _loyaltyPointsAddress\r\n    ) {\r\n        ticketContract = ITicket(_ticketContract);\r\n        commissionFee = fee;\r\n        owner = msg.sender;\r\n        loyaltyPoints = LoyaltyPoints(_loyaltyPointsAddress);\r\n        buyerQueue = new PriorityQueue();\r\n    }\r\n\r\n    // List a ticket for sale. Price needs to be >= value + fee\r\n    function list(uint256 ticketId, uint256 price) public {\r\n        require(msg.sender == ticketContract.getOwner(ticketId));\r\n        emit TicketListed(ticketId, price);\r\n        listPrice[ticketId] = price;\r\n        listedTickets.push(ticketId); // Add ticket ID to the list of listed tickets\r\n    }\r\n\r\n    function unlist(uint256 ticketId) public {\r\n        require(msg.sender == ticketContract.getOwner(ticketId));\r\n\r\n        listPrice[ticketId] = 0;\r\n        emit TicketUnlisted(ticketId); // Emit event for ticket unlisting\r\n\r\n        // Find and remove the ticket ID from listedTickets array\r\n        for (uint256 i = 0; i < listedTickets.length; i++) {\r\n            if (listedTickets[i] == ticketId) {\r\n                // Move the last element to the current index\r\n                listedTickets[i] = listedTickets[listedTickets.length - 1];\r\n                // Remove the last element\r\n                listedTickets.pop();\r\n                break; // Exit the loop once the ticket ID is removed\r\n            }\r\n        }\r\n    }\r\n\r\n    // Get price of ticket\r\n    function getTicketPrice(uint256 ticketId) public view returns (uint256) {\r\n        return listPrice[ticketId];\r\n    }\r\n\r\n    // Get the commission fee\r\n    function getCommission() public view returns (uint256) {\r\n        return commissionFee;\r\n    }\r\n\r\n    //Addition of PriorityQueue\r\n    //add buyers to the PriorityQueue instead of immediately processing the purchase\r\n    function requestTicketPurchase(address buyer) public {\r\n        uint points = loyaltyPoints.getPoints(buyer);\r\n        buyerQueue.enqueue(buyer, points);\r\n    }\r\n\r\n    function processTicketPurchases() public {\r\n        require(msg.sender == owner, \"Only the owner can process purchases\");\r\n\r\n        while (!buyerQueue.isEmpty() && thereAreTicketsAvailable()) {\r\n            address buyer = buyerQueue.dequeue();\r\n\r\n            // For simplicity, we attempt to purchase the first available ticket.\r\n            uint256 ticketId = listedTickets[0];\r\n\r\n            uint256 ticketPrice = listPrice[ticketId];\r\n\r\n            // Transfer the ticket and emit an event.\r\n            ticketContract.transfer(ticketId, buyer);\r\n            emit TicketSold(ticketId, buyer, ticketPrice);\r\n\r\n            // Remove the ticket from the listing.\r\n            unlist(ticketId);\r\n        }\r\n    }\r\n\r\n    // Buy the ticket at the requested price\r\n    function buy(uint256 ticketId) public payable {\r\n        // Check if the ticket is listed for sale\r\n        require(listPrice[ticketId] != 0, \"Ticket must be listed for sale\");\r\n        // Check if payment is enough\r\n        require(msg.value >= listPrice[ticketId], \"Insufficient payment\");\r\n\r\n        address ticketOwner = ticketContract.getOwner(ticketId);\r\n        require(msg.sender != ticketOwner, \"Buyer already owns the ticket\");\r\n\r\n        address payable recipient = payable(\r\n            ticketContract.getPrevOwner(ticketId)\r\n        );\r\n\r\n        // Calculate the amount to transfer to the ticket owner after deducting the commission fee\r\n        uint256 amountToTransfer = listPrice[ticketId] - commissionFee;\r\n        // Transfer payment to the ticket owner after deducting the commission fee\r\n        recipient.transfer(amountToTransfer);\r\n\r\n        // Transfer ownership in the Ticket contract\r\n        ticketContract.transfer(ticketId, msg.sender);\r\n\r\n        // Emit event for ticket purchase\r\n        emit TicketSold(ticketId, msg.sender, listPrice[ticketId]);\r\n\r\n        // Transfer ownership of the ticket\r\n        ticketContract.transfer(ticketId, msg.sender);\r\n\r\n        // Remove the ticket from the listing after purchase\r\n        listPrice[ticketId] = 0;\r\n    }\r\n\r\n    function thereAreTicketsAvailable() public view returns (bool) {\r\n        uint256 availableTickets = 0;\r\n        for (uint256 i = 0; i < listedTickets.length; i++) {\r\n            if (listPrice[i] > 0) {\r\n                availableTickets++;\r\n            }\r\n        }\r\n        return availableTickets > 0;\r\n    }\r\n\r\n    // get price of ticket\r\n    function checkPrice(uint256 id) public view returns (uint256) {\r\n        return listPrice[id];\r\n    }\r\n}\r\n",
  "sourcePath": "C:\\Users\\tngjo\\OneDrive\\Desktop\\GitHub\\IS4302-Decentralized-Event-Ticketing-System\\contracts\\TicketMarket.sol",
  "compiler": {
    "name": "solc",
    "version": "0.8.0+commit.c7dfd78e.Emscripten.clang"
  },
  "schemaVersion": "3.4.16",
  "updatedAt": "2024-03-21T16:50:08.425Z",
  "devdoc": {
    "kind": "dev",
    "methods": {},
    "version": 1
  },
  "userdoc": {
    "kind": "user",
    "methods": {},
    "version": 1
  }
}