{
  "contractName": "TicketMarket",
  "abi": [
    {
      "inputs": [
        {
          "internalType": "contract Ticket",
          "name": "ticketAddress",
          "type": "address"
        },
        {
          "internalType": "uint256",
          "name": "fee",
          "type": "uint256"
        }
      ],
      "stateMutability": "nonpayable",
      "type": "constructor"
    },
    {
      "inputs": [],
      "name": "commissionFee",
      "outputs": [
        {
          "internalType": "uint256",
          "name": "",
          "type": "uint256"
        }
      ],
      "stateMutability": "view",
      "type": "function",
      "constant": true
    },
    {
      "inputs": [
        {
          "internalType": "uint256",
          "name": "id",
          "type": "uint256"
        },
        {
          "internalType": "uint256",
          "name": "price",
          "type": "uint256"
        }
      ],
      "name": "list",
      "outputs": [],
      "stateMutability": "nonpayable",
      "type": "function"
    },
    {
      "inputs": [
        {
          "internalType": "uint256",
          "name": "id",
          "type": "uint256"
        }
      ],
      "name": "unlist",
      "outputs": [],
      "stateMutability": "nonpayable",
      "type": "function"
    },
    {
      "inputs": [
        {
          "internalType": "uint256",
          "name": "id",
          "type": "uint256"
        }
      ],
      "name": "checkPrice",
      "outputs": [
        {
          "internalType": "uint256",
          "name": "",
          "type": "uint256"
        }
      ],
      "stateMutability": "view",
      "type": "function",
      "constant": true
    },
    {
      "inputs": [
        {
          "internalType": "uint256",
          "name": "id",
          "type": "uint256"
        }
      ],
      "name": "buy",
      "outputs": [],
      "stateMutability": "payable",
      "type": "function",
      "payable": true
    },
    {
      "inputs": [],
      "name": "getContractOwner",
      "outputs": [
        {
          "internalType": "address",
          "name": "",
          "type": "address"
        }
      ],
      "stateMutability": "view",
      "type": "function",
      "constant": true
    },
    {
      "inputs": [],
      "name": "withDraw",
      "outputs": [],
      "stateMutability": "nonpayable",
      "type": "function"
    }
  ],
  "bytecode": "0x608060405233600260006101000a81548173ffffffffffffffffffffffffffffffffffffffff021916908373ffffffffffffffffffffffffffffffffffffffff16021790555034801561005157600080fd5b50604051610b96380380610b96833981810160405281019061007391906100eb565b816000806101000a81548173ffffffffffffffffffffffffffffffffffffffff021916908373ffffffffffffffffffffffffffffffffffffffff1602179055508060018190555050506101a3565b6000815190506100d081610175565b92915050565b6000815190506100e58161018c565b92915050565b600080604083850312156100fe57600080fd5b600061010c858286016100c1565b925050602061011d858286016100d6565b9150509250929050565b60006101328261014b565b9050919050565b600061014482610127565b9050919050565b600073ffffffffffffffffffffffffffffffffffffffff82169050919050565b6000819050919050565b61017e81610139565b811461018957600080fd5b50565b6101958161016b565b81146101a057600080fd5b50565b6109e4806101b26000396000f3fe6080604052600436106100705760003560e01c806350fd73671161004e57806350fd7367146100f45780636fb1eb0c1461011d578063bf5a4dd314610148578063d96a094a1461017157610070565b80630fdb1c10146100755780631de7463a1461008c578063442890d5146100c9575b600080fd5b34801561008157600080fd5b5061008a61018d565b005b34801561009857600080fd5b506100b360048036038101906100ae9190610772565b61022d565b6040516100c09190610839565b60405180910390f35b3480156100d557600080fd5b506100de61024a565b6040516100eb919061081e565b60405180910390f35b34801561010057600080fd5b5061011b600480360381019061011691906107c4565b610274565b005b34801561012957600080fd5b50610132610432565b60405161013f9190610839565b60405180910390f35b34801561015457600080fd5b5061016f600480360381019061016a9190610772565b610438565b005b61018b60048036038101906101869190610772565b610534565b005b600260009054906101000a900473ffffffffffffffffffffffffffffffffffffffff1673ffffffffffffffffffffffffffffffffffffffff163373ffffffffffffffffffffffffffffffffffffffff16141561022b573373ffffffffffffffffffffffffffffffffffffffff166108fc479081150290604051600060405180830381858888f19350505050158015610229573d6000803e3d6000fd5b505b565b600060036000838152602001908152602001600020549050919050565b6000600260009054906101000a900473ffffffffffffffffffffffffffffffffffffffff16905090565b60015460008054906101000a900473ffffffffffffffffffffffffffffffffffffffff1673ffffffffffffffffffffffffffffffffffffffff1663e7572230846040518263ffffffff1660e01b81526004016102d09190610839565b60206040518083038186803b1580156102e857600080fd5b505afa1580156102fc573d6000803e3d6000fd5b505050506040513d601f19601f82011682018060405250810190610320919061079b565b61032a919061088b565b81101561033657600080fd5b60008054906101000a900473ffffffffffffffffffffffffffffffffffffffff1673ffffffffffffffffffffffffffffffffffffffff1663f2d03fcf836040518263ffffffff1660e01b815260040161038f9190610839565b60206040518083038186803b1580156103a757600080fd5b505afa1580156103bb573d6000803e3d6000fd5b505050506040513d601f19601f820116820180604052508101906103df9190610749565b73ffffffffffffffffffffffffffffffffffffffff163373ffffffffffffffffffffffffffffffffffffffff161461041657600080fd5b8060036000848152602001908152602001600020819055505050565b60015481565b60008054906101000a900473ffffffffffffffffffffffffffffffffffffffff1673ffffffffffffffffffffffffffffffffffffffff1663f2d03fcf826040518263ffffffff1660e01b81526004016104919190610839565b60206040518083038186803b1580156104a957600080fd5b505afa1580156104bd573d6000803e3d6000fd5b505050506040513d601f19601f820116820180604052508101906104e19190610749565b73ffffffffffffffffffffffffffffffffffffffff163373ffffffffffffffffffffffffffffffffffffffff161461051857600080fd5b6000600360008381526020019081526020016000208190555050565b60006003600083815260200190815260200160002054141561055557600080fd5b600360008281526020019081526020016000205434101561057557600080fd5b60008060009054906101000a900473ffffffffffffffffffffffffffffffffffffffff1673ffffffffffffffffffffffffffffffffffffffff1663f2d03fcf836040518263ffffffff1660e01b81526004016105d19190610839565b60206040518083038186803b1580156105e957600080fd5b505afa1580156105fd573d6000803e3d6000fd5b505050506040513d601f19601f820116820180604052508101906106219190610749565b90508073ffffffffffffffffffffffffffffffffffffffff166108fc6001543461064b91906108e1565b9081150290604051600060405180830381858888f19350505050158015610676573d6000803e3d6000fd5b5060008054906101000a900473ffffffffffffffffffffffffffffffffffffffff1673ffffffffffffffffffffffffffffffffffffffff1663f8548e368333346040518463ffffffff1660e01b81526004016106d493929190610854565b600060405180830381600087803b1580156106ee57600080fd5b505af1158015610702573d6000803e3d6000fd5b505050505050565b60008151905061071981610980565b92915050565b60008135905061072e81610997565b92915050565b60008151905061074381610997565b92915050565b60006020828403121561075b57600080fd5b60006107698482850161070a565b91505092915050565b60006020828403121561078457600080fd5b60006107928482850161071f565b91505092915050565b6000602082840312156107ad57600080fd5b60006107bb84828501610734565b91505092915050565b600080604083850312156107d757600080fd5b60006107e58582860161071f565b92505060206107f68582860161071f565b9150509250929050565b61080981610915565b82525050565b61081881610947565b82525050565b60006020820190506108336000830184610800565b92915050565b600060208201905061084e600083018461080f565b92915050565b6000606082019050610869600083018661080f565b6108766020830185610800565b610883604083018461080f565b949350505050565b600061089682610947565b91506108a183610947565b9250827fffffffffffffffffffffffffffffffffffffffffffffffffffffffffffffffff038211156108d6576108d5610951565b5b828201905092915050565b60006108ec82610947565b91506108f783610947565b92508282101561090a57610909610951565b5b828203905092915050565b600061092082610927565b9050919050565b600073ffffffffffffffffffffffffffffffffffffffff82169050919050565b6000819050919050565b7f4e487b7100000000000000000000000000000000000000000000000000000000600052601160045260246000fd5b61098981610915565b811461099457600080fd5b50565b6109a081610947565b81146109ab57600080fd5b5056fea2646970667358221220e791ecc08a84d8f1af3b5204448e0f945625200bd0041dcbcda25b664447ae5464736f6c63430008000033",
  "immutableReferences": {},
  "source": "// SPDX-License-Identifier: MIT \r\npragma solidity ^0.8.0;\r\n\r\nimport \"./Ticket.sol\";\r\ncontract TicketMarket {\r\n\r\n    Ticket ticketContract;\r\n    uint256 public commissionFee;\r\n    address _owner = msg.sender;\r\n    mapping(uint256 => uint256) listPrice;\r\n\r\n    constructor(Ticket ticketAddress, uint256 fee) {\r\n        ticketContract = ticketAddress;\r\n        commissionFee = fee;\r\n    }\r\n\r\n    // List a ticket for sale. Price needs to be >= value + fee\r\n    function list(uint256 id, uint256 price) public {\r\n       require(price >= (ticketContract.getPrice(id) + commissionFee));\r\n       require(msg.sender == ticketContract.getPrevOwner(id));\r\n       listPrice[id] = price;\r\n    }\r\n\r\n    function unlist(uint256 id) public {\r\n       require(msg.sender == ticketContract.getPrevOwner(id));\r\n       listPrice[id] = 0;\r\n  }\r\n\r\n    // get price of ticket\r\n    function checkPrice(uint256 id) public view returns (uint256) {\r\n       return listPrice[id];\r\n }\r\n\r\n    // Buy the ticket at the requested price\r\n    function buy(uint256 id) public payable {\r\n       require(listPrice[id] != 0); //is listed\r\n       require(msg.value >= listPrice[id]);\r\n       address payable recipient = payable(ticketContract.getPrevOwner(id));\r\n       recipient.transfer(msg.value - commissionFee);    //transfer (price-commissionFee) to real owner\r\n       ticketContract.transfer(id, msg.sender, msg.value);\r\n    }\r\n\r\n    function getContractOwner() public view returns(address) {\r\n       return _owner;\r\n    }\r\n\r\n    function withDraw() public {\r\n        if(msg.sender == _owner)\r\n            payable(msg.sender).transfer(address(this).balance);\r\n    }\r\n}\r\n",
  "sourcePath": "C:\\Users\\tngjo\\OneDrive\\Desktop\\GitHub\\IS4302-Decentralized-Event-Ticketing-System\\contracts\\TicketMarket.sol",
  "compiler": {
    "name": "solc",
    "version": "0.8.0+commit.c7dfd78e.Emscripten.clang"
  },
  "schemaVersion": "3.4.16",
  "updatedAt": "2024-03-20T08:25:31.194Z",
  "networkType": "ethereum",
  "devdoc": {
    "kind": "dev",
    "methods": {},
    "version": 1
  },
  "userdoc": {
    "kind": "user",
    "methods": {},
    "version": 1
  }
}