{
  "contractName": "Ticket",
  "abi": [
    {
      "inputs": [
        {
          "internalType": "address",
          "name": "_ticketToken",
          "type": "address"
        }
      ],
      "stateMutability": "nonpayable",
      "type": "constructor"
    },
    {
      "anonymous": false,
      "inputs": [
        {
          "indexed": false,
          "internalType": "uint256",
          "name": "ticketId",
          "type": "uint256"
        },
        {
          "indexed": false,
          "internalType": "address",
          "name": "newOwner",
          "type": "address"
        },
        {
          "indexed": false,
          "internalType": "uint256",
          "name": "price",
          "type": "uint256"
        }
      ],
      "name": "TicketBought",
      "type": "event"
    },
    {
      "anonymous": false,
      "inputs": [
        {
          "indexed": false,
          "internalType": "uint256",
          "name": "ticketId",
          "type": "uint256"
        },
        {
          "indexed": false,
          "internalType": "address",
          "name": "owner",
          "type": "address"
        }
      ],
      "name": "TicketCreated",
      "type": "event"
    },
    {
      "anonymous": false,
      "inputs": [
        {
          "indexed": false,
          "internalType": "uint256",
          "name": "ticketId",
          "type": "uint256"
        }
      ],
      "name": "TicketFrozen",
      "type": "event"
    },
    {
      "anonymous": false,
      "inputs": [
        {
          "indexed": false,
          "internalType": "uint256",
          "name": "ticketId",
          "type": "uint256"
        }
      ],
      "name": "TicketRedeemed",
      "type": "event"
    },
    {
      "inputs": [],
      "name": "organizer",
      "outputs": [
        {
          "internalType": "address",
          "name": "",
          "type": "address"
        }
      ],
      "stateMutability": "view",
      "type": "function"
    },
    {
      "inputs": [],
      "name": "ticketCounter",
      "outputs": [
        {
          "internalType": "uint256",
          "name": "",
          "type": "uint256"
        }
      ],
      "stateMutability": "view",
      "type": "function"
    },
    {
      "inputs": [
        {
          "internalType": "uint256",
          "name": "",
          "type": "uint256"
        }
      ],
      "name": "ticketToOwner",
      "outputs": [
        {
          "internalType": "address",
          "name": "",
          "type": "address"
        }
      ],
      "stateMutability": "view",
      "type": "function"
    },
    {
      "inputs": [],
      "name": "ticketToken",
      "outputs": [
        {
          "internalType": "contract TicketToken",
          "name": "",
          "type": "address"
        }
      ],
      "stateMutability": "view",
      "type": "function"
    },
    {
      "inputs": [
        {
          "internalType": "uint256",
          "name": "",
          "type": "uint256"
        }
      ],
      "name": "tickets",
      "outputs": [
        {
          "internalType": "uint256",
          "name": "ticketId",
          "type": "uint256"
        },
        {
          "internalType": "uint256",
          "name": "concertId",
          "type": "uint256"
        },
        {
          "internalType": "string",
          "name": "concertName",
          "type": "string"
        },
        {
          "internalType": "string",
          "name": "concertVenue",
          "type": "string"
        },
        {
          "internalType": "uint256",
          "name": "concertDate",
          "type": "uint256"
        },
        {
          "internalType": "string",
          "name": "ticketCategory",
          "type": "string"
        },
        {
          "internalType": "uint256",
          "name": "ticketSectionNo",
          "type": "uint256"
        },
        {
          "internalType": "uint256",
          "name": "ticketSeatNo",
          "type": "uint256"
        },
        {
          "internalType": "enum Ticket.TicketState",
          "name": "ticketState",
          "type": "uint8"
        },
        {
          "internalType": "address",
          "name": "owner",
          "type": "address"
        },
        {
          "internalType": "address",
          "name": "prevOwner",
          "type": "address"
        },
        {
          "internalType": "uint256",
          "name": "price",
          "type": "uint256"
        }
      ],
      "stateMutability": "view",
      "type": "function"
    },
    {
      "inputs": [
        {
          "internalType": "uint256",
          "name": "concertId",
          "type": "uint256"
        },
        {
          "internalType": "string",
          "name": "concertName",
          "type": "string"
        },
        {
          "internalType": "string",
          "name": "concertVenue",
          "type": "string"
        },
        {
          "internalType": "uint256",
          "name": "concertDate",
          "type": "uint256"
        },
        {
          "internalType": "string",
          "name": "ticketCategory",
          "type": "string"
        },
        {
          "internalType": "uint256",
          "name": "ticketSectionNo",
          "type": "uint256"
        },
        {
          "internalType": "uint256",
          "name": "ticketSeatNo",
          "type": "uint256"
        },
        {
          "internalType": "uint256",
          "name": "price",
          "type": "uint256"
        }
      ],
      "name": "createTicket",
      "outputs": [],
      "stateMutability": "nonpayable",
      "type": "function"
    },
    {
      "inputs": [
        {
          "internalType": "uint256",
          "name": "_ticketId",
          "type": "uint256"
        }
      ],
      "name": "redeemTicket",
      "outputs": [],
      "stateMutability": "nonpayable",
      "type": "function"
    },
    {
      "inputs": [
        {
          "internalType": "uint256",
          "name": "_ticketId",
          "type": "uint256"
        }
      ],
      "name": "freezeTicket",
      "outputs": [],
      "stateMutability": "nonpayable",
      "type": "function"
    },
    {
      "inputs": [
        {
          "internalType": "uint256",
          "name": "ticketId",
          "type": "uint256"
        },
        {
          "internalType": "address",
          "name": "newOwner",
          "type": "address"
        }
      ],
      "name": "transfer",
      "outputs": [],
      "stateMutability": "nonpayable",
      "type": "function"
    },
    {
      "inputs": [
        {
          "internalType": "uint256",
          "name": "ticketId",
          "type": "uint256"
        }
      ],
      "name": "getTicketId",
      "outputs": [
        {
          "internalType": "uint256",
          "name": "",
          "type": "uint256"
        }
      ],
      "stateMutability": "view",
      "type": "function"
    },
    {
      "inputs": [
        {
          "internalType": "uint256",
          "name": "ticketId",
          "type": "uint256"
        }
      ],
      "name": "getConcertId",
      "outputs": [
        {
          "internalType": "uint256",
          "name": "",
          "type": "uint256"
        }
      ],
      "stateMutability": "view",
      "type": "function"
    },
    {
      "inputs": [
        {
          "internalType": "uint256",
          "name": "ticketId",
          "type": "uint256"
        }
      ],
      "name": "getConcertName",
      "outputs": [
        {
          "internalType": "string",
          "name": "",
          "type": "string"
        }
      ],
      "stateMutability": "view",
      "type": "function"
    },
    {
      "inputs": [
        {
          "internalType": "uint256",
          "name": "ticketId",
          "type": "uint256"
        }
      ],
      "name": "getConcertVenue",
      "outputs": [
        {
          "internalType": "string",
          "name": "",
          "type": "string"
        }
      ],
      "stateMutability": "view",
      "type": "function"
    },
    {
      "inputs": [
        {
          "internalType": "uint256",
          "name": "ticketId",
          "type": "uint256"
        }
      ],
      "name": "getConcertDate",
      "outputs": [
        {
          "internalType": "uint256",
          "name": "",
          "type": "uint256"
        }
      ],
      "stateMutability": "view",
      "type": "function"
    },
    {
      "inputs": [
        {
          "internalType": "uint256",
          "name": "ticketId",
          "type": "uint256"
        }
      ],
      "name": "getTicketCategory",
      "outputs": [
        {
          "internalType": "string",
          "name": "",
          "type": "string"
        }
      ],
      "stateMutability": "view",
      "type": "function"
    },
    {
      "inputs": [
        {
          "internalType": "uint256",
          "name": "ticketId",
          "type": "uint256"
        }
      ],
      "name": "getTicketSectionNo",
      "outputs": [
        {
          "internalType": "uint256",
          "name": "",
          "type": "uint256"
        }
      ],
      "stateMutability": "view",
      "type": "function"
    },
    {
      "inputs": [
        {
          "internalType": "uint256",
          "name": "ticketId",
          "type": "uint256"
        }
      ],
      "name": "getTicketSeatNo",
      "outputs": [
        {
          "internalType": "uint256",
          "name": "",
          "type": "uint256"
        }
      ],
      "stateMutability": "view",
      "type": "function"
    },
    {
      "inputs": [
        {
          "internalType": "uint256",
          "name": "ticketId",
          "type": "uint256"
        }
      ],
      "name": "getTicketState",
      "outputs": [
        {
          "internalType": "enum Ticket.TicketState",
          "name": "",
          "type": "uint8"
        }
      ],
      "stateMutability": "view",
      "type": "function"
    },
    {
      "inputs": [
        {
          "internalType": "uint256",
          "name": "ticketId",
          "type": "uint256"
        }
      ],
      "name": "getOwner",
      "outputs": [
        {
          "internalType": "address",
          "name": "",
          "type": "address"
        }
      ],
      "stateMutability": "view",
      "type": "function"
    },
    {
      "inputs": [
        {
          "internalType": "uint256",
          "name": "ticketId",
          "type": "uint256"
        }
      ],
      "name": "getPrevOwner",
      "outputs": [
        {
          "internalType": "address",
          "name": "",
          "type": "address"
        }
      ],
      "stateMutability": "view",
      "type": "function"
    },
    {
      "inputs": [
        {
          "internalType": "uint256",
          "name": "ticketId",
          "type": "uint256"
        }
      ],
      "name": "getPrice",
      "outputs": [
        {
          "internalType": "uint256",
          "name": "",
          "type": "uint256"
        }
      ],
      "stateMutability": "view",
      "type": "function"
    }
  ],
  "bytecode": "0x608060405260006004553480156200001657600080fd5b50604051620028ef380380620028ef83398181016040528101906200003c9190620000dc565b33600560006101000a81548173ffffffffffffffffffffffffffffffffffffffff021916908373ffffffffffffffffffffffffffffffffffffffff16021790555080600360006101000a81548173ffffffffffffffffffffffffffffffffffffffff021916908373ffffffffffffffffffffffffffffffffffffffff1602179055505062000156565b600081519050620000d6816200013c565b92915050565b600060208284031215620000ef57600080fd5b6000620000ff84828501620000c5565b91505092915050565b600062000115826200011c565b9050919050565b600073ffffffffffffffffffffffffffffffffffffffff82169050919050565b620001478162000108565b81146200015357600080fd5b50565b61278980620001666000396000f3fe608060405234801561001057600080fd5b50600436106101375760003560e01c806371d69ef0116100b8578063bcc798221161007c578063bcc79822146103a3578063c41a360a146103d3578063d5ed4d5a14610403578063dba4a8df14610421578063e757223014610451578063f2d03fcf1461048157610137565b806371d69ef0146102d957806386db5b23146103095780638c4d59d014610339578063a0426f7c14610357578063b7760c8f1461038757610137565b80634f44d7b6116100ff5780634f44d7b6146101f057806350b4471214610220578063612032651461025b5780636482db3f146102795780636c5c74b8146102a957610137565b806307f44b8b1461013c57806315f59d7f1461015857806316086c981461017457806316c15c0c146101905780632b08e824146101c0575b600080fd5b61015660048036038101906101519190611e21565b6104b1565b005b610172600480360381019061016d9190611dbc565b610844565b005b61018e60048036038101906101899190611dbc565b610a28565b005b6101aa60048036038101906101a59190611dbc565b610c51565b6040516101b7919061233b565b60405180910390f35b6101da60048036038101906101d59190611dbc565b610cec565b6040516101e791906121e8565b60405180910390f35b61020a60048036038101906102059190611dbc565b610d1f565b6040516102179190612239565b60405180910390f35b61023a60048036038101906102359190611dbc565b610e42565b6040516102529c9b9a999897969594939291906123b6565b60405180910390f35b610263611097565b60405161027091906121e8565b60405180910390f35b610293600480360381019061028e9190611dbc565b6110bd565b6040516102a0919061221e565b60405180910390f35b6102c360048036038101906102be9190611dbc565b611165565b6040516102d0919061233b565b60405180910390f35b6102f360048036038101906102ee9190611dbc565b611200565b604051610300919061233b565b60405180910390f35b610323600480360381019061031e9190611dbc565b61129b565b604051610330919061233b565b60405180910390f35b610341611336565b60405161034e919061233b565b60405180910390f35b610371600480360381019061036c9190611dbc565b61133c565b60405161037e9190612239565b60405180910390f35b6103a1600480360381019061039c9190611de5565b61145f565b005b6103bd60048036038101906103b89190611dbc565b611892565b6040516103ca9190612239565b60405180910390f35b6103ed60048036038101906103e89190611dbc565b6119b5565b6040516103fa91906121e8565b60405180910390f35b61040b611a70565b6040516104189190612203565b60405180910390f35b61043b60048036038101906104369190611dbc565b611a96565b604051610448919061233b565b60405180910390f35b61046b60048036038101906104669190611dbc565b611b31565b604051610478919061233b565b60405180910390f35b61049b60048036038101906104969190611dbc565b611bcc565b6040516104a891906121e8565b60405180910390f35b600560009054906101000a900473ffffffffffffffffffffffffffffffffffffffff1673ffffffffffffffffffffffffffffffffffffffff163373ffffffffffffffffffffffffffffffffffffffff1614610541576040517f08c379a0000000000000000000000000000000000000000000000000000000008152600401610538906122db565b60405180910390fd5b600060405180610180016040528060045481526020018a8152602001898152602001888152602001878152602001868152602001858152602001848152602001600060028111156105bb577f4e487b7100000000000000000000000000000000000000000000000000000000600052602160045260246000fd5b8152602001600560009054906101000a900473ffffffffffffffffffffffffffffffffffffffff1673ffffffffffffffffffffffffffffffffffffffff168152602001600073ffffffffffffffffffffffffffffffffffffffff1681526020018381525090806001815401808255809150506001900390600052602060002090600b020160009091909190915060008201518160000155602082015181600101556040820151816002019080519060200190610678929190611c87565b506060820151816003019080519060200190610695929190611c87565b506080820151816004015560a08201518160050190805190602001906106bc929190611c87565b5060c0820151816006015560e082015181600701556101008201518160080160006101000a81548160ff02191690836002811115610723577f4e487b7100000000000000000000000000000000000000000000000000000000600052602160045260246000fd5b02179055506101208201518160080160016101000a81548173ffffffffffffffffffffffffffffffffffffffff021916908373ffffffffffffffffffffffffffffffffffffffff1602179055506101408201518160090160006101000a81548173ffffffffffffffffffffffffffffffffffffffff021916908373ffffffffffffffffffffffffffffffffffffffff16021790555061016082015181600a015550507f960fa3b53d2527c64fb943b9502a4541b1137488cb027f95b36b06b44d10fedc600454600560009054906101000a900473ffffffffffffffffffffffffffffffffffffffff1660405161081a929190612356565b60405180910390a160046000815480929190610835906125fb565b91905055505050505050505050565b600080549050811061088b576040517f08c379a00000000000000000000000000000000000000000000000000000000081526004016108829061225b565b60405180910390fd5b60008082815481106108c6577f4e487b7100000000000000000000000000000000000000000000000000000000600052603260045260246000fd5b90600052602060002090600b0201905060006002811115610910577f4e487b7100000000000000000000000000000000000000000000000000000000600052602160045260246000fd5b8160080160009054906101000a900460ff16600281111561095a577f4e487b7100000000000000000000000000000000000000000000000000000000600052602160045260246000fd5b1461099a576040517f08c379a00000000000000000000000000000000000000000000000000000000081526004016109919061229b565b60405180910390fd5b60018160080160006101000a81548160ff021916908360028111156109e8577f4e487b7100000000000000000000000000000000000000000000000000000000600052602160045260246000fd5b02179055507fb0ebd5f2f7c40ca5715d8deab780894f023a63bc249fc45e69df6acbc4e8b56882604051610a1c919061233b565b60405180910390a15050565b806000806002811115610a64577f4e487b7100000000000000000000000000000000000000000000000000000000600052602160045260246000fd5b60008381548110610a9e577f4e487b7100000000000000000000000000000000000000000000000000000000600052603260045260246000fd5b90600052602060002090600b020160080160009054906101000a900460ff166002811115610af5577f4e487b7100000000000000000000000000000000000000000000000000000000600052602160045260246000fd5b14610b35576040517f08c379a0000000000000000000000000000000000000000000000000000000008152600401610b2c906122bb565b60405180910390fd5b826004548110610b7a576040517f08c379a0000000000000000000000000000000000000000000000000000000008152600401610b719061227b565b60405180910390fd5b600260008581548110610bb6577f4e487b7100000000000000000000000000000000000000000000000000000000600052603260045260246000fd5b90600052602060002090600b020160080160006101000a81548160ff02191690836002811115610c0f577f4e487b7100000000000000000000000000000000000000000000000000000000600052602160045260246000fd5b02179055507f5f9fbbc6b6aee5534f63c42109bdd37181fe2ce563b4c54322b4d7b6910393df84604051610c43919061233b565b60405180910390a150505050565b6000816004548110610c98576040517f08c379a0000000000000000000000000000000000000000000000000000000008152600401610c8f9061227b565b60405180910390fd5b60008381548110610cd2577f4e487b7100000000000000000000000000000000000000000000000000000000600052603260045260246000fd5b90600052602060002090600b020160040154915050919050565b60016020528060005260406000206000915054906101000a900473ffffffffffffffffffffffffffffffffffffffff1681565b6060816004548110610d66576040517f08c379a0000000000000000000000000000000000000000000000000000000008152600401610d5d9061227b565b60405180910390fd5b60008381548110610da0577f4e487b7100000000000000000000000000000000000000000000000000000000600052603260045260246000fd5b90600052602060002090600b02016002018054610dbc906125c9565b80601f0160208091040260200160405190810160405280929190818152602001828054610de8906125c9565b8015610e355780601f10610e0a57610100808354040283529160200191610e35565b820191906000526020600020905b815481529060010190602001808311610e1857829003601f168201915b5050505050915050919050565b60008181548110610e5257600080fd5b90600052602060002090600b0201600091509050806000015490806001015490806002018054610e81906125c9565b80601f0160208091040260200160405190810160405280929190818152602001828054610ead906125c9565b8015610efa5780601f10610ecf57610100808354040283529160200191610efa565b820191906000526020600020905b815481529060010190602001808311610edd57829003601f168201915b505050505090806003018054610f0f906125c9565b80601f0160208091040260200160405190810160405280929190818152602001828054610f3b906125c9565b8015610f885780601f10610f5d57610100808354040283529160200191610f88565b820191906000526020600020905b815481529060010190602001808311610f6b57829003601f168201915b505050505090806004015490806005018054610fa3906125c9565b80601f0160208091040260200160405190810160405280929190818152602001828054610fcf906125c9565b801561101c5780601f10610ff15761010080835404028352916020019161101c565b820191906000526020600020905b815481529060010190602001808311610fff57829003601f168201915b5050505050908060060154908060070154908060080160009054906101000a900460ff16908060080160019054906101000a900473ffffffffffffffffffffffffffffffffffffffff16908060090160009054906101000a900473ffffffffffffffffffffffffffffffffffffffff169080600a015490508c565b600560009054906101000a900473ffffffffffffffffffffffffffffffffffffffff1681565b6000816004548110611104576040517f08c379a00000000000000000000000000000000000000000000000000000000081526004016110fb9061227b565b60405180910390fd5b6000838154811061113e577f4e487b7100000000000000000000000000000000000000000000000000000000600052603260045260246000fd5b90600052602060002090600b020160080160009054906101000a900460ff16915050919050565b60008160045481106111ac576040517f08c379a00000000000000000000000000000000000000000000000000000000081526004016111a39061227b565b60405180910390fd5b600083815481106111e6577f4e487b7100000000000000000000000000000000000000000000000000000000600052603260045260246000fd5b90600052602060002090600b020160060154915050919050565b6000816004548110611247576040517f08c379a000000000000000000000000000000000000000000000000000000000815260040161123e9061227b565b60405180910390fd5b60008381548110611281577f4e487b7100000000000000000000000000000000000000000000000000000000600052603260045260246000fd5b90600052602060002090600b020160070154915050919050565b60008160045481106112e2576040517f08c379a00000000000000000000000000000000000000000000000000000000081526004016112d99061227b565b60405180910390fd5b6000838154811061131c577f4e487b7100000000000000000000000000000000000000000000000000000000600052603260045260246000fd5b90600052602060002090600b020160010154915050919050565b60045481565b6060816004548110611383576040517f08c379a000000000000000000000000000000000000000000000000000000000815260040161137a9061227b565b60405180910390fd5b600083815481106113bd577f4e487b7100000000000000000000000000000000000000000000000000000000600052603260045260246000fd5b90600052602060002090600b020160050180546113d9906125c9565b80601f0160208091040260200160405190810160405280929190818152602001828054611405906125c9565b80156114525780601f1061142757610100808354040283529160200191611452565b820191906000526020600020905b81548152906001019060200180831161143557829003601f168201915b5050505050915050919050565b8160045481106114a4576040517f08c379a000000000000000000000000000000000000000000000000000000000815260040161149b9061227b565b60405180910390fd5b600083815481106114de577f4e487b7100000000000000000000000000000000000000000000000000000000600052603260045260246000fd5b90600052602060002090600b020160080160019054906101000a900473ffffffffffffffffffffffffffffffffffffffff1673ffffffffffffffffffffffffffffffffffffffff163373ffffffffffffffffffffffffffffffffffffffff161461157d576040517f08c379a00000000000000000000000000000000000000000000000000000000081526004016115749061231b565b60405180910390fd5b600060028111156115b7577f4e487b7100000000000000000000000000000000000000000000000000000000600052602160045260246000fd5b600084815481106115f1577f4e487b7100000000000000000000000000000000000000000000000000000000600052603260045260246000fd5b90600052602060002090600b020160080160009054906101000a900460ff166002811115611648577f4e487b7100000000000000000000000000000000000000000000000000000000600052602160045260246000fd5b14611688576040517f08c379a000000000000000000000000000000000000000000000000000000000815260040161167f906122fb565b60405180910390fd5b600083815481106116c2577f4e487b7100000000000000000000000000000000000000000000000000000000600052603260045260246000fd5b90600052602060002090600b020160080160019054906101000a900473ffffffffffffffffffffffffffffffffffffffff166000848154811061172e577f4e487b7100000000000000000000000000000000000000000000000000000000600052603260045260246000fd5b90600052602060002090600b020160090160006101000a81548173ffffffffffffffffffffffffffffffffffffffff021916908373ffffffffffffffffffffffffffffffffffffffff16021790555081600084815481106117b8577f4e487b7100000000000000000000000000000000000000000000000000000000600052603260045260246000fd5b90600052602060002090600b020160080160016101000a81548173ffffffffffffffffffffffffffffffffffffffff021916908373ffffffffffffffffffffffffffffffffffffffff1602179055507f913d09b391f64143215d9312fd7e8ecaa06001c646789c9d2109dc515bc34fad838360008681548110611864577f4e487b7100000000000000000000000000000000000000000000000000000000600052603260045260246000fd5b90600052602060002090600b0201600a01546040516118859392919061237f565b60405180910390a1505050565b60608160045481106118d9576040517f08c379a00000000000000000000000000000000000000000000000000000000081526004016118d09061227b565b60405180910390fd5b60008381548110611913577f4e487b7100000000000000000000000000000000000000000000000000000000600052603260045260246000fd5b90600052602060002090600b0201600301805461192f906125c9565b80601f016020809104026020016040519081016040528092919081815260200182805461195b906125c9565b80156119a85780601f1061197d576101008083540402835291602001916119a8565b820191906000526020600020905b81548152906001019060200180831161198b57829003601f168201915b5050505050915050919050565b60008160045481106119fc576040517f08c379a00000000000000000000000000000000000000000000000000000000081526004016119f39061227b565b60405180910390fd5b60008381548110611a36577f4e487b7100000000000000000000000000000000000000000000000000000000600052603260045260246000fd5b90600052602060002090600b020160080160019054906101000a900473ffffffffffffffffffffffffffffffffffffffff16915050919050565b600360009054906101000a900473ffffffffffffffffffffffffffffffffffffffff1681565b6000816004548110611add576040517f08c379a0000000000000000000000000000000000000000000000000000000008152600401611ad49061227b565b60405180910390fd5b60008381548110611b17577f4e487b7100000000000000000000000000000000000000000000000000000000600052603260045260246000fd5b90600052602060002090600b020160000154915050919050565b6000816004548110611b78576040517f08c379a0000000000000000000000000000000000000000000000000000000008152600401611b6f9061227b565b60405180910390fd5b60008381548110611bb2577f4e487b7100000000000000000000000000000000000000000000000000000000600052603260045260246000fd5b90600052602060002090600b0201600a0154915050919050565b6000816004548110611c13576040517f08c379a0000000000000000000000000000000000000000000000000000000008152600401611c0a9061227b565b60405180910390fd5b60008381548110611c4d577f4e487b7100000000000000000000000000000000000000000000000000000000600052603260045260246000fd5b90600052602060002090600b020160090160009054906101000a900473ffffffffffffffffffffffffffffffffffffffff16915050919050565b828054611c93906125c9565b90600052602060002090601f016020900481019282611cb55760008555611cfc565b82601f10611cce57805160ff1916838001178555611cfc565b82800160010185558215611cfc579182015b82811115611cfb578251825591602001919060010190611ce0565b5b509050611d099190611d0d565b5090565b5b80821115611d26576000816000905550600101611d0e565b5090565b6000611d3d611d38846124b6565b612485565b905082815260208101848484011115611d5557600080fd5b611d60848285612587565b509392505050565b600081359050611d7781612725565b92915050565b600082601f830112611d8e57600080fd5b8135611d9e848260208601611d2a565b91505092915050565b600081359050611db68161273c565b92915050565b600060208284031215611dce57600080fd5b6000611ddc84828501611da7565b91505092915050565b60008060408385031215611df857600080fd5b6000611e0685828601611da7565b9250506020611e1785828601611d68565b9150509250929050565b600080600080600080600080610100898b031215611e3e57600080fd5b6000611e4c8b828c01611da7565b985050602089013567ffffffffffffffff811115611e6957600080fd5b611e758b828c01611d7d565b975050604089013567ffffffffffffffff811115611e9257600080fd5b611e9e8b828c01611d7d565b9650506060611eaf8b828c01611da7565b955050608089013567ffffffffffffffff811115611ecc57600080fd5b611ed88b828c01611d7d565b94505060a0611ee98b828c01611da7565b93505060c0611efa8b828c01611da7565b92505060e0611f0b8b828c01611da7565b9150509295985092959890939650565b611f2481612502565b82525050565b611f3381612551565b82525050565b611f4281612575565b82525050565b6000611f53826124e6565b611f5d81856124f1565b9350611f6d818560208601612596565b611f7681612700565b840191505092915050565b6000611f8e6016836124f1565b91507f5469636b657420646f6573206e6f742065786973742e000000000000000000006000830152602082019050919050565b6000611fce6011836124f1565b91507f496e76616c6964207469636b65742049440000000000000000000000000000006000830152602082019050919050565b600061200e6015836124f1565b91507f5469636b6574206973206e6f74206163746976652e00000000000000000000006000830152602082019050919050565b600061204e602b836124f1565b91507f5469636b65742061742077726f6e672073746174652c20616374696f6e206e6f60008301527f7420706572666f726d65640000000000000000000000000000000000000000006020830152604082019050919050565b60006120b46031836124f1565b91507f4f6e6c792074686520636f6e63657274206f7267616e697a65722063616e206360008301527f616c6c20746869732066756e6374696f6e0000000000000000000000000000006020830152604082019050919050565b600061211a6031836124f1565b91507f5469636b65742063616e6e6f74206265207472616e7366657272656420696e2060008301527f6974732063757272656e742073746174650000000000000000000000000000006020830152604082019050919050565b60006121806022836124f1565b91507f4f6e6c7920746865207469636b6574206f776e65722063616e207472616e736660008301527f65720000000000000000000000000000000000000000000000000000000000006020830152604082019050919050565b6121e281612547565b82525050565b60006020820190506121fd6000830184611f1b565b92915050565b60006020820190506122186000830184611f2a565b92915050565b60006020820190506122336000830184611f39565b92915050565b600060208201905081810360008301526122538184611f48565b905092915050565b6000602082019050818103600083015261227481611f81565b9050919050565b6000602082019050818103600083015261229481611fc1565b9050919050565b600060208201905081810360008301526122b481612001565b9050919050565b600060208201905081810360008301526122d481612041565b9050919050565b600060208201905081810360008301526122f4816120a7565b9050919050565b600060208201905081810360008301526123148161210d565b9050919050565b6000602082019050818103600083015261233481612173565b9050919050565b600060208201905061235060008301846121d9565b92915050565b600060408201905061236b60008301856121d9565b6123786020830184611f1b565b9392505050565b600060608201905061239460008301866121d9565b6123a16020830185611f1b565b6123ae60408301846121d9565b949350505050565b6000610180820190506123cc600083018f6121d9565b6123d9602083018e6121d9565b81810360408301526123eb818d611f48565b905081810360608301526123ff818c611f48565b905061240e608083018b6121d9565b81810360a0830152612420818a611f48565b905061242f60c08301896121d9565b61243c60e08301886121d9565b61244a610100830187611f39565b612458610120830186611f1b565b612466610140830185611f1b565b6124746101608301846121d9565b9d9c50505050505050505050505050565b6000604051905081810181811067ffffffffffffffff821117156124ac576124ab6126d1565b5b8060405250919050565b600067ffffffffffffffff8211156124d1576124d06126d1565b5b601f19601f8301169050602081019050919050565b600081519050919050565b600082825260208201905092915050565b600061250d82612527565b9050919050565b600081905061252282612711565b919050565b600073ffffffffffffffffffffffffffffffffffffffff82169050919050565b6000819050919050565b600061255c82612563565b9050919050565b600061256e82612527565b9050919050565b600061258082612514565b9050919050565b82818337600083830152505050565b60005b838110156125b4578082015181840152602081019050612599565b838111156125c3576000848401525b50505050565b600060028204905060018216806125e157607f821691505b602082108114156125f5576125f46126a2565b5b50919050565b600061260682612547565b91507fffffffffffffffffffffffffffffffffffffffffffffffffffffffffffffffff82141561263957612638612644565b5b600182019050919050565b7f4e487b7100000000000000000000000000000000000000000000000000000000600052601160045260246000fd5b7f4e487b7100000000000000000000000000000000000000000000000000000000600052602160045260246000fd5b7f4e487b7100000000000000000000000000000000000000000000000000000000600052602260045260246000fd5b7f4e487b7100000000000000000000000000000000000000000000000000000000600052604160045260246000fd5b6000601f19601f8301169050919050565b6003811061272257612721612673565b5b50565b61272e81612502565b811461273957600080fd5b50565b61274581612547565b811461275057600080fd5b5056fea2646970667358221220bcf60469fc5f43f83fae3cb5a21f21236151783da420a0ae57c2754f09c532d564736f6c63430008000033",
  "immutableReferences": {},
  "source": "// SPDX-License-Identifier: MIT\r\npragma solidity ^0.8.0;\r\n\r\nimport \"./ERC20.sol\";\r\nimport \"./TicketToken.sol\";\r\n\r\ncontract Ticket {\r\n    enum TicketState {\r\n        Active,\r\n        Redeemed,\r\n        Frozen\r\n    }\r\n\r\n    struct TicketDetail {\r\n        uint256 ticketId;\r\n        uint256 concertId;\r\n        string concertName;\r\n        string concertVenue;\r\n        uint256 concertDate;\r\n        string ticketCategory;\r\n        uint256 ticketSectionNo;\r\n        uint256 ticketSeatNo;\r\n        TicketState ticketState;\r\n        address owner;\r\n        address prevOwner;\r\n        uint256 price;\r\n    }\r\n\r\n    TicketDetail[] public tickets;\r\n    mapping(uint256 => address) public ticketToOwner;\r\n    mapping(address => uint256) ownerTicketCount;\r\n\r\n    event TicketCreated(uint256 ticketId, address owner);\r\n    event TicketRedeemed(uint256 ticketId);\r\n    event TicketFrozen(uint256 ticketId);\r\n    event TicketBought(uint256 ticketId, address newOwner, uint256 price);\r\n\r\n    TicketToken public ticketToken;\r\n    uint256 public ticketCounter = 0;\r\n    address public organizer;\r\n\r\n    constructor(address _ticketToken) {\r\n        organizer = msg.sender;\r\n        ticketToken = TicketToken(_ticketToken);\r\n    }\r\n\r\n    modifier onlyOrganizer() {\r\n        require(\r\n            msg.sender == organizer,\r\n            \"Only the concert organizer can call this function\"\r\n        );\r\n        _;\r\n    }\r\n\r\n    modifier atState(uint256 _ticketId, TicketState _state) {\r\n        require(\r\n            tickets[_ticketId].ticketState == _state,\r\n            \"Ticket at wrong state, action not performed\"\r\n        );\r\n        _;\r\n    }\r\n\r\n    modifier validTicketId(uint256 ticketId) {\r\n        require(ticketId < ticketCounter, \"Invalid ticket ID\");\r\n        _;\r\n    }\r\n\r\n    function createTicket(\r\n        //uint256 ticketId,\r\n        uint256 concertId,\r\n        string memory concertName,\r\n        string memory concertVenue,\r\n        uint256 concertDate,\r\n        string memory ticketCategory,\r\n        uint256 ticketSectionNo,\r\n        uint256 ticketSeatNo,\r\n        uint256 price\r\n    ) external onlyOrganizer {\r\n        tickets.push(\r\n            TicketDetail({\r\n                ticketId: ticketCounter,\r\n                concertId: concertId,\r\n                concertName: concertName,\r\n                concertVenue: concertVenue,\r\n                concertDate: concertDate,\r\n                ticketCategory: ticketCategory,\r\n                ticketSectionNo: ticketSectionNo,\r\n                ticketSeatNo: ticketSeatNo,\r\n                ticketState: TicketState.Active,\r\n                owner: organizer,\r\n                prevOwner: address(0),\r\n                price: price\r\n            })\r\n        );\r\n        emit TicketCreated(ticketCounter, organizer);\r\n        ticketCounter++;\r\n    }\r\n\r\n    function redeemTicket(uint256 _ticketId) public {\r\n        require(_ticketId < tickets.length, \"Ticket does not exist.\");\r\n        TicketDetail storage ticket = tickets[_ticketId];\r\n\r\n        // Ensure the ticket is active\r\n        require(\r\n            ticket.ticketState == TicketState.Active,\r\n            \"Ticket is not active.\"\r\n        );\r\n\r\n        // Update the ticket state to Redeemed\r\n        ticket.ticketState = TicketState.Redeemed;\r\n\r\n        // Emit the redemption event\r\n        emit TicketRedeemed(_ticketId);\r\n    }\r\n\r\n    function freezeTicket(\r\n        uint256 _ticketId\r\n    ) external atState(_ticketId, TicketState.Active) validTicketId(_ticketId) {\r\n        tickets[_ticketId].ticketState = TicketState.Frozen;\r\n        emit TicketFrozen(_ticketId);\r\n    }\r\n\r\n    function transfer(\r\n        uint256 ticketId,\r\n        address newOwner\r\n    ) external validTicketId(ticketId) {\r\n        require(\r\n            msg.sender == tickets[ticketId].owner,\r\n            \"Only the ticket owner can transfer\"\r\n        );\r\n        require(\r\n            tickets[ticketId].ticketState == TicketState.Active,\r\n            \"Ticket cannot be transferred in its current state\"\r\n        );\r\n\r\n        tickets[ticketId].prevOwner = tickets[ticketId].owner;\r\n        tickets[ticketId].owner = newOwner;\r\n\r\n        emit TicketBought(ticketId, newOwner, tickets[ticketId].price);\r\n    }\r\n\r\n    // Getter Functions for Ticket attributes\r\n    function getTicketId(\r\n        uint256 ticketId\r\n    ) public view validTicketId(ticketId) returns (uint256) {\r\n        return tickets[ticketId].ticketId;\r\n    }\r\n\r\n    function getConcertId(\r\n        uint256 ticketId\r\n    ) public view validTicketId(ticketId) returns (uint256) {\r\n        return tickets[ticketId].concertId;\r\n    }\r\n\r\n    function getConcertName(\r\n        uint256 ticketId\r\n    ) public view validTicketId(ticketId) returns (string memory) {\r\n        return tickets[ticketId].concertName;\r\n    }\r\n\r\n    function getConcertVenue(\r\n        uint256 ticketId\r\n    ) public view validTicketId(ticketId) returns (string memory) {\r\n        return tickets[ticketId].concertVenue;\r\n    }\r\n\r\n    function getConcertDate(\r\n        uint256 ticketId\r\n    ) public view validTicketId(ticketId) returns (uint256) {\r\n        return tickets[ticketId].concertDate;\r\n    }\r\n\r\n    function getTicketCategory(\r\n        uint256 ticketId\r\n    ) public view validTicketId(ticketId) returns (string memory) {\r\n        return tickets[ticketId].ticketCategory;\r\n    }\r\n\r\n    function getTicketSectionNo(\r\n        uint256 ticketId\r\n    ) public view validTicketId(ticketId) returns (uint256) {\r\n        return tickets[ticketId].ticketSectionNo;\r\n    }\r\n\r\n    function getTicketSeatNo(\r\n        uint256 ticketId\r\n    ) public view validTicketId(ticketId) returns (uint256) {\r\n        return tickets[ticketId].ticketSeatNo;\r\n    }\r\n\r\n    function getTicketState(\r\n        uint256 ticketId\r\n    ) public view validTicketId(ticketId) returns (TicketState) {\r\n        return tickets[ticketId].ticketState;\r\n    }\r\n\r\n    function getOwner(\r\n        uint256 ticketId\r\n    ) public view validTicketId(ticketId) returns (address) {\r\n        return tickets[ticketId].owner;\r\n    }\r\n\r\n    function getPrevOwner(\r\n        uint256 ticketId\r\n    ) public view validTicketId(ticketId) returns (address) {\r\n        return tickets[ticketId].prevOwner;\r\n    }\r\n\r\n    function getPrice(\r\n        uint256 ticketId\r\n    ) public view validTicketId(ticketId) returns (uint256) {\r\n        return tickets[ticketId].price;\r\n    }\r\n}\r\n",
  "sourcePath": "C:\\Users\\tngjo\\OneDrive\\Desktop\\GitHub\\IS4302-Decentralized-Event-Ticketing-System\\contracts\\Ticket.sol",
  "compiler": {
    "name": "solc",
    "version": "0.8.0+commit.c7dfd78e.Emscripten.clang"
  },
  "schemaVersion": "3.4.16",
  "updatedAt": "2024-03-21T14:55:36.254Z",
  "devdoc": {
    "kind": "dev",
    "methods": {},
    "version": 1
  },
  "userdoc": {
    "kind": "user",
    "methods": {},
    "version": 1
  }
}