{
  "contractName": "TicketMarket",
  "abi": [
    {
      "inputs": [
        {
          "internalType": "contract Ticket",
          "name": "ticketAddress",
          "type": "address"
        },
        {
          "internalType": "uint256",
          "name": "fee",
          "type": "uint256"
        },
        {
          "internalType": "contract LoyaltyPoints",
          "name": "_loyaltyPointsAddress",
          "type": "address"
        }
      ],
      "stateMutability": "nonpayable",
      "type": "constructor"
    },
    {
      "anonymous": false,
      "inputs": [
        {
          "indexed": false,
          "internalType": "uint256",
          "name": "ticketId",
          "type": "uint256"
        },
        {
          "indexed": false,
          "internalType": "uint256",
          "name": "price",
          "type": "uint256"
        }
      ],
      "name": "TicketListed",
      "type": "event"
    },
    {
      "anonymous": false,
      "inputs": [
        {
          "indexed": false,
          "internalType": "uint256",
          "name": "ticketId",
          "type": "uint256"
        },
        {
          "indexed": false,
          "internalType": "address",
          "name": "buyer",
          "type": "address"
        },
        {
          "indexed": false,
          "internalType": "uint256",
          "name": "price",
          "type": "uint256"
        }
      ],
      "name": "TicketSold",
      "type": "event"
    },
    {
      "anonymous": false,
      "inputs": [
        {
          "indexed": true,
          "internalType": "uint256",
          "name": "id",
          "type": "uint256"
        },
        {
          "indexed": false,
          "internalType": "address",
          "name": "from",
          "type": "address"
        },
        {
          "indexed": false,
          "internalType": "address",
          "name": "to",
          "type": "address"
        },
        {
          "indexed": false,
          "internalType": "uint256",
          "name": "price",
          "type": "uint256"
        }
      ],
      "name": "TicketTransferred",
      "type": "event"
    },
    {
      "anonymous": false,
      "inputs": [
        {
          "indexed": false,
          "internalType": "uint256",
          "name": "ticketId",
          "type": "uint256"
        }
      ],
      "name": "TicketUnlisted",
      "type": "event"
    },
    {
      "inputs": [],
      "name": "buyerQueue",
      "outputs": [
        {
          "internalType": "contract PriorityQueue",
          "name": "",
          "type": "address"
        }
      ],
      "stateMutability": "view",
      "type": "function"
    },
    {
      "inputs": [],
      "name": "commissionFee",
      "outputs": [
        {
          "internalType": "uint256",
          "name": "",
          "type": "uint256"
        }
      ],
      "stateMutability": "view",
      "type": "function"
    },
    {
      "inputs": [
        {
          "internalType": "uint256",
          "name": "",
          "type": "uint256"
        }
      ],
      "name": "listPrice",
      "outputs": [
        {
          "internalType": "uint256",
          "name": "",
          "type": "uint256"
        }
      ],
      "stateMutability": "view",
      "type": "function"
    },
    {
      "inputs": [],
      "name": "loyaltyPoints",
      "outputs": [
        {
          "internalType": "contract LoyaltyPoints",
          "name": "",
          "type": "address"
        }
      ],
      "stateMutability": "view",
      "type": "function"
    },
    {
      "inputs": [],
      "name": "ticketContract",
      "outputs": [
        {
          "internalType": "contract Ticket",
          "name": "",
          "type": "address"
        }
      ],
      "stateMutability": "view",
      "type": "function"
    },
    {
      "inputs": [
        {
          "internalType": "uint256",
          "name": "ticketId",
          "type": "uint256"
        },
        {
          "internalType": "uint256",
          "name": "price",
          "type": "uint256"
        }
      ],
      "name": "list",
      "outputs": [],
      "stateMutability": "nonpayable",
      "type": "function"
    },
    {
      "inputs": [
        {
          "internalType": "uint256",
          "name": "ticketId",
          "type": "uint256"
        }
      ],
      "name": "unlist",
      "outputs": [],
      "stateMutability": "nonpayable",
      "type": "function"
    },
    {
      "inputs": [
        {
          "internalType": "uint256",
          "name": "ticketId",
          "type": "uint256"
        }
      ],
      "name": "getTicketPrice",
      "outputs": [
        {
          "internalType": "uint256",
          "name": "",
          "type": "uint256"
        }
      ],
      "stateMutability": "view",
      "type": "function"
    },
    {
      "inputs": [],
      "name": "getCommission",
      "outputs": [
        {
          "internalType": "uint256",
          "name": "",
          "type": "uint256"
        }
      ],
      "stateMutability": "view",
      "type": "function"
    },
    {
      "inputs": [
        {
          "internalType": "uint256",
          "name": "ticketId",
          "type": "uint256"
        }
      ],
      "name": "buy",
      "outputs": [],
      "stateMutability": "payable",
      "type": "function"
    },
    {
      "inputs": [],
      "name": "thereAreTicketsAvailable",
      "outputs": [
        {
          "internalType": "bool",
          "name": "",
          "type": "bool"
        }
      ],
      "stateMutability": "view",
      "type": "function"
    },
    {
      "inputs": [
        {
          "internalType": "uint256",
          "name": "id",
          "type": "uint256"
        }
      ],
      "name": "checkPrice",
      "outputs": [
        {
          "internalType": "uint256",
          "name": "",
          "type": "uint256"
        }
      ],
      "stateMutability": "view",
      "type": "function"
    }
  ],
  "bytecode": "0x6080604052336000806101000a81548173ffffffffffffffffffffffffffffffffffffffff021916908373ffffffffffffffffffffffffffffffffffffffff1602179055503480156200005157600080fd5b50604051620016973803806200169783398181016040528101906200007791906200014e565b82600260006101000a81548173ffffffffffffffffffffffffffffffffffffffff021916908373ffffffffffffffffffffffffffffffffffffffff1602179055508160018190555080600460006101000a81548173ffffffffffffffffffffffffffffffffffffffff021916908373ffffffffffffffffffffffffffffffffffffffff16021790555050505062000258565b6000815190506200011a816200020a565b92915050565b600081519050620001318162000224565b92915050565b60008151905062000148816200023e565b92915050565b6000806000606084860312156200016457600080fd5b6000620001748682870162000120565b9350506020620001878682870162000137565b92505060406200019a8682870162000109565b9150509250925092565b6000620001b182620001e0565b9050919050565b6000620001c582620001a4565b9050919050565b6000620001d982620001a4565b9050919050565b600073ffffffffffffffffffffffffffffffffffffffff82169050919050565b6000819050919050565b6200021581620001b8565b81146200022157600080fd5b50565b6200022f81620001cc565b81146200023b57600080fd5b50565b620002498162000200565b81146200025557600080fd5b50565b61142f80620002686000396000f3fe6080604052600436106100a75760003560e01c8063880796d311610064578063880796d3146101d0578063956a20ea146101fb578063bf5a4dd314610226578063d96a094a1461024f578063e65d6b491461026b578063f06fc96114610296576100a7565b80631de7463a146100ac57806350fd7367146100e957806358a86e1d146101125780635a1c38261461013d5780636fb1eb0c1461016857806387d81f7c14610193575b600080fd5b3480156100b857600080fd5b506100d360048036038101906100ce9190610e06565b6102d3565b6040516100e09190611160565b60405180910390f35b3480156100f557600080fd5b50610110600480360381019061010b9190610e58565b6102f0565b005b34801561011e57600080fd5b50610127610580565b60405161013491906110a5565b60405180910390f35b34801561014957600080fd5b506101526105a6565b60405161015f9190611054565b60405180910390f35b34801561017457600080fd5b5061017d610606565b60405161018a9190611160565b60405180910390f35b34801561019f57600080fd5b506101ba60048036038101906101b59190610e06565b61060c565b6040516101c79190611160565b60405180910390f35b3480156101dc57600080fd5b506101e5610624565b6040516101f2919061108a565b60405180910390f35b34801561020757600080fd5b5061021061064a565b60405161021d919061106f565b60405180910390f35b34801561023257600080fd5b5061024d60048036038101906102489190610e06565b610670565b005b61026960048036038101906102649190610e06565b610906565b005b34801561027757600080fd5b50610280610d77565b60405161028d9190611160565b60405180910390f35b3480156102a257600080fd5b506102bd60048036038101906102b89190610e06565b610d81565b6040516102ca9190611160565b60405180910390f35b600060056000838152602001908152602001600020549050919050565b600154600260009054906101000a900473ffffffffffffffffffffffffffffffffffffffff1673ffffffffffffffffffffffffffffffffffffffff1663e7572230846040518263ffffffff1660e01b815260040161034e9190611160565b60206040518083038186803b15801561036657600080fd5b505afa15801561037a573d6000803e3d6000fd5b505050506040513d601f19601f8201168201806040525081019061039e9190610e2f565b6103a89190611215565b8110156103ea576040517f08c379a00000000000000000000000000000000000000000000000000000000081526004016103e190611120565b60405180910390fd5b600260009054906101000a900473ffffffffffffffffffffffffffffffffffffffff1673ffffffffffffffffffffffffffffffffffffffff1663c41a360a836040518263ffffffff1660e01b81526004016104459190611160565b60206040518083038186803b15801561045d57600080fd5b505afa158015610471573d6000803e3d6000fd5b505050506040513d601f19601f820116820180604052508101906104959190610ddd565b73ffffffffffffffffffffffffffffffffffffffff163373ffffffffffffffffffffffffffffffffffffffff1614610502576040517f08c379a00000000000000000000000000000000000000000000000000000000081526004016104f9906110e0565b60405180910390fd5b7fbca2f6391cafd6d28d39261ba883dd74090c618befb806e74ef434778bb2f7ed82826040516105339291906111db565b60405180910390a180600560008481526020019081526020016000208190555060068290806001815401808255809150506001900390600052602060002001600090919091909150555050565b600260009054906101000a900473ffffffffffffffffffffffffffffffffffffffff1681565b6000806000905060005b6006805490508110156105fb576000600560008381526020019081526020016000205411156105e85781806105e490611353565b9250505b80806105f390611353565b9150506105b0565b506000811191505090565b60015481565b60056020528060005260406000206000915090505481565b600360009054906101000a900473ffffffffffffffffffffffffffffffffffffffff1681565b600460009054906101000a900473ffffffffffffffffffffffffffffffffffffffff1681565b600260009054906101000a900473ffffffffffffffffffffffffffffffffffffffff1673ffffffffffffffffffffffffffffffffffffffff1663c41a360a826040518263ffffffff1660e01b81526004016106cb9190611160565b60206040518083038186803b1580156106e357600080fd5b505afa1580156106f7573d6000803e3d6000fd5b505050506040513d601f19601f8201168201806040525081019061071b9190610ddd565b73ffffffffffffffffffffffffffffffffffffffff163373ffffffffffffffffffffffffffffffffffffffff161461075257600080fd5b600060056000838152602001908152602001600020819055507fdb00f3044f762e640c77fdd12df2e7cf2b4c17de34f8995969a4d98b9904af458160405161079a9190611160565b60405180910390a160005b6006805490508110156109025781600682815481106107ed577f4e487b7100000000000000000000000000000000000000000000000000000000600052603260045260246000fd5b906000526020600020015414156108ef5760066001600680549050610812919061126b565b81548110610849577f4e487b7100000000000000000000000000000000000000000000000000000000600052603260045260246000fd5b90600052602060002001546006828154811061088e577f4e487b7100000000000000000000000000000000000000000000000000000000600052603260045260246000fd5b906000526020600020018190555060068054806108d4577f4e487b7100000000000000000000000000000000000000000000000000000000600052603160045260246000fd5b60019003818190600052602060002001600090559055610902565b80806108fa90611353565b9150506107a5565b5050565b60006005600083815260200190815260200160002054141561095d576040517f08c379a0000000000000000000000000000000000000000000000000000000008152600401610954906110c0565b60405180910390fd5b60056000828152602001908152602001600020543410156109b3576040517f08c379a00000000000000000000000000000000000000000000000000000000081526004016109aa90611100565b60405180910390fd5b6000600260009054906101000a900473ffffffffffffffffffffffffffffffffffffffff1673ffffffffffffffffffffffffffffffffffffffff1663c41a360a836040518263ffffffff1660e01b8152600401610a109190611160565b60206040518083038186803b158015610a2857600080fd5b505afa158015610a3c573d6000803e3d6000fd5b505050506040513d601f19601f82011682018060405250810190610a609190610ddd565b90508073ffffffffffffffffffffffffffffffffffffffff163373ffffffffffffffffffffffffffffffffffffffff161415610ad1576040517f08c379a0000000000000000000000000000000000000000000000000000000008152600401610ac890611140565b60405180910390fd5b6000600260009054906101000a900473ffffffffffffffffffffffffffffffffffffffff1673ffffffffffffffffffffffffffffffffffffffff1663f2d03fcf846040518263ffffffff1660e01b8152600401610b2e9190611160565b60206040518083038186803b158015610b4657600080fd5b505afa158015610b5a573d6000803e3d6000fd5b505050506040513d601f19601f82011682018060405250810190610b7e9190610ddd565b905060006001546005600086815260200190815260200160002054610ba3919061126b565b90508173ffffffffffffffffffffffffffffffffffffffff166108fc829081150290604051600060405180830381858888f19350505050158015610beb573d6000803e3d6000fd5b50600260009054906101000a900473ffffffffffffffffffffffffffffffffffffffff1673ffffffffffffffffffffffffffffffffffffffff1663b7760c8f85336040518363ffffffff1660e01b8152600401610c4992919061117b565b600060405180830381600087803b158015610c6357600080fd5b505af1158015610c77573d6000803e3d6000fd5b505050507fbce6612c87f6b5711225ffc4b9f920148cd399de49ba10137fe0d3c53133384184336005600088815260200190815260200160002054604051610cc1939291906111a4565b60405180910390a1600260009054906101000a900473ffffffffffffffffffffffffffffffffffffffff1673ffffffffffffffffffffffffffffffffffffffff1663b7760c8f85856040518363ffffffff1660e01b8152600401610d2692919061117b565b600060405180830381600087803b158015610d4057600080fd5b505af1158015610d54573d6000803e3d6000fd5b505050506000600560008681526020019081526020016000208190555050505050565b6000600154905090565b600060056000838152602001908152602001600020549050919050565b600081519050610dad816113cb565b92915050565b600081359050610dc2816113e2565b92915050565b600081519050610dd7816113e2565b92915050565b600060208284031215610def57600080fd5b6000610dfd84828501610d9e565b91505092915050565b600060208284031215610e1857600080fd5b6000610e2684828501610db3565b91505092915050565b600060208284031215610e4157600080fd5b6000610e4f84828501610dc8565b91505092915050565b60008060408385031215610e6b57600080fd5b6000610e7985828601610db3565b9250506020610e8a85828601610db3565b9150509250929050565b610e9d8161129f565b82525050565b610eac816112b1565b82525050565b610ebb816112e7565b82525050565b610eca8161130b565b82525050565b610ed98161132f565b82525050565b6000610eec601e83611204565b91507f5469636b6574206d757374206265206c697374656420666f722073616c6500006000830152602082019050919050565b6000610f2c601a83611204565b91507f43616c6c6572206973206e6f74207469636b6574206f776e65720000000000006000830152602082019050919050565b6000610f6c601483611204565b91507f496e73756666696369656e74207061796d656e740000000000000000000000006000830152602082019050919050565b6000610fac603783611204565b91507f5072696365206d757374206265206174206c65617374207469636b657420707260008301527f69636520706c757320636f6d6d697373696f6e206665650000000000000000006020830152604082019050919050565b6000611012601d83611204565b91507f427579657220616c7265616479206f776e7320746865207469636b65740000006000830152602082019050919050565b61104e816112dd565b82525050565b60006020820190506110696000830184610ea3565b92915050565b60006020820190506110846000830184610eb2565b92915050565b600060208201905061109f6000830184610ec1565b92915050565b60006020820190506110ba6000830184610ed0565b92915050565b600060208201905081810360008301526110d981610edf565b9050919050565b600060208201905081810360008301526110f981610f1f565b9050919050565b6000602082019050818103600083015261111981610f5f565b9050919050565b6000602082019050818103600083015261113981610f9f565b9050919050565b6000602082019050818103600083015261115981611005565b9050919050565b60006020820190506111756000830184611045565b92915050565b60006040820190506111906000830185611045565b61119d6020830184610e94565b9392505050565b60006060820190506111b96000830186611045565b6111c66020830185610e94565b6111d36040830184611045565b949350505050565b60006040820190506111f06000830185611045565b6111fd6020830184611045565b9392505050565b600082825260208201905092915050565b6000611220826112dd565b915061122b836112dd565b9250827fffffffffffffffffffffffffffffffffffffffffffffffffffffffffffffffff038211156112605761125f61139c565b5b828201905092915050565b6000611276826112dd565b9150611281836112dd565b9250828210156112945761129361139c565b5b828203905092915050565b60006112aa826112bd565b9050919050565b60008115159050919050565b600073ffffffffffffffffffffffffffffffffffffffff82169050919050565b6000819050919050565b60006112f2826112f9565b9050919050565b6000611304826112bd565b9050919050565b60006113168261131d565b9050919050565b6000611328826112bd565b9050919050565b600061133a82611341565b9050919050565b600061134c826112bd565b9050919050565b600061135e826112dd565b91507fffffffffffffffffffffffffffffffffffffffffffffffffffffffffffffffff8214156113915761139061139c565b5b600182019050919050565b7f4e487b7100000000000000000000000000000000000000000000000000000000600052601160045260246000fd5b6113d48161129f565b81146113df57600080fd5b50565b6113eb816112dd565b81146113f657600080fd5b5056fea2646970667358221220e05d84961e770981455729ed313cf299436f3fae46288f5e2796edf15d4108f664736f6c63430008000033",
  "immutableReferences": {},
  "source": "// SPDX-License-Identifier: MIT\r\npragma solidity ^0.8.0;\r\n\r\nimport \"./ERC20.sol\";\r\nimport \"./Ticket.sol\";\r\nimport \"./TicketToken.sol\";\r\nimport \"./PriorityQueue.sol\";\r\nimport \"./LoyaltyPoints.sol\";\r\n\r\ncontract TicketMarket {\r\n    address _owner = msg.sender;\r\n    uint256 public commissionFee;\r\n    Ticket public ticketContract;\r\n\r\n    PriorityQueue public buyerQueue;\r\n    LoyaltyPoints public loyaltyPoints;\r\n\r\n    // Mapping from ticket ID to listing price\r\n    mapping(uint256 => uint256) public listPrice;\r\n\r\n    uint256[] private listedTickets; // To track listed ticket IDs\r\n\r\n    // Event emitted when a ticket is listed for sale\r\n    event TicketListed(uint256 ticketId, uint256 price);\r\n    event TicketUnlisted(uint256 ticketId);\r\n    event TicketSold(uint256 ticketId, address buyer, uint256 price);\r\n\r\n    // Event emitted when a ticket is transferred\r\n    event TicketTransferred(\r\n        uint256 indexed id,\r\n        address from,\r\n        address to,\r\n        uint256 price\r\n    );\r\n\r\n    constructor(\r\n        Ticket ticketAddress,\r\n        uint256 fee,\r\n        LoyaltyPoints _loyaltyPointsAddress\r\n    ) {\r\n        ticketContract = ticketAddress;\r\n        commissionFee = fee;\r\n        loyaltyPoints = _loyaltyPointsAddress;\r\n    }\r\n\r\n    // List a ticket for sale. Price needs to be >= value + fee\r\n    function list(uint256 ticketId, uint256 price) public {\r\n        require(\r\n            price >= (ticketContract.getPrice(ticketId) + commissionFee),\r\n            \"Price must be at least ticket price plus commission fee\"\r\n        );\r\n        require(\r\n            msg.sender == ticketContract.getOwner(ticketId),\r\n            \"Caller is not ticket owner\"\r\n        );\r\n        emit TicketListed(ticketId, price);\r\n        listPrice[ticketId] = price;\r\n        listedTickets.push(ticketId); // Add ticket ID to the list of listed tickets\r\n    }\r\n\r\n    function unlist(uint256 ticketId) public {\r\n        require(msg.sender == ticketContract.getOwner(ticketId));\r\n        listPrice[ticketId] = 0;\r\n        emit TicketUnlisted(ticketId); // Emit event for ticket unlisting\r\n\r\n        // Find and remove the ticket ID from listedTickets array\r\n        for (uint256 i = 0; i < listedTickets.length; i++) {\r\n            if (listedTickets[i] == ticketId) {\r\n                // Move the last element to the current index\r\n                listedTickets[i] = listedTickets[listedTickets.length - 1];\r\n                // Remove the last element\r\n                listedTickets.pop();\r\n                break; // Exit the loop once the ticket ID is removed\r\n            }\r\n        }\r\n    }\r\n\r\n    // Get price of ticket\r\n    function getTicketPrice(uint256 ticketId) public view returns (uint256) {\r\n        return listPrice[ticketId];\r\n    }\r\n\r\n    // Get the commission fee\r\n    function getCommission() public view returns (uint256) {\r\n        return commissionFee;\r\n    }\r\n\r\n    // Buy the ticket at the requested price\r\n    function buy(uint256 ticketId) public payable {\r\n        // Check if the ticket is listed for sale\r\n        require(listPrice[ticketId] != 0, \"Ticket must be listed for sale\");\r\n        // Check if payment is enough\r\n        require(msg.value >= listPrice[ticketId], \"Insufficient payment\");\r\n\r\n        address ticketOwner = ticketContract.getOwner(ticketId);\r\n        require(msg.sender != ticketOwner, \"Buyer already owns the ticket\");\r\n\r\n        address payable recipient = payable(\r\n            ticketContract.getPrevOwner(ticketId)\r\n        );\r\n\r\n        // Calculate the amount to transfer to the ticket owner after deducting the commission fee\r\n        uint256 amountToTransfer = listPrice[ticketId] - commissionFee;\r\n        // Transfer payment to the ticket owner after deducting the commission fee\r\n        recipient.transfer(amountToTransfer);\r\n\r\n        // Transfer ownership in the Ticket contract\r\n        ticketContract.transfer(ticketId, msg.sender);\r\n\r\n        // Emit event for ticket purchase\r\n        emit TicketSold(ticketId, msg.sender, listPrice[ticketId]);\r\n\r\n        // Transfer ownership of the ticket\r\n        ticketContract.transfer(ticketId, ticketOwner);\r\n\r\n        // Remove the ticket from the listing after purchase\r\n        listPrice[ticketId] = 0;\r\n    }\r\n\r\n\r\n    function thereAreTicketsAvailable() public view returns (bool) {\r\n        uint256 availableTickets = 0;\r\n        for (uint256 i = 0; i < listedTickets.length; i++) {\r\n            if (listPrice[i] > 0) {\r\n                availableTickets++;\r\n            }\r\n        }\r\n        return availableTickets > 0;\r\n    }\r\n\r\n    // get price of ticket\r\n    function checkPrice(uint256 id) public view returns (uint256) {\r\n        return listPrice[id];\r\n    }\r\n}\r\n",
  "sourcePath": "C:\\Users\\tngjo\\OneDrive\\Desktop\\GitHub\\IS4302-Decentralized-Event-Ticketing-System\\contracts\\TicketMarket.sol",
  "compiler": {
    "name": "solc",
    "version": "0.8.0+commit.c7dfd78e.Emscripten.clang"
  },
  "schemaVersion": "3.4.16",
  "updatedAt": "2024-03-23T14:48:16.978Z",
  "devdoc": {
    "kind": "dev",
    "methods": {},
    "version": 1
  },
  "userdoc": {
    "kind": "user",
    "methods": {},
    "version": 1
  }
}