{
  "contractName": "Ticket",
  "abi": [
    {
      "inputs": [
        {
          "internalType": "address",
          "name": "_ticketToken",
          "type": "address"
        }
      ],
      "stateMutability": "nonpayable",
      "type": "constructor"
    },
    {
      "anonymous": false,
      "inputs": [
        {
          "indexed": true,
          "internalType": "uint256",
          "name": "ticketId",
          "type": "uint256"
        },
        {
          "indexed": true,
          "internalType": "address",
          "name": "buyer",
          "type": "address"
        },
        {
          "indexed": false,
          "internalType": "uint256",
          "name": "price",
          "type": "uint256"
        }
      ],
      "name": "TicketBought",
      "type": "event"
    },
    {
      "anonymous": false,
      "inputs": [
        {
          "indexed": true,
          "internalType": "uint256",
          "name": "ticketId",
          "type": "uint256"
        },
        {
          "indexed": false,
          "internalType": "uint256",
          "name": "price",
          "type": "uint256"
        }
      ],
      "name": "TicketListedForSale",
      "type": "event"
    },
    {
      "anonymous": false,
      "inputs": [
        {
          "indexed": true,
          "internalType": "address",
          "name": "buyer",
          "type": "address"
        },
        {
          "indexed": true,
          "internalType": "uint256",
          "name": "ticketId",
          "type": "uint256"
        },
        {
          "indexed": false,
          "internalType": "uint256",
          "name": "price",
          "type": "uint256"
        }
      ],
      "name": "TicketPurchased",
      "type": "event"
    },
    {
      "anonymous": false,
      "inputs": [
        {
          "indexed": true,
          "internalType": "uint256",
          "name": "ticketId",
          "type": "uint256"
        },
        {
          "indexed": true,
          "internalType": "address",
          "name": "redeemer",
          "type": "address"
        }
      ],
      "name": "TicketRedeemed",
      "type": "event"
    },
    {
      "inputs": [],
      "name": "detToken",
      "outputs": [
        {
          "internalType": "contract ERC20",
          "name": "",
          "type": "address"
        }
      ],
      "stateMutability": "view",
      "type": "function"
    },
    {
      "inputs": [],
      "name": "organizer",
      "outputs": [
        {
          "internalType": "address",
          "name": "",
          "type": "address"
        }
      ],
      "stateMutability": "view",
      "type": "function"
    },
    {
      "inputs": [
        {
          "internalType": "address",
          "name": "",
          "type": "address"
        },
        {
          "internalType": "uint256",
          "name": "",
          "type": "uint256"
        }
      ],
      "name": "ownedTickets",
      "outputs": [
        {
          "internalType": "bool",
          "name": "",
          "type": "bool"
        }
      ],
      "stateMutability": "view",
      "type": "function"
    },
    {
      "inputs": [],
      "name": "ticketCounter",
      "outputs": [
        {
          "internalType": "uint256",
          "name": "",
          "type": "uint256"
        }
      ],
      "stateMutability": "view",
      "type": "function"
    },
    {
      "inputs": [],
      "name": "ticketState",
      "outputs": [
        {
          "internalType": "enum Ticket.TicketState",
          "name": "",
          "type": "uint8"
        }
      ],
      "stateMutability": "view",
      "type": "function"
    },
    {
      "inputs": [],
      "name": "ticketToken",
      "outputs": [
        {
          "internalType": "contract TicketToken",
          "name": "",
          "type": "address"
        }
      ],
      "stateMutability": "view",
      "type": "function"
    },
    {
      "inputs": [
        {
          "internalType": "uint256",
          "name": "",
          "type": "uint256"
        }
      ],
      "name": "tickets",
      "outputs": [
        {
          "internalType": "uint256",
          "name": "ticketId",
          "type": "uint256"
        },
        {
          "internalType": "uint256",
          "name": "concertId",
          "type": "uint256"
        },
        {
          "internalType": "string",
          "name": "concertName",
          "type": "string"
        },
        {
          "internalType": "string",
          "name": "concertVenue",
          "type": "string"
        },
        {
          "internalType": "uint256",
          "name": "concertDate",
          "type": "uint256"
        },
        {
          "internalType": "string",
          "name": "ticketCategory",
          "type": "string"
        },
        {
          "internalType": "uint256",
          "name": "ticketSectionNo",
          "type": "uint256"
        },
        {
          "internalType": "uint256",
          "name": "ticketSeatNo",
          "type": "uint256"
        },
        {
          "internalType": "enum Ticket.TicketState",
          "name": "ticketState",
          "type": "uint8"
        },
        {
          "internalType": "address",
          "name": "owner",
          "type": "address"
        },
        {
          "internalType": "address",
          "name": "prevOwner",
          "type": "address"
        },
        {
          "internalType": "uint256",
          "name": "price",
          "type": "uint256"
        }
      ],
      "stateMutability": "view",
      "type": "function"
    },
    {
      "inputs": [
        {
          "internalType": "uint256",
          "name": "_concertId",
          "type": "uint256"
        },
        {
          "internalType": "string",
          "name": "_concertName",
          "type": "string"
        },
        {
          "internalType": "string",
          "name": "_concertVenue",
          "type": "string"
        },
        {
          "internalType": "uint256",
          "name": "_concertDate",
          "type": "uint256"
        },
        {
          "internalType": "string",
          "name": "_ticketCategory",
          "type": "string"
        },
        {
          "internalType": "uint256",
          "name": "_ticketSectionNo",
          "type": "uint256"
        },
        {
          "internalType": "uint256",
          "name": "_ticketSeatNo",
          "type": "uint256"
        },
        {
          "internalType": "uint256",
          "name": "_price",
          "type": "uint256"
        }
      ],
      "name": "purchaseTicket",
      "outputs": [],
      "stateMutability": "nonpayable",
      "type": "function"
    },
    {
      "inputs": [
        {
          "internalType": "uint256",
          "name": "_ticketId",
          "type": "uint256"
        },
        {
          "internalType": "uint256",
          "name": "_price",
          "type": "uint256"
        }
      ],
      "name": "listTicketForSale",
      "outputs": [],
      "stateMutability": "nonpayable",
      "type": "function"
    },
    {
      "inputs": [
        {
          "internalType": "uint256",
          "name": "_ticketId",
          "type": "uint256"
        }
      ],
      "name": "buyTicket",
      "outputs": [],
      "stateMutability": "payable",
      "type": "function"
    },
    {
      "inputs": [
        {
          "internalType": "uint256",
          "name": "ticketId",
          "type": "uint256"
        }
      ],
      "name": "getTicketId",
      "outputs": [
        {
          "internalType": "uint256",
          "name": "",
          "type": "uint256"
        }
      ],
      "stateMutability": "view",
      "type": "function"
    },
    {
      "inputs": [
        {
          "internalType": "uint256",
          "name": "ticketId",
          "type": "uint256"
        }
      ],
      "name": "getConcertId",
      "outputs": [
        {
          "internalType": "uint256",
          "name": "",
          "type": "uint256"
        }
      ],
      "stateMutability": "view",
      "type": "function"
    },
    {
      "inputs": [
        {
          "internalType": "uint256",
          "name": "ticketId",
          "type": "uint256"
        }
      ],
      "name": "getConcertName",
      "outputs": [
        {
          "internalType": "string",
          "name": "",
          "type": "string"
        }
      ],
      "stateMutability": "view",
      "type": "function"
    },
    {
      "inputs": [
        {
          "internalType": "uint256",
          "name": "ticketId",
          "type": "uint256"
        }
      ],
      "name": "getConcertVenue",
      "outputs": [
        {
          "internalType": "string",
          "name": "",
          "type": "string"
        }
      ],
      "stateMutability": "view",
      "type": "function"
    },
    {
      "inputs": [
        {
          "internalType": "uint256",
          "name": "ticketId",
          "type": "uint256"
        }
      ],
      "name": "getConcertDate",
      "outputs": [
        {
          "internalType": "uint256",
          "name": "",
          "type": "uint256"
        }
      ],
      "stateMutability": "view",
      "type": "function"
    },
    {
      "inputs": [
        {
          "internalType": "uint256",
          "name": "ticketId",
          "type": "uint256"
        }
      ],
      "name": "getTicketCategory",
      "outputs": [
        {
          "internalType": "string",
          "name": "",
          "type": "string"
        }
      ],
      "stateMutability": "view",
      "type": "function"
    },
    {
      "inputs": [
        {
          "internalType": "uint256",
          "name": "ticketId",
          "type": "uint256"
        }
      ],
      "name": "getTicketSectionNo",
      "outputs": [
        {
          "internalType": "uint256",
          "name": "",
          "type": "uint256"
        }
      ],
      "stateMutability": "view",
      "type": "function"
    },
    {
      "inputs": [
        {
          "internalType": "uint256",
          "name": "ticketId",
          "type": "uint256"
        }
      ],
      "name": "getTicketSeatNo",
      "outputs": [
        {
          "internalType": "uint256",
          "name": "",
          "type": "uint256"
        }
      ],
      "stateMutability": "view",
      "type": "function"
    },
    {
      "inputs": [
        {
          "internalType": "uint256",
          "name": "ticketId",
          "type": "uint256"
        }
      ],
      "name": "getTicketState",
      "outputs": [
        {
          "internalType": "enum Ticket.TicketState",
          "name": "",
          "type": "uint8"
        }
      ],
      "stateMutability": "view",
      "type": "function"
    },
    {
      "inputs": [
        {
          "internalType": "uint256",
          "name": "ticketId",
          "type": "uint256"
        }
      ],
      "name": "getOwner",
      "outputs": [
        {
          "internalType": "address",
          "name": "",
          "type": "address"
        }
      ],
      "stateMutability": "view",
      "type": "function"
    },
    {
      "inputs": [
        {
          "internalType": "uint256",
          "name": "ticketId",
          "type": "uint256"
        }
      ],
      "name": "getPrevOwner",
      "outputs": [
        {
          "internalType": "address",
          "name": "",
          "type": "address"
        }
      ],
      "stateMutability": "view",
      "type": "function"
    },
    {
      "inputs": [
        {
          "internalType": "uint256",
          "name": "ticketId",
          "type": "uint256"
        }
      ],
      "name": "getPrice",
      "outputs": [
        {
          "internalType": "uint256",
          "name": "",
          "type": "uint256"
        }
      ],
      "stateMutability": "view",
      "type": "function"
    },
    {
      "inputs": [
        {
          "internalType": "uint256",
          "name": "ticketId",
          "type": "uint256"
        },
        {
          "internalType": "address",
          "name": "newOwner",
          "type": "address"
        },
        {
          "internalType": "uint256",
          "name": "price",
          "type": "uint256"
        }
      ],
      "name": "transfer",
      "outputs": [],
      "stateMutability": "payable",
      "type": "function"
    }
  ],
  "bytecode": "0x608060405260006003553480156200001657600080fd5b506040516200262b3803806200262b83398181016040528101906200003c91906200012e565b33600460006101000a81548173ffffffffffffffffffffffffffffffffffffffff021916908373ffffffffffffffffffffffffffffffffffffffff16021790555080600260006101000a81548173ffffffffffffffffffffffffffffffffffffffff021916908373ffffffffffffffffffffffffffffffffffffffff1602179055506000600260146101000a81548160ff021916908360028111156200010b577f4e487b7100000000000000000000000000000000000000000000000000000000600052602160045260246000fd5b021790555050620001a8565b60008151905062000128816200018e565b92915050565b6000602082840312156200014157600080fd5b6000620001518482850162000117565b91505092915050565b600062000167826200016e565b9050919050565b600073ffffffffffffffffffffffffffffffffffffffff82169050919050565b62000199816200015a565b8114620001a557600080fd5b50565b61247380620001b86000396000f3fe6080604052600436106101405760003560e01c80638c4d59d0116100b6578063d524d32d1161006f578063d524d32d146104e0578063d5ed4d5a14610509578063dba4a8df14610534578063e757223014610571578063f2d03fcf146105ae578063f8548e36146105eb57610140565b80638c4d59d01461039857806399eb3759146103c3578063a0426f7c14610400578063a8d0052b1461043d578063bcc7982214610466578063c41a360a146104a357610140565b80636120326511610108578063612032651461025d5780636482db3f1461028857806367dd74ca146102c55780636c5c74b8146102e157806371d69ef01461031e57806386db5b231461035b57610140565b8063020b29d714610145578063140a58aa1461017057806316c15c0c1461019b5780634f44d7b6146101d857806350b4471214610215575b600080fd5b34801561015157600080fd5b5061015a610607565b6040516101679190611f38565b60405180910390f35b34801561017c57600080fd5b5061018561061a565b6040516101929190611f02565b60405180910390f35b3480156101a757600080fd5b506101c260048036038101906101bd9190611a30565b610640565b6040516101cf9190612055565b60405180910390f35b3480156101e457600080fd5b506101ff60048036038101906101fa9190611a30565b61066f565b60405161020c9190611f53565b60405180910390f35b34801561022157600080fd5b5061023c60048036038101906102379190611a30565b610726565b6040516102549c9b9a99989796959493929190612070565b60405180910390f35b34801561026957600080fd5b5061027261096b565b60405161027f9190611ecc565b60405180910390f35b34801561029457600080fd5b506102af60048036038101906102aa9190611a30565b610991565b6040516102bc9190611f38565b60405180910390f35b6102df60048036038101906102da9190611a30565b6109cd565b005b3480156102ed57600080fd5b5061030860048036038101906103039190611a30565b610e09565b6040516103159190612055565b60405180910390f35b34801561032a57600080fd5b5061034560048036038101906103409190611a30565b610e38565b6040516103529190612055565b60405180910390f35b34801561036757600080fd5b50610382600480360381019061037d9190611a30565b610e67565b60405161038f9190612055565b60405180910390f35b3480156103a457600080fd5b506103ad610e96565b6040516103ba9190612055565b60405180910390f35b3480156103cf57600080fd5b506103ea60048036038101906103e591906119f4565b610e9c565b6040516103f79190611ee7565b60405180910390f35b34801561040c57600080fd5b5061042760048036038101906104229190611a30565b610ecb565b6040516104349190611f53565b60405180910390f35b34801561044957600080fd5b50610464600480360381019061045f9190611ad1565b610f82565b005b34801561047257600080fd5b5061048d60048036038101906104889190611a30565b611397565b60405161049a9190611f53565b60405180910390f35b3480156104af57600080fd5b506104ca60048036038101906104c59190611a30565b61144e565b6040516104d79190611ecc565b60405180910390f35b3480156104ec57600080fd5b5061050760048036038101906105029190611bcb565b61149d565b005b34801561051557600080fd5b5061051e611729565b60405161052b9190611f1d565b60405180910390f35b34801561054057600080fd5b5061055b60048036038101906105569190611a30565b61174f565b6040516105689190612055565b60405180910390f35b34801561057d57600080fd5b5061059860048036038101906105939190611a30565b61177e565b6040516105a59190612055565b60405180910390f35b3480156105ba57600080fd5b506105d560048036038101906105d09190611a30565b6117ad565b6040516105e29190611ecc565b60405180910390f35b61060560048036038101906106009190611a82565b6117fc565b005b600260149054906101000a900460ff1681565b600560009054906101000a900473ffffffffffffffffffffffffffffffffffffffff1681565b600081600354811061065157600080fd5b60008084815260200190815260200160002060040154915050919050565b606081600354811061068057600080fd5b60008084815260200190815260200160002060020180546106a0906122b3565b80601f01602080910402602001604051908101604052809291908181526020018280546106cc906122b3565b80156107195780601f106106ee57610100808354040283529160200191610719565b820191906000526020600020905b8154815290600101906020018083116106fc57829003601f168201915b5050505050915050919050565b6000602052806000526040600020600091509050806000015490806001015490806002018054610755906122b3565b80601f0160208091040260200160405190810160405280929190818152602001828054610781906122b3565b80156107ce5780601f106107a3576101008083540402835291602001916107ce565b820191906000526020600020905b8154815290600101906020018083116107b157829003601f168201915b5050505050908060030180546107e3906122b3565b80601f016020809104026020016040519081016040528092919081815260200182805461080f906122b3565b801561085c5780601f106108315761010080835404028352916020019161085c565b820191906000526020600020905b81548152906001019060200180831161083f57829003601f168201915b505050505090806004015490806005018054610877906122b3565b80601f01602080910402602001604051908101604052809291908181526020018280546108a3906122b3565b80156108f05780601f106108c5576101008083540402835291602001916108f0565b820191906000526020600020905b8154815290600101906020018083116108d357829003601f168201915b5050505050908060060154908060070154908060080160009054906101000a900460ff16908060080160019054906101000a900473ffffffffffffffffffffffffffffffffffffffff16908060090160009054906101000a900473ffffffffffffffffffffffffffffffffffffffff169080600a015490508c565b600460009054906101000a900473ffffffffffffffffffffffffffffffffffffffff1681565b60008160035481106109a257600080fd5b60008084815260200190815260200160002060080160009054906101000a900460ff16915050919050565b6000806002811115610a08577f4e487b7100000000000000000000000000000000000000000000000000000000600052602160045260246000fd5b600260149054906101000a900460ff166002811115610a50577f4e487b7100000000000000000000000000000000000000000000000000000000600052602160045260246000fd5b14610a90576040517f08c379a0000000000000000000000000000000000000000000000000000000008152600401610a8790611fd5565b60405180910390fd5b6000806000848152602001908152602001600020905060006002811115610ae0577f4e487b7100000000000000000000000000000000000000000000000000000000600052602160045260246000fd5b8160080160009054906101000a900460ff166002811115610b2a577f4e487b7100000000000000000000000000000000000000000000000000000000600052602160045260246000fd5b14610b6a576040517f08c379a0000000000000000000000000000000000000000000000000000000008152600401610b6190612035565b60405180910390fd5b80600a0154341015610bb1576040517f08c379a0000000000000000000000000000000000000000000000000000000008152600401610ba890611fb5565b60405180910390fd5b3373ffffffffffffffffffffffffffffffffffffffff168160080160019054906101000a900473ffffffffffffffffffffffffffffffffffffffff1673ffffffffffffffffffffffffffffffffffffffff161415610c44576040517f08c379a0000000000000000000000000000000000000000000000000000000008152600401610c3b90611f75565b60405180910390fd5b8060080160019054906101000a900473ffffffffffffffffffffffffffffffffffffffff1673ffffffffffffffffffffffffffffffffffffffff166108fc82600a01549081150290604051600060405180830381858888f19350505050158015610cb2573d6000803e3d6000fd5b50338160080160016101000a81548173ffffffffffffffffffffffffffffffffffffffff021916908373ffffffffffffffffffffffffffffffffffffffff16021790555060018160080160006101000a81548160ff02191690836002811115610d44577f4e487b7100000000000000000000000000000000000000000000000000000000600052602160045260246000fd5b021790555060018060003373ffffffffffffffffffffffffffffffffffffffff1673ffffffffffffffffffffffffffffffffffffffff168152602001908152602001600020600085815260200190815260200160002060006101000a81548160ff0219169083151502179055503373ffffffffffffffffffffffffffffffffffffffff16837f913d09b391f64143215d9312fd7e8ecaa06001c646789c9d2109dc515bc34fad83600a0154604051610dfc9190612055565b60405180910390a3505050565b6000816003548110610e1a57600080fd5b60008084815260200190815260200160002060060154915050919050565b6000816003548110610e4957600080fd5b60008084815260200190815260200160002060070154915050919050565b6000816003548110610e7857600080fd5b60008084815260200190815260200160002060010154915050919050565b60035481565b60016020528160005260406000206020528060005260406000206000915091509054906101000a900460ff1681565b6060816003548110610edc57600080fd5b6000808481526020019081526020016000206005018054610efc906122b3565b80601f0160208091040260200160405190810160405280929190818152602001828054610f28906122b3565b8015610f755780601f10610f4a57610100808354040283529160200191610f75565b820191906000526020600020905b815481529060010190602001808311610f5857829003601f168201915b5050505050915050919050565b80600260009054906101000a900473ffffffffffffffffffffffffffffffffffffffff1673ffffffffffffffffffffffffffffffffffffffff166370a08231336040518263ffffffff1660e01b8152600401610fde9190611ecc565b60206040518083038186803b158015610ff657600080fd5b505afa15801561100a573d6000803e3d6000fd5b505050506040513d601f19601f8201168201806040525081019061102e9190611a59565b101561106f576040517f08c379a000000000000000000000000000000000000000000000000000000000815260040161106690611ff5565b60405180910390fd5b60036000815480929190611082906122e5565b91905055506040518061018001604052806003548152602001898152602001888152602001878152602001868152602001858152602001848152602001838152602001600060028111156110ff577f4e487b7100000000000000000000000000000000000000000000000000000000600052602160045260246000fd5b81526020013373ffffffffffffffffffffffffffffffffffffffff1681526020013373ffffffffffffffffffffffffffffffffffffffff168152602001828152506000806003548152602001908152602001600020600082015181600001556020820151816001015560408201518160020190805190602001906111849291906118aa565b5060608201518160030190805190602001906111a19291906118aa565b506080820151816004015560a08201518160050190805190602001906111c89291906118aa565b5060c0820151816006015560e082015181600701556101008201518160080160006101000a81548160ff0219169083600281111561122f577f4e487b7100000000000000000000000000000000000000000000000000000000600052602160045260246000fd5b02179055506101208201518160080160016101000a81548173ffffffffffffffffffffffffffffffffffffffff021916908373ffffffffffffffffffffffffffffffffffffffff1602179055506101408201518160090160006101000a81548173ffffffffffffffffffffffffffffffffffffffff021916908373ffffffffffffffffffffffffffffffffffffffff16021790555061016082015181600a015590505060018060003373ffffffffffffffffffffffffffffffffffffffff1673ffffffffffffffffffffffffffffffffffffffff1681526020019081526020016000206000600354815260200190815260200160002060006101000a81548160ff0219169083151502179055506003543373ffffffffffffffffffffffffffffffffffffffff167f2a91574e12ad96234e84923e146b0946ecfb871cd8d5534dc1fdcbe87a7c01b3836040516113859190612055565b60405180910390a35050505050505050565b60608160035481106113a857600080fd5b60008084815260200190815260200160002060030180546113c8906122b3565b80601f01602080910402602001604051908101604052809291908181526020018280546113f4906122b3565b80156114415780601f1061141657610100808354040283529160200191611441565b820191906000526020600020905b81548152906001019060200180831161142457829003601f168201915b5050505050915050919050565b600081600354811061145f57600080fd5b60008084815260200190815260200160002060080160019054906101000a900473ffffffffffffffffffffffffffffffffffffffff16915050919050565b60008060028111156114d8577f4e487b7100000000000000000000000000000000000000000000000000000000600052602160045260246000fd5b600260149054906101000a900460ff166002811115611520577f4e487b7100000000000000000000000000000000000000000000000000000000600052602160045260246000fd5b14611560576040517f08c379a000000000000000000000000000000000000000000000000000000000815260040161155790611fd5565b60405180910390fd5b600160003373ffffffffffffffffffffffffffffffffffffffff1673ffffffffffffffffffffffffffffffffffffffff168152602001908152602001600020600084815260200190815260200160002060009054906101000a900460ff166115fd576040517f08c379a00000000000000000000000000000000000000000000000000000000081526004016115f490611f95565b60405180910390fd5b60006002811115611637577f4e487b7100000000000000000000000000000000000000000000000000000000600052602160045260246000fd5b60008085815260200190815260200160002060080160009054906101000a900460ff166002811115611692577f4e487b7100000000000000000000000000000000000000000000000000000000600052602160045260246000fd5b146116d2576040517f08c379a00000000000000000000000000000000000000000000000000000000081526004016116c990612015565b60405180910390fd5b81600080858152602001908152602001600020600a0181905550827fb8b45d9675f62a0686f7f8125bcd3b3392cbbe36ef7e5300d009abcc382e910e8360405161171c9190612055565b60405180910390a2505050565b600260009054906101000a900473ffffffffffffffffffffffffffffffffffffffff1681565b600081600354811061176057600080fd5b60008084815260200190815260200160002060000154915050919050565b600081600354811061178f57600080fd5b600080848152602001908152602001600020600a0154915050919050565b60008160035481106117be57600080fd5b60008084815260200190815260200160002060090160009054906101000a900473ffffffffffffffffffffffffffffffffffffffff16915050919050565b60008060008581526020019081526020016000209050828160080160016101000a81548173ffffffffffffffffffffffffffffffffffffffff021916908373ffffffffffffffffffffffffffffffffffffffff1602179055508273ffffffffffffffffffffffffffffffffffffffff16847f913d09b391f64143215d9312fd7e8ecaa06001c646789c9d2109dc515bc34fad8460405161189c9190612055565b60405180910390a350505050565b8280546118b6906122b3565b90600052602060002090601f0160209004810192826118d8576000855561191f565b82601f106118f157805160ff191683800117855561191f565b8280016001018555821561191f579182015b8281111561191e578251825591602001919060010190611903565b5b50905061192c9190611930565b5090565b5b80821115611949576000816000905550600101611931565b5090565b600061196061195b84612170565b61213f565b90508281526020810184848401111561197857600080fd5b611983848285612271565b509392505050565b60008135905061199a8161240f565b92915050565b600082601f8301126119b157600080fd5b81356119c184826020860161194d565b91505092915050565b6000813590506119d981612426565b92915050565b6000815190506119ee81612426565b92915050565b60008060408385031215611a0757600080fd5b6000611a158582860161198b565b9250506020611a26858286016119ca565b9150509250929050565b600060208284031215611a4257600080fd5b6000611a50848285016119ca565b91505092915050565b600060208284031215611a6b57600080fd5b6000611a79848285016119df565b91505092915050565b600080600060608486031215611a9757600080fd5b6000611aa5868287016119ca565b9350506020611ab68682870161198b565b9250506040611ac7868287016119ca565b9150509250925092565b600080600080600080600080610100898b031215611aee57600080fd5b6000611afc8b828c016119ca565b985050602089013567ffffffffffffffff811115611b1957600080fd5b611b258b828c016119a0565b975050604089013567ffffffffffffffff811115611b4257600080fd5b611b4e8b828c016119a0565b9650506060611b5f8b828c016119ca565b955050608089013567ffffffffffffffff811115611b7c57600080fd5b611b888b828c016119a0565b94505060a0611b998b828c016119ca565b93505060c0611baa8b828c016119ca565b92505060e0611bbb8b828c016119ca565b9150509295985092959890939650565b60008060408385031215611bde57600080fd5b6000611bec858286016119ca565b9250506020611bfd858286016119ca565b9150509250929050565b611c10816121bc565b82525050565b611c1f816121ce565b82525050565b611c2e81612217565b82525050565b611c3d8161223b565b82525050565b611c4c8161225f565b82525050565b6000611c5d826121a0565b611c6781856121ab565b9350611c77818560208601612280565b611c80816123ea565b840191505092915050565b6000611c98601b836121ab565b91507f596f7520616c7265616479206f776e2074686973207469636b657400000000006000830152602082019050919050565b6000611cd86019836121ab565b91507f596f7520646f6e2774206f776e2074686973207469636b6574000000000000006000830152602082019050919050565b6000611d186012836121ab565b91507f496e73756666696369656e742066756e647300000000000000000000000000006000830152602082019050919050565b6000611d58602b836121ab565b91507f5469636b65742061742077726f6e672073746174652c20616374696f6e206e6f60008301527f7420706572666f726d65640000000000000000000000000000000000000000006020830152604082019050919050565b6000611dbe6020836121ab565b91507f496e73756666696369656e74205469636b6574546f6b656e2062616c616e63656000830152602082019050919050565b6000611dfe6021836121ab565b91507f5469636b6574206973206e6f7420656c696769626c6520666f7220726573616c60008301527f65000000000000000000000000000000000000000000000000000000000000006020830152604082019050919050565b6000611e646024836121ab565b91507f5469636b6574206973206e6f7420617661696c61626c6520666f72207075726360008301527f68617365000000000000000000000000000000000000000000000000000000006020830152604082019050919050565b611ec68161220d565b82525050565b6000602082019050611ee16000830184611c07565b92915050565b6000602082019050611efc6000830184611c16565b92915050565b6000602082019050611f176000830184611c25565b92915050565b6000602082019050611f326000830184611c34565b92915050565b6000602082019050611f4d6000830184611c43565b92915050565b60006020820190508181036000830152611f6d8184611c52565b905092915050565b60006020820190508181036000830152611f8e81611c8b565b9050919050565b60006020820190508181036000830152611fae81611ccb565b9050919050565b60006020820190508181036000830152611fce81611d0b565b9050919050565b60006020820190508181036000830152611fee81611d4b565b9050919050565b6000602082019050818103600083015261200e81611db1565b9050919050565b6000602082019050818103600083015261202e81611df1565b9050919050565b6000602082019050818103600083015261204e81611e57565b9050919050565b600060208201905061206a6000830184611ebd565b92915050565b600061018082019050612086600083018f611ebd565b612093602083018e611ebd565b81810360408301526120a5818d611c52565b905081810360608301526120b9818c611c52565b90506120c8608083018b611ebd565b81810360a08301526120da818a611c52565b90506120e960c0830189611ebd565b6120f660e0830188611ebd565b612104610100830187611c43565b612112610120830186611c07565b612120610140830185611c07565b61212e610160830184611ebd565b9d9c50505050505050505050505050565b6000604051905081810181811067ffffffffffffffff82111715612166576121656123bb565b5b8060405250919050565b600067ffffffffffffffff82111561218b5761218a6123bb565b5b601f19601f8301169050602081019050919050565b600081519050919050565b600082825260208201905092915050565b60006121c7826121ed565b9050919050565b60008115159050919050565b60008190506121e8826123fb565b919050565b600073ffffffffffffffffffffffffffffffffffffffff82169050919050565b6000819050919050565b600061222282612229565b9050919050565b6000612234826121ed565b9050919050565b60006122468261224d565b9050919050565b6000612258826121ed565b9050919050565b600061226a826121da565b9050919050565b82818337600083830152505050565b60005b8381101561229e578082015181840152602081019050612283565b838111156122ad576000848401525b50505050565b600060028204905060018216806122cb57607f821691505b602082108114156122df576122de61238c565b5b50919050565b60006122f08261220d565b91507fffffffffffffffffffffffffffffffffffffffffffffffffffffffffffffffff8214156123235761232261232e565b5b600182019050919050565b7f4e487b7100000000000000000000000000000000000000000000000000000000600052601160045260246000fd5b7f4e487b7100000000000000000000000000000000000000000000000000000000600052602160045260246000fd5b7f4e487b7100000000000000000000000000000000000000000000000000000000600052602260045260246000fd5b7f4e487b7100000000000000000000000000000000000000000000000000000000600052604160045260246000fd5b6000601f19601f8301169050919050565b6003811061240c5761240b61235d565b5b50565b612418816121bc565b811461242357600080fd5b50565b61242f8161220d565b811461243a57600080fd5b5056fea264697066735822122018fd987b3118d9588e2bff69158078149dd30e20d93299b3c40e8827572372df64736f6c63430008000033",
  "immutableReferences": {},
  "source": "// SPDX-License-Identifier: MIT \npragma solidity ^0.8.0;\n\nimport \"./ERC20.sol\";\nimport \"./TicketToken.sol\";\n\ncontract Ticket {\n\n    // Different states of the ticket\n    enum TicketState {\n        Active,            // Active = the ticket still not used, can be resold\n        Redeemed,          // Redeemed = the ticket is redeemed, cannot be resold\n        Frozen             // Frozen = the concert has ended, ticket is frozen, cannot be resold\n    }\n\n    struct ticket {\n        uint256 ticketId;\n        uint256 concertId;\n        string concertName;\n        string concertVenue;\n        uint256 concertDate;\n        string ticketCategory;\n        uint256 ticketSectionNo;\n        uint256 ticketSeatNo;\n        TicketState ticketState;\n        address owner;\n        address prevOwner;\n        uint256 price; // New field to store ticket price\n    }\n\n    mapping(uint256 => ticket) public tickets;\n    mapping(address => mapping(uint256 => bool)) public ownedTickets;\n\n    TicketToken public ticketToken;\n    TicketState public ticketState;\n    uint256 public ticketCounter = 0;\n    address public organizer;\n    ERC20 public detToken;\n\n    event TicketPurchased(address indexed buyer, uint256 indexed ticketId, uint256 price);\n    event TicketListedForSale(uint256 indexed ticketId, uint256 price);\n    event TicketBought(uint256 indexed ticketId, address indexed buyer, uint256 price);\n    event TicketRedeemed(uint256 indexed ticketId, address indexed redeemer);\n\n    constructor(address _ticketToken) {\n    organizer = msg.sender;\n    ticketToken = TicketToken(_ticketToken);\n    ticketState = TicketState.Active; // Initialize ticketState\n    }\n\n    function purchaseTicket(\n            uint256 _concertId,\n            string memory _concertName,\n            string memory _concertVenue,\n            uint256 _concertDate,\n            string memory _ticketCategory,\n            uint256 _ticketSectionNo,\n            uint256 _ticketSeatNo,\n            uint256 _price\n        ) external {\n            require(ticketToken.balanceOf(msg.sender) >= _price, \"Insufficient TicketToken balance\");\n\n            ticketCounter++;\n            tickets[ticketCounter] = ticket({\n                ticketId: ticketCounter,\n                concertId: _concertId,\n                concertName: _concertName,\n                concertVenue: _concertVenue,\n                concertDate: _concertDate,\n                ticketCategory: _ticketCategory,\n                ticketSectionNo: _ticketSectionNo,\n                ticketSeatNo: _ticketSeatNo,\n                ticketState: TicketState.Active,\n                owner: msg.sender,\n                prevOwner: msg.sender,\n                price: _price\n            });\n            ownedTickets[msg.sender][ticketCounter] = true;\n            //ticketToken.transferFrom(msg.sender, address(this), _price); // Transfer TicketToken from buyer to Ticket contract\n            emit TicketPurchased(msg.sender, ticketCounter, _price);\n        }\n\n    // Function Modifiers\n\n    modifier onlyOrganizer() {\n        require( msg.sender == organizer, \"Only the concert organizer can call this function\");\n        _;\n    }\n\n    // Modifier to ensure and check the ticketState\n    modifier atState(TicketState _state) {\n        require(ticketState == _state, \"Ticket at wrong state, action not performed\");\n        _;\n    }\n\n    // Modifier to ensure that the ticketId is valid doesn't exceed count of total tickets (ticketCounter) \n    modifier validTicketId(uint256 ticketId) {\n        require(ticketId < ticketCounter);\n        _;\n    }\n\n    function listTicketForSale(uint256 _ticketId, uint256 _price) atState(TicketState.Active) external {\n        require(ownedTickets[msg.sender][_ticketId], \"You don't own this ticket\");\n        require(tickets[_ticketId].ticketState == TicketState.Active, \"Ticket is not eligible for resale\");\n        tickets[_ticketId].price = _price;\n        emit TicketListedForSale(_ticketId, _price);\n    }\n\n    function buyTicket(uint256 _ticketId) atState(TicketState.Active) external payable {\n        ticket storage ticketBuy = tickets[_ticketId]; // Correct variable declaration\n\n        require(ticketBuy.ticketState == TicketState.Active, \"Ticket is not available for purchase\");\n        require(msg.value >= ticketBuy.price, \"Insufficient funds\");\n        require(ticketBuy.owner != msg.sender, \"You already own this ticket\");\n        payable(ticketBuy.owner).transfer(ticketBuy.price); // Transfer funds to seller using payable address\n        ticketBuy.owner = msg.sender;\n        ticketBuy.ticketState = TicketState.Redeemed;\n        ownedTickets[msg.sender][_ticketId] = true;\n        emit TicketBought(_ticketId, msg.sender, ticketBuy.price);\n    }\n\n    /*function redeemTicket(uint256 _ticketId) atState(TicketState.Active) external {\n        require(ownedTickets[msg.sender][_ticketId], \"You don't own this ticket\");\n        ticket storage ticketRedeem = tickets[_ticketId]; // Correct variable declaration\n\n        // Once the ticket is redeemed, the ticketState is then set to \"Redeemed\"\n        ticketRedeem.ticketState = TicketState.Redeemed;\n        detToken.transfer(msg.sender, calculateDETSReward(ticketRedeem.ticketCategory)); // Transfer tokens using ERC20 contract instance\n        emit TicketRedeemed(_ticketId, msg.sender);\n    }*/\n\n    /*function calculateDETSReward(\n        string memory _ticketCategory\n    ) internal view returns (uint256) {\n        // You can implement your logic for calculating DETS reward based on ticket category here\n        // For demonstration purposes, let's assume a fixed reward for simplicity\n        uint256 reward = 100; // Arbitrary value, you should adjust it according to your requirement\n        return reward;\n    }*/\n\n    // Getter Functions for Ticket attributes\n\n    function getTicketId(uint256 ticketId) public view validTicketId(ticketId) returns (uint256) {\n        return tickets[ticketId].ticketId;\n    }\n\n    function getConcertId(uint256 ticketId) public view validTicketId(ticketId) returns (uint256) {\n        return tickets[ticketId].concertId;\n    }\n\n    function getConcertName(uint256 ticketId) public view validTicketId(ticketId) returns (string memory) {\n        return tickets[ticketId].concertName;\n    }\n\n    function getConcertVenue(uint256 ticketId) public view validTicketId(ticketId) returns (string memory) {\n        return tickets[ticketId].concertVenue;\n    }\n\n    function getConcertDate(uint256 ticketId) public view validTicketId(ticketId) returns (uint256) {\n        return tickets[ticketId].concertDate;\n    }\n\n    function getTicketCategory(uint256 ticketId) public view validTicketId(ticketId) returns (string memory) {\n        return tickets[ticketId].ticketCategory;\n    }\n\n    function getTicketSectionNo(uint256 ticketId) public view validTicketId(ticketId) returns (uint256) {\n        return tickets[ticketId].ticketSectionNo;\n    }\n\n    function getTicketSeatNo(uint256 ticketId) public view validTicketId(ticketId) returns (uint256) {\n        return tickets[ticketId].ticketSeatNo;\n    }\n\n    function getTicketState(uint256 ticketId) public view validTicketId(ticketId) returns (TicketState) {\n        return tickets[ticketId].ticketState;\n    }\n\n    function getOwner(uint256 ticketId) public view validTicketId(ticketId) returns (address) {\n        return tickets[ticketId].owner;\n    }\n\n    function getPrevOwner(uint256 ticketId) public view validTicketId(ticketId) returns (address) {\n        return tickets[ticketId].prevOwner;\n    }\n\n    function getPrice(uint256 ticketId) public view validTicketId(ticketId) returns (uint256) {\n        return tickets[ticketId].price;\n    }\n\n    function transfer(uint256 ticketId, address newOwner, uint256 price) payable public {\n        ticket storage ticketTrans = tickets[ticketId];\n        ticketTrans.owner = newOwner;\n        emit TicketBought(ticketId, newOwner, price);\n    }\n}\n",
  "sourcePath": "C:\\Users\\hp\\Desktop\\IS4302\\Decentralized-Event-Ticketing-System\\IS4302-Decentralized-Event-Ticketing-System\\contracts\\Ticket.sol",
  "compiler": {
    "name": "solc",
    "version": "0.8.0+commit.c7dfd78e.Emscripten.clang"
  },
  "schemaVersion": "3.4.16",
  "updatedAt": "2024-03-20T14:02:09.091Z",
  "devdoc": {
    "kind": "dev",
    "methods": {},
    "version": 1
  },
  "userdoc": {
    "kind": "user",
    "methods": {},
    "version": 1
  }
}