{
  "contractName": "TicketMarket",
  "abi": [
    {
      "inputs": [
        {
          "internalType": "contract Ticket",
          "name": "ticketAddress",
          "type": "address"
        },
        {
          "internalType": "contract LoyaltyPoints",
          "name": "loyaltyPointsAddress",
          "type": "address"
        },
        {
          "internalType": "uint256",
          "name": "fee",
          "type": "uint256"
        }
      ],
      "stateMutability": "nonpayable",
      "type": "constructor"
    },
    {
      "anonymous": false,
      "inputs": [
        {
          "indexed": false,
          "internalType": "uint256",
          "name": "ticketId",
          "type": "uint256"
        },
        {
          "indexed": false,
          "internalType": "uint256",
          "name": "price",
          "type": "uint256"
        }
      ],
      "name": "TicketListed",
      "type": "event"
    },
    {
      "anonymous": false,
      "inputs": [
        {
          "indexed": true,
          "internalType": "uint256",
          "name": "ticketId",
          "type": "uint256"
        },
        {
          "indexed": true,
          "internalType": "address",
          "name": "redeemer",
          "type": "address"
        }
      ],
      "name": "TicketRedeemed",
      "type": "event"
    },
    {
      "anonymous": false,
      "inputs": [
        {
          "indexed": false,
          "internalType": "uint256",
          "name": "ticketId",
          "type": "uint256"
        },
        {
          "indexed": false,
          "internalType": "address",
          "name": "buyer",
          "type": "address"
        },
        {
          "indexed": false,
          "internalType": "uint256",
          "name": "price",
          "type": "uint256"
        }
      ],
      "name": "TicketSold",
      "type": "event"
    },
    {
      "anonymous": false,
      "inputs": [
        {
          "indexed": true,
          "internalType": "uint256",
          "name": "id",
          "type": "uint256"
        },
        {
          "indexed": false,
          "internalType": "address",
          "name": "from",
          "type": "address"
        },
        {
          "indexed": false,
          "internalType": "address",
          "name": "to",
          "type": "address"
        },
        {
          "indexed": false,
          "internalType": "uint256",
          "name": "price",
          "type": "uint256"
        }
      ],
      "name": "TicketTransferred",
      "type": "event"
    },
    {
      "anonymous": false,
      "inputs": [
        {
          "indexed": false,
          "internalType": "uint256",
          "name": "ticketId",
          "type": "uint256"
        }
      ],
      "name": "TicketUnlisted",
      "type": "event"
    },
    {
      "inputs": [],
      "name": "commissionFee",
      "outputs": [
        {
          "internalType": "uint256",
          "name": "",
          "type": "uint256"
        }
      ],
      "stateMutability": "view",
      "type": "function"
    },
    {
      "inputs": [
        {
          "internalType": "uint256",
          "name": "",
          "type": "uint256"
        }
      ],
      "name": "listPrice",
      "outputs": [
        {
          "internalType": "uint256",
          "name": "",
          "type": "uint256"
        }
      ],
      "stateMutability": "view",
      "type": "function"
    },
    {
      "inputs": [],
      "name": "loyaltyPoints",
      "outputs": [
        {
          "internalType": "contract LoyaltyPoints",
          "name": "",
          "type": "address"
        }
      ],
      "stateMutability": "view",
      "type": "function"
    },
    {
      "inputs": [],
      "name": "ticketContract",
      "outputs": [
        {
          "internalType": "contract Ticket",
          "name": "",
          "type": "address"
        }
      ],
      "stateMutability": "view",
      "type": "function"
    },
    {
      "inputs": [
        {
          "internalType": "uint256",
          "name": "ticketId",
          "type": "uint256"
        },
        {
          "internalType": "uint256",
          "name": "price",
          "type": "uint256"
        }
      ],
      "name": "list",
      "outputs": [],
      "stateMutability": "nonpayable",
      "type": "function"
    },
    {
      "inputs": [
        {
          "internalType": "uint256",
          "name": "ticketId",
          "type": "uint256"
        }
      ],
      "name": "unlist",
      "outputs": [],
      "stateMutability": "nonpayable",
      "type": "function"
    },
    {
      "inputs": [
        {
          "internalType": "uint256",
          "name": "ticketId",
          "type": "uint256"
        }
      ],
      "name": "redeemInTicketMarket",
      "outputs": [],
      "stateMutability": "nonpayable",
      "type": "function"
    },
    {
      "inputs": [
        {
          "internalType": "uint256",
          "name": "ticketId",
          "type": "uint256"
        }
      ],
      "name": "getTicketPrice",
      "outputs": [
        {
          "internalType": "uint256",
          "name": "",
          "type": "uint256"
        }
      ],
      "stateMutability": "view",
      "type": "function"
    },
    {
      "inputs": [],
      "name": "getCommission",
      "outputs": [
        {
          "internalType": "uint256",
          "name": "",
          "type": "uint256"
        }
      ],
      "stateMutability": "view",
      "type": "function"
    },
    {
      "inputs": [
        {
          "internalType": "uint256",
          "name": "ticketId",
          "type": "uint256"
        }
      ],
      "name": "buy",
      "outputs": [],
      "stateMutability": "payable",
      "type": "function"
    },
    {
      "inputs": [
        {
          "internalType": "uint256",
          "name": "id",
          "type": "uint256"
        }
      ],
      "name": "checkPrice",
      "outputs": [
        {
          "internalType": "uint256",
          "name": "",
          "type": "uint256"
        }
      ],
      "stateMutability": "view",
      "type": "function"
    }
  ],
  "bytecode": "0x6080604052336000806101000a81548173ffffffffffffffffffffffffffffffffffffffff021916908373ffffffffffffffffffffffffffffffffffffffff1602179055503480156200005157600080fd5b5060405162001d3538038062001d3583398181016040528101906200007791906200014e565b82600260006101000a81548173ffffffffffffffffffffffffffffffffffffffff021916908373ffffffffffffffffffffffffffffffffffffffff16021790555081600360006101000a81548173ffffffffffffffffffffffffffffffffffffffff021916908373ffffffffffffffffffffffffffffffffffffffff1602179055508060018190555050505062000258565b6000815190506200011a816200020a565b92915050565b600081519050620001318162000224565b92915050565b60008151905062000148816200023e565b92915050565b6000806000606084860312156200016457600080fd5b6000620001748682870162000120565b9350506020620001878682870162000109565b92505060406200019a8682870162000137565b9150509250925092565b6000620001b182620001e0565b9050919050565b6000620001c582620001a4565b9050919050565b6000620001d982620001a4565b9050919050565b600073ffffffffffffffffffffffffffffffffffffffff82169050919050565b6000819050919050565b6200021581620001b8565b81146200022157600080fd5b50565b6200022f81620001cc565b81146200023b57600080fd5b50565b620002498162000200565b81146200025557600080fd5b50565b611acd80620002686000396000f3fe60806040526004361061009c5760003560e01c806387d81f7c1161006457806387d81f7c14610186578063956a20ea146101c3578063bf5a4dd3146101ee578063d96a094a14610217578063e65d6b4914610233578063f06fc9611461025e5761009c565b80630fc91a0c146100a15780631de7463a146100ca57806350fd73671461010757806358a86e1d146101305780636fb1eb0c1461015b575b600080fd5b3480156100ad57600080fd5b506100c860048036038101906100c3919061125e565b61029b565b005b3480156100d657600080fd5b506100f160048036038101906100ec919061125e565b61070e565b6040516100fe9190611768565b60405180910390f35b34801561011357600080fd5b5061012e600480360381019061012991906112b0565b61072b565b005b34801561013c57600080fd5b50610145610ac0565b604051610152919061162d565b60405180910390f35b34801561016757600080fd5b50610170610ae6565b60405161017d9190611768565b60405180910390f35b34801561019257600080fd5b506101ad60048036038101906101a8919061125e565b610aec565b6040516101ba9190611768565b60405180910390f35b3480156101cf57600080fd5b506101d8610b04565b6040516101e59190611612565b60405180910390f35b3480156101fa57600080fd5b506102156004803603810190610210919061125e565b610b2a565b005b610231600480360381019061022c919061125e565b610dc0565b005b34801561023f57600080fd5b50610248611191565b6040516102559190611768565b60405180910390f35b34801561026a57600080fd5b506102856004803603810190610280919061125e565b61119b565b6040516102929190611768565b60405180910390f35b3373ffffffffffffffffffffffffffffffffffffffff16600260009054906101000a900473ffffffffffffffffffffffffffffffffffffffff1673ffffffffffffffffffffffffffffffffffffffff1663c41a360a836040518263ffffffff1660e01b815260040161030d9190611768565b60206040518083038186803b15801561032557600080fd5b505afa158015610339573d6000803e3d6000fd5b505050506040513d601f19601f8201168201806040525081019061035d919061120c565b73ffffffffffffffffffffffffffffffffffffffff16146103b3576040517f08c379a00000000000000000000000000000000000000000000000000000000081526004016103aa906116e8565b60405180910390fd5b6000600260009054906101000a900473ffffffffffffffffffffffffffffffffffffffff1673ffffffffffffffffffffffffffffffffffffffff166316c15c0c836040518263ffffffff1660e01b81526004016104109190611768565b60206040518083038186803b15801561042857600080fd5b505afa15801561043c573d6000803e3d6000fd5b505050506040513d601f19601f820116820180604052508101906104609190611287565b905080421015801561047f5750620151808161047c91906117f4565b42105b6104be576040517f08c379a00000000000000000000000000000000000000000000000000000000081526004016104b590611728565b60405180910390fd5b600260009054906101000a900473ffffffffffffffffffffffffffffffffffffffff1673ffffffffffffffffffffffffffffffffffffffff166332d33cd0836040518263ffffffff1660e01b81526004016105199190611768565b60206040518083038186803b15801561053157600080fd5b505afa158015610545573d6000803e3d6000fd5b505050506040513d601f19601f820116820180604052508101906105699190611235565b156105a9576040517f08c379a00000000000000000000000000000000000000000000000000000000081526004016105a0906116c8565b60405180910390fd5b600260009054906101000a900473ffffffffffffffffffffffffffffffffffffffff1673ffffffffffffffffffffffffffffffffffffffff166315f59d7f836040518263ffffffff1660e01b81526004016106049190611768565b600060405180830381600087803b15801561061e57600080fd5b505af1158015610632573d6000803e3d6000fd5b50505050600360009054906101000a900473ffffffffffffffffffffffffffffffffffffffff1673ffffffffffffffffffffffffffffffffffffffff1663e78622f033600a6040518363ffffffff1660e01b81526004016106949291906115e9565b600060405180830381600087803b1580156106ae57600080fd5b505af11580156106c2573d6000803e3d6000fd5b505050503373ffffffffffffffffffffffffffffffffffffffff16827f716bb19bdc2c35c51f08204334d6e0362bbe5428bbda94d186a1f2c8fa87b10c60405160405180910390a35050565b600060046000838152602001908152602001600020549050919050565b600154600260009054906101000a900473ffffffffffffffffffffffffffffffffffffffff1673ffffffffffffffffffffffffffffffffffffffff1663e7572230846040518263ffffffff1660e01b81526004016107899190611768565b60206040518083038186803b1580156107a157600080fd5b505afa1580156107b5573d6000803e3d6000fd5b505050506040513d601f19601f820116820180604052508101906107d99190611287565b6107e391906117f4565b811015610825576040517f08c379a000000000000000000000000000000000000000000000000000000000815260040161081c90611708565b60405180910390fd5b60056006600260009054906101000a900473ffffffffffffffffffffffffffffffffffffffff1673ffffffffffffffffffffffffffffffffffffffff1663e7572230856040518263ffffffff1660e01b81526004016108849190611768565b60206040518083038186803b15801561089c57600080fd5b505afa1580156108b0573d6000803e3d6000fd5b505050506040513d601f19601f820116820180604052508101906108d49190611287565b6108de919061187b565b6108e8919061184a565b81111561092a576040517f08c379a000000000000000000000000000000000000000000000000000000000815260040161092190611688565b60405180910390fd5b600260009054906101000a900473ffffffffffffffffffffffffffffffffffffffff1673ffffffffffffffffffffffffffffffffffffffff1663c41a360a836040518263ffffffff1660e01b81526004016109859190611768565b60206040518083038186803b15801561099d57600080fd5b505afa1580156109b1573d6000803e3d6000fd5b505050506040513d601f19601f820116820180604052508101906109d5919061120c565b73ffffffffffffffffffffffffffffffffffffffff163373ffffffffffffffffffffffffffffffffffffffff1614610a42576040517f08c379a0000000000000000000000000000000000000000000000000000000008152600401610a3990611668565b60405180910390fd5b7fbca2f6391cafd6d28d39261ba883dd74090c618befb806e74ef434778bb2f7ed8282604051610a739291906117ba565b60405180910390a180600460008481526020019081526020016000208190555060058290806001815401808255809150506001900390600052602060002001600090919091909150555050565b600260009054906101000a900473ffffffffffffffffffffffffffffffffffffffff1681565b60015481565b60046020528060005260406000206000915090505481565b600360009054906101000a900473ffffffffffffffffffffffffffffffffffffffff1681565b600260009054906101000a900473ffffffffffffffffffffffffffffffffffffffff1673ffffffffffffffffffffffffffffffffffffffff1663c41a360a826040518263ffffffff1660e01b8152600401610b859190611768565b60206040518083038186803b158015610b9d57600080fd5b505afa158015610bb1573d6000803e3d6000fd5b505050506040513d601f19601f82011682018060405250810190610bd5919061120c565b73ffffffffffffffffffffffffffffffffffffffff163373ffffffffffffffffffffffffffffffffffffffff1614610c0c57600080fd5b600060046000838152602001908152602001600020819055507fdb00f3044f762e640c77fdd12df2e7cf2b4c17de34f8995969a4d98b9904af4581604051610c549190611768565b60405180910390a160005b600580549050811015610dbc578160058281548110610ca7577f4e487b7100000000000000000000000000000000000000000000000000000000600052603260045260246000fd5b90600052602060002001541415610da95760056001600580549050610ccc91906118d5565b81548110610d03577f4e487b7100000000000000000000000000000000000000000000000000000000600052603260045260246000fd5b906000526020600020015460058281548110610d48577f4e487b7100000000000000000000000000000000000000000000000000000000600052603260045260246000fd5b90600052602060002001819055506005805480610d8e577f4e487b7100000000000000000000000000000000000000000000000000000000600052603160045260246000fd5b60019003818190600052602060002001600090559055610dbc565b8080610db4906119ab565b915050610c5f565b5050565b600060046000838152602001908152602001600020541415610e17576040517f08c379a0000000000000000000000000000000000000000000000000000000008152600401610e0e90611648565b60405180910390fd5b6004600082815260200190815260200160002054341015610e6d576040517f08c379a0000000000000000000000000000000000000000000000000000000008152600401610e64906116a8565b60405180910390fd5b600260009054906101000a900473ffffffffffffffffffffffffffffffffffffffff1673ffffffffffffffffffffffffffffffffffffffff1663c41a360a826040518263ffffffff1660e01b8152600401610ec89190611768565b60206040518083038186803b158015610ee057600080fd5b505afa158015610ef4573d6000803e3d6000fd5b505050506040513d601f19601f82011682018060405250810190610f18919061120c565b73ffffffffffffffffffffffffffffffffffffffff163373ffffffffffffffffffffffffffffffffffffffff161415610f86576040517f08c379a0000000000000000000000000000000000000000000000000000000008152600401610f7d90611748565b60405180910390fd5b6000600260009054906101000a900473ffffffffffffffffffffffffffffffffffffffff1673ffffffffffffffffffffffffffffffffffffffff1663c41a360a836040518263ffffffff1660e01b8152600401610fe39190611768565b60206040518083038186803b158015610ffb57600080fd5b505afa15801561100f573d6000803e3d6000fd5b505050506040513d601f19601f82011682018060405250810190611033919061120c565b905060006004600084815260200190815260200160002054905060006001548261105d91906118d5565b90508273ffffffffffffffffffffffffffffffffffffffff166108fc829081150290604051600060405180830381858888f193505050501580156110a5573d6000803e3d6000fd5b50600260009054906101000a900473ffffffffffffffffffffffffffffffffffffffff1673ffffffffffffffffffffffffffffffffffffffff1663f8548e368533856040518463ffffffff1660e01b815260040161110593929190611783565b600060405180830381600087803b15801561111f57600080fd5b505af1158015611133573d6000803e3d6000fd5b505050507fbce6612c87f6b5711225ffc4b9f920148cd399de49ba10137fe0d3c53133384184338460405161116a93929190611783565b60405180910390a16000600460008681526020019081526020016000208190555050505050565b6000600154905090565b600060046000838152602001908152602001600020549050919050565b6000815190506111c781611a52565b92915050565b6000815190506111dc81611a69565b92915050565b6000813590506111f181611a80565b92915050565b60008151905061120681611a80565b92915050565b60006020828403121561121e57600080fd5b600061122c848285016111b8565b91505092915050565b60006020828403121561124757600080fd5b6000611255848285016111cd565b91505092915050565b60006020828403121561127057600080fd5b600061127e848285016111e2565b91505092915050565b60006020828403121561129957600080fd5b60006112a7848285016111f7565b91505092915050565b600080604083850312156112c357600080fd5b60006112d1858286016111e2565b92505060206112e2858286016111e2565b9150509250929050565b6112f581611909565b82525050565b61130481611951565b82525050565b61131381611975565b82525050565b61132281611999565b82525050565b6000611335601e836117e3565b91507f5469636b6574206d757374206265206c697374656420666f722073616c6500006000830152602082019050919050565b6000611375601a836117e3565b91507f43616c6c6572206973206e6f74207469636b6574206f776e65720000000000006000830152602082019050919050565b60006113b56035836117e3565b91507f50726963652063616e6e6f74206265206d6f7265207468616e2032302520657860008301527f747261206f66206f726967696e616c20707269636500000000000000000000006020830152604082019050919050565b600061141b6014836117e3565b91507f496e73756666696369656e74207061796d656e740000000000000000000000006000830152602082019050919050565b600061145b6020836117e3565b91507f5469636b65742068617320616c7265616479206265656e2072656465656d65646000830152602082019050919050565b600061149b601a836117e3565b91507f596f7520646f206e6f74206f776e2074686973207469636b65740000000000006000830152602082019050919050565b60006114db6037836117e3565b91507f5072696365206d757374206265206174206c65617374207469636b657420707260008301527f69636520706c757320636f6d6d697373696f6e206665650000000000000000006020830152604082019050919050565b60006115416023836117e3565b91507f54686973207469636b65742063616e27742062652072656465656d656420746f60008301527f64617900000000000000000000000000000000000000000000000000000000006020830152604082019050919050565b60006115a7601d836117e3565b91507f427579657220616c7265616479206f776e7320746865207469636b65740000006000830152602082019050919050565b6115e381611947565b82525050565b60006040820190506115fe60008301856112ec565b61160b6020830184611319565b9392505050565b600060208201905061162760008301846112fb565b92915050565b6000602082019050611642600083018461130a565b92915050565b6000602082019050818103600083015261166181611328565b9050919050565b6000602082019050818103600083015261168181611368565b9050919050565b600060208201905081810360008301526116a1816113a8565b9050919050565b600060208201905081810360008301526116c18161140e565b9050919050565b600060208201905081810360008301526116e18161144e565b9050919050565b600060208201905081810360008301526117018161148e565b9050919050565b60006020820190508181036000830152611721816114ce565b9050919050565b6000602082019050818103600083015261174181611534565b9050919050565b600060208201905081810360008301526117618161159a565b9050919050565b600060208201905061177d60008301846115da565b92915050565b600060608201905061179860008301866115da565b6117a560208301856112ec565b6117b260408301846115da565b949350505050565b60006040820190506117cf60008301856115da565b6117dc60208301846115da565b9392505050565b600082825260208201905092915050565b60006117ff82611947565b915061180a83611947565b9250827fffffffffffffffffffffffffffffffffffffffffffffffffffffffffffffffff0382111561183f5761183e6119f4565b5b828201905092915050565b600061185582611947565b915061186083611947565b9250826118705761186f611a23565b5b828204905092915050565b600061188682611947565b915061189183611947565b9250817fffffffffffffffffffffffffffffffffffffffffffffffffffffffffffffffff04831182151516156118ca576118c96119f4565b5b828202905092915050565b60006118e082611947565b91506118eb83611947565b9250828210156118fe576118fd6119f4565b5b828203905092915050565b600061191482611927565b9050919050565b60008115159050919050565b600073ffffffffffffffffffffffffffffffffffffffff82169050919050565b6000819050919050565b600061195c82611963565b9050919050565b600061196e82611927565b9050919050565b600061198082611987565b9050919050565b600061199282611927565b9050919050565b60006119a482611947565b9050919050565b60006119b682611947565b91507fffffffffffffffffffffffffffffffffffffffffffffffffffffffffffffffff8214156119e9576119e86119f4565b5b600182019050919050565b7f4e487b7100000000000000000000000000000000000000000000000000000000600052601160045260246000fd5b7f4e487b7100000000000000000000000000000000000000000000000000000000600052601260045260246000fd5b611a5b81611909565b8114611a6657600080fd5b50565b611a728161191b565b8114611a7d57600080fd5b50565b611a8981611947565b8114611a9457600080fd5b5056fea2646970667358221220beec61aa10550a057e40c48d9ac8428cafded875027f85996d297b28b5b3616f64736f6c63430008000033",
  "immutableReferences": {},
  "source": "// SPDX-License-Identifier: MIT\r\npragma solidity ^0.8.0;\r\n\r\nimport \"./ERC20.sol\";\r\nimport \"./Ticket.sol\";\r\nimport \"./TicketToken.sol\";\r\nimport \"./PriorityQueue.sol\";\r\nimport \"./LoyaltyPoints.sol\";\r\n\r\ncontract TicketMarket {\r\n    address _owner = msg.sender;\r\n    uint256 public commissionFee;\r\n    Ticket public ticketContract;\r\n    LoyaltyPoints public loyaltyPoints;\r\n\r\n    // Mapping from ticket ID to listing price\r\n    mapping(uint256 => uint256) public listPrice;\r\n\r\n    uint256[] private listedTickets; // To track listed ticket IDs\r\n\r\n    // Event emitted when a ticket is listed for sale\r\n    event TicketListed(uint256 ticketId, uint256 price);\r\n    event TicketUnlisted(uint256 ticketId);\r\n    event TicketSold(uint256 ticketId, address buyer, uint256 price);\r\n\r\n    // Event emitted when a ticket is transferred\r\n    event TicketTransferred(\r\n        uint256 indexed id,\r\n        address from,\r\n        address to,\r\n        uint256 price\r\n    );\r\n\r\n    // Event emitted when a ticket is redeemed\r\n    event TicketRedeemed(uint256 indexed ticketId, address indexed redeemer);\r\n\r\n    constructor(Ticket ticketAddress, LoyaltyPoints loyaltyPointsAddress, uint256 fee) {\r\n        ticketContract = ticketAddress;\r\n        loyaltyPoints = loyaltyPointsAddress;\r\n        commissionFee = fee;\r\n    }\r\n\r\n    // List a ticket for sale. Price needs to be >= value + fee\r\n    function list(uint256 ticketId, uint256 price) public {\r\n        require(\r\n            price >= (ticketContract.getPrice(ticketId) + commissionFee),\r\n            \"Price must be at least ticket price plus commission fee\"\r\n        );\r\n\r\n        require(\r\n            price <= ((ticketContract.getPrice(ticketId) * 6) / 5),\r\n            \"Price cannot be more than 20% extra of original price\"\r\n        );\r\n        require(\r\n            msg.sender == ticketContract.getOwner(ticketId),\r\n            \"Caller is not ticket owner\"\r\n        );\r\n        emit TicketListed(ticketId, price);\r\n        listPrice[ticketId] = price;\r\n        listedTickets.push(ticketId); // Add ticket ID to the list of listed tickets\r\n    }\r\n\r\n    function unlist(uint256 ticketId) public {\r\n        require(msg.sender == ticketContract.getOwner(ticketId));\r\n        listPrice[ticketId] = 0;\r\n        emit TicketUnlisted(ticketId); // Emit event for ticket unlisting\r\n\r\n        // Find and remove the ticket ID from listedTickets array\r\n        for (uint256 i = 0; i < listedTickets.length; i++) {\r\n            if (listedTickets[i] == ticketId) {\r\n                // Move the last element to the current index\r\n                listedTickets[i] = listedTickets[listedTickets.length - 1];\r\n                // Remove the last element\r\n                listedTickets.pop();\r\n                break; // Exit the loop once the ticket ID is removed\r\n            }\r\n        }\r\n    }\r\n\r\n    // Redeem a ticket for an event\r\n    function redeemInTicketMarket(uint256 ticketId) external {\r\n        require(\r\n            ticketContract.getOwner(ticketId) == msg.sender,\r\n            \"You do not own this ticket\"\r\n        );\r\n\r\n        // Retrieve ticket details for verification\r\n        uint256 concertDate = ticketContract.getConcertDate(ticketId);\r\n\r\n        // Ensure the event is happening today\r\n        require(\r\n            block.timestamp >= concertDate &&\r\n                block.timestamp < concertDate + 1 days,\r\n            \"This ticket can't be redeemed today\"\r\n        );\r\n\r\n        // Check if the ticket has already been redeemed\r\n        require(\r\n            !ticketContract.isRedeemed(ticketId),\r\n            \"Ticket has already been redeemed\"\r\n        );\r\n\r\n        ticketContract.redeemTicket(ticketId);\r\n\r\n        // Award loyalty points\r\n        loyaltyPoints.addLoyaltyPoints(msg.sender, 10); // Awarding 10 loyalty points whenever the user redeems the ticket\r\n\r\n        emit TicketRedeemed(ticketId, msg.sender);\r\n    }\r\n\r\n    // Getter functions below\r\n\r\n    // Get price of ticket\r\n    function getTicketPrice(uint256 ticketId) public view returns (uint256) {\r\n        return listPrice[ticketId];\r\n    }\r\n\r\n    // Get the commission fee\r\n    function getCommission() public view returns (uint256) {\r\n        return commissionFee;\r\n    }\r\n\r\n    // Buy the ticket at the requested price\r\n    function buy(uint256 ticketId) public payable {\r\n        require(listPrice[ticketId] != 0, \"Ticket must be listed for sale\");\r\n        require(msg.value >= listPrice[ticketId], \"Insufficient payment\");\r\n        require(\r\n            msg.sender != ticketContract.getOwner(ticketId),\r\n            \"Buyer already owns the ticket\"\r\n        );\r\n\r\n        address payable recipient = payable(ticketContract.getOwner(ticketId));\r\n\r\n        uint256 resellPrice = listPrice[ticketId];\r\n        uint256 amountToTransfer = resellPrice - commissionFee;\r\n        recipient.transfer(amountToTransfer);\r\n\r\n        ticketContract.transfer(ticketId, msg.sender, resellPrice);\r\n\r\n        // Emit event for ticket purchase\r\n        emit TicketSold(ticketId, msg.sender, resellPrice);\r\n\r\n        // Remove the ticket from the listing after purchase\r\n        listPrice[ticketId] = 0;\r\n    }\r\n\r\n    // get price of ticket\r\n    function checkPrice(uint256 id) public view returns (uint256) {\r\n        return listPrice[id];\r\n    }\r\n}",
  "sourcePath": "C:\\Users\\tngjo\\OneDrive\\Desktop\\GitHub\\IS4302-Decentralized-Event-Ticketing-System\\contracts\\TicketMarket.sol",
  "compiler": {
    "name": "solc",
    "version": "0.8.0+commit.c7dfd78e.Emscripten.clang"
  },
  "schemaVersion": "3.4.16",
  "updatedAt": "2024-04-04T11:57:31.050Z",
  "devdoc": {
    "kind": "dev",
    "methods": {},
    "version": 1
  },
  "userdoc": {
    "kind": "user",
    "methods": {},
    "version": 1
  }
}