{
  "contractName": "Ticket",
  "abi": [
    {
      "inputs": [
        {
          "internalType": "address",
          "name": "_ticketToken",
          "type": "address"
        }
      ],
      "stateMutability": "nonpayable",
      "type": "constructor"
    },
    {
      "anonymous": false,
      "inputs": [
        {
          "indexed": false,
          "internalType": "uint256",
          "name": "ticketId",
          "type": "uint256"
        },
        {
          "indexed": false,
          "internalType": "address",
          "name": "newOwner",
          "type": "address"
        },
        {
          "indexed": false,
          "internalType": "uint256",
          "name": "price",
          "type": "uint256"
        }
      ],
      "name": "TicketBought",
      "type": "event"
    },
    {
      "anonymous": false,
      "inputs": [
        {
          "indexed": true,
          "internalType": "uint256",
          "name": "ticketId",
          "type": "uint256"
        },
        {
          "indexed": false,
          "internalType": "address",
          "name": "owner",
          "type": "address"
        }
      ],
      "name": "TicketCreated",
      "type": "event"
    },
    {
      "anonymous": false,
      "inputs": [
        {
          "indexed": false,
          "internalType": "uint256",
          "name": "ticketId",
          "type": "uint256"
        }
      ],
      "name": "TicketFrozen",
      "type": "event"
    },
    {
      "anonymous": false,
      "inputs": [
        {
          "indexed": false,
          "internalType": "uint256",
          "name": "ticketId",
          "type": "uint256"
        }
      ],
      "name": "TicketRedeemed",
      "type": "event"
    },
    {
      "inputs": [],
      "name": "owner",
      "outputs": [
        {
          "internalType": "address",
          "name": "",
          "type": "address"
        }
      ],
      "stateMutability": "view",
      "type": "function"
    },
    {
      "inputs": [],
      "name": "ticketCounter",
      "outputs": [
        {
          "internalType": "uint256",
          "name": "",
          "type": "uint256"
        }
      ],
      "stateMutability": "view",
      "type": "function"
    },
    {
      "inputs": [],
      "name": "ticketToken",
      "outputs": [
        {
          "internalType": "contract TicketToken",
          "name": "",
          "type": "address"
        }
      ],
      "stateMutability": "view",
      "type": "function"
    },
    {
      "inputs": [
        {
          "internalType": "uint256",
          "name": "",
          "type": "uint256"
        }
      ],
      "name": "tickets",
      "outputs": [
        {
          "internalType": "uint256",
          "name": "ticketId",
          "type": "uint256"
        },
        {
          "internalType": "uint256",
          "name": "concertId",
          "type": "uint256"
        },
        {
          "internalType": "string",
          "name": "concertName",
          "type": "string"
        },
        {
          "internalType": "string",
          "name": "concertVenue",
          "type": "string"
        },
        {
          "internalType": "uint256",
          "name": "concertDate",
          "type": "uint256"
        },
        {
          "internalType": "uint256",
          "name": "ticketSectionNo",
          "type": "uint256"
        },
        {
          "internalType": "uint256",
          "name": "ticketSeatNo",
          "type": "uint256"
        },
        {
          "internalType": "enum Ticket.TicketState",
          "name": "ticketState",
          "type": "uint8"
        },
        {
          "internalType": "address",
          "name": "owner",
          "type": "address"
        },
        {
          "internalType": "address",
          "name": "prevOwner",
          "type": "address"
        },
        {
          "internalType": "uint256",
          "name": "price",
          "type": "uint256"
        },
        {
          "internalType": "uint256",
          "name": "resellPrice",
          "type": "uint256"
        }
      ],
      "stateMutability": "view",
      "type": "function"
    },
    {
      "inputs": [
        {
          "internalType": "uint256",
          "name": "concertId",
          "type": "uint256"
        },
        {
          "internalType": "string",
          "name": "concertName",
          "type": "string"
        },
        {
          "internalType": "string",
          "name": "concertVenue",
          "type": "string"
        },
        {
          "internalType": "uint256",
          "name": "concertDate",
          "type": "uint256"
        },
        {
          "internalType": "uint256",
          "name": "ticketSectionNo",
          "type": "uint256"
        },
        {
          "internalType": "uint256",
          "name": "ticketSeatNo",
          "type": "uint256"
        },
        {
          "internalType": "uint256",
          "name": "price",
          "type": "uint256"
        }
      ],
      "name": "createTicket",
      "outputs": [
        {
          "internalType": "uint256",
          "name": "",
          "type": "uint256"
        }
      ],
      "stateMutability": "nonpayable",
      "type": "function"
    },
    {
      "inputs": [
        {
          "internalType": "uint256",
          "name": "_ticketId",
          "type": "uint256"
        }
      ],
      "name": "redeemTicket",
      "outputs": [],
      "stateMutability": "nonpayable",
      "type": "function"
    },
    {
      "inputs": [
        {
          "internalType": "uint256",
          "name": "_ticketId",
          "type": "uint256"
        }
      ],
      "name": "freezeTicket",
      "outputs": [],
      "stateMutability": "nonpayable",
      "type": "function"
    },
    {
      "inputs": [
        {
          "internalType": "uint256",
          "name": "ticketId",
          "type": "uint256"
        },
        {
          "internalType": "address",
          "name": "newOwner",
          "type": "address"
        },
        {
          "internalType": "uint256",
          "name": "resellPrice",
          "type": "uint256"
        }
      ],
      "name": "transfer",
      "outputs": [],
      "stateMutability": "nonpayable",
      "type": "function"
    },
    {
      "inputs": [
        {
          "internalType": "uint256",
          "name": "ticketId",
          "type": "uint256"
        }
      ],
      "name": "getTicketId",
      "outputs": [
        {
          "internalType": "uint256",
          "name": "",
          "type": "uint256"
        }
      ],
      "stateMutability": "view",
      "type": "function"
    },
    {
      "inputs": [
        {
          "internalType": "uint256",
          "name": "ticketId",
          "type": "uint256"
        }
      ],
      "name": "getConcertId",
      "outputs": [
        {
          "internalType": "uint256",
          "name": "",
          "type": "uint256"
        }
      ],
      "stateMutability": "view",
      "type": "function"
    },
    {
      "inputs": [
        {
          "internalType": "uint256",
          "name": "ticketId",
          "type": "uint256"
        }
      ],
      "name": "getConcertName",
      "outputs": [
        {
          "internalType": "string",
          "name": "",
          "type": "string"
        }
      ],
      "stateMutability": "view",
      "type": "function"
    },
    {
      "inputs": [
        {
          "internalType": "uint256",
          "name": "ticketId",
          "type": "uint256"
        }
      ],
      "name": "getConcertVenue",
      "outputs": [
        {
          "internalType": "string",
          "name": "",
          "type": "string"
        }
      ],
      "stateMutability": "view",
      "type": "function"
    },
    {
      "inputs": [
        {
          "internalType": "uint256",
          "name": "ticketId",
          "type": "uint256"
        }
      ],
      "name": "getConcertDate",
      "outputs": [
        {
          "internalType": "uint256",
          "name": "",
          "type": "uint256"
        }
      ],
      "stateMutability": "view",
      "type": "function"
    },
    {
      "inputs": [
        {
          "internalType": "uint256",
          "name": "ticketId",
          "type": "uint256"
        }
      ],
      "name": "getTicketSectionNo",
      "outputs": [
        {
          "internalType": "uint256",
          "name": "",
          "type": "uint256"
        }
      ],
      "stateMutability": "view",
      "type": "function"
    },
    {
      "inputs": [
        {
          "internalType": "uint256",
          "name": "ticketId",
          "type": "uint256"
        }
      ],
      "name": "getTicketSeatNo",
      "outputs": [
        {
          "internalType": "uint256",
          "name": "",
          "type": "uint256"
        }
      ],
      "stateMutability": "view",
      "type": "function"
    },
    {
      "inputs": [
        {
          "internalType": "uint256",
          "name": "ticketId",
          "type": "uint256"
        }
      ],
      "name": "getTicketState",
      "outputs": [
        {
          "internalType": "enum Ticket.TicketState",
          "name": "",
          "type": "uint8"
        }
      ],
      "stateMutability": "view",
      "type": "function"
    },
    {
      "inputs": [
        {
          "internalType": "uint256",
          "name": "ticketId",
          "type": "uint256"
        }
      ],
      "name": "getOwner",
      "outputs": [
        {
          "internalType": "address",
          "name": "",
          "type": "address"
        }
      ],
      "stateMutability": "view",
      "type": "function"
    },
    {
      "inputs": [
        {
          "internalType": "uint256",
          "name": "ticketId",
          "type": "uint256"
        }
      ],
      "name": "getPrevOwner",
      "outputs": [
        {
          "internalType": "address",
          "name": "",
          "type": "address"
        }
      ],
      "stateMutability": "view",
      "type": "function"
    },
    {
      "inputs": [
        {
          "internalType": "uint256",
          "name": "ticketId",
          "type": "uint256"
        }
      ],
      "name": "getPrice",
      "outputs": [
        {
          "internalType": "uint256",
          "name": "",
          "type": "uint256"
        }
      ],
      "stateMutability": "view",
      "type": "function"
    }
  ],
  "bytecode": "0x608060405260006002553480156200001657600080fd5b50604051620020993803806200209983398181016040528101906200003c9190620000dc565b33600360006101000a81548173ffffffffffffffffffffffffffffffffffffffff021916908373ffffffffffffffffffffffffffffffffffffffff16021790555080600160006101000a81548173ffffffffffffffffffffffffffffffffffffffff021916908373ffffffffffffffffffffffffffffffffffffffff1602179055505062000156565b600081519050620000d6816200013c565b92915050565b600060208284031215620000ef57600080fd5b6000620000ff84828501620000c5565b91505092915050565b600062000115826200011c565b9050919050565b600073ffffffffffffffffffffffffffffffffffffffff82169050919050565b620001478162000108565b81146200015357600080fd5b50565b611f3380620001666000396000f3fe608060405234801561001057600080fd5b50600436106101215760003560e01c80638c4d59d0116100ad578063dba4a8df11610071578063dba4a8df14610373578063e7572230146103a3578063f2d03fcf146103d3578063f8548e3614610403578063fe8b766b1461041f57610121565b80638c4d59d0146102b95780638da5cb5b146102d7578063bcc79822146102f5578063c41a360a14610325578063d5ed4d5a1461035557610121565b806350b44712116100f457806350b44712146101be5780636482db3f146101f95780636c5c74b81461022957806371d69ef01461025957806386db5b231461028957610121565b806315f59d7f1461012657806316086c981461014257806316c15c0c1461015e5780634f44d7b61461018e575b600080fd5b610140600480360381019061013b9190611661565b61044f565b005b61015c60048036038101906101579190611661565b6105fd565b005b61017860048036038101906101739190611661565b6107ba565b6040516101859190611ae1565b60405180910390f35b6101a860048036038101906101a39190611661565b61081f565b6040516101b59190611a1f565b60405180910390f35b6101d860048036038101906101d39190611661565b61090c565b6040516101f09c9b9a99989796959493929190611b33565b60405180910390f35b610213600480360381019061020e9190611661565b610ac9565b6040516102209190611a04565b60405180910390f35b610243600480360381019061023e9190611661565b610b3b565b6040516102509190611ae1565b60405180910390f35b610273600480360381019061026e9190611661565b610ba0565b6040516102809190611ae1565b60405180910390f35b6102a3600480360381019061029e9190611661565b610c05565b6040516102b09190611ae1565b60405180910390f35b6102c1610c6a565b6040516102ce9190611ae1565b60405180910390f35b6102df610c70565b6040516102ec91906119ce565b60405180910390f35b61030f600480360381019061030a9190611661565b610c96565b60405161031c9190611a1f565b60405180910390f35b61033f600480360381019061033a9190611661565b610d83565b60405161034c91906119ce565b60405180910390f35b61035d610e08565b60405161036a91906119e9565b60405180910390f35b61038d60048036038101906103889190611661565b610e2e565b60405161039a9190611ae1565b60405180910390f35b6103bd60048036038101906103b89190611661565b610e93565b6040516103ca9190611ae1565b60405180910390f35b6103ed60048036038101906103e89190611661565b610ef8565b6040516103fa91906119ce565b60405180910390f35b61041d6004803603810190610418919061168a565b610f7d565b005b610439600480360381019061043491906116d9565b6111e4565b6040516104469190611ae1565b60405180910390f35b806002548110610494576040517f08c379a000000000000000000000000000000000000000000000000000000000815260040161048b90611a41565b60405180910390fd5b60008060008481526020019081526020016000209050600060028111156104e4577f4e487b7100000000000000000000000000000000000000000000000000000000600052602160045260246000fd5b8160070160009054906101000a900460ff16600281111561052e577f4e487b7100000000000000000000000000000000000000000000000000000000600052602160045260246000fd5b1461056e576040517f08c379a000000000000000000000000000000000000000000000000000000000815260040161056590611a61565b60405180910390fd5b60018160070160006101000a81548160ff021916908360028111156105bc577f4e487b7100000000000000000000000000000000000000000000000000000000600052602160045260246000fd5b02179055507fb0ebd5f2f7c40ca5715d8deab780894f023a63bc249fc45e69df6acbc4e8b568836040516105f09190611ae1565b60405180910390a1505050565b806000806002811115610639577f4e487b7100000000000000000000000000000000000000000000000000000000600052602160045260246000fd5b60008084815260200190815260200160002060070160009054906101000a900460ff166002811115610694577f4e487b7100000000000000000000000000000000000000000000000000000000600052602160045260246000fd5b146106d4576040517f08c379a00000000000000000000000000000000000000000000000000000000081526004016106cb90611aa1565b60405180910390fd5b826002548110610719576040517f08c379a000000000000000000000000000000000000000000000000000000000815260040161071090611a41565b60405180910390fd5b600260008086815260200190815260200160002060070160006101000a81548160ff02191690836002811115610778577f4e487b7100000000000000000000000000000000000000000000000000000000600052602160045260246000fd5b02179055507f5f9fbbc6b6aee5534f63c42109bdd37181fe2ce563b4c54322b4d7b6910393df846040516107ac9190611ae1565b60405180910390a150505050565b6000816002548110610801576040517f08c379a00000000000000000000000000000000000000000000000000000000081526004016107f890611a41565b60405180910390fd5b60008084815260200190815260200160002060040154915050919050565b6060816002548110610866576040517f08c379a000000000000000000000000000000000000000000000000000000000815260040161085d90611a41565b60405180910390fd5b600080848152602001908152602001600020600201805461088690611d73565b80601f01602080910402602001604051908101604052809291908181526020018280546108b290611d73565b80156108ff5780601f106108d4576101008083540402835291602001916108ff565b820191906000526020600020905b8154815290600101906020018083116108e257829003601f168201915b5050505050915050919050565b600060205280600052604060002060009150905080600001549080600101549080600201805461093b90611d73565b80601f016020809104026020016040519081016040528092919081815260200182805461096790611d73565b80156109b45780601f10610989576101008083540402835291602001916109b4565b820191906000526020600020905b81548152906001019060200180831161099757829003601f168201915b5050505050908060030180546109c990611d73565b80601f01602080910402602001604051908101604052809291908181526020018280546109f590611d73565b8015610a425780601f10610a1757610100808354040283529160200191610a42565b820191906000526020600020905b815481529060010190602001808311610a2557829003601f168201915b5050505050908060040154908060050154908060060154908060070160009054906101000a900460ff16908060070160019054906101000a900473ffffffffffffffffffffffffffffffffffffffff16908060080160009054906101000a900473ffffffffffffffffffffffffffffffffffffffff169080600901549080600a015490508c565b6000816002548110610b10576040517f08c379a0000000000000000000000000000000000000000000000000000000008152600401610b0790611a41565b60405180910390fd5b60008084815260200190815260200160002060070160009054906101000a900460ff16915050919050565b6000816002548110610b82576040517f08c379a0000000000000000000000000000000000000000000000000000000008152600401610b7990611a41565b60405180910390fd5b60008084815260200190815260200160002060050154915050919050565b6000816002548110610be7576040517f08c379a0000000000000000000000000000000000000000000000000000000008152600401610bde90611a41565b60405180910390fd5b60008084815260200190815260200160002060060154915050919050565b6000816002548110610c4c576040517f08c379a0000000000000000000000000000000000000000000000000000000008152600401610c4390611a41565b60405180910390fd5b60008084815260200190815260200160002060010154915050919050565b60025481565b600360009054906101000a900473ffffffffffffffffffffffffffffffffffffffff1681565b6060816002548110610cdd576040517f08c379a0000000000000000000000000000000000000000000000000000000008152600401610cd490611a41565b60405180910390fd5b6000808481526020019081526020016000206003018054610cfd90611d73565b80601f0160208091040260200160405190810160405280929190818152602001828054610d2990611d73565b8015610d765780601f10610d4b57610100808354040283529160200191610d76565b820191906000526020600020905b815481529060010190602001808311610d5957829003601f168201915b5050505050915050919050565b6000816002548110610dca576040517f08c379a0000000000000000000000000000000000000000000000000000000008152600401610dc190611a41565b60405180910390fd5b60008084815260200190815260200160002060070160019054906101000a900473ffffffffffffffffffffffffffffffffffffffff16915050919050565b600160009054906101000a900473ffffffffffffffffffffffffffffffffffffffff1681565b6000816002548110610e75576040517f08c379a0000000000000000000000000000000000000000000000000000000008152600401610e6c90611a41565b60405180910390fd5b60008084815260200190815260200160002060000154915050919050565b6000816002548110610eda576040517f08c379a0000000000000000000000000000000000000000000000000000000008152600401610ed190611a41565b60405180910390fd5b60008084815260200190815260200160002060090154915050919050565b6000816002548110610f3f576040517f08c379a0000000000000000000000000000000000000000000000000000000008152600401610f3690611a41565b60405180910390fd5b60008084815260200190815260200160002060080160009054906101000a900473ffffffffffffffffffffffffffffffffffffffff16915050919050565b826002548110610fc2576040517f08c379a0000000000000000000000000000000000000000000000000000000008152600401610fb990611a41565b60405180910390fd5b60006002811115610ffc577f4e487b7100000000000000000000000000000000000000000000000000000000600052602160045260246000fd5b60008086815260200190815260200160002060070160009054906101000a900460ff166002811115611057577f4e487b7100000000000000000000000000000000000000000000000000000000600052602160045260246000fd5b14611097576040517f08c379a000000000000000000000000000000000000000000000000000000000815260040161108e90611ac1565b60405180910390fd5b60008085815260200190815260200160002060070160019054906101000a900473ffffffffffffffffffffffffffffffffffffffff1660008086815260200190815260200160002060080160006101000a81548173ffffffffffffffffffffffffffffffffffffffff021916908373ffffffffffffffffffffffffffffffffffffffff1602179055508260008086815260200190815260200160002060070160016101000a81548173ffffffffffffffffffffffffffffffffffffffff021916908373ffffffffffffffffffffffffffffffffffffffff16021790555081600080868152602001908152602001600020600901819055507f913d09b391f64143215d9312fd7e8ecaa06001c646789c9d2109dc515bc34fad8484600080888152602001908152602001600020600901546040516111d693929190611afc565b60405180910390a150505050565b6000600360009054906101000a900473ffffffffffffffffffffffffffffffffffffffff1673ffffffffffffffffffffffffffffffffffffffff163373ffffffffffffffffffffffffffffffffffffffff1614611276576040517f08c379a000000000000000000000000000000000000000000000000000000000815260040161126d90611a81565b60405180910390fd5b600060405180610180016040528060025481526020018a8152602001898152602001888152602001878152602001868152602001858152602001600060028111156112ea577f4e487b7100000000000000000000000000000000000000000000000000000000600052602160045260246000fd5b81526020013373ffffffffffffffffffffffffffffffffffffffff168152602001600073ffffffffffffffffffffffffffffffffffffffff16815260200184815260200160008152509050806000806002600081548092919061134c90611da5565b9190505581526020019081526020016000206000820151816000015560208201518160010155604082015181600201908051906020019061138e92919061152c565b5060608201518160030190805190602001906113ab92919061152c565b506080820151816004015560a0820151816005015560c0820151816006015560e08201518160070160006101000a81548160ff0219169083600281111561141b577f4e487b7100000000000000000000000000000000000000000000000000000000600052602160045260246000fd5b02179055506101008201518160070160016101000a81548173ffffffffffffffffffffffffffffffffffffffff021916908373ffffffffffffffffffffffffffffffffffffffff1602179055506101208201518160080160006101000a81548173ffffffffffffffffffffffffffffffffffffffff021916908373ffffffffffffffffffffffffffffffffffffffff160217905550610140820151816009015561016082015181600a015590505060016002546114d89190611c78565b7f960fa3b53d2527c64fb943b9502a4541b1137488cb027f95b36b06b44d10fedc3360405161150791906119ce565b60405180910390a2600160025461151e9190611c78565b915050979650505050505050565b82805461153890611d73565b90600052602060002090601f01602090048101928261155a57600085556115a1565b82601f1061157357805160ff19168380011785556115a1565b828001600101855582156115a1579182015b828111156115a0578251825591602001919060010190611585565b5b5090506115ae91906115b2565b5090565b5b808211156115cb5760008160009055506001016115b3565b5090565b60006115e26115dd84611c2c565b611bfb565b9050828152602081018484840111156115fa57600080fd5b611605848285611d31565b509392505050565b60008135905061161c81611ecf565b92915050565b600082601f83011261163357600080fd5b81356116438482602086016115cf565b91505092915050565b60008135905061165b81611ee6565b92915050565b60006020828403121561167357600080fd5b60006116818482850161164c565b91505092915050565b60008060006060848603121561169f57600080fd5b60006116ad8682870161164c565b93505060206116be8682870161160d565b92505060406116cf8682870161164c565b9150509250925092565b600080600080600080600060e0888a0312156116f457600080fd5b60006117028a828b0161164c565b975050602088013567ffffffffffffffff81111561171f57600080fd5b61172b8a828b01611622565b965050604088013567ffffffffffffffff81111561174857600080fd5b6117548a828b01611622565b95505060606117658a828b0161164c565b94505060806117768a828b0161164c565b93505060a06117878a828b0161164c565b92505060c06117988a828b0161164c565b91505092959891949750929550565b6117b081611cac565b82525050565b6117bf81611cfb565b82525050565b6117ce81611d1f565b82525050565b60006117df82611c5c565b6117e98185611c67565b93506117f9818560208601611d40565b61180281611eaa565b840191505092915050565b600061181a601183611c67565b91507f496e76616c6964207469636b65742049440000000000000000000000000000006000830152602082019050919050565b600061185a601583611c67565b91507f5469636b6574206973206e6f74206163746976652e00000000000000000000006000830152602082019050919050565b600061189a603283611c67565b91507f4f6e6c7920746865206f776e657220286f7267616e697a6572292063616e206360008301527f72656174652061206e6577207469636b657400000000000000000000000000006020830152604082019050919050565b6000611900602b83611c67565b91507f5469636b65742061742077726f6e672073746174652c20616374696f6e206e6f60008301527f7420706572666f726d65640000000000000000000000000000000000000000006020830152604082019050919050565b6000611966603183611c67565b91507f5469636b65742063616e6e6f74206265207472616e7366657272656420696e2060008301527f6974732063757272656e742073746174650000000000000000000000000000006020830152604082019050919050565b6119c881611cf1565b82525050565b60006020820190506119e360008301846117a7565b92915050565b60006020820190506119fe60008301846117b6565b92915050565b6000602082019050611a1960008301846117c5565b92915050565b60006020820190508181036000830152611a3981846117d4565b905092915050565b60006020820190508181036000830152611a5a8161180d565b9050919050565b60006020820190508181036000830152611a7a8161184d565b9050919050565b60006020820190508181036000830152611a9a8161188d565b9050919050565b60006020820190508181036000830152611aba816118f3565b9050919050565b60006020820190508181036000830152611ada81611959565b9050919050565b6000602082019050611af660008301846119bf565b92915050565b6000606082019050611b1160008301866119bf565b611b1e60208301856117a7565b611b2b60408301846119bf565b949350505050565b600061018082019050611b49600083018f6119bf565b611b56602083018e6119bf565b8181036040830152611b68818d6117d4565b90508181036060830152611b7c818c6117d4565b9050611b8b608083018b6119bf565b611b9860a083018a6119bf565b611ba560c08301896119bf565b611bb260e08301886117c5565b611bc06101008301876117a7565b611bce6101208301866117a7565b611bdc6101408301856119bf565b611bea6101608301846119bf565b9d9c50505050505050505050505050565b6000604051905081810181811067ffffffffffffffff82111715611c2257611c21611e7b565b5b8060405250919050565b600067ffffffffffffffff821115611c4757611c46611e7b565b5b601f19601f8301169050602081019050919050565b600081519050919050565b600082825260208201905092915050565b6000611c8382611cf1565b9150611c8e83611cf1565b925082821015611ca157611ca0611dee565b5b828203905092915050565b6000611cb782611cd1565b9050919050565b6000819050611ccc82611ebb565b919050565b600073ffffffffffffffffffffffffffffffffffffffff82169050919050565b6000819050919050565b6000611d0682611d0d565b9050919050565b6000611d1882611cd1565b9050919050565b6000611d2a82611cbe565b9050919050565b82818337600083830152505050565b60005b83811015611d5e578082015181840152602081019050611d43565b83811115611d6d576000848401525b50505050565b60006002820490506001821680611d8b57607f821691505b60208210811415611d9f57611d9e611e4c565b5b50919050565b6000611db082611cf1565b91507fffffffffffffffffffffffffffffffffffffffffffffffffffffffffffffffff821415611de357611de2611dee565b5b600182019050919050565b7f4e487b7100000000000000000000000000000000000000000000000000000000600052601160045260246000fd5b7f4e487b7100000000000000000000000000000000000000000000000000000000600052602160045260246000fd5b7f4e487b7100000000000000000000000000000000000000000000000000000000600052602260045260246000fd5b7f4e487b7100000000000000000000000000000000000000000000000000000000600052604160045260246000fd5b6000601f19601f8301169050919050565b60038110611ecc57611ecb611e1d565b5b50565b611ed881611cac565b8114611ee357600080fd5b50565b611eef81611cf1565b8114611efa57600080fd5b5056fea26469706673582212207298222c9ad7aa98bce98994ffebad95e1652893f0968b4130825762571bdf2764736f6c63430008000033",
  "immutableReferences": {},
  "source": "// SPDX-License-Identifier: MIT\r\npragma solidity ^0.8.0;\r\n\r\nimport \"./ERC20.sol\";\r\nimport \"./TicketToken.sol\";\r\n\r\ncontract Ticket {\r\n    enum TicketState {\r\n        Active,\r\n        Redeemed,\r\n        Frozen\r\n    }\r\n\r\n    struct ticket {\r\n        uint256 ticketId;\r\n        uint256 concertId;\r\n        string concertName;\r\n        string concertVenue;\r\n        uint256 concertDate;\r\n        uint256 ticketSectionNo;\r\n        uint256 ticketSeatNo;\r\n        TicketState ticketState;\r\n        address owner;\r\n        address prevOwner;\r\n        uint256 price;\r\n        uint256 resellPrice;\r\n    }\r\n\r\n    mapping(uint256 => ticket) public tickets;\r\n\r\n    event TicketCreated(uint256 indexed ticketId, address owner);\r\n    event TicketRedeemed(uint256 ticketId);\r\n    event TicketFrozen(uint256 ticketId);\r\n    event TicketBought(uint256 ticketId, address newOwner, uint256 price);\r\n\r\n    TicketToken public ticketToken;\r\n    uint256 public ticketCounter = 0;\r\n    address public owner;\r\n\r\n    constructor(address _ticketToken) {\r\n        owner = msg.sender;\r\n        ticketToken = TicketToken(_ticketToken);\r\n    }\r\n\r\n    modifier atState(uint256 _ticketId, TicketState _state) {\r\n        require(\r\n            tickets[_ticketId].ticketState == _state,\r\n            \"Ticket at wrong state, action not performed\"\r\n        );\r\n        _;\r\n    }\r\n\r\n    modifier validTicketId(uint256 ticketId) {\r\n        require(ticketId < ticketCounter, \"Invalid ticket ID\");\r\n        _;\r\n    }\r\n\r\n    // function to create a new ticket and add to the tickets map\r\n    function createTicket(\r\n        uint256 concertId,\r\n        string memory concertName,\r\n        string memory concertVenue,\r\n        uint256 concertDate,\r\n        uint256 ticketSectionNo,\r\n        uint256 ticketSeatNo,\r\n        uint256 price\r\n    ) public returns (uint256) {\r\n        require(\r\n            msg.sender == owner,\r\n            \"Only the owner (organizer) can create a new ticket\"\r\n        );\r\n\r\n        ticket memory newTicket = ticket({\r\n            ticketId: ticketCounter,\r\n            concertId: concertId,\r\n            concertName: concertName,\r\n            concertVenue: concertVenue,\r\n            concertDate: concertDate,\r\n            ticketSectionNo: ticketSectionNo,\r\n            ticketSeatNo: ticketSeatNo,\r\n            ticketState: TicketState.Active,\r\n            prevOwner: address(0),\r\n            owner: msg.sender, // Assuming the owner creates the ticket\r\n            price: price,\r\n            resellPrice: 0\r\n        });\r\n\r\n        tickets[ticketCounter++] = newTicket;\r\n        emit TicketCreated(ticketCounter - 1, msg.sender);\r\n        return ticketCounter - 1; // Return the ID of the newly created ticket\r\n    }\r\n\r\n    // Modifier to ensure a function is callable only by its owner\r\n    modifier ownerOnly(uint256 ticketId) {\r\n        require(tickets[ticketId].owner == msg.sender);\r\n        _;\r\n    }\r\n\r\n    function redeemTicket(uint256 _ticketId) public validTicketId(_ticketId) {\r\n        ticket storage myTicket = tickets[_ticketId];\r\n\r\n        // Ensure the ticket is active\r\n        require(\r\n            myTicket.ticketState == TicketState.Active,\r\n            \"Ticket is not active.\"\r\n        );\r\n\r\n        // Update the ticket state to Redeemed\r\n        myTicket.ticketState = TicketState.Redeemed;\r\n        emit TicketRedeemed(_ticketId);\r\n    }\r\n\r\n    function freezeTicket(\r\n        uint256 _ticketId\r\n    ) external atState(_ticketId, TicketState.Active) validTicketId(_ticketId) {\r\n        tickets[_ticketId].ticketState = TicketState.Frozen;\r\n        emit TicketFrozen(_ticketId);\r\n    }\r\n\r\n    function transfer(\r\n        uint256 ticketId,\r\n        address newOwner,\r\n        uint256 resellPrice\r\n    ) external validTicketId(ticketId) {\r\n        require(\r\n            tickets[ticketId].ticketState == TicketState.Active,\r\n            \"Ticket cannot be transferred in its current state\"\r\n        );\r\n\r\n        tickets[ticketId].prevOwner = tickets[ticketId].owner;\r\n        tickets[ticketId].owner = newOwner;\r\n        tickets[ticketId].price = resellPrice;\r\n\r\n        emit TicketBought(ticketId, newOwner, tickets[ticketId].price);\r\n    }\r\n\r\n    // Getter Functions for Ticket attributes\r\n    function getTicketId(\r\n        uint256 ticketId\r\n    ) public view validTicketId(ticketId) returns (uint256) {\r\n        return tickets[ticketId].ticketId;\r\n    }\r\n\r\n    function getConcertId(\r\n        uint256 ticketId\r\n    ) public view validTicketId(ticketId) returns (uint256) {\r\n        return tickets[ticketId].concertId;\r\n    }\r\n\r\n    function getConcertName(\r\n        uint256 ticketId\r\n    ) public view validTicketId(ticketId) returns (string memory) {\r\n        return tickets[ticketId].concertName;\r\n    }\r\n\r\n    function getConcertVenue(\r\n        uint256 ticketId\r\n    ) public view validTicketId(ticketId) returns (string memory) {\r\n        return tickets[ticketId].concertVenue;\r\n    }\r\n\r\n    function getConcertDate(\r\n        uint256 ticketId\r\n    ) public view validTicketId(ticketId) returns (uint256) {\r\n        return tickets[ticketId].concertDate;\r\n    }\r\n\r\n    function getTicketSectionNo(\r\n        uint256 ticketId\r\n    ) public view validTicketId(ticketId) returns (uint256) {\r\n        return tickets[ticketId].ticketSectionNo;\r\n    }\r\n\r\n    function getTicketSeatNo(\r\n        uint256 ticketId\r\n    ) public view validTicketId(ticketId) returns (uint256) {\r\n        return tickets[ticketId].ticketSeatNo;\r\n    }\r\n\r\n    function getTicketState(\r\n        uint256 ticketId\r\n    ) public view validTicketId(ticketId) returns (TicketState) {\r\n        return tickets[ticketId].ticketState;\r\n    }\r\n\r\n    function getOwner(\r\n        uint256 ticketId\r\n    ) public view validTicketId(ticketId) returns (address) {\r\n        return tickets[ticketId].owner;\r\n    }\r\n\r\n    function getPrevOwner(\r\n        uint256 ticketId\r\n    ) public view validTicketId(ticketId) returns (address) {\r\n        return tickets[ticketId].prevOwner;\r\n    }\r\n\r\n    function getPrice(\r\n        uint256 ticketId\r\n    ) public view validTicketId(ticketId) returns (uint256) {\r\n        return tickets[ticketId].price;\r\n    }\r\n}\r\n",
  "sourcePath": "C:\\Users\\tngjo\\OneDrive\\Desktop\\GitHub\\IS4302-Decentralized-Event-Ticketing-System\\contracts\\Ticket.sol",
  "compiler": {
    "name": "solc",
    "version": "0.8.0+commit.c7dfd78e.Emscripten.clang"
  },
  "schemaVersion": "3.4.16",
  "updatedAt": "2024-03-29T06:59:37.946Z",
  "devdoc": {
    "kind": "dev",
    "methods": {},
    "version": 1
  },
  "userdoc": {
    "kind": "user",
    "methods": {},
    "version": 1
  }
}