{
  "contractName": "Ticket",
  "abi": [
    {
      "inputs": [
        {
          "internalType": "address",
          "name": "_ticketToken",
          "type": "address"
        }
      ],
      "stateMutability": "nonpayable",
      "type": "constructor"
    },
    {
      "anonymous": false,
      "inputs": [
        {
          "indexed": false,
          "internalType": "uint256",
          "name": "ticketId",
          "type": "uint256"
        },
        {
          "indexed": false,
          "internalType": "address",
          "name": "newOwner",
          "type": "address"
        },
        {
          "indexed": false,
          "internalType": "uint256",
          "name": "price",
          "type": "uint256"
        }
      ],
      "name": "TicketBought",
      "type": "event"
    },
    {
      "anonymous": false,
      "inputs": [
        {
          "indexed": false,
          "internalType": "uint256",
          "name": "ticketId",
          "type": "uint256"
        },
        {
          "indexed": false,
          "internalType": "address",
          "name": "owner",
          "type": "address"
        }
      ],
      "name": "TicketCreated",
      "type": "event"
    },
    {
      "anonymous": false,
      "inputs": [
        {
          "indexed": false,
          "internalType": "uint256",
          "name": "ticketId",
          "type": "uint256"
        }
      ],
      "name": "TicketFrozen",
      "type": "event"
    },
    {
      "anonymous": false,
      "inputs": [
        {
          "indexed": false,
          "internalType": "uint256",
          "name": "ticketId",
          "type": "uint256"
        }
      ],
      "name": "TicketRedeemed",
      "type": "event"
    },
    {
      "inputs": [],
      "name": "owner",
      "outputs": [
        {
          "internalType": "address",
          "name": "",
          "type": "address"
        }
      ],
      "stateMutability": "view",
      "type": "function"
    },
    {
      "inputs": [],
      "name": "ticketCounter",
      "outputs": [
        {
          "internalType": "uint256",
          "name": "",
          "type": "uint256"
        }
      ],
      "stateMutability": "view",
      "type": "function"
    },
    {
      "inputs": [
        {
          "internalType": "uint256",
          "name": "",
          "type": "uint256"
        }
      ],
      "name": "ticketToOwner",
      "outputs": [
        {
          "internalType": "address",
          "name": "",
          "type": "address"
        }
      ],
      "stateMutability": "view",
      "type": "function"
    },
    {
      "inputs": [],
      "name": "ticketToken",
      "outputs": [
        {
          "internalType": "contract TicketToken",
          "name": "",
          "type": "address"
        }
      ],
      "stateMutability": "view",
      "type": "function"
    },
    {
      "inputs": [
        {
          "internalType": "uint256",
          "name": "",
          "type": "uint256"
        }
      ],
      "name": "tickets",
      "outputs": [
        {
          "internalType": "uint256",
          "name": "ticketId",
          "type": "uint256"
        },
        {
          "internalType": "uint256",
          "name": "concertId",
          "type": "uint256"
        },
        {
          "internalType": "string",
          "name": "concertName",
          "type": "string"
        },
        {
          "internalType": "string",
          "name": "concertVenue",
          "type": "string"
        },
        {
          "internalType": "uint256",
          "name": "concertDate",
          "type": "uint256"
        },
        {
          "internalType": "string",
          "name": "ticketCategory",
          "type": "string"
        },
        {
          "internalType": "uint256",
          "name": "ticketSectionNo",
          "type": "uint256"
        },
        {
          "internalType": "uint256",
          "name": "ticketSeatNo",
          "type": "uint256"
        },
        {
          "internalType": "enum Ticket.TicketState",
          "name": "ticketState",
          "type": "uint8"
        },
        {
          "internalType": "address",
          "name": "owner",
          "type": "address"
        },
        {
          "internalType": "address",
          "name": "prevOwner",
          "type": "address"
        },
        {
          "internalType": "uint256",
          "name": "price",
          "type": "uint256"
        }
      ],
      "stateMutability": "view",
      "type": "function"
    },
    {
      "inputs": [
        {
          "internalType": "uint256",
          "name": "concertId",
          "type": "uint256"
        },
        {
          "internalType": "string",
          "name": "concertName",
          "type": "string"
        },
        {
          "internalType": "string",
          "name": "concertVenue",
          "type": "string"
        },
        {
          "internalType": "uint256",
          "name": "concertDate",
          "type": "uint256"
        },
        {
          "internalType": "string",
          "name": "ticketCategory",
          "type": "string"
        },
        {
          "internalType": "uint256",
          "name": "ticketSectionNo",
          "type": "uint256"
        },
        {
          "internalType": "uint256",
          "name": "ticketSeatNo",
          "type": "uint256"
        },
        {
          "internalType": "uint256",
          "name": "price",
          "type": "uint256"
        }
      ],
      "name": "createTicket",
      "outputs": [],
      "stateMutability": "nonpayable",
      "type": "function"
    },
    {
      "inputs": [
        {
          "internalType": "uint256",
          "name": "_ticketId",
          "type": "uint256"
        }
      ],
      "name": "redeemTicket",
      "outputs": [],
      "stateMutability": "nonpayable",
      "type": "function"
    },
    {
      "inputs": [
        {
          "internalType": "uint256",
          "name": "_ticketId",
          "type": "uint256"
        }
      ],
      "name": "freezeTicket",
      "outputs": [],
      "stateMutability": "nonpayable",
      "type": "function"
    },
    {
      "inputs": [
        {
          "internalType": "uint256",
          "name": "ticketId",
          "type": "uint256"
        },
        {
          "internalType": "address",
          "name": "newOwner",
          "type": "address"
        }
      ],
      "name": "transfer",
      "outputs": [],
      "stateMutability": "nonpayable",
      "type": "function"
    },
    {
      "inputs": [
        {
          "internalType": "uint256",
          "name": "ticketId",
          "type": "uint256"
        }
      ],
      "name": "getTicketId",
      "outputs": [
        {
          "internalType": "uint256",
          "name": "",
          "type": "uint256"
        }
      ],
      "stateMutability": "view",
      "type": "function"
    },
    {
      "inputs": [
        {
          "internalType": "uint256",
          "name": "ticketId",
          "type": "uint256"
        }
      ],
      "name": "getConcertId",
      "outputs": [
        {
          "internalType": "uint256",
          "name": "",
          "type": "uint256"
        }
      ],
      "stateMutability": "view",
      "type": "function"
    },
    {
      "inputs": [
        {
          "internalType": "uint256",
          "name": "ticketId",
          "type": "uint256"
        }
      ],
      "name": "getConcertName",
      "outputs": [
        {
          "internalType": "string",
          "name": "",
          "type": "string"
        }
      ],
      "stateMutability": "view",
      "type": "function"
    },
    {
      "inputs": [
        {
          "internalType": "uint256",
          "name": "ticketId",
          "type": "uint256"
        }
      ],
      "name": "getConcertVenue",
      "outputs": [
        {
          "internalType": "string",
          "name": "",
          "type": "string"
        }
      ],
      "stateMutability": "view",
      "type": "function"
    },
    {
      "inputs": [
        {
          "internalType": "uint256",
          "name": "ticketId",
          "type": "uint256"
        }
      ],
      "name": "getConcertDate",
      "outputs": [
        {
          "internalType": "uint256",
          "name": "",
          "type": "uint256"
        }
      ],
      "stateMutability": "view",
      "type": "function"
    },
    {
      "inputs": [
        {
          "internalType": "uint256",
          "name": "ticketId",
          "type": "uint256"
        }
      ],
      "name": "getTicketCategory",
      "outputs": [
        {
          "internalType": "string",
          "name": "",
          "type": "string"
        }
      ],
      "stateMutability": "view",
      "type": "function"
    },
    {
      "inputs": [
        {
          "internalType": "uint256",
          "name": "ticketId",
          "type": "uint256"
        }
      ],
      "name": "getTicketSectionNo",
      "outputs": [
        {
          "internalType": "uint256",
          "name": "",
          "type": "uint256"
        }
      ],
      "stateMutability": "view",
      "type": "function"
    },
    {
      "inputs": [
        {
          "internalType": "uint256",
          "name": "ticketId",
          "type": "uint256"
        }
      ],
      "name": "getTicketSeatNo",
      "outputs": [
        {
          "internalType": "uint256",
          "name": "",
          "type": "uint256"
        }
      ],
      "stateMutability": "view",
      "type": "function"
    },
    {
      "inputs": [
        {
          "internalType": "uint256",
          "name": "ticketId",
          "type": "uint256"
        }
      ],
      "name": "getTicketState",
      "outputs": [
        {
          "internalType": "enum Ticket.TicketState",
          "name": "",
          "type": "uint8"
        }
      ],
      "stateMutability": "view",
      "type": "function"
    },
    {
      "inputs": [
        {
          "internalType": "uint256",
          "name": "ticketId",
          "type": "uint256"
        }
      ],
      "name": "getOwner",
      "outputs": [
        {
          "internalType": "address",
          "name": "",
          "type": "address"
        }
      ],
      "stateMutability": "view",
      "type": "function"
    },
    {
      "inputs": [
        {
          "internalType": "uint256",
          "name": "ticketId",
          "type": "uint256"
        }
      ],
      "name": "getPrevOwner",
      "outputs": [
        {
          "internalType": "address",
          "name": "",
          "type": "address"
        }
      ],
      "stateMutability": "view",
      "type": "function"
    },
    {
      "inputs": [
        {
          "internalType": "uint256",
          "name": "ticketId",
          "type": "uint256"
        }
      ],
      "name": "getPrice",
      "outputs": [
        {
          "internalType": "uint256",
          "name": "",
          "type": "uint256"
        }
      ],
      "stateMutability": "view",
      "type": "function"
    }
  ],
  "bytecode": "0x608060405260006004553480156200001657600080fd5b50604051620028333803806200283383398181016040528101906200003c9190620000dc565b33600560006101000a81548173ffffffffffffffffffffffffffffffffffffffff021916908373ffffffffffffffffffffffffffffffffffffffff16021790555080600360006101000a81548173ffffffffffffffffffffffffffffffffffffffff021916908373ffffffffffffffffffffffffffffffffffffffff1602179055505062000156565b600081519050620000d6816200013c565b92915050565b600060208284031215620000ef57600080fd5b6000620000ff84828501620000c5565b91505092915050565b600062000115826200011c565b9050919050565b600073ffffffffffffffffffffffffffffffffffffffff82169050919050565b620001478162000108565b81146200015357600080fd5b50565b6126cd80620001666000396000f3fe608060405234801561001057600080fd5b50600436106101375760003560e01c806386db5b23116100b8578063bcc798221161007c578063bcc79822146103a3578063c41a360a146103d3578063d5ed4d5a14610403578063dba4a8df14610421578063e757223014610451578063f2d03fcf1461048157610137565b806386db5b23146102eb5780638c4d59d01461031b5780638da5cb5b14610339578063a0426f7c14610357578063b7760c8f1461038757610137565b80634f44d7b6116100ff5780634f44d7b6146101f057806350b44712146102205780636482db3f1461025b5780636c5c74b81461028b57806371d69ef0146102bb57610137565b806307f44b8b1461013c57806315f59d7f1461015857806316086c981461017457806316c15c0c146101905780632b08e824146101c0575b600080fd5b61015660048036038101906101519190611deb565b6104b1565b005b610172600480360381019061016d9190611d86565b61080e565b005b61018e60048036038101906101899190611d86565b6109f2565b005b6101aa60048036038101906101a59190611d86565b610c1b565b6040516101b7919061227f565b60405180910390f35b6101da60048036038101906101d59190611d86565b610cb6565b6040516101e7919061214c565b60405180910390f35b61020a60048036038101906102059190611d86565b610ce9565b604051610217919061219d565b60405180910390f35b61023a60048036038101906102359190611d86565b610e0c565b6040516102529c9b9a999897969594939291906122fa565b60405180910390f35b61027560048036038101906102709190611d86565b611061565b6040516102829190612182565b60405180910390f35b6102a560048036038101906102a09190611d86565b611109565b6040516102b2919061227f565b60405180910390f35b6102d560048036038101906102d09190611d86565b6111a4565b6040516102e2919061227f565b60405180910390f35b61030560048036038101906103009190611d86565b61123f565b604051610312919061227f565b60405180910390f35b6103236112da565b604051610330919061227f565b60405180910390f35b6103416112e0565b60405161034e919061214c565b60405180910390f35b610371600480360381019061036c9190611d86565b611306565b60405161037e919061219d565b60405180910390f35b6103a1600480360381019061039c9190611daf565b611429565b005b6103bd60048036038101906103b89190611d86565b61185c565b6040516103ca919061219d565b60405180910390f35b6103ed60048036038101906103e89190611d86565b61197f565b6040516103fa919061214c565b60405180910390f35b61040b611a3a565b6040516104189190612167565b60405180910390f35b61043b60048036038101906104369190611d86565b611a60565b604051610448919061227f565b60405180910390f35b61046b60048036038101906104669190611d86565b611afb565b604051610478919061227f565b60405180910390f35b61049b60048036038101906104969190611d86565b611b96565b6040516104a8919061214c565b60405180910390f35b600560009054906101000a900473ffffffffffffffffffffffffffffffffffffffff1673ffffffffffffffffffffffffffffffffffffffff163373ffffffffffffffffffffffffffffffffffffffff161461050b57600080fd5b600060405180610180016040528060045481526020018a815260200189815260200188815260200187815260200186815260200185815260200184815260200160006002811115610585577f4e487b7100000000000000000000000000000000000000000000000000000000600052602160045260246000fd5b8152602001600560009054906101000a900473ffffffffffffffffffffffffffffffffffffffff1673ffffffffffffffffffffffffffffffffffffffff168152602001600073ffffffffffffffffffffffffffffffffffffffff1681526020018381525090806001815401808255809150506001900390600052602060002090600b020160009091909190915060008201518160000155602082015181600101556040820151816002019080519060200190610642929190611c51565b50606082015181600301908051906020019061065f929190611c51565b506080820151816004015560a0820151816005019080519060200190610686929190611c51565b5060c0820151816006015560e082015181600701556101008201518160080160006101000a81548160ff021916908360028111156106ed577f4e487b7100000000000000000000000000000000000000000000000000000000600052602160045260246000fd5b02179055506101208201518160080160016101000a81548173ffffffffffffffffffffffffffffffffffffffff021916908373ffffffffffffffffffffffffffffffffffffffff1602179055506101408201518160090160006101000a81548173ffffffffffffffffffffffffffffffffffffffff021916908373ffffffffffffffffffffffffffffffffffffffff16021790555061016082015181600a015550507f960fa3b53d2527c64fb943b9502a4541b1137488cb027f95b36b06b44d10fedc600454600560009054906101000a900473ffffffffffffffffffffffffffffffffffffffff166040516107e492919061229a565b60405180910390a1600460008154809291906107ff9061253f565b91905055505050505050505050565b6000805490508110610855576040517f08c379a000000000000000000000000000000000000000000000000000000000815260040161084c906121bf565b60405180910390fd5b6000808281548110610890577f4e487b7100000000000000000000000000000000000000000000000000000000600052603260045260246000fd5b90600052602060002090600b02019050600060028111156108da577f4e487b7100000000000000000000000000000000000000000000000000000000600052602160045260246000fd5b8160080160009054906101000a900460ff166002811115610924577f4e487b7100000000000000000000000000000000000000000000000000000000600052602160045260246000fd5b14610964576040517f08c379a000000000000000000000000000000000000000000000000000000000815260040161095b906121ff565b60405180910390fd5b60018160080160006101000a81548160ff021916908360028111156109b2577f4e487b7100000000000000000000000000000000000000000000000000000000600052602160045260246000fd5b02179055507fb0ebd5f2f7c40ca5715d8deab780894f023a63bc249fc45e69df6acbc4e8b568826040516109e6919061227f565b60405180910390a15050565b806000806002811115610a2e577f4e487b7100000000000000000000000000000000000000000000000000000000600052602160045260246000fd5b60008381548110610a68577f4e487b7100000000000000000000000000000000000000000000000000000000600052603260045260246000fd5b90600052602060002090600b020160080160009054906101000a900460ff166002811115610abf577f4e487b7100000000000000000000000000000000000000000000000000000000600052602160045260246000fd5b14610aff576040517f08c379a0000000000000000000000000000000000000000000000000000000008152600401610af69061221f565b60405180910390fd5b826004548110610b44576040517f08c379a0000000000000000000000000000000000000000000000000000000008152600401610b3b906121df565b60405180910390fd5b600260008581548110610b80577f4e487b7100000000000000000000000000000000000000000000000000000000600052603260045260246000fd5b90600052602060002090600b020160080160006101000a81548160ff02191690836002811115610bd9577f4e487b7100000000000000000000000000000000000000000000000000000000600052602160045260246000fd5b02179055507f5f9fbbc6b6aee5534f63c42109bdd37181fe2ce563b4c54322b4d7b6910393df84604051610c0d919061227f565b60405180910390a150505050565b6000816004548110610c62576040517f08c379a0000000000000000000000000000000000000000000000000000000008152600401610c59906121df565b60405180910390fd5b60008381548110610c9c577f4e487b7100000000000000000000000000000000000000000000000000000000600052603260045260246000fd5b90600052602060002090600b020160040154915050919050565b60016020528060005260406000206000915054906101000a900473ffffffffffffffffffffffffffffffffffffffff1681565b6060816004548110610d30576040517f08c379a0000000000000000000000000000000000000000000000000000000008152600401610d27906121df565b60405180910390fd5b60008381548110610d6a577f4e487b7100000000000000000000000000000000000000000000000000000000600052603260045260246000fd5b90600052602060002090600b02016002018054610d869061250d565b80601f0160208091040260200160405190810160405280929190818152602001828054610db29061250d565b8015610dff5780601f10610dd457610100808354040283529160200191610dff565b820191906000526020600020905b815481529060010190602001808311610de257829003601f168201915b5050505050915050919050565b60008181548110610e1c57600080fd5b90600052602060002090600b0201600091509050806000015490806001015490806002018054610e4b9061250d565b80601f0160208091040260200160405190810160405280929190818152602001828054610e779061250d565b8015610ec45780601f10610e9957610100808354040283529160200191610ec4565b820191906000526020600020905b815481529060010190602001808311610ea757829003601f168201915b505050505090806003018054610ed99061250d565b80601f0160208091040260200160405190810160405280929190818152602001828054610f059061250d565b8015610f525780601f10610f2757610100808354040283529160200191610f52565b820191906000526020600020905b815481529060010190602001808311610f3557829003601f168201915b505050505090806004015490806005018054610f6d9061250d565b80601f0160208091040260200160405190810160405280929190818152602001828054610f999061250d565b8015610fe65780601f10610fbb57610100808354040283529160200191610fe6565b820191906000526020600020905b815481529060010190602001808311610fc957829003601f168201915b5050505050908060060154908060070154908060080160009054906101000a900460ff16908060080160019054906101000a900473ffffffffffffffffffffffffffffffffffffffff16908060090160009054906101000a900473ffffffffffffffffffffffffffffffffffffffff169080600a015490508c565b60008160045481106110a8576040517f08c379a000000000000000000000000000000000000000000000000000000000815260040161109f906121df565b60405180910390fd5b600083815481106110e2577f4e487b7100000000000000000000000000000000000000000000000000000000600052603260045260246000fd5b90600052602060002090600b020160080160009054906101000a900460ff16915050919050565b6000816004548110611150576040517f08c379a0000000000000000000000000000000000000000000000000000000008152600401611147906121df565b60405180910390fd5b6000838154811061118a577f4e487b7100000000000000000000000000000000000000000000000000000000600052603260045260246000fd5b90600052602060002090600b020160060154915050919050565b60008160045481106111eb576040517f08c379a00000000000000000000000000000000000000000000000000000000081526004016111e2906121df565b60405180910390fd5b60008381548110611225577f4e487b7100000000000000000000000000000000000000000000000000000000600052603260045260246000fd5b90600052602060002090600b020160070154915050919050565b6000816004548110611286576040517f08c379a000000000000000000000000000000000000000000000000000000000815260040161127d906121df565b60405180910390fd5b600083815481106112c0577f4e487b7100000000000000000000000000000000000000000000000000000000600052603260045260246000fd5b90600052602060002090600b020160010154915050919050565b60045481565b600560009054906101000a900473ffffffffffffffffffffffffffffffffffffffff1681565b606081600454811061134d576040517f08c379a0000000000000000000000000000000000000000000000000000000008152600401611344906121df565b60405180910390fd5b60008381548110611387577f4e487b7100000000000000000000000000000000000000000000000000000000600052603260045260246000fd5b90600052602060002090600b020160050180546113a39061250d565b80601f01602080910402602001604051908101604052809291908181526020018280546113cf9061250d565b801561141c5780601f106113f15761010080835404028352916020019161141c565b820191906000526020600020905b8154815290600101906020018083116113ff57829003601f168201915b5050505050915050919050565b81600454811061146e576040517f08c379a0000000000000000000000000000000000000000000000000000000008152600401611465906121df565b60405180910390fd5b600083815481106114a8577f4e487b7100000000000000000000000000000000000000000000000000000000600052603260045260246000fd5b90600052602060002090600b020160080160019054906101000a900473ffffffffffffffffffffffffffffffffffffffff1673ffffffffffffffffffffffffffffffffffffffff163373ffffffffffffffffffffffffffffffffffffffff1614611547576040517f08c379a000000000000000000000000000000000000000000000000000000000815260040161153e9061225f565b60405180910390fd5b60006002811115611581577f4e487b7100000000000000000000000000000000000000000000000000000000600052602160045260246000fd5b600084815481106115bb577f4e487b7100000000000000000000000000000000000000000000000000000000600052603260045260246000fd5b90600052602060002090600b020160080160009054906101000a900460ff166002811115611612577f4e487b7100000000000000000000000000000000000000000000000000000000600052602160045260246000fd5b14611652576040517f08c379a00000000000000000000000000000000000000000000000000000000081526004016116499061223f565b60405180910390fd5b6000838154811061168c577f4e487b7100000000000000000000000000000000000000000000000000000000600052603260045260246000fd5b90600052602060002090600b020160080160019054906101000a900473ffffffffffffffffffffffffffffffffffffffff16600084815481106116f8577f4e487b7100000000000000000000000000000000000000000000000000000000600052603260045260246000fd5b90600052602060002090600b020160090160006101000a81548173ffffffffffffffffffffffffffffffffffffffff021916908373ffffffffffffffffffffffffffffffffffffffff1602179055508160008481548110611782577f4e487b7100000000000000000000000000000000000000000000000000000000600052603260045260246000fd5b90600052602060002090600b020160080160016101000a81548173ffffffffffffffffffffffffffffffffffffffff021916908373ffffffffffffffffffffffffffffffffffffffff1602179055507f913d09b391f64143215d9312fd7e8ecaa06001c646789c9d2109dc515bc34fad83836000868154811061182e577f4e487b7100000000000000000000000000000000000000000000000000000000600052603260045260246000fd5b90600052602060002090600b0201600a015460405161184f939291906122c3565b60405180910390a1505050565b60608160045481106118a3576040517f08c379a000000000000000000000000000000000000000000000000000000000815260040161189a906121df565b60405180910390fd5b600083815481106118dd577f4e487b7100000000000000000000000000000000000000000000000000000000600052603260045260246000fd5b90600052602060002090600b020160030180546118f99061250d565b80601f01602080910402602001604051908101604052809291908181526020018280546119259061250d565b80156119725780601f1061194757610100808354040283529160200191611972565b820191906000526020600020905b81548152906001019060200180831161195557829003601f168201915b5050505050915050919050565b60008160045481106119c6576040517f08c379a00000000000000000000000000000000000000000000000000000000081526004016119bd906121df565b60405180910390fd5b60008381548110611a00577f4e487b7100000000000000000000000000000000000000000000000000000000600052603260045260246000fd5b90600052602060002090600b020160080160019054906101000a900473ffffffffffffffffffffffffffffffffffffffff16915050919050565b600360009054906101000a900473ffffffffffffffffffffffffffffffffffffffff1681565b6000816004548110611aa7576040517f08c379a0000000000000000000000000000000000000000000000000000000008152600401611a9e906121df565b60405180910390fd5b60008381548110611ae1577f4e487b7100000000000000000000000000000000000000000000000000000000600052603260045260246000fd5b90600052602060002090600b020160000154915050919050565b6000816004548110611b42576040517f08c379a0000000000000000000000000000000000000000000000000000000008152600401611b39906121df565b60405180910390fd5b60008381548110611b7c577f4e487b7100000000000000000000000000000000000000000000000000000000600052603260045260246000fd5b90600052602060002090600b0201600a0154915050919050565b6000816004548110611bdd576040517f08c379a0000000000000000000000000000000000000000000000000000000008152600401611bd4906121df565b60405180910390fd5b60008381548110611c17577f4e487b7100000000000000000000000000000000000000000000000000000000600052603260045260246000fd5b90600052602060002090600b020160090160009054906101000a900473ffffffffffffffffffffffffffffffffffffffff16915050919050565b828054611c5d9061250d565b90600052602060002090601f016020900481019282611c7f5760008555611cc6565b82601f10611c9857805160ff1916838001178555611cc6565b82800160010185558215611cc6579182015b82811115611cc5578251825591602001919060010190611caa565b5b509050611cd39190611cd7565b5090565b5b80821115611cf0576000816000905550600101611cd8565b5090565b6000611d07611d02846123fa565b6123c9565b905082815260208101848484011115611d1f57600080fd5b611d2a8482856124cb565b509392505050565b600081359050611d4181612669565b92915050565b600082601f830112611d5857600080fd5b8135611d68848260208601611cf4565b91505092915050565b600081359050611d8081612680565b92915050565b600060208284031215611d9857600080fd5b6000611da684828501611d71565b91505092915050565b60008060408385031215611dc257600080fd5b6000611dd085828601611d71565b9250506020611de185828601611d32565b9150509250929050565b600080600080600080600080610100898b031215611e0857600080fd5b6000611e168b828c01611d71565b985050602089013567ffffffffffffffff811115611e3357600080fd5b611e3f8b828c01611d47565b975050604089013567ffffffffffffffff811115611e5c57600080fd5b611e688b828c01611d47565b9650506060611e798b828c01611d71565b955050608089013567ffffffffffffffff811115611e9657600080fd5b611ea28b828c01611d47565b94505060a0611eb38b828c01611d71565b93505060c0611ec48b828c01611d71565b92505060e0611ed58b828c01611d71565b9150509295985092959890939650565b611eee81612446565b82525050565b611efd81612495565b82525050565b611f0c816124b9565b82525050565b6000611f1d8261242a565b611f278185612435565b9350611f378185602086016124da565b611f4081612644565b840191505092915050565b6000611f58601683612435565b91507f5469636b657420646f6573206e6f742065786973742e000000000000000000006000830152602082019050919050565b6000611f98601183612435565b91507f496e76616c6964207469636b65742049440000000000000000000000000000006000830152602082019050919050565b6000611fd8601583612435565b91507f5469636b6574206973206e6f74206163746976652e00000000000000000000006000830152602082019050919050565b6000612018602b83612435565b91507f5469636b65742061742077726f6e672073746174652c20616374696f6e206e6f60008301527f7420706572666f726d65640000000000000000000000000000000000000000006020830152604082019050919050565b600061207e603183612435565b91507f5469636b65742063616e6e6f74206265207472616e7366657272656420696e2060008301527f6974732063757272656e742073746174650000000000000000000000000000006020830152604082019050919050565b60006120e4602283612435565b91507f4f6e6c7920746865207469636b6574206f776e65722063616e207472616e736660008301527f65720000000000000000000000000000000000000000000000000000000000006020830152604082019050919050565b6121468161248b565b82525050565b60006020820190506121616000830184611ee5565b92915050565b600060208201905061217c6000830184611ef4565b92915050565b60006020820190506121976000830184611f03565b92915050565b600060208201905081810360008301526121b78184611f12565b905092915050565b600060208201905081810360008301526121d881611f4b565b9050919050565b600060208201905081810360008301526121f881611f8b565b9050919050565b6000602082019050818103600083015261221881611fcb565b9050919050565b600060208201905081810360008301526122388161200b565b9050919050565b6000602082019050818103600083015261225881612071565b9050919050565b60006020820190508181036000830152612278816120d7565b9050919050565b6000602082019050612294600083018461213d565b92915050565b60006040820190506122af600083018561213d565b6122bc6020830184611ee5565b9392505050565b60006060820190506122d8600083018661213d565b6122e56020830185611ee5565b6122f2604083018461213d565b949350505050565b600061018082019050612310600083018f61213d565b61231d602083018e61213d565b818103604083015261232f818d611f12565b90508181036060830152612343818c611f12565b9050612352608083018b61213d565b81810360a0830152612364818a611f12565b905061237360c083018961213d565b61238060e083018861213d565b61238e610100830187611f03565b61239c610120830186611ee5565b6123aa610140830185611ee5565b6123b861016083018461213d565b9d9c50505050505050505050505050565b6000604051905081810181811067ffffffffffffffff821117156123f0576123ef612615565b5b8060405250919050565b600067ffffffffffffffff82111561241557612414612615565b5b601f19601f8301169050602081019050919050565b600081519050919050565b600082825260208201905092915050565b60006124518261246b565b9050919050565b600081905061246682612655565b919050565b600073ffffffffffffffffffffffffffffffffffffffff82169050919050565b6000819050919050565b60006124a0826124a7565b9050919050565b60006124b28261246b565b9050919050565b60006124c482612458565b9050919050565b82818337600083830152505050565b60005b838110156124f85780820151818401526020810190506124dd565b83811115612507576000848401525b50505050565b6000600282049050600182168061252557607f821691505b60208210811415612539576125386125e6565b5b50919050565b600061254a8261248b565b91507fffffffffffffffffffffffffffffffffffffffffffffffffffffffffffffffff82141561257d5761257c612588565b5b600182019050919050565b7f4e487b7100000000000000000000000000000000000000000000000000000000600052601160045260246000fd5b7f4e487b7100000000000000000000000000000000000000000000000000000000600052602160045260246000fd5b7f4e487b7100000000000000000000000000000000000000000000000000000000600052602260045260246000fd5b7f4e487b7100000000000000000000000000000000000000000000000000000000600052604160045260246000fd5b6000601f19601f8301169050919050565b60038110612666576126656125b7565b5b50565b61267281612446565b811461267d57600080fd5b50565b6126898161248b565b811461269457600080fd5b5056fea2646970667358221220572cc4f5741f6e111d7f9f985985b69153aafd5d0ae3a0cf4b879ead225f04ae64736f6c63430008000033",
  "immutableReferences": {},
  "source": "// SPDX-License-Identifier: MIT\r\npragma solidity ^0.8.0;\r\n\r\nimport \"./ERC20.sol\";\r\nimport \"./TicketToken.sol\";\r\n\r\ncontract Ticket {\r\n    enum TicketState {\r\n        Active,\r\n        Redeemed,\r\n        Frozen\r\n    }\r\n\r\n    struct TicketDetail {\r\n        uint256 ticketId;\r\n        uint256 concertId;\r\n        string concertName;\r\n        string concertVenue;\r\n        uint256 concertDate;\r\n        string ticketCategory;\r\n        uint256 ticketSectionNo;\r\n        uint256 ticketSeatNo;\r\n        TicketState ticketState;\r\n        address owner;\r\n        address prevOwner;\r\n        uint256 price;\r\n    }\r\n\r\n    TicketDetail[] public tickets;\r\n    mapping(uint256 => address) public ticketToOwner;\r\n    mapping(address => uint256) ownerTicketCount;\r\n\r\n    event TicketCreated(uint256 ticketId, address owner);\r\n    event TicketRedeemed(uint256 ticketId);\r\n    event TicketFrozen(uint256 ticketId);\r\n    event TicketBought(uint256 ticketId, address newOwner, uint256 price);\r\n\r\n    TicketToken public ticketToken;\r\n    uint256 public ticketCounter = 0;\r\n    address public owner;\r\n\r\n    constructor(address _ticketToken) {\r\n        owner = msg.sender;\r\n        ticketToken = TicketToken(_ticketToken);\r\n    }\r\n\r\n    modifier atState(uint256 _ticketId, TicketState _state) {\r\n        require(\r\n            tickets[_ticketId].ticketState == _state,\r\n            \"Ticket at wrong state, action not performed\"\r\n        );\r\n        _;\r\n    }\r\n\r\n    modifier validTicketId(uint256 ticketId) {\r\n        require(ticketId < ticketCounter, \"Invalid ticket ID\");\r\n        _;\r\n    }\r\n\r\n    function createTicket(\r\n        uint256 concertId,\r\n        string memory concertName,\r\n        string memory concertVenue,\r\n        uint256 concertDate,\r\n        string memory ticketCategory,\r\n        uint256 ticketSectionNo,\r\n        uint256 ticketSeatNo,\r\n        uint256 price\r\n    ) external {\r\n        require(msg.sender == owner);\r\n        tickets.push(\r\n            TicketDetail({\r\n                ticketId: ticketCounter,\r\n                concertId: concertId,\r\n                concertName: concertName,\r\n                concertVenue: concertVenue,\r\n                concertDate: concertDate,\r\n                ticketCategory: ticketCategory,\r\n                ticketSectionNo: ticketSectionNo,\r\n                ticketSeatNo: ticketSeatNo,\r\n                ticketState: TicketState.Active,\r\n                owner: owner,\r\n                prevOwner: address(0),\r\n                price: price\r\n            })\r\n        );\r\n        emit TicketCreated(ticketCounter, owner);\r\n        ticketCounter++;\r\n    }\r\n\r\n    function redeemTicket(uint256 _ticketId) public {\r\n        require(_ticketId < tickets.length, \"Ticket does not exist.\");\r\n        TicketDetail storage ticket = tickets[_ticketId];\r\n\r\n        // Ensure the ticket is active\r\n        require(\r\n            ticket.ticketState == TicketState.Active,\r\n            \"Ticket is not active.\"\r\n        );\r\n\r\n        // Update the ticket state to Redeemed\r\n        ticket.ticketState = TicketState.Redeemed;\r\n\r\n        // Emit the redemption event\r\n        emit TicketRedeemed(_ticketId);\r\n    }\r\n\r\n    function freezeTicket(\r\n        uint256 _ticketId\r\n    ) external atState(_ticketId, TicketState.Active) validTicketId(_ticketId) {\r\n        tickets[_ticketId].ticketState = TicketState.Frozen;\r\n        emit TicketFrozen(_ticketId);\r\n    }\r\n\r\n    function transfer(\r\n        uint256 ticketId,\r\n        address newOwner\r\n    ) external validTicketId(ticketId) {\r\n        require(\r\n            msg.sender == tickets[ticketId].owner,\r\n            \"Only the ticket owner can transfer\"\r\n        );\r\n        require(\r\n            tickets[ticketId].ticketState == TicketState.Active,\r\n            \"Ticket cannot be transferred in its current state\"\r\n        );\r\n\r\n        tickets[ticketId].prevOwner = tickets[ticketId].owner;\r\n        tickets[ticketId].owner = newOwner;\r\n\r\n        emit TicketBought(ticketId, newOwner, tickets[ticketId].price);\r\n    }\r\n\r\n    // Getter Functions for Ticket attributes\r\n    function getTicketId(\r\n        uint256 ticketId\r\n    ) public view validTicketId(ticketId) returns (uint256) {\r\n        return tickets[ticketId].ticketId;\r\n    }\r\n\r\n    function getConcertId(\r\n        uint256 ticketId\r\n    ) public view validTicketId(ticketId) returns (uint256) {\r\n        return tickets[ticketId].concertId;\r\n    }\r\n\r\n    function getConcertName(\r\n        uint256 ticketId\r\n    ) public view validTicketId(ticketId) returns (string memory) {\r\n        return tickets[ticketId].concertName;\r\n    }\r\n\r\n    function getConcertVenue(\r\n        uint256 ticketId\r\n    ) public view validTicketId(ticketId) returns (string memory) {\r\n        return tickets[ticketId].concertVenue;\r\n    }\r\n\r\n    function getConcertDate(\r\n        uint256 ticketId\r\n    ) public view validTicketId(ticketId) returns (uint256) {\r\n        return tickets[ticketId].concertDate;\r\n    }\r\n\r\n    function getTicketCategory(\r\n        uint256 ticketId\r\n    ) public view validTicketId(ticketId) returns (string memory) {\r\n        return tickets[ticketId].ticketCategory;\r\n    }\r\n\r\n    function getTicketSectionNo(\r\n        uint256 ticketId\r\n    ) public view validTicketId(ticketId) returns (uint256) {\r\n        return tickets[ticketId].ticketSectionNo;\r\n    }\r\n\r\n    function getTicketSeatNo(\r\n        uint256 ticketId\r\n    ) public view validTicketId(ticketId) returns (uint256) {\r\n        return tickets[ticketId].ticketSeatNo;\r\n    }\r\n\r\n    function getTicketState(\r\n        uint256 ticketId\r\n    ) public view validTicketId(ticketId) returns (TicketState) {\r\n        return tickets[ticketId].ticketState;\r\n    }\r\n\r\n    function getOwner(\r\n        uint256 ticketId\r\n    ) public view validTicketId(ticketId) returns (address) {\r\n        return tickets[ticketId].owner;\r\n    }\r\n\r\n    function getPrevOwner(\r\n        uint256 ticketId\r\n    ) public view validTicketId(ticketId) returns (address) {\r\n        return tickets[ticketId].prevOwner;\r\n    }\r\n\r\n    function getPrice(\r\n        uint256 ticketId\r\n    ) public view validTicketId(ticketId) returns (uint256) {\r\n        return tickets[ticketId].price;\r\n    }\r\n}\r\n",
  "sourcePath": "C:\\Users\\tngjo\\OneDrive\\Desktop\\GitHub\\IS4302-Decentralized-Event-Ticketing-System\\contracts\\Ticket.sol",
  "compiler": {
    "name": "solc",
    "version": "0.8.0+commit.c7dfd78e.Emscripten.clang"
  },
  "schemaVersion": "3.4.16",
  "updatedAt": "2024-03-21T18:48:27.257Z",
  "devdoc": {
    "kind": "dev",
    "methods": {},
    "version": 1
  },
  "userdoc": {
    "kind": "user",
    "methods": {},
    "version": 1
  }
}